:100000000C9431030C944E030C944E030C944E0349
:100010000C945D0D0C94860D0C94AF0D0C94D80DC2
:100020000C944E030C943E0C0C94670C0C94900CA6
:100030000C940B0D0C94B90C0C94E20C0C94340D34
:100040000C94C30B0C94EC0B0C94150C0C944E03F9
:100050000C944E030C944E030C944E030C944E03DC
:100060000C944E030C944E030C944E030C944E03CC
:100070000C944E030C944E030C944E03490A4C0A04
:100080004F0A520A5B0A550A580A5E0A610A640A54
:10009000670A6A0A6D0A700A730A760A790A7C0A84
:1000A0007F0A900A930A960A990AA20A9C0A9F0A52
:1000B000A50AA80AAB0AAE0AB10AB40AB70ABA0A74
:1000C000BD0AC00AC30AC60A07634236B79BD8A74F
:1000D0001A39685618AEBAAB558C1D3CB7CC57636D
:1000E000BD6DEDFD753EF6177231BF000000803F1B
:1000F00008000000BE922449123EABAAAA2ABECD37
:10010000CCCC4C3E00000080BEABAAAAAA3E0000A8
:100110000000BF000000803F0000000000084178A0
:10012000D3BB4387D1133D190E3CC3BD4282AD2BD7
:100130003E68EC8276BED98FE1A93E4C80EFFFBECF
:1001400001C4FF7F3F000000000016050100000011
:1001500000000000FA000000E000E00028FE28FE99
:10016000282454FE5448C4C81026466C92AA44A0C1
:1001700000A0C000000038448200008244380028FB
:10018000107C102810107C1010000A0C00001010B9
:10019000101010000606000004081020407C8A920F
:1001A000A27C0042FE020042868A92628482A2D22F
:1001B0008C182848FE08E4A2A2A29C3C5292920C01
:1001C000808E90A0C06C9292926C60929294780013
:1001D0006C6C0000006A6C00001028448200282823
:1001E000282828008244281040808A90604C929EE3
:1001F000827C7E8888887EFE9292926C7C8282824B
:1002000044FE82824438FE92929282FE90909080C8
:100210007C8292925EFE101010FE0082FE8200042C
:100220000282FC80FE10284482FE02020202FE408E
:100230003040FEFE201008FE7C8282827CFE909080
:1002400090607C828A847AFE909894626292929204
:100250008C8080FE8080FC020202FCF8040204F81C
:10026000FC021C02FCC6281028C6E0100E10E08616
:100270008A92A2C200FE82820040201008040082FE
:1002800082FE0020408040200202020202008040E4
:100290002000042A2A2A1EFE1222221C1C222222AC
:1002A000041C222212FE1C2A2A2A18107E9080404A
:1002B000304A4A4A7CFE1020201E0022BE02000462
:1002C0000222BC00FE081422000082FE02003E2032
:1002D00018201E3E1020201E1C2222221C3E2828F0
:1002E0002810102828183E3E10202010122A2A2AF2
:1002F0000420FC2202043C0202043E3804020438BA
:100300003C020C023C2214081422300A0A0A3C2245
:10031000262A322200106C82000000FE00000082BB
:100320006C1000081010081000000000007F818190
:10033000817F7F8383837F7F8787877F7F8F8F8F77
:100340007F7F9F9F9F7F7FBFBFBF7F7FFFFFFF7F1D
:100350002040FF4020621517156500FBFB000000E0
:1003600000000000C0FF0300E0FF0700F0FF0F00E7
:10037000F8FF1F0078001E0078001E0078001E00A5
:1003800078001E0078001E0078001E0078001E0015
:1003900078001E0078001E00000000000000000031
:1003A00080FF0300E0FF0700F0FF0F00F8FF1F00D1
:1003B000F83C1F00783C1E00783C1E00783C1E0074
:1003C000783C1E00783C1E00783C1E00783C1E00E5
:1003D000783C1E00783C1E00783C1E0000000000A7
:1003E00000000000E0FF0300F0FF0700F8FF0F002F
:1003F000F8FF1F00783C1E00783C1E00783C1E0071
:10040000783C1E00783C1E00783C1E00783C1E00A4
:10041000783C1E00783C1E00783C1E000000000066
:1004200000000000F8FF0300F8FF0F00F8FF1F00B6
:10043000F8FF1F0000001E0000001E0000801F00CB
:1004400000F01F0000FF0F00E0FF0700F0FF0000BA
:10045000F80F0000F80000007800000078000000AD
:10046000F8FF1F00F8FF1F00F0FF1F00E0FF1F0054
:100470000000000000000000F8FF1F00F8FF1F0050
:10048000F8FF1F00F8FF1F0078001E00783C1E00D8
:10049000783C1E00783C1E00783C1E00783C1E0014
:1004A000783C1E00F87E1F00F8FF1F00F0FF0F00D1
:1004B000E0E703000000000000003800EEFF6C00E1
:1004C0002A8045003A0047FC03FF6CFC83FF39009B
:1004D000DEFF0B7CD0810BFCD0810BC0D0810BFCEC
:1004E000D0810B7CDEFF0B0082FF397002FF6CF8BD
:1004F0003A0047DC2A8045CCEEFF6CCC0000380087
:100500000000000C00001E0C00001E0000001E0079
:1005100000001E0000001E00F8FF1F00F8FF1F0073
:10052000F8FF1F00F8FF1F0000001E0000001E0063
:1005300000001E0000001E0000005E0000004000E1
:1005400000007C00000040000000400000007C0033
:1005500000003000000010000000300000007C6E41
:10056000616E00696E660000407A10F35A00A07256
:100570004E18090010A5D4E80000E87648170000DE
:10058000E40B54020000CA9A3B000000E1F50500AC
:100590000080969800000040420F000000A08601F5
:1005A000000000102700000000E8030000000064C5
:1005B00000000000000A0000000000010000000030
:1005C000002C76D888DC674F0823DFC1DFAE59E105
:1005D000B1B796E5E3E453C63AE651997696E8E674
:1005E000C28426EB898C9B62ED407C6FFCEFBC9C47
:1005F0009F40F2BAA56FA5F490055A2AF75C936B59
:100600006CF9676DC11BFCE0E40D47FEF520E6B513
:1006100000D0ED902E0300943577050080841E08ED
:100620000000204E0A000000C80C333333330F980B
:100630006E12831141EF8D2114893BE65516CFFED2
:10064000E6DB18D1844B381BF77C1D901DA4BBE45E
:1006500024203284725E228100C9F124ECA1E53DA0
:10066000270011241FBECFEFD8E0DEBFCDBF11E0C1
:10067000A0E0B1E0EAE3F0E402C005900D92AE38EC
:10068000B107D9F714E0AEE8B1E001C01D92A2377E
:10069000B107E1F70E94C8070C941B200C940000DE
:1006A0006F927F928F929F92AF92BF92CF92DF9282
:1006B000EF92FF920F931F93962E872E782E692E1E
:1006C00059016A010E94271687FD11C0692D782DF6
:1006D000872D962D9701A8010E94711718162CF0EE
:1006E000A92CB82CC72CD62C02C057016801B50123
:1006F000C6011F910F91FF90EF90DF90CF90BF90B8
:10070000AF909F908F907F906F90089581E00E94AE
:10071000BD0784E00E9486070E946907A0E0B0E060
:10072000BC01CD010E94BF1620E030E040EA50E459
:100730000E94C3159B01AC0160E070E286E395E482
:100740000E942B1620E030E040E85FE30E94C215D3
:100750002CE033E949EC5EE30E94AF17089581E095
:100760000E94BD0787E00E9486070E946907A0E0FB
:10077000B0E0BC01CD010E94BF1620E030E040EAAD
:1007800050E40E94C3159B01AC0160E070E286E377
:1007900095E40E942B1620E030E040E85FE30E94E1
:1007A000C2152CE033E949EC5EE30E94AF170895CF
:1007B00081E00E94BD0783E00E9486070E946907CE
:1007C000A0E0B0E0BC01CD010E94BF1620E030E007
:1007D00040EA50E40E94C3159B01AC0160E070E266
:1007E00086E395E40E942B1620E030E040E85FE3CA
:1007F0000E94C2152CE033E949EC5EE30E94AF177A
:1008000008950E94C90A87FD0EC090E086FD0BC0C6
:100810009C0185E0369527958A95E1F720953095DE
:100820002170307002C020E030E0C9010895CF92FD
:10083000DF92EF92FF920F931F93CF93DF93162FC8
:10084000E42E3FE1F32EF8221F770F2D0695069533
:100850000695C02FD0E0C12EDD24CE01B6010E9446
:100860009708802F612F0E949008FE01F695FE2FB9
:10087000EE27F795E7952F2D30E0EE2089F0EC0D6F
:10088000FD1DEB50FE4F2770307081E090E002C0FC
:10089000880F991F2A95E2F72081282B208311C009
:1008A000EC0DFD1DEB50FE4F2770307081E090E0A5
:1008B00002C0880F991F2A95E2F780952081822334
:1008C0008083D695DC2FCC27D795C795CC0DDD1D21
:1008D000CB50DE4F888161E00E94BB08DF91CF9151
:1008E0001F910F91FF90EF90DF90CF900895FF92AE
:1008F0000F931F9380E160E441E00E94170480E1C0
:1009000061E441E00E94170480E162E441E00E945A
:1009100017041EE389E0612F41E00E9417041F5F66
:100920001534C1F78FE06FE341E00E9417048FE0B8
:1009300063E441E00E94170480E160E441E00E942A
:10094000170480E162E441E00E94170404E452E8E5
:10095000F52E102F1053812F602F41E00E941704B5
:100960006F2D601B812F41E00E9417040F5F093437
:1009700081F70BE342E8F42E102F1553812F602FDF
:1009800041E00E9417046F2D601B812F41E00E94FF
:1009900017040F5F0F3381F71F910F91FF90089598
:1009A000EF92FF920F931F9380E160E441E00E9479
:1009B000170480E161E441E00E94170480E162E4F1
:1009C00041E00E9417041EE389E0612F41E00E948C
:1009D00017041F5F1534C1F70AE3E8E7EE2E72E84B
:1009E000F72E102F1652812F602F41E00E9417041E
:1009F000602F665F812F41E00E9417046E2D601BFF
:100A0000812F41E00E9417046F2D601B812F41E070
:100A10000E9417040F5F0D3321F704E462E8F62EFD
:100A2000102F1B53812F602F41E00E9417046F2D60
:100A3000601B812F41E00E9417040F5F083481F78B
:100A40008FE06FE341E00E9417048FE063E441E030
:100A50000E94170480E160E441E00E94170480E1F5
:100A600062E441E00E9417041F910F91FF90EF9004
:100A70000895FF920F931F9317E38DE1612F41E0DB
:100A80000E94170483E0612F41E00E9417041F5F5A
:100A90001C3499F719E0812F61E541E00E941704A9
:100AA000812F61E341E00E9417041F5F183199F71D
:100AB00014E0FAE3FF2E04E56F2D611B812F41E066
:100AC0000E941704602F611B812F8C5E41E00E9401
:100AD00017041F5F193081F71CE4812F8854612FA0
:100AE00041E00E941704812F84531A51612F41E085
:100AF0000E941704155E113581F71F910F91FF9029
:100B000008950F931F9324C0802F612F41E00E940E
:100B100017041F5F1038C1F70F5F003211F010E0AB
:100B2000F3CF80ED97E00E94490B00E00BC0802FCF
:100B3000612F40E00E9417041F5F1038C1F70F5F5C
:100B4000003211F010E0F3CF80ED97E00E94490BE6
:100B50000E940104892B11F000E0E1CF1F910F9159
:100B600008950F931F93CF93DF93C0E0D0E025C08B
:100B700084E690E00E94490B0E94D107C0FD05C0A9
:100B80000E9439050E94D00404C00E9439050E94C9
:100B9000770480ED97E00E94490B00E00BC0802FA6
:100BA000612F40E00E9417041F5F1038C1F70F5FEC
:100BB000003211F010E0F3CF21960E940104892B3E
:100BC000B9F6DF91CF911F910F9108952F923F9227
:100BD0004F925F926F927F929F92AF92BF92CF920D
:100BE000DF92EF92FF920F931F93DF93CF9300D08A
:100BF00000D0CDB7DEB7A0E02A2EA1E03A2EDBC0B0
:100C000084E690E00E94490B0E94D1070E9486036F
:100C10002B013C010E94D80369837A838B839C83D8
:100C2000C301B201A30192010E94C3155B016C01D3
:100C300020E030E040E050E00E94271688235CF47A
:100C40000F2EF0E0AF2EF0E0BF2EF0E0CF2EF0E060
:100C5000DF2EF02D14C0C601B50120E030E040E8E1
:100C600052E40E947117181654F40F2EF0E0AF2EC4
:100C7000F0E0BF2EF0E8CF2EF2E4DF2EF02D6981F8
:100C80007A818B819C819B01AC010E94C3157B0101
:100C90008C0120E030E040E050E00E9427168823DD
:100CA0005CF40F2EF0E0EF2EF0E0FF2EF0E00F2FBF
:100CB000F0E01F2FF02D14C0C801B70120E030E094
:100CC00040E852E40E947117181654F40F2EF0E019
:100CD000EF2EF0E0FF2EF0E80F2FF2E41F2FF02DA3
:100CE0009924492D4170892D60E40E94170460E029
:100CF00070E080E892E4A60195010E94C2150E946E
:100D000093169B01AC01892D622F41E00E941704CC
:100D1000C801B70120E030E04CE752E40E94C3155F
:100D20000E9493169B01AC01892D622F41E00E9425
:100D30001704939480E29816A1F680E060E00E9488
:100D4000B00800D000D000D0ADB7BEB712963C922C
:100D50002E921197EDB7FEB7438254826582768258
:100D60000E94761F8DB79EB706960FB6F8949EBF69
:100D70000FBE8DBF80E060E10E94B00800D000D0BF
:100D800000D0ADB7BEB712963C922E9211978981D2
:100D90009A81AB81BC81EDB7FEB783839483A58331
:100DA000B6830E94761F8DB79EB706960FB6F8944D
:100DB0009EBF0FBE8DBF0E940104892B09F020CF7A
:100DC0000F900F900F900F90CF91DF911F910F9187
:100DD000FF90EF90DF90CF90BF90AF909F907F906B
:100DE0006F905F904F903F902F9008950E94D10791
:100DF00085E091E00E94881F08950E94EE0782E03E
:100E00000E94C7090E94FA0A0E945B0781E00E94C3
:100E1000BD0720E030E00AC01192019680389105AC
:100E2000D9F72F5F3F4F2430310559F0F901F6957E
:100E3000FE2FEE27F795E795EB50FE4F80E090E010
:100E4000EBCF08950E94FD060E94D1070E94F6068E
:100E500084E690E00E94490B0E94C90A87FF0DC0FA
:100E600069E77BE080E090E04AEF50E020E530E089
:100E70000E94D4090E948105E9CF86FF0DC060E37E
:100E800071E180E090E04AEF50E020E530E00E9420
:100E9000D4090E94E605DACF85FFDACF61EC79E16B
:100EA00080E090E04AEF50E020E530E00E94D40975
:100EB0000E94B105CBCF8FE00E943A0A882331F41B
:100EC0000E94A80B8FE061E00E94820A8FE091E00F
:100ED00008958FE00E943A0A813019F020E030E056
:100EE00013C080917A00806480937A0080917A00A8
:100EF00086FDFCCF3091780020917900922F80E020
:100F0000232F30E0282B392BC9010895582F8091C9
:100F100039018830D8F440917E0021E030E0B901F9
:100F200002C0660F771F8A95E2F7CB018095842374
:100F300080937E0080917E00052E02C0220F331F19
:100F40000A94E2F7822B80937E000DC020917E00F0
:100F500081E090E0052E02C0880F991F0A94E2F705
:100F6000282B20937E005093390180917C005F7183
:100F7000807E852B80937C000895ECE7F0E09081E3
:100F80008295880F880F807C9F73982B908308959B
:100F90000E94C10B0E94B30B0E94220780E090E0E8
:100FA00008950F931F9380E460E00E94BB0800E067
:100FB000802F60E00E94970810E080E061E00E94CE
:100FC000BB081F5F1038C9F70F5F043089F783E053
:100FD00060E00E9490081F910F9108950F931F9356
:100FE00082E00E943A0A882311F482E006C081E080
:100FF0000E943A0A882319F481E090E06DC00E94B3
:10100000290E85E061E00E94820A8EEA60E00E947B
:10101000BB0882EA60E00E94BB0880EA60E00E94B0
:10102000BB0800E513ECC8010197F1F780EC60E024
:101030000E94BB088FE260E00E94BB0881E860E08C
:101040000E94BB0886E160E00E94BB0882E260E08B
:101050000E94BB08C8010197F1F78FEA60E00E9487
:10106000BB0886EA60E00E94BB0885EA60E00E9457
:10107000BB0880E090E028E833E1F9013197F1F70F
:10108000019643E0883E9407C1F783EB60E00E943D
:10109000BB0880E460E00E94BB0883E060E00E943F
:1010A000970883E060E00E94900810920A04109272
:1010B0000C0410920B048AE391E090936F048093E8
:1010C0006E0488E10E946F080E94D10784EA60E004
:1010D0000E94BB0885E091E01F910F9108951F9336
:1010E000182F85E00E943A0A8130C1F487E00E94FF
:1010F000D60882E06AE00E94270982E061EB0E9444
:101100002709612F113208F060E282E00E9427096E
:1011100089EE8A95F1F787E00E94D6081F9108951D
:1011200083706F77609308048093090408950F9388
:101130001F93062F162F1F778370806B60E00E942D
:10114000BB0812951F70812F806160E00E94BB0870
:10115000802F8F7060E00E94BB081F910F9108954F
:10116000962F653108F094E166E0969FB001112456
:101170000E94900808950F931F93082F162F85E063
:101180000E943A0A813079F4112319F0113021F4C8
:1011900002C02B9801C02B9A86E08A95F1F780E077
:1011A000602F0E9427091F910F9108951F93182FF8
:1011B00082E00E943A0A813009F047C0912F97706F
:1011C00080910D04981709F440C090930D0485B1E7
:1011D000887F892B85B9933011F1943028F49130B0
:1011E00051F0923090F40CC0953019F19530E0F048
:1011F000963021F50FC0E091D001F091D10122C0CD
:10120000E091CE01F091CF011DC0E091D201F091AB
:10121000D30118C0E091DA01F091DB0113C0E09135
:10122000D401F091D5010EC0E091D601F091D70123
:1012300009C0E091D801F091D90104C0E091DC012E
:10124000F091DD01309709F009951F9108951F93E2
:10125000162F0E94D60882E00E943A0A813021F4BB
:101260001EBD0DB407FEFDCF1F9108950F931F9370
:10127000CF93DF9380E291E00E94571D9C019093F1
:10128000ED018093EC01892B11F480E039C08901D4
:10129000C0E0D0E0BE0180E090E00E94BF1620E0F8
:1012A00030E040EA51E40E942B1627EF35E740E09A
:1012B0005FE30E94AF179B01AC0160E070E080E249
:1012C00091E40E9412189B01AC01CA01B9012DECF6
:1012D0003CEC42E851E40E94AF170E9475172AE0E7
:1012E00030E040E050E00E94DF1CF8016193719310
:1012F000819391938F012196C834D10559F681E0ED
:10130000DF91CF911F910F9108958AE00E943A0AD0
:10131000882371F41092E9011092E80181E00E94A3
:101320000E1081E08093DF018AE061E00E94820A72
:101330008AE091E008951F938BE00E943A0A882387
:1013400011F090E021C089E00E943A0A8823D9F484
:101350000E943609182F8130B1F41092E0011092EA
:10136000E1011092E2011092E3018DE061E97FE07A
:101370000E94010E82E00E940E101093DE0189E0AF
:1013800061E00E94820A91E089E01F910895813016
:1013900029F0823031F090E089E008950E948509BB
:1013A00008950E949B0908958F929F92AF92BF92D9
:1013B000CF92DF92EF92FF920F931F93CF93DF9321
:1013C0004B015C01EA01B9012115310539F19E019A
:1013D000442737FD4095542F6536710510F064E6BB
:1013E00070E080E090E00E94DF1C24E630E040E006
:1013F00050E00E94FE1C79018A01C501B4010E94DF
:10140000210AC7010E94490B60E070E080E090E093
:101410000E94210ACE018E199F0904C04115510571
:1014200019F0CA010E94490BDF91CF911F910F91D2
:10143000FF90EF90DF90CF90BF90AF909F908F90F4
:1014400008959B01AC018091DE01882391F02093E7
:10145000E4013093E5014093E6015093E701211543
:1014600031054105510519F00E94851008950E942B
:101470008B100895E82FF0E0E331F10540F4E25CD1
:10148000FF4FEE0FFF1F0590F491E02D099480E0CF
:1014900008958091F50308958091F6030895809151
:1014A000F70308958091F80308958091F903089552
:1014B0008091FB0308958091FA0308958091FC03C5
:1014C00008958091FD0308958091FE030895809111
:1014D000FF03089580910004089580910104089508
:1014E000809102040895809103040895809104047A
:1014F00008958091050408958091060408958091CF
:1015000007040895E82FF0E0E331F10508F040C04A
:10151000EF5AFF4FEE0FFF1F0590F491E02D099455
:101520006093F50308956093F60308956093F703BD
:1015300008956093F80308956093F9030895609304
:10154000FB0308956093FA0308956093FC030895E4
:101550006093FD0308956093FE0308956093FF0375
:1015600008956093000408956093010408956093C2
:101570000204089560930304089560930404089599
:10158000609305040895609306040895609305042C
:1015900008950F931F9381E00E943A0A813011F061
:1015A00000E024C087E00E94D60882E06AE00E9442
:1015B000270982E062EB0E94270918EC812F8A95A7
:1015C000F1F782E060E00E94760F082F812F8A9564
:1015D000F1F782E060E00E94760F1A95F1F787E05C
:1015E0000E94D60888E893E10197F1F7802F1F91B8
:1015F0000F91089582E00E943A0A882319F490E03E
:1016000082E008951092230410922204109225047F
:101610001092240410922704109226041092290498
:101620001092280410922B0410922A0480E991E071
:1016300090930F0480930E049093110480931004F0
:1016400090931304809312049093150480931404D0
:10165000909317048093160484E398E09093190400
:101660008093180490931B0480931A0490931D0494
:1016700080931C0490931F0480931E049093210474
:101680008093200481E061E00E94820A91E081E081
:101690000895DF93CF93CDB7DEB729970FB6F894AF
:1016A000DEBF0FBECDBF9C01CE01019661E040E0E0
:1016B0000E946A0B982F882319F48F818823E9F3FD
:1016C000892F29960FB6F894DEBF0FBECDBFCF91FC
:1016D000DF910895EF92FF920F931F93CF93DF93C3
:1016E000EC01F62EE42E890188E00E943A0A81304E
:1016F00011F081E026C084E090E00E94571DFC01BB
:10170000009711F482E01DC0F982F0FC1E8281E096
:10171000E81619F4898184608983898188608983C6
:101720001B830A831D830C83D183C083138212829F
:1017300081E08093EE01CF010E94B4101092EE017F
:1017400080E0DF91CF911F910F91FF90EF9008956E
:101750008FE180937C00EAE7F0E087E0808380817E
:101760008068808308950E9491100E94D80E0E9484
:10177000150E0E941D110E943D0F0E94FA0A7894D6
:101780000895000008951F920F920FB60F92112432
:101790002F933F934F935F936F937F938F939F9379
:1017A000AF93BF93EF93FF93E091AE01F091AF0140
:1017B000309709F00995FF91EF91BF91AF919F91FB
:1017C0008F917F916F915F914F913F912F910F90EA
:1017D0000FBE0F901F9018951F920F920FB60F9289
:1017E00011242F933F934F935F936F937F938F9326
:1017F0009F93AF93BF93EF93FF93E091B001F0916C
:10180000B101309709F00995FF91EF91BF91AF9128
:101810009F918F917F916F915F914F913F912F9108
:101820000F900FBE0F901F9018951F920F920FB63A
:101830000F9211242F933F934F935F936F937F9356
:101840008F939F93AF93BF93EF93FF93E091B20178
:10185000F091B301309709F00995FF91EF91BF9195
:10186000AF919F918F917F916F915F914F913F9138
:101870002F910F900FBE0F901F9018951F920F92EF
:101880000FB60F9211242F933F934F935F936F9353
:101890007F938F939F93AF93BF93EF93FF93E091C9
:1018A000A001F091A101309709F00995FF91EF9106
:1018B000BF91AF919F918F917F916F915F914F9168
:1018C0003F912F910F900FBE0F901F9018951F9270
:1018D0000F920FB60F9211242F933F934F935F9364
:1018E0006F937F938F939F93AF93BF93EF93FF93E8
:1018F000E091A201F091A301309709F00995FF91C1
:10190000EF91BF91AF919F918F917F916F915F9177
:101910004F913F912F910F900FBE0F901F901895F0
:101920001F920F920FB60F9211242F933F934F9354
:101930005F936F937F938F939F93AF93BF93EF9337
:10194000FF93E091A401F091A501309709F009956A
:10195000FF91EF91BF91AF919F918F917F916F9187
:101960005F914F913F912F910F900FBE0F901F905D
:1019700018951F920F920FB60F9211242F933F9339
:101980004F935F936F937F938F939F93AF93BF9387
:10199000EF93FF93E091A801F091A901309709F02E
:1019A0000995FF91EF91BF91AF919F918F917F9199
:1019B0006F915F914F913F912F910F900FBE0F90BC
:1019C0001F9018951F920F920FB60F9211242F930C
:1019D0003F934F935F936F937F938F939F93AF93B7
:1019E000BF93EF93FF93E091AA01F091AB01309781
:1019F00009F00995FF91EF91BF91AF919F918F9160
:101A00007F916F915F914F913F912F910F900FBEFA
:101A10000F901F9018951F920F920FB60F921124DE
:101A20002F933F934F935F936F937F938F939F93E6
:101A3000AF93BF93EF93FF93E091A601F091A701BD
:101A4000309709F00995FF91EF91BF91AF919F9168
:101A50008F917F916F915F914F913F912F910F9057
:101A60000FBE0F901F9018951F920F920FB60F92F6
:101A700011242F933F934F935F936F937F938F9393
:101A80009F93AF93BF93EF93FF93E091AC01F091DD
:101A9000AD01309709F00995FF91EF91BF91AF919A
:101AA0009F918F917F916F915F914F913F912F9176
:101AB0000F900FBE0F901F9018951F920F920FB6A8
:101AC0000F9211242F933F934F935F936F937F93C4
:101AD0008F939F93AF93BF93EF93FF93E091960102
:101AE000F0919701309709F00995FF91EF91BF911F
:101AF000AF919F918F917F916F915F914F913F91A6
:101B00002F910F900FBE0F901F9018951F920F925C
:101B10000FB60F9211242F933F934F935F936F93C0
:101B20007F938F939F93AF93BF93EF93FF93E09136
:101B30009801F0919901309709F00995FF91EF9183
:101B4000BF91AF919F918F917F916F915F914F91D5
:101B50003F912F910F900FBE0F901F9018951F92DD
:101B60000F920FB60F9211242F933F934F935F93D1
:101B70006F937F938F939F93AF93BF93EF93FF9355
:101B8000E0919A01F0919B01309709F00995FF913E
:101B9000EF91BF91AF919F918F917F916F915F91E5
:101BA0004F913F912F910F900FBE0F901F9018955E
:101BB0001F920F920FB60F9211242F933F934F93C2
:101BC0005F936F937F938F939F93AF93BF93EF93A5
:101BD000FF93E0919C01F0919D01309709F00995E8
:101BE000FF91EF91BF91AF919F918F917F916F91F5
:101BF0005F914F913F912F910F900FBE0F901F90CB
:101C00001895E82F803268F48051833050F0F0E06E
:101C1000EE0FFF1FE257FE4F2081318171836083F9
:101C200002C020E030E0C901089580E10E943A0A34
:101C3000882361F4EEE8F1E01192119281E0EE3C2C
:101C4000F807D1F780E161E00E94820A80E191E02B
:101C50000895239A0895FF920F931F93CF93DF93D4
:101C6000F82E8AE0F816B1F08F1548F0E8E0FE167D
:101C7000B9F1EF1538F1F7E0FF1651F43BC08DE0F4
:101C8000F81659F0EBE1FE1689F0FCE0FF1641F082
:101C900001E041C01092080403C0109208043AC049
:101CA0008091090481508093090434C00E94D107B7
:101CB00014C080E061E00E94BB08809108048F5F3F
:101CC000809308048091080487FFF3CF10920804E2
:101CD0008091090481508093090400E011E01CC048
:101CE000809108048823B1F0809108048650809385
:101CF000080410C081E00E94C70964EF71E080E031
:101D000090E04DE750E024E630E00E94381081E09A
:101D10000E94041000E010E0809109046091080422
:101D20000E949708002351F185E0F89EC00111241C
:101D3000EC01C355DF4F8C010E541F4FFE018491FF
:101D400061E00E94BB082196C017D107B9F780E077
:101D500061E00E94BB08809108048A5F80930804B8
:101D60008091080490E08C3791053CF010920804B3
:101D70008091090481508093090411E08091090445
:101D8000837080930904113059F480910A048130E2
:101D900039F4E0910B04F0910C04309709F00995A7
:101DA00080E090E0DF91CF911F910F91FF90089517
:101DB00080E00E943A0A882351F4F8940E94571157
:101DC00081E00E94EA0E80E061E00E94820A80E0E9
:101DD00091E00895813049F0F894813020F182300B
:101DE000B1F0833009F045C017C02C9A80E8809389
:101DF00061001092610080E090E00000019688325E
:101E00009105D9F71092680010926B00089580E850
:101E10008093610083E004C080E88093610088E0E3
:101E20008093610028C080E090E0000001962DE6DC
:101E300080369207D1F72C9880E090E00000019660
:101E40002DE680369207D1F710927A008FEF8093BB
:101E500064008091680081608093680080916B00CD
:101E6000846080936B00789483B7816083BF88958A
:101E70000895823008F0789408950F931F930E947C
:101E8000831180E062E771E10E94880F81E06AE6D9
:101E900071E10E94880F82E062E671E10E94880F82
:101EA00086E06AE771E10E94880F0AE511E183E0AC
:101EB000B8010E94880F84E0B8010E94880F85E075
:101EC000B8010E94880F87E0B8010E94880F82E065
:101ED00061E00E94820A8FEF80930D0487E00E94E8
:101EE000D60882E091E01F910F9108951F93162F5D
:101EF0000E94D60882E00E943A0A813011F080E008
:101F000005C01EBD0DB407FEFDCF8EB51F9108950F
:101F1000E82FF0E0EE0FFF1FE253FE4F7183608366
:101F200008950E94940F08958091E0019091E1013D
:101F3000A091E201B091E3012091E4013091E5012B
:101F40004091E6015091E701280F391F4A1F5B1F9E
:101F50002093E0013093E1014093E2015093E301CB
:101F60008091E0019091E101A091E201B091E30143
:101F70008851964FA040B040BCF08BB180588BB9CF
:101F80008091E0019091E101A091E201B091E30123
:101F90008851964FA040B0408093E0019093E101BA
:101FA000A093E201B093E30108958AE00E943A0A07
:101FB000813041F40E94A1111092DF018AE060E0BB
:101FC0000E94820A089589E00E943A0A8130D9F479
:101FD0008091DE01882311F00E948B1082E00E9424
:101FE000A1118091EC019091ED01009731F00E94D8
:101FF000041E1092ED011092EC011092DE0189E0B6
:1020000060E00E94820A0895813029F0823029F42C
:102010000E94E30F08950E94D50F0895982F809194
:10202000DE01882331F48091DF01882311F4579A6F
:102030005F988091DE018823D1F49230C1F4109230
:1020400080001092810080918100886080938100DF
:1020500080918100816080938100109285001092B0
:10206000840081E08093890080E98093880008954E
:102070008F929F92AF92BF92CF92DF92EF92FF9298
:102080000F931F93CF93DF934B015C01EA01B901DA
:102090002115310539F19E01442737FD4095542F14
:1020A0006536710510F064E670E080E090E00E9413
:1020B000DF1C24E630E040E050E00E94FE1C790185
:1020C0008A01C501B4010E948A11C7010E94490B0F
:1020D00060E070E080E090E00E948A11CE018E19ED
:1020E0009F0904C04115510519F0CA010E94490B0E
:1020F000DF91CF911F910F91FF90EF90DF90CF90E4
:10210000BF90AF909F908F900895EFE6F0E08081B0
:10211000826080830895EFE6F0E080818D7F808388
:1021200008951092F5031092F6031092FA0310929C
:10213000F7031092F9031092FB031092FC03109224
:10214000FD031092FE031092FF0310920004109200
:1021500001041092020410920304109204041092DD
:102160000504109206040895CF92DF92EF92FF9239
:102170000F931F93CF93DF93EC0180912C0488235E
:1021800039F4D0932E04C0932D040E94421147C00D
:10219000C0902D04D0902E0400E010E0EE24FF2427
:1021A00037C0A881B981FD0164817581F601408144
:1021B0005181FA01848195819B01281B390B37FFDE
:1021C0000FC0861B970B95838483DB82CA82012B09
:1021D00029F4D0932E04C0932D0421C0F7010CC024
:1021E000F601828193812115310549F4FD011582A3
:1021F00014829B838A83F601D383C28310C0FD01BE
:10220000358324830097B9F30F5F1F4F76016C016C
:1022100080912C0490E00817190718F2ECCF8091F8
:102220002C048F5F80932C04DF91CF911F910F912D
:10223000FF90EF90DF90CF90089588E00E943A0AD7
:102240008823B9F410922C0410922E0410922D04BD
:102250001092EE011092EF0180E16DEB71E10E94AE
:1022600046110E94C4110E943C1188E061E00E9466
:10227000820A88E091E00895EEE6F0E080818260D5
:102280008083089581E08093EF010895803218F0F3
:1022900020E030E00AC0E82FF0E0EE0FFF1FE25729
:1022A000FE4F2081318171836083C9010895249A92
:1022B0002C9A089583E58CBD81E08DBD8DE08A95D3
:1022C000F1F7089583E58CBD1DBC84EF91E0019783
:1022D000F1F708958FE78CBD1DBC84EF91E0019765
:1022E000F1F7089583E58CBD81E08DBD8DE08A9581
:1022F000F1F7089583E58CBD81E08DBD84EF91E019
:102300000197F1F70895259A2698279A209A219AFD
:10231000229A08959B01AC018091DF01882381F00E
:10232000DA01C901880F991FAA1FBB1F9093EB0107
:102330008093EA01211531054105510509F45F98A3
:102340000895823029F4809181008E7F80938100EE
:102350008091DE01813031F48091DF01813011F410
:10236000000008958091DE01813021F08091DF012D
:10237000813011F45F98579808950E94CD110E9402
:102380000D120E94E611089584B5826084BD85B562
:10239000846085BD8EE487BD089588E00E943A0A76
:1023A000882311F484E008958091EF01882311F4CB
:1023B00083E008958091EE01882311F082E0089572
:1023C0000E94A1148130E1F380E008958091DF0143
:1023D000813011F58091E8019091E9012091EA01A5
:1023E0003091EB01280F391F3093E9012093E80168
:1023F0008091E8019091E901885E93406CF08BB187
:1024000080588BB98091E8019091E901885E9340F2
:102410009093E9018093E801089587E00E943A0AC9
:10242000813009F0AAC08091390490913A04892B37
:1024300009F180915D0490915E04209139043091FE
:102440003A04820F931F90935E0480935D04809101
:102450005D0490915E04885E9340A4F080915D04D9
:1024600090915E04885E934090935E0480935D0437
:1024700041E009C080913104909132049093360478
:102480008093350440E080913B0490913C04892B7B
:1024900009F180915F049091600420913B04309198
:1024A0003C04820F931F9093600480935F0480919B
:1024B0005F0490916004885E9340A4F080915F0473
:1024C00090916004885E93409093600480935F04D1
:1024D00061E009C0809133049091340490933804F2
:1024E0008093370460E0842F0E94BE1280915904CB
:1024F00090915A042091350430913604280F391FE9
:1025000030935A04209359048091590490915A04AD
:10251000885E934014F440E00BC080915904909180
:102520005A04885E934090935A048093590441E082
:1025300080915B0490915C042091370430913804C1
:10254000280F391F30935C0420935B0480915B0457
:1025500090915C04885E934014F460E00BC080911D
:102560005B0490915C04885E934090935C0480933C
:102570005B0461E0842F0E94031308958823F1F027
:1025800020913104309132048091350490913604C9
:10259000281B390B1216130634F4809135049091E0
:1025A0003604019607C0232B49F0809135049091A1
:1025B000360401979093360480933504662311F115
:1025C0002091330430913404809137049091380481
:1025D000281B390B1216130654F48091370490917E
:1025E0003804019690933804809337040895232B80
:1025F00049F0809137049091380401979093380402
:102600008093370408950F931F93182F062F8091FE
:102610006504882309F0E7C080914D04882309F000
:102620005AC08091350490913604892BE9F4809149
:10263000F001837E8093F001109256048091610432
:10264000882309F45DC060914F0480E00E947C14EF
:10265000E0916304F0916404309709F451C081E083
:102660008083109261044CC080912F04813041F42A
:102670008091410490914204019711F411E002C04D
:102680001123F1F1E0915404F0E0E058FE4F9091F5
:10269000F001937E8081892B8093F0018091520418
:1026A000882321F4809154048F5F03C080915404E7
:1026B0008150809354048091540483708093540417
:1026C00081E08093560480912F048130C9F480E02A
:1026D0000E94061415C09091F001937E9093F00132
:1026E000E0915404F0E0E058FE4F8081892B809304
:1026F000F00182E080935604109236041092350463
:1027000080914E04882309F059C08091370490913C
:102710003804892BE9F48091F0018F718093F001E6
:102720001092570480916204882309F45CC0609180
:10273000500481E00E947C14E0916304F0916404F1
:10274000309709F450C081E08183109262044BC03D
:1027500080913004813041F480914304909144048D
:10276000019711F401E002C00023E9F1E091550462
:10277000F0E0EC57FE4F9091F0019F718081892B22
:102780008093F00180915304882321F480915504B3
:102790008F5F03C0809155048150809355048091D0
:1027A000550483708093550481E080935704809191
:1027B00030048130C1F40E94061415C09091F001DC
:1027C0009F719093F001E0915504F0E0EC57FE4FBB
:1027D0008081892B8093F00182E0809357041092CE
:1027E00038041092370480915804882331F480EF24
:1027F00091E0612F402F0E940F1588B18370909156
:10280000F001892B88B91F910F910895882321F039
:10281000813009F04EC027C080914104909142045C
:10282000892B49F080914104909142040197909343
:10283000420480934104809161048823D1F5209162
:102840004104309142048091450490914604281738
:10285000390779F580E060E070E00E945A1481E069
:102860008093610408958091430490914404892BDE
:1028700049F080914304909144040197909344045B
:102880008093430480916204882399F42091430447
:1028900030914404809147049091480428173907E7
:1028A00041F481E060E070E00E945A1481E080937E
:1028B00062040895482F81E080936504CB0121E0F4
:1028C0006139720710F080E991E0413071F04130D8
:1028D00018F0423071F405C09093320480933104B3
:1028E00008C0909332048093310490933404809311
:1028F00033041092650408950F931F93182F062F29
:10290000662349F460E070E00E945A14812F60E071
:1029100070E00E94A71581E080936504113051F0AA
:10292000113018F0123041F403C000934D0404C07C
:1029300000934D0400934E04109265041F910F9173
:102940000895FF920F931F93CF93DF9380912C04F0
:10295000882309F459C000912D0410912E04F80128
:10296000C081D1818C819D8101979D838C831816B4
:1029700019060CF449C0898180FF05C08E81882327
:1029800011F481E08E83898181FF03C0EF81F88596
:10299000099580912C048230A8F0F80182819381FE
:1029A00090932E0480932D0413821282E0910000F4
:1029B000F091010084819581181619063CF0FF24DE
:1029C000F39405C010922E0410922D04FF248091E0
:1029D0002C04815080932C0480912C04882311F4C2
:1029E0000E940C15898182FF08C08A819B819D838A
:1029F0008C83C8010E94B41008C0C8010E94041E44
:102A000089818F7E898301C0FF248F2DDF91CF9133
:102A10001F910F91FF9008951092EF010895FC010E
:102A200080915604823069F48091F40191E0892705
:102A30008093F401882309F03EC08081837E8083E7
:102A40003AC08091350490913604C397A4F566236B
:102A5000D1F0209135043091360480E690E0BC013D
:102A6000269FC001279F900D369F900D1124880F3F
:102A7000892F881F990B90934A048093490481E021
:102A80008093F20118C08091F2018823A1F0809117
:102A9000490490914A04019790934A048093490411
:102AA0008091490490914A04892B29F48081837E86
:102AB00080831092F20180915704823069F48091F2
:102AC000F30191E089278093F301882309F03EC048
:102AD00080818F71808308958091370490913804AC
:102AE000C397A4F54423D1F02091370430913804E2
:102AF00080E690E0AC01249FC001259F900D349F9B
:102B0000900D1124880F892F881F990B90934C04E6
:102B100080934B0481E08093F10108958091F1014D
:102B20008823A1F080914B0490914C0401979093DD
:102B30004C0480934B0480914B0490914C04892B5E
:102B400029F480818F7180831092F1010895982F6C
:102B500081E080936504913071F0913018F09230EB
:102B600071F405C0709342046093410408C07093EF
:102B700042046093410470934404609343041092B0
:102B8000650408955058BB27AA270ED070C161D1A3
:102B900030F066D120F031F49F3F11F41EF456C19D
:102BA0000EF4E095E7FB4CC1E92F72D180F3BA1720
:102BB000620773078407950718F071F49EF58AC1C0
:102BC0000EF4E0950B2EBA2FA02D0B01B901900148
:102BD0000C01CA01A0011124FF27591B99F0593F8C
:102BE00050F4503E68F11A16F040A22F232F342FD4
:102BF0004427585FF3CF469537952795A795F04022
:102C00005395C9F77EF41F16BA0B620B730B840B36
:102C1000BAF09150A1F0FF0FBB1F661F771F881FEE
:102C2000C2F70EC0BA0F621F731F841F48F4879546
:102C300077956795B795F7959E3F08F0B3CF939535
:102C4000880F08F09927EE0F979587950895D4D0AF
:102C500008F481E008950CD00AC102D140F0F9D007
:102C600030F021F45F3F19F0EBC0511134C1EEC0D8
:102C70000FD198F39923C9F35523B1F3951B550B45
:102C8000BB27AA2762177307840738F09F5F5F4F3F
:102C9000220F331F441FAA1FA9F333D00E2E3AF080
:102CA000E0E830D091505040E695001CCAF729D09A
:102CB000FE2F27D0660F771F881FBB1F26173707E9
:102CC0004807AB07B0E809F0BB0B802DBF01FF2719
:102CD00093585F4F2AF09E3F510568F0B1C0FBC08A
:102CE0005F3FECF3983EDCF3869577956795B79553
:102CF000F7959F5FC9F7880F911D9695879597F96E
:102D00000895E1E0660F771F881FBB1F62177307E6
:102D10008407BA0720F0621B730B840BBA0BEE1FFB
:102D200088F7E0950895BCD088F09F5790F0B92FB0
:102D30009927B751A0F0D1F0660F771F881F991F10
:102D40001AF0BA95C9F712C0B13081F0C3D0B1E022
:102D50000895C0C0672F782F8827B85F39F0B93F32
:102D6000CCF3869577956795B395D9F73EF4909512
:102D70008095709561957F4F8F4F9F4F0895E89490
:102D800009C097FB3EF490958095709561957F4FB3
:102D90008F4F9F4F9923A9F0F92F96E9BB27939561
:102DA000F695879577956795B795F111F8CFFAF471
:102DB000BB0F11F460FF1BC06F5F7F4F8F4F9F4FA2
:102DC00016C0882311F096E911C0772321F09EE800
:102DD000872F762F05C0662371F096E8862F70E066
:102DE00060E02AF09A95660F771F881FDAF7880F40
:102DF0009695879597F90895990F0008550FAA0B96
:102E0000E0E8FEEF16161706E807F907C0F01216FD
:102E10001306E407F50798F0621B730B840B950B00
:102E200039F40A2661F0232B242B252B21F4089555
:102E30000A2609F4A140A6958FEF811D811D0895F2
:102E400097F99F6780E870E060E008959FEF80EC5D
:102E5000089500240A941616170618060906089500
:102E600000240A9412161306140605060895092E66
:102E70000394000C11F4882352F0BB0F40F4BF2BD5
:102E800011F460FF04C06F5F7F4F8F4F9F4F089515
:102E900057FD9058440F551F59F05F3F71F047950B
:102EA000880F97FB991F61F09F3F79F087950895F0
:102EB000121613061406551FF2CF4695F1DF08C00F
:102EC000161617061806991FF1CF8695710561052C
:102ED00008940895E894BB2766277727CB0197F9D4
:102EE00008958ADF08F48FEF0895DADFA8F19E577E
:102EF000A8F1985160F039F1983070F5092E9927B2
:102F0000660F771F881F991F0A94D1F71CC0BB2733
:102F1000993F4CF4B111B1E0B62B672F782F882779
:102F2000985FB1F708C0869577956795B79508F4CF
:102F3000B1609395C1F7BB0F30F411F460FF03C08B
:102F40006F5F7F4F8F4F3EF49095809570956195A0
:102F50007F4F8F4F9F4F08956894BDCFBBCF0BD04D
:102F600086CF77DF28F07CDF18F0952309F068CF53
:102F70006DCF1124B0CF8CDFA0F3959FD1F3950FC7
:102F800050E0551F629FF001729FBB27F00DB11DED
:102F9000639FAA27F00DB11DAA1F649F6627B00D7D
:102FA000A11D661F829F2227B00DA11D621F739F66
:102FB000B00DA11D621F839FA00D611D221F749F74
:102FC0003327A00D611D231F849F600D211D822FBB
:102FD000762F6A2F11249F5750408AF0E1F0882302
:102FE0004AF0EE0FFF1FBB1F661F771F881F91500F
:102FF0005040A9F79E3F510570F022CF6CCF5F3F44
:10300000ECF3983EDCF3869577956795B795F79541
:10301000E7959F5FC1F7FE2B880F911D96958795C9
:1030200097F90895FA01EE0FFF1F3096210531053B
:1030300099F16115710561F48038BFE39B0749F18F
:1030400068949038810561F08038BFEF9B0741F0AC
:10305000992342F5FF3FE1053105210511F1E8947F
:103060000894E795D901AA2329F4AB2FBE2FF85F66
:10307000D0F310C0FF5F70F4A695E0F7F73950F079
:1030800019F0FF3A38F49F779F930CD00F9007FC0C
:10309000905808953EF0DACE60E070E080E89FE35B
:1030A00008954FE79F775F934F933F932F939ED061
:1030B0002F913F914F915F9152DF05C019F40EF0AF
:1030C000BFCE08CFC3CEECDEC8F39638C0F707F802
:1030D0000F92E8942BE33AEA48EB5FE74EDF0F925A
:1030E0000F920F924DB75EB70F92C0D0E8ECF0E0B0
:1030F00016D04F915F91EF91FF91E595EE1FFF1F65
:1031000049F0FE57E0684427EE0F441FFA95E1F7B7
:103110004195550B32D00F9007FE26C00895DF93DE
:10312000CF931F930F93FF92EF92DF927B018C015D
:10313000689405C0DA2EEF011EDFFE01E894A59128
:103140002591359145915591AEF3EF012DDDFE01AD
:103150009701A801DA9479F7DF90EF90FF900F9133
:103160001F91CF91DF9108959B01AC0160E070E069
:1031700080E89FE370CD64CEACC092DEE8F3992383
:10318000D9F3940F511DBBF39150504094F059F076
:10319000882332F0660F771F881F91505040C1F787
:1031A0009E3F510544F7880F911D9695879597F995
:1031B00008955F3FACF0983E9CF0BB2786957795CD
:1031C0006795B79508F4B1609395C1F7BB0F58F7B1
:1031D00011F460FFE8CF6F5F7F4F8F4F9F4FE3CFBA
:1031E0007ACE0EF076C032CE68942ACE59DEC8F37D
:1031F0009923D1F3C6F3DF93CF931F930F93FF92DD
:10320000C92FDD2788232AF02197660F771F881F93
:10321000DAF720E030E040E85FEB9FE3883920F008
:10322000803E30F021968F77AEDCE0EFF0E003C017
:10323000AADCEDE1F1E073DF8B01BE01EC01FB2EB6
:103240006F5771097595771F880B990B9ADD28E1E7
:1032500032E741E35FE38FDEAF2D9801AE01FF90CF
:103260000F911F91CF91DF919FDC01CEFA01DC011C
:10327000AA0FBB1F9B01AC01BF5728F4222733279D
:10328000442750781FC0B75188F4AB2F00244695CF
:1032900037952795011CA395D2F3002069F0220FE2
:1032A000331F441FB395DAF30DD06CCC6130710538
:1032B000A0E88A07B94630F49B01AC01662777275E
:1032C00088279078309621F020833183428353837E
:1032D00008959F3F31F0915020F487957795679539
:1032E000B795880F911D9695879597F90895A1E157
:1032F000B0E0ECE7F9E1A4C33C017F876E876A0187
:10330000FC0117821682838181FD03C06FEF7FEF7E
:1033100052C39E012F5F3F4F398B288BF3012381CE
:10332000EE85FF8523FD859123FF8191FF87EE8741
:10333000882309F43DC3853251F4EE85FF8523FDD2
:10334000859123FF8191FF87EE87853221F490E0FC
:10335000B301A0D5E3CF982F10E088249924103230
:10336000B0F49B3269F09C3228F4903251F09332E1
:1033700071F40BC09D3239F0903349F4116028C0CC
:103380001260146025C0186023C0106121C017FDB1
:103390002AC0892F80538A3078F416FF06C0FAE0DD
:1033A0009F9E902C1124980E13C03AE0839E802C8F
:1033B0001124880E10620CC09E3221F416FDF8C252
:1033C000106406C09C3611F4106802C0983659F497
:1033D000EE85FF8523FD959123FF9191FF87EE8771
:1033E000992309F0BCCF892F8554833020F4812F95
:1033F0008061905E07C0892F8556833008F08FC1A9
:10340000812F8F7E86FD02C076E0972E6FE3F62E29
:10341000F822953619F4F0E4FF2A07C0963619F41D
:1034200020E8F22A02C091109A94F7FE0AC03BE30A
:10343000391518F45CE3B52E02C0B92CB39427E01B
:1034400009C047E0491520F4BB2447E0942EF7CF8C
:10345000292DBB24C60104969D878C87F6016081C7
:10346000718182819381AE014F5F5F4F0B2D24D418
:103470006C010981202E332400FF04C003FD02C02B
:103480001DE209C0F1FE02C01BE205C0F2FC02C051
:1034900010E001C010E2C1018C709070892BA1F185
:1034A000112311F483E001C084E0881510F0882412
:1034B00009C0881AF3FC06C080E290E0B301EAD4A8
:1034C0008A94D1F7112321F0812F90E0B301E2D447
:1034D00023FE03C00FE515E00DC003E615E00AC0AA
:1034E000E114F10409F0805290E0B301D3D40F5FEE
:1034F0001F4F05C0EF2CFF24F0E1EF22FF24F8015D
:103500008491882369F708C1F7FE12C0BC0C24FE21
:1035100004C08A81813309F4BA941B141CF0BB24C3
:10352000B3942DC0F8E0FB1550F538E0B32E27C05A
:10353000F6FC25C0892D90E08C159D054CF02CEFF4
:10354000C2162FEFD20624F030E8F32A01C09A9475
:10355000992049F0E2E0F0E0EC0FFD1FE90DF11DCC
:1035600080818033A1F3F7FE0AC0B92CB394892D72
:1035700090E0C816D90614F0992401C09C18F7FCF5
:1035800003C025E030E009C01C141D041CF021E03C
:1035900030E003C096012F5F3F4F112311F02F5FE2
:1035A0003F4F992029F0892D90E00196280F391F6F
:1035B000882D90E02817390714F0882401C0821A5A
:1035C0004F2C5524C20189709070892B31F007C0AF
:1035D00080E290E0B3015ED48A948820C9F7112379
:1035E00021F0812F90E0B30155D443FE06C007C0FF
:1035F00080E390E0B3014ED48A948820C9F7F7FEA7
:1036000044C08601D7FE02C000E010E076010894B5
:10361000E11CF11CE01AF10A41E050E04C0F5D1F83
:10362000E40EF51E26014B185108892D90E0AA24BE
:10363000BB24A81AB90A5FEF0F3F150721F48EE2E9
:1036400090E0B30127D4C016D10634F040165106DD
:103650001CF4F701808101C080E301501040089400
:10366000E11CF11C0A151B0524F090E0B30112D4F3
:10367000E2CF0C151D0539F49A81963318F4953371
:1036800011F424FE81E390E045C08A81813309F082
:103690000F7E90E0B301FED3992091F08EE290E08E
:1036A000B301F8D312E0E1E0F0E0EC0FFD1FE10F11
:1036B000F11D1F5F808190E0B301ECD39A9499F7DC
:1036C00044FC03C085E690E002C085E490E0B301CD
:1036D000E1D3D7FC05C0C114D10441F404FF06C0F6
:1036E000D094C194D108D3948DE201C08BE290E0D4
:1036F000B301D0D380E305C08F5F26EF3FEFC20E4A
:10370000D31E3AE0C316D104BCF790E0B301C2D394
:10371000C601C096B301BED3CC84DD8446C19336C6
:1037200031F0933799F0933509F055C022C0F60176
:10373000808189835E010894A11CB11C22E030E0E5
:10374000C20ED31E21E0E22EF12C11C0F601A080A2
:10375000B18016FD03C06FEF7FEF02C0692D70E0EE
:1037600022E030E0C20ED31EC50189D37C011F7751
:1037700012C0F601A080B18016FD03C06FEF7FEF8D
:1037800002C0692D70E022E030E0C20ED31EC501F8
:103790006BD37C01106813FF06C019C080E290E073
:1037A000B30178D38A94882D90E0E816F906B0F337
:1037B0000EC0F50117FD859117FF81915F0190E023
:1037C000B30168D381108A940894E108F108E114E8
:1037D000F10479F7EAC0943611F0993681F517FFB4
:1037E00008C0F601208131814281538184E090E05C
:1037F0000AC0F601808191819C01442737FD4095E4
:10380000542F82E090E0C80ED91E9FE6F92EF122D7
:1038100057FF09C050954095309521953F4F4F4F28
:103820005F4F90E8F92ACA01B901AE014F5F5F4FBF
:103830002AE030E0A2D3E82EE889EE1A40C095379E
:1038400021F41F7E2AE030E01CC0197F9F3661F012
:10385000903720F4983509F0ABC00FC0903739F09D
:10386000983709F0A5C004C028E030E00AC0106114
:1038700014FD146020E130E004C014FD166020E166
:1038800032E017FF08C0F601608171818281938167
:1038900044E050E008C0F60180819181BC0180E0E5
:1038A00090E042E050E0C40ED51EAE014F5F5F4F86
:1038B00064D3E82E5889E51A8FE7F82EF122F6FE38
:1038C0000BC08EEFF822E91438F4F4FE07C0F2FCC6
:1038D00005C09FEEF92202C01E2D01C0192DF4FE75
:1038E0000DC0FE01EE0DF11D8081803319F4E9EE6B
:1038F000FE2208C01F5FF2FE05C003C08F2D867830
:1039000009F01F5F0F2DF3FC13C0F0FE0EC0181559
:1039100010F09E2C0AC09E2C980C911A182D05C0F0
:1039200080E290E0B301B6D21F5F1815C8F304C05F
:10393000181510F4811A01C0882404FF0EC080E31A
:1039400090E0B301A7D202FF1BC001FD03C088E7CE
:1039500090E00EC088E590E00BC0802F867881F063
:1039600001FF02C08BE201C080E2F7FC8DE290E033
:10397000B30190D205C080E390E0B3018BD29A945A
:10398000E914C8F3EA94E1E0F0E0EC0FFD1FEE0D5E
:10399000F11D808190E0B3017DD2EE2099F705C042
:1039A00080E290E0B30176D28A948820C9F7B6CC41
:1039B000F30166817781CB016196E2E15DC0629F90
:1039C000D001739FF001829FE00DF11D649FE00D17
:1039D000F11D929FF00D839FF00D749FF00D659F78
:1039E000F00D9927729FB00DE11DF91F639FB00D77
:1039F000E11DF91FBD01CF0111240895A1E21A2E86
:103A0000AA1BBB1BFD010DC0AA1FBB1FEE1FFF1F82
:103A1000A217B307E407F50720F0A21BB30BE40BD2
:103A2000F50B661F771F881F991F1A9469F7609519
:103A30007095809590959B01AC01BD01CF010895D3
:103A40002F923F924F925F926F927F928F929F92AE
:103A5000AF92BF92CF92DF92EF92FF920F931F939C
:103A6000CF93DF93CDB7DEB7CA1BDB0B0FB6F8944D
:103A7000DEBF0FBECDBF09942A88398848885F848D
:103A80006E847D848C849B84AA84B984C884DF80FE
:103A9000EE80FD800C811B81AA81B981CE0FD11DE2
:103AA0000FB6F894DEBF0FBECDBFED010895CF93E2
:103AB000DF93BC018230910510F462E070E0A091C8
:103AC0006A04B0916B04ED01E0E0F0E040E050E00A
:103AD00021C0888199818617970769F48A819B8123
:103AE000309719F09383828304C090936B04809382
:103AF0006A04FE0134C06817790738F4411551058E
:103B000019F08417950708F4AC01FE018A819B81A6
:103B10009C01E9012097E9F641155105A9F1CA0177
:103B2000861B970B049708F4BA01E0E0F0E02AC086
:103B30008D919C91119784179507F9F46417750777
:103B400081F412968D919C911397309719F093837D
:103B5000828304C090936B0480936A04FD013296C3
:103B60004FC0CA01861B970BFD01E80FF91F619337
:103B7000719302978D939C9343C0FD018281938141
:103B80009C01D9011097A1F6809168049091690475
:103B9000892B41F480918A0190918B019093690463
:103BA0008093680440918C0150918D01411551051D
:103BB00041F44DB75EB78091880190918901481B0F
:103BC000590B209168043091690424173507B0F42B
:103BD000CA01821B930B8617970780F0AB014E5FDB
:103BE0005F4F8417950750F0420F531F509369049D
:103BF00040936804F9016193719302C0E0E0F0E042
:103C0000CF01DF91CF910895CF93DF93009709F40F
:103C100050C0EC0122971B821A82A0916A04B091D5
:103C20006B04109709F140E050E0AC17BD0708F1B4
:103C3000BB83AA83FE0121913191E20FF31FAE17DE
:103C4000BF0779F48D919C911197280F391F2E5F32
:103C50003F4F3983288312968D919C9113979B83B4
:103C60008A834115510571F4D0936B04C0936A04A3
:103C700020C012968D919C911397AD01009711F081
:103C8000DC01D3CFFA01D383C28321913191E20FBA
:103C9000F31FCE17DF0769F488819981280F391F38
:103CA0002E5F3F4FFA01318320838A819B8193836A
:103CB0008283DF91CF910895283008F027E03327E1
:103CC000DA01990F311D87FD91600096610571053C
:103CD00039F432602E5F3D9330E32A95E1F7089581
:103CE0009F3F30F080387105610509F03C5F3C5F13
:103CF0003D93913008F08068911DDF93CF931F931F
:103D00000F93FF92EF92192F987F9695E92F969532
:103D10009695E90FFF27EF53FA4F99273327EE24A3
:103D2000FF24A701E70105900894079428F4360FB3
:103D3000E71EF81E491F511D660F771F881F991F28
:103D40000694A1F70590079428F4E70EF81E491F82
:103D5000561FC11D770F881F991F661F0694A1F774
:103D60000590079428F4F80E491F561FC71FD11D50
:103D7000880F991F661F771F0694A1F70590079477
:103D800020F4490F561FC71FD81F990F661F771FB2
:103D9000881F0694A9F784911095177041F0D69565
:103DA000C79557954795F794E7941A95C1F7E7E6B5
:103DB000F5E0689415901591359165919591059070
:103DC0007FE27395E118F10A430B560BC90BD0093A
:103DD000C0F7E10CF11E431F561FC91FD01D7EF412
:103DE000703311F48A95E6CFE894015030F0080F53
:103DF0000AF40027021708F4202F2395022F7A33A4
:103E000028F079E37D932A95E9F710C07D932A95F0
:103E100089F6069497956795379517951794E11845
:103E2000F10A430B560BC90BD00998F023957E91EC
:103E300073957A3308F070E37C932013B8F77E9182
:103E400070617D9330F0839571E37D9370E32A95E3
:103E5000E1F71124EF90FF900F911F91CF91DF9127
:103E6000992787FD90950895FC0105906150704059
:103E70000110D8F7809590958E0F9F1F0895FC0133
:103E80006150704001900110D8F7809590958E0F89
:103E90009F1F08950F931F93CF93DF938C01EB0126
:103EA0008B8181FF1BC082FF0DC02E813F818C81E1
:103EB0009D812817390764F4E881F9810193F9831A
:103EC000E88306C0E885F985802F0995892B31F4B0
:103ED0008E819F8101969F838E8302C00FEF1FEF1B
:103EE000C801DF91CF911F910F910895A0E0B0E03C
:103EF000EBE7FFE1B5CDFE013596619171918091BF
:103F00006E0490916F04AF01F2D92096E2E0C4CD27
:103F10000F931F93CF93DF938C01E0916E04F09188
:103F20006F04838181FF21C0C0E0D0E00DC0E0912B
:103F30006E04F0916F0420853185BF01F901099568
:103F4000892B11F0CFEFDFEFF80181918F018823EA
:103F500071F7E0916E04F0916F04208531858AE05D
:103F6000BF01F9010995892B11F0CFEFDFEFCE01E9
:103F7000DF91CF911F910F910895FA01AA27283060
:103F800051F1203181F1E8946F936E7F6E5F7F4F26
:103F90008F4F9F4FAF4FB1E03ED0B4E03CD0670FA2
:103FA000781F891F9A1FA11D680F791F8A1F911DF5
:103FB000A11D6A0F711D811D911DA11D20D009F445
:103FC00068943F912AE0269F11243019305D319387
:103FD000DEF6CF010895462F4770405D4193B3E070
:103FE0000FD0C9F7F6CF462F4F70405D4A3318F017
:103FF000495D31FD4052419302D0A9F7EACFB4E0C8
:10400000A6959795879577956795BA95C9F700977F
:104010006105710508959B01AC010A2E0694579520
:10402000479537952795BA95C9F7620F731F841F77
:0A403000951FA01D0895F894FFCF1E
:10403A00252E31660042746E20313A20416C6C2084
:10404A00506978656C730A42746E20323A2050695E
:10405A0078656C2053656E736F720A42746E2033F2
:10406A003A20536D696C6579001F00000002000058
:10407A0000002B0E000000001C050000690500006E
:10408A00BC0500001306000070060000D2060000FE
:10409A003A070000A80700001C0800009808000062
:1040AA001A090000A50900000002040507090B000F
:0E40BA00180C0410C08020602000720400006A
:00000001FF
