:100000000C9464000C9481000C9481000C94810089
:100010000C9471060C949A060C94C3060C94EC068E
:100020000C9481000C9452050C947B050C94A4054F
:100030000C941F060C94CD050C94F6050C94480600
:100040000C94D7040C9400050C9429050C948100A1
:100050000C9481000C9481000C9481000C9481001C
:100060000C9481000C9481000C9481000C9481000C
:100070000C9481000C9481000C9481008E049104F6
:1000800094049704A0049A049D04A304A604A9045C
:10009000AC04AF04B204B504B804BB04BE04C1048C
:1000A000C404BC08BF08C208C508CE08C808CB08ED
:1000B000D108D408D708DA08DD08E008E308E60824
:1000C000E908EC08EF08F20811241FBECFEFD8E0D2
:1000D000DEBFCDBF11E0A0E0B1E0E4E7FFE102C088
:1000E00005900D92A634B107D9F712E0A6E4B1E06D
:1000F00001C01D92A132B107E1F70E945D010C948D
:10010000B80F0C9400002F923F924F925F926F9223
:100110007F928F92AF92BF92CF92EF92FF920F9306
:100120001F93CF93DF930E94CA028DB79EB70997A2
:100130000FB6F8949EBF0FBE8DBFEDB7FEB73196D8
:10014000CEEBD2E0ADB7BEB71296DC93CE9311974B
:1001500038EC432E512C5382428220E9622E21E05A
:10016000722E7582648216821086178280E062E0A9
:1001700040E02EEB32E008EC10E090E9E92E91E04F
:10018000F92ECC24AA24BB2488240E942302EDB794
:10019000FEB7319685E9282E312CADB7BEB7129641
:1001A0003C922E921197538242827582648216820B
:1001B0001086178280E062E041E026E930E00E948C
:1001C0002302EDB7FEB73196ADB7BEB71296DC93FA
:1001D000CE93119753824282758264821682108672
:1001E000178280E062E040E02EEB32E00E942302C2
:1001F000EDB7FEB73196ADB7BEB712963C922E92D0
:100200001197538242827582648216821086178209
:1002100080E062E041E026E930E00E942302EDB791
:10022000FEB73196ADB7BEB71296DC93CE93119759
:10023000538242827582648216821086178280E021
:1002400062E040E02EEB32E00E942302EDB7FEB701
:100250003196ADB7BEB712963C922E92119753824B
:1002600042827582648216821086178280E062E084
:1002700041E026E930E00E942302EDB7FEB7319657
:10028000ADB7BEB71296DC93CE93119753824282DC
:100290007582648216821086178280E062E040E0F8
:1002A0002EEB32E00E9423028DB79EB709960FB65F
:1002B000F8949EBF0FBE8DBFFFCF0E94D5040E9451
:1002C000C7040E94830080E090E008952F923F923F
:1002D0004F925F926F927F928F929F92AF92BF9256
:1002E000CF92DF92EF92FF920F931F93DF93CF9302
:1002F000CDB7DEB7582E962E442E39013C2CC98C32
:10030000DA8C2B8C81E0681739F1681728F092E0BD
:10031000691709F085C049C080E061E00E946F0361
:1003200080E0B7010E94380380E0642DA3019801AA
:10033000032DEE24E394E6EECE2EE1E0DE2E0E94C5
:10034000A603552009F06CC000D00F92EDB7FEB7A0
:100350001182B382A28223C081E061E00E946F0318
:1003600081E0B6010E94380381E0682D4D895E89E5
:100370002F89388D022DEE24E39476EEC72E71E09E
:10038000D72E0E94A603552009F04AC000D00F9234
:10039000EDB7FEB791828C8D9D8D938382830E94F1
:1003A00032040F900F900F903BC082E061E00E94FA
:1003B0006F0380E0B7010E94380381E0B6010E941C
:1003C000380380E0642DA3019801032DEE24E3940B
:1003D00096EEC92E91E0D92E0E94A60381E0682DE9
:1003E0004D895E892F89388D022D0E94A6035520E4
:1003F000B9F400D000D00F92ADB7BEB71196EDB7EB
:10040000FEB79182FD01B282A1828C8D9D8D948375
:1004100083830E9432040F900F900F900F900F90E3
:10042000CF91DF911F910F91FF90EF90DF90CF90D0
:10043000BF90AF909F908F907F906F905F904F9004
:100440003F902F9008956F927F928F929F92AF92DC
:10045000BF92CF92DF92EF92FF920F931F93DF93A1
:10046000CF93CDB7DEB7942E7C2DD50149895A891B
:10047000AB88BC88CD88DE889F89813009F457C05D
:100480008130B8F1823009F076C0613091F061308E
:1004900020F0623009F06FC015C080E060E00E947B
:1004A0006F0380E0B7010E94380380E0692DA80146
:1004B0001DC081E060E00E946F0381E0B6010E94F0
:1004C000380311C082E060E00E946F0380E0B70152
:1004D0000E94380381E0B6010E94380380E0692D54
:1004E000A8010E94210381E0682DA5010E9421033B
:1004F00042C0EDB7FEB739970FB6F894FEBF0FBEF6
:10050000EDBF6DB67EB60894611C711C52834183A9
:10051000F301B382A282D582C4829683888D998D9D
:100520009087878380E0492DC72E5D011AC0EDB703
:10053000FEB739970FB6F894FEBF0FBEEDBFADB74B
:10054000BEB7119652834183FD01B382A282D58248
:10055000C48296831086178281E0492DC72EAA2473
:10056000BB240E9466018DB79EB709960FB6F8941A
:100570009EBF0FBE8DBFCF91DF911F910F91FF9056
:10058000EF90DF90CF90BF90AF909F908F907F9033
:100590006F9008950E94360881E08093E501EFEAAC
:1005A000F1E0119211921182108232961182108222
:1005B0003296118210823296118210823296118206
:1005C00010823296118210823296118210823296F7
:1005D000118210823296118210823296118210821C
:1005E00032961182108232961182108236961192C2
:1005F00011921192108232961192119211921192CF
:1006000011921192119211821082329611821082EF
:100610003296118210823296118210827697118260
:1006200010823296118210821092E4011092E3013E
:100630001092E50187E061E00E94800487E091E08C
:100640000895EF92FF920F931F93182F062F7A01B0
:1006500060E00E946F03812F602F0E945A03812F58
:10066000B7010E9484031F910F91FF90EF900895AE
:10067000482F81E08093E501CB0123E0693E7207BA
:1006800010F088EE93E0413071F0413018F04230C4
:1006900071F405C09093BA018093B90108C090939A
:1006A000BA018093B9019093BC018093BB01109271
:1006B000E5010895982F81E08093E501913051F094
:1006C000913018F0923041F403C06093D20104C01D
:1006D0006093D2016093D3011092E5010895982FA1
:1006E00081E08093E501913051F0913018F0923023
:1006F00041F403C06093AF0104C06093AF01609305
:10070000B0011092E5010895482F81E08093E50142
:10071000CB0121E06139720710F080E991E04130AE
:1007200071F0413018F0423071F405C09093B2017D
:100730008093B10108C09093B2018093B10190936E
:10074000B4018093B3011092E50108958F929F92B6
:10075000AF92BF92CF92DF92EF92FF920F931F93CF
:10076000CF93DF93182FF62E5A014901E60161E07D
:100770000E946F03812FB501A4010E947008812F90
:100780006F2D0E945A03812F602F0E945B08812FDA
:10079000B5010E944008C114D10499F0113049F00C
:1007A000113018F0123069F406C018821092E1017D
:1007B00008C0198204C0188219821092E1011092B7
:1007C000E201D093E401C093E301EE20B9F586E4A1
:1007D00091E09093E4018093E301812FB4010E94A2
:1007E0008403812F0E942108113071F0113018F01C
:1007F000123059F512C0109246011092E101809119
:1008000046018823E1F321C0109247011092E201D2
:10081000809147018823E1F318C01092460110929D
:1008200047011092E1011092E20180914601882374
:10083000E1F3809147018823C1F307C0812FB40100
:100840000E948403812F0E942108DF91CF911F9184
:100850000F91FF90EF90DF90CF90BF90AF909F905F
:100860008F900895CF92DF92EF92FF920F931F9394
:10087000DF93CF93CDB7DEB78B85813061F08130C8
:1008800018F08230A1F511C0EC85FD858091E6015C
:100890008823E1F306C0EC85FD858091E70188237C
:1008A000E1F3309721F1099522C0CC84DD84EE84F8
:1008B000FF8400E010E0002351F48091E6018823DA
:1008C00031F0C114D10411F0F601099501E01123B2
:1008D00051F48091E701882331F0E114F10411F023
:1008E000F701099511E0002331F3112321F3CF9192
:1008F000DF911F910F91FF90EF90DF90CF900895BF
:10090000E82FF0E0E331F10508F040C0E25CFF4F72
:10091000EE0FFF1F0590F491E02D09946093E8011C
:1009200008956093E90108956093EA010895609342
:10093000EB0108956093EC0108956093EE01089532
:100940006093ED0108956093EF0108956093F001C5
:1009500008956093F10108956093F2010895609302
:10096000F30108956093F40108956093F5010895EB
:100970006093F60108956093F70108956093F8017C
:1009800008956093F90108956093F80108950E9415
:10099000F5080E9429070E9415070E9467090E9416
:1009A0008E070E94180978940895000008951F92F8
:1009B0000F920FB60F9211242F933F934F935F9393
:1009C0006F937F938F939F93AF93BF93EF93FF9317
:1009D000E0916801F0916901309709F00995FF9164
:1009E000EF91BF91AF919F918F917F916F915F91A7
:1009F0004F913F912F910F900FBE0F901F90189520
:100A00001F920F920FB60F9211242F933F934F9383
:100A10005F936F937F938F939F93AF93BF93EF9366
:100A2000FF93E0916A01F0916B01309709F009950D
:100A3000FF91EF91BF91AF919F918F917F916F91B6
:100A40005F914F913F912F910F900FBE0F901F908C
:100A500018951F920F920FB60F9211242F933F9368
:100A60004F935F936F937F938F939F93AF93BF93B6
:100A7000EF93FF93E0916C01F0916D01309709F0D5
:100A80000995FF91EF91BF91AF919F918F917F91C8
:100A90006F915F914F913F912F910F900FBE0F90EB
:100AA0001F9018951F920F920FB60F9211242F933B
:100AB0003F934F935F936F937F938F939F93AF93E6
:100AC000BF93EF93FF93E0915A01F0915B01309750
:100AD00009F00995FF91EF91BF91AF919F918F918F
:100AE0007F916F915F914F913F912F910F900FBE2A
:100AF0000F901F9018951F920F920FB60F9211240E
:100B00002F933F934F935F936F937F938F939F9315
:100B1000AF93BF93EF93FF93E0915C01F0915D0180
:100B2000309709F00995FF91EF91BF91AF919F9197
:100B30008F917F916F915F914F913F912F910F9086
:100B40000FBE0F901F9018951F920F920FB60F9225
:100B500011242F933F934F935F936F937F938F93C2
:100B60009F93AF93BF93EF93FF93E0915E01F0915A
:100B70005F01309709F00995FF91EF91BF91AF9117
:100B80009F918F917F916F915F914F913F912F91A5
:100B90000F900FBE0F901F9018951F920F920FB6D7
:100BA0000F9211242F933F934F935F936F937F93F3
:100BB0008F939F93AF93BF93EF93FF93E091620165
:100BC000F0916301309709F00995FF91EF91BF9182
:100BD000AF919F918F917F916F915F914F913F91D5
:100BE0002F910F900FBE0F901F9018951F920F928C
:100BF0000FB60F9211242F933F934F935F936F93F0
:100C00007F938F939F93AF93BF93EF93FF93E09165
:100C10006401F0916501309709F00995FF91EF911A
:100C2000BF91AF919F918F917F916F915F914F9104
:100C30003F912F910F900FBE0F901F9018951F920C
:100C40000F920FB60F9211242F933F934F935F9300
:100C50006F937F938F939F93AF93BF93EF93FF9384
:100C6000E0916001F0916101309709F00995FF91E1
:100C7000EF91BF91AF919F918F917F916F915F9114
:100C80004F913F912F910F900FBE0F901F9018958D
:100C90001F920F920FB60F9211242F933F934F93F1
:100CA0005F936F937F938F939F93AF93BF93EF93D4
:100CB000FF93E0916601F0916701309709F0099583
:100CC000FF91EF91BF91AF919F918F917F916F9124
:100CD0005F914F913F912F910F900FBE0F901F90FA
:100CE00018951F920F920FB60F9211242F933F93D6
:100CF0004F935F936F937F938F939F93AF93BF9324
:100D0000EF93FF93E0915001F0915101309709F07A
:100D10000995FF91EF91BF91AF919F918F917F9135
:100D20006F915F914F913F912F910F900FBE0F9058
:100D30001F9018951F920F920FB60F9211242F93A8
:100D40003F934F935F936F937F938F939F93AF9353
:100D5000BF93EF93FF93E0915201F09153013097CD
:100D600009F00995FF91EF91BF91AF919F918F91FC
:100D70007F916F915F914F913F912F910F900FBE97
:100D80000F901F9018951F920F920FB60F9211247B
:100D90002F933F934F935F936F937F938F939F9383
:100DA000AF93BF93EF93FF93E0915401F0915501FE
:100DB000309709F00995FF91EF91BF91AF919F9105
:100DC0008F917F916F915F914F913F912F910F90F4
:100DD0000FBE0F901F9018951F920F920FB60F9293
:100DE00011242F933F934F935F936F937F938F9330
:100DF0009F93AF93BF93EF93FF93E0915601F091D0
:100E00005701309709F00995FF91EF91BF91AF918C
:100E10009F918F917F916F915F914F913F912F9112
:100E20000F900FBE0F901F90189580E10E94AD08A3
:100E3000882361F4E8E4F1E01192119281E0E8384E
:100E4000F807D1F780E161E00E94800480E191E041
:100E5000089580E00E94AD08882351F4F8940E9420
:100E60009D0981E00E943B0780E061E00E948004D0
:100E700080E091E00895813049F0F894813020F1CC
:100E80008230B1F0833009F045C017C02C9A80E859
:100E9000809361001092610080E090E00000019674
:100EA00088329105D9F71092680010926B0008956E
:100EB00080E88093610083E004C080E88093610053
:100EC00088E08093610028C080E090E000000196F7
:100ED0002DE680369207D1F72C9880E090E0000054
:100EE00001962DE680369207D1F710927A008FEFA7
:100EF0008093640080916800816080936800809195
:100F00006B00846080936B00789483B7816083BFAB
:100F100088950895823008F0789408950F931F9370
:100F20000E94C90980E068EB79E00E94C70781E070
:100F300060EB79E00E94C70782E068EA79E00E94EE
:100F4000C70786E060EC79E00E94C70700EA19E075
:100F500083E0B8010E94C70784E0B8010E94C70778
:100F600085E0B8010E94C70787E0B8010E94C70763
:100F700082E061E00E9480048FEF8093FB0187E0B4
:100F80000E94D00782E091E01F910F910895E82F11
:100F9000F0E0EE0FFF1FE857FE4F71836083089566
:100FA0001F93182F82E00E94AD08813009F047C0DE
:100FB000912F97708091FB01981709F440C090938E
:100FC000FB0185B1887F892B85B9933011F194306D
:100FD00028F4913051F0923090F40CC0953019F112
:100FE0009530E0F0963021F50FC0E0918A01F09144
:100FF0008B0122C0E0918801F09189011DC0E09130
:101000008C01F0918D0118C0E0919401F09195014F
:1010100013C0E0918E01F0918F010EC0E09190011C
:10102000F091910109C0E0919201F091930104C007
:10103000E0919601F0919701309709F009951F9181
:101040000895982F81E08093E501913051F091301F
:1010500018F0923041F403C01092CD0104C01092F8
:10106000CD011092CE011092E50108953A9A3B9A73
:101070003C9A3D9A3E9A3F9A88B1837088B9089508
:10108000982F81E08093E501913071F0913018F054
:10109000923071F405C07093C2016093C10108C021
:1010A0007093C2016093C1017093C4016093C30146
:1010B0001092E5010895982F81E08093E501913029
:1010C00051F0913018F0923041F403C06093CF0199
:1010D00004C06093CF016093D0011092E5010895A0
:1010E0000F931F93CF93DF93EB018A01813001F1BE
:1010F000813018F0823061F50DC08091B901909176
:10110000BA01892B11F080E01AC01092C60110922A
:10111000C5011EC08091B9019091BA01892B21F0BF
:1011200080E00E94D00904C01092C6011092C5014F
:101130008091BB019091BC01892B31F081E0BE010F
:10114000A8010E94D00904C01092C8011092C701E2
:10115000DF91CF911F910F910895E82FF0E0E331D7
:10116000F10540F4EF5AFF4FEE0FFF1F0590F49189
:10117000E02D099480E008958091E8010895809120
:10118000E90108958091EA0108958091EB010895A5
:101190008091EC0108958091EE0108958091ED0118
:1011A00008958091EF0108958091F0010895809154
:1011B000F10108958091F20108958091F30108955D
:1011C0008091F40108958091F50108958091F601D0
:1011D00008958091F70108958091F8010895809114
:1011E000F90108958091FA0108951092E801109292
:1011F000E9011092ED011092EA011092EC011092B7
:10120000EE011092EF011092F0011092F101109294
:10121000F2011092F3011092F4011092F501109274
:10122000F6011092F7011092F8011092F901089559
:1012300082E00E94AD08882319F490E082E00895CE
:1012400010921102109210021092130210921202C8
:1012500010921502109214021092170210921602A8
:10126000109219021092180280E991E09093FD010A
:101270008093FC019093FF018093FE019093010203
:1012800080930002909303028093020290930502E0
:101290008093040284E398E090930702809306020F
:1012A000909309028093080290930B0280930A02A4
:1012B00090930D0280930C0290930F0280930E0284
:1012C00081E061E00E94800491E081E0089588E07F
:1012D0000E94AD088823B9F410921A0210921C02E1
:1012E00010921B02109298011092990180E16DE317
:1012F0007AE00E948C090E94440A0E94860988E0D4
:1013000061E00E94800488E091E00895EEE6F0E05C
:101310008081826080830895803218F020E030E080
:101320000AC0E82FF0E0EE0FFF1FE85BFE4F2081C0
:10133000318171836083C9010895249A2C9A08959C
:1013400083E58CBD81E08DBD8DE08A95F1F7089530
:1013500083E58CBD1DBC84EF91E00197F1F7089502
:101360008FE78CBD1DBC84EF91E00197F1F70895E4
:1013700083E58CBD81E08DBD8DE08A95F1F7089500
:1013800083E58CBD81E08DBD84EF91E00197F1F79D
:101390000895259A2698279A209A219A229A0895A4
:1013A000EF92FF920F931F93CF93DF93EB0188236C
:1013B00021F0813009F05AC02DC09A0140E050E080
:1013C000CA01B9010E94720E2091B9013091BA018F
:1013D000220F331F40E050E00E94910E79018A01F4
:1013E000A8019701220F331F441F551FCE01A0E013
:1013F000B0E082179307A407B50728F0F092C60162
:10140000E092C50133C0D695C795D093C601C0936D
:10141000C5012CC09A0140E050E0CA01B9010E9408
:10142000720E2091BB013091BC01220F331F40E0AE
:1014300050E00E94910E79018A01A8019701220FC4
:10144000331F441F551FCE01A0E0B0E08217930761
:10145000A407B50728F0F092C801E092C70106C0C2
:10146000D695C795D093C801C093C701DF91CF919E
:101470001F910F91FF90EF9008950E944D0A0E94D6
:101480008D0A0E94660A089584B5826084BD85B580
:10149000846085BD8EE487BD089588E00E94AD0814
:1014A000882311F484E0089580919901882311F430
:1014B00083E0089580919801882311F082E00895D7
:1014C0000E94FF0C8130E1F380E0089580919B0140
:1014D000813011F58091A4019091A5012091A60180
:1014E0003091A701280F391F3093A5012093A40143
:1014F0008091A4019091A501885E93406CF08BB11E
:1015000080588BB98091A4019091A501885E934089
:101510009093A5018093A401089587E00E94AD08EF
:10152000813009F0AAC08091B9019091BA01892B4C
:1015300009F18091DD019091DE012091B901309196
:10154000BA01820F931F9093DE018093DD01809199
:10155000DD019091DE01885E9340A4F08091DD0171
:101560009091DE01885E93409093DE018093DD01CF
:1015700041E009C08091B1019091B2019093B60110
:101580008093B50140E08091BB019091BC01892B13
:1015900009F18091DF019091E0012091BB01309130
:1015A000BC01820F931F9093E0018093DF01809133
:1015B000DF019091E001885E9340A4F08091DF010B
:1015C0009091E001885E93409093E0018093DF0169
:1015D00061E009C08091B3019091B4019093B8018A
:1015E0008093B70160E0842F0E943E0B8091D90167
:1015F0009091DA012091B5013091B601280F391F81
:101600003093DA012093D9018091D9019091DA01C8
:10161000885E934014F440E00BC08091D901909112
:10162000DA01885E93409093DA018093D90141E01A
:101630008091DB019091DC012091B7013091B801DC
:10164000280F391F3093DC012093DB018091DB01EF
:101650009091DC01885E934014F460E00BC08091AF
:10166000DB019091DC01885E93409093DC018093D4
:10167000DB0161E0842F0E94830B08958823F1F041
:101680002091B1013091B2018091B5019091B601E4
:10169000281B390B1216130634F48091B501909172
:1016A000B601019607C0232B49F08091B5019091B6
:1016B000B60101979093B6018093B501662311F1AD
:1016C0002091B3013091B4018091B7019091B8019C
:1016D000281B390B1216130654F48091B701909110
:1016E000B80101969093B8018093B7010895232B18
:1016F00049F08091B7019091B80101979093B8019A
:101700008093B70108950F931F93182F062F809190
:10171000E501882309F0E7C08091CD01882309F015
:101720005AC08091B5019091B601892BE9F480915E
:10173000AA01837E8093AA011092D6018091E101D3
:10174000882309F45DC06091CF0180E00E94DA0C2B
:10175000E091E301F091E401309709F451C081E098
:1017600080831092E1014CC08091AF01813041F43F
:101770008091C1019091C201019711F411E002C062
:101780001123F1F1E091D401F0E0E050FF4F90918E
:10179000AA01937E8081892B8093AA018091D20136
:1017A000882321F48091D4018F5F03C08091D401FC
:1017B00081508093D4018091D40183708093D401AF
:1017C00081E08093D6018091AF018130C9F480E03F
:1017D0000E94860C15C09091AA01937E9093AA0155
:1017E000E091D401F0E0E050FF4F8081892B80939D
:1017F000AA0182E08093D6011092B6011092B50141
:101800008091CE01882309F059C08091B701909151
:10181000B801892BE9F48091AA018F718093AA0104
:101820001092D7018091E201882309F45CC0609195
:10183000D00181E00E94DA0CE091E301F091E40133
:10184000309709F450C081E081831092E2014BC0CF
:101850008091B001813041F48091C3019091C40125
:10186000019711F401E002C00023E9F1E091D501F4
:10187000F0E0EC5FFE4F9091AA019F718081892B6F
:101880008093AA018091D301882321F48091D5010E
:101890008F5F03C08091D50181508093D5018091E5
:1018A000D50183708093D50181E08093D701809129
:1018B000B0018130C1F40E94860C15C09091AA013C
:1018C0009F719093AA01E091D501F0E0EC5FFE4F8B
:1018D0008081892B8093AA0182E08093D7011092A6
:1018E000B8011092B7018091D801882331F48AEAB7
:1018F00091E0612F402F0E946D0D88B1837090910F
:10190000AA01892B88B91F910F910895882321F08E
:10191000813009F04EC027C08091C1019091C20171
:10192000892B49F08091C1019091C2010197909358
:10193000C2018093C1018091E1018823D1F52091FA
:10194000C1013091C2018091C5019091C601281753
:10195000390779F580E060E070E00E94840381E05F
:101960008093E10108958091C3019091C401892B76
:1019700049F08091C3019091C40101979093C401F3
:101980008093C3018091E201882399F42091C301DF
:101990003091C4018091C7019091C801281739077F
:1019A00041F481E060E070E00E94840381E0809374
:1019B000E20108950F931F93182F062F662349F411
:1019C00060E070E00E948403812F60E070E00E947C
:1019D000400881E08093E501113051F0113018F09A
:1019E000123041F403C00093CD0104C00093CD0137
:1019F0000093CE011092E5011F910F910895FF927F
:101A00000F931F93CF93DF9380911A02882309F4D9
:101A100059C000911B0210911C02F801C081D181B4
:101A20008C819D8101979D838C83181619060CF477
:101A300049C0898180FF05C08E81882311F481E02F
:101A40008E83898181FF03C0EF81F885099580919C
:101A50001A028230A8F0F8018281938190931C02CF
:101A600080931B0213821282E0910000F09101002A
:101A700084819581181619063CF0FF24F39405C063
:101A800010921C0210921B02FF2480911A028150B6
:101A900080931A0280911A02882311F40E946A0D21
:101AA000898182FF08C08A819B819D838C83C801C4
:101AB0000E94050E08C0C8010E94600F89818F7EB8
:101AC000898301C0FF248F2DDF91CF911F910F914A
:101AD000FF900895109299010895FC018091D6011C
:101AE000823069F48091AE0191E089278093AE0144
:101AF000882309F03EC08081837E80833AC0809134
:101B0000B5019091B601C397A4F56623D1F0209159
:101B1000B5013091B60180E690E0BC01269FC0017E
:101B2000279F900D369F900D1124880F892F881FB5
:101B3000990B9093CA018093C90181E08093AC0115
:101B400018C08091AC018823A1F08091C9019091C7
:101B5000CA0101979093CA018093C9018091C9017C
:101B60009091CA01892B29F48081837E8083109211
:101B7000AC018091D701823069F48091AD0191E090
:101B800089278093AD01882309F03EC080818F7141
:101B9000808308958091B7019091B801C397A4F50F
:101BA0004423D1F02091B7013091B80180E690E054
:101BB000AC01249FC001259F900D349F900D1124EE
:101BC000880F892F881F990B9093CC018093CB01AC
:101BD00081E08093AB0108958091AB018823A1F04F
:101BE0008091CB019091CC0101979093CC0180938F
:101BF000CB018091CB019091CC01892B29F480817C
:101C00008F7180831092AB010895CF92DF92EF9293
:101C1000FF920F931F93CF93DF93EC0180911A02F1
:101C2000882339F4D0931C02C0931B020E946E0ECD
:101C300047C0C0901B02D0901C0200E010E0EE24D0
:101C4000FF2437C0A881B981FD0164817581F60147
:101C500040815181FA01848195819B01281B390BB8
:101C600037FF0FC0861B970B95838483DB82CA8264
:101C7000012B29F4D0931C02C0931B0221C0F70151
:101C80000CC0F601828193812115310549F4FD01D3
:101C9000158214829B838A83F601D383C28310C08A
:101CA000FD01358324830097B9F30F5F1F4F760141
:101CB0006C0180911A0290E00817190718F2ECCF16
:101CC00080911A028F5F80931A02DF91CF911F914A
:101CD0000F91FF90EF90DF90CF90089581E0809377
:101CE00099010895629FD001739FF001829FE00DDA
:101CF000F11D649FE00DF11D929FF00D839FF00D8B
:101D0000749FF00D659FF00D9927729FB00DE11D36
:101D1000F91F639FB00DE11DF91FBD01CF01112413
:101D20000895A1E21A2EAA1BBB1BFD010DC0AA1F1C
:101D3000BB1FEE1FFF1FA217B307E407F50720F034
:101D4000A21BB30BE40BF50B661F771F881F991FAF
:101D50001A9469F760957095809590959B01AC01F8
:101D6000BD01CF010895CF93DF93BC01823091056F
:101D700010F462E070E0A0911F02B0912002ED012A
:101D8000E0E0F0E040E050E021C0888199818617D2
:101D9000970769F48A819B81309719F09383828336
:101DA00004C09093200280931F02FE0134C0681784
:101DB000790738F44115510519F08417950708F48F
:101DC000AC01FE018A819B819C01E9012097E9F623
:101DD00041155105A9F1CA01861B970B049708F418
:101DE000BA01E0E0F0E02AC08D919C911197841730
:101DF0009507F9F46417750781F412968D919C91FB
:101E00001397309719F09383828304C09093200234
:101E100080931F02FD0132964FC0CA01861B970BAB
:101E2000FD01E80FF91F6193719302978D939C93C5
:101E300043C0FD01828193819C01D9011097A1F6D5
:101E400080911D0290911E02892B41F480914201E4
:101E50009091430190931E0280931D024091440192
:101E6000509145014115510541F44DB75EB7809140
:101E7000400190914101481B590B20911D02309166
:101E80001E0224173507B0F4CA01821B930B861774
:101E9000970780F0AB014E5F5F4F8417950750F0B6
:101EA000420F531F50931E0240931D02F90161938C
:101EB000719302C0E0E0F0E0CF01DF91CF9108958F
:101EC000CF93DF93009709F450C0EC0122971B8257
:101ED0001A82A0911F02B0912002109709F140E0F0
:101EE00050E0AC17BD0708F1BB83AA83FE01219126
:101EF0003191E20FF31FAE17BF0779F48D919C91DA
:101F00001197280F391F2E5F3F4F39832883129670
:101F10008D919C9113979B838A834115510571F490
:101F2000D0932002C0931F0220C012968D919C91E5
:101F30001397AD01009711F0DC01D3CFFA01D383E1
:101F4000C28321913191E20FF31FCE17DF0769F4AD
:101F500088819981280F391F2E5F3F4FFA01318305
:101F600020838A819B8193838283DF91CF9108951F
:041F7000F894FFCF13
:101F7400180C0410C08020601C05000069050000D6
:101F8400BC0500001306000070060000D206000025
:101F94003A070000A80700001C0800009808000089
:101FA4001A090000A50900000002040507090B0036
:061FB400200021020000E4
:00000001FF
