:100000000C9431030C944E030C944E030C944E0349
:100010000C94F4160C941D170C9446170C946F173F
:100020000C944E030C94D5150C94FE150C942716C5
:100030000C94A2160C9450160C9479160C94CB16B2
:100040000C945A150C9483150C94AC150C944E0317
:100050000C944E030C944E030C944E030C944E03DC
:100060000C944E030C944E030C944E030C944E03CC
:100070000C944E030C944E030C944E03F012F312A6
:10008000F612F9120213FC12FF12051308130B13D8
:100090000E131113141317131A131D132013231304
:1000A000261337133A133D134013491343134613D2
:1000B0004C134F135213551358135B135E136113F4
:1000C000641367136A136D1307634236B79BD8A78F
:1000D0001A39685618AEBAAB558C1D3CB7CC57636D
:1000E000BD6DEDFD753EF6177231BF000000803F1B
:1000F00008000000BE922449123EABAAAA2ABECD37
:10010000CCCC4C3E00000080BEABAAAAAA3E0000A8
:100110000000BF000000803F0000000000084178A0
:10012000D3BB4387D1133D190E3CC3BD4282AD2BD7
:100130003E68EC8276BED98FE1A93E4C80EFFFBECF
:1001400001C4FF7F3F000000000016050100000011
:1001500000000000FA000000E000E00028FE28FE99
:10016000282454FE5448C4C81026466C92AA44A0C1
:1001700000A0C000000038448200008244380028FB
:10018000107C102810107C1010000A0C00001010B9
:10019000101010000606000004081020407C8A920F
:1001A000A27C0042FE020042868A92628482A2D22F
:1001B0008C182848FE08E4A2A2A29C3C5292920C01
:1001C000808E90A0C06C9292926C60929294780013
:1001D0006C6C0000006A6C00001028448200282823
:1001E000282828008244281040808A90604C929EE3
:1001F000827C7E8888887EFE9292926C7C8282824B
:1002000044FE82824438FE92929282FE90909080C8
:100210007C8292925EFE101010FE0082FE8200042C
:100220000282FC80FE10284482FE02020202FE408E
:100230003040FEFE201008FE7C8282827CFE909080
:1002400090607C828A847AFE909894626292929204
:100250008C8080FE8080FC020202FCF8040204F81C
:10026000FC021C02FCC6281028C6E0100E10E08616
:100270008A92A2C200FE82820040201008040082FE
:1002800082FE0020408040200202020202008040E4
:100290002000042A2A2A1EFE1222221C1C222222AC
:1002A000041C222212FE1C2A2A2A18107E9080404A
:1002B000304A4A4A7CFE1020201E0022BE02000462
:1002C0000222BC00FE081422000082FE02003E2032
:1002D00018201E3E1020201E1C2222221C3E2828F0
:1002E0002810102828183E3E10202010122A2A2AF2
:1002F0000420FC2202043C0202043E3804020438BA
:100300003C020C023C2214081422300A0A0A3C2245
:10031000262A322200106C82000000FE00000082BB
:100320006C1000081010081000000000007F818190
:10033000817F7F8383837F7F8787877F7F8F8F8F77
:100340007F7F9F9F9F7F7FBFBFBF7F7FFFFFFF7F1D
:100350002040FF4020621517156500FBFB000000E0
:1003600000000000C0FF0300E0FF0700F0FF0F00E7
:10037000F8FF1F0078001E0078001E0078001E00A5
:1003800078001E0078001E0078001E0078001E0015
:1003900078001E0078001E00000000000000000031
:1003A00080FF0300E0FF0700F0FF0F00F8FF1F00D1
:1003B000F83C1F00783C1E00783C1E00783C1E0074
:1003C000783C1E00783C1E00783C1E00783C1E00E5
:1003D000783C1E00783C1E00783C1E0000000000A7
:1003E00000000000E0FF0300F0FF0700F8FF0F002F
:1003F000F8FF1F00783C1E00783C1E00783C1E0071
:10040000783C1E00783C1E00783C1E00783C1E00A4
:10041000783C1E00783C1E00783C1E000000000066
:1004200000000000F8FF0300F8FF0F00F8FF1F00B6
:10043000F8FF1F0000001E0000001E0000801F00CB
:1004400000F01F0000FF0F00E0FF0700F0FF0000BA
:10045000F80F0000F80000007800000078000000AD
:10046000F8FF1F00F8FF1F00F0FF1F00E0FF1F0054
:100470000000000000000000F8FF1F00F8FF1F0050
:10048000F8FF1F00F8FF1F0078001E00783C1E00D8
:10049000783C1E00783C1E00783C1E00783C1E0014
:1004A000783C1E00F87E1F00F8FF1F00F0FF0F00D1
:1004B000E0E703000000000000003800EEFF6C00E1
:1004C0002A8045003A0047FC03FF6CFC83FF39009B
:1004D000DEFF0B7CD0810BFCD0810BC0D0810BFCEC
:1004E000D0810B7CDEFF0B0082FF397002FF6CF8BD
:1004F0003A0047DC2A8045CCEEFF6CCC0000380087
:100500000000000C00001E0C00001E0000001E0079
:1005100000001E0000001E00F8FF1F00F8FF1F0073
:10052000F8FF1F00F8FF1F0000001E0000001E0063
:1005300000001E0000001E0000005E0000004000E1
:1005400000007C00000040000000400000007C0033
:1005500000003000000010000000300000007C6E41
:10056000616E00696E660000407A10F35A00A07256
:100570004E18090010A5D4E80000E87648170000DE
:10058000E40B54020000CA9A3B000000E1F50500AC
:100590000080969800000040420F000000A08601F5
:1005A000000000102700000000E8030000000064C5
:1005B00000000000000A0000000000010000000030
:1005C000002C76D888DC674F0823DFC1DFAE59E105
:1005D000B1B796E5E3E453C63AE651997696E8E674
:1005E000C28426EB898C9B62ED407C6FFCEFBC9C47
:1005F0009F40F2BAA56FA5F490055A2AF75C936B59
:100600006CF9676DC11BFCE0E40D47FEF520E6B513
:1006100000D0ED902E0300943577050080841E08ED
:100620000000204E0A000000C80C333333330F980B
:100630006E12831141EF8D2114893BE65516CFFED2
:10064000E6DB18D1844B381BF77C1D901DA4BBE45E
:1006500024203284725E228100C9F124ECA1E53DA0
:10066000270011241FBECFEFD8E0DEBFCDBF12E0C0
:10067000A0E0B1E0EAEAF6E502C005900D92A832EA
:10068000B107D9F715E0A8E2B2E001C01D92AF3181
:10069000B107E1F70E949A0D0C94532B0C940000C3
:1006A0001F93CF93DF93EC0188E660E00E94BE14B5
:1006B000182F8823A1F481E00E949814182F882312
:1006C00071F488E661E00E94BE14182F882339F483
:1006D000CE0160E00E946C14182F811118820E94D4
:1006E0000415812FDF91CF911F9108951F93CF9310
:1006F000DF93EC0188E660E00E94BE14182F882387
:10070000A1F489E00E949814182F882371F488E6D8
:1007100061E00E94BE14182F882339F4CE0160E0F6
:100720000E946C14182F811118820E940415812FC9
:10073000DF91CF911F9108951F93CF93DF93EC0129
:1007400088E660E00E94BE14182F8823A1F488E098
:100750000E949814182F882371F488E661E00E94A3
:10076000BE14182F882339F4CE0160E00E946C1467
:10077000182F811118820E940415812FDF91CF91CB
:100780001F9108951F93CF93DF93EC0188E660E0FB
:100790000E94BE14182F8823A1F487E00E949814A9
:1007A000182F882371F488E661E00E94BE14182F88
:1007B000882339F4CE0160E00E946C14182F811157
:1007C00018820E940415812FDF91CF911F91089507
:1007D0001F93CF93DF93EC0188E660E00E94BE1484
:1007E000182F8823A1F486E00E949814182F8823DC
:1007F00071F488E661E00E94BE14182F882339F452
:10080000CE0160E00E946C14182F811118820E94A2
:100810000415812FDF91CF911F9108951F93CF93DE
:10082000DF93EC0188E660E00E94BE14182F882355
:10083000A1F485E00E949814182F882371F488E6AB
:1008400061E00E94BE14182F882339F4CE0160E0C5
:100850000E946C14182F811118820E940415812F98
:10086000DF91CF911F9108951F93CF93DF93EC01F8
:1008700088E660E00E94BE14182F8823A1F484E06B
:100880000E949814182F882371F488E661E00E9472
:10089000BE14182F882339F4CE0160E00E946C1436
:1008A000182F811118820E940415812FDF91CF919A
:1008B0001F9108951F93CF93DF93EC0188E660E0CA
:1008C0000E94BE14182F8823A1F483E00E9498147C
:1008D000182F882371F488E661E00E94BE14182F57
:1008E000882339F4CE0160E00E946C14182F811126
:1008F00018820E940415812FDF91CF911F910895D6
:100900001F93CF93DF93EC0188E660E00E94BE1452
:10091000182F8823A1F482E00E949814182F8823AE
:1009200071F488E661E00E94BE14182F882339F420
:10093000CE0160E00E946C14182F811118820E9471
:100940000415812FDF91CF911F9108951F93CF93AD
:10095000DF93EC0188E660E00E94BE14182F882324
:10096000A1F480E00E949814182F882371F488E67F
:1009700061E00E94BE14182F882339F4CE0160E094
:100980000E946C14182F811118820E940415812F67
:10099000DF91CF911F91089581E00E948F0D85E036
:1009A0000E94580D0E943B0DA0E0B0E0BC01CD01BB
:1009B0000E945C2120E030E040EA50E40E945B208D
:1009C0009B01AC0160E070E286E395E40E94C320E5
:1009D00020E030E040E85FE30E945A20089581E083
:1009E0000E948F0D87E00E94580D0E943B0DA0E0F1
:1009F000B0E0BC01CD010E945C2120E030E040EA83
:100A000050E40E945B209B01AC0160E070E286E351
:100A100095E40E94C32020E030E040E85FE30E94BC
:100A20005A20089581E00E948F0D83E00E94580DA6
:100A30000E943B0DA0E0B0E0BC01CD010E945C2112
:100A400020E030E040EA50E40E945B209B01AC01D2
:100A500060E070E286E395E40E94C32020E030E08D
:100A600040E85FE30E945A20089581E00E948F0DC4
:100A700084E00E94580D0E943B0DA0E0B0E0BC0154
:100A8000CD010E945C2120E030E040EA50E40E9469
:100A90005B209B01AC0160E070E286E395E40E947C
:100AA000C32020E030E040E85FE30E945A20089530
:100AB00081E00E948F0D85E00E94580D0E943B0D41
:100AC000A0E0B0E0BC01CD010E945C2120E030E05C
:100AD00040EA5BE30E944C22089581E00E948F0D62
:100AE00086E00E94580D0E943B0DA0E0B0E0BC01E2
:100AF000CD010E945C2120E030E040EA5BE30E94EF
:100B00004C220895FF920F931F93CF93DF930E947F
:100B1000A30D81E08093BC0280E00E947013182F27
:100B200081E00E947013082F82E00E947013F82E5B
:100B3000113019F0C0E0D0E017C080E091E00E94D1
:100B4000A52A88EE93E00E940D1480E20E94B20E66
:100B500080ED97E00E940D1480E40E949D0E80E2DB
:100B60000E949D0EC1E0D0E00130B9F48CE091E02C
:100B70000E94A52A88EE93E00E940D1480E40E9452
:100B8000B20E80ED97E00E940D1480E40E949D0E4D
:100B900080E20E949D0EC2E0D0E081E0F816D1F420
:100BA00088E191E00E94A52A88EE93E00E940D144E
:100BB00080E40E94B20E80E20E94B20E80ED97E0C7
:100BC0000E940D1480E40E949D0E80E20E949D0E02
:100BD000C3E0D0E00E94A30DCE01DF91CF911F9121
:100BE0000F91FF9008952F923F924F925F926F92D4
:100BF0007F928F929F92AF92BF92CF92DF92EF92AD
:100C0000FF920F931F93DF93CF93CDB7DEB7649717
:100C10000FB6F894DEBF0FBECDBF882339F58DE245
:100C200093E09C8B8B8BA5E9B4E0BE83AD83EDE1B3
:100C3000F4E0FC83EB8385EA93E09A8389830F2EAB
:100C4000F0E02F2EF0E03F2EF0E04F2EF0E05F2E90
:100C5000F02D2F86388A498A5A8A2B863C864D8603
:100C60005E862F82388649865A8643C0A09030021D
:100C7000B0903102C0903202D0903302E090340242
:100C8000F090350200913602109137022090380220
:100C90003090390240903A0250903B0220913C0241
:100CA00030913D0240913E0250913F0280E090E041
:100CB000FC01E354FD4FA082B182C282D382FC01C9
:100CC000EB5DFB4FE082F18202831383FC01E3556D
:100CD000FC4F2082318242825382FC01EB5CFC4F4C
:100CE000208331834283538304968837910501F72B
:100CF00096CFAB89BC892D913D914D915C91139715
:100D0000FD012483358346835783AD81BE81ED90F9
:100D1000FD900D911C911397FD01E482F5820683ED
:100D20001783AB81BC81AD90BD90CD90DC901397C3
:100D3000FD01A482B582C682D782A981BA816D9055
:100D40007D908D909C901397FD01648275828682C0
:100D50009782C201B1010E945B201B012C016F85AB
:100D6000788989899A89A80197010E945B206F87F9
:100D7000788B898B9A8B6B857C858D859E85A6016A
:100D800095010E945B206B877C878D879E876F8192
:100D9000788589859A85A40193010E945B206F83E1
:100DA000788789879A878B899C8904979C8B8B8B02
:100DB000AD81BE811497BE83AD83EB81FC813497F6
:100DC000FC83EB8389819A8104979A838983AB8919
:100DD000BC89A55BB24009F08CCF80913002909124
:100DE0003102A0913202B0913302EB89FC898087F5
:100DF0009187A287B3878091340290913502A091A8
:100E00003602B09137028093250490932604A09374
:100E10002704B09328048091380290913902A09160
:100E20003A02B0913B028093AD039093AE03A0933E
:100E3000AF03B093B00380913C0290913D02A0912A
:100E40003E02B0913F028093350390933603A09306
:100E50003703B0933803C201B10120E030E040EF26
:100E600051E40E94C320609330027093310280935A
:100E70003202909333026F85788989899A8920E0BC
:100E800030E040EF51E40E94C3206093340270933D
:100E9000350280933602909337026B857C858D8571
:100EA0009E8520E030E040EF51E40E94C320609333
:100EB00038027093390280933A0290933B026F811B
:100EC000788589859A8520E030E040EF51E40E94E2
:100ED000C32060933C0270933D0280933E02909346
:100EE0003F0264960FB6F894DEBF0FBECDBFCF9120
:100EF000DF911F910F91FF90EF90DF90CF90BF9007
:100F0000AF909F908F907F906F905F904F903F90A9
:100F10002F9008956F927F928F929F92AF92BF927F
:100F2000CF92DF92EF92FF920F931F933B014C0100
:100F3000442361F080E090E0A0E0B0E080932802DC
:100F400090932902A0932A02B0932B02C401B3010B
:100F5000209128023091290240912A0250912B02BF
:100F60000E945B205B016C01609328027093290250
:100F700080932A0290932B02C401B301A401930130
:100F80000E945B207B018C01C401B30120912C02E3
:100F900030912D0240912E0250912F020E945A2032
:100FA00020E030E040EA50E40E944C229B01AC017A
:100FB000C801B7010E945B207B018C01C601B5010D
:100FC0002FE632E143E85AE30E944C229B01AC0138
:100FD000C801B7010E945B201F910F91FF90EF9015
:100FE000DF90CF90BF90AF909F908F907F906F9049
:100FF00008952F926F927F928F929F92AF92BF929D
:10100000CF92DF92EF92FF920F931F93DF93CF93D4
:1010100000D000D0CDB7DEB769837A838B839C8301
:10102000609038027090390280903A0290903B02B2
:1010300060913C0270913D0280913E0290913F028E
:101040000E94BF20282E221C2224221C220C6091E8
:101050003002709131028091320290913302A801E6
:1010600097010E94BF20082F001F0027001F000FBC
:10107000000F609134027091350280913602909198
:101080003702A60195010E94BF20182F111F1127BA
:10109000111F110F110F110FFF24C401B30129817A
:1010A0003A814B815C810E94BF20882314F4FF2485
:1010B000F3942F0C200E822D810F0F900F900F9024
:1010C0000F90CF91DF911F910F91FF90EF90DF90E4
:1010D000CF90BF90AF909F908F907F906F902F9008
:1010E000089508950E94EF046093380270933902C6
:1010F00080933A0290933B020E94CC0460933C029E
:1011000070933D0280933E0290933F020E9435050A
:1011100060933002709331028093320290933302D5
:101120000E94120560933402709335028093360258
:101130009093370208952F923F924F925F926F9251
:101140007F928F929F92AF92BF92CF92DF92EF9257
:10115000FF920F931F93DF93CF9300D000D0CDB7B2
:10116000DEB7609038027090390280903A02909019
:101170003B02A0903C02B0903D02C0903E02D09055
:101180003F02E0903402F090350200913602109157
:10119000370220903002309031024090320250905D
:1011A0003302C801B701A20191010E945A2069834C
:1011B0007A838B839C83C401B30120E030E040E854
:1011C0005FE30E94BF2087FD0BC0C601B50120E090
:1011D00030E040E85FE30E94BF2088230CF076C037
:1011E000C401B301A60195010E945A207B018C0124
:1011F000DD2420E030E040E050E00E94BF201816DF
:1012000014F0DD24D3947D2C7094C801B7010E94A2
:101210002B219B0177FF03C0309521953F4FB901EA
:10122000882777FD8095982F0E945E216B017C01B5
:101230008DB79EB709970FB6F8949EBF0FBE8DBFAE
:101240000DB71EB70F5F1F4FC701B60129813A8145
:101250004B815C810E945B200E9430214B015C012C
:1012600082E390E0F80191838083C701B601298170
:101270003A814B815C810E945A200E943021F80102
:101280007383628382EC91E0958384831682108657
:10129000178281E062E0472D22E330E0840152ECC6
:1012A000E52E51E0F52ECC24AA24BB24872C0E94E5
:1012B00084108DB79EB709960FB6F8949EBF0FBEE7
:1012C0008DBF0E94A30D84E291E078C0C801B701F0
:1012D00020E030E040E85FE30E94BF2087FD0CC0C3
:1012E000C201B10120E030E040E85FE30E94BF208E
:1012F00087FD02C080E065C069817A818B819C8115
:101300000E942B218B0177FF03C0109501951F4F81
:10131000EDB7FEB739970FB6F894FEBF0FBEEDBF1D
:10132000ADB6BEB60894A11CB11CFF2469817A81B8
:101330008B819C8120E030E040E050E00E940E2252
:10134000181614F4FF24F394F094DD2469817A8153
:101350008B819C8120E030E040E050E00E94BF2083
:10136000181614F0DD24D394D09488EC90E0F501A5
:10137000918380831383028382EC91E0958384833D
:1013800016821086178281E062E04F2D28EC30E053
:1013900092ECE92E91E0F92ECC24AA24BB248D2CCA
:1013A0000E9484108DB79EB709960FB6F8949EBF21
:1013B0000FBE8DBF0E94A30D81E391E00E94A52A7C
:1013C00081E00F900F900F900F90CF91DF911F91C0
:1013D0000F91FF90EF90DF90CF90BF90AF909F90D4
:1013E0008F907F906F905F904F903F902F900895D7
:1013F0002F923F924F925F926F927F928F92AF9215
:10140000BF92CF92DF92EF92FF920F931F93DF93E1
:10141000CF9300D000D0CDB7DEB70E949B08C82E76
:10142000882309F015C1EE24FF24609130027091E9
:101430003102809132029091330220E030E040EAA4
:1014400051E40E94BF2088231CF4F1E0EF2EF12C20
:1014500000E010E060913402709135028091360214
:101460009091370220E030E040EA51E40E94BF2032
:10147000882314F401E010E00E291F29FF24609155
:1014800038027091390280913A0290913B0220E03B
:1014900030E040EA51E40E94BF20882314F4FF2486
:1014A000F394EE2460913C0270913D0280913E02E3
:1014B00090913F0220E030E048EC51E40E94BF20D0
:1014C000882314F4EE24E394FE288F2D90E0082B5B
:1014D000192B012B09F0BCC080E090E0A0E0B0E047
:1014E0008093280290932902A0932A02B0932B02A2
:1014F0000E94BC0F672B11F4892B19F0CC24C394E4
:10150000A7C00E946A2960E971E00E949B27E0E978
:101510002E2EE1E03E2E280E391E0E946A2968EC2C
:1015200070E00E949B2788539F4FAA2797FDA095A4
:10153000BA2FBC01CD010E945E2169837A838B831F
:101540009C830E946A2968EC70E00E949B27885364
:101550009F4FAA2797FDA095BA2FBC01CD010E94ED
:101560005E212B013C010E946A2920E06AE070E0C4
:101570000E949B2708970CF021E0822E80948DB763
:101580009EB709970FB6F8949EBF0FBE8DBF0DB7DB
:101590001EB70F5F1F4FC301B2010E9430216B01C4
:1015A0007C01D8012C9211963C9269817A818B81C1
:1015B0009C810E943021F8017383628382EC91E068
:1015C0009583848316821086178281E062E0482D1D
:1015D0009101860172ECE72E71E0F72ECC24AA244B
:1015E000BB240E9484108DB79EB709960FB6F8945D
:1015F0009EBF0FBE8DBF0E94A30DADB7BEB71C9797
:101600000FB6F894BEBF0FBEADBFEDB7FEB73196B3
:101610008EE391E012969C938E93119733822282EF
:1016200089819A81AB81BC8184839583A683B783AA
:1016300040865186628673860E94932ACC24C39486
:10164000ADB7BEB71C960FB6F894BEBF0FBEADBF08
:101650008C2D0F900F900F900F90CF91DF911F91D5
:101660000F91FF90EF90DF90CF90BF90AF908F9051
:101670007F906F905F904F903F902F9008952F92A2
:101680003F924F925F926F927F928F929F92AF9212
:10169000BF92CF92DF92EF92FF920F931F93DF934F
:1016A000CF9300D000D00F92CDB7DEB70E94F809DB
:1016B000882309F05DC160913402709135028091F8
:1016C00036029091370220E030E040EA51E40E9477
:1016D0000E22181664F480E090E0A0EAB0E4809353
:1016E000340290933502A0933602B0933702609192
:1016F000300270913102809132029091330220E0E9
:1017000030E040EA51E40E940E22181614F0CC2476
:101710000EC080E090E0A0EAB0E4809330029093A5
:101720003102A0933202B0933302CC24C394E090F0
:101730003C02F0903D0200913E0210913F02C80130
:10174000B70120E030E048EC51E40E94BF2088233C
:1017500084F5CC2089F0C801B701A80197010E9447
:101760004C2220913002309131024091320250914E
:1017700033020E945B2012C0C801B701A801970183
:101780000E944C229B01AC016091300270913102A9
:1017900080913202909133020E945A209B01AC0149
:1017A0006091340270913502809136029091370237
:1017B00010C0609134027091350280913602909190
:1017C0003702209130023091310240913202509123
:1017D00033020E945A206D83972E1C012D81372FD2
:1017E000B90140E00E948A072B013C010E942B2195
:1017F0008B0177FF03C0109501951F4F053611052A
:10180000FCF0C301B20120E030E040E050E00E9473
:10181000BF208823A9F0B801882777FD8095982FED
:101820000E945E219B01AC01C301B2010E94C32052
:1018300020E030E048EC52E40E944C222B013C01B5
:10184000C301B20120E030E048EC52E40E94C32022
:101850006B017C018DB79EB709970FB6F8949EBFB8
:101860000FBE8DBF0DB71EB70F5F1F4FC701B6016B
:1018700020E030E048EC52E40E944C2220E030E0CE
:1018800048EC52E40E945B200E94302169837A83F5
:101890008B839C8382E390E0D8018D939C93C70156
:1018A000B60120E030E048EC52EC0E944C2220E0EF
:1018B00030E048EC52E40E945B200E943021F801A5
:1018C0007383628382EC91E0958384831682108611
:1018D000178281E062E041E022E330E009811A8171
:1018E000A2ECEA2EA1E0FA2ECC24AA24BB24882460
:1018F00083940E9484108DB79EB709960FB6F89412
:101900009EBF0FBE8DBF0E94A30DADB7BEB71E9781
:101910000FB6F894BEBF0FBEADBFEDB7FEB73196A0
:1019200086E791E012969C938E93119780913C02EA
:1019300090913D02A0913E02B0913F028283938339
:10194000A483B5832D81392DC901D1018683978365
:10195000A087B18742865386648675860E94932A43
:10196000EDB7FEB73E960FB6F894FEBF0FBEEDBFC3
:101970000F900F900F900F900F90CF91DF911F91CC
:101980000F91FF90EF90DF90CF90BF90AF909F901E
:101990008F907F906F905F904F903F902F90089521
:1019A000EF92FF920F931F93CF93DF930E94BE138A
:1019B0009093BC028093BB020E94A90E9093BA023E
:1019C0008093B9020E94C00D9093B8028093B70231
:1019D0000E942B1181E00E94AF0F0E94A90E0E946D
:1019E00018150E942D0D81E00E948F0D0E94720833
:1019F00081E00E94F305C3EAD1E00E9458057B0113
:101A00008C010E946D052DB73EB72A5030400FB6AD
:101A1000F8943EBF0FBE2DBFEDB7FEB73196ADB700
:101A2000BEB71296DC93CE931197E282F3820483C1
:101A3000158366837783808791870E94932A2DB7C9
:101A40003EB7265F3F4F0FB6F8943EBF0FBE2DBF87
:101A500080ED97E00E940D14D0CF8FE00E94E1123C
:101A6000882331F40E943F158FE061E00E94291322
:101A70008FE091E008958FE00E94E112813019F02B
:101A800020E030E013C080917A00806480937A0077
:101A900080917A0086FDFCCF30917800209179000A
:101AA000922F80E0232F30E0282B392BC901089595
:101AB000582F8091C8018830D8F440917E0021E0F1
:101AC00030E0B90102C0660F771F8A95E2F7CB01BB
:101AD0008095842380937E0080917E00052E02C035
:101AE000220F331F0A94E2F7822B80937E000DC0F1
:101AF00020917E0081E090E0052E02C0880F991FA2
:101B00000A94E2F7282B20937E005093C80180911D
:101B10007C005F71807E852B80937C000895ECE7CC
:101B2000F0E090818295880F880F807C9F73982BBE
:101B3000908308950E9458150E944A150E94D00C67
:101B400080E090E008950F931F9380E460E00E948E
:101B5000820E00E0802F60E00E94690E10E080E0BD
:101B600061E00E94820E1F5F1038C9F70F5F0430DA
:101B700089F783E060E00E94620E1F910F91089543
:101B80000F931F9382E00E94E112882311F482E0F8
:101B900006C081E00E94E112882319F481E090E000
:101BA0006DC00E94C01785E061E00E9429138EEA93
:101BB00060E00E94820E82EA60E00E94820E80EA6B
:101BC00060E00E94820E00E513ECC8010197F1F776
:101BD00080EC60E00E94820E8FE260E00E94820E44
:101BE00081E860E00E94820E86E160E00E94820E41
:101BF00082E260E00E94820EC8010197F1F78FEA4D
:101C000060E00E94820E86EA60E00E94820E85EA11
:101C100060E00E94820E80E090E028E833E1F90164
:101C20003197F1F7019643E0883E9407C1F783EBC3
:101C300060E00E94820E80E460E00E94820E83E0F9
:101C400060E00E94690E83E060E00E94620E1092E4
:101C5000EB041092ED041092EC0487ED91E0909368
:101C60001C0580931B0588E10E94410E0E94A30D74
:101C700084EA60E00E94820E85E091E01F910F915E
:101C800008951F93182F85E00E94E1128130C1F45E
:101C900087E00E94BE0E82E06AE00E940F0F82E0A1
:101CA00061EB0E940F0F612F113208F060E282E0B9
:101CB0000E940F0F89EE8A95F1F787E00E94BE0E11
:101CC0001F91089583706F776093E9048093EA040D
:101CD00008950F931F93062F162F1F778370806B25
:101CE00060E00E94820E12951F70812F806160E07B
:101CF0000E94820E802F8F7060E00E94820E1F91E2
:101D00000F9108950F931F93082F162F85E00E94BF
:101D1000E112813079F4112319F0113021F402C05D
:101D20002B9801C02B9A86E08A95F1F780E0602F0E
:101D30000E940F0F1F910F9108951F93182F86E097
:101D40000E94E112813019F4812F0E946F181F91B7
:101D500008950E94741886E061E00E94291386E0CD
:101D600091E008951F93182F86E00E94E1128130C0
:101D700019F4812F0E9477181F9108951F93182F2F
:101D800082E00E94E112813009F047C0912F9770E4
:101D90008091EE04981709F440C09093EE0485B149
:101DA000887F892B85B9933011F1943028F49130D4
:101DB00051F0923090F40CC0953019F19530E0F06C
:101DC000963021F50FC0E0919202F091930222C06B
:101DD000E0919002F09191021DC0E0919402F09187
:101DE000950218C0E0919C02F0919D0213C0E09111
:101DF0009602F09197020EC0E0919802F09199023C
:101E000009C0E0919A02F0919B0204C0E0919E0209
:101E1000F0919F02309709F009951F9108951F9343
:101E2000162F0E94BE0E82E00E94E112813021F442
:101E30001EBD0DB407FEFDCF1F9108950F931F9394
:101E4000CF93DF9380E291E00E941B289C01909346
:101E5000AF028093AE02892B11F480E039C0890172
:101E6000C0E0D0E0BE0180E090E00E945C2120E074
:101E700030E040EA51E40E94C32027EF35E740E01C
:101E80005FE30E944C229B01AC0160E070E080E2C5
:101E900091E40E94AF229B01AC01CA01B9012DEC73
:101EA0003CEC42E851E40E944C220E9412222AE0BB
:101EB00030E040E050E00E947C27F801619371938C
:101EC000819391938F012196C834D10559F681E011
:101ED000DF91CF911F910F9108958AE00E94E11246
:101EE000882371F41092AB021092AA0281E00E9442
:101EF000A01981E08093A1028AE061E00E94291389
:101F00008AE091E008951F938BE00E94E1128823FC
:101F100011F090E021C089E00E94E1128823D9F4F9
:101F20000E941E0F182F8130B1F41092A20210925D
:101F3000A3021092A4021092A5028DE063E279E15F
:101F40000E94981782E00E94A0191093A00289E0D5
:101F500061E00E94291391E089E01F91089581308A
:101F600029F0823031F090E089E008950E946D0FF1
:101F700008950E94830F08958091AF049091B0045A
:101F80002091B1043091B204BC01C90108952F928F
:101F90003F924F925F926F927F928F929F92AF92F9
:101FA000BF92CF92DF92EF92FF920F931F93DF9336
:101FB000CF93CDB7DEB7582E962E442E39013C2C48
:101FC000C98CDA8C2B8C81E0681739F1681728F0FE
:101FD00092E0691709F085C049C080E061E00E9485
:101FE000D01180E0B7010E94991180E0642DA30117
:101FF0009801032DEE24E394E4EDCE2EE4E0DE2EF2
:102000000E940712552009F06CC000D00F92EDB766
:10201000FEB71182B382A28223C081E061E00E94F8
:10202000D01181E0B6010E94991181E0682D4D899F
:102030005E892F89388D022DEE24E39474EDC72E2E
:1020400074E0D72E0E940712552009F04AC000D034
:102050000F92EDB7FEB791828C8D9D8D9383828315
:102060000E9493120F900F900F903BC082E061E0AE
:102070000E94D01180E0B7010E94991181E0B60161
:102080000E94991180E0642DA3019801032DEE2494
:10209000E39494EDC92E94E0D92E0E94071281E0BA
:1020A000682D4D895E892F89388D022D0E94071277
:1020B0005520B9F400D000D00F92ADB7BEB711963D
:1020C000EDB7FEB79182FD01B282A1828C8D9D8D0C
:1020D000948383830E9493120F900F900F900F9020
:1020E0000F90CF91DF911F910F91FF90EF90DF90B4
:1020F000CF90BF90AF909F908F907F906F905F90A8
:102100004F903F902F9008956F927F928F929F9261
:10211000AF92BF92CF92DF92EF92FF920F931F93F5
:10212000DF93CF93CDB7DEB7942E7C2DD5014989AF
:102130005A89AB88BC88CD88DE889F89813009F4B4
:1021400057C08130B8F1823009F076C0613091F02B
:10215000613020F0623009F06FC015C080E060E0AF
:102160000E94D01180E0B7010E94991180E0692D92
:10217000A8011DC081E060E00E94D01181E0B6019D
:102180000E94991111C082E060E00E94D01180E0AD
:10219000B7010E94991181E0B6010E94991180E077
:1021A000692DA8010E94821181E0682DA5010E947D
:1021B000821142C0EDB7FEB739970FB6F894FEBF53
:1021C0000FBEEDBF6DB67EB60894611C711C5283C4
:1021D0004183F301B382A282D582C4829683888D23
:1021E000998D9087878380E0492DC72E5D011AC0A5
:1021F000EDB7FEB739970FB6F894FEBF0FBEEDBF2F
:10220000ADB7BEB7119652834183FD01B382A2825E
:10221000D582C48296831086178281E0492DC72E0D
:10222000AA24BB240E94C70F8DB79EB709960FB68C
:10223000F8949EBF0FBE8DBFCF91DF911F910F917C
:10224000FF90EF90DF90CF90BF90AF909F908F90D6
:102250007F906F9008950E94321A81E08093D3049A
:10226000EDE9F4E0119211921182108232961182FE
:10227000108232961182108232961182108232962A
:10228000118210823296118210823296118210824F
:102290003296118210823296118210823296118209
:1022A00010823296118210823296118210823696F6
:1022B00011921192119210823296119211921192F2
:1022C0001192119211921192118210823296118202
:1022D0001082329611821082329611821082769785
:1022E000118210823296118210821092D2041092C2
:1022F000D1041092D30487E061E00E94291387E0A3
:1023000091E00895EF92FF920F931F93182F062FDD
:102310007A0160E00E94D011812F602F0E94BB11D2
:10232000812FB7010E94E5111F910F91FF90EF904F
:102330000895482F81E08093D304CB0123E0693EC8
:10234000720710F088EE93E0413071F0413018F0E0
:10235000423071F405C09093A8048093A70408C08C
:102360009093A8048093A7049093AA048093A9044F
:102370001092D3040895982F81E08093D304913074
:1023800051F0913018F0923041F403C06093C004D2
:1023900004C06093C0046093C1041092D3040895F4
:1023A000982F81E08093D304913051F0913018F050
:1023B000923041F403C060939D0404C060939D0477
:1023C00060939E041092D3040895482F81E0809377
:1023D000D304CB0121E06139720710F080E991E06C
:1023E000413071F0413018F0423071F405C09093E3
:1023F000A00480939F0408C09093A00480939F043E
:102400009093A2048093A1041092D30408958F9214
:102410009F92AF92BF92CF92DF92EF92FF920F9373
:102420001F93CF93DF93182FF62E5A014901E6012F
:1024300061E00E94D011812FB501A4010E946C1AA5
:10244000812F6F2D0E94BB11812F602F0E94571A80
:10245000812FB5010E943C1AC114D10499F01130AA
:1024600049F0113018F0123069F406C01882109249
:10247000CF0408C0198204C0188219821092CF04B8
:102480001092D004D093D204C093D104EE20B9F5B9
:1024900080E492E09093D2048093D104812FB40120
:1024A0000E94E511812F0E941D1A113071F0113028
:1024B00018F0123059F512C0109240021092CF0459
:1024C000809140028823E1F321C0109241021092D2
:1024D000D004809141028823E1F318C01092400299
:1024E000109241021092CF041092D00480914002C9
:1024F0008823E1F3809141028823C1F307C0812F33
:10250000B4010E94E511812F0E941D1ADF91CF9125
:102510001F910F91FF90EF90DF90CF90BF90AF9001
:102520009F908F900895CF92DF92EF92FF920F933A
:102530001F93DF93CF93CDB7DEB78B85813061F0EA
:10254000813018F08230A1F511C0EC85FD858091B5
:10255000D4048823E1F306C0EC85FD858091D50481
:102560008823E1F3309721F1099522C0CC84DD84E2
:10257000EE84FF8400E010E0002351F48091D40445
:10258000882331F0C114D10411F0F601099501E05E
:10259000112351F48091D504882331F0E114F10422
:1025A00011F0F701099511E0002331F3112321F314
:1025B000CF91DF911F910F91FF90EF90DF90CF901F
:1025C0000895E82FF0E0E331F10540F4E25CFF4FBD
:1025D000EE0FFF1F0590F491E02D099480E008951F
:1025E0008091D60408958091D70408958091D804ED
:1025F00008958091D90408958091DA040895809116
:10260000DC0408958091DB0408958091DD04089531
:102610008091DE0408958091DF0408958091E004A4
:1026200008958091E10408958091E20408958091D5
:10263000E30408958091E40408958091E5040895E9
:102640008091E60408958091E70408958091E8045C
:102650000895E82FF0E0E331F10508F040C0EF5AAB
:10266000FF4FEE0FFF1F0590F491E02D099460934A
:10267000D60408956093D70408956093D80408950C
:102680006093D90408956093DA0408956093DC049C
:1026900008956093DB0408956093DD0408956093CA
:1026A000DE0408956093DF0408956093E0040895C4
:1026B0006093E10408956093E20408956093E30455
:1026C00008956093E40408956093E5040895609389
:1026D000E60408956093E70408956093E60408957E
:1026E0001F93CF93DF93182F80914302882341F0EB
:1026F00080914D02882399F01092430210924D026E
:102700000E94CC1A8093420287E492E061E040E0AC
:1027100022E330E00E942E1481E0809343029091E6
:102720004202A12FB0E0ED01CF52DE4F8881882315
:1027300069F0FD01EC52FE4F80819823C1F0FD014C
:10274000EC5BFD4F81E08083188211C0FD01EC5BE2
:10275000FD4F808181111082FD01EC52FE4F80817E
:10276000982329F4FD01EF52FE4F81E08083AC5B9A
:10277000BD4F8C91DF91CF911F91089582E00E940F
:10278000E112882319F490E082E008951092040584
:102790001092030510920605109205051092080587
:1027A0001092070510920A051092090510920C0567
:1027B00010920B0580E991E09093F0048093EF0470
:1027C0009093F2048093F1049093F4048093F304C3
:1027D0009093F6048093F5049093F8048093F704A3
:1027E00084E398E09093FA048093F9049093FC04B6
:1027F0008093FB049093FE048093FD049093000566
:102800008093FF04909302058093010581E061E0CD
:102810000E94291391E081E00895DF93CF93CDB713
:10282000DEB729970FB6F894DEBF0FBECDBF9C016F
:10283000CE01019661E040E00E942E14982F88237B
:1028400019F48F818823E9F3892F29960FB6F8941C
:10285000DEBF0FBECDBFCF91DF910895EF92FF9203
:102860000F931F93CF93DF93EC01F62EE42E890193
:1028700088E00E94E112813011F081E026C084E0FE
:1028800090E00E941B28FC01009711F482E01DC01B
:10289000F982F0FC1E8281E0E81619F489818460D7
:1028A00089838981886089831B830A831D830C83C4
:1028B000D183C0831382128281E08093B002CF0162
:1028C0000E94FD1A1092B00280E0DF91CF911F911B
:1028D0000F91FF90EF900895FC01809110058130D9
:1028E00011F085E0089580911105813011F08AE0A2
:1028F0000895613011F484EC01C084E88093BC0039
:102900008091BC0087FFFCCF613031F48091B90029
:10291000887F803559F405C08091B900887F88355B
:1029200029F48091BB00808380E0089582E00895BF
:10293000982F80911005813011F085E008958091E5
:102940001105813011F08AE008959093BB0084E86E
:102950008093BC008091BC0087FFFCCF8091B900C0
:1029600090E0887F90708832910521F0C09721F423
:1029700083E0089580E008958CE00895982F2091D9
:102980001005213011F085E0089580911205813005
:1029900011F489E008952093110584EA8093BC0026
:1029A0008091BC0087FFFCCF8091B900887F883080
:1029B00039F08091B900887F803111F081E008956D
:1029C000613019F4990F916003C0662319F4990FCF
:1029D0009093BB0084E88093BC008091BC0087FF8B
:1029E000FCCF613031F48091B900887F803441F4AC
:1029F00009C0662339F48091B900887F883111F0CD
:102A000082E0089580E0089580911105813011F0F1
:102A10008AE0089580911305813029F485E9809337
:102A2000BC0080E0089584E98093BC0080E00895B4
:102A300082E10E94E1128823B1F4109210051092F5
:102A400011051092120510921305109214050E94A0
:102A5000991B87E160E00E9436150E948F1B82E17E
:102A600061E00E94291382E190E008956370609311
:102A7000B9008093B80081E08093100508958FE13C
:102A800080937C00EAE7F0E087E0808380818068C3
:102A9000808308950E94A91A0E947C180E94AC1796
:102AA0000E94661B0E94E1180E94BE13789408954C
:102AB000000008951F920F920FB60F9211242F93CA
:102AC0003F934F935F936F937F938F939F93AF93B6
:102AD000BF93EF93FF93E0917002F09171023097F2
:102AE00009F00995FF91EF91BF91AF919F918F915F
:102AF0007F916F915F914F913F912F910F900FBEFA
:102B00000F901F9018951F920F920FB60F921124DD
:102B10002F933F934F935F936F937F938F939F93E5
:102B2000AF93BF93EF93FF93E0917202F091730222
:102B3000309709F00995FF91EF91BF91AF919F9167
:102B40008F917F916F915F914F913F912F910F9056
:102B50000FBE0F901F9018951F920F920FB60F92F5
:102B600011242F933F934F935F936F937F938F9392
:102B70009F93AF93BF93EF93FF93E0917402F09113
:102B80007502309709F00995FF91EF91BF91AF91D0
:102B90009F918F917F916F915F914F913F912F9175
:102BA0000F900FBE0F901F9018951F920F920FB6A7
:102BB0000F9211242F933F934F935F936F937F93C3
:102BC0008F939F93AF93BF93EF93FF93E091620234
:102BD000F0916302309709F00995FF91EF91BF9151
:102BE000AF919F918F917F916F915F914F913F91A5
:102BF0002F910F900FBE0F901F9018951F920F925C
:102C00000FB60F9211242F933F934F935F936F93BF
:102C10007F938F939F93AF93BF93EF93FF93E09135
:102C20006402F0916502309709F00995FF91EF91E8
:102C3000BF91AF919F918F917F916F915F914F91D4
:102C40003F912F910F900FBE0F901F9018951F92DC
:102C50000F920FB60F9211242F933F934F935F93D0
:102C60006F937F938F939F93AF93BF93EF93FF9354
:102C7000E0916602F0916702309709F00995FF91A3
:102C8000EF91BF91AF919F918F917F916F915F91E4
:102C90004F913F912F910F900FBE0F901F9018955D
:102CA0001F920F920FB60F9211242F933F934F93C1
:102CB0005F936F937F938F939F93AF93BF93EF93A4
:102CC000FF93E0916A02F0916B02309709F0099549
:102CD000FF91EF91BF91AF919F918F917F916F91F4
:102CE0005F914F913F912F910F900FBE0F901F90CA
:102CF00018951F920F920FB60F9211242F933F93A6
:102D00004F935F936F937F938F939F93AF93BF93F3
:102D1000EF93FF93E0916C02F0916D02309709F010
:102D20000995FF91EF91BF91AF919F918F917F9105
:102D30006F915F914F913F912F910F900FBE0F9028
:102D40001F9018951F920F920FB60F9211242F9378
:102D50003F934F935F936F937F938F939F93AF9323
:102D6000BF93EF93FF93E0916802F091690230976F
:102D700009F00995FF91EF91BF91AF919F918F91CC
:102D80007F916F915F914F913F912F910F900FBE67
:102D90000F901F9018951F920F920FB60F9211244B
:102DA0002F933F934F935F936F937F938F939F9353
:102DB000AF93BF93EF93FF93E0916E02F0916F0298
:102DC000309709F00995FF91EF91BF91AF919F91D5
:102DD0008F917F916F915F914F913F912F910F90C4
:102DE0000FBE0F901F9018951F920F920FB60F9263
:102DF00011242F933F934F935F936F937F938F9300
:102E00009F93AF93BF93EF93FF93E0915802F0919C
:102E10005902309709F00995FF91EF91BF91AF9159
:102E20009F918F917F916F915F914F913F912F91E2
:102E30000F900FBE0F901F9018951F920F920FB614
:102E40000F9211242F933F934F935F936F937F9330
:102E50008F939F93AF93BF93EF93FF93E0915A02A9
:102E6000F0915B02309709F00995FF91EF91BF91C6
:102E7000AF919F918F917F916F915F914F913F9112
:102E80002F910F900FBE0F901F9018951F920F92C9
:102E90000FB60F9211242F933F934F935F936F932D
:102EA0007F938F939F93AF93BF93EF93FF93E091A3
:102EB0005C02F0915D02309709F00995FF91EF9166
:102EC000BF91AF919F918F917F916F915F914F9142
:102ED0003F912F910F900FBE0F901F9018951F924A
:102EE0000F920FB60F9211242F933F934F935F933E
:102EF0006F937F938F939F93AF93BF93EF93FF93C2
:102F0000E0915E02F0915F02309709F00995FF9120
:102F1000EF91BF91AF919F918F917F916F915F9151
:102F20004F913F912F910F900FBE0F901F901895CA
:102F3000E82F803268F48051833050F0F0E0EE0FDB
:102F4000FF1FE05BFD4F208131817183608302C0F0
:102F500020E030E0C901089580E10E94E112882359
:102F600061F4E0E5F2E01192119282E0E039F807B5
:102F7000D1F780E161E00E94291380E191E008959A
:102F8000239A0895FF920F931F93CF93DF93F82E08
:102F90008AE0F816B1F08F1548F0E8E0FE16B9F1B6
:102FA000EF1538F1F7E0FF1651F43BC08DE0F8164D
:102FB00059F0EBE1FE1689F0FCE0FF1641F001E06C
:102FC00041C01092E90403C01092E9043AC0809114
:102FD000EA0481508093EA0434C00E94A30D14C017
:102FE00080E061E00E94820E8091E9048F5F80930F
:102FF000E9048091E90487FFF3CF1092E9048091FE
:10300000EA0481508093EA0400E011E01CC0809142
:10301000E9048823B1F08091E90486508093E904A3
:1030200010C081E00E94AF0F64EF71E080E090E09B
:103030004DE750E024E630E00E94CA1981E00E948A
:10304000961900E010E08091EA046091E9040E9482
:10305000690E002351F185E0F89EC0011124EC01B6
:10306000C355DF4F8C010E541F4FFE01849161E068
:103070000E94820E2196C017D107B9F780E061E067
:103080000E94820E8091E9048A5F8093E904809116
:10309000E90490E08C3791053CF01092E9048091AE
:1030A000EA0481508093EA0411E08091EA0483707D
:1030B0008093EA04113059F48091EB04813039F4A3
:1030C000E091EC04F091ED04309709F0099580E06F
:1030D00090E0DF91CF911F910F91FF90089585FDB2
:1030E0005D9886FD5E980895559A569A089585FDD7
:1030F0005D9A86FD5E9A089580E00E94E112882321
:1031000051F4F8940E94AD1B81E00E948E1880E07B
:1031100061E00E94291380E091E00895813049F038
:10312000F894813020F18230B1F0833009F045C04D
:1031300017C02C9A80E8809361001092610080E0B3
:1031400090E00000019688329105D9F7109268004E
:1031500010926B00089580E88093610083E004C0C2
:1031600080E88093610088E08093610028C080E05F
:1031700090E0000001962DE680369207D1F72C985A
:1031800080E090E0000001962DE680369207D1F7AE
:1031900010927A008FEF80936400809168008160C4
:1031A0008093680080916B00846080936B007894BA
:1031B00083B7816083BF88950895823008F0789442
:1031C00008950F931F930E94D91B80E068EC7BE168
:1031D0000E941A1981E060EC7BE10E941A1982E0DA
:1031E00068EB7BE10E941A1986E060ED7BE10E94AA
:1031F0001A1900EB1BE183E0B8010E941A1984E060
:10320000B8010E941A1985E0B8010E941A1987E0D6
:10321000B8010E941A1982E061E00E9429138FEF21
:103220008093EE0487E00E94BE0E82E091E01F9141
:103230000F910895E82FF0E0EE0FFF1FE057FD4FCC
:103240007183608308950E94261908958091A202D7
:103250009091A302A091A402B091A5022091A60290
:103260003091A7024091A8025091A902280F391F5E
:103270004A1F5B1F2093A2023093A3024093A40233
:103280005093A5028091A2029091A302A091A40262
:10329000B091A5028851964FA040B040BCF08BB1D0
:1032A00080588BB98091A2029091A302A091A402B0
:1032B000B091A5028851964FA040B0408093A202E1
:1032C0009093A302A093A402B093A50208958AE06C
:1032D0000E94E112813041F40E94091C1092A10267
:1032E0008AE060E00E942913089589E00E94E112BB
:1032F0008130D9F48091A002882311F00E94171A1E
:1033000082E00E94091C8091AE029091AF0200976A
:1033100031F00E94C8281092AF021092AE021092B3
:10332000A00289E060E00E9429130895813029F00D
:10333000823029F40E94751908950E946719089532
:10334000982F8091A002882331F48091A1028823D4
:1033500011F4579A5F988091A0028823D1F492309B
:10336000C1F41092800010928100809181008860E9
:103370008093810080918100816080938100109210
:1033800085001092840081E08093890080E9809319
:10339000880008958F929F92AF92BF92CF92DF9252
:1033A000EF92FF920F931F93CF93DF934B015C013A
:1033B000EA01B9012115310539F19E01442737FD94
:1033C0004095542F6536710510F064E670E080E09A
:1033D00090E00E947C2724E630E040E050E00E942C
:1033E000AE2779018A01C501B4010E94F21BC70111
:1033F0000E940D1460E070E080E090E00E94F21BFB
:10340000CE018E199F0904C04115510519F0CA015A
:103410000E940D14DF91CF911F910F91FF90EF90BB
:10342000DF90CF90BF90AF909F908F900895EFE680
:10343000F0E080818D7F80830895982F81E08093D4
:10344000D304913051F0913018F0923041F403C020
:103450001092BB0404C01092BB041092BC041092E2
:10346000D30408953A9A3B9A3C9A3D9A3E9A3F9AE1
:1034700088B1837088B90895982F81E08093D30430
:10348000913071F0913018F0923071F405C0709362
:10349000B0046093AF0408C07093B0046093AF04AD
:1034A0007093B2046093B1041092D3040895982FDE
:1034B00081E08093D304913051F0913018F0923034
:1034C00041F403C06093BD0404C06093BD046093E5
:1034D000BE041092D30408950F931F93CF93DF93EC
:1034E000EB018A01813001F1813018F0823061F501
:1034F0000DC08091A7049091A804892B11F080E061
:103500001AC01092B4041092B3041EC08091A70494
:103510009091A804892B21F080E00E94251C04C012
:103520001092B4041092B3048091A9049091AA045B
:10353000892B31F081E0BE01A8010E94251C04C046
:103540001092B6041092B504DF91CF911F910F91A4
:1035500008951092D6041092D7041092DB041092B2
:10356000D8041092DA041092DC041092DD04109258
:10357000DE041092DF041092E0041092E104109235
:10358000E2041092E3041092E4041092E504109215
:10359000E6041092E70408950F931F9381E00E94C0
:1035A000E112813011F000E024C087E00E94BE0EDD
:1035B00082E06AE00E940F0F82E062EB0E940F0F30
:1035C00018EC812F8A95F1F782E060E00E94E01B01
:1035D000082F812F8A95F1F782E060E00E94E01BBE
:1035E0001A95F1F787E00E94BE0E88E893E10197F3
:1035F000F1F7802F1F910F910895CF92DF92EF92F4
:10360000FF920F931F93CF93DF93EC0180910D05F1
:10361000882339F4D0930F05C0930E050E948B1BAD
:1036200047C0C0900E05D0900F0500E010E0EE24DA
:10363000FF2437C0A881B981FD0164817581F6013D
:1036400040815181FA01848195819B01281B390BAE
:1036500037FF0FC0861B970B95838483DB82CA825A
:10366000012B29F4D0930F05C0930E0521C0F7015B
:103670000CC0F601828193812115310549F4FD01C9
:10368000158214829B838A83F601D383C28310C080
:10369000FD01358324830097B9F30F5F1F4F760137
:1036A0006C0180910D0590E00817190718F2ECCF16
:1036B00080910D058F5F80930D05DF91CF911F9154
:1036C0000F91FF90EF90DF90CF90089588E00E94D7
:1036D000E1128823B9F410920D0510920F05109293
:1036E0000E051092B0021092B10280E162E97CE115
:1036F0000E949C1B0E94991C0E94851B88E061E02F
:103700000E94291388E091E00895EEE6F0E08081C0
:1037100082608083089581E08093B1020895809152
:103720001005813029F48091BC0084608093BC0036
:103730000895389839980895803218F020E030E0E4
:103740000AC0E82FF0E0EE0FFF1FE05BFD4F208185
:10375000318171836083C9010895249A2C9A089558
:1037600083E58CBD81E08DBD8DE08A95F1F70895EC
:1037700083E58CBD1DBC84EF91E00197F1F70895BE
:103780008FE78CBD1DBC84EF91E00197F1F70895A0
:1037900083E58CBD81E08DBD8DE08A95F1F70895BC
:1037A00083E58CBD81E08DBD84EF91E00197F1F759
:1037B0000895259A2698279A209A219A229A089560
:1037C0001F93162F0E94BE0E82E00E94E1128130EC
:1037D00011F080E005C01EBD0DB407FEFDCF8EB513
:1037E0001F9108959B01AC018091A102882381F073
:1037F000DA01C901880F991FAA1FBB1F9093AD0260
:103800008093AC02211531054105510509F45F98FB
:103810000895823029F4809181008E7F8093810009
:103820008091A002813031F48091A102813011F4A5
:10383000000008958091A002813021F08091A102C2
:10384000813011F45F9857980895EF92FF920F938B
:103850001F93CF93DF93EB01882321F0813009F090
:103860005AC02DC09A0140E050E0CA01B9010E943F
:103870007C272091A7043091A804220F331F40E039
:1038800050E00E94AE2779018A01A8019701220F1A
:10389000331F441F551FCE01A0E0B0E082179307ED
:1038A000A407B50728F0F092B404E092B30433C043
:1038B000D695C795D093B404C093B3042CC09A0195
:1038C00040E050E0CA01B9010E947C272091A90480
:1038D0003091AA04220F331F40E050E00E94AE272F
:1038E00079018A01A8019701220F331F441F551F38
:1038F000CE01A0E0B0E082179307A407B50728F037
:10390000F092B604E092B50406C0D695C795D09360
:10391000B604C093B504DF91CF911F910F91FF9032
:10392000EF9008950E94A21C0E94E21C0E94BB1C02
:10393000089584B5826084BD85B5846085BD8EE4BC
:1039400087BD089588E00E94E112882311F484E085
:1039500008958091B102882311F483E00895809145
:10396000B002882311F082E008950E94541F813034
:10397000E1F380E008958091A102813011F58091FA
:10398000AA029091AB022091AC023091AD02280FB7
:10399000391F3093AB022093AA028091AA02909122
:1039A000AB02885E93406CF08BB180588BB98091EC
:1039B000AA029091AB02885E93409093AB028093F1
:1039C000AA02089587E00E94E112813009F0AAC09E
:1039D0008091A7049091A804892B09F18091CB04D0
:1039E0009091CC042091A7043091A804820F931FDA
:1039F0009093CC048093CB048091CB049091CC0421
:103A0000885E9340A4F08091CB049091CC04885EB2
:103A100093409093CC048093CB0441E009C0809103
:103A20009F049091A0049093A4048093A30440E089
:103A30008091A9049091AA04892B09F18091CD0469
:103A40009091CE042091A9043091AA04820F931F73
:103A50009093CE048093CD048091CD049091CE04B8
:103A6000885E9340A4F08091CD049091CE04885E4E
:103A700093409093CE048093CD0461E009C080917F
:103A8000A1049091A2049093A6048093A50460E001
:103A9000842F0E94931D8091C7049091C8042091A7
:103AA000A3043091A404280F391F3093C804209335
:103AB000C7048091C7049091C804885E934014F4B1
:103AC00040E00BC08091C7049091C804885E934089
:103AD0009093C8048093C70441E08091C9049091F9
:103AE000CA042091A5043091A604280F391F3093F1
:103AF000CA042093C9048091C9049091CA04885EC5
:103B0000934014F460E00BC08091C9049091CA0402
:103B1000885E93409093CA048093C90461E0842F27
:103B20000E94D81D08958823F1F020919F043091C0
:103B3000A0048091A3049091A404281B390B1216B1
:103B4000130634F48091A3049091A404019607C055
:103B5000232B49F08091A3049091A40401979093A2
:103B6000A4048093A304662311F12091A104309151
:103B7000A2048091A5049091A604281B390B12166B
:103B8000130654F48091A5049091A6040196909395
:103B9000A6048093A5040895232B49F08091A504E1
:103BA0009091A60401979093A6048093A50408958C
:103BB0000F931F93182F062F8091D304882309F0A9
:103BC000E7C08091BB04882309F05AC08091A30408
:103BD0009091A404892BE9F48091B202837E8093B2
:103BE000B2021092C4048091CF04882309F45DC00E
:103BF0006091BD0480E00E942F1FE091D104F091FC
:103C0000D204309709F451C081E080831092CF0430
:103C10004CC080919D04813041F48091AF0490911B
:103C2000B004019711F411E002C01123F1F1E09109
:103C3000C204F0E0E753FE4F9091B202937E808180
:103C4000892B8093B2028091C004882321F4809153
:103C5000C2048F5F03C08091C20481508093C2046C
:103C60008091C20483708093C20481E08093C40475
:103C700080919D048130C9F480E00E94DB1E15C054
:103C80009091B202937E9093B202E091C204F0E070
:103C9000E753FE4F8081892B8093B20282E08093AC
:103CA000C4041092A4041092A3048091BC0488233D
:103CB00009F059C08091A5049091A604892BE9F4DC
:103CC0008091B2028F718093B2021092C5048091EC
:103CD000D004882309F45CC06091BE0481E00E9496
:103CE0002F1FE091D104F091D204309709F450C015
:103CF00081E081831092D0044BC080919E0481307A
:103D000041F48091B1049091B204019711F401E063
:103D100002C00023E9F1E091C304F0E0E353FE4F59
:103D20009091B2029F718081892B8093B202809121
:103D3000C104882321F48091C3048F5F03C0809164
:103D4000C30481508093C3048091C3048370809323
:103D5000C30481E08093C50480919E048130C1F446
:103D60000E94DB1E15C09091B2029F719093B20227
:103D7000E091C304F0E0E353FE4F8081892B8093F0
:103D8000B20282E08093C5041092A6041092A504AA
:103D90008091C604882331F482EB92E0612F402F9A
:103DA0000E94C21F88B183709091B202892B88B99A
:103DB0001F910F910895882321F0813009F04EC0A2
:103DC00027C08091AF049091B004892B49F0809175
:103DD000AF049091B00401979093B0048093AF0426
:103DE0008091CF048823D1F52091AF043091B004A5
:103DF0008091B3049091B4042817390779F580E0D5
:103E000060E070E00E94E51181E08093CF040895A6
:103E10008091B1049091B204892B49F08091B10452
:103E20009091B20401979093B2048093B104809171
:103E3000D004882399F42091B1043091B204809188
:103E4000B5049091B6042817390741F481E060E089
:103E500070E00E94E51181E08093D00408950F93F3
:103E60001F93182F062F662349F460E070E00E942C
:103E7000E511812F60E070E00E943C1A81E08093A0
:103E8000D304113051F0113018F0123041F403C056
:103E90000093BB0404C00093BB040093BC041092C5
:103EA000D3041F910F910895FF920F931F93CF9307
:103EB000DF9380910D05882309F459C000910E0508
:103EC00010910F05F801C081D1818C819D810197EE
:103ED0009D838C83181619060CF449C0898180FFD4
:103EE00005C08E81882311F481E08E83898181FF52
:103EF00003C0EF81F885099580910D058230A8F007
:103F0000F8018281938190930F0580930E051382AF
:103F10001282E0910000F0910100848195811816D1
:103F200019063CF0FF24F39405C010920F0510927F
:103F30000E05FF2480910D05815080930D05809121
:103F40000D05882311F40E94BF1F898182FF08C0DC
:103F50008A819B819D838C83C8010E94FD1A08C0C1
:103F6000C8010E94C82889818F7E898301C0FF24EF
:103F70008F2DDF91CF911F910F91FF900895109297
:103F8000B1020895FC018091C404823069F48091EB
:103F9000B60291E089278093B602882309F03EC0DB
:103FA0008081837E80833AC08091A3049091A40491
:103FB000C397A4F56623D1F02091A3043091A40403
:103FC00080E690E0BC01269FC001279F900D369FA0
:103FD000900D1124880F892F881F990B9093B80496
:103FE0008093B70481E08093B40218C08091B4023A
:103FF0008823A1F08091B7049091B8040197909321
:10400000B8048093B7048091B7049091B804892BC9
:1040100029F48081837E80831092B4028091C5044C
:10402000823069F48091B50291E089278093B502CE
:10403000882309F03EC080818F718083089580912C
:10404000A5049091A604C397A4F54423D1F0209130
:10405000A5043091A60480E690E0AC01249FC00145
:10406000259F900D349F900D1124880F892F881F54
:10407000990B9093BA048093B90481E08093B302C2
:1040800008958091B3028823A1F08091B9049091A2
:10409000BA0401979093BA048093B9048091B9044B
:1040A0009091BA04892B29F480818F7180831092BA
:1040B000B30208955058BB27AA270ED075C166D108
:1040C00030F06BD120F031F49F3F11F41EF45BC14E
:1040D0000EF4E095E7FB51C1E92F77D180F3BA17D1
:1040E000620773078407950718F071F49EF58FC176
:1040F0000EF4E0950B2EBA2FA02D0B01B901900103
:104100000C01CA01A0011124FF27591B99F0593F46
:1041100050F4503E68F11A16F040A22F232F342F8E
:104120004427585FF3CF469537952795A795F040DC
:104130005395C9F77EF41F16BA0B620B730B840BF1
:10414000BAF09150A1F0FF0FBB1F661F771F881FA9
:10415000C2F70EC0BA0F621F731F841F48F4879501
:1041600077956795B795F7959E3F08F0B3CF9395F0
:10417000880F08F09927EE0F979587950895D9D065
:1041800008F481E008950CD00FC107D140F0FED0B3
:1041900030F021F45F3F19F0F0C0511139C1F3C084
:1041A00014D198F39923C9F35523B1F3951B550BFB
:1041B000BB27AA2762177307840738F09F5F5F4FFA
:1041C000220F331F441FAA1FA9F333D00E2E3AF03B
:1041D000E0E830D091505040E695001CCAF729D055
:1041E000FE2F27D0660F771F881FBB1F26173707A4
:1041F0004807AB07B0E809F0BB0B802DBF01FF27D4
:1042000093585F4F2AF09E3F510568F0B6C000C139
:104210005F3FECF3983EDCF3869577956795B7950D
:10422000F7959F5FC9F7880F911D9695879597F928
:104230000895E1E0660F771F881FBB1F62177307A1
:104240008407BA0720F0621B730B840BBA0BEE1FB6
:1042500088F7E095089504D06894B111D9C0089505
:10426000BCD088F09F5790F0B92F9927B751A0F094
:10427000D1F0660F771F881F991F1AF0BA95C9F7FA
:1042800012C0B13081F0C3D0B1E00895C0C0672F33
:10429000782F8827B85F39F0B93FCCF386957795AA
:1042A0006795B395D9F73EF4909580957095619593
:1042B0007F4F8F4F9F4F0895E89409C097FB3EF4BE
:1042C00090958095709561957F4F8F4F9F4F992363
:1042D000A9F0F92F96E9BB279395F69587957795E1
:1042E0006795B795F111F8CFFAF4BB0F11F460FFA1
:1042F0001BC06F5F7F4F8F4F9F4F16C0882311F0F9
:1043000096E911C0772321F09EE8872F762F05C00C
:10431000662371F096E8862F70E060E02AF09A95A7
:10432000660F771F881FDAF7880F9695879597F99C
:104330000895990F0008550FAA0BE0E8FEEF161636
:104340001706E807F907C0F012161306E407F50789
:1043500098F0621B730B840B950B39F40A2661F0FD
:10436000232B242B252B21F408950A2609F4A140A0
:10437000A6958FEF811D811D089597F99F6780E8AD
:1043800070E060E008959FEF80EC089500240A94A7
:104390001616170618060906089500240A94121620
:1043A0001306140605060895092E0394000C11F453
:1043B000882352F0BB0F40F4BF2B11F460FF04C000
:1043C0006F5F7F4F8F4F9F4F089557FD9058440F59
:1043D000551F59F05F3F71F04795880F97FB991F64
:1043E00061F09F3F79F08795089512161306140621
:1043F000551FF2CF4695F1DF08C0161617061806AE
:10440000991FF1CF86957105610508940895E89488
:10441000BB2766277727CB0197F908958ADF08F431
:104420008FEF0895DADFA8F19E57A8F1985160F058
:1044300039F1983070F5092E9927660F771F881F7C
:10444000991F0A94D1F71CC0BB27993F4CF4B111B6
:10445000B1E0B62B672F782F8827985FB1F708C097
:10446000869577956795B79508F4B1609395C1F7F0
:10447000BB0F30F411F460FF03C06F5F7F4F8F4FAD
:104480003EF490958095709561957F4F8F4F9F4F2B
:1044900008956894BDCFBBCF0BD086CF77DF28F0CF
:1044A0007CDF18F0952309F068CF6DCF1124B0CFD1
:1044B0008CDFA0F3959FD1F3950F50E0551F629FBD
:1044C000F001729FBB27F00DB11D639FAA27F00D6D
:1044D000B11DAA1F649F6627B00DA11D661F829F94
:1044E0002227B00DA11D621F739FB00DA11D621F79
:1044F000839FA00D611D221F749F3327A00D611D96
:10450000231F849F600D211D822F762F6A2F112477
:104510009F5750408AF0E1F088234AF0EE0FFF1FCA
:10452000BB1F661F771F881F91505040A9F79E3F01
:10453000510570F022CF6CCF5F3FECF3983EDCF377
:10454000869577956795B795F795E7959F5FC1F73E
:10455000FE2B880F911D9695879597F90895FA017E
:10456000EE0FFF1F30962105310599F16115710598
:1045700061F48038BFE39B0749F168949038810566
:1045800061F08038BFEF9B0741F0992342F5FF3F70
:10459000E1053105210511F1E8940894E795D90169
:1045A000AA2329F4AB2FBE2FF85FD0F310C0FF5F12
:1045B00070F4A695E0F7F73950F019F0FF3A38F4A7
:1045C0009F779F930CD00F9007FC905808953EF072
:1045D000DACE60E070E080E89FE308954FE79F77D0
:1045E0005F934F933F932F939ED02F913F914F9185
:1045F0005F9152DF05C019F40EF0BFCE08CFC3CED5
:10460000ECDEC8F39638C0F707F80F92E8942BE376
:104610003AEA48EB5FE74EDF0F920F920F924DB7E9
:104620005EB70F92C0D0E8ECF0E016D04F915F91EA
:10463000EF91FF91E595EE1FFF1F49F0FE57E068EF
:104640004427EE0F441FFA95E1F74195550B32D000
:104650000F9007FE26C00895DF93CF931F930F930B
:10466000FF92EF92DF927B018C01689405C0DA2EF5
:10467000EF011EDFFE01E894A5912591359145914A
:104680005591AEF3EF0128DDFE019701A801DA9400
:1046900079F7DF90EF90FF900F911F91CF91DF910D
:1046A00008959B01AC0160E070E080E89FE36BCD72
:1046B00064CEACC092DEE8F39923D9F3940F511D78
:1046C000BBF39150504094F059F0882332F0660FBC
:1046D000771F881F91505040C1F79E3F510544F706
:1046E000880F911D9695879597F908955F3FACF0D7
:1046F000983E9CF0BB27869577956795B79508F40B
:10470000B1609395C1F7BB0F58F711F460FFE8CF84
:104710006F5F7F4F8F4F9F4FE3CF7ACE0EF076C003
:1047200032CE68942ACE59DEC8F39923D1F3C6F36A
:10473000DF93CF931F930F93FF92C92FDD27882319
:104740002AF02197660F771F881FDAF720E030E004
:1047500040E85FEB9FE3883920F0803E30F02196FF
:104760008F77A9DCE0EFF0E003C0A5DCEDE1F1E03C
:1047700073DF8B01BE01EC01FB2E6F57710975953C
:10478000771F880B990B9ADD28E132E741E35FE35D
:104790008FDEAF2D9801AE01FF900F911F91CF9149
:1047A000DF919ADC01CEFA01DC01AA0FBB1F9B014D
:1047B000AC01BF5728F422273327442750781FC065
:1047C000B75188F4AB2F0024469537952795011CE7
:1047D000A395D2F3002069F0220F331F441FB39535
:1047E000DAF30DD067CC61307105A0E88A07B946CD
:1047F00030F49B01AC0166277727882790783096A4
:1048000021F0208331834283538308959F3F31F009
:10481000915020F4879577956795B795880F911DEE
:104820009695879597F90895A1E1B0E0E9E1F4E262
:10483000B7C33C017F876E876A01FC01178216822D
:10484000838181FD03C06FEF7FEF52C39E012F5F15
:104850003F4F398B288BF3012381EE85FF8523FDA4
:10486000859123FF8191FF87EE87882309F43DC35B
:10487000853251F4EE85FF8523FD859123FF8191DB
:10488000FF87EE87853221F490E0B30120D6E3CF95
:10489000982F10E0882499241032B0F49B3269F0EC
:1048A0009C3228F4903251F0933271F40BC09D3257
:1048B00039F0903349F4116028C01260146025C0AB
:1048C000186023C0106121C017FD2AC0892F8053B2
:1048D0008A3078F416FF06C0FAE09F9E902C1124CF
:1048E000980E13C03AE0839E802C1124880E10622B
:1048F0000CC09E3221F416FDF8C2106406C09C362E
:1049000011F4106802C0983659F4EE85FF8523FD36
:10491000959123FF9191FF87EE87992309F0BCCFF2
:10492000892F8554833020F4812F8061905E07C0E9
:10493000892F8556833008F08FC1812F8F7E86FDA9
:1049400002C076E0972E6FE3F62EF822953619F422
:10495000F0E4FF2A07C0963619F420E8F22A02C0D4
:1049600091109A94F7FE0AC03BE3391518F45CE302
:10497000B52E02C0B92CB39427E009C047E0491511
:1049800020F4BB2447E0942EF7CF292DBB24C60189
:1049900004969D878C87F601608171818281938165
:1049A000AE014F5F5F4F0B2DA4D46C010981202E07
:1049B000332400FF04C003FD02C01DE209C0F1FE64
:1049C00002C01BE205C0F2FC02C010E001C010E210
:1049D000C1018C709070892BA1F1112311F483E037
:1049E00001C084E0881510F0882409C0881AF3FCFF
:1049F00006C080E290E0B3016AD58A94D1F7112312
:104A000021F0812F90E0B30162D523FE03C00FE5B2
:104A100015E00DC003E615E00AC0E114F10409F049
:104A2000805290E0B30153D50F5F1F4F05C0EF2CAC
:104A3000FF24F0E1EF22FF24F8018491882369F735
:104A400008C1F7FE12C0BC0C24FE04C08A81813369
:104A500009F4BA941B141CF0BB24B3942DC0F8E0E5
:104A6000FB1550F538E0B32E27C0F6FC25C0892D84
:104A700090E08C159D054CF02CEFC2162FEFD2065E
:104A800024F030E8F32A01C09A94992049F0E2E03A
:104A9000F0E0EC0FFD1FE90DF11D80818033A1F3E3
:104AA000F7FE0AC0B92CB394892D90E0C816D90638
:104AB00014F0992401C09C18F7FC03C025E030E0F5
:104AC00009C01C141D041CF021E030E003C0960155
:104AD0002F5F3F4F112311F02F5F3F4F992029F097
:104AE000892D90E00196280F391F882D90E0281716
:104AF000390714F0882401C0821A4F2C5524C201B2
:104B000089709070892B31F007C080E290E0B3018A
:104B1000DED48A948820C9F7112321F0812F90E0F8
:104B2000B301D5D443FE06C007C080E390E0B301D3
:104B3000CED48A948820C9F7F7FE44C08601D7FEF8
:104B400002C000E010E076010894E11CF11CE01ABC
:104B5000F10A41E050E04C0F5D1FE40EF51E260106
:104B60004B185108892D90E0AA24BB24A81AB90A31
:104B70005FEF0F3F150721F48EE290E0B301A7D459
:104B8000C016D10634F0401651061CF4F70180819E
:104B900001C080E3015010400894E11CF11C0A158B
:104BA0001B0524F090E0B30192D4E2CF0C151D0553
:104BB00039F49A81963318F4953311F424FE81E385
:104BC00090E045C08A81813309F00F7E90E0B30107
:104BD0007ED4992091F08EE290E0B30178D412E077
:104BE000E1E0F0E0EC0FFD1FE10FF11D1F5F8081A0
:104BF00090E0B3016CD49A9499F744FC03C085E625
:104C000090E002C085E490E0B30161D4D7FC05C018
:104C1000C114D10441F404FF06C0D094C194D1085A
:104C2000D3948DE201C08BE290E0B30150D480E3D5
:104C300005C08F5F26EF3FEFC20ED31E3AE0C316CA
:104C4000D104BCF790E0B30142D4C601C096B301D1
:104C50003ED4CC84DD8446C1933631F0933799F04D
:104C6000933509F055C022C0F601808189835E0129
:104C70000894A11CB11C22E030E0C20ED31E21E03A
:104C8000E22EF12C11C0F601A080B18016FD03C008
:104C90006FEF7FEF02C0692D70E022E030E0C20EBE
:104CA000D31EC50109D47C011F7712C0F601A08074
:104CB000B18016FD03C06FEF7FEF02C0692D70E079
:104CC00022E030E0C20ED31EC501EBD37C01106898
:104CD00013FF06C019C080E290E0B301F8D38A94B4
:104CE000882D90E0E816F906B0F30EC0F50117FD27
:104CF000859117FF81915F0190E0B301E8D38110A6
:104D00008A940894E108F108E114F10479F7EAC003
:104D1000943611F0993681F517FF08C0F60120810D
:104D200031814281538184E090E00AC0F6018081A4
:104D300091819C01442737FD4095542F82E090E0FB
:104D4000C80ED91E9FE6F92EF12257FF09C05095D3
:104D50004095309521953F4F4F4F5F4F90E8F92A8E
:104D6000CA01B901AE014F5F5F4F2AE030E022D4A3
:104D7000E82EE889EE1A40C0953721F41F7E2AE01C
:104D800030E01CC0197F9F3661F0903720F49835D1
:104D900009F0ABC00FC0903739F0983709F0A5C0C3
:104DA00004C028E030E00AC0106114FD146020E166
:104DB00030E004C014FD166020E132E017FF08C0A7
:104DC000F601608171818281938144E050E008C0E6
:104DD000F60180819181BC0180E090E042E050E0EA
:104DE000C40ED51EAE014F5F5F4FE4D3E82E588945
:104DF000E51A8FE7F82EF122F6FE0BC08EEFF822AF
:104E0000E91438F4F4FE07C0F2FC05C09FEEF92265
:104E100002C01E2D01C0192DF4FE0DC0FE01EE0DC5
:104E2000F11D8081803319F4E9EEFE2208C01F5F76
:104E3000F2FE05C003C08F2D867809F01F5F0F2D8D
:104E4000F3FC13C0F0FE0EC0181510F09E2C0AC023
:104E50009E2C980C911A182D05C080E290E0B301A9
:104E600036D31F5F1815C8F304C0181510F4811A43
:104E700001C0882404FF0EC080E390E0B30127D373
:104E800002FF1BC001FD03C088E790E00EC088E56B
:104E900090E00BC0802F867881F001FF02C08BE28A
:104EA00001C080E2F7FC8DE290E0B30110D305C0B1
:104EB00080E390E0B3010BD39A94E914C8F3EA9429
:104EC000E1E0F0E0EC0FFD1FEE0DF11D808190E0C0
:104ED000B301FDD2EE2099F705C080E290E0B30166
:104EE000F6D28A948820C9F7B6CCF301668177811F
:104EF000CB016196E2E170C0629FD001739FF00127
:104F0000829FE00DF11D649FE00DF11D929FF00D59
:104F1000839FF00D749FF00D659FF00D9927729F90
:104F2000B00DE11DF91F639FB00DE11DF91FBD011B
:104F3000CF011124089597FB092E07260AD077FD8B
:104F400004D065D006D000201AF4709561957F4F8B
:104F50000895F6F7909581959F4F0895A1E21A2E36
:104F6000AA1BBB1BFD010DC0AA1FBB1FEE1FFF1F0D
:104F7000A217B307E407F50720F0A21BB30BE40B5D
:104F8000F50B661F771F881F991F1A9469F76095A4
:104F90007095809590959B01AC01BD01CF0108955E
:104FA0002F923F924F925F926F927F928F929F9239
:104FB000AF92BF92CF92DF92EF92FF920F931F9327
:104FC000CF93DF93CDB7DEB7CA1BDB0B0FB6F894D8
:104FD000DEBF0FBECDBF09942A88398848885F8418
:104FE0006E847D848C849B84AA84B984C884DF8089
:104FF000EE80FD800C811B81AA81B981CE0FD11D6D
:105000000FB6F894DEBF0FBECDBFED010895AA1B09
:10501000BB1B51E107C0AA1FBB1FA617B70710F0A3
:10502000A61BB70B881F991F5A95A9F780959095D5
:10503000BC01CD010895CF93DF93BC01823091056F
:1050400010F462E070E0A0911705B0911805ED0131
:10505000E0E0F0E040E050E021C0888199818617CF
:10506000970769F48A819B81309719F09383828333
:1050700004C09093180580931705FE0134C068178B
:10508000790738F44115510519F08417950708F48C
:10509000AC01FE018A819B819C01E9012097E9F620
:1050A00041155105A9F1CA01861B970B049708F415
:1050B000BA01E0E0F0E02AC08D919C91119784172D
:1050C0009507F9F46417750781F412968D919C91F8
:1050D0001397309719F09383828304C09093180537
:1050E00080931705FD0132964FC0CA01861B970BAE
:1050F000FD01E80FF91F6193719302978D939C93C3
:1051000043C0FD01828193819C01D9011097A1F6D2
:105110008091150590911605892B41F480911F020D
:1051200090912002909316058093150540912102DD
:10513000509122024115510541F44DB75EB780915F
:105140001D0290911E02481B590B209115053091AC
:10515000160524173507B0F4CA01821B930B861776
:10516000970780F0AB014E5F5F4F8417950750F0B3
:10517000420F531F5093160540931505F901619393
:10518000719302C0E0E0F0E0CF01DF91CF9108958C
:10519000CF93DF93009709F450C0EC0122971B8254
:1051A0001A82A0911705B0911805109709F140E0F7
:1051B00050E0AC17BD0708F1BB83AA83FE01219123
:1051C0003191E20FF31FAE17BF0779F48D919C91D7
:1051D0001197280F391F2E5F3F4F3983288312966E
:1051E0008D919C9113979B838A834115510571F48E
:1051F000D0931805C093170520C012968D919C91ED
:105200001397AD01009711F0DC01D3CFFA01D383DE
:10521000C28321913191E20FF31FCE17DF0769F4AA
:1052200088819981280F391F2E5F3F4FFA01318302
:1052300020838A819B8193838283DF91CF9108951C
:10524000A0E0B0E0E5E2F9E2B3CEEC01A880B980DD
:10525000CA80DB80A114B104C104D10441F484E20A
:10526000A82E89EDB82E8BE5C82E87E0D82EC60172
:10527000B5012DE133EF41E050E0FAD127EA31E406
:1052800040E050E039DE7B018C01C601B5012DE123
:1052900033EF41E050E0ECD1CA01B9012CEE34EF1C
:1052A0004FEF5FEF29DE6E0D7F1D801F911F97FF6F
:1052B00004C06150704080409048688379838A833D
:1052C0009B839B013F77C901CDB7DEB7EAE08CCE67
:1052D000B7DF089583E292E0B3DF0895A0E0B0E085
:1052E0008093230290932402A0932502B093260278
:1052F0000895283008F027E03327DA01990F311D8F
:1053000087FD916000966105710539F432602E5F6A
:105310003D9330E32A95E1F708959F3F30F08038C0
:105320007105610509F03C5F3C5F3D93913008F0E9
:105330008068911DDF93CF931F930F93FF92EF929D
:10534000192F987F9695E92F96959695E90FFF2747
:10535000EF53FA4F99273327EE24FF24A701E701E3
:1053600005900894079428F4360FE71EF81E491F8D
:10537000511D660F771F881F991F0694A1F705908E
:10538000079428F4E70EF81E491F561FC11D770F1A
:10539000881F991F661F0694A1F70590079428F4AB
:1053A000F80E491F561FC71FD11D880F991F661F72
:1053B000771F0694A1F70590079420F4490F561F14
:1053C000C71FD81F990F661F771F881F0694A9F75C
:1053D00084911095177041F0D695C79557954795CC
:1053E000F794E7941A95C1F7E7E6F5E0689415900D
:1053F000159135916591959105907FE27395E1182E
:10540000F10A430B560BC90BD009C0F7E10CF11E92
:10541000431F561FC91FD01D7EF4703311F48A95A7
:10542000E6CFE894015030F0080F0AF40027021785
:1054300008F4202F2395022F7A3328F079E37D9307
:105440002A95E9F710C07D932A9589F606949795D9
:105450006795379517951794E118F10A430B560B8A
:10546000C90BD00998F023957E9173957A3308F093
:1054700070E37C932013B8F77E9170617D9330F0D8
:10548000839571E37D9370E32A95E1F71124EF9002
:10549000FF900F911F91CF91DF91992787FD9095F4
:1054A0000895FC010590615070400110D8F7809577
:1054B00090958E0F9F1F0895FC01615070400190E0
:1054C0000110D8F7809590958E0F9F1F08950F9328
:1054D0001F93CF93DF938C01EB018B8181FF1BC066
:1054E00082FF0DC02E813F818C819D812817390755
:1054F00064F4E881F9810193F983E88306C0E885C3
:10550000F985802F0995892B31F48E819F81019631
:105510009F838E8302C00FEF1FEFC801DF91CF91F1
:105520001F910F910895A0E0B0E0E8E9FAE248CDBC
:10553000FE0135966191719180911B0590911C053A
:10554000AF0172D92096E2E057CD0F931F93CF930E
:10555000DF938C01E0911B05F0911C05838181FF95
:1055600021C0C0E0D0E00DC0E0911B05F0911C050A
:1055700020853185BF01F9010995892B11F0CFEF05
:10558000DFEFF80181918F01882371F7E0911B050E
:10559000F0911C05208531858AE0BF01F90109954C
:1055A000892B11F0CFEFDFEFCE01DF91CF911F916B
:1055B0000F910895FA01AA27283051F1203181F185
:1055C000E8946F936E7F6E5F7F4F8F4F9F4FAF4F0B
:1055D000B1E03ED0B4E03CD0670F781F891F9A1F1E
:1055E000A11D680F791F8A1F911DA11D6A0F711DD2
:1055F000811D911DA11D20D009F468943F912AE0DE
:10560000269F11243019305D3193DEF6CF010895C5
:10561000462F4770405D4193B3E00FD0C9F7F6CFF6
:10562000462F4F70405D4A3318F0495D31FD4052BE
:10563000419302D0A9F7EACFB4E0A6959795879554
:1056400077956795BA95C9F7009761057105089533
:105650009B01AC010A2E06945795479537952795DF
:10566000BA95C9F7620F731F841F951FA01D089577
:1056700097FB092E05260ED057FD04D06FDC0AD00B
:10568000001C38F450954095309521953F4F4F4F71
:105690005F4F0895F6F790958095709561957F4FCF
:0A56A0008F4F9F4F0895F894FFCF3D
:1056AA005357313A20507573686564005357323A3C
:1056BA0020507573686564005357333A20507573E8
:1056CA00686564006D6F766541776179460A0A0AF2
:1056DA00006D6F766541776179530A0A0A006D6F2A
:1056EA00766557616E6465720A6D6F766552616E92
:1056FA00643A202533640A7475726E52616E64527C
:10570A003A202533640A7475726E52616E644C3A9B
:10571A00202533640A00626B49523A2025332E321F
:10572A00660A6D6F766557616C6C0A4572726F72A4
:10573A003A202533660A4566666F72743A20253325
:10574A00660A005220566F6C746167653A202533E9
:10575A002E32660A4C20566F6C746167653A2025B2
:10576A00332E32660A0A0A001F180C0410C0802061
:10577A00600101011008040000000200000000C2DC
:10578A0017000000001C05000069050000BC0500A8
:10579A00001306000070060000D20600003A070057
:1057AA0000A80700001C080000980800001A090059
:1057BA0000A50900000002040507090B0020001FCC
:0857CA000500000100000000D1
:00000001FF
