:100000000C9431030C944E030C944E030C944E0349
:100010000C94C1160C94EA160C9413170C943C170C
:100020000C944E030C94A2150C94CB150C94F4155F
:100030000C946F160C941D160C9446160C9498167E
:100040000C9427150C9450150C9479150C944E03B0
:100050000C944E030C944E030C944E030C944E03DC
:100060000C944E030C944E030C944E030C944E03CC
:100070000C944E030C944E030C944E03BD12C0120C
:10008000C312C612CF12C912CC12D212D512D81274
:10009000DB12DE12E112E412E712EA12ED12F012A4
:1000A000F312041307130A130D131613101313136B
:1000B00019131C131F132213251328132B132E138C
:1000C0003113341337133A1307634236B79BD8A75B
:1000D0001A39685618AEBAAB558C1D3CB7CC57636D
:1000E000BD6DEDFD753EF6177231BF000000803F1B
:1000F00008000000BE922449123EABAAAA2ABECD37
:10010000CCCC4C3E00000080BEABAAAAAA3E0000A8
:100110000000BF000000803F0000000000084178A0
:10012000D3BB4387D1133D190E3CC3BD4282AD2BD7
:100130003E68EC8276BED98FE1A93E4C80EFFFBECF
:1001400001C4FF7F3F000000000016050100000011
:1001500000000000FA000000E000E00028FE28FE99
:10016000282454FE5448C4C81026466C92AA44A0C1
:1001700000A0C000000038448200008244380028FB
:10018000107C102810107C1010000A0C00001010B9
:10019000101010000606000004081020407C8A920F
:1001A000A27C0042FE020042868A92628482A2D22F
:1001B0008C182848FE08E4A2A2A29C3C5292920C01
:1001C000808E90A0C06C9292926C60929294780013
:1001D0006C6C0000006A6C00001028448200282823
:1001E000282828008244281040808A90604C929EE3
:1001F000827C7E8888887EFE9292926C7C8282824B
:1002000044FE82824438FE92929282FE90909080C8
:100210007C8292925EFE101010FE0082FE8200042C
:100220000282FC80FE10284482FE02020202FE408E
:100230003040FEFE201008FE7C8282827CFE909080
:1002400090607C828A847AFE909894626292929204
:100250008C8080FE8080FC020202FCF8040204F81C
:10026000FC021C02FCC6281028C6E0100E10E08616
:100270008A92A2C200FE82820040201008040082FE
:1002800082FE0020408040200202020202008040E4
:100290002000042A2A2A1EFE1222221C1C222222AC
:1002A000041C222212FE1C2A2A2A18107E9080404A
:1002B000304A4A4A7CFE1020201E0022BE02000462
:1002C0000222BC00FE081422000082FE02003E2032
:1002D00018201E3E1020201E1C2222221C3E2828F0
:1002E0002810102828183E3E10202010122A2A2AF2
:1002F0000420FC2202043C0202043E3804020438BA
:100300003C020C023C2214081422300A0A0A3C2245
:10031000262A322200106C82000000FE00000082BB
:100320006C1000081010081000000000007F818190
:10033000817F7F8383837F7F8787877F7F8F8F8F77
:100340007F7F9F9F9F7F7FBFBFBF7F7FFFFFFF7F1D
:100350002040FF4020621517156500FBFB000000E0
:1003600000000000C0FF0300E0FF0700F0FF0F00E7
:10037000F8FF1F0078001E0078001E0078001E00A5
:1003800078001E0078001E0078001E0078001E0015
:1003900078001E0078001E00000000000000000031
:1003A00080FF0300E0FF0700F0FF0F00F8FF1F00D1
:1003B000F83C1F00783C1E00783C1E00783C1E0074
:1003C000783C1E00783C1E00783C1E00783C1E00E5
:1003D000783C1E00783C1E00783C1E0000000000A7
:1003E00000000000E0FF0300F0FF0700F8FF0F002F
:1003F000F8FF1F00783C1E00783C1E00783C1E0071
:10040000783C1E00783C1E00783C1E00783C1E00A4
:10041000783C1E00783C1E00783C1E000000000066
:1004200000000000F8FF0300F8FF0F00F8FF1F00B6
:10043000F8FF1F0000001E0000001E0000801F00CB
:1004400000F01F0000FF0F00E0FF0700F0FF0000BA
:10045000F80F0000F80000007800000078000000AD
:10046000F8FF1F00F8FF1F00F0FF1F00E0FF1F0054
:100470000000000000000000F8FF1F00F8FF1F0050
:10048000F8FF1F00F8FF1F0078001E00783C1E00D8
:10049000783C1E00783C1E00783C1E00783C1E0014
:1004A000783C1E00F87E1F00F8FF1F00F0FF0F00D1
:1004B000E0E703000000000000003800EEFF6C00E1
:1004C0002A8045003A0047FC03FF6CFC83FF39009B
:1004D000DEFF0B7CD0810BFCD0810BC0D0810BFCEC
:1004E000D0810B7CDEFF0B0082FF397002FF6CF8BD
:1004F0003A0047DC2A8045CCEEFF6CCC0000380087
:100500000000000C00001E0C00001E0000001E0079
:1005100000001E0000001E00F8FF1F00F8FF1F0073
:10052000F8FF1F00F8FF1F0000001E0000001E0063
:1005300000001E0000001E0000005E0000004000E1
:1005400000007C00000040000000400000007C0033
:1005500000003000000010000000300000007C6E41
:10056000616E00696E660000407A10F35A00A07256
:100570004E18090010A5D4E80000E87648170000DE
:10058000E40B54020000CA9A3B000000E1F50500AC
:100590000080969800000040420F000000A08601F5
:1005A000000000102700000000E8030000000064C5
:1005B00000000000000A0000000000010000000030
:1005C000002C76D888DC674F0823DFC1DFAE59E105
:1005D000B1B796E5E3E453C63AE651997696E8E674
:1005E000C28426EB898C9B62ED407C6FFCEFBC9C47
:1005F0009F40F2BAA56FA5F490055A2AF75C936B59
:100600006CF9676DC11BFCE0E40D47FEF520E6B513
:1006100000D0ED902E0300943577050080841E08ED
:100620000000204E0A000000C80C333333330F980B
:100630006E12831141EF8D2114893BE65516CFFED2
:10064000E6DB18D1844B381BF77C1D901DA4BBE45E
:1006500024203284725E228100C9F124ECA1E53DA0
:10066000270011241FBECFEFD8E0DEBFCDBF12E0C0
:10067000A0E0B1E0E4E4F6E502C005900D92A230FE
:10068000B107D9F714E0A2E0B2E001C01D92A93F82
:10069000B107E1F70E94670D0C94202B0C94000029
:1006A0001F93CF93DF93EC0188E660E00E948B14E8
:1006B000182F8823A1F481E00E946514182F882345
:1006C00071F488E661E00E948B14182F882339F4B6
:1006D000CE0160E00E943914182F811118820E9407
:1006E000D114812FDF91CF911F9108951F93CF9344
:1006F000DF93EC0188E660E00E948B14182F8823BA
:10070000A1F489E00E946514182F882371F488E60B
:1007100061E00E948B14182F882339F4CE0160E029
:100720000E943914182F811118820E94D114812F30
:10073000DF91CF911F9108951F93CF93DF93EC0129
:1007400088E660E00E948B14182F8823A1F488E0CB
:100750000E946514182F882371F488E661E00E94D6
:100760008B14182F882339F4CE0160E00E943914CD
:10077000182F811118820E94D114812FDF91CF91FF
:100780001F9108951F93CF93DF93EC0188E660E0FB
:100790000E948B14182F8823A1F487E00E9465140F
:1007A000182F882371F488E661E00E948B14182FBB
:1007B000882339F4CE0160E00E943914182F81118A
:1007C00018820E94D114812FDF91CF911F9108953B
:1007D0001F93CF93DF93EC0188E660E00E948B14B7
:1007E000182F8823A1F486E00E946514182F88230F
:1007F00071F488E661E00E948B14182F882339F485
:10080000CE0160E00E943914182F811118820E94D5
:10081000D114812FDF91CF911F9108951F93CF9312
:10082000DF93EC0188E660E00E948B14182F882388
:10083000A1F485E00E946514182F882371F488E6DE
:1008400061E00E948B14182F882339F4CE0160E0F8
:100850000E943914182F811118820E94D114812FFF
:10086000DF91CF911F9108951F93CF93DF93EC01F8
:1008700088E660E00E948B14182F8823A1F484E09E
:100880000E946514182F882371F488E661E00E94A5
:100890008B14182F882339F4CE0160E00E9439149C
:1008A000182F811118820E94D114812FDF91CF91CE
:1008B0001F9108951F93CF93DF93EC0188E660E0CA
:1008C0000E948B14182F8823A1F483E00E946514E2
:1008D000182F882371F488E661E00E948B14182F8A
:1008E000882339F4CE0160E00E943914182F811159
:1008F00018820E94D114812FDF91CF911F9108950A
:100900001F93CF93DF93EC0188E660E00E948B1485
:10091000182F8823A1F482E00E946514182F8823E1
:1009200071F488E661E00E948B14182F882339F453
:10093000CE0160E00E943914182F811118820E94A4
:10094000D114812FDF91CF911F9108951F93CF93E1
:10095000DF93EC0188E660E00E948B14182F882357
:10096000A1F480E00E946514182F882371F488E6B2
:1009700061E00E948B14182F882339F4CE0160E0C7
:100980000E943914182F811118820E94D114812FCE
:10099000DF91CF911F91089581E00E945C0D85E069
:1009A0000E94250D0E94080DA0E0B0E0BC01CD0121
:1009B0000E94292120E030E040EA50E40E942820F3
:1009C0009B01AC0160E070E286E395E40E94902018
:1009D00020E030E040E85FE30E942720089581E0B6
:1009E0000E945C0D87E00E94250D0E94080DA0E08A
:1009F000B0E0BC01CD010E94292120E030E040EAB6
:100A000050E40E9428209B01AC0160E070E286E384
:100A100095E40E94902020E030E040E85FE30E94EF
:100A20002720089581E00E945C0D83E00E94250D3F
:100A30000E94080DA0E0B0E0BC01CD010E94292178
:100A400020E030E040EA50E40E9428209B01AC0105
:100A500060E070E286E395E40E94902020E030E0C0
:100A600040E85FE30E942720089581E00E945C0D2A
:100A700084E00E94250D0E94080DA0E0B0E0BC01BA
:100A8000CD010E94292120E030E040EA50E40E949C
:100A900028209B01AC0160E070E286E395E40E94AF
:100AA000902020E030E040E85FE30E942720089596
:100AB00081E00E945C0D85E00E94250D0E94080DDA
:100AC000A0E0B0E0BC01CD010E94292120E030E08F
:100AD00040EA5BE30E941922089581E00E945C0DC8
:100AE00086E00E94250D0E94080DA0E0B0E0BC0148
:100AF000CD010E94292120E030E040EA5BE30E9422
:100B000019220895FF920F931F93CF93DF930E94B2
:100B1000700D81E08093960280E00E943D13182FB3
:100B200081E00E943D13082F82E00E943D13F82EC1
:100B3000113019F0C0E0D0E017C080E091E00E94D1
:100B4000722A88EE93E00E94DA1380E20E947F0E00
:100B500080ED97E00E94DA1380E40E946A0E80E242
:100B60000E946A0EC1E0D0E00130B9F48CE091E05F
:100B70000E94722A88EE93E00E94DA1380E40E94B9
:100B80007F0E80ED97E00E94DA1380E40E946A0EE7
:100B900080E20E946A0EC2E0D0E081E0F816D1F453
:100BA00088E191E00E94722A88EE93E00E94DA13B5
:100BB00080E40E947F0E80E20E947F0E80ED97E02D
:100BC0000E94DA1380E40E946A0E80E20E946A0E9C
:100BD000C3E0D0E00E94700DCE01DF91CF911F9154
:100BE0000F91FF9008952F923F924F925F926F92D4
:100BF0007F928F929F92AF92BF92CF92DF92EF92AD
:100C0000FF920F931F93DF93CF93CDB7DEB7649717
:100C10000FB6F894DEBF0FBECDBF882339F587E04D
:100C200093E09C8B8B8BAFE6B4E0BE83AD83E7EFA4
:100C3000F3E0FC83EB838FE793E09A8389830F2EA5
:100C4000F0E02F2EF0E03F2EF0E04F2EF0E05F2E90
:100C5000F02D2F86388A498A5A8A2B863C864D8603
:100C60005E862F82388649865A8643C0A0900A0243
:100C7000B0900B02C0900C02D0900D02E0900E02DA
:100C8000F0900F02009110021091110220901202B8
:100C900030901302409014025090150220911602D9
:100CA00030911702409118025091190280E090E0B3
:100CB000FC01E956FD4FA082B182C282D382FC01C1
:100CC000E150FC4FE082F18202831383FC01E9577B
:100CD000FC4F2082318242825382FC01E15FFC4F53
:100CE000208331834283538304968837910501F72B
:100CF00096CFAB89BC892D913D914D915C91139715
:100D0000FD012483358346835783AD81BE81ED90F9
:100D1000FD900D911C911397FD01E482F5820683ED
:100D20001783AB81BC81AD90BD90CD90DC901397C3
:100D3000FD01A482B582C682D782A981BA816D9055
:100D40007D908D909C901397FD01648275828682C0
:100D50009782C201B1010E9428201B012C016F85DE
:100D6000788989899A89A80197010E9428206F872C
:100D7000788B898B9A8B6B857C858D859E85A6016A
:100D800095010E9428206B877C878D879E876F81C5
:100D9000788589859A85A40193010E9428206F8314
:100DA000788789879A878B899C8904979C8B8B8B02
:100DB000AD81BE811497BE83AD83EB81FC813497F6
:100DC000FC83EB8389819A8104979A838983AB8919
:100DD000BC89AF58B24009F08CCF80910A02909143
:100DE0000B02A0910C02B0910D02EB89FC89808767
:100DF0009187A287B38780910E0290910F02A091F4
:100E00001002B09111028093FF0390930004A0930D
:100E10000104B09302048091120290911302A091F8
:100E20001402B09115028093870390938803A093D6
:100E30008903B0938A038091160290911702A091C2
:100E40001802B091190280930F0390931003A0939E
:100E50001103B0931203C201B10120E030E040EF72
:100E600051E40E94902060930A0270930B028093D9
:100E70000C0290930D026F85788989899A8920E008
:100E800030E040EF51E40E94902060930E02709396
:100E90000F0280931002909311026B857C858D85E3
:100EA0009E8520E030E040EF51E40E949020609366
:100EB00012027093130280931402909315026F81B3
:100EC000788589859A8520E030E040EF51E40E94E2
:100ED00090206093160270931702809318029093EB
:100EE000190264960FB6F894DEBF0FBECDBFCF9146
:100EF000DF911F910F91FF90EF90DF90CF90BF9007
:100F0000AF909F908F907F906F905F904F903F90A9
:100F10002F9008956F927F928F929F92AF92BF927F
:100F2000CF92DF92EF92FF920F931F933B014C0100
:100F3000442361F080E090E0A0E0B0E08093020202
:100F400090930302A0930402B0930502C401B3017D
:100F50002091020230910302409104025091050257
:100F60000E9428205B016C016093020270930302CF
:100F70008093040290930502C401B301A40193017C
:100F80000E9428207B018C01C401B301209106023C
:100F90003091070240910802509109020E942720D7
:100FA00020E030E040EA50E40E9419229B01AC01AD
:100FB000C801B7010E9428207B018C01C601B50140
:100FC0002FE632E143E85AE30E9419229B01AC016B
:100FD000C801B7010E9428201F910F91FF90EF9048
:100FE000DF90CF90BF90AF909F908F907F906F9049
:100FF00008952F926F927F928F929F92AF92BF929D
:10100000CF92DF92EF92FF920F931F93DF93CF93D4
:1010100000D000D0CDB7DEB769837A838B839C8301
:10102000609012027090130280901402909015024A
:101030006091160270911702809118029091190226
:101040000E948C20282E221C2224221C220C60911B
:101050000A0270910B0280910C0290910D02A8017E
:1010600097010E948C20082F001F0027001F000FEF
:10107000000F60910E0270910F028091100290910A
:101080001102A60195010E948C20182F111F112713
:10109000111F110F110F110FFF24C401B30129817A
:1010A0003A814B815C810E948C20882314F4FF24B8
:1010B000F3942F0C200E822D810F0F900F900F9024
:1010C0000F90CF91DF911F910F91FF90EF90DF90E4
:1010D000CF90BF90AF909F908F907F906F902F9008
:1010E000089508950E94EF04609312027093130212
:1010F00080931402909315020E94CC046093160210
:101100007093170280931802909319020E9435057C
:1011100060930A0270930B0280930C0290930D026D
:101120000E94120560930E0270930F0280931002CA
:101130009093110208952F923F924F925F926F9277
:101140007F928F929F92AF92BF92CF92DF92EF9257
:10115000FF920F931F93DF93CF9300D000D0CDB7B2
:10116000DEB760901202709013028090140290908B
:101170001502A0901602B0901702C0901802D090ED
:101180001902E0900E02F0900F02009110021091EF
:10119000110220900A0230900B0240900C025090F5
:1011A0000D02C801B701A20191010E9427206983A5
:1011B0007A838B839C83C401B30120E030E040E854
:1011C0005FE30E948C2087FD0BC0C601B50120E0C3
:1011D00030E040E85FE30E948C2088230CF076C06A
:1011E000C401B301A60195010E9427207B018C0157
:1011F000DD2420E030E040E050E00E948C20181612
:1012000014F0DD24D3947D2C7094C801B7010E94A2
:10121000F8209B0177FF03C0309521953F4FB9011E
:10122000882777FD8095982F0E942B216B017C01E8
:101230008DB79EB709970FB6F8949EBF0FBE8DBFAE
:101240000DB71EB70F5F1F4FC701B60129813A8145
:101250004B815C810E9428200E94FD204B015C0193
:1012600082E390E0F80191838083C701B601298170
:101270003A814B815C810E9427200E94FD20F80169
:101280007383628382EC91E0958384831682108657
:10129000178281E062E0472D22E330E0840152ECC6
:1012A000E52E51E0F52ECC24AA24BB24872C0E94E5
:1012B00051108DB79EB709960FB6F8949EBF0FBE1A
:1012C0008DBF0E94700D84E291E078C0C801B70123
:1012D00020E030E040E85FE30E948C2087FD0CC0F6
:1012E000C201B10120E030E040E85FE30E948C20C1
:1012F00087FD02C080E065C069817A818B819C8115
:101300000E94F8208B0177FF03C0109501951F4FB5
:10131000EDB7FEB739970FB6F894FEBF0FBEEDBF1D
:10132000ADB6BEB60894A11CB11CFF2469817A81B8
:101330008B819C8120E030E040E050E00E94DB2186
:10134000181614F4FF24F394F094DD2469817A8153
:101350008B819C8120E030E040E050E00E948C20B6
:10136000181614F0DD24D394D09488EC90E0F501A5
:10137000918380831383028382EC91E0958384833D
:1013800016821086178281E062E04F2D28EC30E053
:1013900092ECE92E91E0F92ECC24AA24BB248D2CCA
:1013A0000E9451108DB79EB709960FB6F8949EBF54
:1013B0000FBE8DBF0E94700D81E391E00E94722AE2
:1013C00081E00F900F900F900F90CF91DF911F91C0
:1013D0000F91FF90EF90DF90CF90BF90AF909F90D4
:1013E0008F907F906F905F904F903F902F900895D7
:1013F0002F923F924F925F926F927F928F92AF9215
:10140000BF92CF92DF92EF92FF920F931F93DF93E1
:10141000CF9300D000D0CDB7DEB70E949B08C82E76
:10142000882309F015C1EE24FF2460910A0270910F
:101430000B0280910C0290910D0220E030E040EA16
:1014400051E40E948C2088231CF4F1E0EF2EF12C53
:1014500000E010E060910E0270910F028091100286
:101460009091110220E030E040EA51E40E948C208B
:10147000882314F401E010E00E291F29FF24609155
:10148000120270911302809114029091150220E0D3
:1014900030E040EA51E40E948C20882314F4FF24B9
:1014A000F394EE2460911602709117028091180255
:1014B0009091190220E030E048EC51E40E948C2029
:1014C000882314F4EE24E394FE288F2D90E0082B5B
:1014D000192B012B09F0BCC080E090E0A0E0B0E047
:1014E0008093020290930302A0930402B09305023A
:1014F0000E94890F672B11F4892B19F0CC24C39417
:10150000A7C00E94372960E971E00E946827E0E9DE
:101510002E2EE1E03E2E280E391E0E94372968EC5F
:1015200070E00E94682788539F4FAA2797FDA095D7
:10153000BA2FBC01CD010E942B2169837A838B8352
:101540009C830E94372968EC70E00E9468278853CA
:101550009F4FAA2797FDA095BA2FBC01CD010E94ED
:101560002B212B013C010E94372920E06AE070E02A
:101570000E94682708970CF021E0822E80948DB796
:101580009EB709970FB6F8949EBF0FBE8DBF0DB7DB
:101590001EB70F5F1F4FC301B2010E94FD206B01F8
:1015A0007C01D8012C9211963C9269817A818B81C1
:1015B0009C810E94FD20F8017383628382EC91E09C
:1015C0009583848316821086178281E062E0482D1D
:1015D0009101860172ECE72E71E0F72ECC24AA244B
:1015E000BB240E9451108DB79EB709960FB6F89490
:1015F0009EBF0FBE8DBF0E94700DADB7BEB71C97CA
:101600000FB6F894BEBF0FBEADBFEDB7FEB73196B3
:101610008EE391E012969C938E93119733822282EF
:1016200089819A81AB81BC8184839583A683B783AA
:1016300040865186628673860E94602ACC24C394B9
:10164000ADB7BEB71C960FB6F894BEBF0FBEADBF08
:101650008C2D0F900F900F900F90CF91DF911F91D5
:101660000F91FF90EF90DF90CF90BF90AF908F9051
:101670007F906F905F904F903F902F9008952F92A2
:101680003F924F925F926F927F928F929F92AF9212
:10169000BF92CF92DF92EF92FF920F931F93DF934F
:1016A000CF9300D000D00F92CDB7DEB70E94F809DB
:1016B000882309F05DC160910E0270910F02809144
:1016C00010029091110220E030E040EA51E40E94C3
:1016D000DB21181664F480E090E0A0EAB0E4809387
:1016E0000E0290930F02A0931002B093110260912A
:1016F0000A0270910B0280910C0290910D0220E081
:1017000030E040EA51E40E94DB21181614F0CC24AA
:101710000EC080E090E0A0EAB0E480930A029093CB
:101720000B02A0930C02B0930D02CC24C394E09062
:101730001602F09017020091180210911902C801C8
:10174000B70120E030E048EC51E40E948C2088236F
:1017500084F5CC2089F0C801B701A80197010E9447
:10176000192220910A0230910B0240910C025091F3
:101770000D020E94282012C0C801B701A8019701DC
:101780000E9419229B01AC0160910A0270910B0228
:1017900080910C0290910D020E9427209B01AC01C8
:1017A00060910E0270910F028091100290911102CF
:1017B00010C060910E0270910F0280911002909102
:1017C000110220910A0230910B0240910C025091BB
:1017D0000D020E9427206D83972E1C012D81372F2B
:1017E000B90140E00E948A072B013C010E94F820C9
:1017F0008B0177FF03C0109501951F4F053611052A
:10180000FCF0C301B20120E030E040E050E00E9473
:101810008C208823A9F0B801882777FD8095982F20
:101820000E942B219B01AC01C301B2010E949020B8
:1018300020E030E048EC52E40E9419222B013C01E8
:10184000C301B20120E030E048EC52E40E94902055
:101850006B017C018DB79EB709970FB6F8949EBFB8
:101860000FBE8DBF0DB71EB70F5F1F4FC701B6016B
:1018700020E030E048EC52E40E94192220E030E001
:1018800048EC52E40E9428200E94FD2069837A835C
:101890008B839C8382E390E0D8018D939C93C70156
:1018A000B60120E030E048EC52EC0E94192220E022
:1018B00030E048EC52E40E9428200E94FD20F8010C
:1018C0007383628382EC91E0958384831682108611
:1018D000178281E062E041E022E330E009811A8171
:1018E000A2ECEA2EA1E0FA2ECC24AA24BB24882460
:1018F00083940E9451108DB79EB709960FB6F89445
:101900009EBF0FBE8DBF0E94700DADB7BEB71E97B4
:101910000FB6F894BEBF0FBEADBFEDB7FEB73196A0
:1019200086E791E012969C938E9311978091160210
:1019300090911702A0911802B091190282839383AB
:10194000A483B5832D81392DC901D1018683978365
:10195000A087B18742865386648675860E94602A76
:10196000EDB7FEB73E960FB6F894FEBF0FBEEDBFC3
:101970000F900F900F900F900F90CF91DF911F91CC
:101980000F91FF90EF90DF90CF90BF90AF909F901E
:101990008F907F906F905F904F903F902F90089521
:1019A0000E948B1390939602809395020E94760E6C
:1019B00090939402809393020E948D0D90939202D3
:1019C000809391020E94F81081E00E947C0F0E9497
:1019D000760E0E94E5140E94FA0C81E00E945C0DD4
:1019E0000E94720881E00E94F3050E9472080E9422
:1019F0003F0BFBCF8FE00E94AE12882331F40E9490
:101A00000C158FE061E00E94F6128FE091E00895DE
:101A10008FE00E94AE12813019F020E030E013C058
:101A200080917A00806480937A0080917A0086FDAC
:101A3000FCCF3091780020917900922F80E0232F05
:101A400030E0282B392BC9010895582F8091A3012C
:101A50008830D8F440917E0021E030E0B90102C026
:101A6000660F771F8A95E2F7CB01809584238093D8
:101A70007E0080917E00052E02C0220F331F0A9443
:101A8000E2F7822B80937E000DC020917E0081E0E2
:101A900090E0052E02C0880F991F0A94E2F7282BC8
:101AA00020937E005093A30180917C005F71807E23
:101AB000852B80937C000895ECE7F0E0908182957F
:101AC000880F880F807C9F73982B908308950E94C5
:101AD00025150E9417150E94D00C80E090E0089513
:101AE0000F931F9380E460E00E944F0E00E0802F70
:101AF00060E00E94360E10E080E061E00E944F0E30
:101B00001F5F1038C9F70F5F043089F783E060E08A
:101B10000E942F0E1F910F9108950F931F9382E043
:101B20000E94AE12882311F482E006C081E00E9478
:101B3000AE12882319F481E090E06DC00E948D17E9
:101B400085E061E00E94F6128EEA60E00E944F0E8E
:101B500082EA60E00E944F0E80EA60E00E944F0E31
:101B600000E513ECC8010197F1F780EC60E00E94FA
:101B70004F0E8FE260E00E944F0E81E860E00E940D
:101B80004F0E86E160E00E944F0E82E260E00E940C
:101B90004F0EC8010197F1F78FEA60E00E944F0EE7
:101BA00086EA60E00E944F0E85EA60E00E944F0ED8
:101BB00080E090E028E833E1F9013197F1F70196F0
:101BC00043E0883E9407C1F783EB60E00E944F0E2C
:101BD00080E460E00E944F0E83E060E00E94360ED9
:101BE00083E060E00E942F0E1092C5041092C7049B
:101BF0001092C60482EB91E09093F6048093F50472
:101C000088E10E940E0E0E94700D84EA60E00E943E
:101C10004F0E85E091E01F910F9108951F93182FAB
:101C200085E00E94AE128130C1F487E00E948B0EE5
:101C300082E06AE00E94DC0E82E061EB0E94DC0E32
:101C4000612F113208F060E282E00E94DC0E89EE22
:101C50008A95F1F787E00E948B0E1F91089583709B
:101C60006F776093C3048093C40408950F931F9308
:101C7000062F162F1F778370806B60E00E944F0E37
:101C800012951F70812F806160E00E944F0E802F9F
:101C90008F7060E00E944F0E1F910F9108950F9377
:101CA0001F93082F162F85E00E94AE12813079F421
:101CB000112319F0113021F402C02B9801C02B9A86
:101CC00086E08A95F1F780E0602F0E94DC0E1F917C
:101CD0000F9108951F93182F86E00E94AE12813055
:101CE00019F4812F0E943C181F9108950E944118F9
:101CF00086E061E00E94F61286E091E008951F936D
:101D0000182F86E00E94AE12813019F4812F0E94B4
:101D100044181F9108951F93182F82E00E94AE125D
:101D2000813009F047C0912F97708091C8049817AF
:101D300009F440C09093C80485B1887F892B85B988
:101D4000933011F1943028F4913051F0923090F4A6
:101D50000CC0953019F19530E0F0963021F50FC0A8
:101D6000E0916C02F0916D0222C0E0916A02F09164
:101D70006B021DC0E0916E02F0916F0218C0E091FD
:101D80007602F091770213C0E0917002F091710237
:101D90000EC0E0917202F091730209C0E0917402EA
:101DA000F091750204C0E0917802F09179023097C9
:101DB00009F009951F9108951F93162F0E948B0E0D
:101DC00082E00E94AE12813021F41EBD0DB407FEE8
:101DD000FDCF1F9108950F931F93CF93DF9380E260
:101DE00091E00E94E8279C019093890280938802E9
:101DF000892B11F480E039C08901C0E0D0E0BE0138
:101E000080E090E00E94292120E030E040EA51E4A7
:101E10000E94902027EF35E740E05FE30E941922FF
:101E20009B01AC0160E070E080E291E40E947C22C2
:101E30009B01AC01CA01B9012DEC3CEC42E851E434
:101E40000E9419220E94DF212AE030E040E050E0A9
:101E50000E944927F80161937193819391938F01B7
:101E60002196C834D10559F681E0DF91CF911F91B9
:101E70000F9108958AE00E94AE12882371F41092A7
:101E800085021092840281E00E946D1981E08093A6
:101E90007B028AE061E00E94F6128AE091E00895F8
:101EA0001F938BE00E94AE12882311F090E021C0B6
:101EB00089E00E94AE128823D9F40E94EB0E182FFD
:101EC0008130B1F410927C0210927D0210927E0259
:101ED00010927F028DE060EF78E10E94651782E04A
:101EE0000E946D1910937A0289E061E00E94F61257
:101EF00091E089E01F910895813029F0823031F01E
:101F000090E089E008950E943A0F08950E94500FD2
:101F100008958091890490918A0420918B043091D6
:101F20008C04BC01C90108952F923F924F925F9299
:101F30006F927F928F929F92AF92BF92CF92DF92D9
:101F4000EF92FF920F931F93DF93CF93CDB7DEB73E
:101F5000582E962E442E39013C2CC98CDA8C2B8CB1
:101F600081E0681739F1681728F092E0691709F0E5
:101F700085C049C080E061E00E949D1180E0B7010A
:101F80000E94661180E0642DA3019801032DEE24C8
:101F9000E394EEEACE2EE4E0DE2E0E94D41155202A
:101FA00009F06CC000D00F92EDB7FEB71182B3827A
:101FB000A28223C081E061E00E949D1181E0B60110
:101FC0000E94661181E0682D4D895E892F89388DC8
:101FD000022DEE24E3947EEAC72E74E0D72E0E94F1
:101FE000D411552009F04AC000D00F92EDB7FEB7CA
:101FF00091828C8D9D8D938382830E9460120F90BD
:102000000F900F903BC082E061E00E949D1180E044
:10201000B7010E94661181E0B6010E94661180E05E
:10202000642DA3019801032DEE24E3949EEAC92EAA
:1020300094E0D92E0E94D41181E0682D4D895E89EB
:102040002F89388D022D0E94D4115520B9F400D06B
:1020500000D00F92ADB7BEB71196EDB7FEB7918223
:10206000FD01B282A1828C8D9D8D948383830E9419
:1020700060120F900F900F900F900F90CF91DF9103
:102080001F910F91FF90EF90DF90CF90BF90AF9096
:102090009F908F907F906F905F904F903F902F9088
:1020A00008956F927F928F929F92AF92BF92CF923C
:1020B000DF92EF92FF920F931F93DF93CF93CDB7F1
:1020C000DEB7942E7C2DD50149895A89AB88BC880E
:1020D000CD88DE889F89813009F457C08130B8F1FE
:1020E000823009F076C0613091F0613020F06230CA
:1020F00009F06FC015C080E060E00E949D1180E093
:10210000B7010E94661180E0692DA8011DC081E021
:1021100060E00E949D1181E0B6010E94661111C02D
:1021200082E060E00E949D1180E0B7010E9466118C
:1021300081E0B6010E94661180E0692DA8010E942D
:102140004F1181E0682DA5010E944F1142C0EDB7EB
:10215000FEB739970FB6F894FEBF0FBEEDBF6DB650
:102160007EB60894611C711C52834183F301B382D3
:10217000A282D582C4829683888D998D9087878329
:1021800080E0492DC72E5D011AC0EDB7FEB7399723
:102190000FB6F894FEBF0FBEEDBFADB7BEB7119638
:1021A00052834183FD01B382A282D582C482968389
:1021B0001086178281E0492DC72EAA24BB240E94D5
:1021C000940F8DB79EB709960FB6F8949EBF0FBEB9
:1021D0008DBFCF91DF911F910F91FF90EF90DF9016
:1021E000CF90BF90AF909F908F907F906F90089509
:1021F0000E94FF1981E08093AD04E7E7F4E01192BB
:1022000011921182108232961182108232961182BE
:10221000108232961182108232961182108232968A
:1022200011821082329611821082329611821082AF
:102230003296118210823296118210823296118269
:10224000108232961182108236961192119211925A
:102250001082329611921192119211921192119252
:10226000119211821082329611821082329611825E
:1022700010823296118210827697118210823296E5
:10228000118210821092AC041092AB041092AD0433
:1022900087E061E00E94F61287E091E00895EF92F6
:1022A000FF920F931F93182F062F7A0160E00E9470
:1022B0009D11812F602F0E948811812FB7010E94EC
:1022C000B2111F910F91FF90EF900895482F81E078
:1022D0008093AD04CB0123E0693E720710F088EED5
:1022E00093E0413071F0413018F0423071F405C094
:1022F000909382048093810408C090938204809319
:10230000810490938404809383041092AD04089513
:10231000982F81E08093AD04913051F0913018F006
:10232000923041F403C060939A0404C060939A040D
:1023300060939B041092AD040895982F81E08093E0
:10234000AD04913051F0913018F0923041F403C057
:102350006093770404C060937704609378041092CC
:10236000AD040895482F81E08093AD04CB0121E0B6
:102370006139720710F080E991E0413071F041302D
:1023800018F0423071F405C090937A048093790478
:1023900008C090937A048093790490937C0480938E
:1023A0007B041092AD0408958F929F92AF92BF92DA
:1023B000CF92DF92EF92FF920F931F93CF93DF9311
:1023C000182FF62E5A014901E60161E00E949D1185
:1023D000812FB501A4010E94391A812F6F2D0E940F
:1023E0008811812F602F0E94241A812FB5010E942D
:1023F000091AC114D10499F0113049F0113018F0C4
:10240000123069F406C018821092A90408C019821B
:1024100004C0188219821092A9041092AA04D093C1
:10242000AC04C093AB04EE20B9F58AE192E090933E
:10243000AC048093AB04812FB4010E94B211812FB0
:102440000E94EA19113071F0113018F0123059F56C
:1024500012C010921A021092A90480911A028823C5
:10246000E1F321C010921B021092AA0480911B027A
:102470008823E1F318C010921A0210921B021092E6
:10248000A9041092AA0480911A028823E1F3809192
:102490001B028823C1F307C0812FB4010E94B2112F
:1024A000812F0E94EA19DF91CF911F910F91FF9028
:1024B000EF90DF90CF90BF90AF909F908F90089556
:1024C000CF92DF92EF92FF920F931F93DF93CF9300
:1024D000CDB7DEB78B85813061F0813018F0823066
:1024E000A1F511C0EC85FD858091AE048823E1F350
:1024F00006C0EC85FD858091AF048823E1F3309719
:1025000021F1099522C0CC84DD84EE84FF8400E0B3
:1025100010E0002351F48091AE04882331F0C114FF
:10252000D10411F0F601099501E0112351F48091D5
:10253000AF04882331F0E114F10411F0F70109959B
:1025400011E0002331F3112321F3CF91DF911F918B
:102550000F91FF90EF90DF90CF900895E82FF0E07B
:10256000E331F10540F4E25CFF4FEE0FFF1F0590F1
:10257000F491E02D099480E008958091B0040895CD
:102580008091B10408958091B20408958091B304BC
:1025900008958091B40408958091B60408958091BF
:1025A000B50408958091B70408958091B804089502
:1025B0008091B90408958091BA0408958091BB0474
:1025C00008958091BC0408958091BD040895809180
:1025D000BE0408958091BF0408958091C0040895B9
:1025E0008091C10408958091C2040895E82FF0E01D
:1025F000E331F10508F040C0EF5AFF4FEE0FFF1F27
:102600000590F491E02D09946093B00408956093CF
:10261000B10408956093B20408956093B3040895DB
:102620006093B40408956093B60408956093B5046C
:1026300008956093B70408956093B8040895609373
:10264000B90408956093BA0408956093BB04089593
:102650006093BC0408956093BD0408956093BE0424
:1026600008956093BF0408956093C0040895609333
:10267000C10408956093C00408951F93CF93DF931E
:10268000182F80911D02882341F080912702882312
:1026900099F010921D02109227020E94991A8093BD
:1026A0001C0281E292E061E040E022E330E00E941F
:1026B000FB1381E080931D0290911C02A12FB0E0DA
:1026C000ED01C455DE4F8881882369F0FD01E15595
:1026D000FE4F80819823C1F0FD01E25EFD4F81E055
:1026E0008083188211C0FD01E25EFD4F808181115F
:1026F0001082FD01E155FE4F8081982329F4FD01F0
:10270000E455FE4F81E08083A25EBD4F8C91DF9146
:10271000CF911F91089582E00E94AE12882319F490
:1027200090E082E008951092DE041092DD04109291
:10273000E0041092DF041092E2041092E10410927F
:10274000E4041092E3041092E6041092E50480E998
:1027500091E09093CA048093C9049093CC04809331
:10276000CB049093CE048093CD049093D0048093B7
:10277000CF049093D2048093D10484E398E09093A3
:10278000D4048093D3049093D6048093D50490937B
:10279000D8048093D7049093DA048093D90490935B
:1027A000DC048093DB0481E061E00E94F61291E09A
:1027B00081E00895DF93CF93CDB7DEB729970FB6A9
:1027C000F894DEBF0FBECDBF9C01CE01019661E043
:1027D00040E00E94FB13982F882319F48F818823EF
:1027E000E9F3892F29960FB6F894DEBF0FBECDBF4F
:1027F000CF91DF910895EF92FF920F931F93CF93A4
:10280000DF93EC01F62EE42E890188E00E94AE12DF
:10281000813011F081E026C084E090E00E94E8273A
:10282000FC01009711F482E01DC0F982F0FC1E82C9
:1028300081E0E81619F48981846089838981886040
:1028400089831B830A831D830C83D183C0831382F6
:10285000128281E080938A02CF010E94CA1A1092EC
:102860008A0280E0DF91CF911F910F91FF90EF904E
:102870000895FC018091EA04813011F085E008950B
:102880008091EB04813011F08AE00895613011F4F9
:1028900084EC01C084E88093BC008091BC0087FF79
:1028A000FCCF613031F48091B900887F803559F4D4
:1028B00005C08091B900887F883529F48091BB00DC
:1028C000808380E0089582E00895982F8091EA0443
:1028D000813011F085E008958091EB04813011F092
:1028E0008AE008959093BB0084E88093BC008091B7
:1028F000BC0087FFFCCF8091B90090E0887F90708A
:102900008832910521F0C09721F483E0089580E09A
:1029100008958CE00895982F2091EA04213011F059
:1029200085E008958091EC04813011F489E00895E8
:102930002093EB0484EA8093BC008091BC0087FF65
:10294000FCCF8091B900887F883039F08091B90040
:10295000887F803111F081E00895613019F4990F7A
:10296000916003C0662319F4990F9093BB0084E82B
:102970008093BC008091BC0087FFFCCF613031F4B4
:102980008091B900887F803441F409C0662339F40E
:102990008091B900887F883111F082E0089580E04D
:1029A00008958091EB04813011F08AE008958091C0
:1029B000ED04813029F485E98093BC0080E008951E
:1029C00084E98093BC0080E0089582E10E94AE1209
:1029D0008823B1F41092EA041092EB041092EC04F4
:1029E0001092ED041092EE040E94661B87E160E0F5
:1029F0000E9403150E945C1B82E161E00E94F612B6
:102A000082E190E0089563706093B9008093B8000C
:102A100081E08093EA0408958FE180937C00EAE7E7
:102A2000F0E087E0808380818068808308950E9441
:102A3000761A0E9449180E9479170E94331B0E943F
:102A4000AE180E948B1378940895000008951F9289
:102A50000F920FB60F9211242F933F934F935F93D2
:102A60006F937F938F939F93AF93BF93EF93FF9356
:102A7000E0914A02F0914B02309709F00995FF91DD
:102A8000EF91BF91AF919F918F917F916F915F91E6
:102A90004F913F912F910F900FBE0F901F9018955F
:102AA0001F920F920FB60F9211242F933F934F93C3
:102AB0005F936F937F938F939F93AF93BF93EF93A6
:102AC000FF93E0914C02F0914D02309709F0099587
:102AD000FF91EF91BF91AF919F918F917F916F91F6
:102AE0005F914F913F912F910F900FBE0F901F90CC
:102AF00018951F920F920FB60F9211242F933F93A8
:102B00004F935F936F937F938F939F93AF93BF93F5
:102B1000EF93FF93E0914E02F0914F02309709F04E
:102B20000995FF91EF91BF91AF919F918F917F9107
:102B30006F915F914F913F912F910F900FBE0F902A
:102B40001F9018951F920F920FB60F9211242F937A
:102B50003F934F935F936F937F938F939F93AF9325
:102B6000BF93EF93FF93E0913C02F0913D023097C9
:102B700009F00995FF91EF91BF91AF919F918F91CE
:102B80007F916F915F914F913F912F910F900FBE69
:102B90000F901F9018951F920F920FB60F9211244D
:102BA0002F933F934F935F936F937F938F939F9355
:102BB000AF93BF93EF93FF93E0913E02F0913F02FA
:102BC000309709F00995FF91EF91BF91AF919F91D7
:102BD0008F917F916F915F914F913F912F910F90C6
:102BE0000FBE0F901F9018951F920F920FB60F9265
:102BF00011242F933F934F935F936F937F938F9302
:102C00009F93AF93BF93EF93FF93E0914002F091B6
:102C10004102309709F00995FF91EF91BF91AF9173
:102C20009F918F917F916F915F914F913F912F91E4
:102C30000F900FBE0F901F9018951F920F920FB616
:102C40000F9211242F933F934F935F936F937F9332
:102C50008F939F93AF93BF93EF93FF93E0914402C1
:102C6000F0914502309709F00995FF91EF91BF91DE
:102C7000AF919F918F917F916F915F914F913F9114
:102C80002F910F900FBE0F901F9018951F920F92CB
:102C90000FB60F9211242F933F934F935F936F932F
:102CA0007F938F939F93AF93BF93EF93FF93E091A5
:102CB0004602F0914702309709F00995FF91EF9194
:102CC000BF91AF919F918F917F916F915F914F9144
:102CD0003F912F910F900FBE0F901F9018951F924C
:102CE0000F920FB60F9211242F933F934F935F9340
:102CF0006F937F938F939F93AF93BF93EF93FF93C4
:102D0000E0914202F0914302309709F00995FF915A
:102D1000EF91BF91AF919F918F917F916F915F9153
:102D20004F913F912F910F900FBE0F901F901895CC
:102D30001F920F920FB60F9211242F933F934F9330
:102D40005F936F937F938F939F93AF93BF93EF9313
:102D5000FF93E0914802F0914902309709F00995FC
:102D6000FF91EF91BF91AF919F918F917F916F9163
:102D70005F914F913F912F910F900FBE0F901F9039
:102D800018951F920F920FB60F9211242F933F9315
:102D90004F935F936F937F938F939F93AF93BF9363
:102DA000EF93FF93E0913202F0913302309709F0F4
:102DB0000995FF91EF91BF91AF919F918F917F9175
:102DC0006F915F914F913F912F910F900FBE0F9098
:102DD0001F9018951F920F920FB60F9211242F93E8
:102DE0003F934F935F936F937F938F939F93AF9393
:102DF000BF93EF93FF93E0913402F0913502309747
:102E000009F00995FF91EF91BF91AF919F918F913B
:102E10007F916F915F914F913F912F910F900FBED6
:102E20000F901F9018951F920F920FB60F921124BA
:102E30002F933F934F935F936F937F938F939F93C2
:102E4000AF93BF93EF93FF93E0913602F091370277
:102E5000309709F00995FF91EF91BF91AF919F9144
:102E60008F917F916F915F914F913F912F910F9033
:102E70000FBE0F901F9018951F920F920FB60F92D2
:102E800011242F933F934F935F936F937F938F936F
:102E90009F93AF93BF93EF93FF93E0913802F0912C
:102EA0003902309709F00995FF91EF91BF91AF91E9
:102EB0009F918F917F916F915F914F913F912F9152
:102EC0000F900FBE0F901F901895E82F803268F476
:102ED0008051833050F0F0E0EE0FFF1FE65DFD4FB4
:102EE000208131817183608302C020E030E0C9011C
:102EF000089580E10E94AE12882361F4EAE2F2E0D4
:102F00001192119282E0EA36F807D1F780E161E090
:102F10000E94F61280E191E00895239A0895FF92AD
:102F20000F931F93CF93DF93F82E8AE0F816B1F03A
:102F30008F1548F0E8E0FE16B9F1EF1538F1F7E02B
:102F4000FF1651F43BC08DE0F81659F0EBE1FE1688
:102F500089F0FCE0FF1641F001E041C01092C3048B
:102F600003C01092C3043AC08091C404815080937E
:102F7000C40434C00E94700D14C080E061E00E945F
:102F80004F0E8091C3048F5F8093C3048091C3046C
:102F900087FFF3CF1092C3048091C40481508093C3
:102FA000C40400E011E01CC08091C3048823B1F088
:102FB0008091C30486508093C30410C081E00E94B6
:102FC0007C0F64EF71E080E090E04DE750E024E694
:102FD00030E00E94971981E00E94631900E010E040
:102FE0008091C4046091C3040E94360E002351F105
:102FF00085E0F89EC0011124EC01C355DF4F8C0120
:103000000E541F4FFE01849161E00E944F0E2196E5
:10301000C017D107B9F780E061E00E944F0E8091A0
:10302000C3048A5F8093C3048091C30490E08C370B
:1030300091053CF01092C3048091C40481508093A8
:10304000C40411E08091C40483708093C4041130DF
:1030500059F48091C504813039F4E091C604F091AF
:10306000C704309709F0099580E090E0DF91CF9197
:103070001F910F91FF90089585FD5D9886FD5E98E4
:103080000895559A569A089585FD5D9A86FD5E9A33
:10309000089580E00E94AE12882351F4F8940E94B3
:1030A0007A1B81E00E945B1880E061E00E94F612CA
:1030B00080E091E00895813049F0F894813020F16A
:1030C0008230B1F0833009F045C017C02C9A80E8F7
:1030D000809361001092610080E090E00000019612
:1030E00088329105D9F71092680010926B0008950C
:1030F00080E88093610083E004C080E880936100F1
:1031000088E08093610028C080E090E00000019694
:103110002DE680369207D1F72C9880E090E00000F1
:1031200001962DE680369207D1F710927A008FEF44
:103130008093640080916800816080936800809132
:103140006B00846080936B00789483B7816083BF49
:1031500088950895823008F0789408950F931F930E
:103160000E94A61B80E065E97BE10E94E71881E0F0
:103170006DE87BE10E94E71882E065E87BE10E9450
:10318000E71886E06DE97BE10E94E7180DE71BE197
:1031900083E0B8010E94E71884E0B8010E94E718B4
:1031A00085E0B8010E94E71887E0B8010E94E7189F
:1031B00082E061E00E94F6128FEF8093C80487E0FE
:1031C0000E948B0E82E091E01F910F910895E82FED
:1031D000F0E0EE0FFF1FE659FD4F71836083089505
:1031E0000E94F318089580917C0290917D02A09135
:1031F0007E02B0917F022091800230918102409145
:10320000820250918302280F391F4A1F5B1F2093AF
:103210007C0230937D0240937E0250937F02809126
:103220007C0290917D02A0917E02B0917F02885134
:10323000964FA040B040BCF08BB180588BB98091C4
:103240007C0290917D02A0917E02B0917F02885114
:10325000964FA040B04080937C0290937D02A09353
:103260007E02B0937F0208958AE00E94AE12813000
:1032700041F40E94D61B10927B028AE060E00E941B
:10328000F612089589E00E94AE128130D9F480913F
:103290007A02882311F00E94E41982E00E94D61B72
:1032A0008091880290918902009731F00E949528C0
:1032B000109289021092880210927A0289E060E0EE
:1032C0000E94F6120895813029F0823029F40E947C
:1032D000421908950E9434190895982F80917A0216
:1032E000882331F480917B02882311F4579A5F98E8
:1032F00080917A028823D1F49230C1F41092800038
:10330000109281008091810088608093810080917B
:10331000810081608093810010928500109284006A
:1033200081E08093890080E98093880008958F92DE
:103330009F92AF92BF92CF92DF92EF92FF920F9344
:103340001F93CF93DF934B015C01EA01B901211573
:10335000310539F19E01442737FD4095542F6536DC
:10336000710510F064E670E080E090E00E9449276B
:1033700024E630E040E050E00E947B2779018A019A
:10338000C501B4010E94BF1BC7010E94DA1360E0AF
:1033900070E080E090E00E94BF1BCE018E199F0973
:1033A00004C04115510519F0CA010E94DA13DF91DA
:1033B000CF911F910F91FF90EF90DF90CF90BF9032
:1033C000AF909F908F900895EFE6F0E080818D7F21
:1033D00080830895982F81E08093AD04913051F05F
:1033E000913018F0923041F403C01092950404C05B
:1033F00010929504109296041092AD0408953A9A92
:103400003B9A3C9A3D9A3E9A3F9A88B1837088B91C
:103410000895982F81E08093AD04913071F0913040
:1034200018F0923071F405C070938A046093890497
:1034300008C070938A046093890470938C0460932D
:103440008B041092AD040895982F81E08093AD0411
:10345000913051F0913018F0923041F403C06093F4
:10346000970404C060939704609398041092AD048D
:1034700008950F931F93CF93DF93EB018A0181305F
:1034800001F1813018F0823061F50DC08091810426
:1034900090918204892B11F080E01AC010928E0462
:1034A00010928D041EC08091810490918204892B1A
:1034B00021F080E00E94F21B04C010928E04109252
:1034C0008D048091830490918404892B31F081E0F4
:1034D000BE01A8010E94F21B04C010929004109239
:1034E0008F04DF91CF911F910F9108951092B00436
:1034F0001092B1041092B5041092B2041092B40468
:103500001092B6041092B7041092B8041092B90445
:103510001092BA041092BB041092BC041092BD0425
:103520001092BE041092BF041092C0041092C10405
:1035300008950F931F9381E00E94AE12813011F025
:1035400000E024C087E00E948B0E82E06AE00E94C7
:10355000DC0E82E062EB0E94DC0E18EC812F8A9573
:10356000F1F782E060E00E94AD1B082F812F8A9561
:10357000F1F782E060E00E94AD1B1A95F1F787E059
:103580000E948B0E88E893E10197F1F7802F1F913D
:103590000F910895CF92DF92EF92FF920F931F93B6
:1035A000CF93DF93EC018091E704882339F4D09323
:1035B000E904C093E8040E94581B47C0C090E80487
:1035C000D090E90400E010E0EE24FF2437C0A88189
:1035D000B981FD0164817581F60140815181FA0153
:1035E000848195819B01281B390B37FF0FC0861BF7
:1035F000970B95838483DB82CA82012B29F4D093B5
:10360000E904C093E80421C0F7010CC0F6018281EF
:1036100093812115310549F4FD01158214829B83A4
:103620008A83F601D383C28310C0FD0135832483CE
:103630000097B9F30F5F1F4F76016C018091E7048B
:1036400090E00817190718F2ECCF8091E7048F5F1C
:103650008093E704DF91CF911F910F91FF90EF903E
:10366000DF90CF90089588E00E94AE128823B9F4CD
:103670001092E7041092E9041092E80410928A0272
:1036800010928B0280E16FE57CE10E94691B0E9431
:10369000661C0E94521B88E061E00E94F61288E0DE
:1036A00091E00895EEE6F0E08081826080830895E5
:1036B00081E080938B0208958091EA04813029F49F
:1036C0008091BC0084608093BC000895389839983C
:1036D0000895803218F020E030E00AC0E82FF0E0D2
:1036E000EE0FFF1FE65DFD4F208131817183608306
:1036F000C9010895249A2C9A089583E58CBD81E030
:103700008DBD8DE08A95F1F7089583E58CBD1DBCD4
:1037100084EF91E00197F1F708958FE78CBD1DBC10
:1037200084EF91E00197F1F7089583E58CBD81E086
:103730008DBD8DE08A95F1F7089583E58CBD81E01C
:103740008DBD84EF91E00197F1F70895259A2698B1
:10375000279A209A219A229A08951F93162F0E9441
:103760008B0E82E00E94AE12813011F080E005C025
:103770001EBD0DB407FEFDCF8EB51F9108959B01B0
:10378000AC0180917B02882381F0DA01C901880FA6
:10379000991FAA1FBB1F9093870280938602211551
:1037A00031054105510509F45F980895823029F4E7
:1037B000809181008E7F8093810080917A02813098
:1037C00031F480917B02813011F4000008958091E2
:1037D0007A02813021F080917B02813011F45F9870
:1037E00057980895EF92FF920F931F93CF93DF9313
:1037F000EB01882321F0813009F05AC02DC09A01D5
:1038000040E050E0CA01B9010E944927209181049B
:1038100030918204220F331F40E050E00E947B274A
:1038200079018A01A8019701220F331F441F551FF8
:10383000CE01A0E0B0E082179307A407B50728F0F7
:10384000F0928E04E0928D0433C0D695C795D09344
:103850008E04C0938D042CC09A0140E050E0CA0150
:10386000B9010E9449272091830430918404220FDA
:10387000331F40E050E00E947B2779018A01A801B4
:103880009701220F331F441F551FCE01A0E0B0E067
:1038900082179307A407B50728F0F0929004E092EE
:1038A0008F0406C0D695C795D0939004C0938F041B
:1038B000DF91CF911F910F91FF90EF9008950E949B
:1038C0006F1C0E94AF1C0E94881C089584B5826002
:1038D00084BD85B5846085BD8EE487BD089588E08C
:1038E0000E94AE12882311F484E0089580918B0227
:1038F000882311F483E0089580918A02882311F0CF
:1039000082E008950E94211F8130E1F380E0089554
:1039100080917B02813011F5809184029091850223
:103920002091860230918702280F391F309385023B
:10393000209384028091840290918502885E934056
:103940006CF08BB180588BB9809184029091850284
:10395000885E93409093850280938402089587E067
:103960000E94AE12813009F0AAC08091810490912A
:103970008204892B09F18091A5049091A6042091DD
:10398000810430918204820F931F9093A604809348
:10399000A5048091A5049091A604885E9340A4F0AC
:1039A0008091A5049091A604885E93409093A6040C
:1039B0008093A50441E009C08091790490917A0434
:1039C00090937E0480937D0440E0809183049091E5
:1039D0008404892B09F18091A7049091A804209177
:1039E000830430918404820F931F9093A8048093E2
:1039F000A7048091A7049091A804885E9340A4F046
:103A00008091A7049091A804885E93409093A804A5
:103A10008093A70461E009C080917B0490917C04AD
:103A20009093800480937F0460E0842F0E94601D47
:103A30008091A1049091A20420917D0430917E0494
:103A4000280F391F3093A2042093A1048091A10470
:103A50009091A204885E934014F440E00BC08091E2
:103A6000A1049091A204885E93409093A204809355
:103A7000A10441E08091A3049091A40420917F04CB
:103A800030918004280F391F3093A4042093A3049D
:103A90008091A3049091A404885E934014F460E0A4
:103AA0000BC08091A3049091A404885E93409093EE
:103AB000A4048093A30461E0842F0E94A51D0895AF
:103AC0008823F1F02091790430917A0480917D046B
:103AD00090917E04281B390B1216130634F4809142
:103AE0007D0490917E04019607C0232B49F08091BC
:103AF0007D0490917E04019790937E0480937D04D1
:103B0000662311F120917B0430917C0480917F0425
:103B100090918004281B390B1216130654F48091DF
:103B20007F049091800401969093800480937F0499
:103B30000895232B49F080917F0490918004019790
:103B40009093800480937F0408950F931F93182F00
:103B5000062F8091AD04882309F0E7C08091950479
:103B6000882309F05AC080917D0490917E04892BAE
:103B7000E9F480918C02837E80938C0210929E04E3
:103B80008091A904882309F45DC06091970480E0C6
:103B90000E94FC1EE091AB04F091AC04309709F454
:103BA00051C081E080831092A9044CC080917704B9
:103BB000813041F48091890490918A04019711F435
:103BC00011E002C01123F1F1E0919C04F0E0EC550A
:103BD000FE4F90918C02937E8081892B80938C0282
:103BE00080919A04882321F480919C048F5F03C004
:103BF00080919C04815080939C0480919C048370EC
:103C000080939C0481E080939E04809177048130AE
:103C1000C9F480E00E94A81E15C090918C02937E8A
:103C200090938C02E0919C04F0E0EC55FE4F808173
:103C3000892B80938C0282E080939E0410927E04F4
:103C400010927D0480919604882309F059C08091D8
:103C50007F0490918004892BE9F480918C028F710C
:103C600080938C0210929F048091AA04882309F407
:103C70005CC06091980481E00E94FC1EE091AB045E
:103C8000F091AC04309709F450C081E08183109228
:103C9000AA044BC080917804813041F480918B0458
:103CA00090918C04019711F401E002C00023E9F126
:103CB000E0919D04F0E0E855FE4F90918C029F71D9
:103CC0008081892B80938C0280919B04882321F42E
:103CD00080919D048F5F03C080919D0481508093EB
:103CE0009D0480919D04837080939D0481E0809366
:103CF0009F04809178048130C1F40E94A81E15C0F1
:103D000090918C029F7190938C02E0919D04F0E061
:103D1000E855FE4F8081892B80938C0282E080934E
:103D20009F041092800410927F048091A004882345
:103D300031F48CE892E0612F402F0E948F1F88B1F0
:103D4000837090918C02892B88B91F910F910895EF
:103D5000882321F0813009F04EC027C0809189046A
:103D600090918A04892B49F08091890490918A046A
:103D7000019790938A04809389048091A9048823F1
:103D8000D1F52091890430918A0480918D0490911D
:103D90008E042817390779F580E060E070E00E9412
:103DA000B21181E08093A904089580918B049091D1
:103DB0008C04892B49F080918B0490918C0401979D
:103DC00090938C0480938B048091AA04882399F4A7
:103DD00020918B0430918C0480918F0490919004F9
:103DE0002817390741F481E060E070E00E94B211C9
:103DF00081E08093AA0408950F931F93182F062F34
:103E0000662349F460E070E00E94B211812F60E007
:103E100070E00E94091A81E08093AD04113051F0E6
:103E2000113018F0123041F403C00093950404C01F
:103E300000939504009396041092AD041F910F9186
:103E40000895FF920F931F93CF93DF938091E70420
:103E5000882309F459C00091E8041091E904F8019D
:103E6000C081D1818C819D8101979D838C8318169F
:103E700019060CF449C0898180FF05C08E81882312
:103E800011F481E08E83898181FF03C0EF81F88581
:103E900009958091E7048230A8F0F801828193812E
:103EA0009093E9048093E80413821282E091000069
:103EB000F091010084819581181619063CF0FF24C9
:103EC000F39405C01092E9041092E804FF24809155
:103ED000E70481508093E7048091E704882311F47C
:103EE0000E948C1F898182FF08C08A819B819D83EB
:103EF0008C83C8010E94CA1A08C0C8010E94952874
:103F000089818F7E898301C0FF248F2DDF91CF911E
:103F10001F910F91FF90089510928B020895FC015C
:103F200080919E04823069F48091900291E089270B
:103F300080939002882309F03EC08081837E808335
:103F40003AC080917D0490917E04C397A4F56623C6
:103F5000D1F020917D0430917E0480E690E0BC0198
:103F6000269FC001279F900D369F900D1124880F2A
:103F7000892F881F990B909392048093910481E07C
:103F800080938E0218C080918E028823A1F08091C8
:103F900091049091920401979093920480939104DC
:103FA0008091910490919204892B29F48081837EE1
:103FB000808310928E0280919F04823069F48091F8
:103FC0008F0291E0892780938F02882309F03EC0F9
:103FD00080818F718083089580917F049091800407
:103FE000C397A4F54423D1F020917F04309180043D
:103FF00080E690E0AC01249FC001259F900D349F86
:10400000900D1124880F892F881F990B9093940489
:104010008093930481E080938D02089580918D02B6
:104020008823A1F080919304909194040197909338
:104030009404809393048091930490919404892B29
:1040400029F480818F71808310928D0208955058D9
:10405000BB27AA270ED075C166D130F06BD120F0F6
:1040600031F49F3F11F41EF45BC10EF4E095E7FBC1
:1040700051C1E92F77D180F3BA176207730784071C
:10408000950718F071F49EF58FC10EF4E0950B2E94
:10409000BA2FA02D0B01B90190010C01CA01A0019A
:1040A0001124FF27591B99F0593F50F4503E68F1F5
:1040B0001A16F040A22F232F342F4427585FF3CF36
:1040C000469537952795A795F0405395C9F77EF407
:1040D0001F16BA0B620B730B840BBAF09150A1F050
:1040E000FF0FBB1F661F771F881FC2F70EC0BA0FD6
:1040F000621F731F841F48F4879577956795B7955E
:10410000F7959E3F08F0B3CF9395880F08F0992755
:10411000EE0F979587950895D9D008F481E008951A
:104120000CD00FC107D140F0FED030F021F45F3F3A
:1041300019F0F0C0511139C1F3C014D198F399238B
:10414000C9F35523B1F3951B550BBB27AA2762175B
:104150007307840738F09F5F5F4F220F331F441FA0
:10416000AA1FA9F333D00E2E3AF0E0E830D09150D8
:104170005040E695001CCAF729D0FE2F27D0660FC5
:10418000771F881FBB1F261737074807AB07B0E804
:1041900009F0BB0B802DBF01FF2793585F4F2AF01A
:1041A0009E3F510568F0B6C000C15F3FECF3983EFA
:1041B000DCF3869577956795B795F7959F5FC9F777
:1041C000880F911D9695879597F90895E1E0660F00
:1041D000771F881FBB1F621773078407BA0720F079
:1041E000621B730B840BBA0BEE1F88F7E0950895E2
:1041F00004D06894B111D9C00895BCD088F09F57FD
:1042000090F0B92F9927B751A0F0D1F0660F771F22
:10421000881F991F1AF0BA95C9F712C0B13081F002
:10422000C3D0B1E00895C0C0672F782F8827B85F4A
:1042300039F0B93FCCF3869577956795B395D9F763
:104240003EF490958095709561957F4F8F4F9F4F6D
:104250000895E89409C097FB3EF490958095709579
:1042600061957F4F8F4F9F4F9923A9F0F92F96E9C2
:10427000BB279395F695879577956795B795F11137
:10428000F8CFFAF4BB0F11F460FF1BC06F5F7F4FD4
:104290008F4F9F4F16C0882311F096E911C07723E6
:1042A00021F09EE8872F762F05C0662371F096E8EF
:1042B000862F70E060E02AF09A95660F771F881FBE
:1042C000DAF7880F9695879597F90895990F000862
:1042D000550FAA0BE0E8FEEF16161706E807F907D8
:1042E000C0F012161306E407F50798F0621B730B73
:1042F000840B950B39F40A2661F0232B242B252BF4
:1043000021F408950A2609F4A140A6958FEF811D96
:10431000811D089597F99F6780E870E060E0089537
:104320009FEF80EC089500240A94161617061806CD
:104330000906089500240A941216130614060506A9
:104340000895092E0394000C11F4882352F0BB0F3A
:1043500040F4BF2B11F460FF04C06F5F7F4F8F4F9D
:104360009F4F089557FD9058440F551F59F05F3FD8
:1043700071F04795880F97FB991F61F09F3F79F087
:1043800087950895121613061406551FF2CF469509
:10439000F1DF08C0161617061806991FF1CF86958B
:1043A0007105610508940895E894BB27662777276F
:1043B000CB0197F908958ADF08F48FEF0895DADFCB
:1043C000A8F19E57A8F1985160F039F1983070F536
:1043D000092E9927660F771F881F991F0A94D1F716
:1043E0001CC0BB27993F4CF4B111B1E0B62B672F2D
:1043F000782F8827985FB1F708C0869577956795DD
:10440000B79508F4B1609395C1F7BB0F30F411F480
:1044100060FF03C06F5F7F4F8F4F3EF49095809594
:10442000709561957F4F8F4F9F4F08956894BDCFD2
:10443000BBCF0BD086CF77DF28F07CDF18F0952339
:1044400009F068CF6DCF1124B0CF8CDFA0F3959F1A
:10445000D1F3950F50E0551F629FF001729FBB276B
:10446000F00DB11D639FAA27F00DB11DAA1F649F17
:104470006627B00DA11D661F829F2227B00DA11DCA
:10448000621F739FB00DA11D621F839FA00D611D50
:10449000221F749F3327A00D611D231F849F600D71
:1044A000211D822F762F6A2F11249F5750408AF0AA
:1044B000E1F088234AF0EE0FFF1FBB1F661F771F36
:1044C000881F91505040A9F79E3F510570F022CFB0
:1044D0006CCF5F3FECF3983EDCF38695779567955C
:1044E000B795F795E7959F5FC1F7FE2B880F911D54
:1044F0009695879597F90895FA01EE0FFF1F30966C
:104500002105310599F16115710561F48038BFE32A
:104510009B0749F168949038810561F08038BFEFBE
:104520009B0741F0992342F5FF3FE1053105210545
:1045300011F1E8940894E795D901AA2329F4AB2F47
:10454000BE2FF85FD0F310C0FF5F70F4A695E0F7C0
:10455000F73950F019F0FF3A38F49F779F930CD059
:104560000F9007FC905808953EF0DACE60E070E0BE
:1045700080E89FE308954FE79F775F934F933F93C2
:104580002F939ED02F913F914F915F9152DF05C0A5
:1045900019F40EF0BFCE08CFC3CEECDEC8F39638C8
:1045A000C0F707F80F92E8942BE33AEA48EB5FE78D
:1045B0004EDF0F920F920F924DB75EB70F92C0D0A1
:1045C000E8ECF0E016D04F915F91EF91FF91E59507
:1045D000EE1FFF1F49F0FE57E0684427EE0F441F0F
:1045E000FA95E1F74195550B32D00F9007FE26C0A2
:1045F0000895DF93CF931F930F93FF92EF92DF9273
:104600007B018C01689405C0DA2EEF011EDFFE01EC
:10461000E894A5912591359145915591AEF3EF011F
:1046200028DDFE019701A801DA9479F7DF90EF9079
:10463000FF900F911F91CF91DF9108959B01AC01E5
:1046400060E070E080E89FE36BCD64CEACC092DEAA
:10465000E8F39923D9F3940F511DBBF391505040C7
:1046600094F059F0882332F0660F771F881F91501D
:104670005040C1F79E3F510544F7880F911D969514
:10468000879597F908955F3FACF0983E9CF0BB2763
:10469000869577956795B79508F4B1609395C1F7BE
:1046A000BB0F58F711F460FFE8CF6F5F7F4F8F4F5C
:1046B0009F4FE3CF7ACE0EF076C032CE68942ACEEA
:1046C00059DEC8F39923D1F3C6F3DF93CF931F9339
:1046D0000F93FF92C92FDD2788232AF02197660FB9
:1046E000771F881FDAF720E030E040E85FEB9FE3B8
:1046F000883920F0803E30F021968F77A9DCE0EFFA
:10470000F0E003C0A5DCEDE1F1E073DF8B01BE0159
:10471000EC01FB2E6F5771097595771F880B990B6C
:104720009ADD28E132E741E35FE38FDEAF2D9801A8
:10473000AE01FF900F911F91CF91DF919ADC01CED6
:10474000FA01DC01AA0FBB1F9B01AC01BF5728F483
:1047500022273327442750781FC0B75188F4AB2F46
:104760000024469537952795011CA395D2F3002088
:1047700069F0220F331F441FB395DAF30DD067CCD5
:1047800061307105A0E88A07B94630F49B01AC019D
:104790006627772788279078309621F02083318309
:1047A0004283538308959F3F31F0915020F48795C1
:1047B00077956795B795880F911D9695879597F989
:1047C0000895A1E1B0E0E6EEF3E2B7C33C017F87D4
:1047D0006E876A01FC0117821682838181FD03C006
:1047E0006FEF7FEF52C39E012F5F3F4F398B288BB6
:1047F000F3012381EE85FF8523FD859123FF8191C0
:10480000FF87EE87882309F43DC3853251F4EE8596
:10481000FF8523FD859123FF8191FF87EE878532F8
:1048200021F490E0B30120D6E3CF982F10E0882444
:1048300099241032B0F49B3269F09C3228F4903203
:1048400051F0933271F40BC09D3239F0903349F43A
:10485000116028C01260146025C0186023C0106168
:1048600021C017FD2AC0892F80538A3078F416FFA3
:1048700006C0FAE09F9E902C1124980E13C03AE0D7
:10488000839E802C1124880E10620CC09E3221F46D
:1048900016FDF8C2106406C09C3611F4106802C000
:1048A000983659F4EE85FF8523FD959123FF91916C
:1048B000FF87EE87992309F0BCCF892F8554833079
:1048C00020F4812F8061905E07C0892F8556833048
:1048D00008F08FC1812F8F7E86FD02C076E0972E73
:1048E0006FE3F62EF822953619F4F0E4FF2A07C09C
:1048F000963619F420E8F22A02C091109A94F7FE35
:104900000AC03BE3391518F45CE3B52E02C0B92C9C
:10491000B39427E009C047E0491520F4BB2447E0E1
:10492000942EF7CF292DBB24C60104969D878C8732
:10493000F6016081718182819381AE014F5F5F4F8B
:104940000B2DA4D46C010981202E332400FF04C058
:1049500003FD02C01DE209C0F1FE02C01BE205C05A
:10496000F2FC02C010E001C010E2C1018C70907036
:10497000892BA1F1112311F483E001C084E0881593
:1049800010F0882409C0881AF3FC06C080E290E089
:10499000B3016AD58A94D1F7112321F0812F90E0D9
:1049A000B30162D523FE03C00FE515E00DC003E699
:1049B00015E00AC0E114F10409F0805290E0B3015F
:1049C00053D50F5F1F4F05C0EF2CFF24F0E1EF22FE
:1049D000FF24F8018491882369F708C1F7FE12C00B
:1049E000BC0C24FE04C08A81813309F4BA941B14E0
:1049F0001CF0BB24B3942DC0F8E0FB1550F538E053
:104A0000B32E27C0F6FC25C0892D90E08C159D059E
:104A10004CF02CEFC2162FEFD20624F030E8F32A28
:104A200001C09A94992049F0E2E0F0E0EC0FFD1FFC
:104A3000E90DF11D80818033A1F3F7FE0AC0B92C86
:104A4000B394892D90E0C816D90614F0992401C0BA
:104A50009C18F7FC03C025E030E009C01C141D04BD
:104A60001CF021E030E003C096012F5F3F4F11237F
:104A700011F02F5F3F4F992029F0892D90E001968A
:104A8000280F391F882D90E02817390714F0882443
:104A900001C0821A4F2C5524C20189709070892B55
:104AA00031F007C080E290E0B301DED48A94882020
:104AB000C9F7112321F0812F90E0B301D5D443FE33
:104AC00006C007C080E390E0B301CED48A9488206A
:104AD000C9F7F7FE44C08601D7FE02C000E010E02F
:104AE00076010894E11CF11CE01AF10A41E050E063
:104AF0004C0F5D1FE40EF51E26014B185108892D41
:104B000090E0AA24BB24A81AB90A5FEF0F3F15074B
:104B100021F48EE290E0B301A7D4C016D10634F0A0
:104B2000401651061CF4F701808101C080E301505A
:104B300010400894E11CF11C0A151B0524F090E0BC
:104B4000B30192D4E2CF0C151D0539F49A81963346
:104B500018F4953311F424FE81E390E045C08A8176
:104B6000813309F00F7E90E0B3017ED4992091F05B
:104B70008EE290E0B30178D412E0E1E0F0E0EC0FD7
:104B8000FD1FE10FF11D1F5F808190E0B3016CD428
:104B90009A9499F744FC03C085E690E002C085E44E
:104BA00090E0B30161D4D7FC05C0C114D10441F435
:104BB00004FF06C0D094C194D108D3948DE201C003
:104BC0008BE290E0B30150D480E305C08F5F26EF05
:104BD0003FEFC20ED31E3AE0C316D104BCF790E0FB
:104BE000B30142D4C601C096B3013ED4CC84DD8467
:104BF00046C1933631F0933799F0933509F055C09B
:104C000022C0F601808189835E010894A11CB11C39
:104C100022E030E0C20ED31E21E0E22EF12C11C0C2
:104C2000F601A080B18016FD03C06FEF7FEF02C0D8
:104C3000692D70E022E030E0C20ED31EC50109D418
:104C40007C011F7712C0F601A080B18016FD03C061
:104C50006FEF7FEF02C0692D70E022E030E0C20EFE
:104C6000D31EC501EBD37C01106813FF06C019C029
:104C700080E290E0B301F8D38A94882D90E0E816A2
:104C8000F906B0F30EC0F50117FD859117FF81916C
:104C90005F0190E0B301E8D381108A940894E108A1
:104CA000F108E114F10479F7EAC0943611F099366D
:104CB00081F517FF08C0F6012081318142815381BF
:104CC00084E090E00AC0F601808191819C01442734
:104CD00037FD4095542F82E090E0C80ED91E9FE624
:104CE000F92EF12257FF09C0509540953095219536
:104CF0003F4F4F4F5F4F90E8F92ACA01B901AE010B
:104D00004F5F5F4F2AE030E022D4E82EE889EE1AA8
:104D100040C0953721F41F7E2AE030E01CC0197F87
:104D20009F3661F0903720F4983509F0ABC00FC082
:104D3000903739F0983709F0A5C004C028E030E07A
:104D40000AC0106114FD146020E130E004C014FDBD
:104D5000166020E132E017FF08C0F6016081718122
:104D60008281938144E050E008C0F6018081918106
:104D7000BC0180E090E042E050E0C40ED51EAE01E0
:104D80004F5F5F4FE4D3E82E5889E51A8FE7F82E7E
:104D9000F122F6FE0BC08EEFF822E91438F4F4FE8F
:104DA00007C0F2FC05C09FEEF92202C01E2D01C013
:104DB000192DF4FE0DC0FE01EE0DF11D8081803332
:104DC00019F4E9EEFE2208C01F5FF2FE05C003C021
:104DD0008F2D867809F01F5F0F2DF3FC13C0F0FEB6
:104DE0000EC0181510F09E2C0AC09E2C980C911A1B
:104DF000182D05C080E290E0B30136D31F5F18156F
:104E0000C8F304C0181510F4811A01C0882404FFE7
:104E10000EC080E390E0B30127D302FF1BC001FD69
:104E200003C088E790E00EC088E590E00BC0802FBB
:104E3000867881F001FF02C08BE201C080E2F7FCBE
:104E40008DE290E0B30110D305C080E390E0B301A0
:104E50000BD39A94E914C8F3EA94E1E0F0E0EC0F84
:104E6000FD1FEE0DF11D808190E0B301FDD2EE201B
:104E700099F705C080E290E0B301F6D28A948820C9
:104E8000C9F7B6CCF30166817781CB016196E2E187
:104E900070C0629FD001739FF001829FE00DF11DF1
:104EA000649FE00DF11D929FF00D839FF00D749FA4
:104EB000F00D659FF00D9927729FB00DE11DF91F50
:104EC000639FB00DE11DF91FBD01CF0111240895AD
:104ED00097FB092E07260AD077FD04D065D006D0AF
:104EE00000201AF4709561957F4F0895F6F790951C
:104EF00081959F4F0895A1E21A2EAA1BBB1BFD01AD
:104F00000DC0AA1FBB1FEE1FFF1FA217B307E407A8
:104F1000F50720F0A21BB30BE40BF50B661F771F00
:104F2000881F991F1A9469F76095709580959095E0
:104F30009B01AC01BD01CF0108952F923F924F928A
:104F40005F926F927F928F929F92AF92BF92CF9219
:104F5000DF92EF92FF920F931F93CF93DF93CDB722
:104F6000DEB7CA1BDB0B0FB6F894DEBF0FBECDBF9A
:104F700009942A88398848885F846E847D848C846B
:104F80009B84AA84B984C884DF80EE80FD800C8174
:104F90001B81AA81B981CE0FD11D0FB6F894DEBF57
:104FA0000FBECDBFED010895AA1BBB1B51E107C089
:104FB000AA1FBB1FA617B70710F0A61BB70B881FA9
:104FC000991F5A95A9F780959095BC01CD01089538
:104FD000CF93DF93BC018230910510F462E070E062
:104FE000A091F104B091F204ED01E0E0F0E040E0C6
:104FF00050E021C0888199818617970769F48A81DA
:105000009B81309719F09383828304C09093F204BC
:105010008093F104FE0134C06817790738F4411514
:10502000510519F08417950708F4AC01FE018A8137
:105030009B819C01E9012097E9F641155105A9F1F1
:10504000CA01861B970B049708F4BA01E0E0F0E070
:105050002AC08D919C91119784179507F9F46417D4
:10506000750781F412968D919C911397309719F0E2
:105070009383828304C09093F2048093F104FD0132
:1050800032964FC0CA01861B970BFD01E80FF91F2E
:105090006193719302978D939C9343C0FD0182812C
:1050A00093819C01D9011097A1F68091EF04909112
:1050B000F004892B41F48091FA019091FB019093C7
:1050C000F0048093EF044091FC015091FD014115E3
:1050D000510541F44DB75EB78091F8019091F90107
:1050E000481B590B2091EF043091F0042417350729
:1050F000B0F4CA01821B930B8617970780F0AB01AF
:105100004E5F5F4F8417950750F0420F531F509327
:10511000F0044093EF04F9016193719302C0E0E061
:10512000F0E0CF01DF91CF910895CF93DF93009707
:1051300009F450C0EC0122971B821A82A091F1045D
:10514000B091F204109709F140E050E0AC17BD07B0
:1051500008F1BB83AA83FE0121913191E20FF31F75
:10516000AE17BF0779F48D919C911197280F391FC5
:105170002E5F3F4F3983288312968D919C91139710
:105180009B838A834115510571F4D093F204C09337
:10519000F10420C012968D919C911397AD01009758
:1051A00011F0DC01D3CFFA01D383C2832191319175
:1051B000E20FF31FCE17DF0769F488819981280F6A
:1051C000391F2E5F3F4FFA01318320838A819B81F3
:1051D00093838283DF91CF910895A0E0B0E0E2EF66
:1051E000F8E2B3CEEC01A880B980CA80DB80A114BC
:1051F000B104C104D10441F484E2A82E89EDB82E93
:105200008BE5C82E87E0D82EC601B5012DE133EF1E
:1052100041E050E0FAD127EA31E440E050E039DEE5
:105220007B018C01C601B5012DE133EF41E050E077
:10523000ECD1CA01B9012CEE34EF4FEF5FEF29DE5C
:105240006E0D7F1D801F911F97FF04C0615070403D
:1052500080409048688379838A839B839B013F7752
:10526000C901CDB7DEB7EAE08CCEB7DF08958EEF87
:1052700091E0B3DF0895A0E0B0E08093FE01909349
:10528000FF01A0930002B09301020895283008F0B6
:1052900027E03327DA01990F311D87FD91600096D1
:1052A0006105710539F432602E5F3D9330E32A9534
:1052B000E1F708959F3F30F080387105610509F0EE
:1052C0003C5F3C5F3D93913008F08068911DDF9317
:1052D000CF931F930F93FF92EF92192F987F96957C
:1052E000E92F96959695E90FFF27EF53FA4F9927E7
:1052F0003327EE24FF24A701E701059008940794C3
:1053000028F4360FE71EF81E491F511D660F771F40
:10531000881F991F0694A1F70590079428F4E70EBB
:10532000F81E491F561FC11D770F881F991F661F42
:105330000694A1F70590079428F4F80E491F561F0C
:10534000C71FD11D880F991F661F771F0694A1F7ED
:105350000590079420F4490F561FC71FD81F990FB7
:10536000661F771F881F0694A9F784911095177000
:1053700041F0D695C79557954795F794E7941A95B8
:10538000C1F7E7E6F5E068941590159135916591C0
:10539000959105907FE27395E118F10A430B560B46
:1053A000C90BD009C0F7E10CF11E431F561FC91FDE
:1053B000D01D7EF4703311F48A95E6CFE894015045
:1053C00030F0080F0AF40027021708F4202F239565
:1053D000022F7A3328F079E37D932A95E9F710C0FC
:1053E0007D932A9589F60694979567953795179535
:1053F0001794E118F10A430B560BC90BD00998F02A
:1054000023957E9173957A3308F070E37C93201393
:10541000B8F77E9170617D9330F0839571E37D9351
:1054200070E32A95E1F71124EF90FF900F911F91FF
:10543000CF91DF91992787FD90950895FC01059004
:10544000615070400110D8F7809590958E0F9F1F86
:105450000895FC016150704001900110D8F78095CB
:1054600090958E0F9F1F08950F931F93CF93DF93F7
:105470008C01EB018B8181FF1BC082FF0DC02E814F
:105480003F818C819D812817390764F4E881F98177
:105490000193F983E88306C0E885F985802F099593
:1054A000892B31F48E819F8101969F838E8302C068
:1054B0000FEF1FEFC801DF91CF911F910F9108955A
:1054C000A0E0B0E0E5E6FAE248CDFE013596619154
:1054D00071918091F5049091F604AF0172D92096F4
:1054E000E2E057CD0F931F93CF93DF938C01E091B0
:1054F000F504F091F604838181FF21C0C0E0D0E083
:105500000DC0E091F504F091F60420853185BF01CE
:10551000F9010995892B11F0CFEFDFEFF8018191A7
:105520008F01882371F7E091F504F091F60420854E
:1055300031858AE0BF01F9010995892B11F0CFEF80
:10554000DFEFCE01DF91CF911F910F910895FA0106
:10555000AA27283051F1203181F1E8946F936E7FB2
:105560006E5F7F4F8F4F9F4FAF4FB1E03ED0B4E0A3
:105570003CD0670F781F891F9A1FA11D680F791FE4
:105580008A1F911DA11D6A0F711D811D911DA11DF5
:1055900020D009F468943F912AE0269F1124301905
:1055A000305D3193DEF6CF010895462F4770405DA0
:1055B0004193B3E00FD0C9F7F6CF462F4F70405D4F
:1055C0004A3318F0495D31FD4052419302D0A9F7AA
:1055D000EACFB4E0A6959795879577956795BA95A4
:1055E000C9F700976105710508959B01AC010A2E6A
:1055F00006945795479537952795BA95C9F7620F41
:10560000731F841F951FA01D089597FB092E052663
:105610000ED057FD04D06FDC0AD0001C38F4509532
:105620004095309521953F4F4F4F5F4F0895F6F7C6
:1056300090958095709561957F4F8F4F9F4F0895FE
:04564000F894FFCF0C
:105644005357313A20507573686564005357323AA2
:1056540020507573686564005357333A205075734E
:10566400686564006D6F766541776179460A0A0A58
:10567400006D6F766541776179530A0A0A006D6F90
:10568400766557616E6465720A6D6F766552616EF8
:10569400643A202533640A7475726E52616E6452E2
:1056A4003A202533640A7475726E52616E644C3A02
:1056B400202533640A00626B49523A2025332E3286
:1056C400660A6D6F766557616C6C0A4572726F720B
:1056D4003A202533660A4566666F72743A2025338C
:1056E400660A001F180C0410C0802060010101101C
:1056F400080400000002000000008F1700000000F2
:105704001C05000069050000BC050000130600002C
:1057140070060000D20600003A070000A807000047
:105724001C080000980800001A090000A5090000E0
:105734000002040507090B002000F9040000010021
:02574400000063
:00000001FF
