:100000000C9431030C944E030C944E030C944E0349
:100010000C9462200C948B200C94B4200C94DD2062
:100020000C944E030C94431F0C946C1F0C94951F5E
:100030000C9410200C94BE1F0C94E71F0C943920D4
:100040000C94C81E0C94F11E0C941A1F0C944E03B1
:100050000C944E030C944E030C944E030C944E03DC
:100060000C944E030C944E030C944E030C944E03CC
:100070000C944E030C944E030C944E032D1C301C18
:10008000331C361C3F1C391C3C1C421C451C481CA4
:100090004B1C4E1C511C541C571C5A1C5D1C601CD4
:1000A000631C741C771C7A1C7D1C861C801C831CA2
:1000B000891C8C1C8F1C921C951C981C9B1C9E1CC4
:1000C000A11CA41CA71CAA1C07634236B79BD8A777
:1000D0001A39685618AEBAAB558C1D3CB7CC57636D
:1000E000BD6DEDFD753EF6177231BF000000803F1B
:1000F00008000000BE922449123EABAAAA2ABECD37
:10010000CCCC4C3E00000080BEABAAAAAA3E0000A8
:100110000000BF000000803F0000000000084178A0
:10012000D3BB4387D1133D190E3CC3BD4282AD2BD7
:100130003E68EC8276BED98FE1A93E4C80EFFFBECF
:1001400001C4FF7F3F000000000016050100000011
:1001500000000000FA000000E000E00028FE28FE99
:10016000282454FE5448C4C81026466C92AA44A0C1
:1001700000A0C000000038448200008244380028FB
:10018000107C102810107C1010000A0C00001010B9
:10019000101010000606000004081020407C8A920F
:1001A000A27C0042FE020042868A92628482A2D22F
:1001B0008C182848FE08E4A2A2A29C3C5292920C01
:1001C000808E90A0C06C9292926C60929294780013
:1001D0006C6C0000006A6C00001028448200282823
:1001E000282828008244281040808A90604C929EE3
:1001F000827C7E8888887EFE9292926C7C8282824B
:1002000044FE82824438FE92929282FE90909080C8
:100210007C8292925EFE101010FE0082FE8200042C
:100220000282FC80FE10284482FE02020202FE408E
:100230003040FEFE201008FE7C8282827CFE909080
:1002400090607C828A847AFE909894626292929204
:100250008C8080FE8080FC020202FCF8040204F81C
:10026000FC021C02FCC6281028C6E0100E10E08616
:100270008A92A2C200FE82820040201008040082FE
:1002800082FE0020408040200202020202008040E4
:100290002000042A2A2A1EFE1222221C1C222222AC
:1002A000041C222212FE1C2A2A2A18107E9080404A
:1002B000304A4A4A7CFE1020201E0022BE02000462
:1002C0000222BC00FE081422000082FE02003E2032
:1002D00018201E3E1020201E1C2222221C3E2828F0
:1002E0002810102828183E3E10202010122A2A2AF2
:1002F0000420FC2202043C0202043E3804020438BA
:100300003C020C023C2214081422300A0A0A3C2245
:10031000262A322200106C82000000FE00000082BB
:100320006C1000081010081000000000007F818190
:10033000817F7F8383837F7F8787877F7F8F8F8F77
:100340007F7F9F9F9F7F7FBFBFBF7F7FFFFFFF7F1D
:100350002040FF4020621517156500FBFB000000E0
:1003600000000000C0FF0300E0FF0700F0FF0F00E7
:10037000F8FF1F0078001E0078001E0078001E00A5
:1003800078001E0078001E0078001E0078001E0015
:1003900078001E0078001E00000000000000000031
:1003A00080FF0300E0FF0700F0FF0F00F8FF1F00D1
:1003B000F83C1F00783C1E00783C1E00783C1E0074
:1003C000783C1E00783C1E00783C1E00783C1E00E5
:1003D000783C1E00783C1E00783C1E0000000000A7
:1003E00000000000E0FF0300F0FF0700F8FF0F002F
:1003F000F8FF1F00783C1E00783C1E00783C1E0071
:10040000783C1E00783C1E00783C1E00783C1E00A4
:10041000783C1E00783C1E00783C1E000000000066
:1004200000000000F8FF0300F8FF0F00F8FF1F00B6
:10043000F8FF1F0000001E0000001E0000801F00CB
:1004400000F01F0000FF0F00E0FF0700F0FF0000BA
:10045000F80F0000F80000007800000078000000AD
:10046000F8FF1F00F8FF1F00F0FF1F00E0FF1F0054
:100470000000000000000000F8FF1F00F8FF1F0050
:10048000F8FF1F00F8FF1F0078001E00783C1E00D8
:10049000783C1E00783C1E00783C1E00783C1E0014
:1004A000783C1E00F87E1F00F8FF1F00F0FF0F00D1
:1004B000E0E703000000000000003800EEFF6C00E1
:1004C0002A8045003A0047FC03FF6CFC83FF39009B
:1004D000DEFF0B7CD0810BFCD0810BC0D0810BFCEC
:1004E000D0810B7CDEFF0B0082FF397002FF6CF8BD
:1004F0003A0047DC2A8045CCEEFF6CCC0000380087
:100500000000000C00001E0C00001E0000001E0079
:1005100000001E0000001E00F8FF1F00F8FF1F0073
:10052000F8FF1F00F8FF1F0000001E0000001E0063
:1005300000001E0000001E0000005E0000004000E1
:1005400000007C00000040000000400000007C0033
:1005500000003000000010000000300000007C6E41
:10056000616E00696E660000407A10F35A00A07256
:100570004E18090010A5D4E80000E87648170000DE
:10058000E40B54020000CA9A3B000000E1F50500AC
:100590000080969800000040420F000000A08601F5
:1005A000000000102700000000E8030000000064C5
:1005B00000000000000A0000000000010000000030
:1005C000002C76D888DC674F0823DFC1DFAE59E105
:1005D000B1B796E5E3E453C63AE651997696E8E674
:1005E000C28426EB898C9B62ED407C6FFCEFBC9C47
:1005F0009F40F2BAA56FA5F490055A2AF75C936B59
:100600006CF9676DC11BFCE0E40D47FEF520E6B513
:1006100000D0ED902E0300943577050080841E08ED
:100620000000204E0A000000C80C333333330F980B
:100630006E12831141EF8D2114893BE65516CFFED2
:10064000E6DB18D1844B381BF77C1D901DA4BBE45E
:1006500024203284725E228100C9F124ECA1E53DA0
:10066000270011241FBECFEFD8E0DEBFCDBF13E0BF
:10067000A0E0B1E0EAEDF8E602C005900D92A03BE3
:10068000B107D9F716E0A0EBB3E001C01D92A13D80
:10069000B107E1F70E94B2160C946B340C94000081
:1006A0001F93CF93DF93EC0188E660E00E942C1E3D
:1006B000182F8823A1F481E00E94061E182F88239A
:1006C00071F488E661E00E942C1E182F882339F40B
:1006D000CE0160E00E94DA1D182F811118820E945D
:1006E000721E812FDF91CF911F9108951F93CF9399
:1006F000DF93EC0188E660E00E942C1E182F88230F
:10070000A1F489E00E94061E182F882371F488E660
:1007100061E00E942C1E182F882339F4CE0160E07E
:100720000E94DA1D182F811118820E94721E812FDB
:10073000DF91CF911F9108951F93CF93DF93EC0129
:1007400088E660E00E942C1E182F8823A1F488E020
:100750000E94061E182F882371F488E661E00E942B
:100760002C1E182F882339F4CE0160E00E94DA1D78
:10077000182F811118820E94721E812FDF91CF9154
:100780001F9108951F93CF93DF93EC0188E660E0FB
:100790000E942C1E182F8823A1F487E00E94061EB9
:1007A000182F882371F488E661E00E942C1E182F10
:1007B000882339F4CE0160E00E94DA1D182F8111E0
:1007C00018820E94721E812FDF91CF911F91089590
:1007D0001F93CF93DF93EC0188E660E00E942C1E0C
:1007E000182F8823A1F486E00E94061E182F882364
:1007F00071F488E661E00E942C1E182F882339F4DA
:10080000CE0160E00E94DA1D182F811118820E942B
:10081000721E812FDF91CF911F9108951F93CF9367
:10082000DF93EC0188E660E00E942C1E182F8823DD
:10083000A1F485E00E94061E182F882371F488E633
:1008400061E00E942C1E182F882339F4CE0160E04D
:100850000E94DA1D182F811118820E94721E812FAA
:10086000DF91CF911F9108951F93CF93DF93EC01F8
:1008700088E660E00E942C1E182F8823A1F484E0F3
:100880000E94061E182F882371F488E661E00E94FA
:100890002C1E182F882339F4CE0160E00E94DA1D47
:1008A000182F811118820E94721E812FDF91CF9123
:1008B0001F9108951F93CF93DF93EC0188E660E0CA
:1008C0000E942C1E182F8823A1F483E00E94061E8C
:1008D000182F882371F488E661E00E942C1E182FDF
:1008E000882339F4CE0160E00E94DA1D182F8111AF
:1008F00018820E94721E812FDF91CF911F9108955F
:100900001F93CF93DF93EC0188E660E00E942C1EDA
:10091000182F8823A1F482E00E94061E182F882336
:1009200071F488E661E00E942C1E182F882339F4A8
:10093000CE0160E00E94DA1D182F811118820E94FA
:10094000721E812FDF91CF911F9108951F93CF9336
:10095000DF93EC0188E660E00E942C1E182F8823AC
:10096000A1F480E00E94061E182F882371F488E607
:1009700061E00E942C1E182F882339F4CE0160E01C
:100980000E94DA1D182F811118820E94721E812F79
:10099000DF91CF911F91089581E00E94A71685E015
:1009A0000E9470160E945316A0E0B0E0BC01CD0179
:1009B0000E94742A20E030E040EA50E40E9473294B
:1009C0009B01AC0160E070E286E395E40E94DB29C4
:1009D00020E030E040E85FE30E947229089581E062
:1009E0000E94A71687E00E9470160E945316A0E08E
:1009F000B0E0BC01CD010E94742A20E030E040EA62
:100A000050E40E9473299B01AC0160E070E286E330
:100A100095E40E94DB2920E030E040E85FE30E949B
:100A20007229089581E00E94A71683E00E94701643
:100A30000E945316A0E0B0E0BC01CD010E94742AD0
:100A400020E030E040EA50E40E9473299B01AC01B1
:100A500060E070E286E395E40E94DB2920E030E06C
:100A600040E85FE30E947229089581E00E94A71682
:100A700084E00E9470160E945316A0E0B0E0BC0112
:100A8000CD010E94742A20E030E040EA50E40E9448
:100A900073299B01AC0160E070E286E395E40E945B
:100AA000DB2920E030E040E85FE30E9472290895EE
:100AB00081E00E94A71685E00E9470160E945316DE
:100AC000A0E0B0E0BC01CD010E94742A20E030E03B
:100AD00040EA5BE30E94642B089581E00E94A71620
:100AE00086E00E9470160E945316A0E0B0E0BC01A0
:100AF000CD010E94742A20E030E040EA5BE30E94CE
:100B0000642B08950F931F9381E08093540480E039
:100B10000E94DE1C082F81E00E94DE1C182F82E05C
:100B20000E94DE1C113019F422E030E006C020E003
:100B300030E0013011F421E030E0813011F423E0A5
:100B400030E0C9011F910F910895FF920F931F93F9
:100B5000CF93DF930E94BB1681E08093540480E022
:100B60000E94DE1C182F81E00E94DE1C082F82E00C
:100B70000E94DE1CF82E113019F0C0E0D0E013C046
:100B800080E091E00E94BD3380E20E94CA1784EFAA
:100B900091E00E947B1D80E40E94B51780E20E94D4
:100BA000B517C1E0D0E0013099F48CE091E00E94EB
:100BB000BD3380E40E94CA1784EF91E00E947B1D40
:100BC00080E40E94B51780E20E94B517C2E0D0E031
:100BD00081E0F816B1F488E191E00E94BD3380E431
:100BE0000E94CA1780E20E94CA1784EF91E00E9417
:100BF0007B1D80E40E94B51780E20E94B517C3E018
:100C0000D0E00E94BB16CE01DF91CF911F910F91D2
:100C1000FF90089506C0E82FF0E0EF5CFC4F808164
:100C200061506623C1F70895EF92FF920F931F93CF
:100C30006091C0037091C1038091C2039091C3037E
:100C400020E030E04CE052E40E94D729F82EFF1C4F
:100C5000FF24FF1CFF0CFF0CFF0C6091B803709188
:100C6000B9038091BA039091BB0320E030E04CE0DF
:100C700052E40E94D729082F001F0027001F000FF1
:100C8000000F6091C4037091C5038091C6039091D9
:100C9000C70320E030E04CE052E40E94D729182F2F
:100CA000111F1127111F110FEE246091BC037091C9
:100CB000BD038091BE039091BF0320E030E04CE083
:100CC00052E40E94D729882314F4EE24E3948F2D54
:100CD0008E0D800F810F8093D6032091D303E22FD6
:100CE000F0E0ED5BF94F91819093D703891719F4E8
:100CF0002F5F2093D3031F910F91FF90EF900895E2
:100D00002F923F924F925F926F927F928F929F921B
:100D1000AF92BF92CF92DF92EF92FF920F931F9309
:100D2000DF93CF93CDB7DEB764970FB6F894DEBFED
:100D30000FBECDBF882339F585EC94E09C8B8B8B5F
:100D4000ABE3B6E0BE83AD83E1ECF5E0FC83EB837F
:100D50008DE395E09A8389830F2EF0E02F2EF0E04B
:100D60003F2EF0E04F2EF0E05F2EF02D2F86388AD8
:100D7000498A5A8A2B863C864D865E862F82388623
:100D800049865A8643C0A090B803B090B903C0907A
:100D9000BA03D090BB03E090BC03F090BD03009178
:100DA000BE031091BF032090C0033090C103409058
:100DB000C2035090C3032091C4033091C5034091F6
:100DC000C6035091C70380E090E0FC01EB5AFB4F53
:100DD000A082B182C282D382FC01E553FA4FE08245
:100DE000F18202831383FC01EF5AFA4F2082318291
:100DF00042825382FC01E353FB4F208331834283C1
:100E0000538304968837910501F796CFAB89BC8947
:100E10002D913D914D915C911397FD012483358374
:100E200046835783AD81BE81ED90FD900D911C915D
:100E30001397FD01E482F58206831783AB81BC81A1
:100E4000AD90BD90CD90DC901397FD01A482B5824A
:100E5000C682D782A981BA816D907D908D909C9039
:100E60001397FD016482758286829782C201B10167
:100E70000E9473291B012C016F85788989899A89C1
:100E8000A80197010E9473296F87788B898B9A8BB1
:100E90006B857C858D859E85A60195010E947329B1
:100EA0006B877C878D879E876F81788589859A85FA
:100EB000A40193010E9473296F83788789879A8799
:100EC0008B899C8904979C8B8B8BAD81BE811497F9
:100ED000BE83AD83EB81FC813497FC83EB838981F6
:100EE0009A8104979A838983AB89BC89AD54B440B5
:100EF00009F08CCF8091B8039091B903A091BA0307
:100F0000B091BB03EB89FC8980879187A287B38767
:100F10008091BC039091BD03A091BE03B091BF032B
:100F20008093CB059093CC05A093CD05B093CE05CF
:100F30008091C0039091C103A091C203B091C303FB
:100F40008093510590935205A0935305B093540597
:100F50008091C4039091C503A091C603B091C703CB
:100F60008093CD049093CE04A093CF04B093D0048B
:100F7000C201B10120E030E040EF51E40E94DB29E2
:100F80006093B8037093B9038093BA039093BB0343
:100F90006F85788989899A8920E030E040EF51E4B3
:100FA0000E94DB296093BC037093BD038093BE0352
:100FB0009093BF036B857C858D859E8520E030E016
:100FC00040EF51E40E94DB296093C0037093C1039A
:100FD0008093C2039093C3036F81788589859A8536
:100FE00020E030E040EF51E40E94DB296093C4032D
:100FF0007093C5038093C6039093C70364960FB69E
:10100000F894DEBF0FBECDBFCF91DF911F910F913E
:10101000FF90EF90DF90CF90BF90AF909F908F9018
:101020007F906F905F904F903F902F900895AF9278
:10103000BF92CF92DF92EF92FF920F931F937B01AB
:101040008C01442361F080E090E0A0E0B0E0809368
:10105000B0039093B103A093B203B093B303C8015C
:10106000B7012091B0033091B1034091B203509188
:10107000B3030E9473295B016C016093B00370930A
:10108000B1038093B2039093B303C801B7012091D9
:10109000B4033091B5034091B6035091B7030E9459
:1010A000722920E030E040E050E00E94642B9B0178
:1010B000AC01C801B7010E9473297B018C01C601F4
:1010C000B50120E030E040E050E00E94642B9B013D
:1010D000AC01C801B7010E9473291F910F91FF90C5
:1010E000EF90DF90CF90BF90AF9008952F926F92C6
:1010F0007F928F929F92AF92BF92CF92DF92EF92A8
:10110000FF920F931F93DF93CF9300D000D0CDB702
:10111000DEB769837A838B839C836090C003709071
:10112000C1038090C2039090C3036091C403709187
:10113000C5038091C6039091C7030E94D729282E2A
:10114000221C2224221C220C6091B8037091B90346
:101150008091BA039091BB03A80197010E94D729FF
:10116000082F001F0027001F000F000F6091BC0315
:101170007091BD038091BE039091BF03A6019501BC
:101180000E94D729182F111F1127111F110F110F9E
:10119000110FFF24C401B30129813A814B815C8185
:1011A0000E94D729882314F4FF24F3942F0C200ED7
:1011B000822D810F0F900F900F900F90CF91DF91A4
:1011C0001F910F91FF90EF90DF90CF90BF90AF9065
:1011D0009F908F907F906F902F9008952F923F92C5
:1011E0004F925F926F927F928F929F92AF92BF9237
:1011F000CF92DF92EF92FF920F931F93DF93CF93E3
:10120000CDB7DEB7A0970FB6F894DEBF0FBECDBF47
:101210002B013C012D833E834F835887E986FA8654
:101220000B871C87AD86BE86CF86D88A282C3324B0
:10123000CA01B90120E030E040E050E00E94262BD6
:10124000181614F4332433946D817E818F81988530
:101250002CED38EB48E05EE30E94DB290E94432A34
:101260009B0177FF03C0309521953F4FB901882737
:1012700077FD8095982F0E94762A69837A838B83E5
:101280009C8369857A858B859C852CED38EB48E0BD
:101290005EE30E94DB290E94432A9B0177FF03C083
:1012A000309521953F4FB901882777FD8095982F7C
:1012B0000E94762A4B015C016D857E858F85988919
:1012C0002CED38EB48E05EE30E94DB290E94432AC4
:1012D0009B0177FF03C0309521953F4FB9018827C7
:1012E00077FD8095982F0E94762A6B017C01C301BF
:1012F000B20120E030E040E05FE40E94D72988237B
:10130000A1F569817A818B819C810E94482A2B01F9
:101310003C01C501B4010E94482A4B015C01C70190
:10132000B6010E94482A6B017C012DB73EB72950B7
:1013300030400FB6F8943EBF0FBE2DBFEDB7FEB7DD
:101340003196ADB7BEB712965C924E9211979382CA
:1013500082827583648326821086178281E062E030
:10136000432D920184017601C1C1C301B20120E085
:1013700030E040E050E00E94D7298823E9F56981F8
:101380007A818B819C810E94482A3B01C501B4016E
:101390000E94482A8B01C701B6010E94482A7B019E
:1013A0002DB73EB7295030400FB6F8943EBF0FBE60
:1013B0002DBFEDB7FEB7319640E0332009F441E090
:1013C0007182608213830283F582E4822682108612
:1013D000178281E062E09301C22CAA24BB24832CF3
:1013E0000E949C1981E0ADB7BEB719960FB6F8946C
:1013F000BEBF0FBEADBF89C1C301B20120E030E066
:1014000040E050E00E94262B18160CF0B1C066E6B2
:1014100076E68AEA91ECA30192010E94DB2920E0A2
:1014200030E040E85FE30E9473297B018C0166E6AF
:1014300076E68AEA91E4A30192010E94DB2920E08A
:1014400030E040E85FE30E9473295B016C01EDB777
:10145000FEB739970FB6F894FEBF0FBEEDBF8DB63D
:101460009EB60894811C911C6D817E818F81988528
:10147000A80197010E94642B2CED38EB48E05EE355
:101480000E94DB290E94482A698B7A8B8B8B9C8B6C
:1014900069857A858B859C85A80197010E94642BBC
:1014A0002CED38EB48E05EE30E94DB290E94482ADD
:1014B0006D8B7E8B8F8B988F6D857E858F859889C0
:1014C000A80197010E94642B2CED38EB48E05EE305
:1014D0000E94DB290E94482A2B013C016D817E81FC
:1014E0008F819885A60195010E94642B2CED38EB25
:1014F00048E05EE30E94DB290E94482AD4016D93F4
:101500007C9369857A858B859C85A60195010E94CF
:10151000642B2CED38EB48E05EE30E94DB290E944F
:10152000482AF401738362836D857E858F8598894F
:10153000A60195010E94642B2CED38EB48E05EE398
:101540000E94DB290E94482AD40115967C936E9351
:10155000149716962C92169718961C921E9217970F
:1015600081E062E0432D29893A890D891E89BDC039
:10157000C301B20120E030E040E050E00E94D729F2
:1015800087FD02C080E0C1C066E676E68AEA91E4A3
:10159000A30192010E94DB2920E030E040E85FE3F4
:1015A0000E9473297B018C0166E676E68AEA91EC5B
:1015B000A30192010E94DB2920E030E040E85FE3D4
:1015C0000E9473295B016C012DB73EB72950304052
:1015D0000FB6F8943EBF0FBE2DBF8DB69EB60894D1
:1015E000811C911C6D817E818F819885A801970156
:1015F0000E94642B2CED38EB48E05EE30E94DB296F
:101600000E94482A698F7A8F8B8F9C8F69857A8593
:101610008B859C85A80197010E94642B2CED38EBEB
:1016200048E05EE30E94DB290E94482A6D8F7E8F8E
:101630008F8F98A36D857E858F859889A8019701E6
:101640000E94642B2CED38EB48E05EE30E94DB291E
:101650000E94482A2B013C016D817E818F819885F3
:10166000A60195010E94642B2CED38EB48E05EE367
:101670000E94DB290E94482AD4016D937C936985DE
:101680007A858B859C85A60195010E94642B2CEDA3
:1016900038EB48E05EE30E94DB290E94482AF4010F
:1016A000738362836D857E858F859889A6019501F8
:1016B0000E94642B2CED38EB48E05EE30E94DB29AE
:1016C0000E94482AD40115967C936E93149716961F
:1016D0002C92169718961C921E92179781E062E042
:1016E000432D298D3A8D0D8D1E8D7201C22CAA2499
:1016F000BB24832C0E949C1981E0EDB7FEB739967C
:101700000FB6F894FEBF0FBEEDBFA0960FB6F894CB
:10171000DEBF0FBECDBFCF91DF911F910F91FF9024
:10172000EF90DF90CF90BF90AF909F908F907F9081
:101730006F905F904F903F902F9008952F923F921F
:101740004F925F926F927F928F929F92AF92BF92D1
:10175000CF92DF92EF92FF920F931F93DF93CF937D
:10176000CDB7DEB7A0970FB6F894DEBF0FBECDBFE2
:101770002B013C012D833E834F835887E986FA86EF
:101780000B871C87AD86BE86CF86D88A282C33244B
:10179000CA01B90120E030E040E050E00E94262B71
:1017A000181614F4332433946D817E818F819885CB
:1017B0002CED38EB48E05EE30E94DB290E94432ACF
:1017C0009B0177FF03C0309521953F4FB9018827D2
:1017D00077FD8095982F0E94762A69837A838B8380
:1017E0009C8369857A858B859C852CED38EB48E058
:1017F0005EE30E94DB290E94432A9B0177FF03C01E
:10180000309521953F4FB901882777FD8095982F16
:101810000E94762A4B015C016D857E858F859889B3
:101820002CED38EB48E05EE30E94DB290E94432A5E
:101830009B0177FF03C0309521953F4FB901882761
:1018400077FD8095982F0E94762A6B017C01C30159
:10185000B20120E030E040E05FE40E94D729882315
:10186000A1F569817A818B819C810E94482A2B0194
:101870003C01C501B4010E94482A4B015C01C7012B
:10188000B6010E94482A6B017C012DB73EB7295052
:1018900030400FB6F8943EBF0FBE2DBFEDB7FEB778
:1018A0003196ADB7BEB712965C924E921197938265
:1018B00082827583648326821086178280E062E0CC
:1018C000432D920184017601C1C1C301B20120E020
:1018D00030E040E050E00E94D7298823E9F5698193
:1018E0007A818B819C810E94482A3B01C501B40109
:1018F0000E94482A8B01C701B6010E94482A7B0139
:101900002DB73EB7295030400FB6F8943EBF0FBEFA
:101910002DBFEDB7FEB7319640E0332009F441E02A
:101920007182608213830283F582E48226821086AC
:10193000178280E062E09301C22CAA24BB24832C8E
:101940000E949C1981E0ADB7BEB719960FB6F89406
:10195000BEBF0FBEADBF89C1C301B20120E030E000
:1019600040E050E00E94262B18160CF0B1C066E64D
:1019700076E68AEA91ECA30192010E94DB2920E03D
:1019800030E040E85FE30E9473297B018C0166E64A
:1019900076E68AEA91E4A30192010E94DB2920E025
:1019A00030E040E85FE30E9473295B016C01EDB712
:1019B000FEB739970FB6F894FEBF0FBEEDBF8DB6D8
:1019C0009EB60894811C911C6D817E818F819885C3
:1019D000A80197010E94642B2CED38EB48E05EE3F0
:1019E0000E94DB290E94482A698B7A8B8B8B9C8B07
:1019F00069857A858B859C85A80197010E94642B57
:101A00002CED38EB48E05EE30E94DB290E94482A77
:101A10006D8B7E8B8F8B988F6D857E858F8598895A
:101A2000A80197010E94642B2CED38EB48E05EE39F
:101A30000E94DB290E94482A2B013C016D817E8196
:101A40008F819885A60195010E94642B2CED38EBBF
:101A500048E05EE30E94DB290E94482AD4016D938E
:101A60007C9369857A858B859C85A60195010E946A
:101A7000642B2CED38EB48E05EE30E94DB290E94EA
:101A8000482AF401738362836D857E858F859889EA
:101A9000A60195010E94642B2CED38EB48E05EE333
:101AA0000E94DB290E94482AD40115967C936E93EC
:101AB000149716962C92169718961C921E921797AA
:101AC00080E062E0432D29893A890D891E89BDC0D5
:101AD000C301B20120E030E040E050E00E94D7298D
:101AE00087FD02C080E0C1C066E676E68AEA91E43E
:101AF000A30192010E94DB2920E030E040E85FE38F
:101B00000E9473297B018C0166E676E68AEA91ECF5
:101B1000A30192010E94DB2920E030E040E85FE36E
:101B20000E9473295B016C012DB73EB729503040EC
:101B30000FB6F8943EBF0FBE2DBF8DB69EB608946B
:101B4000811C911C6D817E818F819885A8019701F0
:101B50000E94642B2CED38EB48E05EE30E94DB2909
:101B60000E94482A698F7A8F8B8F9C8F69857A852E
:101B70008B859C85A80197010E94642B2CED38EB86
:101B800048E05EE30E94DB290E94482A6D8F7E8F29
:101B90008F8F98A36D857E858F859889A801970181
:101BA0000E94642B2CED38EB48E05EE30E94DB29B9
:101BB0000E94482A2B013C016D817E818F8198858E
:101BC000A60195010E94642B2CED38EB48E05EE302
:101BD0000E94DB290E94482AD4016D937C93698579
:101BE0007A858B859C85A60195010E94642B2CED3E
:101BF00038EB48E05EE30E94DB290E94482AF401AA
:101C0000738362836D857E858F859889A601950192
:101C10000E94642B2CED38EB48E05EE30E94DB2948
:101C20000E94482AD40115967C936E9314971696B9
:101C30002C92169718961C921E92179780E062E0DD
:101C4000432D298D3A8D0D8D1E8D7201C22CAA2433
:101C5000BB24832C0E949C1981E0EDB7FEB7399616
:101C60000FB6F894FEBF0FBEEDBFA0960FB6F89466
:101C7000DEBF0FBECDBFCF91DF911F910F91FF90BF
:101C8000EF90DF90CF90BF90AF909F908F907F901C
:101C90006F905F904F903F902F9008952F923F92BA
:101CA0004F925F926F927F928F929F92AF92BF926C
:101CB000CF92DF92EF92FF920F931F93DF93CF9318
:101CC00000D000D0CDB7DEB76090C0037090C103E4
:101CD0008090C2039090C303A090C403B090C5034A
:101CE000C090C603D090C703E090BC03F090BD0342
:101CF0000091BE031091BF038091B8039091B90386
:101D0000A091BA03B091BB0389839A83AB83BC8350
:101D1000C801B70129813A814B815C810E947229F7
:101D20001B012C01C401B30120E030E040EE50E47F
:101D30000E94D72987FD0BC0C601B50120E030E025
:101D400040EE50E40E94D72988230CF068C0C401FB
:101D5000B301A60195010E9472297B018C017724B1
:101D600020E030E040E050E00E94262B882314F071
:101D700077247394C801B7010E94432A9B0177FF1F
:101D800003C0309521953F4FB901882777FD809595
:101D9000982F0E94762A6B017C01ADB7BEB71997C8
:101DA0000FB6F894BEBF0FBEADBF0DB71EB70F5F25
:101DB0001F4FA20191010E9473290E94482A4B01E2
:101DC0005C0182E390E0F80191838083C701B60152
:101DD000A20191010E9472290E94482AD8011396FB
:101DE0007C936E93129782EC91E015969C938E9360
:101DF000149716961C92169718961C921E92179777
:101E000081E062E0472D22E330E0840172ECE72EAE
:101E100071E0F72ECC24AA24BB24872C82C0C801F1
:101E2000B70120E030E040E251E40E94D729882346
:101E3000B4F5C201B1010E94432A8B0177FF03C0B0
:101E4000109501951F4F2DB73EB7295030400FB662
:101E5000F8943EBF0FBE2DBFEDB7FEB7319688ECAC
:101E600090E0ADB7BEB712969C938E9311971383F3
:101E7000028382EC91E09583848316821086178218
:101E800081E062E040E028EC30E052ECE52E51E0E9
:101E9000F52ECC24AA24BB248824839442C06981D3
:101EA0007A818B819C8120E030E040E251E40E9405
:101EB000D72987FD02C080E03FC0C201B1010E9466
:101EC000432A8B0177FF03C0109501951F4F2DB753
:101ED0003EB7295030400FB6F8943EBF0FBE2DBF1D
:101EE000EDB7FEB7319688EC90E0ADB7BEB712966D
:101EF0009C938E9311971383028382EC91E09583D8
:101F0000848316821086178281E062E041E028EC2B
:101F100030E092ECE92E91E0F92ECC24AA24BB24E7
:101F200088240E949C1981E0EDB7FEB739960FB660
:101F3000F894FEBF0FBEEDBF0F900F900F900F9063
:101F4000CF91DF911F910F91FF90EF90DF90CF9095
:101F5000BF90AF909F908F907F906F905F904F90C9
:101F60003F902F9008952F923F924F925F926F92E1
:101F70007F928F929F92AF92BF92CF92DF92EF9219
:101F8000FF920F931F93E090C003F090C103009164
:101F9000C2031091C3033324C801B70120E030E02D
:101FA00040E050E00E94D729882314F4332433946E
:101FB000A090BC03B090BD03C090BE03D090BF03FF
:101FC0004090B8035090B9036090BA037090BB037F
:101FD00088246091C4037091C5038091C6039091D9
:101FE000C70320E030E040E751E40E94D72988236E
:101FF00014F488248394932C98288824C601B5016E
:1020000020E030E040E251E40E94D729882314F414
:102010008824839498288824C301B20120E030E00A
:1020200040E251E40E94D729882314F48824839441
:10203000292C282881F460E070E080E09FE420E013
:1020400030E040E251E479018A0159016A018824B3
:102050000E94EE08F7C0C601B50120E030E040E282
:1020600051E40E94262B181664F480E090E0A0E072
:10207000B1EC8093BC039093BD03A093BE03B093D7
:10208000BF03C301B20120E030E040E251E40E940E
:10209000262B181614F080E00DC080E090E0A0E040
:1020A000B1EC8093B8039093B903A093BA03B093B3
:1020B000BB0381E0332021F1882329F060E070E048
:1020C0008AE794E404C060E070E08AE794ECA80139
:1020D00097010E94DB292091B8033091B903409108
:1020E000BA035091BB030E9473299B01AC0160911C
:1020F000BC037091BD038091BE039091BF0310C0DB
:102100006091BC037091BD038091BE039091BF03A9
:102110002091B8033091B9034091BA035091BB03A9
:102120000E947229905840E00E9417086B017C01C0
:102130000E94432A8B0177FF03C0109501951F4F22
:1021400005361105FCF0C701B60120E030E040E0A3
:1021500050E00E94D7298823A9F0B801882777FD8D
:102160008095982F0E94762A9B01AC01C701B60189
:102170000E94DB2920E030E048EC52E40E94642B0E
:102180006B017C01C701B60120E030E048EC52E46D
:102190000E94DB296B017C018DB79EB709970FB6B2
:1021A000F8949EBF0FBE8DBF0DB71EB70F5F1F4FB8
:1021B000C701B60120E030E048EC52E40E94642BF5
:1021C00020E030E048EC52E40E9473290E94482A43
:1021D0004B015C0182E390E0F80191838083C701A9
:1021E000B60120E030E048EC52EC0E94642B20E085
:1021F00030E048EC52E40E9473290E94482AF8011A
:102200007383628382EC91E09583848316821086C7
:10221000178281E062E041E022E330E08401E2ECF9
:10222000EE2EE1E0FE2ECC24AA24BB248824839445
:102230000E949C198DB79EB709960FB6F8949EBF61
:102240000FBE8DBF822D1F910F91FF90EF90DF90F9
:10225000CF90BF90AF909F908F907F906F905F9046
:102260004F903F902F9008950E94AD1C282F217011
:102270002093C90590E08270907095958795809322
:10228000CA0508950E9458056093C8037093C90356
:102290008093CA039093CB030E946D056093CC0397
:1022A0007093CD038093CE039093CF0308950E9443
:1022B000EF046093C0037093C1038093C2039093B3
:1022C000C3030E94CC046093C4037093C50380933E
:1022D000C6039093C7030E9435056093B8037093BB
:1022E000B9038093BA039093BB030E9412056093D5
:1022F000BC037093BD038093BE039093BF03089506
:102300008F92AF92BF92CF92DF92EF92FF920F9394
:102310001F93CF93DF930E94D418672B09F076C0E8
:10232000892B09F073C00E9482328C010E94823294
:10233000EC010E9482327C010E94823220E06AE03D
:1023400070E00E94B33008970CF021E0822E809458
:10235000C80160E971E00E94B330B0E9AB2EB1E092
:10236000BB2EA80EB91E8DB79EB709970FB6F8946D
:102370009EBF0FBE8DBF0DB71EB70F5F1F4FC701AA
:1023800068EC70E00E94B33088539F4FAA2797FDF6
:10239000A095BA2FBC01CD010E94762A0E94482A3E
:1023A0006B017C01F801B182A082CE0168EC70E083
:1023B0000E94B33088539F4FAA2797FDA095BA2F4C
:1023C000BC01CD010E94762A0E94482AF80173833D
:1023D000628382EC91E09583848316821086178253
:1023E00081E062E0482D95018601A2ECEA2EA1E091
:1023F000FA2ECC24AA24BB240E949C198DB79EB728
:1024000009960FB6F8949EBF0FBE8DBF81E0DF9195
:10241000CF911F910F91FF90EF90DF90CF90BF90E1
:10242000AF908F9008958F92AF92BF92CF92DF922C
:10243000EF92FF920F931F930E94BB168091D303DC
:10244000282F30E0F901EB5BFA4FE081E093D103F4
:10245000E230B1F1E33009F463C0E13009F0B2C019
:102460008DB79EB708970FB6F8949EBF0FBE8DBF6D
:10247000EDB7FEB7319684E291E0ADB7BEB71296E4
:102480009C938E931197338322838091D603848308
:1024900015828091D703868317820E94AB33EDB7F4
:1024A000FEB738960FB6F894FEBF0FBEEDBF60E0E2
:1024B00070E080E090E020E030E040E951EC5FC067
:1024C0008DB79EB708970FB6F8949EBF0FBE8DBF0D
:1024D000EDB7FEB731968FE491E0ADB7BEB7129677
:1024E0009C938E931197338322838091D6038483A8
:1024F00015828091D703868317820E94AB33EDB794
:10250000FEB738960FB6F894FEBF0FBEEDBF60E081
:1025100070E080E09FE428E431EE46E352E42FC00F
:102520008DB79EB708970FB6F8949EBF0FBE8DBFAC
:10253000EDB7FEB731968DE791E0ADB7BEB7129615
:102540009C938E931197338322838091D603848347
:1025500015828091D703868317820E94AB33EDB733
:10256000FEB738960FB6F894FEBF0FBEEDBF60E021
:1025700070E080E090E020E030E040E951E40F2E90
:10258000F0E0EF2EF0E0FF2EF0E20F2FF1E41F2F2E
:10259000F02D5701680188240E949E0B8091D10381
:1025A0008093D2038091D3038F5F8093D30381E024
:1025B0001F910F91FF90EF90DF90CF90BF90AF9061
:1025C0008F90089500D089EA91E0ADB7BEB712961A
:1025D0009C938E9311970E94AB330F900F9082E0E3
:1025E00060E00E94AB1BFFCF8F92AF92BF92CF9261
:1025F000DF92EF92FF920F931F930E94BB16E09120
:10260000D303F0E0EB5BFA4FE081E093D10380E08D
:10261000E13009F481E090E0E33009F491E0892BA6
:10262000282F30E040E050E08091D203823011F456
:1026300041E050E024233523232BB9F060E070E023
:1026400080E09FE42DEB34E74BED51E40F2EF0E0FA
:10265000EF2EF0E0FF2EF0E20F2FF1E41F2FF02D10
:102660005701680188240E949E0B8091D10382301B
:10267000C1F1833009F461C0813009F09FC08DB78A
:102680009EB708970FB6F8949EBF0FBE8DBFEDB7EB
:10269000FEB7319684E291E0ADB7BEB712969C9337
:1026A0008E9311978091D303828313828091D603F6
:1026B000848315828091D703868317820E94AB336F
:1026C000EDB7FEB738960FB6F894FEBF0FBEEDBF5C
:1026D00060E070E080E090E020E030E040E951EC24
:1026E0005DC08DB79EB708970FB6F8949EBF0FBE1A
:1026F0008DBFEDB7FEB731968FE491E0ADB7BEB7B1
:1027000012969C938E9311978091D30382831382A8
:102710008091D603848315828091D70386831782A4
:102720000E94AB33EDB7FEB738960FB6F894FEBFF4
:102730000FBEEDBF0E94B30F53C08DB79EB7089771
:102740000FB6F8949EBF0FBE8DBFEDB7FEB73196A2
:102750008DE791E0ADB7BEB712969C938E9311971B
:102760008091D303828313828091D6038483158260
:102770008091D703868317820E94AB33EDB7FEB7F3
:1027800038960FB6F894FEBF0FBEEDBF60E070E064
:1027900080E090E020E030E040E951E40F2EF0E0EE
:1027A000EF2EF0E0FF2EF0E20F2FF1E41F2FF02DBF
:1027B0005701680188240E949E0B12C000D089EA4C
:1027C00091E0ADB7BEB712969C938E9311970E947D
:1027D000AB330F900F9082E060E00E94AB1BFFCF05
:1027E0008091D1038093D20381E01F910F91FF90DC
:1027F000EF90DF90CF90BF90AF908F9008950E94A0
:10280000F412882369F080E090E0A0E0B0E08093CB
:10281000B0039093B103A093B203B093B30381E0EC
:102820000895FF920F931F93CF93DF9310E0FF243F
:10283000F394C0EBD1E00E948205082F813021F093
:10284000823011F0833039F4E12FF0E0EB5BFA4F86
:1028500000831F5F02C0882321F10E94BB168DB741
:102860009EB708970FB6F8949EBF0FBE8DBFEDB709
:10287000FEB73196ADB7BEB71296DC93CE931197E3
:10288000F282138204831582168317820E94AB336F
:10289000F02E8DB79EB708960FB6F8949EBF0FBE68
:1028A0008DBF84EF91E00E947B1D1B3020F21F5FE3
:1028B000E12FF0E0EB5BFA4F84E08083DF91CF9172
:1028C0001F910F91FF9008951F93CF93DF9310E016
:1028D000C1EED1E00E948205813021F48091D403C1
:1028E000880F06C0823039F48091D403880F8F5F3F
:1028F0008093D4031F5F0E94BB1600D000D000D08D
:10290000EDB7FEB73196ADB7BEB71296DC93CE9356
:1029100011978091D40382831382148315820E94BD
:10292000AB338DB79EB706960FB6F8949EBF0FBE19
:102930008DBF84EF91E00E947B1D143058F2DF912F
:10294000CF911F910895EF92FF920F931F93CF9312
:10295000DF938091D403682F669566956C708370C1
:102960003091D50340E050E0FA01EB5BFA4F708103
:10297000E62FF0E0EE0FFF1FEE0FFF1FE80FF11D37
:10298000EF5BFC4F2081932F06C0E22FF0E0EF5C5D
:10299000FC4F208191509923C1F7FA01ED5BF94F6B
:1029A0002083723089F4313049F0313028F03230F0
:1029B00039F0333089F406C061500EC08F5F0CC00F
:1029C0006F5F0AC0815008C0733011F43F5F03C0CD
:1029D000713011F4315033704F5F5F4F4D305105FE
:1029E00019F6C0E0D0E0B9E0EB2EB2E0FB2EFE011C
:1029F000ED5BF94F00810E94BB16202F30E08DB7B0
:102A00009EB744970FB6F8949EBF0FBE8DBFEDB72B
:102A1000FEB73196ADB7BEB71296FC92EE92119703
:102A2000D383C283112707FD10950027110F001FC4
:102A3000112715830483C90176E0969587957A95C9
:102A4000E1F78170907097838683C90165E0969560
:102A500087956A95E1F78170907091878087C901A9
:102A600054E0969587955A95E1F781709070938719
:102A70008287C90143E0969587954A95E1F7817071
:102A8000907095878487C9019695879596958795C7
:102A90008170907097878687C90196958795817018
:102AA0009070918B808B21703070338B228B0E94C1
:102AB000AB338DB79EB744960FB6F8949EBF0FBE4A
:102AC0008DBF84EF91E00E947B1D2196CD30D10512
:102AD00009F08DCFDF91CF911F910F91FF90EF9073
:102AE00008951F93CF93DF9310E0CBE2D2E00E94D2
:102AF0008205813021F48091D503880F06C0823091
:102B000041F48091D503880F8F5F8093D5031F5FB9
:102B100002C08823F1F00E94BB1600D000D000D084
:102B2000EDB7FEB73196ADB7BEB71296DC93CE9334
:102B300011978091D50382831382148315820E949A
:102B4000AB338DB79EB706960FB6F8949EBF0FBEF7
:102B50008DBF84EF91E00E947B1D123040F20E94F5
:102B6000BB168091D503813051F0813028F082303E
:102B700049F0833071F409C08AE592E008C08CE71F
:102B800092E005C08DE992E002C08FEB92E00E94D6
:102B9000BD3384EF91E00E947B1DDF91CF911F91A7
:102BA00008950E942C1D90935404809353040E9416
:102BB000C11790935204809351040E94D8169093A9
:102BC000500480934F040E94431A81E00E94C7186A
:102BD0000E94C1170E94861E0E94451681E00E9435
:102BE000A7160E94571181E00E94800680EE92E0B5
:102BF0000E94BD3388EE93E00E947B1D0E94BB16AD
:102C00000E94641488EE93E00E947B1D0E94BB1614
:102C100082EF92E00E94BD3388EE93E00E947B1D1C
:102C20000E94BB160E94711588EE93E00E947B1DE6
:102C30000E94BB1687E093E00E94BD3388EE93E0CC
:102C40000E947B1D0E94BB160E94111488EE93E027
:102C50000E947B1D0E94BB168EE193E00E94BD3353
:102C600088EE93E00E947B1D0E94BB160E94A31475
:102C700088EE93E00E947B1D0E94BB160E945711B4
:102C80000E9414060E94F412F9CF8FE00E941E1CCD
:102C9000882331F40E94AD1E8FE061E00E94661C23
:102CA0008FE091E008958FE00E941E1C813019F0A2
:102CB00020E030E013C080917A00806480937A0035
:102CC00080917A0086FDFCCF3091780020917900C8
:102CD000922F80E0232F30E0282B392BC901089553
:102CE000582F809151038830D8F440917E0021E024
:102CF00030E0B90102C0660F771F8A95E2F7CB0179
:102D00008095842380937E0080917E00052E02C0F2
:102D1000220F331F0A94E2F7822B80937E000DC0AE
:102D200020917E0081E090E0052E02C0880F991F5F
:102D30000A94E2F7282B20937E0050935103809150
:102D40007C005F71807E852B80937C000895ECE78A
:102D5000F0E090818295880F880F807C9F73982B7C
:102D6000908308950E94C61E0E94B81E0E94D1152D
:102D700080E090E008950F931F9380E460E00E944C
:102D80009A1700E0802F60E00E94811710E080E039
:102D900061E00E949A171F5F1038C9F70F5F043077
:102DA00089F783E060E00E947A171F910F910895E0
:102DB0000F931F9382E00E941E1C882311F482E06F
:102DC00006C081E00E941E1C882319F481E090E077
:102DD0006DC00E942E2185E061E00E94661C8EEA93
:102DE00060E00E949A1782EA60E00E949A1780EAE7
:102DF00060E00E949A1700E513ECC8010197F1F713
:102E000080EC60E00E949A178FE260E00E949A17BF
:102E100081E860E00E949A1786E160E00E949A17BC
:102E200082E260E00E949A17C8010197F1F78FEAE9
:102E300060E00E949A1786EA60E00E949A1785EA8D
:102E400060E00E949A1780E090E028E833E1F90101
:102E50003197F1F7019643E0883E9407C1F783EB81
:102E600060E00E949A1780E460E00E949A1783E075
:102E700060E00E94811783E060E00E947A17109260
:102E80009D0610929F0610929E0680E693E0909316
:102E9000CE068093CD0688E10E9459170E94BB168A
:102EA00084EA60E00E949A1785E091E01F910F91FB
:102EB00008951F93182F85E00E941E1C8130C1F4D5
:102EC00087E00E94D61782E06AE00E94271882E01D
:102ED00061EB0E942718612F113208F060E282E056
:102EE0000E94271889EE8A95F1F787E00E94D6178D
:102EF0001F91089583706F7760939B0680939C0663
:102F000008950F931F93062F162F1F778370806BE2
:102F100060E00E949A1712951F70812F806160E017
:102F20000E949A17802F8F7060E00E949A171F915D
:102F30000F9108950F931F93082F162F85E00E947D
:102F40001E1C813079F4112319F0113021F402C0D4
:102F50002B9801C02B9A86E08A95F1F780E0602FCC
:102F60000E9427181F910F9108951F93182F86E034
:102F70000E941E1C813019F4812F0E94DD211F91B7
:102F800008950E94E22186E061E00E94661C86E0CE
:102F900091E008951F93182F86E00E941E1C813037
:102FA00019F4812F0E94E5211F9108951F93182F76
:102FB00082E00E941E1C813009F047C0912F97705B
:102FC0008091A006981709F440C09093A00685B19F
:102FD000887F892B85B9933011F1943028F4913092
:102FE00051F0923090F40CC0953019F19530E0F02A
:102FF000963021F50FC0E0912A04F0912B0422C0F5
:10300000E0912804F09129041DC0E0912C04F09176
:103010002D0418C0E0913404F091350413C0E09100
:103020002E04F0912F040EC0E0913004F091310491
:1030300009C0E0913204F091330404C0E0913604F9
:10304000F0913704309709F009951F9108951F9367
:10305000162F0E94D61782E00E941E1C813021F498
:103060001EBD0DB407FEFDCF1F9108950F931F9352
:10307000CF93DF9380E291E00E9433319C019093E3
:10308000470480934604892B11F480E039C08901FC
:10309000C0E0D0E0BE0180E090E00E94742A20E011
:1030A00030E040EA51E40E94DB2927EF35E740E0B9
:1030B0005FE30E94642B9B01AC0160E070E080E262
:1030C00091E40E94C72B9B01AC01CA01B9012DEC10
:1030D0003CEC42E851E40E94642B0E942A2B2AE037
:1030E00030E040E050E00E949430F8016193719329
:1030F000819391938F012196C834D10559F681E0CF
:10310000DF91CF911F910F9108958AE00E941E1CBC
:10311000882371F4109243041092420481E00E94CB
:10312000202381E0809339048AE061E00E94661CDC
:103130008AE091E008951F938BE00E941E1C882373
:1031400011F090E021C089E00E941E1C8823D9F470
:103150000E943618182F8130B1F410923A04109260
:103160003B0410923C0410923D048DE063EA72E24D
:103170000E94062182E00E9420231093380489E0F7
:1031800061E00E94661C91E089E01F910895813002
:1031900029F0823031F090E089E008950E9485188E
:1031A00008950E949B18089580916106909162068F
:1031B0002091630630916406BC01C90108952F92E5
:1031C0003F924F925F926F927F928F929F92AF92B7
:1031D000BF92CF92DF92EF92FF920F931F93DF93F4
:1031E000CF93CDB7DEB7582E962E442E39013C2C06
:1031F000C98CDA8C2B8C81E0681739F1681728F0BC
:1032000092E0691709F085C049C080E061E00E9442
:10321000E81A80E0B7010E94B11A80E0642DA30192
:103220009801032DEE24E394E6E8CE2EE6E0DE2EB0
:103230000E941F1B552009F06CC000D00F92EDB703
:10324000FEB71182B382A28223C081E061E00E94B6
:10325000E81A81E0B6010E94B11A81E0682D4D891B
:103260005E892F89388D022DEE24E39476E8C72EEF
:1032700076E0D72E0E941F1B552009F04AC000D0CF
:103280000F92EDB7FEB791828C8D9D8D93838283D3
:103290000E94D01B0F900F900F903BC082E061E026
:1032A0000E94E81A80E0B7010E94B11A81E0B601DD
:1032B0000E94B11A80E0642DA3019801032DEE2431
:1032C000E39496E8C92E96E0D92E0E941F1B81E058
:1032D000682D4D895E892F89388D022D0E941F1B14
:1032E0005520B9F400D000D00F92ADB7BEB71196FB
:1032F000EDB7FEB79182FD01B282A1828C8D9D8DCA
:10330000948383830E94D01B0F900F900F900F9097
:103310000F90CF91DF911F910F91FF90EF90DF9071
:10332000CF90BF90AF909F908F907F906F905F9065
:103330004F903F902F9008956F927F928F929F921F
:10334000AF92BF92CF92DF92EF92FF920F931F93B3
:10335000DF93CF93CDB7DEB7942E7C2DD50149896D
:103360005A89AB88BC88CD88DE889F89813009F472
:1033700057C08130B8F1823009F076C0613091F0E9
:10338000613020F0623009F06FC015C080E060E06D
:103390000E94E81A80E0B7010E94B11A80E0692D0E
:1033A000A8011DC081E060E00E94E81A81E0B6013A
:1033B0000E94B11A11C082E060E00E94E81A80E029
:1033C000B7010E94B11A81E0B6010E94B11A80E0F3
:1033D000692DA8010E949A1A81E0682DA5010E941A
:1033E0009A1A42C0EDB7FEB739970FB6F894FEBFF0
:1033F0000FBEEDBF6DB67EB60894611C711C528382
:103400004183F301B382A282D582C4829683888DE0
:10341000998D9087878380E0492DC72E5D011AC062
:10342000EDB7FEB739970FB6F894FEBF0FBEEDBFEC
:10343000ADB7BEB7119652834183FD01B382A2821C
:10344000D582C48296831086178281E0492DC72ECB
:10345000AA24BB240E94DF188DB79EB709960FB629
:10346000F8949EBF0FBE8DBFCF91DF911F910F913A
:10347000FF90EF90DF90CF90BF90AF909F908F9094
:103480007F906F9008950E94B22381E0809385061B
:10349000EFE4F6E0119211921182108232961182BD
:1034A00010823296118210823296118210823296E8
:1034B000118210823296118210823296118210820D
:1034C00032961182108232961182108232961182C7
:1034D00010823296118210823296118210823696B4
:1034E00011921192119210823296119211921192B0
:1034F00011921192119211921182108232961182C0
:103500001082329611821082329611821082769742
:1035100011821082329611821082109284061092CB
:1035200083061092850687E061E00E94661C87E0B2
:1035300091E00895EF92FF920F931F93182F062F9B
:103540007A0160E00E94E81A812F602F0E94D31A4E
:10355000812FB7010E94FD1A1F910F91FF90EF90EC
:103560000895482F81E080938506CB0123E0693ED2
:10357000720710F088EE93E0413071F0413018F09E
:10358000423071F405C090935A068093590608C0E2
:1035900090935A068093590690935C0680935B063D
:1035A000109285060895982F81E0809385069130CA
:1035B00051F0913018F0923041F403C060937206DC
:1035C00004C0609372066093730610928506089596
:1035D000982F81E080938506913051F0913018F05A
:1035E000923041F403C060934F0604C060934F06CD
:1035F00060935006109285060895482F81E08093CD
:103600008506CB0121E06139720710F080E991E075
:10361000413071F0413018F0423071F405C09093A0
:1036200052068093510608C090935206809351062B
:1036300090935406809353061092850608958F92B6
:103640009F92AF92BF92CF92DF92EF92FF920F9331
:103650001F93CF93DF93182FF62E5A014901E601ED
:1036600061E00E94E81A812FB501A4010E94EC23B9
:10367000812F6F2D0E94D31A812F602F0E94D72394
:10368000812FB5010E94BC23C114D10499F01130DF
:1036900049F0113018F0123069F406C01882109207
:1036A000810608C0198204C018821982109281060E
:1036B00010928206D0938406C0938306EE20B9F55B
:1036C00088ED93E09093840680938306812FB40164
:1036D0000E94FD1A812F0E949D23113071F011303C
:1036E00018F0123059F512C01092D80310928106CA
:1036F0008091D8038823E1F321C01092D90310925E
:1037000082068091D9038823E1F318C01092D80370
:103710001092D90310928106109282068091D803EC
:103720008823E1F38091D9038823C1F307C0812F57
:10373000B4010E94FD1A812F0E949D23DF91CF9139
:103740001F910F91FF90EF90DF90CF90BF90AF90BF
:103750009F908F9008950F931F93182F062F662325
:1037600049F460E070E00E94FD1A812F60E070E093
:103770000E94BC2381E080938506113051F0113006
:1037800018F0123041F403C000936D0604C000939A
:103790006D0600936E06109285061F910F91089595
:1037A000CF92DF92EF92FF920F931F93DF93CF930D
:1037B000CDB7DEB78B85813061F0813018F0823073
:1037C000A1F511C0EC85FD85809186068823E1F383
:1037D00006C0EC85FD85809187068823E1F330974C
:1037E00021F1099522C0CC84DD84EE84FF8400E0C1
:1037F00010E0002351F480918606882331F0C11433
:10380000D10411F0F601099501E0112351F48091E2
:103810008706882331F0E114F10411F0F7010995CE
:1038200011E0002331F3112321F3CF91DF911F9198
:103830000F91FF90EF90DF90CF900895E82FF0E088
:10384000E331F10540F4E25CFF4FEE0FFF1F0590FE
:10385000F491E02D099480E0089580918806089500
:1038600080918906089580918A06089580918B063B
:10387000089580918C06089580918E060895809118
:103880008D06089580918F06089580919006089581
:1038900080919106089580919206089580919306F3
:1038A00008958091940608958091950608958091D9
:1038B0009606089580919706089580919806089538
:1038C00080919906089580919A060895E82FF0E076
:1038D000E331F10508F040C0EF5AFF4FEE0FFF1F34
:1038E0000590F491E02D0994609388060895609303
:1038F0008906089560938A06089560938B0608955B
:1039000060938C06089560938E06089560938D06EB
:10391000089560938F0608956093900608956093CC
:103920009106089560939206089560939306089512
:1039300060939406089560939506089560939606A3
:10394000089560939706089560939806089560938C
:10395000990608956093980608950F931F9381E048
:103960000E941E1C813011F000E024C087E00E94FC
:10397000D61782E06AE00E94271882E062EB0E947C
:10398000271818EC812F8A95F1F782E060E00E94F9
:103990008822082F812F8A95F1F782E060E00E944B
:1039A00088221A95F1F787E00E94D61788E893E1FC
:1039B0000197F1F7802F1F910F9108951F93CF93D7
:1039C000DF93182F8091DB03882341F08091E5037A
:1039D000882399F01092DB031092E5030E94AD1C3E
:1039E0008093DA038FED93E061E040E022E330E082
:1039F0000E949C1D81E08093DB039091DA03A12F4C
:103A0000B0E0ED01C65ADC4F8881882369F0FD01E2
:103A1000E35AFC4F80819823C1F0FD01E452FC4F32
:103A200081E08083188211C0FD01E452FC4F808147
:103A300081111082FD01E35AFC4F8081982329F403
:103A4000FD01E65AFC4F81E08083A452BC4F8C916B
:103A5000DF91CF911F91089582E00E941E1C882360
:103A600019F490E082E008951092B6061092B5061F
:103A70001092B8061092B7061092BA061092B906C4
:103A80001092BC061092BB061092BE061092BD06A4
:103A900080E991E09093A2068093A1069093A406FA
:103AA0008093A3069093A6068093A5069093A806FC
:103AB0008093A7069093AA068093A90684E398E0D2
:103AC0009093AC068093AB069093AE068093AD06C0
:103AD0009093B0068093AF069093B2068093B106A0
:103AE0009093B4068093B30681E061E00E94661C67
:103AF00091E081E00895DF93CF93CDB7DEB72997AA
:103B00000FB6F894DEBF0FBECDBF9C01CE0101966B
:103B100061E040E00E949C1D982F882319F48F815A
:103B20008823E9F3892F29960FB6F894DEBF0FBEDC
:103B3000CDBFCF91DF910895EF92FF920F931F9326
:103B4000CF93DF93EC01F62EE42E890188E00E94EA
:103B50001E1C813011F081E026C084E090E00E94BC
:103B60003331FC01009711F482E01DC0F982F0FCB2
:103B70001E8281E0E81619F4898184608983898135
:103B8000886089831B830A831D830C83D183C08350
:103B90001382128281E080934804CF010E944C245A
:103BA0001092480480E0DF91CF911F910F91FF9018
:103BB000EF900895FC018091C206813011F085E0FC
:103BC00008958091C306813011F08AE00895613034
:103BD00011F484EC01C084E88093BC008091BC00A7
:103BE00087FFFCCF613031F48091B900887F803548
:103BF00059F405C08091B900887F883529F48091F7
:103C0000BB00808380E0089582E00895982F809122
:103C1000C206813011F085E008958091C30681309D
:103C200011F08AE008959093BB0084E88093BC0073
:103C30008091BC0087FFFCCF8091B90090E0887F25
:103C400090708832910521F0C09721F483E00895A7
:103C500080E008958CE00895982F2091C2062130CD
:103C600011F085E008958091C406813011F489E057
:103C700008952093C30684EA8093BC008091BC0021
:103C800087FFFCCF8091B900887F883039F0809120
:103C9000B900887F803111F081E00895613019F416
:103CA000990F916003C0662319F4990F9093BB009C
:103CB00084E88093BC008091BC0087FFFCCF61301A
:103CC00031F48091B900887F803441F409C06623C3
:103CD00039F48091B900887F883111F082E008952D
:103CE00080E008958091C306813011F08AE0089544
:103CF0008091C506813029F485E98093BC0080E07D
:103D0000089584E98093BC0080E0089582E10E94D8
:103D10001E1C8823B1F41092C2061092C3061092A2
:103D2000C4061092C5061092C6060E94E82487E1D8
:103D300060E00E94A41E0E94DE2482E161E00E94F5
:103D4000661C82E190E0089563706093B9008093EF
:103D5000B80081E08093C20608958FE180937C00D3
:103D6000EAE7F0E087E080838081806880830895BF
:103D70000E9429240E94EA210E941A210E94B5244F
:103D80000E944F220E942C1D7894089500000895EF
:103D90001F920F920FB60F9211242F933F934F93C0
:103DA0005F936F937F938F939F93AF93BF93EF93A3
:103DB000FF93E0910804F0910904309709F0099508
:103DC000FF91EF91BF91AF919F918F917F916F91F3
:103DD0005F914F913F912F910F900FBE0F901F90C9
:103DE00018951F920F920FB60F9211242F933F93A5
:103DF0004F935F936F937F938F939F93AF93BF93F3
:103E0000EF93FF93E0910A04F0910B04309709F0CF
:103E10000995FF91EF91BF91AF919F918F917F9104
:103E20006F915F914F913F912F910F900FBE0F9027
:103E30001F9018951F920F920FB60F9211242F9377
:103E40003F934F935F936F937F938F939F93AF9322
:103E5000BF93EF93FF93E0910C04F0910D04309722
:103E600009F00995FF91EF91BF91AF919F918F91CB
:103E70007F916F915F914F913F912F910F900FBE66
:103E80000F901F9018951F920F920FB60F9211244A
:103E90002F933F934F935F936F937F938F939F9352
:103EA000AF93BF93EF93FF93E091FA03F091FB037D
:103EB000309709F00995FF91EF91BF91AF919F91D4
:103EC0008F917F916F915F914F913F912F910F90C3
:103ED0000FBE0F901F9018951F920F920FB60F9262
:103EE00011242F933F934F935F936F937F938F93FF
:103EF0009F93AF93BF93EF93FF93E091FC03F091F7
:103F0000FD03309709F00995FF91EF91BF91AF91B3
:103F10009F918F917F916F915F914F913F912F91E1
:103F20000F900FBE0F901F9018951F920F920FB613
:103F30000F9211242F933F934F935F936F937F932F
:103F40008F939F93AF93BF93EF93FF93E091FE0303
:103F5000F091FF03309709F00995FF91EF91BF9120
:103F6000AF919F918F917F916F915F914F913F9111
:103F70002F910F900FBE0F901F9018951F920F92C8
:103F80000FB60F9211242F933F934F935F936F932C
:103F90007F938F939F93AF93BF93EF93FF93E091A2
:103FA0000204F0910304309709F00995FF91EF9115
:103FB000BF91AF919F918F917F916F915F914F9141
:103FC0003F912F910F900FBE0F901F9018951F9249
:103FD0000F920FB60F9211242F933F934F935F933D
:103FE0006F937F938F939F93AF93BF93EF93FF93C1
:103FF000E0910404F0910504309709F00995FF91D0
:10400000EF91BF91AF919F918F917F916F915F9150
:104010004F913F912F910F900FBE0F901F901895C9
:104020001F920F920FB60F9211242F933F934F932D
:104030005F936F937F938F939F93AF93BF93EF9310
:10404000FF93E0910004F0910104309709F0099585
:10405000FF91EF91BF91AF919F918F917F916F9160
:104060005F914F913F912F910F900FBE0F901F9036
:1040700018951F920F920FB60F9211242F933F9312
:104080004F935F936F937F938F939F93AF93BF9360
:10409000EF93FF93E0910604F0910704309709F045
:1040A0000995FF91EF91BF91AF919F918F917F9172
:1040B0006F915F914F913F912F910F900FBE0F9095
:1040C0001F9018951F920F920FB60F9211242F93E5
:1040D0003F934F935F936F937F938F939F93AF9390
:1040E000BF93EF93FF93E091F003F091F1033097CA
:1040F00009F00995FF91EF91BF91AF919F918F9139
:104100007F916F915F914F913F912F910F900FBED3
:104110000F901F9018951F920F920FB60F921124B7
:104120002F933F934F935F936F937F938F939F93BF
:10413000AF93BF93EF93FF93E091F203F091F303FA
:10414000309709F00995FF91EF91BF91AF919F9141
:104150008F917F916F915F914F913F912F910F9030
:104160000FBE0F901F9018951F920F920FB60F92CF
:1041700011242F933F934F935F936F937F938F936C
:104180009F93AF93BF93EF93FF93E091F403F0916C
:10419000F503309709F00995FF91EF91BF91AF9129
:1041A0009F918F917F916F915F914F913F912F914F
:1041B0000F900FBE0F901F9018951F920F920FB681
:1041C0000F9211242F933F934F935F936F937F939D
:1041D0008F939F93AF93BF93EF93FF93E091F60379
:1041E000F091F703309709F00995FF91EF91BF9196
:1041F000AF919F918F917F916F915F914F913F917F
:104200002F910F900FBE0F901F901895E82F8032BE
:1042100068F48051833050F0F0E0EE0FFF1FE8515A
:10422000FC4F208131817183608302C020E030E047
:10423000C901089580E10E941E1C882361F4E8EE04
:10424000F3E01192119284E0E832F807D1F780E1AF
:1042500061E00E94661C80E191E00895239A089530
:10426000FF920F931F93CF93DF93F82E8AE0F816F7
:10427000B1F08F1548F0E8E0FE16B9F1EF1538F10E
:10428000F7E0FF1651F43BC08DE0F81659F0EBE172
:10429000FE1689F0FCE0FF1641F001E041C01092EB
:1042A0009B0603C010929B063AC080919C068150E9
:1042B00080939C0634C00E94BB1614C080E061E06D
:1042C0000E949A1780919B068F5F80939B06809136
:1042D0009B0687FFF3CF10929B0680919C0681502E
:1042E00080939C0600E011E01CC080919B0688230F
:1042F000B1F080919B06865080939B0610C081E0B0
:104300000E94C71864EF71E080E090E04DE750E054
:1043100024E630E00E944A2381E00E94162300E058
:1043200010E080919C0660919B060E9481170023FB
:1043300051F185E0F89EC0011124EC01C355DF4F17
:104340008C010E541F4FFE01849161E00E949A1768
:104350002196C017D107B9F780E061E00E949A1753
:1043600080919B068A5F80939B0680919B0690E0DC
:104370008C3791053CF010929B0680919C068150F1
:1043800080939C0611E080919C06837080939C062C
:10439000113059F480919D06813039F4E0919E06E8
:1043A000F0919F06309709F0099580E090E0DF9149
:1043B000CF911F910F91FF90089585FD5D9886FD27
:1043C0005E980895559A569A089585FD5D9A86FDE2
:1043D0005E9A089580E00E941E1C882351F4F89490
:1043E0000E94FC2481E00E94FC2180E061E00E94A8
:1043F000661C80E091E00895813049F0F8948130A6
:1044000020F18230B1F0833009F045C017C02C9AFA
:1044100080E8809361001092610080E090E00000ED
:10442000019688329105D9F71092680010926B00BE
:10443000089580E88093610083E004C080E8809361
:10444000610088E08093610028C080E090E0000077
:1044500001962DE680369207D1F72C9880E090E007
:10446000000001962DE680369207D1F710927A006F
:104470008FEF809364008091680081608093680072
:1044800080916B00846080936B00789483B7816027
:1044900083BF88950895823008F0789408950F932B
:1044A0001F930E94282580E067E175E20E949A220E
:1044B00081E06FE075E20E949A2282E067E075E297
:1044C0000E949A2286E06FE175E20E949A220FEF25
:1044D00014E283E0B8010E949A2284E0B8010E94AD
:1044E0009A2285E0B8010E949A2287E0B8010E94D2
:1044F0009A2282E061E00E94661C8FEF8093A00602
:1045000087E00E94D61782E091E01F910F910895F5
:104510001F93162F0E94D61782E00E941E1C813026
:1045200011F080E005C01EBD0DB407FEFDCF8EB5B5
:104530001F910895E82FF0E0EE0FFF1FE85DFB4F9D
:104540007183608308950E94A622089580913A04A1
:1045500090913B04A0913C04B0913D0420913E0415
:1045600030913F044091400450914104280F391F7D
:104570004A1F5B1F20933A0430933B0440933C0452
:1045800050933D0480913A0490913B04A0913C04E7
:10459000B0913D048851964FA040B040BCF08BB123
:1045A00080588BB980913A0490913B04A0913C04CF
:1045B000B0913D048851964FA040B04080933A049A
:1045C00090933B04A0933C04B0933D0408958AE08B
:1045D0000E941E1C813041F40E944625109239042D
:1045E0008AE060E00E94661C089589E00E941E1C1B
:1045F0008130D9F480913804882311F00E949723E8
:1046000082E00E94462580914604909147040097DD
:1046100031F00E94E031109247041092460410924B
:10462000380489E060E00E94661C0895813029F01A
:10463000823029F40E94F52208950E94E72208950D
:10464000982F80913804882331F48091390488238D
:1046500011F4579A5F98809138048823D1F49230EE
:10466000C1F41092800010928100809181008860D6
:1046700080938100809181008160809381001092FD
:1046800085001092840081E08093890080E9809306
:10469000880008958F929F92AF92BF92CF92DF923F
:1046A000EF92FF920F931F93CF93DF934B015C0127
:1046B000EA01B9012115310539F19E01442737FD81
:1046C0004095542F6536710510F064E670E080E087
:1046D00090E00E94943024E630E040E050E00E94F8
:1046E000C63079018A01C501B4010E942F25C70196
:1046F0000E947B1D60E070E080E090E00E942F252A
:10470000CE018E199F0904C04115510519F0CA0147
:104710000E947B1DDF91CF911F910F91FF90EF9031
:10472000DF90CF90BF90AF909F908F900895EFE66D
:10473000F0E080818D7F80830895982F81E08093C1
:104740008506913051F0913018F0923041F403C059
:1047500010926D0604C010926D0610926E061092B3
:10476000850608953A9A3B9A3C9A3D9A3E9A3F9A1A
:1047700088B1837088B90895982F81E08093850669
:10478000913071F0913018F0923071F405C070934F
:1047900062066093610608C07093620660936106CA
:1047A0007093640660936306109285060895982FAF
:1047B00081E080938506913051F0913018F092306D
:1047C00041F403C060936F0604C060936F0660936A
:1047D00070061092850608950F931F93CF93DF9371
:1047E000EB018A01813001F1813018F0823061F5EE
:1047F0000DC08091590690915A06892B11F080E0E6
:104800001AC010926606109265061EC08091590665
:1048100090915A06892B21F080E00E94622504C005
:10482000109266061092650680915B0690915C0678
:10483000892B31F081E0BE01A8010E94622504C0ED
:104840001092680610926706DF91CF911F910F9129
:104850000895109288061092890610928D06109283
:104860008A0610928C0610928E0610928F06109275
:104870009006109291061092920610929306109252
:104880009406109295061092960610929706109232
:104890009806109299060895CF92DF92EF92FF92B8
:1048A0000F931F93CF93DF93EC018091BF06882372
:1048B00039F4D093C106C093C0060E94DA2447C0E1
:1048C000C090C006D090C10600E010E0EE24FF24A6
:1048D00037C0A881B981FD0164817581F6014081ED
:1048E0005181FA01848195819B01281B390B37FF87
:1048F0000FC0861B970B95838483DB82CA82012BB2
:1049000029F4D093C106C093C00621C0F7010CC0A2
:10491000F601828193812115310549F4FD0115824B
:1049200014829B838A83F601D383C28310C0FD0166
:10493000358324830097B9F30F5F1F4F76016C0115
:104940008091BF0690E00817190718F2ECCF80910C
:10495000BF068F5F8093BF06DF91CF911F910F91AC
:10496000FF90EF90DF90CF90089588E00E941E1C8A
:104970008823B9F41092BF061092C1061092C006A7
:10498000109248041092490480E16FEC75E20E9495
:10499000EB240E94D6250E94D42488E061E00E9486
:1049A000661C88E091E00895EEE6F0E08081826088
:1049B0008083089581E08093490408958091C20620
:1049C000813029F48091BC0084608093BC000895FC
:1049D000389839980895803218F020E030E00AC005
:1049E000E82FF0E0EE0FFF1FE851FC4F20813181EE
:1049F00071836083C9010895249A2C9A089583E5F0
:104A00008CBD81E08DBD8DE08A95F1F7089583E539
:104A10008CBD1DBC84EF91E00197F1F708958FE7FD
:104A20008CBD1DBC84EF91E00197F1F7089583E5FB
:104A30008CBD81E08DBD8DE08A95F1F7089583E509
:104A40008CBD81E08DBD84EF91E00197F1F7089571
:104A5000259A2698279A209A219A229A08959B01AE
:104A6000AC0180913904882381F0DA01C901880FF3
:104A7000991FAA1FBB1F90934504809344042115DE
:104A800031054105510509F45F980895823029F4F4
:104A9000809181008E7F80938100809138048130E5
:104AA00031F480913904813011F40000089580912F
:104AB0003804813021F080913904813011F45F98FD
:104AC00057980895EF92FF920F931F93CF93DF9320
:104AD000EB01882321F0813009F05AC02DC09A01E2
:104AE00040E050E0CA01B9010E949430209159067B
:104AF00030915A06220F331F40E050E00E94C6302A
:104B000079018A01A8019701220F331F441F551F05
:104B1000CE01A0E0B0E082179307A407B50728F004
:104B2000F0926606E092650633C0D695C795D0939D
:104B30006606C09365062CC09A0140E050E0CA01A9
:104B4000B9010E94943020915B0630915C06220FDF
:104B5000331F40E050E00E94C63079018A01A8016D
:104B60009701220F331F441F551FCE01A0E0B0E074
:104B700082179307A407B50728F0F0926806E09221
:104B8000670606C0D695C795D0936806C09367069A
:104B9000DF91CF911F910F91FF90EF9008950E94A8
:104BA000DF250E941F260E94F825089584B58260A3
:104BB00084BD85B5846085BD8EE487BD089588E099
:104BC0000E941E1C882311F484E0089580914904FA
:104BD000882311F483E0089580914804882311F01C
:104BE00082E008950E946C288130E1F380E008950E
:104BF00080913904813011F58091420490914304F1
:104C00002091440430914504280F391F3093430408
:104C1000209342048091420490914304885E934023
:104C20006CF08BB180588BB9809142049091430411
:104C3000885E93409093430480934204089587E0F4
:104C40000E941E1C813009F0AAC0809159069091E3
:104C50005A06892B09F180917D0690917E0620915C
:104C6000590630915A06820F931F90937E068093C7
:104C70007D0680917D0690917E06885E9340A4F02B
:104C800080917D0690917E06885E934090937E068B
:104C900080937D0641E009C08091510690915206B3
:104CA000909356068093550640E080915B06909164
:104CB0005C06892B09F180917F06909180062091F6
:104CC0005B0630915C06820F931F90938006809361
:104CD0007F0680917F0690918006885E9340A4F0C5
:104CE00080917F0690918006885E93409093800625
:104CF00080937F0661E009C080915306909154062D
:104D0000909358068093570660E0842F0E94D02627
:104D10008091790690917A06209155063091560639
:104D2000280F391F30937A062093790680917906EF
:104D300090917A06885E934014F440E00BC0809115
:104D4000790690917A06885E934090937A068093D4
:104D5000790641E080917B0690917C062091570670
:104D600030915806280F391F30937C0620937B061C
:104D700080917B0690917C06885E934014F460E0FD
:104D80000BC080917B0690917C06885E9340909347
:104D90007C0680937B0661E0842F0E94152708958E
:104DA0008823F1F0209151063091520680915506EA
:104DB00090915606281B390B1216130634F4809175
:104DC000550690915606019607C0232B49F0809115
:104DD0005506909156060197909356068093550676
:104DE000662311F1209153063091540680915706A5
:104DF00090915806281B390B1216130654F4809113
:104E0000570690915806019690935806809357063E
:104E10000895232B49F080915706909158060197E9
:104E2000909358068093570608950F931F93182F59
:104E3000062F80918506882309F0E7C080916D06D2
:104E4000882309F05AC08091550690915606892B07
:104E5000E9F480914A04837E80934A041092760696
:104E600080918106882309F45DC060916F0680E01F
:104E70000E94AB1BE0918306F0918406309709F401
:104E800051C081E08083109281064CC080914F0612
:104E9000813041F48091610690916206019711F48E
:104EA00011E002C01123F1F1E0917406F0E0EE5A36
:104EB000FC4F90914A04937E8081892B80934A0411
:104EC00080917206882321F4809174068F5F03C05D
:104ED000809174068150809374068091740683706B
:104EE0008093740681E08093760680914F0681302E
:104EF000C9F480E00E94182815C090914A04937E5E
:104F000090934A04E0917406F0E0EE5AFC4F8081E1
:104F1000892B80934A0482E080937606109256068D
:104F20001092550680916E06882309F059C0809131
:104F3000570690915806892BE9F480914A048F71A5
:104F400080934A041092770680918206882309F4A0
:104F50005CC06091700681E00E94AB1BE09183060B
:104F6000F0918406309709F450C081E0818310925B
:104F700082064BC080915006813041F480916306D7
:104F800090916406019711F401E002C00023E9F159
:104F9000E0917506F0E0EA5AFC4F90914A049F7147
:104FA0008081892B80934A0480917306882321F4A1
:104FB000809175068F5F03C0809175068150809344
:104FC00075068091750683708093750681E08093E5
:104FD0007706809150068130C1F40E94182815C0D0
:104FE00090914A049F7190934A04E0917506F0E015
:104FF000EA5AFC4F8081892B80934A0482E0809397
:1050000077061092580610925706809178068823EA
:1050100031F48AE494E0612F402F0E94DA2888B1AD
:10502000837090914A04892B88B91F910F9108953C
:10503000882321F0813009F04EC027C0809161069D
:1050400090916206892B49F08091610690916206E9
:105050000197909362068093610680918106882370
:10506000D1F520916106309162068091650690919C
:1050700066062817390779F580E060E070E00E9445
:10508000FD1A81E0809381060895809163069091D6
:105090006406892B49F0809163069091640601971C
:1050A000909364068093630680918206882399F426
:1050B000209163063091640680916706909168069E
:1050C0002817390741F481E060E070E00E94FD1A82
:1050D00081E0809382060895FF920F931F93CF93F0
:1050E000DF938091BF06882309F459C00091C00660
:1050F0001091C106F801C081D1818C819D810197F9
:105100009D838C83181619060CF449C0898180FF91
:1051100005C08E81882311F481E08E83898181FF0F
:1051200003C0EF81F88509958091BF068230A8F011
:10513000F801828193819093C1068093C006138207
:105140001282E0910000F09101008481958118168F
:1051500019063CF0FF24F39405C01092C10610928A
:10516000C006FF248091BF0681508093BF068091C6
:10517000BF06882311F40E94D728898182FF08C0C6
:105180008A819B819D838C83C8010E944C2408C026
:10519000C8010E94E03189818F7E898301C0FF248C
:1051A0008F2DDF91CF911F910F91FF900895109255
:1051B00049040895FC0180917606823069F480915B
:1051C0004E0491E0892780934E04882309F03EC065
:1051D0008081837E80833AC08091550690915606E7
:1051E000C397A4F56623D1F0209155063091560659
:1051F00080E690E0BC01269FC001279F900D369F5E
:10520000900D1124880F892F881F990B90936A069F
:105210008093690681E080934C0418C080914C040F
:105220008823A1F08091690690916A060197909376
:105230006A06809369068091690690916A06892BB7
:1052400029F48081837E808310924C0480917706BC
:10525000823069F480914D0491E0892780934D0458
:10526000882309F03EC080818F71808308958091EA
:10527000570690915806C397A4F54423D1F0209186
:1052800057063091580680E690E0AC01249FC0019B
:10529000259F900D349F900D1124880F892F881F12
:1052A000990B90936C0680936B0681E080934B047E
:1052B000089580914B048823A1F080916B06909112
:1052C0006C06019790936C0680936B0680916B0639
:1052D00090916C06892B29F480818F7180831092C4
:1052E0004B0408955058BB27AA270ED075C166D12C
:1052F00030F06BD120F031F49F3F11F41EF45BC10C
:105300000EF4E095E7FB51C1E92F77D180F3BA178E
:10531000620773078407950718F071F49EF58FC133
:105320000EF4E0950B2EBA2FA02D0B01B9019001C0
:105330000C01CA01A0011124FF27591B99F0593F04
:1053400050F4503E68F11A16F040A22F232F342F4C
:105350004427585FF3CF469537952795A795F0409A
:105360005395C9F77EF41F16BA0B620B730B840BAF
:10537000BAF09150A1F0FF0FBB1F661F771F881F67
:10538000C2F70EC0BA0F621F731F841F48F48795BF
:1053900077956795B795F7959E3F08F0B3CF9395AE
:1053A000880F08F09927EE0F979587950895D9D023
:1053B00008F481E008950CD00FC107D140F0FED071
:1053C00030F021F45F3F19F0F0C0511139C1F3C042
:1053D00014D198F39923C9F35523B1F3951B550BB9
:1053E000BB27AA2762177307840738F09F5F5F4FB8
:1053F000220F331F441FAA1FA9F333D00E2E3AF0F9
:10540000E0E830D091505040E695001CCAF729D012
:10541000FE2F27D0660F771F881FBB1F2617370761
:105420004807AB07B0E809F0BB0B802DBF01FF2791
:1054300093585F4F2AF09E3F510568F0B6C000C1F7
:105440005F3FECF3983EDCF3869577956795B795CB
:10545000F7959F5FC9F7880F911D9695879597F9E6
:105460000895E1E0660F771F881FBB1F621773075F
:105470008407BA0720F0621B730B840BBA0BEE1F74
:1054800088F7E095089504D06894B111D9C00895C3
:10549000BCD088F09F5790F0B92F9927B751A0F052
:1054A000D1F0660F771F881F991F1AF0BA95C9F7B8
:1054B00012C0B13081F0C3D0B1E00895C0C0672FF1
:1054C000782F8827B85F39F0B93FCCF38695779568
:1054D0006795B395D9F73EF4909580957095619551
:1054E0007F4F8F4F9F4F0895E89409C097FB3EF47C
:1054F00090958095709561957F4F8F4F9F4F992321
:10550000A9F0F92F96E9BB279395F695879577959E
:105510006795B795F111F8CFFAF4BB0F11F460FF5E
:105520001BC06F5F7F4F8F4F9F4F16C0882311F0B6
:1055300096E911C0772321F09EE8872F762F05C0CA
:10554000662371F096E8862F70E060E02AF09A9565
:10555000660F771F881FDAF7880F9695879597F95A
:105560000895990F0008550FAA0BE0E8FEEF1616F4
:105570001706E807F907C0F012161306E407F50747
:1055800098F0621B730B840B950B39F40A2661F0BB
:10559000232B242B252B21F408950A2609F4A1405E
:1055A000A6958FEF811D811D089597F99F6780E86B
:1055B00070E060E008959FEF80EC089500240A9465
:1055C0001616170618060906089500240A941216DE
:1055D0001306140605060895092E0394000C11F411
:1055E000882352F0BB0F40F4BF2B11F460FF04C0BE
:1055F0006F5F7F4F8F4F9F4F089557FD9058440F17
:10560000551F59F05F3F71F04795880F97FB991F21
:1056100061F09F3F79F087950895121613061406DE
:10562000551FF2CF4695F1DF08C01616170618066B
:10563000991FF1CF86957105610508940895E89446
:10564000BB2766277727CB0197F908958ADF08F4EF
:105650008FEF0895DADFA8F19E57A8F1985160F016
:1056600039F1983070F5092E9927660F771F881F3A
:10567000991F0A94D1F71CC0BB27993F4CF4B11174
:10568000B1E0B62B672F782F8827985FB1F708C055
:10569000869577956795B79508F4B1609395C1F7AE
:1056A000BB0F30F411F460FF03C06F5F7F4F8F4F6B
:1056B0003EF490958095709561957F4F8F4F9F4FE9
:1056C00008956894BDCFBBCF0BD086CF77DF28F08D
:1056D0007CDF18F0952309F068CF6DCF1124B0CF8F
:1056E0008CDFA0F3959FD1F3950F50E0551F629F7B
:1056F000F001729FBB27F00DB11D639FAA27F00D2B
:10570000B11DAA1F649F6627B00DA11D661F829F51
:105710002227B00DA11D621F739FB00DA11D621F36
:10572000839FA00D611D221F749F3327A00D611D53
:10573000231F849F600D211D822F762F6A2F112435
:105740009F5750408AF0E1F088234AF0EE0FFF1F88
:10575000BB1F661F771F881F91505040A9F79E3FBF
:10576000510570F022CF6CCF5F3FECF3983EDCF335
:10577000869577956795B795F795E7959F5FC1F7FC
:10578000FE2B880F911D9695879597F90895FA013C
:10579000EE0FFF1F30962105310599F16115710556
:1057A00061F48038BFE39B0749F168949038810524
:1057B00061F08038BFEF9B0741F0992342F5FF3F2E
:1057C000E1053105210511F1E8940894E795D90127
:1057D000AA2329F4AB2FBE2FF85FD0F310C0FF5FD0
:1057E00070F4A695E0F7F73950F019F0FF3A38F465
:1057F0009F779F930CD00F9007FC905808953EF030
:10580000DACE60E070E080E89FE308954FE79F778D
:105810005F934F933F932F939ED02F913F914F9142
:105820005F9152DF05C019F40EF0BFCE08CFC3CE92
:10583000ECDEC8F39638C0F707F80F92E8942BE334
:105840003AEA48EB5FE74EDF0F920F920F924DB7A7
:105850005EB70F92C0D0E8ECF0E016D04F915F91A8
:10586000EF91FF91E595EE1FFF1F49F0FE57E068AD
:105870004427EE0F441FFA95E1F74195550B32D0BE
:105880000F9007FE26C00895DF93CF931F930F93C9
:10589000FF92EF92DF927B018C01689405C0DA2EB3
:1058A000EF011EDFFE01E894A59125913591459108
:1058B0005591AEF3EF0128DDFE019701A801DA94BE
:1058C00079F7DF90EF90FF900F911F91CF91DF91CB
:1058D00008959B01AC0160E070E080E89FE36BCD30
:1058E00064CEACC092DEE8F39923D9F3940F511D36
:1058F000BBF39150504094F059F0882332F0660F7A
:10590000771F881F91505040C1F79E3F510544F7C3
:10591000880F911D9695879597F908955F3FACF094
:10592000983E9CF0BB27869577956795B79508F4C8
:10593000B1609395C1F7BB0F58F711F460FFE8CF42
:105940006F5F7F4F8F4F9F4FE3CF7ACE0EF076C0C1
:1059500032CE68942ACE59DEC8F39923D1F3C6F328
:10596000DF93CF931F930F93FF92C92FDD278823D7
:105970002AF02197660F771F881FDAF720E030E0C2
:1059800040E85FEB9FE3883920F0803E30F02196BD
:105990008F77A9DCE0EFF0E003C0A5DCEDE1F1E0FA
:1059A00073DF8B01BE01EC01FB2E6F5771097595FA
:1059B000771F880B990B9ADD28E132E741E35FE31B
:1059C0008FDEAF2D9801AE01FF900F911F91CF9107
:1059D000DF919ADC01CEFA01DC01AA0FBB1F9B010B
:1059E000AC01BF5728F422273327442750781FC023
:1059F000B75188F4AB2F0024469537952795011CA5
:105A0000A395D2F3002069F0220F331F441FB395F2
:105A1000DAF30DD067CC61307105A0E88A07B9468A
:105A200030F49B01AC016627772788279078309661
:105A300021F0208331834283538308959F3F31F0C7
:105A4000915020F4879577956795B795880F911DAC
:105A50009695879597F90895A1E1B0E0E1E3FDE21D
:105A6000B7C33C017F876E876A01FC0117821682EB
:105A7000838181FD03C06FEF7FEF52C39E012F5FD3
:105A80003F4F398B288BF3012381EE85FF8523FD62
:105A9000859123FF8191FF87EE87882309F43DC319
:105AA000853251F4EE85FF8523FD859123FF819199
:105AB000FF87EE87853221F490E0B30120D6E3CF53
:105AC000982F10E0882499241032B0F49B3269F0AA
:105AD0009C3228F4903251F0933271F40BC09D3215
