:100000000C9431030C944E030C944E030C944E0349
:100010000C948F1C0C94B81C0C94E11C0C940A1DBD
:100020000C944E030C94701B0C94991B0C94C21BE3
:100030000C943D1C0C94EB1B0C94141C0C94661C2F
:100040000C94F51A0C941E1B0C94471B0C944E0335
:100050000C944E030C944E030C944E030C944E03DC
:100060000C944E030C944E030C944E030C944E03CC
:100070000C944E030C944E030C944E035A185D18C6
:10008000601863186C18661869186F18721875185C
:1000900078187B187E188118841887188A188D188C
:1000A0009018A118A418A718AA18B318AD18B0185A
:1000B000B618B918BC18BF18C218C518C818CB187C
:1000C000CE18D118D418D71807634236B79BD8A7D3
:1000D0001A39685618AEBAAB558C1D3CB7CC57636D
:1000E000BD6DEDFD753EF6177231BF000000803F1B
:1000F00008000000BE922449123EABAAAA2ABECD37
:10010000CCCC4C3E00000080BEABAAAAAA3E0000A8
:100110000000BF000000803F0000000000084178A0
:10012000D3BB4387D1133D190E3CC3BD4282AD2BD7
:100130003E68EC8276BED98FE1A93E4C80EFFFBECF
:1001400001C4FF7F3F000000000016050100000011
:1001500000000000FA000000E000E00028FE28FE99
:10016000282454FE5448C4C81026466C92AA44A0C1
:1001700000A0C000000038448200008244380028FB
:10018000107C102810107C1010000A0C00001010B9
:10019000101010000606000004081020407C8A920F
:1001A000A27C0042FE020042868A92628482A2D22F
:1001B0008C182848FE08E4A2A2A29C3C5292920C01
:1001C000808E90A0C06C9292926C60929294780013
:1001D0006C6C0000006A6C00001028448200282823
:1001E000282828008244281040808A90604C929EE3
:1001F000827C7E8888887EFE9292926C7C8282824B
:1002000044FE82824438FE92929282FE90909080C8
:100210007C8292925EFE101010FE0082FE8200042C
:100220000282FC80FE10284482FE02020202FE408E
:100230003040FEFE201008FE7C8282827CFE909080
:1002400090607C828A847AFE909894626292929204
:100250008C8080FE8080FC020202FCF8040204F81C
:10026000FC021C02FCC6281028C6E0100E10E08616
:100270008A92A2C200FE82820040201008040082FE
:1002800082FE0020408040200202020202008040E4
:100290002000042A2A2A1EFE1222221C1C222222AC
:1002A000041C222212FE1C2A2A2A18107E9080404A
:1002B000304A4A4A7CFE1020201E0022BE02000462
:1002C0000222BC00FE081422000082FE02003E2032
:1002D00018201E3E1020201E1C2222221C3E2828F0
:1002E0002810102828183E3E10202010122A2A2AF2
:1002F0000420FC2202043C0202043E3804020438BA
:100300003C020C023C2214081422300A0A0A3C2245
:10031000262A322200106C82000000FE00000082BB
:100320006C1000081010081000000000007F818190
:10033000817F7F8383837F7F8787877F7F8F8F8F77
:100340007F7F9F9F9F7F7FBFBFBF7F7FFFFFFF7F1D
:100350002040FF4020621517156500FBFB000000E0
:1003600000000000C0FF0300E0FF0700F0FF0F00E7
:10037000F8FF1F0078001E0078001E0078001E00A5
:1003800078001E0078001E0078001E0078001E0015
:1003900078001E0078001E00000000000000000031
:1003A00080FF0300E0FF0700F0FF0F00F8FF1F00D1
:1003B000F83C1F00783C1E00783C1E00783C1E0074
:1003C000783C1E00783C1E00783C1E00783C1E00E5
:1003D000783C1E00783C1E00783C1E0000000000A7
:1003E00000000000E0FF0300F0FF0700F8FF0F002F
:1003F000F8FF1F00783C1E00783C1E00783C1E0071
:10040000783C1E00783C1E00783C1E00783C1E00A4
:10041000783C1E00783C1E00783C1E000000000066
:1004200000000000F8FF0300F8FF0F00F8FF1F00B6
:10043000F8FF1F0000001E0000001E0000801F00CB
:1004400000F01F0000FF0F00E0FF0700F0FF0000BA
:10045000F80F0000F80000007800000078000000AD
:10046000F8FF1F00F8FF1F00F0FF1F00E0FF1F0054
:100470000000000000000000F8FF1F00F8FF1F0050
:10048000F8FF1F00F8FF1F0078001E00783C1E00D8
:10049000783C1E00783C1E00783C1E00783C1E0014
:1004A000783C1E00F87E1F00F8FF1F00F0FF0F00D1
:1004B000E0E703000000000000003800EEFF6C00E1
:1004C0002A8045003A0047FC03FF6CFC83FF39009B
:1004D000DEFF0B7CD0810BFCD0810BC0D0810BFCEC
:1004E000D0810B7CDEFF0B0082FF397002FF6CF8BD
:1004F0003A0047DC2A8045CCEEFF6CCC0000380087
:100500000000000C00001E0C00001E0000001E0079
:1005100000001E0000001E00F8FF1F00F8FF1F0073
:10052000F8FF1F00F8FF1F0000001E0000001E0063
:1005300000001E0000001E0000005E0000004000E1
:1005400000007C00000040000000400000007C0033
:1005500000003000000010000000300000007C6E41
:10056000616E00696E660000407A10F35A00A07256
:100570004E18090010A5D4E80000E87648170000DE
:10058000E40B54020000CA9A3B000000E1F50500AC
:100590000080969800000040420F000000A08601F5
:1005A000000000102700000000E8030000000064C5
:1005B00000000000000A0000000000010000000030
:1005C000002C76D888DC674F0823DFC1DFAE59E105
:1005D000B1B796E5E3E453C63AE651997696E8E674
:1005E000C28426EB898C9B62ED407C6FFCEFBC9C47
:1005F0009F40F2BAA56FA5F490055A2AF75C936B59
:100600006CF9676DC11BFCE0E40D47FEF520E6B513
:1006100000D0ED902E0300943577050080841E08ED
:100620000000204E0A000000C80C333333330F980B
:100630006E12831141EF8D2114893BE65516CFFED2
:10064000E6DB18D1844B381BF77C1D901DA4BBE45E
:1006500024203284725E228100C9F124ECA1E53DA0
:10066000270011241FBECFEFD8E0DEBFCDBF12E0C0
:10067000A0E0B1E0EEE7F1E602C005900D92A831EE
:10068000B107D9F715E0A8E1B2E001C01D92A5328B
:10069000B107E1F70E9404130C94BD300C940000E4
:1006A0001F93CF93DF93EC0188E660E00E94591A14
:1006B000182F8823A1F481E00E94331A182F882371
:1006C00071F488E661E00E94591A182F882339F4E2
:1006D000CE0160E00E94071A182F811118820E9433
:1006E0009F1A812FDF91CF911F9108951F93CF9370
:1006F000DF93EC0188E660E00E94591A182F8823E6
:10070000A1F489E00E94331A182F882371F488E637
:1007100061E00E94591A182F882339F4CE0160E055
:100720000E94071A182F811118820E949F1A812F88
:10073000DF91CF911F9108951F93CF93DF93EC0129
:1007400088E660E00E94591A182F8823A1F488E0F7
:100750000E94331A182F882371F488E661E00E9402
:10076000591A182F882339F4CE0160E00E94071A25
:10077000182F811118820E949F1A812FDF91CF912B
:100780001F9108951F93CF93DF93EC0188E660E0FB
:100790000E94591A182F8823A1F487E00E94331A67
:1007A000182F882371F488E661E00E94591A182FE7
:1007B000882339F4CE0160E00E94071A182F8111B6
:1007C00018820E949F1A812FDF91CF911F91089567
:1007D0001F93CF93DF93EC0188E660E00E94591AE3
:1007E000182F8823A1F486E00E94331A182F88233B
:1007F00071F488E661E00E94591A182F882339F4B1
:10080000CE0160E00E94071A182F811118820E9401
:100810009F1A812FDF91CF911F9108951F93CF933E
:10082000DF93EC0188E660E00E94591A182F8823B4
:10083000A1F485E00E94331A182F882371F488E60A
:1008400061E00E94591A182F882339F4CE0160E024
:100850000E94071A182F811118820E949F1A812F57
:10086000DF91CF911F9108951F93CF93DF93EC01F8
:1008700088E660E00E94591A182F8823A1F484E0CA
:100880000E94331A182F882371F488E661E00E94D1
:10089000591A182F882339F4CE0160E00E94071AF4
:1008A000182F811118820E949F1A812FDF91CF91FA
:1008B0001F9108951F93CF93DF93EC0188E660E0CA
:1008C0000E94591A182F8823A1F483E00E94331A3A
:1008D000182F882371F488E661E00E94591A182FB6
:1008E000882339F4CE0160E00E94071A182F811185
:1008F00018820E949F1A812FDF91CF911F91089536
:100900001F93CF93DF93EC0188E660E00E94591AB1
:10091000182F8823A1F482E00E94331A182F88230D
:1009200071F488E661E00E94591A182F882339F47F
:10093000CE0160E00E94071A182F811118820E94D0
:100940009F1A812FDF91CF911F9108951F93CF930D
:10095000DF93EC0188E660E00E94591A182F882383
:10096000A1F480E00E94331A182F882371F488E6DE
:1009700061E00E94591A182F882339F4CE0160E0F3
:100980000E94071A182F811118820E949F1A812F26
:10099000DF91CF911F91089581E00E94F91285E0C7
:1009A0000E94C2120E94A512A0E0B0E0BC01CD01DD
:1009B0000E94C62620E030E040EA50E40E94C525AF
:1009C0009B01AC0160E070E286E395E40E942D2675
:1009D00020E030E040E85FE30E94C425089581E014
:1009E0000E94F91287E00E94C2120E94A512A0E0A4
:1009F000B0E0BC01CD010E94C62620E030E040EA14
:100A000050E40E94C5259B01AC0160E070E286E3E2
:100A100095E40E942D2620E030E040E85FE30E944C
:100A2000C425089581E00E94F91283E00E94C21259
:100A30000E94A512A0E0B0E0BC01CD010E94C62634
:100A400020E030E040EA50E40E94C5259B01AC0163
:100A500060E070E286E395E40E942D2620E030E01D
:100A600040E85FE30E94C425089581E00E94F912E6
:100A700084E00E94C2120E94A512A0E0B0E0BC0176
:100A8000CD010E94C62620E030E040EA50E40E94FA
:100A9000C5259B01AC0160E070E286E395E40E940D
:100AA0002D2620E030E040E85FE30E94C425089551
:100AB00081E00E94F91285E00E94C2120E94A512F4
:100AC000A0E0B0E0BC01CD010E94C62620E030E0ED
:100AD00040EA5BE30E94B627089581E00E94F91284
:100AE00086E00E94C2120E94A512A0E0B0E0BC0104
:100AF000CD010E94C62620E030E040EA5BE30E9480
:100B0000B62708950F931F9381E08093B70280E08A
:100B10000E940B19082F81E00E940B19182F82E008
:100B20000E940B19113019F422E030E006C020E0D9
:100B300030E0013011F421E030E0813011F423E0A5
:100B400030E0C9011F910F910895FF920F931F93F9
:100B5000CF93DF930E940D1381E08093B70280E072
:100B60000E940B19182F81E00E940B19082F82E0B8
:100B70000E940B19F82E113019F0C0E0D0E013C01C
:100B800080E091E00E940F3080E20E941C1484EF0C
:100B900091E00E94A81980E40E94071480E20E945C
:100BA0000714C1E0D0E0013099F48CE091E00E949C
:100BB0000F3080E40E941C1484EF91E00E94A81979
:100BC00080E40E94071480E20E940714C2E0D0E093
:100BD00081E0F816B1F488E191E00E940F3080E4E2
:100BE0000E941C1480E20E941C1484EF91E00E9479
:100BF000A81980E40E94071480E20E940714C3E051
:100C0000D0E00E940D13CE01DF91CF911F910F9183
:100C1000FF9008952F923F924F925F926F927F9232
:100C20008F929F92AF92BF92CF92DF92EF92FF92FC
:100C30000F931F93DF93CF93CDB7DEB764970FB6B3
:100C4000F894DEBF0FBECDBF882339F588E293E06C
:100C50009C8B8B8BABE9B4E0BE83AD83E1E2F4E027
:100C6000FC83EB8380EA93E09A8389830F2EF0E084
:100C70002F2EF0E03F2EF0E04F2EF0E05F2EF02D13
:100C80002F86388A498A5A8A2B863C864D865E860C
:100C90002F82388649865A8643C0A0902002B090A1
:100CA0002102C0902202D0902302E0902402F09012
:100CB00025020091260210912702209028023090F0
:100CC000290240902A0250902B0220912C02309150
:100CD0002D0240912E0250912F0280E090E0FC0105
:100CE000E854FD4FA082B182C282D382FC01E55D4F
:100CF000FB4FE082F18202831383FC01EF54FC4F2F
:100D00002082318242825382FC01E05DFC4F2083CD
:100D100031834283538304968837910501F796CF38
:100D2000AB89BC892D913D914D915C911397FD014B
:100D30002483358346835783AD81BE81ED90FD903A
:100D40000D911C911397FD01E482F58206831783B0
:100D5000AB81BC81AD90BD90CD90DC901397FD012F
:100D6000A482B582C682D782A981BA816D907D9016
:100D70008D909C901397FD01648275828682978284
:100D8000C201B1010E94C5251B012C016F85788924
:100D900089899A89A80197010E94C5256F87788B58
:100DA000898B9A8B6B857C858D859E85A6019501A7
:100DB0000E94C5256B877C878D879E876F8178858C
:100DC00089859A85A40193010E94C5256F83788740
:100DD00089879A878B899C8904979C8B8B8BAD81A3
:100DE000BE811497BE83AD83EB81FC813497FC8375
:100DF000EB8389819A8104979A838983AB89BC8923
:100E0000A05BB24009F08CCF80912002909121022A
:100E1000A0912202B0912302EB89FC8980879187FF
:100E2000A287B3878091240290912502A091260287
:100E3000B091270280932B0490932C04A0932D044F
:100E4000B0932E048091280290912902A0912A0249
:100E5000B0912B028093B1039093B203A093B3039C
:100E6000B093B40380912C0290912D02A0912E0298
:100E7000B0912F028093300390933103A0933203FB
:100E8000B0933303C201B10120E030E040EF51E400
:100E90000E942D26609320027093210280932202EB
:100EA000909323026F85788989899A8920E030E0C0
:100EB00040EF51E40E942D26609324027093250296
:100EC00080932602909327026B857C858D859E8575
:100ED00020E030E040EF51E40E942D26609328028C
:100EE0007093290280932A0290932B026F81788558
:100EF00089859A8520E030E040EF51E40E942D265C
:100F000060932C0270932D0280932E0290932F02F7
:100F100064960FB6F894DEBF0FBECDBFCF91DF91C0
:100F20001F910F91FF90EF90DF90CF90BF90AF9007
:100F30009F908F907F906F905F904F903F902F90F9
:100F400008956F927F928F929F92AF92BF92CF92AD
:100F5000DF92EF92FF920F931F933B014C014423CA
:100F600061F080E090E0A0E0B0E080931802909300
:100F70001902A0931A02B0931B02C401B30120917D
:100F800018023091190240911A0250911B020E94DE
:100F9000C5255B016C016093180270931902809360
:100FA0001A0290931B02C401B301A40193010E9491
:100FB000C5257B018C01C401B30120911C02309135
:100FC0001D0240911E0250911F020E94C42520E084
:100FD00030E040E05FE30E94B6279B01AC01C8010E
:100FE000B7010E94C5257B018C01C601B50120E037
:100FF00030E040E050E00E94B6279B01AC01C80100
:10100000B7010E94C5251F910F91FF90EF90DF90CF
:10101000CF90BF90AF909F908F907F906F900895EA
:101020002F926F927F928F929F92AF92BF92CF92A8
:10103000DF92EF92FF920F931F93DF93CF9300D035
:1010400000D0CDB7DEB769837A838B839C836090B1
:1010500028027090290280902A0290902B026091C1
:101060002C0270912D0280912E0290912F020E94ED
:101070002926282E221C2224221C220C60912002C8
:10108000709121028091220290912302A801970180
:101090000E942926082F001F0027001F000F000FA5
:1010A000609124027091250280912602909127027E
:1010B000A60195010E942926182F111F1127111F23
:1010C000110F110F110FFF24C401B30129813A81BF
:1010D0004B815C810E942926882314F4FF24F39419
:1010E0002F0C200E822D810F0F900F900F900F90DC
:1010F000CF91DF911F910F91FF90EF90DF90CF90F4
:10110000BF90AF909F908F907F906F902F90089599
:101110002F923F924F925F926F927F928F929F9207
:10112000AF92BF92CF92DF92EF92FF920F931F93F5
:10113000DF93CF93CDB7DEB764970FB6F894DEBFD9
:101140000FBECDBF7C01FB015A016901202E332463
:101150001616170614F433243394BF01882777FD3D
:101160008095982F0E94C82669877A878B879C87ED
:10117000B501882777FD8095982F0E94C8266D833A
:101180007E838F839887B601882777FD8095982F77
:101190000E94C82669837A838B839C83E114F104BF
:1011A00009F051C069857A858B859C852CED38EBDB
:1011B00048E05EE30E942D260E9495265B016D812A
:1011C0007E818F8198852CED38EB48E05EE30E94AC
:1011D0002D260E9495268B0169817A818B819C81C5
:1011E0002CED38EB48E05EE30E942D260E94952608
:1011F0007B018DB79EB709970FB6F8949EBF0FBEBF
:101200008DBFEDB7FEB7319640E0332009F441E0E1
:10121000B182A08213830283F582E4822682108643
:10122000178281E062E09501C22CAA24BB24832CA2
:101230000E94EE15EDB7FEB739960FB6F894FEBFD3
:101240000FBEEDBFCEC1B701882777FD8095982FDF
:101250001E141F040CF0DBC00E94C8267B018C0109
:1012600066E676E68AEA91ECA80197010E942D26AF
:1012700020E030E040E85FE30E94C5255B016C019F
:1012800066E676E68AEA91E4A80197010E942D2697
:1012900020E030E040E85FE30E94C5257B018C013F
:1012A0008DB79EB709970FB6F8949EBF0FBE8DBF3E
:1012B0008DB69EB60894811C911C69857A858B85B4
:1012C0009C85A60195010E94B6270E949526882735
:1012D00077FD8095982F0E94C8262CED38EB48E0CA
:1012E0005EE30E942D260E9495266D877E878F875C
:1012F000988B6D817E818F819885A60195010E94D2
:10130000B6270E949526882777FD8095982F0E9402
:10131000C8262CED38EB48E05EE30E942D260E94A3
:1013200095262B013C0169817A818B819C81A601E4
:1013300095010E94B6270E949526882777FD809503
:10134000982F0E94C8262CED38EB48E05EE30E94FF
:101350002D260E9495265B016C0169857A858B8517
:101360009C85A80197010E94B6270E949526882790
:1013700077FD8095982F0E94C8262CED38EB48E029
:101380005EE30E942D260E949526F40171836083FE
:101390006D817E818F819885A80197010E94B62773
:1013A0000E949526882777FD8095982F0E94C82651
:1013B0002CED38EB48E05EE30E942D260E94952636
:1013C000F4017383628369817A818B819C81A80196
:1013D00097010E94B6270E949526882777FD809561
:1013E000982F0E94C8262CED38EB48E05EE30E945F
:1013F0002D260E949526F40175836483268210862B
:10140000178281E062E0432D2D853E85DAC00E947F
:10141000C8267B018C0166E676E68AEA91E4A8019B
:1014200097010E942D2620E030E040E85FE30E9413
:10143000C5255B016C0166E676E68AEA91ECA801B7
:1014400097010E942D2620E030E040E85FE30E94F3
:10145000C5257B018C01EDB7FEB739970FB6F8941F
:10146000FEBF0FBEEDBF8DB69EB60894811C911CC9
:1014700069857A858B859C85A60195010E94B62792
:101480000E949526882777FD8095982F0E94C82670
:101490002CED38EB48E05EE30E942D260E94952655
:1014A000698B7A8B8B8B9C8B6D817E818F819885EC
:1014B000A60195010E94B6270E949526882777FDF0
:1014C0008095982F0E94C8262CED38EB48E05EE30B
:1014D0000E942D260E9495262B013C0169817A816C
:1014E0008B819C81A60195010E94B6270E949526BA
:1014F000882777FD8095982F0E94C8262CED38EB21
:1015000048E05EE30E942D260E9495265B016C0157
:1015100069857A858B859C85A80197010E94B627ED
:101520000E949526882777FD8095982F0E94C826CF
:101530002CED38EB48E05EE30E942D260E949526B4
:10154000F401718360836D817E818F819885A8010C
:1015500097010E94B6270E949526882777FD8095DF
:10156000982F0E94C8262CED38EB48E05EE30E94DD
:101570002D260E949526F4017383628369817A8106
:101580008B819C81A80197010E94B6270E94952615
:10159000882777FD8095982F0E94C8262CED38EB80
:1015A00048E05EE30E942D260E949526F401758393
:1015B000648326821086178281E062E0432D2989A8
:1015C0003A8982017501C22CAA24BB24832C0E9473
:1015D000EE158DB79EB709960FB6F8949EBF0FBE55
:1015E0008DBF81E064960FB6F894DEBF0FBECDBF0D
:1015F000CF91DF911F910F91FF90EF90DF90CF90EF
:10160000BF90AF909F908F907F906F905F904F9022
:101610003F902F9008952F923F924F925F926F923A
:101620007F928F929F92AF92BF92CF92DF92EF9272
:10163000FF920F931F93DF93CF93CDB7DEB76497DD
:101640000FB6F894DEBF0FBECDBF7C01FB015A017F
:101650006901202E33241616170614F4332433940C
:10166000BF01882777FD8095982F0E94C82669873B
:101670007A878B879C87B501882777FD8095982F7F
:101680000E94C8266D837E838F839887B601882742
:1016900077FD8095982F0E94C82669837A838B8373
:1016A0009C83E114F10409F051C069857A858B852A
:1016B0009C852CED38EB48E05EE30E942D260E94CD
:1016C00095265B016D817E818F8198852CED38EBAD
:1016D00048E05EE30E942D260E9495268B016981D9
:1016E0007A818B819C812CED38EB48E05EE30E948F
:1016F0002D260E9495267B018DB79EB709970FB6C0
:10170000F8949EBF0FBE8DBFEDB7FEB7319640E097
:10171000332009F441E0B182A08213830283F58271
:10172000E48226821086178280E062E09501C22C56
:10173000AA24BB24832C0E94EE15EDB7FEB7399680
:101740000FB6F894FEBF0FBEEDBFCEC1B70188271C
:1017500077FD8095982F1E141F040CF0DBC00E94AB
:10176000C8267B018C0166E676E68AEA91ECA80140
:1017700097010E942D2620E030E040E85FE30E94C0
:10178000C5255B016C0166E676E68AEA91E4A8016C
:1017900097010E942D2620E030E040E85FE30E94A0
:1017A000C5257B018C018DB79EB709970FB6F894BC
:1017B0009EBF0FBE8DBF8DB69EB60894811C911C36
:1017C00069857A858B859C85A60195010E94B6273F
:1017D0000E949526882777FD8095982F0E94C8261D
:1017E0002CED38EB48E05EE30E942D260E94952602
:1017F0006D877E878F87988B6D817E818F8198859D
:10180000A60195010E94B6270E949526882777FD9C
:101810008095982F0E94C8262CED38EB48E05EE3B7
:101820000E942D260E9495262B013C0169817A8118
:101830008B819C81A60195010E94B6270E94952666
:10184000882777FD8095982F0E94C8262CED38EBCD
:1018500048E05EE30E942D260E9495265B016C0104
:1018600069857A858B859C85A80197010E94B6279A
:101870000E949526882777FD8095982F0E94C8267C
:101880002CED38EB48E05EE30E942D260E94952661
:10189000F401718360836D817E818F819885A801B9
:1018A00097010E94B6270E949526882777FD80958C
:1018B000982F0E94C8262CED38EB48E05EE30E948A
:1018C0002D260E949526F4017383628369817A81B3
:1018D0008B819C81A80197010E94B6270E949526C2
:1018E000882777FD8095982F0E94C8262CED38EB2D
:1018F00048E05EE30E942D260E949526F401758340
:10190000648326821086178280E062E0432D2D8555
:101910003E85DAC00E94C8267B018C0166E676E629
:101920008AEA91E4A80197010E942D2620E030E088
:1019300040E85FE30E94C5255B016C0166E676E640
:101940008AEA91ECA80197010E942D2620E030E060
:1019500040E85FE30E94C5257B018C01EDB7FEB72F
:1019600039970FB6F894FEBF0FBEEDBF8DB69EB689
:101970000894811C911C69857A858B859C85A601BC
:1019800095010E94B6270E949526882777FD8095AD
:10199000982F0E94C8262CED38EB48E05EE30E94A9
:1019A0002D260E949526698B7A8B8B8B9C8B6D8163
:1019B0007E818F819885A60195010E94B6270E949D
:1019C0009526882777FD8095982F0E94C8262CEDB4
:1019D00038EB48E05EE30E942D260E9495262B01FD
:1019E0003C0169817A818B819C81A60195010E94CD
:1019F000B6270E949526882777FD8095982F0E940C
:101A0000C8262CED38EB48E05EE30E942D260E94AC
:101A100095265B016C0169857A858B859C85A8017B
:101A200097010E94B6270E949526882777FD80950A
:101A3000982F0E94C8262CED38EB48E05EE30E9408
:101A40002D260E949526F401718360836D817E812D
:101A50008F819885A80197010E94B6270E9495263C
:101A6000882777FD8095982F0E94C8262CED38EBAB
:101A700048E05EE30E942D260E949526F4017383C0
:101A8000628369817A818B819C81A80197010E9480
:101A9000B6270E949526882777FD8095982F0E946B
:101AA000C8262CED38EB48E05EE30E942D260E940C
:101AB0009526F4017583648326821086178280E060
:101AC00062E0432D29893A8982017501C22CAA243A
:101AD000BB24832C0E94EE158DB79EB709960FB6D6
:101AE000F8949EBF0FBE8DBF81E064960FB6F89448
:101AF000DEBF0FBECDBFCF91DF911F910F91FF9041
:101B0000EF90DF90CF90BF90AF909F908F907F909D
:101B10006F905F904F903F902F9008952F923F923B
:101B20004F925F926F927F928F929F92AF92BF92ED
:101B3000CF92DF92EF92FF920F931F93DF93CF9399
:101B400000D000D0CDB7DEB7609028027090290297
:101B500080902A0290902B02A0902C02B0902D022F
:101B6000C0902E02D0902F02E0902402F090250227
:101B7000009126021091270280912002909121026B
:101B8000A0912202B091230289839A83AB83BC8304
:101B9000C801B70129813A814B815C810E94C4252B
:101BA0001B012C01C401B30120E030E040EE50E401
:101BB0000E94292687FD0BC0C601B50120E030E058
:101BC00040EE50E40E94292688230CF068C0C4012E
:101BD000B301A60195010E94C4257B018C017724E5
:101BE00020E030E040E050E00E947827882314F0A5
:101BF00077247394C801B7010E9495269B0177FF53
:101C000003C0309521953F4FB901882777FD809516
:101C1000982F0E94C8266B017C01ADB7BEB71997FB
:101C20000FB6F894BEBF0FBEADBF0DB71EB70F5FA6
:101C30001F4FA20191010E94C5250E949A264B01C7
:101C40005C0182E390E0F80191838083C701B601D3
:101C5000A20191010E94C4250E949A26D8011396E0
:101C60007C936E93129782EC91E015969C938E93E1
:101C7000149716961C92169718961C921E921797F8
:101C800081E062E0472D22E330E0840172ECE72E30
:101C900071E0F72ECC24AA24BB24872C82C0C80173
:101CA000B70120E030E040E251E40E942926882379
:101CB000B4F5C201B1010E9495268B0177FF03C0E4
:101CC000109501951F4F2DB73EB7295030400FB6E4
:101CD000F8943EBF0FBE2DBFEDB7FEB7319688EC2E
:101CE00090E0ADB7BEB712969C938E931197138375
:101CF000028382EC91E0958384831682108617829A
:101D000081E062E040E028EC30E052ECE52E51E06A
:101D1000F52ECC24AA24BB248824839442C0698154
:101D20007A818B819C8120E030E040E251E40E9486
:101D3000292687FD02C080E03FC0C201B1010E9498
:101D400095268B0177FF03C0109501951F4F2DB786
:101D50003EB7295030400FB6F8943EBF0FBE2DBF9E
:101D6000EDB7FEB7319688EC90E0ADB7BEB71296EE
:101D70009C938E9311971383028382EC91E0958359
:101D8000848316821086178281E062E041E028ECAD
:101D900030E092ECE92E91E0F92ECC24AA24BB2469
:101DA00088240E94EE1581E0EDB7FEB739960FB694
:101DB000F894FEBF0FBEEDBF0F900F900F900F90E5
:101DC000CF91DF911F910F91FF90EF90DF90CF9017
:101DD000BF90AF909F908F907F906F905F904F904B
:101DE0003F902F9008952F923F924F925F926F9263
:101DF0007F928F929F92AF92BF92CF92DF92EF929B
:101E0000FF920F931F93E0902802F0902902009117
:101E10002A0210912B023324C801B70120E030E0E0
:101E200048EB51E40E942926882314F43324339488
:101E3000A0902402B0902502C0902602D0902702E4
:101E40004090200250902102609022027090230264
:101E5000882460912C0270912D0280912E02909125
:101E60002F0220E030E048EB51E40E94292688232D
:101E700014F488248394932C98288824C601B501EF
:101E800020E030E040EA51E40E942926882314F43F
:101E90008824839498288824C301B20120E030E08C
:101EA00040EA51E40E942926882314F4882483946C
:101EB000292C282809F4FDC0C601B50120E030E036
:101EC00040EA51E40E947827181664F480E090E01C
:101ED000A0EAB0E48093240290932502A093260206
:101EE000B0932702C301B20120E030E040EA51E4A0
:101EF0000E947827181614F080E00DC080E090E072
:101F0000A0EAB0E48093200290932102A0932202E1
:101F1000B093230281E0332021F1882329F060E08F
:101F200070E08AE794E404C060E070E08AE794EC33
:101F3000A80197010E942D262091200230912102B4
:101F400040912202509123020E94C5259B01AC01C1
:101F500060912402709125028091260290912702BF
:101F600010C0609124027091250280912602909108
:101F700027022091200230912102409122025091AB
:101F800023020E94C425E62F2E2F372F482F592FCA
:101F9000B901CA0140E00E94A1076B017C010E94C7
:101FA00095268B0177FF03C0109501951F4F0536CD
:101FB0001105FCF0C701B60120E030E040E050E040
:101FC0000E9429268823A9F0B801882777FD8095EB
:101FD000982F0E94C8269B01AC01C701B6010E9440
:101FE0002D2620E030E048EC52E40E94B6276B0139
:101FF0007C01C701B60120E030E048EC52E40E94C9
:102000002D266B017C018DB79EB709970FB6F8940A
:102010009EBF0FBE8DBF0DB71EB70F5F1F4FC7010D
:10202000B60120E030E048EC52E40E94B62720E000
:1020300030E048EC52E40E94C5250E949A264B01EC
:102040005C0182E390E0F80191838083C701B601CF
:1020500020E030E048EC52EC0E94B62720E030E06F
:1020600048EC52E40E94C5250E949A26F801738329
:10207000628382EC91E095838483168210861782B6
:1020800081E062E041E022E330E08401E2ECEE2E08
:10209000E1E0FE2ECC24AA24BB24882483940E9451
:1020A000EE158DB79EB709960FB6F8949EBF0FBE7A
:1020B0008DBF822D1F910F91FF90EF90DF90CF90F9
:1020C000BF90AF909F908F907F906F905F904F9058
:1020D0003F902F9008950E94DA18282F21702093A6
:1020E000290490E0827090709595879580932A04DA
:1020F00008950E94580560933002709331028093D6
:102100003202909333020E946D0560933402709303
:102110003502809336029093370208950E94EF04AF
:10212000609328027093290280932A0290932B02D5
:102130000E94CC0460932C0270932D0280932E0297
:1021400090932F020E943505609320027093210224
:1021500080932202909323020E941205609324022E
:1021600070932502809326029093270208958F9200
:10217000AF92BF92CF92DF92EF92FF920F931F9395
:10218000CF93DF930E942615672B09F076C0892B29
:1021900009F073C00E94D42E8C010E94D42EEC0151
:1021A0000E94D42E7C010E94D42E20E06AE070E0D0
:1021B0000E94052D08970CF021E0822E8094C80122
:1021C00060E971E00E94052DB0E9AB2EB1E0BB2EB5
:1021D000A80EB91E8DB79EB709970FB6F8949EBF8B
:1021E0000FBE8DBF0DB71EB70F5F1F4FC70168EC45
:1021F00070E00E94052D88539F4FAA2797FDA09558
:10220000BA2FBC01CD010E94C8260E949A266B01FC
:102210007C01F801B182A082CE0168EC70E00E94DE
:10222000052D88539F4FAA2797FDA095BA2FBC0173
:10223000CD010E94C8260E949A26F801738362830A
:1022400082EC91E09583848316821086178281E068
:1022500062E0482D95018601A2ECEA2EA1E0FA2E5B
:10226000CC24AA24BB240E94EE158DB79EB70996F4
:102270000FB6F8949EBF0FBE8DBF81E0DF91CF9166
:102280001F910F91FF90EF90DF90CF90BF90AF9094
:102290008F9008951F93E0913902F0E0E855FC4FCC
:1022A00010810E940D13123041F0133051F01130A3
:1022B00061F400D084E291E00BC000D089E291E0AB
:1022C00007C000D081E391E003C000D087E391E034
:1022D000EDB7FEB7928381830E94FD2F0F900F9080
:1022E00088EE93E00E94A819809139028F5F809355
:1022F000390281E01F9108950E948E0D882371F0AC
:1023000080E090E0A0E0B0E0809318029093190282
:10231000A0931A02B0931B0281E008950E944A1113
:10232000882371F080E090E0A0E0B0E08093180294
:1023300090931902A0931A02B0931B0282E00895B1
:1023400080913802882391F00E94F30E882371F067
:1023500080E090E0A0E0B0E0809318029093190232
:10236000A0931A02B0931B0283E0089580E00895C1
:10237000EF92FF920F931F93CF93DF9381E001E0E1
:10238000C0E0D0E01EE3E12E11E0F12E02C00E9479
:102390008205182F8130D9F3FE01E855FC4F808368
:1023A0000E940D138DB79EB708970FB6F8949EBF85
:1023B0000FBE8DBFEDB7FEB73196ADB7BEB7129663
:1023C000FC92EE9211970283138214831582D783B5
:1023D000C6830E94FD2F8DB79EB708960FB6F8945E
:1023E0009EBF0FBE8DBF84EF91E00E94A8190E948E
:1023F00082050E9482058117E1F32196012FC930E1
:10240000D10539F6DF91CF911F910F91FF90EF9099
:1024100008950F931F93CF93DF9381E000E0CFE601
:10242000D1E002C00E948205182F8130D9F380913B
:102430003A02880F8150810F80933A020E940D1357
:1024400000D000D0EDB7FEB73196ADB7BEB712964B
:10245000DC93CE93119780913A02828313820E947B
:10246000FD2F0F900F900F900F9084EF91E00E943E
:10247000A8190E9482050E9482058117E1F30F5F6F
:10248000043091F6DF91CF911F910F9108950E9432
:1024900059199093B7028093B6020E941314909337
:1024A000B5028093B4020E942A139093B3028093E2
:1024B000B2020E94951681E00E9419150E94131421
:1024C0000E94B31A0E94971281E00E94F9120E94A2
:1024D0008E1081E00E940A0688E891E00E940F3089
:1024E00088EE93E00E94A8190E940D130E94B81173
:1024F00088EE93E00E94A8190E940D138FE991E0E5
:102500000E940F3088EE93E00E94A8190E940D13DC
:102510000E94091288EB9BE00E94A8190E940D13EB
:102520000E948E100E946B100E944A11F9CF8FE01A
:102530000E944B18882331F40E94DA1A8FE061E080
:102540000E9493188FE091E008958FE00E944B184D
:10255000813019F020E030E013C080917A0080646F
:1025600080937A0080917A0086FDFCCF30917800CC
:1025700020917900922F80E0232F30E0282B392BF7
:10258000C9010895582F8091B9018830D8F440913D
:102590007E0021E030E0B90102C0660F771F8A9506
:1025A000E2F7CB018095842380937E0080917E00AA
:1025B000052E02C0220F331F0A94E2F7822B80936C
:1025C0007E000DC020917E0081E090E0052E02C0CB
:1025D000880F991F0A94E2F7282B20937E005093CE
:1025E000B90180917C005F71807E852B80937C0097
:1025F0000895ECE7F0E090818295880F880F807C49
:102600009F73982B908308950E94F31A0E94E51AF5
:102610000E94471280E090E008950F931F9380E49A
:1026200060E00E94EC1300E0802F60E00E94D31372
:1026300010E080E061E00E94EC131F5F1038C9F7E2
:102640000F5F043089F783E060E00E94CC131F9194
:102650000F9108950F931F9382E00E944B188823D7
:1026600011F482E006C081E00E944B18882319F41F
:1026700081E090E06DC00E945B1D85E061E00E94FA
:1026800093188EEA60E00E94EC1382EA60E00E94F8
:10269000EC1380EA60E00E94EC1300E513ECC80143
:1026A0000197F1F780EC60E00E94EC138FE260E0AC
:1026B0000E94EC1381E860E00E94EC1386E160E088
:1026C0000E94EC1382E260E00E94EC13C8010197C3
:1026D000F1F78FEA60E00E94EC1386EA60E00E9466
:1026E000EC1385EA60E00E94EC1380E090E028E8BB
:1026F00033E1F9013197F1F7019643E0883E940701
:10270000C1F783EB60E00E94EC1380E460E00E947C
:10271000EC1383E060E00E94D31383E060E00E944A
:10272000CC131092F1041092F3041092F20488EC8E
:1027300091E0909322058093210588E10E94AB13DC
:102740000E940D1384EA60E00E94EC1385E091E0A2
:102750001F910F9108951F93182F85E00E944B1829
:102760008130C1F487E00E94281482E06AE00E9470
:10277000791482E061EB0E947914612F113208F024
:1027800060E282E00E94791489EE8A95F1F787E091
:102790000E9428141F91089583706F776093EF044F
:1027A0008093F00408950F931F93062F162F1F7721
:1027B0008370806B60E00E94EC1312951F70812F74
:1027C000806160E00E94EC13802F8F7060E00E94B7
:1027D000EC131F910F9108950F931F93082F162F3D
:1027E00085E00E944B18813079F4112319F01130E3
:1027F00021F402C02B9801C02B9A86E08A95F1F74C
:1028000080E0602F0E9479141F910F9108951F930B
:10281000182F86E00E944B18813019F4812F0E94F6
:102820000A1E1F9108950E940F1E86E061E00E941B
:10283000931886E091E008951F93182F86E00E9478
:102840004B18813019F4812F0E94121E1F91089598
:102850001F93182F82E00E944B18813009F047C067
:10286000912F97708091F404981709F440C09093C9
:10287000F40485B1887F892B85B9933011F19430A8
:1028800028F4913051F0923090F40CC0953019F149
:102890009530E0F0963021F50FC0E0918D02F09177
:1028A0008E0222C0E0918B02F0918C021DC0E0915B
:1028B0008F02F091900218C0E0919702F091980277
:1028C00013C0E0919102F09192020EC0E091930248
:1028D000F091940209C0E0919502F091960204C033
:1028E000E0919902F0919A02309709F009951F91B1
:1028F00008951F93162F0E94281482E00E944B18FF
:10290000813021F41EBD0DB407FEFDCF1F91089547
:102910000F931F93CF93DF9380E291E00E94852D68
:102920009C019093AA028093A902892B11F480E064
:1029300039C08901C0E0D0E0BE0180E090E00E9493
:10294000C62620E030E040EA51E40E942D2627EF21
:1029500035E740E05FE30E94B6279B01AC0160E0F1
:1029600070E080E291E40E9419289B01AC01CA0149
:10297000B9012DEC3CEC42E851E40E94B6270E94DC
:102980007C272AE030E040E050E00E94E62CF8018D
:1029900061937193819391938F012196C834D105EE
:1029A00059F681E0DF91CF911F910F9108958AE050
:1029B0000E944B18882371F41092A6021092A5026F
:1029C00081E00E944D1F81E080939C028AE061E0DB
:1029D0000E9493188AE091E008951F938BE00E9473
:1029E0004B18882311F090E021C089E00E944B1819
:1029F0008823D9F40E948814182F8130B1F41092E2
:102A00009D0210929E0210929F021092A0028DE0F1
:102A100060ED7EE10E94331D82E00E944D1F109305
:102A20009B0289E061E00E94931891E089E01F9188
:102A30000895813029F0823031F090E089E00895E6
:102A40000E94D71408950E94ED1408958091B50452
:102A50009091B6042091B7043091B804BC01C9012B
:102A600008952F923F924F925F926F927F928F9232
:102A70009F92AF92BF92CF92DF92EF92FF920F930D
:102A80001F93DF93CF93CDB7DEB7582E962E442EEB
:102A900039013C2CC98CDA8C2B8C81E0681739F118
:102AA000681728F092E0691709F085C049C080E0F6
:102AB00061E00E943A1780E0B7010E94031780E0AE
:102AC000642DA3019801032DEE24E394EAEDCE2EAC
:102AD000E4E0DE2E0E947117552009F06CC000D092
:102AE0000F92EDB7FEB71182B382A28223C081E0BC
:102AF00061E00E943A1781E0B6010E94031781E06D
:102B0000682D4D895E892F89388D022DEE24E3943E
:102B10007AEDC72E74E0D72E0E947117552009F068
:102B20004AC000D00F92EDB7FEB791828C8D9D8D7B
:102B3000938382830E94FD170F900F900F903BC0EC
:102B400082E061E00E943A1780E0B7010E9403171B
:102B500081E0B6010E94031780E0642DA301980173
:102B6000032DEE24E3949AEDC92E94E0D92E0E9411
:102B7000711781E0682D4D895E892F89388D022D6E
:102B80000E9471175520B9F400D000D00F92ADB754
:102B9000BEB71196EDB7FEB79182FD01B282A18258
:102BA0008C8D9D8D948383830E94FD170F900F90D1
:102BB0000F900F900F90CF91DF911F910F91FF9089
:102BC000EF90DF90CF90BF90AF909F908F907F90CD
:102BD0006F905F904F903F902F9008956F927F92EB
:102BE0008F929F92AF92BF92CF92DF92EF92FF921D
:102BF0000F931F93DF93CF93CDB7DEB7942E7C2D29
:102C0000D50149895A89AB88BC88CD88DE889F89DF
:102C1000813009F457C08130B8F1823009F076C0B4
:102C2000613091F0613020F0623009F06FC015C062
:102C300080E060E00E943A1780E0B7010E9403172D
:102C400080E0692DA8011DC081E060E00E943A1774
:102C500081E0B6010E94031711C082E060E00E948B
:102C60003A1780E0B7010E94031781E0B6010E9485
:102C7000031780E0692DA8010E94EC1681E0682D01
:102C8000A5010E94EC1642C0EDB7FEB739970FB60A
:102C9000F894FEBF0FBEEDBF6DB67EB60894611C02
:102CA000711C52834183F301B382A282D582C48214
:102CB0009683888D998D9087878380E0492DC72ED4
:102CC0005D011AC0EDB7FEB739970FB6F894FEBF95
:102CD0000FBEEDBFADB7BEB7119652834183FD0164
:102CE000B382A282D582C48296831086178281E045
:102CF000492DC72EAA24BB240E9431158DB79EB73B
:102D000009960FB6F8949EBF0FBE8DBFCF91DF918D
:102D10001F910F91FF90EF90DF90CF90BF90AF90F9
:102D20009F908F907F906F9008950E94DF1F81E0A9
:102D30008093D904E3EAF4E0119211921182108297
:102D4000329611821082329611821082329611824E
:102D5000108232961182108232961182108232963F
:102D60001182108232961182108232961182108264
:102D7000329611821082329611821082329611821E
:102D800010823696119211921192108232961192FF
:102D9000119211921192119211921192118210823C
:102DA00032961182108232961182108232961182EE
:102DB00010827697118210823296118210821092C0
:102DC000D8041092D7041092D90487E061E00E94E1
:102DD000931887E091E00895EF92FF920F931F936D
:102DE000182F062F7A0160E00E943A17812F602F7A
:102DF0000E942517812FB7010E944F171F910F9135
:102E0000FF90EF900895482F81E08093D904CB0183
:102E100023E0693E720710F088EE93E0413071F0D4
:102E2000413018F0423071F405C09093AE048093A5
:102E3000AD0408C09093AE048093AD049093B004A9
:102E40008093AF041092D9040895982F81E0809365
:102E5000D904913051F0913018F0923041F403C010
:102E60006093C60404C06093C6046093C7041092C4
:102E7000D9040895982F81E08093D904913051F0BE
:102E8000913018F0923041F403C06093A30404C061
:102E90006093A3046093A4041092D9040895482F6A
:102EA00081E08093D904CB0121E06139720710F0F1
:102EB00080E991E0413071F0413018F0423071F416
:102EC00005C09093A6048093A50408C09093A6041F
:102ED0008093A5049093A8048093A7041092D9042A
:102EE00008958F929F92AF92BF92CF92DF92EF920E
:102EF000FF920F931F93CF93DF93182FF62E5A0153
:102F00004901E60161E00E943A17812FB501A40151
:102F10000E941920812F6F2D0E942517812F602F6D
:102F20000E940420812FB5010E94E91FC114D10421
:102F300099F0113049F0113018F0123069F406C0E0
:102F400018821092D50408C0198204C01882198210
:102F50001092D5041092D604D093D804C093D7040D
:102F6000EE20B9F58BE392E09093D8048093D704D8
:102F7000812FB4010E944F17812F0E94CA1F113068
:102F800071F0113018F0123059F512C010923B0256
:102F90001092D50480913B028823E1F321C0109266
:102FA0003C021092D60480913C028823E1F318C0C1
:102FB00010923B0210923C021092D5041092D6045B
:102FC00080913B028823E1F380913C028823C1F386
:102FD00007C0812FB4010E944F17812F0E94CA1F82
:102FE000DF91CF911F910F91FF90EF90DF90CF90E5
:102FF000BF90AF909F908F900895CF92DF92EF9205
:10300000FF920F931F93DF93CF93CDB7DEB78B85DE
:10301000813061F0813018F08230A1F511C0EC856B
:10302000FD858091DA048823E1F306C0EC85FD85F7
:103030008091DB048823E1F3309721F1099522C0C8
:10304000CC84DD84EE84FF8400E010E0002351F4A2
:103050008091DA04882331F0C114D10411F0F60113
:10306000099501E0112351F48091DB04882331F0AC
:10307000E114F10411F0F701099511E0002331F397
:10308000112321F3CF91DF911F910F91FF90EF90CA
:10309000DF90CF900895E82FF0E0E331F10540F4A0
:1030A000E25CFF4FEE0FFF1F0590F491E02D0994B5
:1030B00080E008958091DC0408958091DD040895F6
:1030C0008091DE0408958091DF0408958091E004EA
:1030D00008958091E20408958091E104089580911B
:1030E000E30408958091E40408958091E50408952F
:1030F0008091E60408958091E70408958091E804A2
:1031000008958091E90408958091EA0408958091DA
:10311000EB0408958091EC0408958091ED040895E6
:103120008091EE040895E82FF0E0E331F10508F016
:1031300040C0EF5AFF4FEE0FFF1F0590F491E02DB6
:1031400009946093DC0408956093DD04089560930E
:10315000DE0408956093DF0408956093E004089509
:103160006093E20408956093E10408956093E3049A
:1031700008956093E40408956093E50408956093CE
:10318000E60408956093E70408956093E8040895C1
:103190006093E90408956093EA0408956093EB0452
:1031A00008956093EC0408956093ED04089560938E
:1031B000EC0408950F931F9381E00E944B18813017
:1031C00011F000E024C087E00E94281482E06AE049
:1031D0000E94791482E062EB0E94791418EC812F2E
:1031E0008A95F1F782E060E00E94B51E082F812FDA
:1031F0008A95F1F782E060E00E94B51E1A95F1F71A
:1032000087E00E94281488E893E10197F1F7802F66
:103210001F910F9108951F93CF93DF93182F8091E3
:103220003E02882341F080914802882399F0109251
:103230003E02109248020E94DA1880933D0282E416
:1032400092E061E040E022E330E00E94C91981E0B1
:1032500080933E0290913D02A12FB0E0ED01CE534C
:10326000DE4F8881882369F0FD01EB53FE4F80819A
:103270009823C1F0FD01E15CFD4F81E0808318825D
:1032800011C0FD01E15CFD4F808181111082FD01C3
:10329000EB53FE4F8081982329F4FD01EE53FE4F3E
:1032A00081E08083A15CBD4F8C91DF91CF911F9114
:1032B000089582E00E944B18882319F490E082E080
:1032C000089510920A051092090510920C051092AB
:1032D0000B0510920E0510920D051092100510921C
:1032E0000F05109212051092110580E991E090935C
:1032F000F6048093F5049093F8048093F704909378
:10330000FA048093F9049093FC048093FB04909357
:10331000FE048093FD0484E398E09093000580937D
:10332000FF04909302058093010590930405809318
:1033300003059093060580930505909308058093F7
:10334000070581E061E00E94931891E081E0089513
:10335000DF93CF93CDB7DEB729970FB6F894DEBFD2
:103360000FBECDBF9C01CE01019661E040E00E94FE
:10337000C919982F882319F48F818823E9F3892F9D
:1033800029960FB6F894DEBF0FBECDBFCF91DF9167
:103390000895EF92FF920F931F93CF93DF93EC0169
:1033A000F62EE42E890188E00E944B18813011F03E
:1033B00081E026C084E090E00E94852DFC0100970A
:1033C00011F482E01DC0F982F0FC1E8281E0E81653
:1033D00019F48981846089838981886089831B834A
:1033E0000A831D830C83D183C0831382128281E000
:1033F0008093AB02CF010E9479201092AB0280E053
:10340000DF91CF911F910F91FF90EF900895FC01F4
:1034100080911605813011F085E00895809117059F
:10342000813011F08AE00895613011F484EC01C01C
:1034300084E88093BC008091BC0087FFFCCF6130A2
:1034400031F48091B900887F803559F405C08091AE
:10345000B900887F883529F48091BB00808380E0A3
:10346000089582E00895982F80911605813011F01B
:1034700085E0089580911705813011F08AE0089564
:103480009093BB0084E88093BC008091BC0087FFD0
:10349000FCCF8091B90090E0887F907088329105D0
:1034A00021F0C09721F483E0089580E008958CE036
:1034B0000895982F20911605213011F085E0089588
:1034C00080911805813011F489E008952093170543
:1034D00084EA8093BC008091BC0087FFFCCF809180
:1034E000B900887F883039F08091B900887F8031B9
:1034F00011F081E00895613019F4990F916003C0D3
:10350000662319F4990F9093BB0084E88093BC0064
:103510008091BC0087FFFCCF613031F48091B9000D
:10352000887F803441F409C0662339F48091B90062
:10353000887F883111F082E0089580E008958091BD
:103540001705813011F08AE00895809119058130C6
:1035500029F485E98093BC0080E0089584E9809394
:10356000BC0080E0089582E10E944B188823B1F4EA
:103570001092160510921705109218051092190551
:1035800010921A050E94152187E160E00E94D11A6D
:103590000E940B2182E161E00E94931882E190E099
:1035A000089563706093B9008093B80081E08093C0
:1035B000160508958FE180937C00EAE7F0E087E04C
:1035C000808380818068808308950E9456200E94B5
:1035D000171E0E94471D0E94E2200E947C1E0E942E
:1035E000591978940895000008951F920F920FB60C
:1035F0000F9211242F933F934F935F936F937F9379
:103600008F939F93AF93BF93EF93FF93E0916B02E0
:10361000F0916C02309709F00995FF91EF91BF91FD
:10362000AF919F918F917F916F915F914F913F915A
:103630002F910F900FBE0F901F9018951F920F9211
:103640000FB60F9211242F933F934F935F936F9375
:103650007F938F939F93AF93BF93EF93FF93E091EB
:103660006D02F0916E02309709F00995FF91EF918C
:10367000BF91AF919F918F917F916F915F914F918A
:103680003F912F910F900FBE0F901F9018951F9292
:103690000F920FB60F9211242F933F934F935F9386
:1036A0006F937F938F939F93AF93BF93EF93FF930A
:1036B000E0916F02F0917002309709F00995FF9147
:1036C000EF91BF91AF919F918F917F916F915F919A
:1036D0004F913F912F910F900FBE0F901F90189513
:1036E0001F920F920FB60F9211242F933F934F9377
:1036F0005F936F937F938F939F93AF93BF93EF935A
:10370000FF93E0915D02F0915E02309709F0099518
:10371000FF91EF91BF91AF919F918F917F916F91A9
:103720005F914F913F912F910F900FBE0F901F907F
:1037300018951F920F920FB60F9211242F933F935B
:103740004F935F936F937F938F939F93AF93BF93A9
:10375000EF93FF93E0915F02F0916002309709F0E0
:103760000995FF91EF91BF91AF919F918F917F91BB
:103770006F915F914F913F912F910F900FBE0F90DE
:103780001F9018951F920F920FB60F9211242F932E
:103790003F934F935F936F937F938F939F93AF93D9
:1037A000BF93EF93FF93E0916102F0916202309733
:1037B00009F00995FF91EF91BF91AF919F918F9182
:1037C0007F916F915F914F913F912F910F900FBE1D
:1037D0000F901F9018951F920F920FB60F92112401
:1037E0002F933F934F935F936F937F938F939F9309
:1037F000AF93BF93EF93FF93E0916502F091660260
:10380000309709F00995FF91EF91BF91AF919F918A
:103810008F917F916F915F914F913F912F910F9079
:103820000FBE0F901F9018951F920F920FB60F9218
:1038300011242F933F934F935F936F937F938F93B5
:103840009F93AF93BF93EF93FF93E0916702F09143
:103850006802309709F00995FF91EF91BF91AF9100
:103860009F918F917F916F915F914F913F912F9198
:103870000F900FBE0F901F9018951F920F920FB6CA
:103880000F9211242F933F934F935F936F937F93E6
:103890008F939F93AF93BF93EF93FF93E091630256
:1038A000F0916402309709F00995FF91EF91BF9173
:1038B000AF919F918F917F916F915F914F913F91C8
:1038C0002F910F900FBE0F901F9018951F920F927F
:1038D0000FB60F9211242F933F934F935F936F93E3
:1038E0007F938F939F93AF93BF93EF93FF93E09159
:1038F0006902F0916A02309709F00995FF91EF9102
:10390000BF91AF919F918F917F916F915F914F91F7
:103910003F912F910F900FBE0F901F9018951F92FF
:103920000F920FB60F9211242F933F934F935F93F3
:103930006F937F938F939F93AF93BF93EF93FF9377
:10394000E0915302F0915402309709F00995FF91EC
:10395000EF91BF91AF919F918F917F916F915F9107
:103960004F913F912F910F900FBE0F901F90189580
:103970001F920F920FB60F9211242F933F934F93E4
:103980005F936F937F938F939F93AF93BF93EF93C7
:10399000FF93E0915502F0915602309709F0099596
:1039A000FF91EF91BF91AF919F918F917F916F9117
:1039B0005F914F913F912F910F900FBE0F901F90ED
:1039C00018951F920F920FB60F9211242F933F93C9
:1039D0004F935F936F937F938F939F93AF93BF9317
:1039E000EF93FF93E0915702F0915802309709F05E
:1039F0000995FF91EF91BF91AF919F918F917F9129
:103A00006F915F914F913F912F910F900FBE0F904B
:103A10001F9018951F920F920FB60F9211242F939B
:103A20003F934F935F936F937F938F939F93AF9346
:103A3000BF93EF93FF93E0915902F0915A023097B0
:103A400009F00995FF91EF91BF91AF919F918F91EF
:103A50007F916F915F914F913F912F910F900FBE8A
:103A60000F901F901895E82F803268F480518330B2
:103A700050F0F0E0EE0FFF1FE55BFD4F208131813C
:103A80007183608302C020E030E0C901089580E1C5
:103A90000E944B18882361F4EBE4F2E0119211923A
:103AA00082E0EB38F807D1F780E161E00E949318DB
:103AB00080E191E00895239A0895FF920F931F9358
:103AC000CF93DF93F82E8AE0F816B1F08F1548F007
:103AD000E8E0FE16B9F1EF1538F1F7E0FF1651F402
:103AE0003BC08DE0F81659F0EBE1FE1689F0FCE0E2
:103AF000FF1641F001E041C01092EF0403C01092A4
:103B0000EF043AC08091F00481508093F00434C0F7
:103B10000E940D1314C080E061E00E94EC138091BC
:103B2000EF048F5F8093EF048091EF0487FFF3CF62
:103B30001092EF048091F00481508093F00400E033
:103B400011E01CC08091EF048823B1F08091EF0454
:103B500086508093EF0410C081E00E94191564EF35
:103B600071E080E090E04DE750E024E630E00E9414
:103B7000771F81E00E94431F00E010E08091F00475
:103B80006091EF040E94D313002351F185E0F89E69
:103B9000C0011124EC01C355DF4F8C010E541F4F9F
:103BA000FE01849161E00E94EC132196C017D107B9
:103BB000B9F780E061E00E94EC138091EF048A5F26
:103BC0008093EF048091EF0490E08C3791053CF0F6
:103BD0001092EF048091F00481508093F00411E082
:103BE0008091F00483708093F004113059F4809137
:103BF000F104813039F4E091F204F091F30430974C
:103C000009F0099580E090E0DF91CF911F910F912D
:103C1000FF90089585FD5D9886FD5E980895559AFC
:103C2000569A089585FD5D9A86FD5E9A089580E016
:103C30000E944B18882351F4F8940E94292181E0B6
:103C40000E94291E80E061E00E94931880E091E0CC
:103C50000895813049F0F894813020F18230B1F03C
:103C6000833009F045C017C02C9A80E8809361002A
:103C70001092610080E090E000000196883291058A
:103C8000D9F71092680010926B00089580E8809335
:103C9000610083E004C080E88093610088E0809345
:103CA000610028C080E090E0000001962DE680369B
:103CB0009207D1F72C9880E090E0000001962DE665
:103CC00080369207D1F710927A008FEF80936400CC
:103CD0008091680081608093680080916B008460AF
:103CE00080936B00789483B7816083BF8895089533
:103CF000823008F0789408950F931F930E94552105
:103D000080E064E471E20E94C71E81E06CE371E22E
:103D10000E94C71E82E064E371E20E94C71E86E033
:103D20006CE471E20E94C71E0CE211E283E0B8016C
:103D30000E94C71E84E0B8010E94C71E85E0B8013A
:103D40000E94C71E87E0B8010E94C71E82E061E0A2
:103D50000E9493188FEF8093F40487E00E94281448
:103D600082E091E01F910F9108951F93162F0E94FA
:103D7000281482E00E944B18813011F080E005C0C9
:103D80001EBD0DB407FEFDCF8EB51F910895E82F1F
:103D9000F0E0EE0FFF1FE557FD4F7183608308953C
:103DA0000E94D31E089580919D0290919E02A09141
:103DB0009F02B091A0022091A1023091A2024091F5
:103DC000A3025091A402280F391F4A1F5B1F2093A2
:103DD0009D0230939E0240939F025093A0028091D7
:103DE0009D0290919E02A0919F02B091A0028851E5
:103DF000964FA040B040BCF08BB180588BB98091F9
:103E00009D0290919E02A0919F02B091A0028851C4
:103E1000964FA040B04080939D0290939E02A09345
:103E20009F02B093A00208958AE00E944B1881304F
:103E300041F40E94732110929C028AE060E00E948B
:103E40009318089589E00E944B188130D9F480912D
:103E50009B02882311F00E94C41F82E00E947321FC
:103E60008091A9029091AA02009731F00E94322E0F
:103E70001092AA021092A90210929B0289E060E0BF
:103E80000E9493180895813029F0823029F40E940D
:103E9000221F08950E94141F0895982F80919B025D
:103EA000882331F480919C02882311F4579A5F98FB
:103EB00080919B028823D1F49230C1F4109280004B
:103EC00010928100809181008860809381008091B0
:103ED000810081608093810010928500109284009F
:103EE00081E08093890080E98093880008958F9213
:103EF0009F92AF92BF92CF92DF92EF92FF920F9379
:103F00001F93CF93DF934B015C01EA01B9012115A7
:103F1000310539F19E01442737FD4095542F653610
:103F2000710510F064E670E080E090E00E94E62CFD
:103F300024E630E040E050E00E94182D79018A012B
:103F4000C501B4010E945C21C7010E94A81960E06C
:103F500070E080E090E00E945C21CE018E199F0904
:103F600004C04115510519F0CA010E94A819DF913A
:103F7000CF911F910F91FF90EF90DF90CF90BF9066
:103F8000AF909F908F900895EFE6F0E080818D7F55
:103F900080830895982F81E08093D904913051F067
:103FA000913018F0923041F403C01092C10404C063
:103FB0001092C1041092C2041092D90408953A9A42
:103FC0003B9A3C9A3D9A3E9A3F9A88B1837088B951
:103FD0000895982F81E08093D904913071F0913049
:103FE00018F0923071F405C07093B6046093B50474
:103FF00008C07093B6046093B5047093B8046093DE
:10400000B7041092D9040895982F81E08093D904C1
:10401000913051F0913018F0923041F403C0609328
:10402000C30404C06093C3046093C4041092D90411
:1040300008950F931F93CF93DF93EB018A01813093
:1040400001F1813018F0823061F50DC08091AD042E
:104050009091AE04892B11F080E01AC01092BA043E
:104060001092B9041EC08091AD049091AE04892BCA
:1040700021F080E00E948F2104C01092BA041092B7
:10408000B9048091AF049091B004892B31F081E0A4
:10409000BE01A8010E948F2104C01092BC0410929E
:1040A000BB04DF91CF911F910F9108951092DC0412
:1040B0001092DD041092E1041092DE041092E004EC
:1040C0001092E2041092E3041092E4041092E504CA
:1040D0001092E6041092E7041092E8041092E904AA
:1040E0001092EA041092EB041092EC041092ED048A
:1040F0000895CF92DF92EF92FF920F931F93CF9389
:10410000DF93EC0180911305882339F4D0931505D2
:10411000C09314050E94072147C0C0901405D09099
:10412000150500E010E0EE24FF2437C0A881B98116
:10413000FD0164817581F60140815181FA0184811C
:1041400095819B01281B390B37FF0FC0861B970BEE
:1041500095838483DB82CA82012B29F4D0931505D1
:10416000C093140521C0F7010CC0F6018281938130
:104170002115310549F4FD01158214829B838A8340
:10418000F601D383C28310C0FD01358324830097D9
:10419000B9F30F5F1F4F76016C018091130590E01A
:1041A0000817190718F2ECCF809113058F5F8093E1
:1041B0001305DF91CF911F910F91FF90EF90DF904A
:1041C000CF90089588E00E944B188823B9F410928C
:1041D000130510921505109214051092AB0210925F
:1041E000AC0280E16CEF71E20E9418210E94032270
:1041F0000E94012188E061E00E94931888E091E02C
:104200000895EEE6F0E0808182608083089581E089
:104210008093AC02089580911605813029F4809135
:10422000BC0084608093BC00089538983998089544
:10423000803218F020E030E00AC0E82FF0E0EE0F06
:10424000FF1FE55BFD4F2081318171836083C901D0
:104250000895249A2C9A089583E58CBD81E08DBD44
:104260008DE08A95F1F7089583E58CBD1DBC84EF40
:1042700091E00197F1F708958FE78CBD1DBC84EFA5
:1042800091E00197F1F7089583E58CBD81E08DBD44
:104290008DE08A95F1F7089583E58CBD81E08DBDB1
:1042A00084EF91E00197F1F70895259A2698279ACF
:1042B000209A219A229A08959B01AC0180919C0238
:1042C000882381F0DA01C901880F991FAA1FBB1F3B
:1042D0009093A8028093A70221153105410551054D
:1042E00009F45F980895823029F4809181008E7FCF
:1042F0008093810080919B02813031F480919C02F7
:10430000813011F40000089580919B02813021F0EA
:1043100080919C02813011F45F9857980895EF9234
:10432000FF920F931F93CF93DF93EB01882321F02C
:10433000813009F05AC02DC09A0140E050E0CA0116
:10434000B9010E94E62C2091AD043091AE04220FF9
:10435000331F40E050E00E94182D79018A01A80126
:104360009701220F331F441F551FCE01A0E0B0E07C
:1043700082179307A407B50728F0F092BA04E092D9
:10438000B90433C0D695C795D093BA04C093B90485
:104390002CC09A0140E050E0CA01B9010E94E62C0D
:1043A0002091AF043091B004220F331F40E050E061
:1043B0000E94182D79018A01A8019701220F331F4D
:1043C000441F551FCE01A0E0B0E082179307A40759
:1043D000B50728F0F092BC04E092BB0406C0D69565
:1043E000C795D093BC04C093BB04DF91CF911F91BC
:1043F0000F91FF90EF9008950E940C220E944C2292
:104400000E942522089584B5826084BD85B58460AC
:1044100085BD8EE487BD089588E00E944B188823EF
:1044200011F484E008958091AC02882311F483E0B4
:1044300008958091AB02882311F082E008950E94D4
:10444000BE248130E1F380E0089580919C028130A8
:1044500011F58091A5029091A6022091A7023091BA
:10446000A802280F391F3093A6022093A50280913D
:10447000A5029091A602885E93406CF08BB18058A3
:104480008BB98091A5029091A602885E934090938B
:10449000A6028093A502089587E00E944B18813000
:1044A00009F0AAC08091AD049091AE04892B09F166
:1044B0008091D1049091D2042091AD043091AE044A
:1044C000820F931F9093D2048093D1048091D104E2
:1044D0009091D204885E9340A4F08091D104909191
:1044E000D204885E93409093D2048093D10441E03B
:1044F00009C08091A5049091A6049093AA0480938A
:10450000A90440E08091AF049091B004892B09F197
:104510008091D3049091D4042091AF043091B004E1
:10452000820F931F9093D4048093D3048091D3047B
:104530009091D404885E9340A4F08091D30490912C
:10454000D404885E93409093D4048093D30461E0B4
:1045500009C08091A7049091A8049093AC04809323
:10456000AB0460E0842F0E94FD228091CD049091E5
:10457000CE042091A9043091AA04280F391F30934A
:10458000CE042093CD048091CD049091CE04885E1A
:10459000934014F440E00BC08091CD049091CE0480
:1045A000885E93409093CE048093CD0441E0809147
:1045B000CF049091D0042091AB043091AC04280F2B
:1045C000391F3093D0042093CF048091CF04909171
:1045D000D004885E934014F460E00BC08091CF0457
:1045E0009091D004885E93409093D0048093CF0440
:1045F00061E0842F0E94422308958823F1F02091E6
:10460000A5043091A6048091A9049091AA04281BC6
:10461000390B1216130634F48091A9049091AA0460
:10462000019607C0232B49F08091A9049091AA0418
:1046300001979093AA048093A904662311F1209115
:10464000A7043091A8048091AB049091AC04281B7E
:10465000390B1216130654F48091AB049091AC04FC
:1046600001969093AC048093AB040895232B49F0FA
:104670008091AB049091AC0401979093AC0480932B
:10468000AB0408950F931F93182F062F8091D90420
:10469000882309F0E7C08091C104882309F05AC03B
:1046A0008091A9049091AA04892BE9F48091AD022C
:1046B000837E8093AD021092CA048091D504882332
:1046C00009F45DC06091C30480E00E949924E091E8
:1046D000D704F091D804309709F451C081E0808369
:1046E0001092D5044CC08091A304813041F4809194
:1046F000B5049091B604019711F411E002C01123A2
:10470000F1F1E091C804F0E0E654FE4F9091AD0263
:10471000937E8081892B8093AD028091C60488238B
:1047200021F48091C8048F5F03C08091C804815038
:104730008093C8048091C80483708093C80481E08A
:104740008093CA048091A3048130C9F480E00E9460
:10475000452415C09091AD02937E9093AD02E091F7
:10476000C804F0E0E654FE4F8081892B8093AD02AF
:1047700082E08093CA041092AA041092A904809146
:10478000C204882309F059C08091AB049091AC0415
:10479000892BE9F48091AD028F718093AD02109264
:1047A000CB048091D604882309F45CC06091C404D2
:1047B00081E00E949924E091D704F091D8043097C9
:1047C00009F450C081E081831092D6044BC08091DF
:1047D000A404813041F48091B7049091B80401970A
:1047E00011F401E002C00023E9F1E091C904F0E016
:1047F000E254FE4F9091AD029F718081892B80938E
:10480000AD028091C704882321F48091C9048F5F91
:1048100003C08091C90481508093C9048091C90468
:1048200083708093C90481E08093CB048091A404B9
:104830008130C1F40E94452415C09091AD029F7152
:104840009093AD02E091C904F0E0E254FE4F808104
:10485000892B8093AD0282E08093CB041092AC044C
:104860001092AB048091CC04882331F48DEA92E05D
:10487000612F402F0E942C2588B183709091AD024A
:10488000892B88B91F910F910895882321F08130D9
:1048900009F04EC027C08091B5049091B604892BD1
:1048A00049F08091B5049091B60401979093B604B5
:1048B0008093B5048091D5048823D1F52091B50467
:1048C0003091B6048091B9049091BA042817390741
:1048D00079F580E060E070E00E944F1781E08093FE
:1048E000D50408958091B7049091B804892B49F0BC
:1048F0008091B7049091B80401979093B804809385
:10490000B7048091D604882399F42091B70430919C
:10491000B8048091BB049091BC042817390741F476
:1049200081E060E070E00E944F1781E08093D60440
:1049300008950F931F93182F062F662349F460E004
:1049400070E00E944F17812F60E070E00E94E91F25
:1049500081E08093D904113051F0113018F01230F9
:1049600041F403C00093C10404C00093C104009348
:10497000C2041092D9041F910F910895FF920F93D2
:104980001F93CF93DF9380911305882309F459C0B7
:104990000091140510911505F801C081D1818C8119
:1049A0009D8101979D838C83181619060CF449C0CC
:1049B000898180FF05C08E81882311F481E08E8378
:1049C000898181FF03C0EF81F885099580911305E6
:1049D0008230A8F0F801828193819093150580932D
:1049E000140513821282E0910000F091010084818D
:1049F0009581181619063CF0FF24F39405C0109217
:104A0000150510921405FF248091130581508093A1
:104A1000130580911305882311F40E9429258981AB
:104A200082FF08C08A819B819D838C83C8010E947C
:104A3000792008C0C8010E94322E89818F7E898327
:104A400001C0FF248F2DDF91CF911F910F91FF9017
:104A500008951092AC020895FC018091CA0482303E
:104A600069F48091B10291E089278093B102882393
:104A700009F03EC08081837E80833AC08091A90482
:104A80009091AA04C397A4F56623D1F02091A904BC
:104A90003091AA0480E690E0BC01269FC001279FC8
:104AA000900D369F900D1124880F892F881F990B28
:104AB0009093BE048093BD0481E08093AF0218C040
:104AC0008091AF028823A1F08091BD049091BE0433
:104AD00001979093BE048093BD048091BD04909192
:104AE000BE04892B29F48081837E80831092AF02DB
:104AF0008091CB04823069F48091B00291E08927E3
:104B00008093B002882309F03EC080818F7180833A
:104B100008958091AB049091AC04C397A4F544230D
:104B2000D1F02091AB043091AC0480E690E0AC0170
:104B3000249FC001259F900D349F900D1124880F54
:104B4000892F881F990B9093C0048093BF0481E044
:104B50008093AE0208958091AE028823A1F08091E7
:104B6000BF049091C00401979093C0048093BF0448
:104B70008091BF049091C004892B29F480818F71AA
:104B800080831092AE0208955058BB27AA270ED0FA
:104B900075C166D130F06BD120F031F49F3F11F434
:104BA0001EF45BC10EF4E095E7FB51C1E92F77D10C
:104BB00080F3BA17620773078407950718F071F43A
:104BC0009EF58FC10EF4E0950B2EBA2FA02D0B0190
:104BD000B90190010C01CA01A0011124FF27591B42
:104BE00099F0593F50F4503E68F11A16F040A22F48
:104BF000232F342F4427585FF3CF469537952795B9
:104C0000A795F0405395C9F77EF41F16BA0B620BB7
:104C1000730B840BBAF09150A1F0FF0FBB1F661FFE
:104C2000771F881FC2F70EC0BA0F621F731F841F41
:104C300048F4879577956795B795F7959E3F08F067
:104C4000B3CF9395880F08F09927EE0F9795879526
:104C50000895D9D008F481E008950CD00FC107D190
:104C600040F0FED030F021F45F3F19F0F0C0511158
:104C700039C1F3C014D198F39923C9F35523B1F383
:104C8000951B550BBB27AA2762177307840738F0BB
:104C90009F5F5F4F220F331F441FAA1FA9F333D01A
:104CA0000E2E3AF0E0E830D091505040E695001CCE
:104CB000CAF729D0FE2F27D0660F771F881FBB1F8A
:104CC000261737074807AB07B0E809F0BB0B802D64
:104CD000BF01FF2793585F4F2AF09E3F510568F0B0
:104CE000B6C000C15F3FECF3983EDCF38695779544
:104CF0006795B795F7959F5FC9F7880F911D9695B2
:104D0000879597F90895E1E0660F771F881FBB1F0D
:104D1000621773078407BA0720F0621B730B840BBA
:104D2000BA0BEE1F88F7E095089504D06894B1118E
:104D3000D9C00895BCD088F09F5790F0B92F99271B
:104D4000B751A0F0D1F0660F771F881F991F1AF096
:104D5000BA95C9F712C0B13081F0C3D0B1E008955F
:104D6000C0C0672F782F8827B85F39F0B93FCCF3E0
:104D7000869577956795B395D9F73EF4909580958C
:104D8000709561957F4F8F4F9F4F0895E89409C0AC
:104D900097FB3EF490958095709561957F4F8F4F6E
:104DA0009F4F9923A9F0F92F96E9BB279395F69584
:104DB000879577956795B795F111F8CFFAF4BB0F02
:104DC00011F460FF1BC06F5F7F4F8F4F9F4F16C066
:104DD000882311F096E911C0772321F09EE8872FF0
:104DE000762F05C0662371F096E8862F70E060E0AC
:104DF0002AF09A95660F771F881FDAF7880F969525
:104E0000879597F90895990F0008550FAA0BE0E8C8
:104E1000FEEF16161706E807F907C0F0121613067C
:104E2000E407F50798F0621B730B840B950B39F4BC
:104E30000A2661F0232B242B252B21F408950A2622
:104E400009F4A140A6958FEF811D811D089597F962
:104E50009F6780E870E060E008959FEF80EC089520
:104E600000240A9416161706180609060895002449
:104E70000A9412161306140605060895092E0394C3
:104E8000000C11F4882352F0BB0F40F4BF2B11F437
:104E900060FF04C06F5F7F4F8F4F9F4F089557FD96
:104EA0009058440F551F59F05F3F71F04795880F98
:104EB00097FB991F61F09F3F79F08795089512162F
:104EC00013061406551FF2CF4695F1DF08C01616DB
:104ED00017061806991FF1CF86957105610508948C
:104EE0000895E894BB2766277727CB0197F90895A3
:104EF0008ADF08F48FEF0895DADFA8F19E57A8F152
:104F0000985160F039F1983070F5092E9927660FA5
:104F1000771F881F991F0A94D1F71CC0BB27993FA0
:104F20004CF4B111B1E0B62B672F782F8827985F2A
:104F3000B1F708C0869577956795B79508F4B16085
:104F40009395C1F7BB0F30F411F460FF03C06F5F9E
:104F50007F4F8F4F3EF490958095709561957F4F70
:104F60008F4F9F4F08956894BDCFBBCF0BD086CF96
:104F700077DF28F07CDF18F0952309F068CF6DCF3C
:104F80001124B0CF8CDFA0F3959FD1F3950F50E0A3
:104F9000551F629FF001729FBB27F00DB11D639FEB
:104FA000AA27F00DB11DAA1F649F6627B00DA11D91
:104FB000661F829F2227B00DA11D621F739FB00D37
:104FC000A11D621F839FA00D611D221F749F3327A7
:104FD000A00D611D231F849F600D211D822F762F40
:104FE0006A2F11249F5750408AF0E1F088234AF03D
:104FF000EE0FFF1FBB1F661F771F881F9150504089
:10500000A9F79E3F510570F022CF6CCF5F3FECF3C4
:10501000983EDCF3869577956795B795F795E79574
:105020009F5FC1F7FE2B880F911D9695879597F985
:105030000895FA01EE0FFF1F30962105310599F111
:105040006115710561F48038BFE39B0749F16894ED
:105050009038810561F08038BFEF9B0741F09923BC
:1050600042F5FF3FE1053105210511F1E89408946F
:10507000E795D901AA2329F4AB2FBE2FF85FD0F30F
:1050800010C0FF5F70F4A695E0F7F73950F019F003
:10509000FF3A38F49F779F930CD00F9007FC9058FD
:1050A00008953EF0DACE60E070E080E89FE3089576
:1050B0004FE79F775F934F933F932F939ED02F910E
:1050C0003F914F915F9152DF05C019F40EF0BFCEB2
:1050D00008CFC3CEECDEC8F39638C0F707F80F92BE
:1050E000E8942BE33AEA48EB5FE74EDF0F920F922A
:1050F0000F924DB75EB70F92C0D0E8ECF0E016D03B
:105100004F915F91EF91FF91E595EE1FFF1F49F0E1
:10511000FE57E0684427EE0F441FFA95E1F74195EA
:10512000550B32D00F9007FE26C00895DF93CF9322
:105130001F930F93FF92EF92DF927B018C01689493
:1051400005C0DA2EEF011EDFFE01E894A59125913E
:10515000359145915591AEF3EF0128DDFE019701A0
:10516000A801DA9479F7DF90EF90FF900F911F91EB
:10517000CF91DF9108959B01AC0160E070E080E881
:105180009FE36BCD64CEACC092DEE8F39923D9F3F4
:10519000940F511DBBF39150504094F059F0882367
:1051A00032F0660F771F881F91505040C1F79E3F25
:1051B000510544F7880F911D9695879597F90895A5
:1051C0005F3FACF0983E9CF0BB278695779567953E
:1051D000B79508F4B1609395C1F7BB0F58F711F478
:1051E00060FFE8CF6F5F7F4F8F4F9F4FE3CF7ACE47
:1051F0000EF076C032CE68942ACE59DEC8F39923D9
:10520000D1F3C6F3DF93CF931F930F93FF92C92F70
:10521000DD2788232AF02197660F771F881FDAF78A
:1052200020E030E040E85FEB9FE3883920F0803EEB
:1052300030F021968F77A9DCE0EFF0E003C0A5DC29
:10524000EDE1F1E073DF8B01BE01EC01FB2E6F5746
:1052500071097595771F880B990B9ADD28E132E764
:1052600041E35FE38FDEAF2D9801AE01FF900F9118
:105270001F91CF91DF919ADC01CEFA01DC01AA0FD8
:10528000BB1F9B01AC01BF5728F4222733274427BB
:1052900050781FC0B75188F4AB2F0024469537953E
:1052A0002795011CA395D2F3002069F0220F331F2C
:1052B000441FB395DAF30DD067CC61307105A0E8D7
:1052C0008A07B94630F49B01AC0166277727882707
:1052D0009078309621F02083318342835383089560
:1052E0009F3F31F0915020F4879577956795B7955A
:1052F000880F911D9695879597F90895A1E1B0E0E3
:10530000E3E8F9E2B7C33C017F876E876A01FC01DD
:1053100017821682838181FD03C06FEF7FEF52C336
:105320009E012F5F3F4F398B288BF3012381EE8540
:10533000FF8523FD859123FF8191FF87EE878823D9
:1053400009F43DC3853251F4EE85FF8523FD859137
:1053500023FF8191FF87EE87853221F490E0B3012E
:1053600020D6E3CF982F10E0882499241032B0F48F
:105370009B3269F09C3228F4903251F0933271F4F0
:105380000BC09D3239F0903349F4116028C012608F
:10539000146025C0186023C0106121C017FD2AC009
:1053A000892F80538A3078F416FF06C0FAE09F9E5A
:1053B000902C1124980E13C03AE0839E802C112467
:1053C000880E10620CC09E3221F416FDF8C21064E3
:1053D00006C09C3611F4106802C0983659F4EE8568
:1053E000FF8523FD959123FF9191FF87EE879923F8
:1053F00009F0BCCF892F8554833020F4812F806140
:10540000905E07C0892F8556833008F08FC1812FA9
:105410008F7E86FD02C076E0972E6FE3F62EF8228F
:10542000953619F4F0E4FF2A07C0963619F420E8FF
:10543000F22A02C091109A94F7FE0AC03BE3391594
:1054400018F45CE3B52E02C0B92CB39427E009C070
:1054500047E0491520F4BB2447E0942EF7CF292DCF
:10546000BB24C60104969D878C87F60160817181FB
:1054700082819381AE014F5F5F4F0B2DA4D46C01ED
:105480000981202E332400FF04C003FD02C01DE269
:1054900009C0F1FE02C01BE205C0F2FC02C010E030
:1054A00001C010E2C1018C709070892BA1F1112311
:1054B00011F483E001C084E0881510F0882409C04D
:1054C000881AF3FC06C080E290E0B3016AD58A94A2
:1054D000D1F7112321F0812F90E0B30162D523FE93
:1054E00003C00FE515E00DC003E615E00AC0E114A6
:1054F000F10409F0805290E0B30153D50F5F1F4FC4
:1055000005C0EF2CFF24F0E1EF22FF24F801849185
:10551000882369F708C1F7FE12C0BC0C24FE04C042
:105520008A81813309F4BA941B141CF0BB24B39410
:105530002DC0F8E0FB1550F538E0B32E27C0F6FC7F
:1055400025C0892D90E08C159D054CF02CEFC216DE
:105550002FEFD20624F030E8F32A01C09A94992064
:1055600049F0E2E0F0E0EC0FFD1FE90DF11D808154
:105570008033A1F3F7FE0AC0B92CB394892D90E0D3
:10558000C816D90614F0992401C09C18F7FC03C072
:1055900025E030E009C01C141D041CF021E030E0BF
:1055A00003C096012F5F3F4F112311F02F5F3F4F34
:1055B000992029F0892D90E00196280F391F882D18
:1055C00090E02817390714F0882401C0821A4F2C64
:1055D0005524C20189709070892B31F007C080E298
:1055E00090E0B301DED48A948820C9F7112321F01A
:1055F000812F90E0B301D5D443FE06C007C080E3FD
:1056000090E0B301CED48A948820C9F7F7FE44C055
:105610008601D7FE02C000E010E076010894E11C8C
:10562000F11CE01AF10A41E050E04C0F5D1FE40E5E
:10563000F51E26014B185108892D90E0AA24BB24A1
:10564000A81AB90A5FEF0F3F150721F48EE290E028
:10565000B301A7D4C016D10634F0401651061CF48D
:10566000F701808101C080E3015010400894E11CE3
:10567000F11C0A151B0524F090E0B30192D4E2CF8F
:105680000C151D0539F49A81963318F4953311F4ED
:1056900024FE81E390E045C08A81813309F00F7ECA
:1056A00090E0B3017ED4992091F08EE290E0B301B6
:1056B00078D412E0E1E0F0E0EC0FFD1FE10FF11D06
:1056C0001F5F808190E0B3016CD49A9499F744FCF9
:1056D00003C085E690E002C085E490E0B30161D4A8
:1056E000D7FC05C0C114D10441F404FF06C0D09416
:1056F000C194D108D3948DE201C08BE290E0B30154
:1057000050D480E305C08F5F26EF3FEFC20ED31E5B
:105710003AE0C316D104BCF790E0B30142D4C6010D
:10572000C096B3013ED4CC84DD8446C1933631F0BB
:10573000933799F0933509F055C022C0F601808166
:1057400089835E010894A11CB11C22E030E0C20EE6
:10575000D31E21E0E22EF12C11C0F601A080B18011
:1057600016FD03C06FEF7FEF02C0692D70E022E0ED
:1057700030E0C20ED31EC50109D47C011F7712C0D0
:10578000F601A080B18016FD03C06FEF7FEF02C06D
:10579000692D70E022E030E0C20ED31EC501EBD3CC
:1057A0007C01106813FF06C019C080E290E0B301CD
:1057B000F8D38A94882D90E0E816F906B0F30EC06D
:1057C000F50117FD859117FF81915F0190E0B3010D
:1057D000E8D381108A940894E108F108E114F104F7
:1057E00079F7EAC0943611F0993681F517FF08C0B1
:1057F000F601208131814281538184E090E00AC02A
:10580000F601808191819C01442737FD4095542FFA
:1058100082E090E0C80ED91E9FE6F92EF12257FFD4
:1058200009C050954095309521953F4F4F4F5F4FA0
:1058300090E8F92ACA01B901AE014F5F5F4F2AE033
:1058400030E022D4E82EE889EE1A40C0953721F4E2
:105850001F7E2AE030E01CC0197F9F3661F0903730
:1058600020F4983509F0ABC00FC0903739F0983765
:1058700009F0A5C004C028E030E00AC0106114FDA2
:10588000146020E130E004C014FD166020E132E035
:1058900017FF08C0F601608171818281938144E025
:1058A00050E008C0F60180819181BC0180E090E069
:1058B00042E050E0C40ED51EAE014F5F5F4FE4D30F
:1058C000E82E5889E51A8FE7F82EF122F6FE0BC074
:1058D0008EEFF822E91438F4F4FE07C0F2FC05C09C
:1058E0009FEEF92202C01E2D01C0192DF4FE0DC03D
:1058F000FE01EE0DF11D8081803319F4E9EEFE22E8
:1059000008C01F5FF2FE05C003C08F2D867809F026
:105910001F5F0F2DF3FC13C0F0FE0EC0181510F022
:105920009E2C0AC09E2C980C911A182D05C080E25E
:1059300090E0B30136D31F5F1815C8F304C01815E3
:1059400010F4811A01C0882404FF0EC080E390E0A7
:10595000B30127D302FF1BC001FD03C088E790E01D
:105960000EC088E590E00BC0802F867881F001FFA3
:1059700002C08BE201C080E2F7FC8DE290E0B3014F
:1059800010D305C080E390E0B3010BD39A94E914DF
:10599000C8F3EA94E1E0F0E0EC0FFD1FEE0DF11D1D
:1059A000808190E0B301FDD2EE2099F705C080E23E
:1059B00090E0B301F6D28A948820C9F7B6CCF301FF
:1059C00066817781CB016196E2E170C0629FD00170
:1059D000739FF001829FE00DF11D649FE00DF11DAA
:1059E000929FF00D839FF00D749FF00D659FF00D59
:1059F0009927729FB00DE11DF91F639FB00DE11D46
:105A0000F91FBD01CF011124089597FB092E072628
:105A10000AD077FD04D065D006D000201AF4709526
:105A200061957F4F0895F6F7909581959F4F089562
:105A3000A1E21A2EAA1BBB1BFD010DC0AA1FBB1F92
:105A4000EE1FFF1FA217B307E407F50720F0A21B04
:105A5000B30BE40BF50B661F771F881F991F1A9471
:105A600069F760957095809590959B01AC01BD019B
:105A7000CF0108952F923F924F925F926F927F9243
:105A80008F929F92AF92BF92CF92DF92EF92FF924E
:105A90000F931F93CF93DF93CDB7DEB7CA1BDB0BFA
:105AA0000FB6F894DEBF0FBECDBF09942A8839889F
:105AB00048885F846E847D848C849B84AA84B984A6
:105AC000C884DF80EE80FD800C811B81AA81B981B2
:105AD000CE0FD11D0FB6F894DEBF0FBECDBFED01C6
