:100000000C9431030C944E030C944E030C944E0349
:100010000C94AF160C94D8160C9401170C942A1754
:100020000C944E030C9490150C94B9150C94E21595
:100030000C945D160C940B160C9434160C948616C6
:100040000C9415150C943E150C9467150C944E03E6
:100050000C944E030C944E030C944E030C944E03DC
:100060000C944E030C944E030C944E030C944E03CC
:100070000C944E030C944E030C944E03AB12AE1230
:10008000B112B412BD12B712BA12C012C312C61204
:10009000C912CC12CF12D212D512D812DB12DE1234
:1000A000E112F212F512F812FB120413FE12011300
:1000B00007130A130D1310131313161319131C131C
:1000C0001F1322132513281307634236B79BD8A7A3
:1000D0001A39685618AEBAAB558C1D3CB7CC57636D
:1000E000BD6DEDFD753EF6177231BF000000803F1B
:1000F00008000000BE922449123EABAAAA2ABECD37
:10010000CCCC4C3E00000080BEABAAAAAA3E0000A8
:100110000000BF000000803F0000000000084178A0
:10012000D3BB4387D1133D190E3CC3BD4282AD2BD7
:100130003E68EC8276BED98FE1A93E4C80EFFFBECF
:1001400001C4FF7F3F000000000016050100000011
:1001500000000000FA000000E000E00028FE28FE99
:10016000282454FE5448C4C81026466C92AA44A0C1
:1001700000A0C000000038448200008244380028FB
:10018000107C102810107C1010000A0C00001010B9
:10019000101010000606000004081020407C8A920F
:1001A000A27C0042FE020042868A92628482A2D22F
:1001B0008C182848FE08E4A2A2A29C3C5292920C01
:1001C000808E90A0C06C9292926C60929294780013
:1001D0006C6C0000006A6C00001028448200282823
:1001E000282828008244281040808A90604C929EE3
:1001F000827C7E8888887EFE9292926C7C8282824B
:1002000044FE82824438FE92929282FE90909080C8
:100210007C8292925EFE101010FE0082FE8200042C
:100220000282FC80FE10284482FE02020202FE408E
:100230003040FEFE201008FE7C8282827CFE909080
:1002400090607C828A847AFE909894626292929204
:100250008C8080FE8080FC020202FCF8040204F81C
:10026000FC021C02FCC6281028C6E0100E10E08616
:100270008A92A2C200FE82820040201008040082FE
:1002800082FE0020408040200202020202008040E4
:100290002000042A2A2A1EFE1222221C1C222222AC
:1002A000041C222212FE1C2A2A2A18107E9080404A
:1002B000304A4A4A7CFE1020201E0022BE02000462
:1002C0000222BC00FE081422000082FE02003E2032
:1002D00018201E3E1020201E1C2222221C3E2828F0
:1002E0002810102828183E3E10202010122A2A2AF2
:1002F0000420FC2202043C0202043E3804020438BA
:100300003C020C023C2214081422300A0A0A3C2245
:10031000262A322200106C82000000FE00000082BB
:100320006C1000081010081000000000007F818190
:10033000817F7F8383837F7F8787877F7F8F8F8F77
:100340007F7F9F9F9F7F7FBFBFBF7F7FFFFFFF7F1D
:100350002040FF4020621517156500FBFB000000E0
:1003600000000000C0FF0300E0FF0700F0FF0F00E7
:10037000F8FF1F0078001E0078001E0078001E00A5
:1003800078001E0078001E0078001E0078001E0015
:1003900078001E0078001E00000000000000000031
:1003A00080FF0300E0FF0700F0FF0F00F8FF1F00D1
:1003B000F83C1F00783C1E00783C1E00783C1E0074
:1003C000783C1E00783C1E00783C1E00783C1E00E5
:1003D000783C1E00783C1E00783C1E0000000000A7
:1003E00000000000E0FF0300F0FF0700F8FF0F002F
:1003F000F8FF1F00783C1E00783C1E00783C1E0071
:10040000783C1E00783C1E00783C1E00783C1E00A4
:10041000783C1E00783C1E00783C1E000000000066
:1004200000000000F8FF0300F8FF0F00F8FF1F00B6
:10043000F8FF1F0000001E0000001E0000801F00CB
:1004400000F01F0000FF0F00E0FF0700F0FF0000BA
:10045000F80F0000F80000007800000078000000AD
:10046000F8FF1F00F8FF1F00F0FF1F00E0FF1F0054
:100470000000000000000000F8FF1F00F8FF1F0050
:10048000F8FF1F00F8FF1F0078001E00783C1E00D8
:10049000783C1E00783C1E00783C1E00783C1E0014
:1004A000783C1E00F87E1F00F8FF1F00F0FF0F00D1
:1004B000E0E703000000000000003800EEFF6C00E1
:1004C0002A8045003A0047FC03FF6CFC83FF39009B
:1004D000DEFF0B7CD0810BFCD0810BC0D0810BFCEC
:1004E000D0810B7CDEFF0B0082FF397002FF6CF8BD
:1004F0003A0047DC2A8045CCEEFF6CCC0000380087
:100500000000000C00001E0C00001E0000001E0079
:1005100000001E0000001E00F8FF1F00F8FF1F0073
:10052000F8FF1F00F8FF1F0000001E0000001E0063
:1005300000001E0000001E0000005E0000004000E1
:1005400000007C00000040000000400000007C0033
:1005500000003000000010000000300000007C6E41
:10056000616E00696E660000407A10F35A00A07256
:100570004E18090010A5D4E80000E87648170000DE
:10058000E40B54020000CA9A3B000000E1F50500AC
:100590000080969800000040420F000000A08601F5
:1005A000000000102700000000E8030000000064C5
:1005B00000000000000A0000000000010000000030
:1005C000002C76D888DC674F0823DFC1DFAE59E105
:1005D000B1B796E5E3E453C63AE651997696E8E674
:1005E000C28426EB898C9B62ED407C6FFCEFBC9C47
:1005F0009F40F2BAA56FA5F490055A2AF75C936B59
:100600006CF9676DC11BFCE0E40D47FEF520E6B513
:1006100000D0ED902E0300943577050080841E08ED
:100620000000204E0A000000C80C333333330F980B
:100630006E12831141EF8D2114893BE65516CFFED2
:10064000E6DB18D1844B381BF77C1D901DA4BBE45E
:1006500024203284725E228100C9F124ECA1E53DA0
:10066000270011241FBECFEFD8E0DEBFCDBF11E0C1
:10067000A0E0B1E0E0E2F6E502C005900D92A83FEF
:10068000B107D9F713E0A8EFB1E001C01D92AF3A6E
:10069000B107E1F70E94550D0C940E2B0C9400004D
:1006A0002F923F924F925F926F927F928F929F9282
:1006B000AF92BF92CF92DF92EF92FF920F931F9370
:1006C000DF93CF93CDB7DEB764970FB6F894DEBF54
:1006D0000FBECDBF882339F587EA92E09C8B8B8BC8
:1006E000A3E2B3E0BE83AD83E9EFF2E0FC83EB83EA
:1006F0008FEC92E09A8389830F2EF0E02F2EF0E0AA
:100700003F2EF0E04F2EF0E05F2EF02D2F86388A3E
:10071000498A5A8A2B863C864D865E862F82388689
:1007200049865A8643C0A0900002B0900102C09052
:100730000202D0900302E0900402F09005020091C2
:1007400006021091070220900802309009024090A2
:100750000A0250900B0220910C0230910D02409140
:100760000E0250910F0280E090E0FC01E957FD4F2E
:10077000A082B182C282D382FC01ED5FFC4FE08295
:10078000F18202831383FC01E752FD4F2082318204
:1007900042825382FC01E155FD4F20833183428325
:1007A000538304968832910501F796CFAB89BC89B3
:1007B0002D913D914D915C911397FD0124833583DB
:1007C00046835783AD81BE81ED90FD900D911C91C4
:1007D0001397FD01E482F58206831783AB81BC8108
:1007E000AD90BD90CD90DC901397FD01A482B582B1
:1007F000C682D782A981BA816D907D908D909C90A0
:100800001397FD016482758286829782C201B101CD
:100810000E9416201B012C016F85788989899A898D
:10082000A80197010E9416206F87788B898B9A8B7D
:100830006B857C858D859E85A60195010E9416207D
:100840006B877C878D879E876F81788589859A8560
:10085000A40193010E9416206F83788789879A8765
:100860008B899C8904979C8B8B8BAD81BE8114975F
:10087000BE83AD83EB81FC813497FC83EB8389815C
:100880009A8104979A838983AB89BC89AF57B24018
:1008900009F08CCF8091000290910102A091020298
:1008A000B0910302EB89FC8980879187A287B38787
:1008B0008091040290910502A0910602B091070276
:1008C0008093030390930403A0930503B09306035E
:1008D0008091080290910902A0910A02B0910B0246
:1008E0008093D9029093DA02A093DB02B093DC02EA
:1008F00080910C0290910D02A0910E02B0910F0216
:100900008093AF029093B002A093B102B093B20271
:10091000C201B10120E030E040E251E40E947E20BB
:10092000609300027093010280930202909303028D
:100930006F85788989899A8920E030E040E251E426
:100940000E947E2060930402709305028093060249
:10095000909307026B857C858D859E8520E030E035
:1009600040E251E40E947E206093080270930902E5
:1009700080930A0290930B026F81788589859A850E
:1009800020E030E040E251E40E947E2060930C02BF
:1009900070930D0280930E0290930F0264960FB62F
:1009A000F894DEBF0FBECDBFCF91DF911F910F91A5
:1009B000FF90EF90DF90CF90BF90AF909F908F907F
:1009C0007F906F905F904F903F902F9008956F921F
:1009D0007F928F929F92AF92BF92CF92DF92EF92CF
:1009E000FF920F931F933B014C01442361F080E081
:1009F00090E0A0E0B0E08093F8019093F901A0931B
:100A0000FA01B093FB01C401B3012091F8013091C8
:100A1000F9014091FA015091FB010E9416205B01FF
:100A20006C016093F8017093F9018093FA0190933F
:100A3000FB01C401B30120E030E040EE50E40E942D
:100A400007227B018C01C401B3012091FC0130918C
:100A5000FD014091FE015091FF010E94152020E010
:100A600030E040EE50E40E9407229B01AC01C80137
:100A7000B7010E9416207B018C01C601B50120E060
:100A800030E040E050E00E9407229B01AC01C80129
:100A9000B7010E9416201F910F91FF90EF90DF90F9
:100AA000CF90BF90AF909F908F907F906F90089560
:100AB0002F926F927F928F929F92AF92BF92CF921E
:100AC000DF92EF92FF920F931F93DF93CF9300D0AB
:100AD00000D0CDB7DEB769837A838B839C83609027
:100AE00008027090090280900A0290900B026091B7
:100AF0000C0270910D0280910E0290910F020E94E3
:100B00007A20282E221C2224221C220C6091000212
:100B1000709101028091020290910302A801970155
:100B20000E947A20082F001F0027001F000F000FCF
:100B30006091040270910502809106029091070273
:100B4000A60195010E947A20182F111F1127111F4D
:100B5000110F110F110FFF24C401B30129813A8134
:100B60004B815C810E947A20882314F4FF24F39443
:100B70002F0C200E822D810F0F900F900F900F9051
:100B8000CF91DF911F910F91FF90EF90DF90CF9069
:100B9000BF90AF909F908F907F906F902F9008950F
:100BA00008950E94E40B60930802709309028093F9
:100BB0000A0290930B020E94C10B60930C02709387
:100BC0000D0280930E0290930F020E942A0C6093F4
:100BD00000027093010280930202909303020E942C
:100BE000070C6093040270930502809306029093B1
:100BF000070208952F923F924F925F926F927F92D9
:100C00008F929F92AF92BF92CF92DF92EF92FF921C
:100C10000F931F93DF93CF9300D000D0CDB7DEB7F3
:100C2000609008027090090280900A0290900B0276
:100C3000A0900C02B0900D02C0900E02D0900F0256
:100C4000E0900402F0900502009106021091070264
:100C50002090000230900102409002025090030266
:100C6000C801B701A20191010E94152069837A830E
:100C70008B839C83C401B30120E030E040E85FE354
:100C80000E947A2087FD0BC0C601B50120E030E04C
:100C900040E85FE30E947A2088230CF076C0C4010C
:100CA000B301A60195010E9415207B018C01DD2472
:100CB00020E030E040E050E00E947A20181614F066
:100CC000DD24D3947D2C7094C801B7010E94E620E6
:100CD0009B0177FF03C0309521953F4FB9018827CD
:100CE00077FD8095982F0E9419216B017C018DB7AB
:100CF0009EB709970FB6F8949EBF0FBE8DBF0DB774
:100D00001EB70F5F1F4FC701B60129813A814B8182
:100D10005C810E9416200E94EB204B015C0182E363
:100D200090E0F80191838083C701B60129813A815F
:100D30004B815C810E9415200E94EB20F801738397
:100D4000628382EC91E095838483168210861782F9
:100D500081E062E0472D22E330E0840152ECE52E91
:100D600051E0F52ECC24AA24BB24872C0E943F10EE
:100D70008DB79EB709960FB6F8949EBF0FBE8DBF74
:100D80000E945E0D80E091E078C0C801B70120E0CC
:100D900030E040E85FE30E947A2087FD0CC0C2018A
:100DA000B10120E030E040E85FE30E947A2087FD57
:100DB00002C080E065C069817A818B819C810E943C
:100DC000E6208B0177FF03C0109501951F4FEDB70B
:100DD000FEB739970FB6F894FEBF0FBEEDBFADB6A4
:100DE000BEB60894A11CB11CFF2469817A818B8155
:100DF0009C8120E030E040E050E00E94C9211816BC
:100E000014F4FF24F394F094DD2469817A818B81BA
:100E10009C8120E030E040E050E00E947A201816EB
:100E200014F0DD24D394D09488EC90E0F501918304
:100E300080831383028382EC91E0958384831682FE
:100E40001086178281E062E04F2D28EC30E092ECB2
:100E5000E92E91E0F92ECC24AA24BB248D2C0E94EB
:100E60003F108DB79EB709960FB6F8949EBF0FBE80
:100E70008DBF0E945E0D8DE091E00E94602A81E0AE
:100E80000F900F900F900F90CF91DF911F910F91C6
:100E9000FF90EF90DF90CF90BF90AF909F908F909A
:100EA0007F906F905F904F903F902F9008952F927A
:100EB0003F924F925F926F927F928F92AF92BF92CA
:100EC000CF92DF92EF92FF920F931F93DF93CF9316
:100ED00000D000D0CDB7DEB70E94FA05C82E882317
:100EE00009F017C1EE24FF24609100027091010205
:100EF000809102029091030220E030E040EA51E448
:100F00000E947A2088231CF4F1E0EF2EF12C00E0FF
:100F100010E06091040270910502809106029091A8
:100F2000070220E030E040EA51E40E947A20882362
:100F300014F401E010E00E291F29FF24609108023B
:100F40007091090280910A0290910B0220E030E03A
:100F500040EA51E40E947A20882314F4FF24F39499
:100F6000EE2460910C0270910D0280910E0290911E
:100F70000F0220E030E040E252E40E947A20882311
:100F800014F4EE24E394FE288F2D90E0082B192B07
:100F9000012B09F0BEC00E94770F9B01AC0180E0DD
:100FA00090E0A0E0B0E08093F8019093F901A09365
:100FB000FA01B093FB01232B11F4452B19F0CC243B
:100FC000C394A7C00E94252960E971E00E945627BA
:100FD000E0E92E2EE1E03E2E280E391E0E94252942
:100FE00068EC70E00E94562788539F4FAA2797FD10
:100FF000A095BA2FBC01CD010E94192169837A8383
:101000008B839C830E94252968EC70E00E94562700
:1010100088539F4FAA2797FDA095BA2FBC01CD01F9
:101020000E9419212B013C010E94252920E06AE041
:1010300070E00E94562708970CF021E0822E8094E1
:101040008DB79EB709970FB6F8949EBF0FBE8DBFA0
:101050000DB71EB70F5F1F4FC301B2010E94EB20F7
:101060006B017C01D8012C9211963C9269817A81A6
:101070008B819C810E94EB20F8017383628382EC58
:1010800091E09583848316821086178281E062E066
:10109000482D9101860172ECE72E71E0F72ECC24E9
:1010A000AA24BB240E943F108DB79EB709960FB6A5
:1010B000F8949EBF0FBE8DBF0E945E0DADB7BEB748
:1010C0001C970FB6F894BEBF0FBEADBFEDB7FEB70D
:1010D00031968AE191E012969C938E931197338218
:1010E000228289819A81AB81BC8184839583A68386
:1010F000B78340865186628673860E944E2ACC242E
:10110000C394ADB7BEB71C960FB6F894BEBF0FBE62
:10111000ADBF8C2D0F900F900F900F90CF91DF915E
:101120001F910F91FF90EF90DF90CF90BF90AF9005
:101130008F907F906F905F904F903F902F90089589
:101140002F923F924F925F926F927F928F929F92D7
:10115000AF92BF92CF92DF92EF92FF920F931F93C5
:10116000DF93CF9300D000D00F92CDB7DEB70E94AF
:101170005707882309F047C1609104027091050266
:10118000809106029091070220E030E040EA51E4AD
:101190000E94C921181664F480E090E0A0EAB0E44F
:1011A0008093040290930502A0930602B093070275
:1011B00060910002709101028091020290910302FD
:1011C00020E030E040EA51E40E94C921181614F0F2
:1011D000CC240EC080E090E0A0EAB0E4809300024E
:1011E00090930102A0930202B0930302CC24C39413
:1011F000E0900C02F0900D0200910E0210910F028F
:10120000C801B70120E030E040E252E40E947A20B9
:10121000882334F5CC2069F0C801B7012091000281
:101220003091010240910202509103020E94162067
:101230000CC06091000270910102809102029091B5
:101240000302A80197010E9415209B01AC01609147
:10125000040270910502809106029091070210C06D
:10126000609104027091050280910602909107023C
:10127000209100023091010240910202509103023C
:101280000E9415206D83972E1C012D81372FB901E7
:1012900040E00E94E7042B013C010E94E6208B0104
:1012A00077FF03C0109501951F4F05361105FCF01F
:1012B000C301B20120E030E040E050E00E947A201B
:1012C0008823A9F0B801882777FD8095982F0E9480
:1012D00019219B01AC01C301B2010E947E2020E0D4
:1012E00030E048EC52E40E9407222B013C01C3018C
:1012F000B20120E030E048EC52E40E947E206B0115
:101300007C018DB79EB709970FB6F8949EBF0FBEAC
:101310008DBF0DB71EB70F5F1F4FC701B60120E08D
:1013200030E046E153E40E94072220E030E046E14D
:1013300053E40E9416200E94EB2069837A838B83FA
:101340009C8382E390E0D8018D939C93C701B60102
:1013500020E030E046E153EC0E94072220E030E03C
:1013600046E153E40E9416200E94EB20F8017383AB
:10137000628382EC91E095838483168210861782C3
:1013800081E062E041E022E330E009811A81A2ECD1
:10139000EA2EA1E0FA2ECC24AA24BB24882483942C
:1013A0000E943F108DB79EB709960FB6F8949EBF66
:1013B0000FBE8DBF0E945E0DADB7BEB71A970FB6B8
:1013C000F894BEBF0FBEADBFEDB7FEB7319682E554
:1013D00091E012969C938E9311972D81392DC9011E
:1013E000D10182839383A483B5834682578260862A
:1013F00071860E944E2AEDB7FEB73A960FB6F89462
:10140000FEBF0FBEEDBF0F900F900F900F900F908B
:10141000CF91DF911F910F91FF90EF90DF90CF90D0
:10142000BF90AF909F908F907F906F905F904F9004
:101430003F902F9008950E94791390932C038093EE
:101440002B030E94640E90930203809301030E9479
:101450007B0D9093D8028093D7020E94E61081E022
:101460000E946A0F0E94640E0E94D3140E94E80C2E
:1014700081E00E944A0D0E94D10581E00E94500344
:101480000E94D1050E94A008FBCF1F93CF93DF934A
:10149000EC0188E660E00E947914182F8823A1F4FB
:1014A00081E00E945314182F882371F488E661E0CC
:1014B0000E947914182F882339F4CE0160E00E942D
:1014C0002714182F811118820E94BF14812FDF91D9
:1014D000CF911F9108951F93CF93DF93EC0188E67E
:1014E00060E00E947914182F8823A1F489E00E94FB
:1014F0005314182F882371F488E661E00E94791450
:10150000182F882339F4CE0160E00E942714182F89
:10151000811118820E94BF14812FDF91CF911F91FA
:1015200008951F93CF93DF93EC0188E660E00E945B
:101530007914182F8823A1F488E00E945314182FDF
:10154000882371F488E661E00E947914182F8823BB
:1015500039F4CE0160E00E942714182F81111882FF
:101560000E94BF14812FDF91CF911F9108951F9387
:10157000CF93DF93EC0188E660E00E947914182F86
:101580008823A1F487E00E945314182F882371F454
:1015900088E661E00E947914182F882339F4CE017F
:1015A00060E00E942714182F811118820E94BF1436
:1015B000812FDF91CF911F9108951F93CF93DF93D8
:1015C000EC0188E660E00E947914182F8823A1F4CA
:1015D00086E00E945314182F882371F488E661E096
:1015E0000E947914182F882339F4CE0160E00E94FC
:1015F0002714182F811118820E94BF14812FDF91A8
:10160000CF911F9108951F93CF93DF93EC0188E64C
:1016100060E00E947914182F8823A1F485E00E94CD
:101620005314182F882371F488E661E00E9479141E
:10163000182F882339F4CE0160E00E942714182F58
:10164000811118820E94BF14812FDF91CF911F91C9
:1016500008951F93CF93DF93EC0188E660E00E942A
:101660007914182F8823A1F484E00E945314182FB2
:10167000882371F488E661E00E947914182F88238A
:1016800039F4CE0160E00E942714182F81111882CE
:101690000E94BF14812FDF91CF911F9108951F9356
:1016A000CF93DF93EC0188E660E00E947914182F55
:1016B0008823A1F483E00E945314182F882371F427
:1016C00088E661E00E947914182F882339F4CE014E
:1016D00060E00E942714182F811118820E94BF1405
:1016E000812FDF91CF911F9108951F93CF93DF93A7
:1016F000EC0188E660E00E947914182F8823A1F499
:1017000082E00E945314182F882371F488E661E068
:101710000E947914182F882339F4CE0160E00E94CA
:101720002714182F811118820E94BF14812FDF9176
:10173000CF911F9108951F93CF93DF93EC0188E61B
:1017400060E00E947914182F8823A1F480E00E94A1
:101750005314182F882371F488E661E00E947914ED
:10176000182F882339F4CE0160E00E942714182F27
:10177000811118820E94BF14812FDF91CF911F9198
:10178000089581E00E944A0D85E00E94130D0E9499
:10179000F60CA0E0B0E0BC01CD010E94172120E0D2
:1017A00030E040EA50E40E9416209B01AC0160E06A
:1017B00070E286E395E40E947E2020E030E040E87D
:1017C0005FE30E941520089581E00E944A0D87E0A2
:1017D0000E94130D0E94F60CA0E0B0E0BC01CD0108
:1017E0000E94172120E030E040EA50E40E941620D9
:1017F0009B01AC0160E070E286E395E40E947E20EC
:1018000020E030E040E85FE30E941520089581E089
:101810000E944A0D83E00E94130D0E94F60CA0E086
:10182000B0E0BC01CD010E94172120E030E040EA89
:1018300050E40E9416209B01AC0160E070E286E358
:1018400095E40E947E2020E030E040E85FE30E94C3
:101850001520089581E00E944A0D84E00E94130D36
:101860000E94F60CA0E0B0E0BC01CD010E9417215F
:1018700020E030E040EA50E40E9416209B01AC01D9
:1018800060E070E286E395E40E947E2020E030E094
:1018900040E85FE30E941520089581E00E944A0D10
:1018A00085E00E94130D0E94F60CA0E0B0E0BC01A0
:1018B000CD010E94172120E030E040EA5BE30E9466
:1018C0000722089581E00E944A0D86E00E94130DD0
:1018D0000E94F60CA0E0B0E0BC01CD010E941721EF
:1018E00020E030E040EA5BE30E9407220895FF9287
:1018F0000F931F93CF93DF930E945E0D81E080933F
:101900002C0380E00E942B13182F81E00E942B13E0
:10191000082F82E00E942B13F82E113019F0C0E03E
:10192000D0E017C084E791E00E94602A88EE93E03F
:101930000E94C81380E20E946D0E80ED97E00E9425
:10194000C81380E40E94580E80E20E94580EC1E045
:10195000D0E00130B9F480E891E00E94602A88EE7E
:1019600093E00E94C81380E40E946D0E80ED97E022
:101970000E94C81380E40E94580E80E20E94580E14
:10198000C2E0D0E081E0F816D1F48CE891E00E944A
:10199000602A88EE93E00E94C81380E40E946D0ED6
:1019A00080E20E946D0E80ED97E00E94C81380E4F3
:1019B0000E94580E80E20E94580EC3E0D0E00E94C0
:1019C0005E0DCE01DF91CF911F910F91FF90089591
:1019D0008FE00E949C12882331F40E94FA148FE059
:1019E00061E00E94E4128FE091E008958FE00E9490
:1019F0009C12813019F020E030E013C080917A0011
:101A0000806480937A0080917A0086FDFCCF3091CB
:101A1000780020917900922F80E0232F30E0282B4E
:101A2000392BC9010895582F809198018830D8F436
:101A300040917E0021E030E0B90102C0660F771FBF
:101A40008A95E2F7CB018095842380937E00809174
:101A50007E00052E02C0220F331F0A94E2F7822B6C
:101A600080937E000DC020917E0081E090E0052EE5
:101A700002C0880F991F0A94E2F7282B20937E005A
:101A80005093980180917C005F71807E852B8093BC
:101A90007C000895ECE7F0E090818295880F880F34
:101AA000807C9F73982B908308950E9413150E9449
:101AB00005150E941B0A80E090E008950F931F9384
:101AC00080E460E00E943D0E00E0802F60E00E9414
:101AD000240E10E080E061E00E943D0E1F5F103890
:101AE000C9F70F5F043089F783E060E00E941D0EA4
:101AF0001F910F9108950F931F9382E00E949C12F3
:101B0000882311F482E006C081E00E949C128823A1
:101B100019F481E090E06DC00E947B1785E061E0E0
:101B20000E94E4128EEA60E00E943D0E82EA60E0CC
:101B30000E943D0E80EA60E00E943D0E00E513EC3D
:101B4000C8010197F1F780EC60E00E943D0E8FE242
:101B500060E00E943D0E81E860E00E943D0E86E15B
:101B600060E00E943D0E82E260E00E943D0EC801EE
:101B70000197F1F78FEA60E00E943D0E86EA60E08F
:101B80000E943D0E85EA60E00E943D0E80E090E0FC
:101B900028E833E1F9013197F1F7019643E0883EF7
:101BA0009407C1F783EB60E00E943D0E80E460E0A3
:101BB0000E943D0E83E060E00E94240E83E060E01E
:101BC0000E941D0E10927B0310927D0310927C03E5
:101BD00087EA91E09093AC038093AB0388E10E9485
:101BE000FC0D0E945E0D84EA60E00E943D0E85E0DF
:101BF00091E01F910F9108951F93182F85E00E9487
:101C00009C128130C1F487E00E94790E82E06AE084
:101C10000E94CA0E82E061EB0E94CA0E612F11324F
:101C200008F060E282E00E94CA0E89EE8A95F1F720
:101C300087E00E94790E1F91089583706F776093FB
:101C4000790380937A0308950F931F93062F162F1D
:101C50001F778370806B60E00E943D0E12951F70AD
:101C6000812F806160E00E943D0E802F8F7060E0C8
:101C70000E943D0E1F910F9108950F931F93082FFF
:101C8000162F85E00E949C12813079F4112319F0FF
:101C9000113021F402C02B9801C02B9A86E08A955E
:101CA000F1F780E0602F0E94CA0E1F910F910895F6
:101CB0001F93182F86E00E949C12813019F4812F07
:101CC0000E942A181F9108950E942F1886E061E053
:101CD0000E94E41286E091E008951F93182F86E099
:101CE0000E949C12813019F4812F0E9432181F919A
:101CF00008951F93182F82E00E949C12813009F0F2
:101D000047C0912F977080917E03981709F440C0C7
:101D100090937E0385B1887F892B85B9933011F12B
:101D2000943028F4913051F0923090F40CC09530FA
:101D300019F19530E0F0963021F50FC0E091620284
:101D4000F091630222C0E0916002F09161021DC037
:101D5000E0916402F091650218C0E0916C02F0918C
:101D60006D0213C0E0916602F09167020EC0E0912F
:101D70006802F091690209C0E0916A02F0916B0279
:101D800004C0E0916E02F0916F02309709F009955E
:101D90001F9108951F93162F0E94790E82E00E94D2
:101DA0009C12813021F41EBD0DB407FEFDCF1F91A2
:101DB00008950F931F93CF93DF9380E291E00E94E9
:101DC000D6279C0190937F0280937E02892B11F489
:101DD00080E039C08901C0E0D0E0BE0180E090E041
:101DE0000E94172120E030E040EA51E40E947E206A
:101DF00027EF35E740E05FE30E9407229B01AC013B
:101E000060E070E080E291E40E946A229B01AC01F4
:101E1000CA01B9012DEC3CEC42E851E40E940722D2
:101E20000E94CD212AE030E040E050E00E943727B8
:101E3000F80161937193819391938F012196C83436
:101E4000D10559F681E0DF91CF911F910F9108954F
:101E50008AE00E949C12882371F410927B021092F7
:101E60007A0281E00E945B1981E0809371028AE02E
:101E700061E00E94E4128AE091E008951F938BE0F4
:101E80000E949C12882311F090E021C089E00E94FA
:101E90009C128823D9F40E94D90E182F8130B1F4F6
:101EA00010927202109273021092740210927502D4
:101EB0008DE06EED78E10E94531782E00E945B197D
:101EC0001093700289E061E00E94E41291E089E0E1
:101ED0001F910895813029F0823031F090E089E03F
:101EE00008950E94280F08950E943E0F0895809142
:101EF0003F03909140032091410330914203BC0184
:101F0000C90108952F923F924F925F926F927F92F4
:101F10008F929F92AF92BF92CF92DF92EF92FF92F9
:101F20000F931F93DF93CF93CDB7DEB7582E962E26
:101F3000442E39013C2CC98CDA8C2B8C81E068173B
:101F400039F1681728F092E0691709F085C049C097
:101F500080E061E00E948B1180E0B7010E94541183
:101F600080E0642DA3019801032DEE24E394E4E6C0
:101F7000CE2EE3E0DE2E0E94C211552009F06CC087
:101F800000D00F92EDB7FEB71182B382A28223C0B8
:101F900081E061E00E948B1181E0B6010E94541142
:101FA00081E0682D4D895E892F89388D022DEE24C0
:101FB000E39474E6C72E73E0D72E0E94C211552019
:101FC00009F04AC000D00F92EDB7FEB791828C8D18
:101FD0009D8D938382830E944E120F900F900F90DD
:101FE0003BC082E061E00E948B1180E0B7010E945B
:101FF000541181E0B6010E94541180E0642DA301C8
:102000009801032DEE24E39494E6C92E93E0D92E93
:102010000E94C21181E0682D4D895E892F89388D1B
:10202000022D0E94C2115520B9F400D000D00F92A9
:10203000ADB7BEB71196EDB7FEB79182FD01B28282
:10204000A1828C8D9D8D948383830E944E120F906C
:102050000F900F900F900F90CF91DF911F910F91E4
:10206000FF90EF90DF90CF90BF90AF909F908F90B8
:102070007F906F905F904F903F902F9008956F9258
:102080007F928F929F92AF92BF92CF92DF92EF9208
:10209000FF920F931F93DF93CF93CDB7DEB7942EAC
:1020A0007C2DD50149895A89AB88BC88CD88DE88CA
:1020B0009F89813009F457C08130B8F1823009F02E
:1020C00076C0613091F0613020F0623009F06FC06D
:1020D00015C080E060E00E948B1180E0B7010E9493
:1020E000541180E0692DA8011DC081E060E00E94CC
:1020F0008B1181E0B6010E94541111C082E060E0B2
:102100000E948B1180E0B7010E94541181E0B6015A
:102110000E94541180E0692DA8010E943D1181E0C8
:10212000682DA5010E943D1142C0EDB7FEB7399759
:102130000FB6F894FEBF0FBEEDBF6DB67EB6089425
:10214000611C711C52834183F301B382A282D58248
:10215000C4829683888D998D9087878380E0492DEE
:10216000C72E5D011AC0EDB7FEB739970FB6F894C8
:10217000FEBF0FBEEDBFADB7BEB711965283418310
:10218000FD01B382A282D582C48296831086178213
:1021900081E0492DC72EAA24BB240E94820F8DB74F
:1021A0009EB709960FB6F8949EBF0FBE8DBFCF9114
:1021B000DF911F910F91FF90EF90DF90CF90BF9034
:1021C000AF909F908F907F906F9008950E94ED192F
:1021D00081E080936303EDE2F3E0119211921182AA
:1021E00010823296118210823296118210823296BB
:1021F00011821082329611821082329611821082E0
:102200003296118210823296118210823296118299
:10221000108232961182108232961182108232968A
:10222000118210823696119211921192108232967A
:102230001192119211921192119211921192118296
:10224000108232961182108232961182108232965A
:10225000118210827697118210823296118210823A
:1022600010926203109261031092630387E061E0B1
:102270000E94E41287E091E00895EF92FF920F939D
:102280001F93182F062F7A0160E00E948B11812F77
:10229000602F0E947611812FB7010E94A0111F911B
:1022A0000F91FF90EF900895482F81E08093630392
:1022B000CB0123E0693E720710F088EE93E04130D5
:1022C00071F0413018F0423071F405C0909338033A
:1022D0008093370308C0909338038093370390931B
:1022E0003A0380933903109263030895982F81E095
:1022F00080936303913051F0913018F0923041F4A3
:1023000003C06093500304C0609350036093510373
:10231000109263030895982F81E0809363039130B6
:1023200051F0913018F0923041F403C060932D03C6
:1023300004C060932D0360932E03109263030895ED
:10234000482F81E080936303CB0121E0613972075C
:1023500010F080E991E0413071F0413018F04230E6
:1023600071F405C09093300380932F0308C09093BD
:10237000300380932F0390933203809331031092A4
:10238000630308958F929F92AF92BF92CF92DF9294
:10239000EF92FF920F931F93CF93DF93182FF62E98
:1023A0005A014901E60161E00E948B11812FB501BC
:1023B000A4010E94271A812F6F2D0E947611812F70
:1023C000602F0E94121A812FB5010E94F719C114C3
:1023D000D10499F0113049F0113018F0123069F43D
:1023E00006C0188210925F0308C0198204C01882C8
:1023F000198210925F0310926003D0936203C0931E
:102400006103EE20B9F580E192E09093620380933E
:102410006103812FB4010E94A011812F0E94D8195D
:10242000113071F0113018F0123059F512C01092BD
:10243000100210925F03809110028823E1F321C003
:102440001092110210926003809111028823E1F32F
:1024500018C0109210021092110210925F03109295
:102460006003809110028823E1F380911102882398
:10247000C1F307C0812FB4010E94A011812F0E94D7
:10248000D819DF91CF911F910F91FF90EF90DF90BE
:10249000CF90BF90AF909F908F900895CF92DF9292
:1024A000EF92FF920F931F93DF93CF93CDB7DEB7D9
:1024B0008B85813061F0813018F08230A1F511C038
:1024C000EC85FD85809164038823E1F306C0EC85EB
:1024D000FD85809165038823E1F3309721F109950B
:1024E00022C0CC84DD84EE84FF8400E010E0002371
:1024F00051F480916403882331F0C114D10411F0A8
:10250000F601099501E0112351F4809165038823B8
:1025100031F0E114F10411F0F701099511E0002305
:1025200031F3112321F3CF91DF911F910F91FF9090
:10253000EF90DF90CF900895E82FF0E0E331F105C0
:1025400040F4E25CFF4FEE0FFF1F0590F491E02D89
:10255000099480E00895809166030895809167034F
:10256000089580916803089580916903089580918A
:102570006A03089580916C03089580916B03089518
:1025800080916D03089580916E03089580916F038B
:10259000089580917003089580917103089580914A
:1025A00072030895809173030895809174030895D0
:1025B0008091750308958091760308958091770343
:1025C0000895809178030895E82FF0E0E331F10554
:1025D00008F040C0EF5AFF4FEE0FFF1F0590F49137
:1025E000E02D09946093660308956093670308954E
:1025F00060936803089560936903089560936A0384
:10260000089560936C03089560936B03089560933D
:102610006D03089560936E03089560936F030895AA
:10262000609370030895609371030895609372033B
:1026300008956093730308956093740308956093FD
:102640007503089560937603089560937703089562
:102650006093760308951F93CF93DF93182F809193
:102660001302882341F080911D02882399F0109273
:10267000130210921D020E94871A8093120287E1B2
:1026800092E061E040E022E330E00E94E91381E063
:102690008093130290911202A12FB0E0ED01CF556B
:1026A000DE4F8881882369F0FD01EC55FE4F808163
:1026B0009823C1F0FD01EC5EFD4F81E0808318821C
:1026C00011C0FD01EC5EFD4F808181111082FD0182
:1026D000EC55FE4F8081982329F4FD01EF55FE4F04
:1026E00081E08083AC5EBD4F8C91DF91CF911F91D3
:1026F000089582E00E949C12882319F490E082E001
:1027000008951092940310929303109296031092DE
:102710009503109298031092970310929A031092C7
:10272000990310929C0310929B0380E991E090938F
:10273000800380937F03909382038093810390931F
:1027400084038093830390938603809385039093FF
:1027500088038093870384E398E090938A038093AF
:10276000890390938C0380938B0390938E038093C3
:102770008D039093900380938F03909392038093A3
:10278000910381E061E00E94E41291E081E008950C
:10279000DF93CF93CDB7DEB729970FB6F894DEBF9E
:1027A0000FBECDBF9C01CE01019661E040E00E94CA
:1027B000E913982F882319F48F818823E9F3892F4F
:1027C00029960FB6F894DEBF0FBECDBFCF91DF9133
:1027D0000895EF92FF920F931F93CF93DF93EC0135
:1027E000F62EE42E890188E00E949C12813011F0BF
:1027F00081E026C084E090E00E94D627FC0100978B
:1028000011F482E01DC0F982F0FC1E8281E0E8161E
:1028100019F48981846089838981886089831B8315
:102820000A831D830C83D183C0831382128281E0CB
:1028300080938002CF010E94B81A1092800280E03B
:10284000DF91CF911F910F91FF90EF900895FC01C0
:102850008091A003813011F085E008958091A1035B
:10286000813011F08AE00895613011F484EC01C0E8
:1028700084E88093BC008091BC0087FFFCCF61306E
:1028800031F48091B900887F803559F405C080917A
:10289000B900887F883529F48091BB00808380E06F
:1028A000089582E00895982F8091A003813011F05F
:1028B00085E008958091A103813011F08AE00895A8
:1028C0009093BB0084E88093BC008091BC0087FF9C
:1028D000FCCF8091B90090E0887F9070883291059C
:1028E00021F0C09721F483E0089580E008958CE002
:1028F0000895982F2091A003213011F085E00895CC
:102900008091A203813011F489E008952093A103FE
:1029100084EA8093BC008091BC0087FFFCCF80914B
:10292000B900887F883039F08091B900887F803184
:1029300011F081E00895613019F4990F916003C09E
:10294000662319F4990F9093BB0084E88093BC0030
:102950008091BC0087FFFCCF613031F48091B900D9
:10296000887F803441F409C0662339F48091B9002E
:10297000887F883111F082E0089580E00895809189
:10298000A103813011F08AE008958091A303813082
:1029900029F485E98093BC0080E0089584E9809360
:1029A000BC0080E0089582E10E949C128823B1F46B
:1029B0001092A0031092A1031092A2031092A303FD
:1029C0001092A4030E94541B87E160E00E94F1145E
:1029D0000E944A1B82E161E00E94E41282E190E0E1
:1029E000089563706093B9008093B80081E080938C
:1029F000A00308958FE180937C00EAE7F0E087E090
:102A0000808380818068808308950E94641A0E9478
:102A100037180E9467170E94211B0E949C180E9471
:102A2000791378940895000008951F920F920FB6BD
:102A30000F9211242F933F934F935F936F937F9344
:102A40008F939F93AF93BF93EF93FF93E0914002D7
:102A5000F0914102309709F00995FF91EF91BF91F4
:102A6000AF919F918F917F916F915F914F913F9126
:102A70002F910F900FBE0F901F9018951F920F92DD
:102A80000FB60F9211242F933F934F935F936F9341
:102A90007F938F939F93AF93BF93EF93FF93E091B7
:102AA0004202F0914302309709F00995FF91EF91AE
:102AB000BF91AF919F918F917F916F915F914F9156
:102AC0003F912F910F900FBE0F901F9018951F925E
:102AD0000F920FB60F9211242F933F934F935F9352
:102AE0006F937F938F939F93AF93BF93EF93FF93D6
:102AF000E0914402F0914502309709F00995FF9169
:102B0000EF91BF91AF919F918F917F916F915F9165
:102B10004F913F912F910F900FBE0F901F901895DE
:102B20001F920F920FB60F9211242F933F934F9342
:102B30005F936F937F938F939F93AF93BF93EF9325
:102B4000FF93E0913202F0913302309709F009953A
:102B5000FF91EF91BF91AF919F918F917F916F9175
:102B60005F914F913F912F910F900FBE0F901F904B
:102B700018951F920F920FB60F9211242F933F9327
:102B80004F935F936F937F938F939F93AF93BF9375
:102B9000EF93FF93E0913402F0913502309709F002
:102BA0000995FF91EF91BF91AF919F918F917F9187
:102BB0006F915F914F913F912F910F900FBE0F90AA
:102BC0001F9018951F920F920FB60F9211242F93FA
:102BD0003F934F935F936F937F938F939F93AF93A5
:102BE000BF93EF93FF93E0913602F0913702309755
:102BF00009F00995FF91EF91BF91AF919F918F914E
:102C00007F916F915F914F913F912F910F900FBEE8
:102C10000F901F9018951F920F920FB60F921124CC
:102C20002F933F934F935F936F937F938F939F93D4
:102C3000AF93BF93EF93FF93E0913A02F0913B0281
:102C4000309709F00995FF91EF91BF91AF919F9156
:102C50008F917F916F915F914F913F912F910F9045
:102C60000FBE0F901F9018951F920F920FB60F92E4
:102C700011242F933F934F935F936F937F938F9381
:102C80009F93AF93BF93EF93FF93E0913C02F0913A
:102C90003D02309709F00995FF91EF91BF91AF91F7
:102CA0009F918F917F916F915F914F913F912F9164
:102CB0000F900FBE0F901F9018951F920F920FB696
:102CC0000F9211242F933F934F935F936F937F93B2
:102CD0008F939F93AF93BF93EF93FF93E09138024D
:102CE000F0913902309709F00995FF91EF91BF916A
:102CF000AF919F918F917F916F915F914F913F9194
:102D00002F910F900FBE0F901F9018951F920F924A
:102D10000FB60F9211242F933F934F935F936F93AE
:102D20007F938F939F93AF93BF93EF93FF93E09124
:102D30003E02F0913F02309709F00995FF91EF9123
:102D4000BF91AF919F918F917F916F915F914F91C3
:102D50003F912F910F900FBE0F901F9018951F92CB
:102D60000F920FB60F9211242F933F934F935F93BF
:102D70006F937F938F939F93AF93BF93EF93FF9343
:102D8000E0912802F0912902309709F00995FF910E
:102D9000EF91BF91AF919F918F917F916F915F91D3
:102DA0004F913F912F910F900FBE0F901F9018954C
:102DB0001F920F920FB60F9211242F933F934F93B0
:102DC0005F936F937F938F939F93AF93BF93EF9393
:102DD000FF93E0912A02F0912B02309709F00995B8
:102DE000FF91EF91BF91AF919F918F917F916F91E3
:102DF0005F914F913F912F910F900FBE0F901F90B9
:102E000018951F920F920FB60F9211242F933F9394
:102E10004F935F936F937F938F939F93AF93BF93E2
:102E2000EF93FF93E0912C02F0912D02309709F07F
:102E30000995FF91EF91BF91AF919F918F917F91F4
:102E40006F915F914F913F912F910F900FBE0F9017
:102E50001F9018951F920F920FB60F9211242F9367
:102E60003F934F935F936F937F938F939F93AF9312
:102E7000BF93EF93FF93E0912E02F0912F023097D2
:102E800009F00995FF91EF91BF91AF919F918F91BB
:102E90007F916F915F914F913F912F910F900FBE56
:102EA0000F901F901895E82F803268F4805183307E
:102EB00050F0F0E0EE0FFF1FE05EFD4F208131810A
:102EC0007183608302C020E030E0C901089580E191
:102ED0000E949C12882361F4E0E2F2E011921192C8
:102EE00082E0E036F807D1F780E161E00E94E41269
:102EF00080E191E00895239A0895FF920F931F9324
:102F0000CF93DF93F82E8AE0F816B1F08F1548F0D2
:102F1000E8E0FE16B9F1EF1538F1F7E0FF1651F4CD
:102F20003BC08DE0F81659F0EBE1FE1689F0FCE0AD
:102F3000FF1641F001E041C01092790303C01092E6
:102F400079033AC080917A03815080937A0334C028
:102F50000E945E0D14C080E061E00E943D0E8091F1
:102F600079038F5F809379038091790387FFF3CF93
:102F70001092790380917A03815080937A0300E064
:102F800011E01CC0809179038823B1F0809179030E
:102F900086508093790310C081E00E946A0F64EF2D
:102FA00071E080E090E04DE750E024E630E00E94E0
:102FB000851981E00E94511900E010E080917A03A8
:102FC000609179030E94240E002351F185E0F89E60
:102FD000C0011124EC01C355DF4F8C010E541F4F6B
:102FE000FE01849161E00E943D0E2196C017D10739
:102FF000B9F780E061E00E943D0E809179038A5F1D
:10300000809379038091790390E08C3791053CF0AF
:103010001092790380917A03815080937A0311E0B2
:1030200080917A03837080937A03113059F48091F0
:103030007B03813039F4E0917C03F0917D0330977C
:1030400009F0099580E090E0DF91CF911F910F91F9
:10305000FF90089585FD5D9886FD5E980895559AC8
:10306000569A089585FD5D9A86FD5E9A089580E0E2
:103070000E949C12882351F4F8940E94681B81E0FE
:103080000E94491880E061E00E94E41280E091E033
:103090000895813049F0F894813020F18230B1F008
:1030A000833009F045C017C02C9A80E880936100F6
:1030B0001092610080E090E0000001968832910556
:1030C000D9F71092680010926B00089580E8809301
:1030D000610083E004C080E88093610088E0809311
:1030E000610028C080E090E0000001962DE6803667
:1030F0009207D1F72C9880E090E0000001962DE631
:1031000080369207D1F710927A008FEF8093640097
:103110008091680081608093680080916B0084607A
:1031200080936B00789483B7816083BF88950895FE
:10313000823008F0789408950F931F930E94941B97
:1031400080E063E87BE10E94D51881E06BE77BE1DA
:103150000E94D51882E063E77BE10E94D51886E0E3
:103160006BE87BE10E94D5180BE61BE183E0B80118
:103170000E94D51884E0B8010E94D51885E0B801F6
:103180000E94D51887E0B8010E94D51882E061E05E
:103190000E94E4128FEF80937E0387E00E94790EF5
:1031A00082E091E01F910F910895E82FF0E0EE0F7B
:1031B000FF1FE05AFD4F7183608308950E94E1185C
:1031C00008958091720290917302A0917402B0915F
:1031D00075022091760230917702409178025091E9
:1031E0007902280F391F4A1F5B1F20937202309308
:1031F0007302409374025093750280917202909111
:103200007302A0917402B09175028851964FA0404C
:10321000B040BCF08BB180588BB980917202909114
:103220007302A0917402B09175028851964FA0402C
:10323000B0408093720290937302A0937402B09393
:10324000750208958AE00E949C12813041F40E9428
:10325000C41B109271028AE060E00E94E41208959B
:1032600089E00E949C128130D9F4809170028823F9
:1032700011F00E94D21982E00E94C41B80917E024C
:1032800090917F02009731F00E94832810927F0274
:1032900010927E021092700289E060E00E94E412B7
:1032A0000895813029F0823029F40E943019089560
:1032B0000E9422190895982F80917002882331F47A
:1032C00080917102882311F4579A5F98809170025F
:1032D0008823D1F49230C1F41092800010928100C2
:1032E000809181008860809381008091810081605D
:1032F00080938100109285001092840081E0809379
:10330000890080E98093880008958F929F92AF9200
:10331000BF92CF92DF92EF92FF920F931F93CF93C2
:10332000DF934B015C01EA01B9012115310539F147
:103330009E01442737FD4095542F6536710510F0E6
:1033400064E670E080E090E00E94372724E630E0F9
:1033500040E050E00E94692779018A01C501B4016B
:103360000E94AD1BC7010E94C81360E070E080E0BE
:1033700090E00E94AD1BCE018E199F0904C041153B
:10338000510519F0CA010E94C813DF91CF911F9116
:103390000F91FF90EF90DF90CF90BF90AF909F90F4
:1033A0008F900895EFE6F0E080818D7F808308950F
:1033B000982F81E080936303913051F0913018F0A1
:1033C000923041F403C010924B0304C010924B039F
:1033D00010924C031092630308953A9A3B9A3C9AD8
:1033E0003D9A3E9A3F9A88B1837088B90895982F84
:1033F00081E080936303913071F0913018F0923046
:1034000071F405C07093400360933F0308C070934C
:10341000400360933F037093420360934103109213
:1034200063030895982F81E080936303913051F0F6
:10343000913018F0923041F403C060934D0304C002
:1034400060934D0360934E031092630308950F93AE
:103450001F93CF93DF93EB018A01813001F181301B
:1034600018F0823061F50DC08091370390913803D8
:10347000892B11F080E01AC010924403109243038C
:103480001EC08091370390913803892B21F080E092
:103490000E94E01B04C010924403109243038091E9
:1034A000390390913A03892B31F081E0BE01A801E4
:1034B0000E94E01B04C01092460310924503DF9166
:1034C000CF911F910F910895109266031092670398
:1034D00010926B031092680310926A0310926C03AF
:1034E00010926D0310926E0310926F03109270038E
:1034F000109271031092720310927303109274036E
:1035000010927503109276031092770308950F932B
:103510001F9381E00E949C12813011F000E024C0D2
:1035200087E00E94790E82E06AE00E94CA0E82E083
:1035300062EB0E94CA0E18EC812F8A95F1F782E0A7
:1035400060E00E949B1B082F812F8A95F1F782E093
:1035500060E00E949B1B1A95F1F787E00E94790EAC
:1035600088E893E10197F1F7802F1F910F9108955B
:10357000CF92DF92EF92FF920F931F93CF93DF933F
:10358000EC0180919D03882339F4D0939F03C0936D
:103590009E030E94461B47C0C0909E03D0909F038D
:1035A00000E010E0EE24FF2437C0A881B981FD01BE
:1035B00064817581F60140815181FA018481958190
:1035C0009B01281B390B37FF0FC0861B970B958378
:1035D0008483DB82CA82012B29F4D0939F03C0939A
:1035E0009E0321C0F7010CC0F60182819381211551
:1035F000310549F4FD01158214829B838A83F6010B
:10360000D383C28310C0FD01358324830097B9F3AF
:103610000F5F1F4F76016C0180919D0390E00817AA
:10362000190718F2ECCF80919D038F5F80939D0363
:10363000DF91CF911F910F91FF90EF90DF90CF908E
:10364000089588E00E949C128823B9F410929D038B
:1036500010929F0310929E0310928002109281029A
:1036600080E16DE47CE10E94571B0E94541C0E9483
:10367000401B88E061E00E94E41288E091E0089538
:10368000EEE6F0E0808182608083089581E080939F
:10369000810208958091A003813029F48091BC00BB
:1036A00084608093BC0008953898399808958032DA
:1036B00018F020E030E00AC0E82FF0E0EE0FFF1F26
:1036C000E05EFD4F2081318171836083C9010895DF
:1036D000249A2C9A089583E58CBD81E08DBD8DE000
:1036E0008A95F1F7089583E58CBD1DBC84EF91E0C8
:1036F0000197F1F708958FE78CBD1DBC84EF91E031
:103700000197F1F7089583E58CBD81E08DBD8DE0D3
:103710008A95F1F7089583E58CBD81E08DBD84EF36
:1037200091E00197F1F70895259A2698279A209A13
:10373000219A229A08951F93162F0E94790E82E0F3
:103740000E949C12813011F080E005C01EBD0DB4B6
:1037500007FEFDCF8EB51F9108959B01AC018091AE
:103760007102882381F0DA01C901880F991FAA1F0D
:10377000BB1F90937D0280937C022115310541058A
:10378000510509F45F980895823029F480918100F1
:103790008E7F8093810080917002813031F480911E
:1037A0007102813011F4000008958091700281301F
:1037B00021F080917102813011F45F98579808953B
:1037C000EF92FF920F931F93CF93DF93EB01882328
:1037D00021F0813009F05AC02DC09A0140E050E03C
:1037E000CA01B9010E94372720913703309138036D
:1037F000220F331F40E050E00E94692779018A01BF
:10380000A8019701220F331F441F551FCE01A0E0CE
:10381000B0E082179307A407B50728F0F09244039D
:10382000E092430333C0D695C795D0934403C09329
:1038300043032CC09A0140E050E0CA01B9010E9444
:1038400037272091390330913A03220F331F40E08C
:1038500050E00E94692779018A01A8019701220F8F
:10386000331F441F551FCE01A0E0B0E0821793071D
:10387000A407B50728F0F0924603E092450306C07E
:10388000D695C795D0934603C0934503DF91CF915A
:103890001F910F91FF90EF9008950E945D1C0E9470
:1038A0009D1C0E94761C089584B5826084BD85B5F8
:1038B000846085BD8EE487BD089588E00E949C12D7
:1038C000882311F484E0089580918102882311F403
:1038D00083E0089580918002882311F082E00895AA
:1038E0000E940F1F8130E1F380E008958091710202
:1038F000813011F580917A0290917B0220917C02B7
:1039000030917D02280F391F30937B0220937A0279
:1039100080917A0290917B02885E93406CF08BB12B
:1039200080588BB980917A0290917B02885E934097
:1039300090937B0280937A02089587E00E949C1204
:10394000813009F0AAC08091370390913803892B08
:1039500009F180915B0390915C03209137033091D2
:103960003803820F931F90935C0380935B038091D5
:103970005B0390915C03885E9340A4F080915B03AD
:1039800090915C03885E934090935C0380935B030B
:1039900041E009C080912F0390913003909334034C
:1039A0008093330340E08091390390913A03892B4F
:1039B00009F180915D0390915E032091390330916C
:1039C0003A03820F931F90935E0380935D0380916F
:1039D0005D0390915E03885E9340A4F080915D0347
:1039E00090915E03885E934090935E0380935D03A5
:1039F00061E009C0809131039091320390933603C6
:103A00008093350360E0842F0E944E1D8091570300
:103A1000909158032091330330913403280F391FBC
:103A20003093580320935703809157039091580384
:103A3000885E934014F440E00BC08091570390914E
:103A40005803885E9340909358038093570341E056
:103A50008091590390915A03209135033091360398
:103A6000280F391F30935A0320935903809159032B
:103A700090915A03885E934014F460E00BC08091EB
:103A8000590390915A03885E934090935A03809310
:103A9000590361E0842F0E94931D08958823F1F05B
:103AA00020912F03309130038091330390913403A0
:103AB000281B390B1216130634F4809133039091AE
:103AC0003403019607C0232B49F080913303909172
:103AD000340301979093340380933303662311F1E9
:103AE0002091310330913203809135039091360358
:103AF000281B390B1216130654F48091350390914C
:103B00003603019690933603809335030895232B53
:103B100049F08091350390913603019790933603D5
:103B20008093350308950F931F93182F062F8091CC
:103B30006303882309F0E7C080914B03882309F0D1
:103B40005AC08091330390913403892BE9F480911A
:103B50008202837E809382021092540380915F03DD
:103B6000882309F45DC060914D0380E00E94EA1E45
:103B7000E0916103F0916203309709F451C081E054
:103B8000808310925F034CC080912D03813041F4FB
:103B900080913F0390914003019711F411E002C01E
:103BA0001123F1F1E0915203F0E0E756FE4F9091BE
:103BB0008202937E8081892B8093820280915003C0
:103BC000882321F4809152038F5F03C080915203B8
:103BD00081508093520380915203837080935203EB
:103BE00081E08093540380912D038130C9F480E0FB
:103BF0000E94961E15C090918202937E909382023D
:103C0000E0915203F0E0E756FE4F8081892B8093CC
:103C1000820282E0809354031092340310923303A3
:103C200080914C03882309F059C08091350390910D
:103C30003603892BE9F4809182028F71809382028E
:103C40001092550380916003882309F45CC0609151
:103C50004E0381E00E94EA1EE0916103F09162034D
:103C6000309709F450C081E08183109260034BC00B
:103C700080912E03813041F4809141039091420361
:103C8000019711F401E002C00023E9F1E091530330
:103C9000F0E0E356FE4F909182029F718081892B64
:103CA0008093820280915103882321F480915303F1
:103CB0008F5F03C0809153038150809353038091A1
:103CC000530383708093530381E080935503809165
:103CD0002E038130C1F40E94961E15C0909182027D
:103CE0009F7190938202E0915303F0E0E356FE4F00
:103CF0008081892B8093820282E080935503109209
:103D000036031092350380915603882331F482E8FC
:103D100092E0612F402F0E947D1F88B183709091A7
:103D20008202892B88B91F910F910895882321F071
:103D3000813009F04EC027C080913F03909140032D
:103D4000892B49F080913F03909140030197909314
:103D5000400380933F0380915F038823D1F5209136
:103D60003F0330914003809143039091440328170F
:103D7000390779F580E060E070E00E94A01181E0F1
:103D800080935F0308958091410390914203892BB2
:103D900049F080914103909142030197909342032F
:103DA0008093410380916003882399F4209141031B
:103DB00030914203809145039091460328173907BB
:103DC00041F481E060E070E00E94A01181E0809306
:103DD000600308950F931F93182F062F662349F44D
:103DE00060E070E00E94A011812F60E070E00E940E
:103DF000F71981E080936303113051F0113018F00E
:103E0000123041F403C000934B0304C000934B03F2
:103E100000934C03109263031F910F910895FF923A
:103E20000F931F93CF93DF9380919D03882309F411
:103E300059C000919E0310919F03F801C081D18168
:103E40008C819D8101979D838C83181619060CF433
:103E500049C0898180FF05C08E81882311F481E0EB
:103E60008E83898181FF03C0EF81F8850995809158
:103E70009D038230A8F0F8018281938190939F0383
:103E800080939E0313821282E0910000F091010062
:103E900084819581181619063CF0FF24F39405C01F
:103EA00010929F0310929E03FF2480919D038150E6
:103EB00080939D0380919D03882311F40E947A1FB3
:103EC000898182FF08C08A819B819D838C83C80180
:103ED0000E94B81A08C0C8010E94832889818F7E79
:103EE000898301C0FF248F2DDF91CF911F910F9106
:103EF000FF900895109281020895FC01809154036F
:103F0000823069F48091860291E08927809386024D
:103F1000882309F03EC08081837E80833AC08091EF
:103F2000330390913403C397A4F56623D1F0209115
:103F300033033091340380E690E0BC01269FC0013A
:103F4000279F900D369F900D1124880F892F881F71
:103F5000990B909348038093470381E080938402F8
:103F600018C0809184028823A1F08091470390912A
:103F70004803019790934803809347038091470338
:103F800090914803892B29F48081837E808310924D
:103F9000840280915503823069F48091850291E01A
:103FA000892780938502882309F03EC080818F7124
:103FB000808308958091350390913603C397A4F5CB
:103FC0004423D1F0209135033091360380E690E010
:103FD000AC01249FC001259F900D349F900D1124AA
:103FE000880F892F881F990B90934A038093490368
:103FF00081E0809383020895809183028823A1F059
:104000008091490390914A03019790934A038093CA
:1040100049038091490390914A03892B29F48081B7
:104020008F7180831092830208955058BB27AA276E
:104030000ED075C166D130F06BD120F031F49F3FC6
:1040400011F41EF45BC10EF4E095E7FB51C1E92FBA
:1040500077D180F3BA17620773078407950718F0C2
:1040600071F49EF58FC10EF4E0950B2EBA2FA02DA2
:104070000B01B90190010C01CA01A0011124FF2715
:10408000591B99F0593F50F4503E68F11A16F04010
:10409000A22F232F342F4427585FF3CF469537950F
:1040A0002795A795F0405395C9F77EF41F16BA0BD4
:1040B000620B730B840BBAF09150A1F0FF0FBB1F82
:1040C000661F771F881FC2F70EC0BA0F621F731FCB
:1040D000841F48F4879577956795B795F7959E3F28
:1040E00008F0B3CF9395880F08F09927EE0F9795B6
:1040F00087950895D9D008F481E008950CD00FC1B8
:1041000007D140F0FED030F021F45F3F19F0F0C04D
:10411000511139C1F3C014D198F39923C9F3552330
:10412000B1F3951B550BBB27AA27621773078407AA
:1041300038F09F5F5F4F220F331F441FAA1FA9F360
:1041400033D00E2E3AF0E0E830D091505040E69552
:10415000001CCAF729D0FE2F27D0660F771F881FB3
:10416000BB1F261737074807AB07B0E809F0BB0BA2
:10417000802DBF01FF2793585F4F2AF09E3F5105C6
:1041800068F0B6C000C15F3FECF3983EDCF3869563
:1041900077956795B795F7959F5FC9F7880F911D3C
:1041A0009695879597F90895E1E0660F771F881F28
:1041B000BB1F621773078407BA0720F0621B730BDB
:1041C000840BBA0BEE1F88F7E095089504D068942D
:1041D000B111D9C00895BCD088F09F5790F0B92F85
:1041E0009927B751A0F0D1F0660F771F881F991F4C
:1041F0001AF0BA95C9F712C0B13081F0C3D0B1E05E
:104200000895C0C0672F782F8827B85F39F0B93F6D
:10421000CCF3869577956795B395D9F73EF490954D
:104220008095709561957F4F8F4F9F4F0895E894CB
:1042300009C097FB3EF490958095709561957F4FEE
:104240008F4F9F4F9923A9F0F92F96E9BB2793959C
:10425000F695879577956795B795F111F8CFFAF4AC
:10426000BB0F11F460FF1BC06F5F7F4F8F4F9F4FDD
:1042700016C0882311F096E911C0772321F09EE83B
:10428000872F762F05C0662371F096E8862F70E0A1
:1042900060E02AF09A95660F771F881FDAF7880F7B
:1042A0009695879597F90895990F0008550FAA0BD1
:1042B000E0E8FEEF16161706E807F907C0F0121639
:1042C0001306E407F50798F0621B730B840B950B3C
:1042D00039F40A2661F0232B242B252B21F4089591
:1042E0000A2609F4A140A6958FEF811D811D08952E
:1042F00097F99F6780E870E060E008959FEF80EC99
:10430000089500240A94161617061806090608953B
:1043100000240A9412161306140605060895092EA1
:104320000394000C11F4882352F0BB0F40F4BF2B10
:1043300011F460FF04C06F5F7F4F8F4F9F4F089550
:1043400057FD9058440F551F59F05F3F71F0479546
:10435000880F97FB991F61F09F3F79F0879508952B
:10436000121613061406551FF2CF4695F1DF08C04A
:10437000161617061806991FF1CF86957105610567
:1043800008940895E894BB2766277727CB0197F90F
:1043900008958ADF08F48FEF0895DADFA8F19E57B9
:1043A000A8F1985160F039F1983070F5092E9927ED
:1043B000660F771F881F991F0A94D1F71CC0BB276F
:1043C000993F4CF4B111B1E0B62B672F782F8827B5
:1043D000985FB1F708C0869577956795B79508F40B
:1043E000B1609395C1F7BB0F30F411F460FF03C0C7
:1043F0006F5F7F4F8F4F3EF49095809570956195DC
:104400007F4F8F4F9F4F08956894BDCFBBCF0BD088
:1044100086CF77DF28F07CDF18F0952309F068CF8E
:104420006DCF1124B0CF8CDFA0F3959FD1F3950F02
:1044300050E0551F629FF001729FBB27F00DB11D28
:10444000639FAA27F00DB11DAA1F649F6627B00DB8
:10445000A11D661F829F2227B00DA11D621F739FA1
:10446000B00DA11D621F839FA00D611D221F749FAF
:104470003327A00D611D231F849F600D211D822FF6
:10448000762F6A2F11249F5750408AF0E1F088233D
:104490004AF0EE0FFF1FBB1F661F771F881F91504A
:1044A0005040A9F79E3F510570F022CF6CCF5F3F7F
:1044B000ECF3983EDCF3869577956795B795F7957D
:1044C000E7959F5FC1F7FE2B880F911D9695879505
:1044D00097F90895FA01EE0FFF1F30962105310577
:1044E00099F16115710561F48038BFE39B0749F1CB
:1044F00068949038810561F08038BFEF9B0741F0E8
:10450000992342F5FF3FE1053105210511F1E894BA
:104510000894E795D901AA2329F4AB2FBE2FF85FA1
:10452000D0F310C0FF5F70F4A695E0F7F73950F0B4
:1045300019F0FF3A38F49F779F930CD00F9007FC47
:10454000905808953EF0DACE60E070E080E89FE396
:1045500008954FE79F775F934F933F932F939ED09C
:104560002F913F914F915F9152DF05C019F40EF0EA
:10457000BFCE08CFC3CEECDEC8F39638C0F707F83D
:104580000F92E8942BE33AEA48EB5FE74EDF0F9295
:104590000F920F924DB75EB70F92C0D0E8ECF0E0EB
:1045A00016D04F915F91EF91FF91E595EE1FFF1FA0
:1045B00049F0FE57E0684427EE0F441FFA95E1F7F3
:1045C0004195550B32D00F9007FE26C00895DF931A
:1045D000CF931F930F93FF92EF92DF927B018C0199
:1045E000689405C0DA2EEF011EDFFE01E894A59164
:1045F0002591359145915591AEF3EF0128DDFE01EE
:104600009701A801DA9479F7DF90EF90FF900F916E
:104610001F91CF91DF9108959B01AC0160E070E0A4
:1046200080E89FE36BCD64CEACC092DEE8F39923C3
:10463000D9F3940F511DBBF39150504094F059F0B1
:10464000882332F0660F771F881F91505040C1F7C2
:104650009E3F510544F7880F911D9695879597F9D0
:1046600008955F3FACF0983E9CF0BB278695779508
:104670006795B79508F4B1609395C1F7BB0F58F7EC
:1046800011F460FFE8CF6F5F7F4F8F4F9F4FE3CFF5
:104690007ACE0EF076C032CE68942ACE59DEC8F3B8
:1046A0009923D1F3C6F3DF93CF931F930F93FF9218
:1046B000C92FDD2788232AF02197660F771F881FCF
:1046C000DAF720E030E040E85FEB9FE3883920F044
:1046D000803E30F021968F77A9DCE0EFF0E003C058
:1046E000A5DCEDE1F1E073DF8B01BE01EC01FB2EF7
:1046F0006F5771097595771F880B990B9ADD28E123
:1047000032E741E35FE38FDEAF2D9801AE01FF900A
:104710000F911F91CF91DF919ADC01CEFA01DC015C
:10472000AA0FBB1F9B01AC01BF5728F422273327D8
:10473000442750781FC0B75188F4AB2F002446950A
:1047400037952795011CA395D2F3002069F0220F1D
:10475000331F441FB395DAF30DD067CC6130710578
:10476000A0E88A07B94630F49B01AC016627772799
:1047700088279078309621F02083318342835383B9
:1047800008959F3F31F0915020F487957795679574
:10479000B795880F911D9695879597F90895A1E192
:1047A000B0E0E4EDF3E2B7C33C017F876E876A01B6
:1047B000FC0117821682838181FD03C06FEF7FEFBA
:1047C00052C39E012F5F3F4F398B288BF30123810A
:1047D000EE85FF8523FD859123FF8191FF87EE877D
:1047E000882309F43DC3853251F4EE85FF8523FD0E
:1047F000859123FF8191FF87EE87853221F490E038
:10480000B30120D6E3CF982F10E0882499241032EA
:10481000B0F49B3269F09C3228F4903251F093321C
:1048200071F40BC09D3239F0903349F4116028C007
:104830001260146025C0186023C0106121C017FDEC
:104840002AC0892F80538A3078F416FF06C0FAE018
:104850009F9E902C1124980E13C03AE0839E802CCA
:104860001124880E10620CC09E3221F416FDF8C28D
:10487000106406C09C3611F4106802C0983659F4D2
:10488000EE85FF8523FD959123FF9191FF87EE87AC
:10489000992309F0BCCF892F8554833020F4812FD0
:1048A0008061905E07C0892F8556833008F08FC1E4
:1048B000812F8F7E86FD02C076E0972E6FE3F62E65
:1048C000F822953619F4F0E4FF2A07C0963619F459
:1048D00020E8F22A02C091109A94F7FE0AC03BE346
:1048E000391518F45CE3B52E02C0B92CB39427E057
:1048F00009C047E0491520F4BB2447E0942EF7CFC8
:10490000292DBB24C60104969D878C87F601608102
:10491000718182819381AE014F5F5F4F0B2DA4D4D3
:104920006C010981202E332400FF04C003FD02C066
:104930001DE209C0F1FE02C01BE205C0F2FC02C08C
:1049400010E001C010E2C1018C709070892BA1F1C0
:10495000112311F483E001C084E0881510F088244D
:1049600009C0881AF3FC06C080E290E0B3016AD562
:104970008A94D1F7112321F0812F90E0B30162D501
:1049800023FE03C00FE515E00DC003E615E00AC0E5
:10499000E114F10409F0805290E0B30153D50F5FA8
:1049A0001F4F05C0EF2CFF24F0E1EF22FF24F80198
:1049B0008491882369F708C1F7FE12C0BC0C24FE5D
:1049C00004C08A81813309F4BA941B141CF0BB24FF
:1049D000B3942DC0F8E0FB1550F538E0B32E27C096
:1049E000F6FC25C0892D90E08C159D054CF02CEF30
:1049F000C2162FEFD20624F030E8F32A01C09A94B1
:104A0000992049F0E2E0F0E0EC0FFD1FE90DF11D07
:104A100080818033A1F3F7FE0AC0B92CB394892DAD
:104A200090E0C816D90614F0992401C09C18F7FC30
:104A300003C025E030E009C01C141D041CF021E077
:104A400030E003C096012F5F3F4F112311F02F5F1D
:104A50003F4F992029F0892D90E00196280F391FAA
:104A6000882D90E02817390714F0882401C0821A95
:104A70004F2C5524C20189709070892B31F007C0EA
:104A800080E290E0B301DED48A948820C9F7112334
:104A900021F0812F90E0B301D5D443FE06C007C0BA
:104AA00080E390E0B301CED48A948820C9F7F7FE62
:104AB00044C08601D7FE02C000E010E076010894F1
:104AC000E11CF11CE01AF10A41E050E04C0F5D1FBF
:104AD000E40EF51E26014B185108892D90E0AA24FA
:104AE000BB24A81AB90A5FEF0F3F150721F48EE225
:104AF00090E0B301A7D4C016D10634F04016510699
:104B00001CF4F701808101C080E30150104008943B
:104B1000E11CF11C0A151B0524F090E0B30192D4AE
:104B2000E2CF0C151D0539F49A81963318F49533AC
:104B300011F424FE81E390E045C08A81813309F0BD
:104B40000F7E90E0B3017ED4992091F08EE290E048
:104B5000B30178D412E0E1E0F0E0EC0FFD1FE10FCB
:104B6000F11D1F5F808190E0B3016CD49A9499F796
:104B700044FC03C085E690E002C085E490E0B30108
:104B800061D4D7FC05C0C114D10441F404FF06C0B0
:104B9000D094C194D108D3948DE201C08BE290E00F
:104BA000B30150D480E305C08F5F26EF3FEFC20E04
:104BB000D31E3AE0C316D104BCF790E0B30142D44F
:104BC000C601C096B3013ED4CC84DD8446C1933681
:104BD00031F0933799F0933509F055C022C0F601B2
:104BE000808189835E010894A11CB11C22E030E021
:104BF000C20ED31E21E0E22EF12C11C0F601A080DE
:104C0000B18016FD03C06FEF7FEF02C0692D70E029
:104C100022E030E0C20ED31EC50109D47C011F770B
:104C200012C0F601A080B18016FD03C06FEF7FEFC8
:104C300002C0692D70E022E030E0C20ED31EC50133
:104C4000EBD37C01106813FF06C019C080E290E02E
:104C5000B301F8D38A94882D90E0E816F906B0F3F2
:104C60000EC0F50117FD859117FF81915F0190E05E
:104C7000B301E8D381108A940894E108F108E114A3
:104C8000F10479F7EAC0943611F0993681F517FFEF
:104C900008C0F601208131814281538184E090E097
:104CA0000AC0F601808191819C01442737FD40951F
:104CB000542F82E090E0C80ED91E9FE6F92EF12213
:104CC00057FF09C050954095309521953F4F4F4F64
:104CD0005F4F90E8F92ACA01B901AE014F5F5F4FFB
:104CE0002AE030E022D4E82EE889EE1A40C0953759
:104CF00021F41F7E2AE030E01CC0197F9F3661F04E
:104D0000903720F4983509F0ABC00FC0903739F0D8
:104D1000983709F0A5C004C028E030E00AC010614F
:104D200014FD146020E130E004C014FD166020E1A1
:104D300032E017FF08C0F6016081718182819381A2
:104D400044E050E008C0F60180819181BC0180E020
:104D500090E042E050E0C40ED51EAE014F5F5F4FC1
:104D6000E4D3E82E5889E51A8FE7F82EF122F6FEF3
:104D70000BC08EEFF822E91438F4F4FE07C0F2FC01
:104D800005C09FEEF92202C01E2D01C0192DF4FEB0
:104D90000DC0FE01EE0DF11D8081803319F4E9EEA6
:104DA000FE2208C01F5FF2FE05C003C08F2D86786B
:104DB00009F01F5F0F2DF3FC13C0F0FE0EC0181595
:104DC00010F09E2C0AC09E2C980C911A182D05C02C
:104DD00080E290E0B30136D31F5F1815C8F304C01A
:104DE000181510F4811A01C0882404FF0EC080E356
:104DF00090E0B30127D302FF1BC001FD03C088E789
:104E000090E00EC088E590E00BC0802F867881F09E
:104E100001FF02C08BE201C080E2F7FC8DE290E06E
:104E2000B30110D305C080E390E0B3010BD39A9493
:104E3000E914C8F3EA94E1E0F0E0EC0FFD1FEE0D99
:104E4000F11D808190E0B301FDD2EE2099F705C0FD
:104E500080E290E0B301F6D28A948820C9F7B6CCFC
:104E6000F30166817781CB016196E2E170C0629FB8
:104E7000D001739FF001829FE00DF11D649FE00D52
:104E8000F11D929FF00D839FF00D749FF00D659FB3
:104E9000F00D9927729FB00DE11DF91F639FB00DB2
:104EA000E11DF91FBD01CF011124089597FB092EC3
:104EB00007260AD077FD04D065D006D000201AF46A
:104EC000709561957F4F0895F6F7909581959F4F66
:104ED0000895A1E21A2EAA1BBB1BFD010DC0AA1F3B
:104EE000BB1FEE1FFF1FA217B307E407F50720F053
:104EF000A21BB30BE40BF50B661F771F881F991FCE
:104F00001A9469F760957095809590959B01AC0116
:104F1000BD01CF0108952F923F924F925F926F9201
:104F20007F928F929F92AF92BF92CF92DF92EF9239
:104F3000FF920F931F93CF93DF93CDB7DEB7CA1BBA
:104F4000DB0B0FB6F894DEBF0FBECDBF09942A88E5
:104F5000398848885F846E847D848C849B84AA848D
:104F6000B984C884DF80EE80FD800C811B81AA811A
:104F7000B981CE0FD11D0FB6F894DEBF0FBECDBFE5
:104F8000ED010895AA1BBB1B51E107C0AA1FBB1F5F
:104F9000A617B70710F0A61BB70B881F991F5A95C5
:104FA000A9F780959095BC01CD010895CF93DF932B
:104FB000BC018230910510F462E070E0A091A7037B
:104FC000B091A803ED01E0E0F0E040E050E021C046
:104FD000888199818617970769F48A819B81309728
:104FE00019F09383828304C09093A8038093A7034E
:104FF000FE0134C06817790738F44115510519F0DE
:105000008417950708F4AC01FE018A819B819C01FD
:10501000E9012097E9F641155105A9F1CA01861B5E
:10502000970B049708F4BA01E0E0F0E02AC08D91F4
:105030009C91119784179507F9F46417750781F40B
:1050400012968D919C911397309719F093838283D8
:1050500004C09093A8038093A703FD0132964FC02C
:10506000CA01861B970BFD01E80FF91F619371932D
:1050700002978D939C9343C0FD01828193819C0193
:10508000D9011097A1F68091A5039091A603892BD1
:1050900041F48091EF019091F0019093A6038093E9
:1050A000A5034091F1015091F2014115510541F4E0
:1050B0004DB75EB78091ED019091EE01481B590B01
:1050C0002091A5033091A60324173507B0F4CA0137
:1050D000821B930B8617970780F0AB014E5F5F4FE3
:1050E0008417950750F0420F531F5093A603409327
:1050F000A503F9016193719302C0E0E0F0E0CF01F4
:10510000DF91CF910895CF93DF93009709F450C0BA
:10511000EC0122971B821A82A091A703B091A803E9
:10512000109709F140E050E0AC17BD0708F1BB83D0
:10513000AA83FE0121913191E20FF31FAE17BF0741
:1051400079F48D919C911197280F391F2E5F3F4F55
:105150003983288312968D919C9113979B838A8320
:105160004115510571F4D093A803C093A70320C043
:1051700012968D919C911397AD01009711F0DC016F
:10518000D3CFFA01D383C28321913191E20FF31F70
:10519000CE17DF0769F488819981280F391F2E5FA8
:1051A0003F4FFA01318320838A819B8193838283DD
:1051B000DF91CF910895A0E0B0E0E0EEF8E2B3CE49
:1051C000EC01A880B980CA80DB80A114B104C104BD
:1051D000D10441F484E2A82E89EDB82E8BE5C82EC7
:1051E00087E0D82EC601B5012DE133EF41E050E054
:1051F000FAD127EA31E440E050E039DE7B018C014E
:10520000C601B5012DE133EF41E050E0ECD1CA0118
:10521000B9012CEE34EF4FEF5FEF29DE6E0D7F1DED
:10522000801F911F97FF04C06150704080409048DC
:10523000688379838A839B839B013F77C901CDB7BC
:10524000DEB7EAE08CCEB7DF089583EF91E0B3DFFD
:105250000895A0E0B0E08093F3019093F401A0934F
:10526000F501B093F6010895283008F027E03327C0
:10527000DA01990F311D87FD916000966105710576
:1052800039F432602E5F3D9330E32A95E1F70895BB
:105290009F3F30F080387105610509F03C5F3C5F4D
:1052A0003D93913008F08068911DDF93CF931F9359
:1052B0000F93FF92EF92192F987F9695E92F96956D
:1052C0009695E90FFF27EF53FA4F99273327EE24DE
:1052D000FF24A701E70105900894079428F4360FEE
:1052E000E71EF81E491F511D660F771F881F991F63
:1052F0000694A1F70590079428F4E70EF81E491FBD
:10530000561FC11D770F881F991F661F0694A1F7AE
:105310000590079428F4F80E491F561FC71FD11D8A
:10532000880F991F661F771F0694A1F705900794B1
:1053300020F4490F561FC71FD81F990F661F771FEC
:10534000881F0694A9F784911095177041F0D6959F
:10535000C79557954795F794E7941A95C1F7E7E6EF
:10536000F5E06894159015913591659195910590AA
:105370007FE27395E118F10A430B560BC90BD00974
:10538000C0F7E10CF11E431F561FC91FD01D7EF44C
:10539000703311F48A95E6CFE894015030F0080F8D
:1053A0000AF40027021708F4202F2395022F7A33DE
:1053B00028F079E37D932A95E9F710C07D932A952B
:1053C00089F6069497956795379517951794E11880
:1053D000F10A430B560BC90BD00998F023957E9127
:1053E00073957A3308F070E37C932013B8F77E91BD
:1053F00070617D9330F0839571E37D9370E32A951E
:10540000E1F71124EF90FF900F911F91CF91DF9161
:10541000992787FD90950895FC0105906150704093
:105420000110D8F7809590958E0F9F1F0895FC016D
:105430006150704001900110D8F7809590958E0FC3
:105440009F1F08950F931F93CF93DF938C01EB0160
:105450008B8181FF1BC082FF0DC02E813F818C811B
:105460009D812817390764F4E881F9810193F98354
:10547000E88306C0E885F985802F0995892B31F4EA
:105480008E819F8101969F838E8302C00FEF1FEF55
:10549000C801DF91CF911F910F910895A0E0B0E076
:1054A000E3E5FAE248CDFE01359661917191809174
:1054B000AB039091AC03AF0172D92096E2E057CDD7
:1054C0000F931F93CF93DF938C01E091AB03F09187
:1054D000AC03838181FF21C0C0E0D0E00DC0E0912A
:1054E000AB03F091AC0320853185BF01F90109952B
:1054F000892B11F0CFEFDFEFF80181918F01882325
:1055000071F7E091AB03F091AC03208531858AE01F
:10551000BF01F9010995892B11F0CFEFDFEFCE0123
:10552000DF91CF911F910F910895FA01AA2728309A
:1055300051F1203181F1E8946F936E7F6E5F7F4F60
:105540008F4F9F4FAF4FB1E03ED0B4E03CD0670FDC
:10555000781F891F9A1FA11D680F791F8A1F911D2F
:10556000A11D6A0F711D811D911DA11D20D009F47F
:1055700068943F912AE0269F11243019305D3193C1
:10558000DEF6CF010895462F4770405D4193B3E0AA
:105590000FD0C9F7F6CF462F4F70405D4A3318F051
:1055A000495D31FD4052419302D0A9F7EACFB4E002
:1055B000A6959795879577956795BA95C9F70097BA
:1055C0006105710508959B01AC010A2E069457955B
:1055D000479537952795BA95C9F7620F731F841FB2
:1055E000951FA01D089597FB092E05260ED057FD87
:1055F00004D06FDC0AD0001C38F4509540953095EB
:1056000021953F4F4F4F5F4F0895F6F79095809546
:10561000709561957F4F8F4F9F4F0895F894FFCFFE
:105620006D6F766541776179460A0A0A006D6F767B
:105630006541776179530A0A0A006D6F7665576193
:105640006E6465720A6D6F766552616E643A2025EC
:1056500033640A7475726E52616E64523A20253357
:10566000640A7475726E52616E644C3A202533641C
:105670000A006D6F766557616C6C0A4572726F72C5
:105680003A202533660A4566666F72743A202533E0
:10569000660A0A005357313A2050757368656400F2
:1056A0005357323A20507573686564005357333A44
:1056B00020507573686564001F180C0410C08020AA
:1056C0006001010110080400000002000000007DDC
:1056D00017000000001C05000069050000BC050063
:1056E000001306000070060000D20600003A070012
:1056F00000A80700001C080000980800001A090014
:1057000000A50900000002040507090B002000AFF6
:0857100003000001000000008D
:00000001FF
