:100000000C9431030C944E030C944E030C944E0349
:100010000C9489230C94B2230C94DB230C940424B9
:100020000C944E030C946A220C9493220C94BC22E0
:100030000C9437230C94E5220C940E230C9460232B
:100040000C94EF210C9418220C9441220C944E0332
:100050000C944E030C944E030C944E030C944E03DC
:100060000C944E030C944E030C944E030C944E03CC
:100070000C944E030C944E030C944E03541F571FC4
:100080005A1F5D1F661F601F631F691F6C1F6F1F54
:10009000721F751F781F7B1F7E1F811F841F871F84
:1000A0008A1F9B1F9E1FA11FA41FAD1FA71FAA1F52
:1000B000B01FB31FB61FB91FBC1FBF1FC21FC51F74
:1000C000C81FCB1FCE1FD11F07634236B79BD8A7CF
:1000D0001A39685618AEBAAB558C1D3CB7CC57636D
:1000E000BD6DEDFD753EF6177231BF000000803F1B
:1000F00008000000BE922449123EABAAAA2ABECD37
:10010000CCCC4C3E00000080BEABAAAAAA3E0000A8
:100110000000BF000000803F0000000000084178A0
:10012000D3BB4387D1133D190E3CC3BD4282AD2BD7
:100130003E68EC8276BED98FE1A93E4C80EFFFBECF
:1001400001C4FF7F3F000000000016050100000011
:1001500000000000FA000000E000E00028FE28FE99
:10016000282454FE5448C4C81026466C92AA44A0C1
:1001700000A0C000000038448200008244380028FB
:10018000107C102810107C1010000A0C00001010B9
:10019000101010000606000004081020407C8A920F
:1001A000A27C0042FE020042868A92628482A2D22F
:1001B0008C182848FE08E4A2A2A29C3C5292920C01
:1001C000808E90A0C06C9292926C60929294780013
:1001D0006C6C0000006A6C00001028448200282823
:1001E000282828008244281040808A90604C929EE3
:1001F000827C7E8888887EFE9292926C7C8282824B
:1002000044FE82824438FE92929282FE90909080C8
:100210007C8292925EFE101010FE0082FE8200042C
:100220000282FC80FE10284482FE02020202FE408E
:100230003040FEFE201008FE7C8282827CFE909080
:1002400090607C828A847AFE909894626292929204
:100250008C8080FE8080FC020202FCF8040204F81C
:10026000FC021C02FCC6281028C6E0100E10E08616
:100270008A92A2C200FE82820040201008040082FE
:1002800082FE0020408040200202020202008040E4
:100290002000042A2A2A1EFE1222221C1C222222AC
:1002A000041C222212FE1C2A2A2A18107E9080404A
:1002B000304A4A4A7CFE1020201E0022BE02000462
:1002C0000222BC00FE081422000082FE02003E2032
:1002D00018201E3E1020201E1C2222221C3E2828F0
:1002E0002810102828183E3E10202010122A2A2AF2
:1002F0000420FC2202043C0202043E3804020438BA
:100300003C020C023C2214081422300A0A0A3C2245
:10031000262A322200106C82000000FE00000082BB
:100320006C1000081010081000000000007F818190
:10033000817F7F8383837F7F8787877F7F8F8F8F77
:100340007F7F9F9F9F7F7FBFBFBF7F7FFFFFFF7F1D
:100350002040FF4020621517156500FBFB000000E0
:1003600000000000C0FF0300E0FF0700F0FF0F00E7
:10037000F8FF1F0078001E0078001E0078001E00A5
:1003800078001E0078001E0078001E0078001E0015
:1003900078001E0078001E00000000000000000031
:1003A00080FF0300E0FF0700F0FF0F00F8FF1F00D1
:1003B000F83C1F00783C1E00783C1E00783C1E0074
:1003C000783C1E00783C1E00783C1E00783C1E00E5
:1003D000783C1E00783C1E00783C1E0000000000A7
:1003E00000000000E0FF0300F0FF0700F8FF0F002F
:1003F000F8FF1F00783C1E00783C1E00783C1E0071
:10040000783C1E00783C1E00783C1E00783C1E00A4
:10041000783C1E00783C1E00783C1E000000000066
:1004200000000000F8FF0300F8FF0F00F8FF1F00B6
:10043000F8FF1F0000001E0000001E0000801F00CB
:1004400000F01F0000FF0F00E0FF0700F0FF0000BA
:10045000F80F0000F80000007800000078000000AD
:10046000F8FF1F00F8FF1F00F0FF1F00E0FF1F0054
:100470000000000000000000F8FF1F00F8FF1F0050
:10048000F8FF1F00F8FF1F0078001E00783C1E00D8
:10049000783C1E00783C1E00783C1E00783C1E0014
:1004A000783C1E00F87E1F00F8FF1F00F0FF0F00D1
:1004B000E0E703000000000000003800EEFF6C00E1
:1004C0002A8045003A0047FC03FF6CFC83FF39009B
:1004D000DEFF0B7CD0810BFCD0810BC0D0810BFCEC
:1004E000D0810B7CDEFF0B0082FF397002FF6CF8BD
:1004F0003A0047DC2A8045CCEEFF6CCC0000380087
:100500000000000C00001E0C00001E0000001E0079
:1005100000001E0000001E00F8FF1F00F8FF1F0073
:10052000F8FF1F00F8FF1F0000001E0000001E0063
:1005300000001E0000001E0000005E0000004000E1
:1005400000007C00000040000000400000007C0033
:1005500000003000000010000000300000007C6E41
:10056000616E00696E660000407A10F35A00A07256
:100570004E18090010A5D4E80000E87648170000DE
:10058000E40B54020000CA9A3B000000E1F50500AC
:100590000080969800000040420F000000A08601F5
:1005A000000000102700000000E8030000000064C5
:1005B00000000000000A0000000000010000000030
:1005C000002C76D888DC674F0823DFC1DFAE59E105
:1005D000B1B796E5E3E453C63AE651997696E8E674
:1005E000C28426EB898C9B62ED407C6FFCEFBC9C47
:1005F0009F40F2BAA56FA5F490055A2AF75C936B59
:100600006CF9676DC11BFCE0E40D47FEF520E6B513
:1006100000D0ED902E0300943577050080841E08ED
:100620000000204E0A000000C80C333333330F980B
:100630006E12831141EF8D2114893BE65516CFFED2
:10064000E6DB18D1844B381BF77C1D901DA4BBE45E
:1006500024203284725E228100C9F124ECA1E53DA0
:10066000270011241FBECFEFD8E0DEBFCDBF14E0BE
:10067000A0E0B1E0EEE8FDE602C005900D92A038E2
:10068000B107D9F718E0A0E8B4E001C01D92AF347B
:10069000B107E1F70E94A7190C94C5360C9400002D
:1006A0001F93CF93DF93EC0188E660E00E94532113
:1006B000182F8823A1F481E00E942D21182F882370
:1006C00071F488E661E00E945321182F882339F4E1
:1006D000CE0160E00E940121182F811118820E9432
:1006E0009921812FDF91CF911F9108951F93CF936F
:1006F000DF93EC0188E660E00E945321182F8823E5
:10070000A1F489E00E942D21182F882371F488E636
:1007100061E00E945321182F882339F4CE0160E054
:100720000E940121182F811118820E949921812F86
:10073000DF91CF911F9108951F93CF93DF93EC0129
:1007400088E660E00E945321182F8823A1F488E0F6
:100750000E942D21182F882371F488E661E00E9401
:100760005321182F882339F4CE0160E00E94012123
:10077000182F811118820E949921812FDF91CF912A
:100780001F9108951F93CF93DF93EC0188E660E0FB
:100790000E945321182F8823A1F487E00E942D2165
:1007A000182F882371F488E661E00E945321182FE6
:1007B000882339F4CE0160E00E940121182F8111B5
:1007C00018820E949921812FDF91CF911F91089566
:1007D0001F93CF93DF93EC0188E660E00E945321E2
:1007E000182F8823A1F486E00E942D21182F88233A
:1007F00071F488E661E00E945321182F882339F4B0
:10080000CE0160E00E940121182F811118820E9400
:100810009921812FDF91CF911F9108951F93CF933D
:10082000DF93EC0188E660E00E945321182F8823B3
:10083000A1F485E00E942D21182F882371F488E609
:1008400061E00E945321182F882339F4CE0160E023
:100850000E940121182F811118820E949921812F55
:10086000DF91CF911F9108951F93CF93DF93EC01F8
:1008700088E660E00E945321182F8823A1F484E0C9
:100880000E942D21182F882371F488E661E00E94D0
:100890005321182F882339F4CE0160E00E940121F2
:1008A000182F811118820E949921812FDF91CF91F9
:1008B0001F9108951F93CF93DF93EC0188E660E0CA
:1008C0000E945321182F8823A1F483E00E942D2138
:1008D000182F882371F488E661E00E945321182FB5
:1008E000882339F4CE0160E00E940121182F811184
:1008F00018820E949921812FDF91CF911F91089535
:100900001F93CF93DF93EC0188E660E00E945321B0
:10091000182F8823A1F482E00E942D21182F88230C
:1009200071F488E661E00E945321182F882339F47E
:10093000CE0160E00E940121182F811118820E94CF
:100940009921812FDF91CF911F9108951F93CF930C
:10095000DF93EC0188E660E00E945321182F882382
:10096000A1F480E00E942D21182F882371F488E6DD
:1009700061E00E945321182F882339F4CE0160E0F2
:100980000E940121182F811118820E949921812F24
:10099000DF91CF911F91089581E00E949C1985E01D
:1009A0000E9465190E944819A0E0B0E0BC01CD0189
:1009B0000E94692D20E030E040EA50E40E94682C5B
:1009C0009B01AC0160E070E286E395E40E94D02CCC
:1009D00020E030E040E85FE30E94672C089581E06A
:1009E0000E949C1987E00E9465190E944819A0E0A6
:1009F000B0E0BC01CD010E94692D20E030E040EA6A
:100A000050E40E94682C9B01AC0160E070E286E338
:100A100095E40E94D02C20E030E040E85FE30E94A3
:100A2000672C089581E00E949C1983E00E9465195B
:100A30000E944819A0E0B0E0BC01CD010E94692DE0
:100A400020E030E040EA50E40E94682C9B01AC01B9
:100A500060E070E286E395E40E94D02C20E030E074
:100A600040E85FE30E94672C089581E00E949C1992
:100A700084E00E9465190E944819A0E0B0E0BC0122
:100A8000CD010E94692D20E030E040EA50E40E9450
:100A9000682C9B01AC0160E070E286E395E40E9463
:100AA000D02C20E030E040E85FE30E94672C0895FE
:100AB00081E00E949C1985E00E9465190E944819F6
:100AC000A0E0B0E0BC01CD010E94692D20E030E043
:100AD00040EA5BE30E94592E089581E00E949C1930
:100AE00086E00E9465190E944819A0E0B0E0BC01B0
:100AF000CD010E94692D20E030E040EA5BE30E94D6
:100B0000592E08950F931F9381E080931D0580E077
:100B10000E940520082F81E00E940520182F82E006
:100B20000E940520113019F422E030E006C020E0D8
:100B300030E0013011F421E030E0813011F423E0A5
:100B400030E0C9011F910F910895FF920F931F93F9
:100B5000CF93DF930E94B01981E080931D0580E060
:100B60000E940520182F81E00E940520082F82E0B6
:100B70000E940520F82E113019F0C0E0D0E013C01B
:100B800080E091E00E94323680E20E94BF1A84EF3A
:100B900091E00E94A22080E40E94AA1A80E20E94B2
:100BA000AA1AC1E0D0E0013099F48CE091E00E94F3
:100BB000323680E40E94BF1A84EF91E00E94A220A6
:100BC00080E40E94AA1A80E20E94AA1AC2E0D0E041
:100BD00081E0F816B1F488E191E00E94323680E4B9
:100BE0000E94BF1A80E20E94BF1A84EF91E00E9427
:100BF000A22080E40E94AA1A80E20E94AA1AC3E0FE
:100C0000D0E00E94B019CE01DF91CF911F910F91DA
:100C1000FF9008952F923F924F925F926F927F9232
:100C20008F929F92AF92BF92CF92DF92EF92FF92FC
:100C30000F931F93DF93CF93CDB7DEB764970FB6B3
:100C4000F894DEBF0FBECDBF882339F58EE895E05E
:100C50009C8B8B8BA1EBB7E0BE83AD83E9EAF6E01A
:100C6000FC83EB8386E196E09A8389830F2EF0E084
:100C70002F2EF0E03F2EF0E04F2EF0E05F2EF02D13
:100C80002F86388A498A5A8A2B863C864D865E860C
:100C90002F82388649865A8643C0A0903907B09083
:100CA0003A07C0903B07D0903C07E0903D07F0909A
:100CB0003E0700913F071091400720909605309025
:100CC000970540909805509099052091A005309186
:100CD000A1054091A2055091A30580E090E0FC01A0
:100CE000E25EFA4FA082B182C282D382FC01EF5B46
:100CF000F84FE082F18202831383FC01E75CF94F35
:100D00002082318242825382FC01EA55FA4F2083CD
:100D100031834283538304968837910501F796CF38
:100D2000AB89BC892D913D914D915C911397FD014B
:100D30002483358346835783AD81BE81ED90FD903A
:100D40000D911C911397FD01E482F58206831783B0
:100D5000AB81BC81AD90BD90CD90DC901397FD012F
:100D6000A482B582C682D782A981BA816D907D9016
:100D70008D909C901397FD01648275828682978284
:100D8000C201B1010E94682C1B012C016F8578897A
:100D900089899A89A80197010E94682C6F87788BAE
:100DA000898B9A8B6B857C858D859E85A6019501A7
:100DB0000E94682C6B877C878D879E876F817885E2
:100DC00089859A85A40193010E94682C6F83788796
:100DD00089879A878B899C8904979C8B8B8BAD81A3
:100DE000BE811497BE83AD83EB81FC813497FC8375
:100DF000EB8389819A8104979A838983AB89BC8923
:100E0000A651B54009F08CCF8091390790913A07EF
:100E1000A0913B07B0913C07EB89FC8980879187C3
:100E2000A287B38780913D0790913E07A0913F072D
:100E3000B09140078093410790934207A0934307E6
:100E4000B09344078091960590919705A0919805DD
:100E5000B09199058093390690933A06A0933B068A
:100E6000B0933C068091A0059091A105A091A205A8
:100E7000B091A3058093A6059093A705A093A8051C
:100E8000B093A905C201B10120E030E040EF51E488
:100E90000E94D02C6093390770933A0780933B07E8
:100EA00090933C076F85788989899A8920E030E0A2
:100EB00040EF51E40E94D02C60933D0770933E07B1
:100EC00080933F07909340076B857C858D859E8539
:100ED00020E030E040EF51E40E94D02C6093960572
:100EE0007093970580939805909399056F81788505
:100EF00089859A8520E030E040EF51E40E94D02CB3
:100F00006093A0057093A1058093A2059093A3051B
:100F100064960FB6F894DEBF0FBECDBFCF91DF91C0
:100F20001F910F91FF90EF90DF90CF90BF90AF9007
:100F30009F908F907F906F905F904F903F902F90F9
:100F40000895AF92BF92CF92DF92EF92FF920F93EC
:100F50001F937B018C01442361F080E090E0A0E0CE
:100F6000B0E080939A0590939B05A0939C05B09365
:100F70009D05C801B70120919A0530919B054091CC
:100F80009C0550919D050E94682C5B016C0160934B
:100F90009A0570939B0580939C0590939D05C801CD
:100FA000B7012091350630913606409137065091B1
:100FB00038060E94672C2DEC3CEC4CEC5DE30E9463
:100FC000592E9B01AC01C801B7010E94682C7B011E
:100FD0008C01C601B50120E030E040E050E00E9405
:100FE000592E9B01AC01C801B7010E94682C1F91CA
:100FF0000F91FF90EF90DF90CF90BF90AF9008954A
:10100000442381F006C0E82FF0E0EC5DFE4F8081C4
:1010100061506623C1F70895E82FF0E0EC5CFE4FC5
:10102000808161506623C1F708952F923F924F92BD
:101030005F926F927F928F929F92AF92BF92CF9268
:10104000DF92EF92FF920F931F93DF93CF93CDB771
:10105000DEB7A0970FB6F894DEBF0FBECDBF2B0151
:101060003C012D833E834F835887E986FA860B87A0
:101070001C87AD86BE86CF86D88A282C3324CA0129
:10108000B90120E030E040E050E00E941B2E18162D
:1010900014F4332433946D817E818F8198852CEDF7
:1010A00038EB48E05EE30E94D02C0E94382D9B0173
:1010B00077FF03C0309521953F4FB901882777FD11
:1010C0008095982F0E946B2D69837A838B839C83F4
:1010D00069857A858B859C852CED38EB48E05EE34D
:1010E0000E94D02C0E94382D9B0177FF03C03095C1
:1010F00021953F4FB901882777FD8095982F0E9451
:101100006B2D4B015C016D857E858F8598892CED5B
:1011100038EB48E05EE30E94D02C0E94382D9B0102
:1011200077FF03C0309521953F4FB901882777FDA0
:101130008095982F0E946B2D6B017C01C301B20139
:1011400020E030E040E05FE40E94CC2C8823A1F551
:1011500069817A818B819C810E943D2D2B013C010C
:10116000C501B4010E943D2D4B015C01C701B601D0
:101170000E943D2D6B017C012DB73EB729503040B8
:101180000FB6F8943EBF0FBE2DBFEDB7FEB7319638
:10119000ADB7BEB712965C924E921197938282823F
:1011A0007583648326821086178281E062E0432D76
:1011B000920184017601C1C1C301B20120E030E097
:1011C00040E050E00E94CC2C8823E9F569817A81C7
:1011D0008B819C810E943D2D3B01C501B4010E9481
:1011E0003D2D8B01C701B6010E943D2D7B012DB71E
:1011F0003EB7295030400FB6F8943EBF0FBE2DBF0A
:10120000EDB7FEB7319640E0332009F441E071823A
:10121000608213830283F582E4822682108617821D
:1012200081E062E09301C22CAA24BB24832C0E949B
:10123000A81C81E0ADB7BEB719960FB6F894BEBF33
:101240000FBEADBF89C1C301B20120E030E040E074
:1012500050E00E941B2E18160CF0B1C066E676E630
:101260008AEA91ECA30192010E94D02C20E030E0A8
:1012700040E85FE30E94682C7B018C0166E676E61D
:101280008AEA91E4A30192010E94D02C20E030E090
:1012900040E85FE30E94682C5B016C01EDB7FEB78C
:1012A00039970FB6F894FEBF0FBEEDBF8DB69EB650
:1012B0000894811C911C6D817E818F819885A80185
:1012C00097010E94592E2CED38EB48E05EE30E9416
:1012D000D02C0E943D2D698B7A8B8B8B9C8B6985E2
:1012E0007A858B859C85A80197010E94592E2CED4B
:1012F00038EB48E05EE30E94D02C0E943D2D6D8BC0
:101300007E8B8F8B988F6D857E858F859889A801C0
:1013100097010E94592E2CED38EB48E05EE30E94C5
:10132000D02C0E943D2D2B013C016D817E818F814F
:101330009885A60195010E94592E2CED38EB48E0C6
:101340005EE30E94D02C0E943D2DD4016D937C93CE
:1013500069857A858B859C85A60195010E94592E09
:101360002CED38EB48E05EE30E94D02C0E943D2D2E
:10137000F401738362836D857E858F859889A601CC
:1013800095010E94592E2CED38EB48E05EE30E9457
:10139000D02C0E943D2DD40115967C936E9314970A
:1013A00016962C92169718961C921E92179781E00B
:1013B00062E0432D29893A890D891E89BDC0C30188
:1013C000B20120E030E040E050E00E94CC2C87FDEC
:1013D00002C080E0C1C066E676E68AEA91E4A30135
:1013E00092010E94D02C20E030E040E85FE30E94B0
:1013F000682C7B018C0166E676E68AEA91ECA30113
:1014000092010E94D02C20E030E040E85FE30E948F
:10141000682C5B016C012DB73EB7295030400FB6E8
:10142000F8943EBF0FBE2DBF8DB69EB60894811CAA
:10143000911C6D817E818F819885A80197010E9402
:10144000592E2CED38EB48E05EE30E94D02C0E9430
:101450003D2D698F7A8F8B8F9C8F69857A858B85DF
:101460009C85A80197010E94592E2CED38EB48E08D
:101470005EE30E94D02C0E943D2D6D8F7E8F8F8F5A
:1014800098A36D857E858F859889A80197010E9414
:10149000592E2CED38EB48E05EE30E94D02C0E94E0
:1014A0003D2D2B013C016D817E818F819885A601A8
:1014B00095010E94592E2CED38EB48E05EE30E9426
:1014C000D02C0E943D2DD4016D937C9369857A8543
:1014D0008B859C85A60195010E94592E2CED38EB39
:1014E00048E05EE30E94D02C0E943D2DF4017383FE
:1014F00062836D857E858F859889A60195010E94FE
:10150000592E2CED38EB48E05EE30E94D02C0E946F
:101510003D2DD40115967C936E93149716962C92BC
:10152000169718961C921E92179781E062E0432D41
:10153000298D3A8D0D8D1E8D7201C22CAA24BB24DB
:10154000832C0E94A81C81E0EDB7FEB739960FB638
:10155000F894FEBF0FBEEDBFA0960FB6F894DEBFA5
:101560000FBECDBFCF91DF911F910F91FF90EF90F4
:10157000DF90CF90BF90AF909F908F907F906F90B3
:101580005F904F903F902F9008952F923F924F92EF
:101590005F926F927F928F929F92AF92BF92CF9203
:1015A000DF92EF92FF920F931F93DF93CF93CDB70C
:1015B000DEB7A0970FB6F894DEBF0FBECDBF2B01EC
:1015C0003C012D833E834F835887E986FA860B873B
:1015D0001C87AD86BE86CF86D88A282C3324CA01C4
:1015E000B90120E030E040E050E00E941B2E1816C8
:1015F00014F4332433946D817E818F8198852CED92
:1016000038EB48E05EE30E94D02C0E94382D9B010D
:1016100077FF03C0309521953F4FB901882777FDAB
:101620008095982F0E946B2D69837A838B839C838E
:1016300069857A858B859C852CED38EB48E05EE3E7
:101640000E94D02C0E94382D9B0177FF03C030955B
:1016500021953F4FB901882777FD8095982F0E94EB
:101660006B2D4B015C016D857E858F8598892CEDF6
:1016700038EB48E05EE30E94D02C0E94382D9B019D
:1016800077FF03C0309521953F4FB901882777FD3B
:101690008095982F0E946B2D6B017C01C301B201D4
:1016A00020E030E040E05FE40E94CC2C8823A1F5EC
:1016B00069817A818B819C810E943D2D2B013C01A7
:1016C000C501B4010E943D2D4B015C01C701B6016B
:1016D0000E943D2D6B017C012DB73EB72950304053
:1016E0000FB6F8943EBF0FBE2DBFEDB7FEB73196D3
:1016F000ADB7BEB712965C924E92119793828282DA
:101700007583648326821086178280E062E0432D11
:10171000920184017601C1C1C301B20120E030E031
:1017200040E050E00E94CC2C8823E9F569817A8161
:101730008B819C810E943D2D3B01C501B4010E941B
:101740003D2D8B01C701B6010E943D2D7B012DB7B8
:101750003EB7295030400FB6F8943EBF0FBE2DBFA4
:10176000EDB7FEB7319640E0332009F441E07182D5
:10177000608213830283F582E482268210861782B8
:1017800080E062E09301C22CAA24BB24832C0E9437
:10179000A81C81E0ADB7BEB719960FB6F894BEBFCE
:1017A0000FBEADBF89C1C301B20120E030E040E00F
:1017B00050E00E941B2E18160CF0B1C066E676E6CB
:1017C0008AEA91ECA30192010E94D02C20E030E043
:1017D00040E85FE30E94682C7B018C0166E676E6B8
:1017E0008AEA91E4A30192010E94D02C20E030E02B
:1017F00040E85FE30E94682C5B016C01EDB7FEB727
:1018000039970FB6F894FEBF0FBEEDBF8DB69EB6EA
:101810000894811C911C6D817E818F819885A8011F
:1018200097010E94592E2CED38EB48E05EE30E94B0
:10183000D02C0E943D2D698B7A8B8B8B9C8B69857C
:101840007A858B859C85A80197010E94592E2CEDE5
:1018500038EB48E05EE30E94D02C0E943D2D6D8B5A
:101860007E8B8F8B988F6D857E858F859889A8015B
:1018700097010E94592E2CED38EB48E05EE30E9460
:10188000D02C0E943D2D2B013C016D817E818F81EA
:101890009885A60195010E94592E2CED38EB48E061
:1018A0005EE30E94D02C0E943D2DD4016D937C9369
:1018B00069857A858B859C85A60195010E94592EA4
:1018C0002CED38EB48E05EE30E94D02C0E943D2DC9
:1018D000F401738362836D857E858F859889A60167
:1018E00095010E94592E2CED38EB48E05EE30E94F2
:1018F000D02C0E943D2DD40115967C936E931497A5
:1019000016962C92169718961C921E92179780E0A6
:1019100062E0432D29893A890D891E89BDC0C30122
:10192000B20120E030E040E050E00E94CC2C87FD86
:1019300002C080E0C1C066E676E68AEA91E4A301CF
:1019400092010E94D02C20E030E040E85FE30E944A
:10195000682C7B018C0166E676E68AEA91ECA301AD
:1019600092010E94D02C20E030E040E85FE30E942A
:10197000682C5B016C012DB73EB7295030400FB683
:10198000F8943EBF0FBE2DBF8DB69EB60894811C45
:10199000911C6D817E818F819885A80197010E949D
:1019A000592E2CED38EB48E05EE30E94D02C0E94CB
:1019B0003D2D698F7A8F8B8F9C8F69857A858B857A
:1019C0009C85A80197010E94592E2CED38EB48E028
:1019D0005EE30E94D02C0E943D2D6D8F7E8F8F8FF5
:1019E00098A36D857E858F859889A80197010E94AF
:1019F000592E2CED38EB48E05EE30E94D02C0E947B
:101A00003D2D2B013C016D817E818F819885A60142
:101A100095010E94592E2CED38EB48E05EE30E94C0
:101A2000D02C0E943D2DD4016D937C9369857A85DD
:101A30008B859C85A60195010E94592E2CED38EBD3
:101A400048E05EE30E94D02C0E943D2DF401738398
:101A500062836D857E858F859889A60195010E9498
:101A6000592E2CED38EB48E05EE30E94D02C0E940A
:101A70003D2DD40115967C936E93149716962C9257
:101A8000169718961C921E92179780E062E0432DDD
:101A9000298D3A8D0D8D1E8D7201C22CAA24BB2476
:101AA000832C0E94A81C81E0EDB7FEB739960FB6D3
:101AB000F894FEBF0FBEEDBFA0960FB6F894DEBF40
:101AC0000FBECDBFCF91DF911F910F91FF90EF908F
:101AD000DF90CF90BF90AF909F908F907F906F904E
:101AE0005F904F903F902F9008958F92AF92BF924A
:101AF000CF92EF92FF920F931F9360931E06709305
:101B00001F0680932006909321060E943D2D8B0195
:101B10009C018DB79EB709970FB6F8949EBF0FBE74
:101B20008DBFEDB7FEB73196ADB7BEB712961C9319
:101B30000E93119784EF91E093838283958384833E
:101B400016821086178281E062E041E0980104EF7E
:101B500011E094EFE92E91E0F92ECC24AA24BB24C5
:101B6000882483940E94A81C8DB79EB709960FB64F
:101B7000F8949EBF0FBE8DBF1F910F91FF90EF9005
:101B8000CF90BF90AF908F9008950E94D41F282FC0
:101B900021702093370790E082709070959587951B
:101BA0008093380708950E94580560932E0670931D
:101BB0002F0680933006909331060E946D05609346
:101BC000C5077093C6078093C7079093C807089509
:101BD0000E94EF0460939605709397058093980593
:101BE000909399050E94CC046093A0057093A10581
:101BF0008093A2059093A3050E9435056093390751
:101C000070933A0780933B0790933C070E9412051C
:101C100060933D0770933E0780933F079093400782
:101C20000895CF92DF92EF92FF920F931F93CF937D
:101C3000DF93162FE42E5FE1F52EF8221F770F2D8C
:101C4000069506950695C02FD0E0C12EDD24CE0165
:101C5000B6010E94761A802F612F0E946F1AFE0132
:101C600045E0EE0FFF1F4A95E1F72F2D30E0EE2003
:101C700089F0EC0DFD1DEF54F94F2770307081E0B5
:101C800090E002C0880F991F2A95E2F72081282B47
:101C9000208311C0EC0DFD1DEF54F94F27703070FB
:101CA00081E090E002C0880F991F2A95E2F78095A5
:101CB00020818223808335E0CC0FDD1F3A95E1F748
:101CC000CC0DDD1DCF54D94F888161E00E948F1A61
:101CD000DF91CF911F910F91FF90EF90DF90CF9008
:101CE00008957F928F929F92AF92BF92CF92DF9290
:101CF000EF92FF920F931F93982EB62EC42EA22E12
:101D0000802E7E2CBB0CBB0CBB0CDD2423E0CC0C4A
:101D1000DD1C2A95E1F71C2D0FE10B19802F6C2D8E
:101D200041E00E94110E98E1E92EEB188E2D6C2DEA
:101D300041E00E94110E87E0F82EFC0C802F6F2DE1
:101D400041E00E94110E8E2D6F2D41E00E94110E78
:101D5000C92C93FE24C0612F6F5F802F41E00E9449
:101D6000110E612F6E5F802F41E00E94110E612FD6
:101D70006D5F802F41E00E94110E612F6C5F802FFC
:101D800041E00E94110E612F6B5F802F41E00E94A5
:101D9000110E612F6A5F802F41E00E94110EC2FE7A
:101DA00025C08B2D8095815E6F2D41E00E94110E24
:101DB0008DE18B196F2D41E00E94110E8CE18B1982
:101DC0006F2D41E00E94110E8BE18B196F2D41E0C8
:101DD0000E94110E8AE18B196F2D41E00E94110EB5
:101DE00089E18B196F2D41E00E94110EC1FE24C0C4
:101DF000612F6F5F8E2D41E00E94110E612F6E5F8B
:101E00008E2D41E00E94110E612F6D5F8E2D41E0FD
:101E10000E94110E612F6C5F8E2D41E00E94110E09
:101E2000612F6B5F8E2D41E00E94110E612F6A5F62
:101E30008E2D41E00E94110EC0FE25C08B2D809595
:101E4000815E612F41E00E94110E8DE18B19612F9F
:101E500041E00E94110E8CE18B19612F41E00E943C
:101E6000110E8BE18B19612F41E00E94110E8AE166
:101E70008B19612F41E00E94110E89E18B19612FAE
:101E800041E00E94110EAA20E1F1BCE1EB2EEB181B
:101E9000A3E0CA2EC10E8E2D6C2D4A2D0E94110E6C
:101EA000FBE1FF2EFB188F2D6C2D4A2D0E94110E89
:101EB000012F0C5F8E2D602F4A2D0E94110E8F2D49
:101EC000602F4A2D0E94110E81E0881671F088164D
:101ED00040F082E0881661F083E0881609F04AC07D
:101EE0000BC08DE18B196C2D0AC01B5F8E2D06C0B7
:101EF0008AE18B19602F03C01E5F8F2D612F4A2D41
:101F000037C07720B9F1ECE1CE2ECB1873E0E72E85
:101F1000E10E8C2D6E2D40E00E94110E0BE10B198D
:101F2000802F6E2D40E00E94110E64E0F62EF10E1F
:101F30008C2D6F2D40E00E94110E802F6F2D40E000
:101F40000E94110E8DE18B196E2D40E00E94110E42
:101F50001B5F8C2D612F40E00E94110E8AE18B19CE
:101F60006F2D40E00E94110E1350802F612F40E032
:101F70000E94110E1F910F91FF90EF90DF90CF9074
:101F8000BF90AF909F908F907F9008959F92AF9257
:101F9000BF92CF92DF92EF92FF920F931F93CF9356
:101FA000DF93982E80913507A82EA694A69443E03F
:101FB000B42EB822CC24DD241EC08881FA1419F076
:101FC00020E030E006C020E030E01B1511F421E0F5
:101FD00030E06F2D412F00913306E92C0E94710EE5
:101FE0001F5F2196143049F70894C11CD11C84E06E
:101FF000C816D10451F0FC2CE601CC0FDD1FCC0F2C
:10200000DD1FCB5EDB4F10E0D8CFDF91CF911F916A
:102010000F91FF90EF90DF90CF90BF90AF909F9087
:102020000895882391F080E090E0A0E0B0E08093F4
:102030001E0690931F06A0932006B093210682E00F
:1020400060E070E00E942B1E17C00E94E01B6093AE
:10205000310770933207809333079093340740E041
:1020600080913307909134072091310730913207E6
:10207000820F931F892B09F441E0842F08955F920A
:102080006F927F928F929F92AF92BF92CF92DF9288
:10209000EF92FF920F931F93CF93DF93E0909605FB
:1020A000F09097050091980510919905C801B70126
:1020B00020E030E040E251E40E94CC2C181614F0ED
:1020C00081E015C15524C801B70120E030E040E0AF
:1020D00050E00E94CC2C882314F455245394A090F3
:1020E0003D07B0903E07C0903F07D09040076090FA
:1020F000390770903A0780903B0790903C07552035
:1021000041F56091A0057091A1058091A205909183
:10211000A30520E030E040E751E40E94CC2C87FD8D
:1021200018C0C601B50120E030E040E751E40E944C
:10213000CC2C87FD0EC0C401B30120E030E040E7A5
:1021400051E40E94CC2C87FD04C082E064EF71E072
:10215000C9C0C601B50120E030E040E751E40E946B
:102160001B2E181664F480E090E0A0E4B0EC80939D
:102170003D0790933E07A0933F07B0934007C401EB
:10218000B30120E030E040E751E40E941B2E181616
:1021900014F080E00DC080E090E0A0E4B0EC80930B
:1021A000390790933A07A0933B07B0933C0781E02F
:1021B000552021F1882329F060E070E08AE794E45B
:1021C00004C060E070E08AE794ECA80197010E94E7
:1021D000D02C2091390730913A0740913B0750911C
:1021E0003C070E94682C9B01AC0160913D077091F7
:1021F0003E0780913F079091400710C060913D07D6
:1022000070913E0780913F079091400720913907D8
:1022100030913A0740913B0750913C070E94672C50
:10222000905840E00E94A1077B018C010E94382D4C
:10223000EB0177FF03C0D095C195DF4FC536D105BF
:10224000FCF0C801B70120E030E040E050E00E941F
:10225000CC2C8823A9F0BE01882777FD8095982F84
:102260000E946B2D9B01AC01C801B7010E94D02CCC
:1022700020E030E048EC52E40E94592E7B018C01B2
:10228000C801B70120E030E048EC52E40E94D02CB5
:102290007B018C0120E030E04AE753E40E94592E94
:1022A00020E030E04AE753E40E94682C0E943D2D74
:1022B0009B01AC0180E0B9010E94091EC801B70171
:1022C00020E030E04AE753EC0E94592E20E030E055
:1022D0004AE753E40E94682C0E943D2D9B01AC010B
:1022E00081E0B9010E94091E80E00E941110DF9177
:1022F000CF911F910F91FF90EF90DF90CF90BF9003
:10230000AF909F908F907F906F905F9008950E9404
:10231000532090931D0580931C050E94B61A90933C
:102320001B0580931A050E94CD199093190580937F
:1023300018050E944F1D81E00E94D31B0E94B61A0F
:102340000E94AD210E943A1981E00E949C190E94CE
:10235000E80D81E00E940A068FEE90E0A5E8B1E466
:1023600080931E0690931F06A0932006B09321062B
:1023700020E030E00AC01192019680329105D9F731
:102380002F5F3F4F2430310559F0F90155E0EE0F32
:10239000FF1F5A95E1F7EF54F94F80E090E0EBCF43
:1023A0000895482F46954695582F5370A42FB0E0B6
:1023B000252F30E0FD01EE0FFF1FEE0FFF1FE20F94
:1023C000F31FEF56FB4F8081882311F481E00895BD
:1023D000E42FE150E43080F4F0E0EE0FFF1FEE0F49
:1023E000FF1FE20FF31FEF56FB4FE081E43620F4AE
:1023F000109234069E2F01C094E6842F8F5F8430A4
:1024000088F4E82FF0E0EE0FFF1FEE0FFF1FE20F42
:10241000F31FEF56FB4FE081E91720F482E0809331
:1024200034069E2F852F8F5F843081F0FD01EE0FE3
:10243000FF1FEE0FFF1FE80FF11DEF56FB4FE0816E
:10244000E91720F481E0809334069E2F852F815078
:10245000843080F4AA0FBB1FAA0FBB1FA80FB11DA9
:10246000AF56BB4F8C91891728F483E080933406D4
:1024700080E0089580E00895BF92CF92DF92EF92BE
:10248000FF920F931F93CF93DF938091A405282F82
:1024900030E0237030708695869590E0CC27DD275C
:1024A000C81BD90B00E010E0CC24DD24C21AD30AEB
:1024B000F3E6BF2E25C08C918F3011F4B08211C08D
:1024C0009A0157FF04C022273327241B350B229F74
:1024D000C001239F900D329F900D11248E0D9F1DE2
:1024E00080836F5F7F4F119631964F5F5F4F6430EF
:1024F000710509F70F5F1F4F219604301105E9F0B0
:10250000CE01D7FF04C0882799278C1B9D0B889F7D
:102510007001899FF00C989FF00C1124C801880F5E
:10252000991F880F991FDC01AB5EBB4FFC01EF5672
:10253000FB4FA60160E070E0BECFDF91CF911F910D
:102540000F91FF90EF90DF90CF90BF900895EF92A2
:10255000FF920F931F93609196057091970580915C
:1025600098059091990520E030E040E251E40E9406
:10257000CC2CF82EFF1CFF24FF1CFF0CFF0CFF0CC3
:102580006091390770913A0780913B0790913C0721
:1025900020E030E040EF51E40E94CC2C082F001FD7
:1025A0000027001F000F000F6091A0057091A1058A
:1025B0008091A2059091A30520E030E04CE052E428
:1025C0000E94CC2C182F111F1127111F110FEE2460
:1025D00060913D0770913E0780913F0790914007C1
:1025E00020E030E040EF51E40E94CC2C882314F42A
:1025F000EE24E3948F2D8E0D800F810F80939E0526
:1026000020919F05E22FF0E0E754F84F91819093DD
:10261000A505891719F42F5F20939F051F910F912E
:10262000FF90EF900895FF920F931F93142F082FA0
:1026300006950695A3E0FA2EF822623031F0633059
:10264000A9F06130B1F4115012C0413049F041306D
:1026500028F0423039F04330B9F406C0015014C0BC
:10266000F39412C00F5F10C0FA940EC01F5F137076
:102670000BC000D084E491E0EDB7FEB79283818374
:102680000E9420360F900F9010933306000F000F1A
:10269000802F8F0D1F910F91FF90089580919E05BF
:1026A00080FD02C081E005C083FD02C082E001C060
:1026B00083E08093C9078091CA07813029F0813077
:1026C00038F0843028F40FC082E08093C9070BC033
:1026D00000D08DE491E0EDB7FEB7928381830E9434
:1026E00020360F900F908091C9078093CA070895F4
:1026F00080919004853080F0E1E8F4E0818180836E
:102700008681858383858287319684E0E638F80761
:10271000A9F784E0809390040E944E13E091900406
:10272000F0E0EF57FB4F80919E0580839091C907A1
:102730009583809133068287913019F0933041F46C
:1027400002C0815001C08F5F8370809333060BC03D
:1027500000D086E591E0EDB7FEB7928381830E94B9
:1027600020360F900F90809190048F5F809390049B
:10277000089590913306913091F0913028F0923085
:10278000D9F09330C1F523C080913406813091F0A7
:10279000813068F1823049F1833069F526C080913B
:1027A0003406813021F18130E8F0823019F0833035
:1027B00011F518C083E01CC0809134068130C1F04F
:1027C000813098F08230A1F08330A9F411C080915B
:1027D0003406813069F0813028F0823031F0833066
:1027E00051F405C09093C907089581E001C082E0CB
:1027F0008093C907089500D08FE591E0EDB7FEB74B
:10280000928381830E9420360F900F9008958F92BB
:10281000AF92BF92CF92DF92EF92FF920F931F93EE
:102820000E94B019E0919F05F0E0EE5DF94FE08164
:10283000E093C90780E0E13009F481E090E0E33003
:1028400009F491E0892B282F30E040E050E080919E
:10285000CA07823011F441E050E024233523232BB2
:10286000B9F060E070E080E09FE428E431EE46EBF0
:1028700051E40F2EF0E0EF2EF0E0FF2EF0E20F2FEC
:10288000F1E41F2FF02D5701680188240E94C50A2A
:102890002091CA0780E0213009F481E090E02330E4
:1028A00009F491E0892B282F30E040E050E080913E
:1028B000C907823011F441E050E024233523232B53
:1028C000B9F060E070E080E09FE425E33FEE40EA8D
:1028D00051E40F2EF0E0EF2EF0E0FF2EF0E20F2F8C
:1028E000F1E41F2FF02D5701680188240E94C50ACA
:1028F0008091C9078230C1F1833009F477C08130FB
:1029000009F0B5C08DB79EB708970FB6F8949EBF73
:102910000FBE8DBFEDB7FEB7319688E691E0ADB73B
:10292000BEB712969C938E93119780919F058283D8
:10293000138280919E05848315828091A5058683EC
:1029400017820E942036EDB7FEB738960FB6F8947E
:10295000FEBF0FBEEDBF60E070E080E090E020E0E1
:1029600030E04CE851EC73C08DB79EB708970FB6B6
:10297000F8949EBF0FBE8DBFEDB7FEB7319683E9C9
:1029800091E0ADB7BEB712969C938E93119780914C
:102990009F058283138280919E0584831582809196
:1029A000A505868317820E942036EDB7FEB73896BC
:1029B0000FB6F894FEBF0FBEEDBF60E070E086E991
:1029C00093E40E94750D0E94E80D0E943F10882339
:1029D000D1F382E061E00E94D21E84E690E00E9482
:1029E000A22082E060E00E94D21E53C08DB79EB745
:1029F00008970FB6F8949EBF0FBE8DBFEDB7FEB718
:102A0000319681EC91E0ADB7BEB712969C938E9350
:102A1000119780919F058283138280919E05848304
:102A200015828091A505868317820E942036EDB716
:102A3000FEB738960FB6F894FEBF0FBEEDBF60E04C
:102A400070E080E090E020E030E04CE851E40F2EB0
:102A5000F0E0EF2EF0E0FF2EF0E20F2FF1E41F2F59
:102A6000F02D5701680188240E94C50A12C000D0C9
:102A70008DEE91E0ADB7BEB712969C938E931197F1
:102A80000E9420360F900F9082E060E00E94D21EDC
:102A9000FFCF8091C9078093CA0781E01F910F91F2
:102AA000FF90EF90DF90CF90BF90AF908F90089500
:102AB000FF920F931F93CF93DF93FF24F39410E0C3
:102AC000C6EFD1E00E948205082F813021F08230CC
:102AD00011F0833039F4E12FF0E0EE5DF94F00831F
:102AE0001F5F02C0882321F10E94B0198DB79EB7E5
:102AF00008970FB6F8949EBF0FBE8DBFEDB7FEB717
:102B00003196ADB7BEB71296DC93CE931197F28291
:102B1000138204831582168317820E942036F02EBA
:102B20008DB79EB708960FB6F8949EBF0FBE8DBFA7
:102B300084EF91E00E94A2201B3020F21F5FE12F62
:102B4000F0E0EE5DF94F84E08083DF91CF911F913B
:102B50000F91FF9008951F93CF93DF9310E0C7E28A
:102B6000D2E00E948205813021F480913507880FE0
:102B700006C0823039F480913507880F8F5F8093CB
:102B800035071F5F0E94B01900D000D000D0EDB70C
:102B9000FEB73196ADB7BEB71296DC93CE931197C0
:102BA0008091350782831382148315820E94203618
:102BB0008DB79EB706960FB6F8949EBF0FBE8DBF19
:102BC00084EF91E00E94A220143058F280913507E2
:102BD00080933607DF91CF911F9108951F93CF9374
:102BE000DF9310E0CFE4D2E00E948205813021F42F
:102BF00080913306880F06C0823041F480913306FD
:102C0000880F8F5F809333061F5F02C08823F1F027
:102C10000E94B01900D000D000D0EDB7FEB73196B9
:102C2000ADB7BEB71296DC93CE9311978091330661
:102C300082831382148315820E9420368DB79EB73B
:102C400006960FB6F8949EBF0FBE8DBF84EF91E03D
:102C50000E94A220123040F20E94B01980913306E7
:102C6000813051F0813028F0823049F0833071F4A6
:102C700009C08EE792E008C080EA92E005C081ECCE
:102C800092E002C083EE92E00E94323680913306D9
:102C90008093320684EF91E00E94A220DF91CF91D1
:102CA0001F910895CF92DF92EF92FF920F931F939F
:102CB000DF93CF930F92CDB7DEB780913507F82E13
:102CC000F694F694982F937000913306CC24DD246B
:102CD000F601EE5DF94F1081EF2DF0E0EE0FFF1FD2
:102CE000EE0FFF1FE90FF11DEB5EFB4F8081602FA0
:102CF00041E099830E940008F601E754F84F808371
:102D00009981123089F4013049F0013028F0023005
:102D100039F0033089F406C0FA940EC09F5F0CC0EE
:102D2000F3940AC0915008C0133011F40F5F03C030
:102D3000113011F4015003700894C11CD11C8DE0B6
:102D4000C816D10429F6CC24DD24E4E0EE2EE3E01D
:102D5000FE2EF601E754F84F00810E94B019202F93
:102D600030E0ADB7BEB754970FB6F894BEBF0FBEF4
:102D7000ADBFEDB7FEB731961296FC92EE92119769
:102D8000D382C282112707FD10950027110F001F63
:102D9000112715830483C90166E0969587956A9586
:102DA000E1F78170907097838683C90155E096950D
:102DB00087955A95E1F78170907091878087C90156
:102DC00044E0969587954A95E1F7817090709387D6
:102DD0008287C90103E0969587950A95E1F781708E
:102DE000907095878487C901969587959695879564
:102DF0008170907097878687C901969587958170B5
:102E00009070918B808B21703070338B228B0E945D
:102E10002036EDB7FEB774960FB6F894FEBF0FBE1E
:102E2000EDBF88EE93E00E94A2200894C11CD11C43
:102E3000FDE0CF16D10409F08CCF0F90CF91DF9138
:102E40001F910F91FF90EF90DF90CF9008951F9307
:102E50001091350780919E056091330640E00E94F5
:102E60000008E12FE695E695F0E0EE0FFF1FEE0F6C
:102E7000FF1F1370E10FF11DEB5EFB4F80831F916D
:102E80000895DF92EF92FF920F931F93162F042F56
:102E9000FF2490E02BC0153088F5053078F5EF2D34
:102EA000F0E0EF57FB4FD580E28480816E2D40E04B
:102EB0000E940008E12FF0E0EE0FFF1FEE0FFF1F52
:102EC000E00FF11DEB5EFB4F90818917B9F4110FF4
:102ED000110F812F800F6D2D4E2D0E941313982FEF
:102EE000182F16951695082F0370F394809190046F
:102EF000F81688F29093350781E001C080E01F91B9
:102F00000F91FF90EF90DF900895DF92EF92FF9284
:102F10000F931F93CF93DF93D09081041092CB0730
:102F200000E010E01AC08881D81669F485E194E0C9
:102F30006E2D4F2D0E944117882329F08091CB07D9
:102F40008F5F8093CB07F394219684E0F81659F7AE
:102F50000F5F1F4F0430110551F0E02EE801CC0F38
:102F6000DD1FCC0FDD1FCB5EDB4FFF24DCCF90E0FD
:102F70008091CB07813009F091E0892FDF91CF91CB
:102F80001F910F91FF90EF90DF9008958F92AF9275
:102F9000BF92CF92DF92EF92FF920F931F9360E068
:102FA00070E080E090E041E00E94A1078091C907B5
:102FB000823069F08330C1F08130D1F560E070E09B
:102FC00080E090E020E030E04CE851EC15C060E09B
:102FD00070E086E993E40E94750D0E94E80D0E945E
:102FE0003F108823D1F317C060E070E080E090E0EC
:102FF00020E030E04CE851E40F2EF0E0EF2EF0E05E
:10300000FF2EF0EF0F2FF1E41F2FF02D5701680175
:1030100088240E94C50A82E061E00E94D21E82E3F9
:1030200090E00E94A22082E060E00E94D21E0BC0CD
:1030300000D086E591E0EDB7FEB7928381830E94D0
:1030400020360F900F901F910F91FF90EF90DF901F
:10305000CF90BF90AF908F9008950F931F93CF9311
:10306000DF930E9487110E94B01986E293E00E94CC
:10307000323681E00E94C60F88EE93E00E94A220C3
:103080000E94B01907E313E0C3E4D3E036C00E9406
:10309000E80D0E94A7120E9478130E948517809362
:1030A00014040E94B01900D000D0EDB7FEB73196DD
:1030B000ADB7BEB712961C930E931197809114046E
:1030C000828313820E942036EDB7FEB73196ADB7EA
:1030D000BEB71296DC93CE9311978091CB07828373
:1030E00013820E9420360F900F900F900F900E9435
:1030F000C61780911404882321F08091140488233A
:1031000031F664EF71E080E090E00E942B1B0E949A
:10311000B01900D08EE493E0EDB7FEB792838183BF
:103120000E9420360F900F9088EB9BE00E94A22017
:1031300060E070E080E090E00E942B1B0E94B019DC
:1031400086E293E00E94323681E00E94C60F88E852
:1031500093E10E94A2200E94B0198CE08093A40504
:103160000E943C125AC00E94B019809133068130EF
:1031700051F0813028F0823049F0833071F409C079
:103180008EE593E008C08EE693E005C08DE793E0FE
:1031900002C08DE893E00E943236809135070E948C
:1031A000D111809380048823E9F580913406813021
:1031B00051F0813028F0823049F0833071F409C039
:1031C0008CE993E008C08CEA93E005C08BEB93E0B8
:1031D00002C08BEC93E00E9432368091C9078230A6
:1031E00051F0833029F0813051F48AED93E005C02D
:1031F00087EE93E002C085EF93E00E9432360E9492
:10320000B9130E94C617809135076091C907409194
:1032100033060E941313809335078091800488231E
:1032200009F4A1CF64EF71E080E090E00E942B1BD5
:103230000E94B01900D085E094E0ADB7BEB71296F9
:103240009C938E9311970E9420360F900F9082E0EE
:1032500060E00E94D21E88E893E10E94A22060E014
:1032600070E080E090E00E942B1BDF91CF911F91D6
:103270000F9108958FE00E94451F882331F40E942A
:10328000D4218FE061E00E948D1F8FE091E00895CE
:103290008FE00E94451F813019F020E030E013C01C
:1032A00080917A00806480937A0080917A0086FD14
:1032B000FCCF3091780020917900922F80E0232F6D
:1032C00030E0282B392BC9010895582F809125040F
:1032D0008830D8F440917E0021E030E0B90102C08E
:1032E000660F771F8A95E2F7CB0180958423809340
:1032F0007E0080917E00052E02C0220F331F0A94AB
:10330000E2F7822B80937E000DC020917E0081E049
:1033100090E0052E02C0880F991F0A94E2F7282B2F
:1033200020937E005093250480917C005F71807E05
:10333000852B80937C000895ECE7F0E090818295E6
:10334000880F880F807C9F73982B908308950E942C
:10335000ED210E94DF210E942D1880E090E0089569
:103360000F931F9380E460E00E948F1A00E0802F8B
:1033700060E00E94761A10E080E061E00E948F1AFF
:103380001F5F1038C9F70F5F043089F783E060E0F2
:103390000E946F1A1F910F9108950F931F9382E05F
:1033A0000E94451F882311F482E006C081E00E943C
:1033B000451F882319F481E090E06DC00E945524D8
:1033C00085E061E00E948D1F8EEA60E00E948F1A06
:1033D00082EA60E00E948F1A80EA60E00E948F1A01
:1033E00000E513ECC8010197F1F780EC60E00E9462
:1033F0008F1A8FE260E00E948F1A81E860E00E94DD
:103400008F1A86E160E00E948F1A82E260E00E94DB
:103410008F1AC8010197F1F78FEA60E00E948F1AB6
:1034200086EA60E00E948F1A85EA60E00E948F1AA7
:1034300080E090E028E833E1F9013197F1F7019657
:1034400043E0883E9407C1F783EB60E00E948F1A47
:1034500080E460E00E948F1A83E060E00E94761AA8
:1034600083E060E00E946F1A10921B0810921D0802
:1034700010921C088CE694E090934C0880934B08C3
:1034800088E10E944E1A0E94B01984EA60E00E940E
:103490008F1A85E091E01F910F9108951F93182FC7
:1034A00085E00E94451F8130C1F487E00E94CB1A5D
:1034B00082E06AE00E941C1B82E061EB0E941C1B00
:1034C000612F113208F060E282E00E941C1B89EE3D
:1034D0008A95F1F787E00E94CB1A1F9108958370B7
:1034E0006F776093190880931A0808950F931F93BC
:1034F000062F162F1F778370806B60E00E948F1A53
:1035000012951F70812F806160E00E948F1A802FBA
:103510008F7060E00E948F1A1F910F9108950F9392
:103520001F93082F162F85E00E94451F813079F4E4
:10353000112319F0113021F402C02B9801C02B9AED
:1035400086E08A95F1F780E0602F0E941C1B1F9196
:103550000F9108951F93182F86E00E94451F813018
:1035600019F4812F0E9404251F9108950E940925B6
:1035700086E061E00E948D1F86E091E008951F9330
:10358000182F86E00E94451F813019F4812F0E9478
:103590000C251F9108951F93182F82E00E94451F4C
:1035A000813009F047C0912F977080911E089817BD
:1035B00009F440C090931E0885B1887F892B85B996
:1035C000933011F1943028F4913051F0923090F40E
:1035D0000CC0953019F19530E0F0963021F50FC010
:1035E000E0910305F091040522C0E0910105F091FE
:1035F00002051DC0E0910505F091060518C0E09197
:103600000D05F0910E0513C0E0910705F091080536
:103610000EC0E0910905F0910A0509C0E0910B0583
:10362000F0910C0504C0E0910F05F0911005309762
:1036300009F009951F9108951F93162F0E94CB1A28
:1036400082E00E94451F813021F41EBD0DB407FEAB
:10365000FDCF1F9108959B01AC018091A2048823A6
:1036600081F0DA01C901880F991FAA1FBB1F90932F
:10367000AE048093AD04211531054105510509F4CF
:103680005F9808950F931F93CF93DF9380E291E0AB
:103690000E9401349C019093B0048093AF04892B65
:1036A00011F480E039C08901C0E0D0E0BE0180E0C3
:1036B00090E00E94692D20E030E040EA51E40E9451
:1036C000D02C27EF35E740E05FE30E94592E9B01A5
:1036D000AC0160E070E080E291E40E94BC2E9B01AE
:1036E000AC01CA01B9012DEC3CEC42E851E40E9466
:1036F000592E0E941F2E2AE030E040E050E00E9448
:103700008933F80161937193819391938F0121968D
:10371000C834D10559F681E0DF91CF911F910F9107
:1037200008958AE00E94451F882371F41092AC042A
:103730001092AB0481E00E94472681E08093A204AE
:103740008AE061E00E948D1F8AE091E008951F9356
:103750008BE00E94451F882311F090E021C089E092
:103760000E94451F8823D9F40E94421B182F8130E4
:10377000B1F41092A3041092A4041092A504109224
:10378000A6048DE06AEC75E20E942D2482E00E947E
:1037900047261093A10489E061E00E948D1F91E00B
:1037A00089E01F910895813029F0823031F090E056
:1037B00089E008950E94911B08950E94A71B089517
:1037C0008091DF079091E0072091E1073091E207B7
:1037D000BC01C90108952F923F924F925F926F9260
:1037E0007F928F929F92AF92BF92CF92DF92EF9291
:1037F000FF920F931F93DF93CF93CDB7DEB7582E71
:10380000962E442E39013C2CC98CDA8C2B8C81E00D
:10381000681739F1681728F092E0691709F085C038
:1038200049C080E061E00E94F41D80E0B7010E9481
:10383000BD1D80E0642DA3019801032DEE24E394C7
:10384000E4E0CE2EE8E0DE2E0E94461E552009F070
:103850006CC000D00F92EDB7FEB71182B382A28286
:1038600023C081E061E00E94F41D81E0B6010E9466
:10387000BD1D81E0682D4D895E892F89388D022D0F
:10388000EE24E39474E0C72E78E0D72E0E94461E03
:10389000552009F04AC000D00F92EDB7FEB79182D3
:1038A0008C8D9D8D938382830E94F71E0F900F90C5
:1038B0000F903BC082E061E00E94F41D80E0B70100
:1038C0000E94BD1D81E0B6010E94BD1D80E0642DF7
:1038D000A3019801032DEE24E39494E0C92E98E00F
:1038E000D92E0E94461E81E0682D4D895E892F8960
:1038F000388D022D0E94461E5520B9F400D000D00C
:103900000F92ADB7BEB71196EDB7FEB79182FD012C
:10391000B282A1828C8D9D8D948383830E94F71E39
:103920000F900F900F900F900F90CF91DF911F91FC
:103930000F91FF90EF90DF90CF90BF90AF909F904E
:103940008F907F906F905F904F903F902F90089551
:103950006F927F928F929F92AF92BF92CF92DF929F
:10396000EF92FF920F931F93DF93CF93CDB7DEB704
:10397000942E7C2DD50149895A89AB88BC88CD8885
:10398000DE889F89813009F457C08130B8F18230D8
:1039900009F076C0613091F0613020F0623009F0BA
:1039A0006FC015C080E060E00E94F41D80E0B701A8
:1039B0000E94BD1D80E0692DA8011DC081E060E06E
:1039C0000E94F41D81E0B6010E94BD1D11C082E07D
:1039D00060E00E94F41D80E0B7010E94BD1D81E0FF
:1039E000B6010E94BD1D80E0692DA8010E94A61DA0
:1039F00081E0682DA5010E94A61D42C0EDB7FEB76B
:103A000039970FB6F894FEBF0FBEEDBF6DB67EB608
:103A10000894611C711C52834183F301B382A2821A
:103A2000D582C4829683888D998D9087878380E024
:103A3000492DC72E5D011AC0EDB7FEB739970FB6F5
:103A4000F894FEBF0FBEEDBFADB7BEB7119652835F
:103A50004183FD01B382A282D582C48296831086FF
:103A6000178281E0492DC72EAA24BB240E94EB1B9C
:103A70008DB79EB709960FB6F8949EBF0FBE8DBF47
:103A8000CF91DF911F910F91FF90EF90DF90CF903A
:103A9000BF90AF909F908F907F906F9008950E94FD
:103AA000D92681E080930308EDECF7E011921192A2
:103AB0001182108232961182108232961182108207
:103AC00032961182108232961182108232961182C1
:103AD00010823296118210823296118210823296B2
:103AE00011821082329611821082329611821082D7
:103AF0003296118210823696119211921192108292
:103B00003296119211921192119211921192119278
:103B100011821082329611821082329611821082A6
:103B2000329611821082769711821082329611821B
:103B3000108210920208109201081092030887E088
:103B400061E00E948D1F87E091E00895EF92FF925F
:103B50000F931F93182F062F7A0160E00E94F41D27
:103B6000812F602F0E94DF1D812FB7010E94091E47
:103B70001F910F91FF90EF900895482F81E080935F
:103B80000308CB0123E0693E720710F088EE93E052
:103B9000413071F0413018F0423071F405C090931B
:103BA000D8078093D70708C09093D8078093D7078A
:103BB0009093DA078093D907109203080895982FFD
:103BC00081E080930308913051F0913018F09230E9
:103BD00041F403C06093F00704C06093F007609362
:103BE000F107109203080895982F81E0809303084D
:103BF000913051F0913018F0923041F403C060934D
:103C0000CD0704C06093CD076093CE0710920308E0
:103C10000895482F81E080930308CB0121E06139AA
:103C2000720710F080E991E0413071F0413018F0F6
:103C3000423071F405C09093D0078093CF0708C03D
:103C40009093D0078093CF079093D2078093D107AA
:103C5000109203080895982F81E080930308913013
:103C600071F0913018F0923071F405C07093E00754
:103C70006093DF0708C07093E0076093DF077093DD
:103C8000E2076093E1071092030808958F929F92D4
:103C9000AF92BF92CF92DF92EF92FF920F931F935A
:103CA000CF93DF93182FF62E5A014901E60161E008
:103CB0000E94F41D812FB501A4010E94F826812FD6
:103CC0006F2D0E94DF1D812F602F0E94E326812F20
:103CD000B5010E942B1EC114D10499F0113049F096
:103CE000113018F0123069F406C018821092FF07E4
:103CF00008C0198204C0188219821092FF0710921E
:103D00000008D0930208C0930108EE20B9F581EBBA
:103D100094E09093020880930108812FB4010E94DF
:103D2000091E812F0E94C426113071F0113018F045
:103D3000123059F512C01092B1041092FF07809111
:103D4000B1048823E1F321C01092B204109200085C
:103D50008091B2048823E1F318C01092B10410924C
:103D6000B2041092FF07109200088091B1048823DA
:103D7000E1F38091B2048823C1F307C0812FB4011D
:103D80000E94091E812F0E94C426DF91CF911F91AE
:103D90000F91FF90EF90DF90CF90BF90AF909F90EA
:103DA0008F9008950F931F93182F062F662349F4C1
:103DB00060E070E00E94091E812F60E070E00E94C8
:103DC0002B1E81E080930308113051F0113018F060
:103DD000123041F403C00093EB0704C00093EB07DB
:103DE0000093EC07109203081F910F910895CF9252
:103DF000DF92EF92FF920F931F93DF93CF93CDB794
:103E0000DEB78B85813061F0813018F08230A1F50A
:103E100011C0EC85FD85809104088823E1F306C07C
:103E2000EC85FD85809105088823E1F3309721F129
:103E3000099522C0CC84DD84EE84FF8400E010E08C
:103E4000002351F480910408882331F0C114D10477
:103E500011F0F601099501E0112351F48091050854
:103E6000882331F0E114F10411F0F701099511E014
:103E7000002331F3112321F3CF91DF911F910F9193
:103E8000FF90EF90DF90CF900895E82FF0E0E331BE
:103E9000F10540F4E25CFF4FEE0FFF1F0590F49137
:103EA000E02D099480E0089580910608089580919E
:103EB00007080895809108080895809109080895D9
:103EC00080910A08089580910C08089580910B084C
:103ED000089580910D08089580910E0808958091AD
:103EE0000F08089580911008089580911108089591
:103EF0008091120808958091130808958091140804
:103F0000089580911508089580911608089580916C
:103F100017080895809118080895E82FF0E0E3311C
:103F2000F10508F040C0EF5AFF4FEE0FFF1F05905C
:103F3000F491E02D099460930608089560930708B2
:103F400008956093080808956093090808956093A0
:103F50000A08089560930C08089560930B0808956B
:103F600060930D08089560930E08089560930F08FC
:103F70000895609310080895609311080895609360
:103F80001208089560931308089560931408089523
:103F900060931508089560931608089560931708B4
:103FA00008956093160808950F931F9381E00E946F
:103FB000451F813011F000E024C087E00E94CB1A39
:103FC00082E06AE00E941C1B82E062EB0E941C1BE4
:103FD00018EC812F8A95F1F782E060E00E94AF250E
:103FE000082F812F8A95F1F782E060E00E94AF25CB
:103FF0001A95F1F787E00E94CB1A88E893E10197C0
:10400000F1F7802F1F910F9108951F93CF93DF93A6
:10401000182F8091B404882341F08091BE04882336
:1040200099F01092B4041092BE040E94D41F8093A1
:10403000B30488EB94E061E040E022E330E00E94CA
:10404000C32081E08093B4049091B304A12FB0E029
:10405000ED01CA59DB4F8881882369F0FD01E759DA
:10406000FB4F80819823C1F0FD01EB54FB4F81E0B1
:104070008083188211C0FD01EB54FB4F80818111B8
:104080001082FD01E759FB4F8081982329F4FD013F
:10409000EA59FB4F81E08083AB54BB4F8C91DF9199
:1040A000CF911F91089582E00E94451F882319F443
:1040B00090E082E008951092340810923308109234
:1040C000360810923508109238081092370810926E
:1040D0003A081092390810923C0810923B0880E987
:1040E00091E09093200880931F089093220880937A
:1040F00021089093240880932308909326088093A6
:104100002508909328088093270884E398E09093EB
:104110002A088093290890932C0880932B08909369
:104120002E0880932D089093300880932F08909349
:1041300032088093310881E061E00E948D1F91E098
:1041400081E00895DF93CF93CDB7DEB729970FB6FF
:10415000F894DEBF0FBECDBF9C01CE01019661E099
:1041600040E00E94C320982F882319F48F81882370
:10417000E9F3892F29960FB6F894DEBF0FBECDBFA5
:10418000CF91DF910895EF92FF920F931F93CF93FA
:10419000DF93EC01F62EE42E890188E00E94451F92
:1041A000813011F081E026C084E090E00E9401346B
:1041B000FC01009711F482E01DC0F982F0FC1E8220
:1041C00081E0E81619F48981846089838981886097
:1041D00089831B830A831D830C83D183C08313824D
:1041E000128281E080931105CF010E94582710921E
:1041F000110580E0DF91CF911F910F91FF90EF901B
:104200000895FC0180914008813011F085E0089507
:1042100080914108813011F08AE00895613011F4F5
:1042200084EC01C084E88093BC008091BC0087FFCF
:10423000FCCF613031F48091B900887F803559F42A
:1042400005C08091B900887F883529F48091BB0032
:10425000808380E0089582E00895982F809140083F
:10426000813011F085E0089580914108813011F08E
:104270008AE008959093BB0084E88093BC0080910D
:10428000BC0087FFFCCF8091B90090E0887F9070E0
:104290008832910521F0C09721F483E0089580E0F1
:1042A00008958CE00895982F20914008213011F056
:1042B00085E0089580914208813011F489E00895E5
:1042C0002093410884EA8093BC008091BC0087FF62
:1042D000FCCF8091B900887F883039F08091B90097
:1042E000887F803111F081E00895613019F4990FD1
:1042F000916003C0662319F4990F9093BB0084E882
:104300008093BC008091BC0087FFFCCF613031F40A
:104310008091B900887F803441F409C0662339F464
:104320008091B900887F883111F082E0089580E0A3
:10433000089580914108813011F08AE008958091BC
:104340004308813029F485E98093BC0080E008951A
:1043500084E98093BC0080E0089582E10E94451FBB
:104360008823B1F41092400810924108109242083C
:1043700010924308109244080E94F42787E160E0FD
:104380000E94CB210E94EA2782E161E00E948D1FFA
:1043900082E190E0089563706093B9008093B80063
:1043A00081E08093400808958FE180937C00EAE7E4
:1043B000F0E087E0808380818068808308950E9498
:1043C00035270E9411250E9441240E94C1270E9486
:1043D00076250E94532078940895000008951F9236
:1043E0000F920FB60F9211242F933F934F935F9329
:1043F0006F937F938F939F93AF93BF93EF93FF93AD
:10440000E091E104F091E204309709F00995FF9101
:10441000EF91BF91AF919F918F917F916F915F913C
:104420004F913F912F910F900FBE0F901F901895B5
:104430001F920F920FB60F9211242F933F934F9319
:104440005F936F937F938F939F93AF93BF93EF93FC
:10445000FF93E091E304F091E404309709F00995AB
:10446000FF91EF91BF91AF919F918F917F916F914C
:104470005F914F913F912F910F900FBE0F901F9022
:1044800018951F920F920FB60F9211242F933F93FE
:104490004F935F936F937F938F939F93AF93BF934C
:1044A000EF93FF93E091E504F091E604309709F073
:1044B0000995FF91EF91BF91AF919F918F917F915E
:1044C0006F915F914F913F912F910F900FBE0F9081
:1044D0001F9018951F920F920FB60F9211242F93D1
:1044E0003F934F935F936F937F938F939F93AF937C
:1044F000BF93EF93FF93E091D304F091D4043097EE
:1045000009F00995FF91EF91BF91AF919F918F9124
:104510007F916F915F914F913F912F910F900FBEBF
:104520000F901F9018951F920F920FB60F921124A3
:104530002F933F934F935F936F937F938F939F93AB
:10454000AF93BF93EF93FF93E091D504F091D6041E
:10455000309709F00995FF91EF91BF91AF919F912D
:104560008F917F916F915F914F913F912F910F901C
:104570000FBE0F901F9018951F920F920FB60F92BB
:1045800011242F933F934F935F936F937F938F9358
:104590009F93AF93BF93EF93FF93E091D704F09174
:1045A000D804309709F00995FF91EF91BF91AF9131
:1045B0009F918F917F916F915F914F913F912F913B
:1045C0000F900FBE0F901F9018951F920F920FB66D
:1045D0000F9211242F933F934F935F936F937F9389
:1045E0008F939F93AF93BF93EF93FF93E091DB047F
:1045F000F091DC04309709F00995FF91EF91BF919C
:10460000AF919F918F917F916F915F914F913F916A
:104610002F910F900FBE0F901F9018951F920F9221
:104620000FB60F9211242F933F934F935F936F9385
:104630007F938F939F93AF93BF93EF93FF93E091FB
:10464000DD04F091DE04309709F00995FF91EF91B8
:10465000BF91AF919F918F917F916F915F914F919A
:104660003F912F910F900FBE0F901F9018951F92A2
:104670000F920FB60F9211242F933F934F935F9396
:104680006F937F938F939F93AF93BF93EF93FF931A
:10469000E091D904F091DA04309709F00995FF917F
:1046A000EF91BF91AF919F918F917F916F915F91AA
:1046B0004F913F912F910F900FBE0F901F90189523
:1046C0001F920F920FB60F9211242F933F934F9387
:1046D0005F936F937F938F939F93AF93BF93EF936A
:1046E000FF93E091DF04F091E004309709F0099521
:1046F000FF91EF91BF91AF919F918F917F916F91BA
:104700005F914F913F912F910F900FBE0F901F908F
:1047100018951F920F920FB60F9211242F933F936B
:104720004F935F936F937F938F939F93AF93BF93B9
:10473000EF93FF93E091C904F091CA04309709F018
:104740000995FF91EF91BF91AF919F918F917F91CB
:104750006F915F914F913F912F910F900FBE0F90EE
:104760001F9018951F920F920FB60F9211242F933E
:104770003F934F935F936F937F938F939F93AF93E9
:10478000BF93EF93FF93E091CB04F091CC0430976B
:1047900009F00995FF91EF91BF91AF919F918F9192
:1047A0007F916F915F914F913F912F910F900FBE2D
:1047B0000F901F9018951F920F920FB60F92112411
:1047C0002F933F934F935F936F937F938F939F9319
:1047D000AF93BF93EF93FF93E091CD04F091CE049C
:1047E000309709F00995FF91EF91BF91AF919F919B
:1047F0008F917F916F915F914F913F912F910F908A
:104800000FBE0F901F9018951F920F920FB60F9228
:1048100011242F933F934F935F936F937F938F93C5
:104820009F93AF93BF93EF93FF93E091CF04F091E9
:10483000D004309709F00995FF91EF91BF91AF91A6
:104840009F918F917F916F915F914F913F912F91A8
:104850000F900FBE0F901F901895E82F803268F4CC
:104860008051833050F0F0E0EE0FFF1FEF53FB4F0D
:10487000208131817183608302C020E030E0C90172
:10488000089580E10E94451F882361F4E1ECF4E083
:104890001192119285E0E130F807D1F780E161E0F3
:1048A0000E948D1F80E191E00895239A0895FF9260
:1048B0000F931F93CF93DF93F82E8AE0F816B1F091
:1048C0008F1548F0E8E0FE16B9F1EF1538F1F7E082
:1048D000FF1651F43BC08DE0F81659F0EBE1FE16DF
:1048E00089F0FCE0FF1641F001E041C01092190888
:1048F00003C0109219083AC080911A088150809321
:104900001A0834C00E94B01914C080E061E00E940F
:104910008F1A809119088F5F809319088091190868
:1049200087FFF3CF1092190880911A088150809365
:104930001A0800E011E01CC0809119088823B1F02A
:104940008091190886508093190810C081E00E9458
:10495000D31B64EF71E080E090E04DE750E024E687
:1049600030E00E94712681E00E943D2600E010E0C8
:1049700080911A08609119080E94761A002351F15B
:1049800085E0F89EC0011124EC01C355DF4F8C0176
:104990000E541F4FFE01849161E00E948F1A2196F0
:1049A000C017D107B9F780E061E00E948F1A8091AB
:1049B00019088A5F809319088091190890E08C3754
:1049C00091053CF01092190880911A08815080934B
:1049D0001A0811E080911A08837080931A08113028
:1049E00059F480911B08813039F4E0911C08F09152
:1049F0001D08309709F0099580E090E0DF91CF9194
:104A00001F910F91FF90089585FD5D9886FD5E983A
:104A10000895559A569A089585FD5D9A86FD5E9A89
:104A2000089580E00E94451F882351F4F8940E9465
:104A3000082881E00E94232580E061E00E948D1F0C
:104A400080E091E00895813049F0F894813020F1C0
:104A50008230B1F0833009F045C017C02C9A80E84D
:104A6000809361001092610080E090E00000019668
:104A700088329105D9F71092680010926B00089562
:104A800080E88093610083E004C080E88093610047
:104A900088E08093610028C080E090E000000196EB
:104AA0002DE680369207D1F72C9880E090E0000048
:104AB00001962DE680369207D1F710927A008FEF9B
:104AC0008093640080916800816080936800809189
:104AD0006B00846080936B00789483B7816083BFA0
:104AE00088950895823008F0789408950F931F9365
:104AF0000E94342880E063E278E20E94C12581E0D0
:104B00006BE178E20E94C12582E063E178E20E94D5
:104B1000C12586E06BE278E20E94C1250BE018E235
:104B200083E0B8010E94C12584E0B8010E94C1253C
:104B300085E0B8010E94C12587E0B8010E94C12527
:104B400082E061E00E948D1F8FEF80931E0887E056
:104B50000E94CB1A82E091E01F910F9108951F935C
:104B6000162F0E94CB1A82E00E94451F813011F05F
:104B700080E005C01EBD0DB407FEFDCF8EB51F91B0
:104B80000895E82FF0E0EE0FFF1FEF5FFA4F7183FB
:104B9000608308950E94CD2508958091A30490918B
:104BA000A404A091A504B091A6042091A70430917B
:104BB000A8044091A9045091AA04280F391F4A1F44
:104BC0005B1F2093A3043093A4044093A504509347
:104BD000A6048091A3049091A404A091A504B0918F
:104BE000A6048851964FA040B040BCF08BB18058CD
:104BF0008BB98091A3049091A404A091A504B091D5
:104C0000A6048851964FA040B0408093A30490938F
:104C1000A404A093A504B093A60408958AE00E947A
:104C2000451F813041F40E943B281092A2048AE083
:104C300060E00E948D1F089589E00E94451F813029
:104C4000D9F48091A104882311F00E94BE2682E04D
:104C50000E943B288091AF049091B004009731F0FE
:104C60000E94AE341092B0041092AF041092A104CE
:104C700089E060E00E948D1F0895813029F0823024
:104C800029F40E941C2608950E940E260895982F4C
:104C90008091A104882331F48091A204882311F427
:104CA000579A5F988091A1048823D1F49230C1F47F
:104CB0001092800010928100809181008860809322
:104CC0008100809181008160809381001092850035
:104CD0001092840081E08093890080E980938800AD
:104CE00008958F929F92AF92BF92CF92DF92EF92F0
:104CF000FF920F931F93CF93DF934B015C01EA0167
:104D0000B9012115310539F19E01442737FD409540
:104D1000542F6536710510F064E670E080E090E095
:104D20000E94893324E630E040E050E00E94A8333E
:104D300079018A01C501B4010E942B1BC7010E94A1
:104D4000A22060E070E080E090E00E942B1BCE018A
:104D50008E199F0904C04115510519F0CA010E941E
:104D6000A220DF91CF911F910F91FF90EF90DF90E4
:104D7000CF90BF90AF909F908F900895EFE6F0E0B6
:104D800080818D7F80830895982F81E08093030830
:104D9000913051F0913018F0923041F403C01092EC
:104DA000EB0704C01092EB071092EC071092030877
:104DB00008953A9A3B9A3C9A3D9A3E9A3F9A88B116
:104DC000837088B90895982F81E08093030891300B
:104DD00051F0913018F0923041F403C06093ED0728
:104DE00004C06093ED076093EE07109203080895E6
:104DF0000F931F93CF93DF93EB018A01813001F171
:104E0000813018F0823061F50DC08091D707909104
:104E1000D807892B11F080E01AC01092E407109295
:104E2000E3071EC08091D7079091D807892B21F006
:104E300080E00E94572804C01092E4071092E30714
:104E40008091D9079091DA07892B31F081E0BE017A
:104E5000A8010E94572804C01092E6071092E507A7
:104E6000DF91CF911F910F91089510920608109233
:104E7000070810920B081092080810920A08109266
:104E80000C0810920D0810920E0810920F08109244
:104E90001008109211081092120810921308109224
:104EA0001408109215081092160810921708089509
:104EB000CF92DF92EF92FF920F931F93CF93DF93E6
:104EC000EC0180913D08882339F4D0933F08C093CA
:104ED0003E080E94E62747C0C0903E08D0903F0899
:104EE00000E010E0EE24FF2437C0A881B981FD0165
:104EF00064817581F60140815181FA018481958137
:104F00009B01281B390B37FF0FC0861B970B95831E
:104F10008483DB82CA82012B29F4D0933F08C0939B
:104F20003E0821C0F7010CC0F60182819381211552
:104F3000310549F4FD01158214829B838A83F601B1
:104F4000D383C28310C0FD01358324830097B9F356
:104F50000F5F1F4F76016C0180913D0890E00817AC
:104F6000190718F2ECCF80913D088F5F80933D08C0
:104F7000DF91CF911F910F91FF90EF90DF90CF9035
:104F8000089588E00E94451F8823B9F410923D08D7
:104F900010923F0810923E081092110510921205CF
:104FA00080E164EC78E20E94F7270E94CB280E94FF
:104FB000E02788E061E00E948D1F88E091E008957D
:104FC000EEE6F0E0808182608083089581E0809346
:104FD0001205089580914008813029F48091BC0029
:104FE00084608093BC000895389839980895803281
:104FF00018F020E030E00AC0E82FF0E0EE0FFF1FCD
:10500000EF53FB4F2081318171836083C901089583
:10501000249A2C9A089583E58CBD81E08DBD8DE0A6
:105020008A95F1F7089583E58CBD1DBC84EF91E06E
:105030000197F1F708958FE78CBD1DBC84EF91E0D7
:105040000197F1F7089583E58CBD81E08DBD8DE07A
:105050008A95F1F7089583E58CBD81E08DBD84EFDD
:1050600091E00197F1F70895259A2698279A209ABA
:10507000219A229A0895823029F4809181008E7FAE
:10508000809381008091A104813031F48091A20449
:10509000813011F4000008958091A104813021F045
:1050A0008091A204813011F45F9857980895EF928F
:1050B000FF920F931F93CF93DF93EB01882321F08F
:1050C000813009F05AC02DC09A0140E050E0CA0179
:1050D000B9010E9489332091D7073091D807220F58
:1050E000331F40E050E00E94A83379018A01A801F3
:1050F0009701220F331F441F551FCE01A0E0B0E0DF
:1051000082179307A407B50728F0F092E407E0920E
:10511000E30733C0D695C795D093E407C093E30760
:105120002CC09A0140E050E0CA01B9010E948933C5
:105130002091D9073091DA07220F331F40E050E069
:105140000E94A83379018A01A8019701220F331F19
:10515000441F551FCE01A0E0B0E082179307A407BB
:10516000B50728F0F092E607E092E50706C0D6956D
:10517000C795D093E607C093E507DF91CF911F91C4
:105180000F91FF90EF9008950E94D4280E94142957
:105190000E94ED28089584B5826084BD85B5846041
:1051A00085BD8EE487BD089588E00E94451F882351
:1051B00011F484E0089580911205882311F483E0AE
:1051C000089580911105882311F082E008950E94CE
:1051D000612B8130E1F380E008958091A204813059
:1051E00011F58091AB049091AC042091AD04309105
:1051F000AE04280F391F3093AC042093AB04809188
:10520000AB049091AC04885E93406CF08BB18058F5
:105210008BB98091AB049091AC04885E93409093DD
:10522000AC048093AB04089587E00E94451F813051
:1052300009F0AAC08091D7079091D807892B09F16E
:105240008091FB079091FC072091D7073091D807F8
:10525000820F931F9093FC078093FB078091FB07BD
:105260009091FC07885E9340A4F08091FB07909199
:10527000FC07885E93409093FC078093FB0741E016
:1052800009C08091CF079091D0079093D407809365
:10529000D30740E08091D9079091DA07892B09F173
:1052A0008091FD079091FE072091D9073091DA0790
:1052B000820F931F9093FE078093FD078091FD0757
:1052C0009091FE07885E9340A4F08091FD07909135
:1052D000FE07885E93409093FE078093FD0761E090
:1052E00009C08091D1079091D2079093D6078093FF
:1052F000D50760E0842F0E94C5298091F70790911F
:10530000F8072091D3073091D407280F391F309325
:10531000F8072093F7078091F7079091F807885EC8
:10532000934014F440E00BC08091F7079091F80788
:10533000885E93409093F8078093F70741E080914F
:10534000F9079091FA072091D5073091D607280FD9
:10535000391F3093FA072093F9078091F90790914C
:10536000FA07885E934014F460E00BC08091F9075F
:105370009091FA07885E93409093FA078093F9071B
:1053800061E0842F0E940A2A08958823F1F0209179
:10539000CF073091D0078091D3079091D407281B75
:1053A000390B1216130634F48091D3079091D40769
:1053B000019607C0232B49F08091D3079091D40721
:1053C00001979093D4078093D307662311F120911E
:1053D000D1073091D2078091D5079091D607281B2D
:1053E000390B1216130654F48091D5079091D60705
:1053F00001969093D6078093D5070895232B49F003
:105400008091D5079091D60701979093D607809306
:10541000D50708950F931F93182F062F8091030827
:10542000882309F0E7C08091EB07882309F05AC070
:105430008091D3079091D407892BE9F480911305CB
:10544000837E809313051092F4078091FF078823D1
:1054500009F45DC06091ED0780E00E94D21EE091EA
:105460000108F0910208309709F451C081E080836F
:105470001092FF074CC08091CD07813041F480919C
:10548000DF079091E007019711F411E002C01123AA
:10549000F1F1E091F207F0E0E25AFB4F9091130531
:1054A000937E8081892B809313058091F007882358
:1054B00021F48091F2078F5F03C08091F207815041
:1054C0008093F2078091F20783708093F20781E066
:1054D0008093F4078091CD078130C9F480E00E9469
:1054E0000D2B15C090911305937E90931305E091B9
:1054F000F207F0E0E25AFB4F8081892B809313057D
:1055000082E08093F4071092D4071092D307809121
:10551000EC07882309F059C08091D5079091D607F0
:10552000892BE9F4809113058F71809313051092F4
:10553000F50780910008882309F45CC06091EE07AC
:1055400081E00E94D21EE0910108F091020830979C
:1055500009F450C081E08183109200084BC0809113
:10556000CE07813041F48091E1079091E2070197E5
:1055700011F401E002C00023E9F1E091F307F0E04B
:10558000EE59FB4F909113059F718081892B809379
:1055900013058091F107882321F48091F3078F5F31
:1055A00003C08091F30781508093F3078091F30744
:1055B00083708093F30781E08093F5078091CE0795
:1055C0008130C1F40E940D2B15C0909113059F717D
:1055D00090931305E091F307F0E0EE59FB4F8081C3
:1055E000892B8093130582E08093F5071092D607EC
:1055F0001092D5078091F607882331F483E195E076
:10560000612F402F0E94CF2B88B18370909113059A
:10561000892B88B91F910F910895882321F081303B
:1056200009F04EC027C08091DF079091E007892BD9
:1056300049F08091DF079091E00701979093E00790
:105640008093DF078091FF078823D1F52091DF0742
:105650003091E0078091E3079091E407281739071C
:1056600079F580E060E070E00E94091E81E080939F
:10567000FF0708958091E1079091E207892B49F097
:105680008091E1079091E20701979093E207809360
:10569000E10780910008882399F42091E107309177
:1056A000E2078091E5079091E6072817390741F452
:1056B00081E060E070E00E94091E81E080930008B4
:1056C0000895FF920F931F93CF93DF9380913D082E
:1056D000882309F459C000913E0810913F08F80151
:1056E000C081D1818C819D8101979D838C83181607
:1056F00019060CF449C0898180FF05C08E8188237A
:1057000011F481E08E83898181FF03C0EF81F885E8
:10571000099580913D088230A8F0F801828193813B
:1057200090933F0880933E0813821282E09100001C
:10573000F091010084819581181619063CF0FF2430
:10574000F39405C010923F0810923E08FF24809108
:105750003D08815080933D0880913D08882311F4D5
:105760000E94CC2B898182FF08C08A819B819D8306
:105770008C83C8010E94582708C0C8010E94AE341B
:1057800089818F7E898301C0FF248F2DDF91CF9186
:105790001F910F91FF900895109212050895FC013A
:1057A0008091F407823069F48091170591E0892790
:1057B00080931705882309F03EC08081837E808313
:1057C0003AC08091D3079091D407C397A4F566237C
:1057D000D1F02091D3073091D40780E690E0BC014E
:1057E000269FC001279F900D369F900D1124880F92
:1057F000892F881F990B9093E8078093E70781E032
:105800008093150518C0809115058823A1F080911B
:10581000E7079091E80701979093E8078093E707DF
:105820008091E7079091E807892B29F48081837E96
:105830008083109215058091F507823069F480917C
:10584000160591E0892780931605882309F03EC04C
:1058500080818F71808308958091D5079091D607BC
:10586000C397A4F54423D1F02091D5073091D607F2
:1058700080E690E0AC01249FC001259F900D349FED
:10588000900D1124880F892F881F990B9093EA0798
:105890008093E90781E080931405089580911405B1
:1058A0008823A1F08091E9079091EA0701979093EE
:1058B000EA078093E9078091E9079091EA07892B2D
:1058C00029F480818F7180831092140508955058B7
:1058D000BB27AA270ED075C166D130F06BD120F05E
:1058E00031F49F3F11F41EF45BC10EF4E095E7FB29
:1058F00051C1E92F77D180F3BA1762077307840784
:10590000950718F071F49EF58FC10EF4E0950B2EFB
:10591000BA2FA02D0B01B90190010C01CA01A00101
:105920001124FF27591B99F0593F50F4503E68F15C
:105930001A16F040A22F232F342F4427585FF3CF9D
:10594000469537952795A795F0405395C9F77EF46E
:105950001F16BA0B620B730B840BBAF09150A1F0B7
:10596000FF0FBB1F661F771F881FC2F70EC0BA0F3D
:10597000621F731F841F48F4879577956795B795C5
:10598000F7959E3F08F0B3CF9395880F08F09927BD
:10599000EE0F979587950895D9D008F481E0089582
:1059A0000CD00FC107D140F0FED030F021F45F3FA2
:1059B00019F0F0C0511139C1F3C014D198F39923F3
:1059C000C9F35523B1F3951B550BBB27AA276217C3
:1059D0007307840738F09F5F5F4F220F331F441F08
:1059E000AA1FA9F333D00E2E3AF0E0E830D0915040
:1059F0005040E695001CCAF729D0FE2F27D0660F2D
:105A0000771F881FBB1F261737074807AB07B0E86B
:105A100009F0BB0B802DBF01FF2793585F4F2AF081
:105A20009E3F510568F0B6C000C15F3FECF3983E61
:105A3000DCF3869577956795B795F7959F5FC9F7DE
:105A4000880F911D9695879597F90895E1E0660F67
:105A5000771F881FBB1F621773078407BA0720F0E0
:105A6000621B730B840BBA0BEE1F88F7E095089549
:105A700004D06894B111D9C00895BCD088F09F5764
:105A800090F0B92F9927B751A0F0D1F0660F771F8A
:105A9000881F991F1AF0BA95C9F712C0B13081F06A
:105AA000C3D0B1E00895C0C0672F782F8827B85FB2
:105AB00039F0B93FCCF3869577956795B395D9F7CB
:105AC0003EF490958095709561957F4F8F4F9F4FD5
:105AD0000895E89409C097FB3EF4909580957095E1
