:100000000C9431030C944E030C944E030C944E0349
:100010000C941E240C9447240C9470240C94992462
:100020000C944E030C94FF220C9428230C9451231F
:100030000C94CC230C947A230C94A3230C94F523D6
:100040000C9484220C94AD220C94D6220C944E0372
:100050000C944E030C944E030C944E030C944E03DC
:100060000C944E030C944E030C944E030C944E03CC
:100070000C944E030C944E030C944E03E91FEC1F9A
:10008000EF1FF21FFB1FF51FF81FFE1F01200420AA
:1000900007200A200D2010201320162019201C20D4
:1000A0001F20302033203620392042203C203F20A2
:1000B000452048204B204E205120542057205A20C4
:1000C0005D2060206320662007634236B79BD8A777
:1000D0001A39685618AEBAAB558C1D3CB7CC57636D
:1000E000BD6DEDFD753EF6177231BF000000803F1B
:1000F00008000000BE922449123EABAAAA2ABECD37
:10010000CCCC4C3E00000080BEABAAAAAA3E0000A8
:100110000000BF000000803F0000000000084178A0
:10012000D3BB4387D1133D190E3CC3BD4282AD2BD7
:100130003E68EC8276BED98FE1A93E4C80EFFFBECF
:1001400001C4FF7F3F000000000016050100000011
:1001500000000000FA000000E000E00028FE28FE99
:10016000282454FE5448C4C81026466C92AA44A0C1
:1001700000A0C000000038448200008244380028FB
:10018000107C102810107C1010000A0C00001010B9
:10019000101010000606000004081020407C8A920F
:1001A000A27C0042FE020042868A92628482A2D22F
:1001B0008C182848FE08E4A2A2A29C3C5292920C01
:1001C000808E90A0C06C9292926C60929294780013
:1001D0006C6C0000006A6C00001028448200282823
:1001E000282828008244281040808A90604C929EE3
:1001F000827C7E8888887EFE9292926C7C8282824B
:1002000044FE82824438FE92929282FE90909080C8
:100210007C8292925EFE101010FE0082FE8200042C
:100220000282FC80FE10284482FE02020202FE408E
:100230003040FEFE201008FE7C8282827CFE909080
:1002400090607C828A847AFE909894626292929204
:100250008C8080FE8080FC020202FCF8040204F81C
:10026000FC021C02FCC6281028C6E0100E10E08616
:100270008A92A2C200FE82820040201008040082FE
:1002800082FE0020408040200202020202008040E4
:100290002000042A2A2A1EFE1222221C1C222222AC
:1002A000041C222212FE1C2A2A2A18107E9080404A
:1002B000304A4A4A7CFE1020201E0022BE02000462
:1002C0000222BC00FE081422000082FE02003E2032
:1002D00018201E3E1020201E1C2222221C3E2828F0
:1002E0002810102828183E3E10202010122A2A2AF2
:1002F0000420FC2202043C0202043E3804020438BA
:100300003C020C023C2214081422300A0A0A3C2245
:10031000262A322200106C82000000FE00000082BB
:100320006C1000081010081000000000007F818190
:10033000817F7F8383837F7F8787877F7F8F8F8F77
:100340007F7F9F9F9F7F7FBFBFBF7F7FFFFFFF7F1D
:100350002040FF4020621517156500FBFB000000E0
:1003600000000000C0FF0300E0FF0700F0FF0F00E7
:10037000F8FF1F0078001E0078001E0078001E00A5
:1003800078001E0078001E0078001E0078001E0015
:1003900078001E0078001E00000000000000000031
:1003A00080FF0300E0FF0700F0FF0F00F8FF1F00D1
:1003B000F83C1F00783C1E00783C1E00783C1E0074
:1003C000783C1E00783C1E00783C1E00783C1E00E5
:1003D000783C1E00783C1E00783C1E0000000000A7
:1003E00000000000E0FF0300F0FF0700F8FF0F002F
:1003F000F8FF1F00783C1E00783C1E00783C1E0071
:10040000783C1E00783C1E00783C1E00783C1E00A4
:10041000783C1E00783C1E00783C1E000000000066
:1004200000000000F8FF0300F8FF0F00F8FF1F00B6
:10043000F8FF1F0000001E0000001E0000801F00CB
:1004400000F01F0000FF0F00E0FF0700F0FF0000BA
:10045000F80F0000F80000007800000078000000AD
:10046000F8FF1F00F8FF1F00F0FF1F00E0FF1F0054
:100470000000000000000000F8FF1F00F8FF1F0050
:10048000F8FF1F00F8FF1F0078001E00783C1E00D8
:10049000783C1E00783C1E00783C1E00783C1E0014
:1004A000783C1E00F87E1F00F8FF1F00F0FF0F00D1
:1004B000E0E703000000000000003800EEFF6C00E1
:1004C0002A8045003A0047FC03FF6CFC83FF39009B
:1004D000DEFF0B7CD0810BFCD0810BC0D0810BFCEC
:1004E000D0810B7CDEFF0B0082FF397002FF6CF8BD
:1004F0003A0047DC2A8045CCEEFF6CCC0000380087
:100500000000000C00001E0C00001E0000001E0079
:1005100000001E0000001E00F8FF1F00F8FF1F0073
:10052000F8FF1F00F8FF1F0000001E0000001E0063
:1005300000001E0000001E0000005E0000004000E1
:1005400000007C00000040000000400000007C0033
:1005500000003000000010000000300000007C6E41
:10056000616E00696E660000407A10F35A00A07256
:100570004E18090010A5D4E80000E87648170000DE
:10058000E40B54020000CA9A3B000000E1F50500AC
:100590000080969800000040420F000000A08601F5
:1005A000000000102700000000E8030000000064C5
:1005B00000000000000A0000000000010000000030
:1005C000002C76D888DC674F0823DFC1DFAE59E105
:1005D000B1B796E5E3E453C63AE651997696E8E674
:1005E000C28426EB898C9B62ED407C6FFCEFBC9C47
:1005F0009F40F2BAA56FA5F490055A2AF75C936B59
:100600006CF9676DC11BFCE0E40D47FEF520E6B513
:1006100000D0ED902E0300943577050080841E08ED
:100620000000204E0A000000C80C333333330F980B
:100630006E12831141EF8D2114893BE65516CFFED2
:10064000E6DB18D1844B381BF77C1D901DA4BBE45E
:1006500024203284725E228100C9F124ECA1E53DA0
:10066000270011241FBECFEFD8E0DEBFCDBF14E0BE
:10067000A0E0B1E0EEE1FEE602C005900D92A033ED
:10068000B107D9F718E0A0E3B4E001C01D92A23091
:10069000B107E1F70E94EF190C940D370C9400009C
:1006A0001F93CF93DF93EC0188E660E00E94E8217E
:1006B000182F8823A1F481E00E94C221182F8823DB
:1006C00071F488E661E00E94E821182F882339F44C
:1006D000CE0160E00E949621182F811118820E949D
:1006E0002E22812FDF91CF911F9108951F93CF93D9
:1006F000DF93EC0188E660E00E94E821182F882350
:10070000A1F489E00E94C221182F882371F488E6A1
:1007100061E00E94E821182F882339F4CE0160E0BF
:100720000E949621182F811118820E942E22812F5B
:10073000DF91CF911F9108951F93CF93DF93EC0129
:1007400088E660E00E94E821182F8823A1F488E061
:100750000E94C221182F882371F488E661E00E946C
:10076000E821182F882339F4CE0160E00E949621F9
:10077000182F811118820E942E22812FDF91CF9194
:100780001F9108951F93CF93DF93EC0188E660E0FB
:100790000E94E821182F8823A1F487E00E94C2213B
:1007A000182F882371F488E661E00E94E821182F51
:1007B000882339F4CE0160E00E949621182F811120
:1007C00018820E942E22812FDF91CF911F910895D0
:1007D0001F93CF93DF93EC0188E660E00E94E8214D
:1007E000182F8823A1F486E00E94C221182F8823A5
:1007F00071F488E661E00E94E821182F882339F41B
:10080000CE0160E00E949621182F811118820E946B
:100810002E22812FDF91CF911F9108951F93CF93A7
:10082000DF93EC0188E660E00E94E821182F88231E
:10083000A1F485E00E94C221182F882371F488E674
:1008400061E00E94E821182F882339F4CE0160E08E
:100850000E949621182F811118820E942E22812F2A
:10086000DF91CF911F9108951F93CF93DF93EC01F8
:1008700088E660E00E94E821182F8823A1F484E034
:100880000E94C221182F882371F488E661E00E943B
:10089000E821182F882339F4CE0160E00E949621C8
:1008A000182F811118820E942E22812FDF91CF9163
:1008B0001F9108951F93CF93DF93EC0188E660E0CA
:1008C0000E94E821182F8823A1F483E00E94C2210E
:1008D000182F882371F488E661E00E94E821182F20
:1008E000882339F4CE0160E00E949621182F8111EF
:1008F00018820E942E22812FDF91CF911F9108959F
:100900001F93CF93DF93EC0188E660E00E94E8211B
:10091000182F8823A1F482E00E94C221182F882377
:1009200071F488E661E00E94E821182F882339F4E9
:10093000CE0160E00E949621182F811118820E943A
:100940002E22812FDF91CF911F9108951F93CF9376
:10095000DF93EC0188E660E00E94E821182F8823ED
:10096000A1F480E00E94C221182F882371F488E648
:1009700061E00E94E821182F882339F4CE0160E05D
:100980000E949621182F811118820E942E22812FF9
:10099000DF91CF911F91089581E00E94E41985E0D5
:1009A0000E94AD190E949019A0E0B0E0BC01CD01F9
:1009B0000E94B12D20E030E040EA50E40E94B02CCB
:1009C0009B01AC0160E070E286E395E40E94182D83
:1009D00020E030E040E85FE30E94AF2C089581E022
:1009E0000E94E41987E00E94AD190E949019A0E0CE
:1009F000B0E0BC01CD010E94B12D20E030E040EA22
:100A000050E40E94B02C9B01AC0160E070E286E3F0
:100A100095E40E94182D20E030E040E85FE30E945A
:100A2000AF2C089581E00E94E41983E00E94AD1983
:100A30000E949019A0E0B0E0BC01CD010E94B12D50
:100A400020E030E040EA50E40E94B02C9B01AC0171
:100A500060E070E286E395E40E94182D20E030E02B
:100A600040E85FE30E94AF2C089581E00E94E41902
:100A700084E00E94AD190E949019A0E0B0E0BC0192
:100A8000CD010E94B12D20E030E040EA50E40E9408
:100A9000B02C9B01AC0160E070E286E395E40E941B
:100AA000182D20E030E040E85FE30E94AF2C08956D
:100AB00081E00E94E41985E00E94AD190E9490191E
:100AC000A0E0B0E0BC01CD010E94B12D20E030E0FB
:100AD00040EA5BE30E94A12E089581E00E94E419A0
:100AE00086E00E94AD190E949019A0E0B0E0BC0120
:100AF000CD010E94B12D20E030E040EA5BE30E948E
:100B0000A12E08950F931F9381E08093CC0480E081
:100B10000E949A20082F81E00E949A20182F82E0DC
:100B20000E949A20113019F422E030E006C020E043
:100B300030E0013011F421E030E0813011F423E0A5
:100B400030E0C9011F910F910895FF920F931F93F9
:100B5000CF93DF930E94F81981E08093CC0480E06A
:100B60000E949A20182F81E00E949A20082F82E08C
:100B70000E949A20F82E113019F0C0E0D0E013C086
:100B800080E091E00E947A3680E20E94071B84EFA9
:100B900091E00E94372180E40E94F21A80E20E94D4
:100BA000F21AC1E0D0E0013099F48CE091E00E94AB
:100BB0007A3680E40E94071B84EF91E00E9437217F
:100BC00080E40E94F21A80E20E94F21AC2E0D0E0B1
:100BD00081E0F816B1F488E191E00E947A3680E471
:100BE0000E94071B80E20E94071B84EF91E00E9495
:100BF000372180E40E94F21A80E20E94F21AC3E0D8
:100C0000D0E00E94F819CE01DF91CF911F910F9192
:100C1000FF9008952F923F924F925F926F927F9232
:100C20008F929F92AF92BF92CF92DF92EF92FF92FC
:100C30000F931F93DF93CF93CDB7DEB764970FB6B3
:100C4000F894DEBF0FBECDBF882339F58FE395E062
:100C50009C8B8B8BA2E6B7E0BE83AD83EAE5F6E022
:100C6000FC83EB8387EC95E09A8389830F2EF0E079
:100C70002F2EF0E03F2EF0E04F2EF0E05F2EF02D13
:100C80002F86388A498A5A8A2B863C864D865E860C
:100C90002F82388649865A8643C0A090EA06B090D3
:100CA000EB06C090EC06D090ED06E090EE06F090DA
:100CB000EF060091F0061091F10620904705309064
:100CC00048054090490550904A05209151053091C2
:100CD0005205409153055091540580E090E0FC018D
:100CE000E153FB4FA082B182C282D382FC01EE505D
:100CF000F94FE082F18202831383FC01E651FA4F3F
:100D00002082318242825382FC01E95AFA4F2083C9
:100D100031834283538304968837910501F796CF38
:100D2000AB89BC892D913D914D915C911397FD014B
:100D30002483358346835783AD81BE81ED90FD903A
:100D40000D911C911397FD01E482F58206831783B0
:100D5000AB81BC81AD90BD90CD90DC901397FD012F
:100D6000A482B582C682D782A981BA816D907D9016
:100D70008D909C901397FD01648275828682978284
:100D8000C201B1010E94B02C1B012C016F85788932
:100D900089899A89A80197010E94B02C6F87788B66
:100DA000898B9A8B6B857C858D859E85A6019501A7
:100DB0000E94B02C6B877C878D879E876F8178859A
:100DC00089859A85A40193010E94B02C6F8378874E
:100DD00089879A878B899C8904979C8B8B8BAD81A3
:100DE000BE811497BE83AD83EB81FC813497FC8375
:100DF000EB8389819A8104979A838983AB89BC8923
:100E0000A75CB44009F08CCF8091EA069091EB0684
:100E1000A091EC06B091ED06EB89FC898087918763
:100E2000A287B3878091EE069091EF06A091F0061D
:100E3000B091F1068093F2069093F306A093F40626
:100E4000B093F5068091470590914805A09149051A
:100E5000B0914A058093EA059093EB05A093EC05C9
:100E6000B093ED058091510590915205A0915305E5
:100E7000B09154058093570590935805A093590558
:100E8000B0935A05C201B10120E030E040EF51E4D7
:100E90000E94182D6093EA067093EB068093EC068F
:100EA0009093ED066F85788989899A8920E030E0F2
:100EB00040EF51E40E94182D6093EE067093EF0608
:100EC0008093F0069093F1066B857C858D859E85D9
:100ED00020E030E040EF51E40E94182D6093470578
:100EE000709348058093490590934A056F817885F2
:100EF00089859A8520E030E040EF51E40E94182D6A
:100F00006093510570935205809353059093540557
:100F100064960FB6F894DEBF0FBECDBFCF91DF91C0
:100F20001F910F91FF90EF90DF90CF90BF90AF9007
:100F30009F908F907F906F905F904F903F902F90F9
:100F40000895AF92BF92CF92DF92EF92FF920F93EC
:100F50001F937B018C01442361F080E090E0A0E0CE
:100F6000B0E080934B0590934C05A0934D05B09352
:100F70004E05C801B70120914B0530914C054091B9
:100F80004D0550914E050E94B02C5B016C016093A1
:100F90004B0570934C0580934D0590934E05C80109
:100FA000B7012091E6053091E7054091E8055091A1
:100FB000E9050E94AF2C2DEC3CEC4CEC5DE30E946B
:100FC000A12E9B01AC01C801B7010E94B02C7B018E
:100FD0008C01C601B50120E030E040E050E00E9405
:100FE000A12E9B01AC01C801B7010E94B02C1F913A
:100FF0000F91FF90EF90DF90CF90BF90AF9008954A
:10100000442381F006C0E82FF0E0EE5CFD4F8081C4
:1010100061506623C1F70895E82FF0E0EE5BFD4FC5
:10102000808161506623C1F70895EF92FF920F937C
:101030001F936091470570914805809149059091F3
:101040004A0520E030E040E251E40E94142DF82EE1
:10105000FF1CFF24FF1CFF0CFF0CFF0C6091EA0635
:101060007091EB068091EC069091ED0620E030E067
:1010700040EF51E40E94142D082F001F0027001F8D
:10108000000F000F6091510570915205809153053A
:101090009091540520E030E04CE052E40E94142D81
:1010A000182F111F1127111F110FEE246091EE064A
:1010B0007091EF068091F0069091F10620E030E00B
:1010C00040EF51E40E94142D882314F4EE24E3949D
:1010D0008F2D8E0D800F810F80934F05209150052D
:1010E000E22FF0E0E659F84F918190935605891769
:1010F00019F42F5F209350051F910F91FF90EF90EF
:101100000895FF920F931F93CF93DF93FF24F394DF
:1011100010E0C4E2D1E00E948205082F813021F066
:10112000823011F0833039F4E12FF0E0ED52FA4FC4
:1011300000831F5F02C0882321F10E94F8198DB738
:101140009EB708970FB6F8949EBF0FBE8DBFEDB740
:10115000FEB73196ADB7BEB71296DC93CE9311971A
:10116000F282138204831582168317820E946836E6
:10117000F02E8DB79EB708960FB6F8949EBF0FBE9F
:101180008DBF84EF91E00E9437211B3020F21F5F5A
:10119000E12FF0E0ED52FA4F84E08083DF91CF91B0
:1011A0001F910F91FF9008951F93CF93DF9310E04D
:1011B000C5E5D1E00E948205813021F48091E606E8
:1011C000880F06C0823039F48091E606880F8F5F61
:1011D0008093E6061F5F0E94F81900D000D000D06F
:1011E000EDB7FEB73196ADB7BEB71296DC93CE938E
:1011F00011978091E60682831382148315820E94E0
:1012000068368DB79EB706960FB6F8949EBF0FBE90
:101210008DBF84EF91E00E943721143058F2809105
:10122000E6068093E706DF91CF911F9108951F9303
:10123000CF93DF9310E0CDE7D1E00E9482058130AB
:1012400021F48091E405880F06C0823041F480913A
:10125000E405880F8F5F8093E4051F5F02C0882339
:10126000F1F00E94F81900D000D000D0EDB7FEB721
:101270003196ADB7BEB71296DC93CE93119780919D
:10128000E40582831382148315820E9468368DB729
:101290009EB706960FB6F8949EBF0FBE8DBF84EF23
:1012A00091E00E943721123040F20E94F81980919B
:1012B000E405813051F0813028F0823049F08330EC
:1012C00071F409C08CEA91E008C08EEC91E005C091
:1012D0008FEE91E002C081E192E00E947A36809127
:1012E000E4058093E30584EF91E00E943721DF91CC
:1012F000CF911F9108952F923F924F925F926F92DC
:101300007F928F929F92AF92BF92CF92DF92EF9295
:10131000FF920F931F93DF93CF93CDB7DEB7A097C4
:101320000FB6F894DEBF0FBECDBF2B013C012D835D
:101330003E834F835887E986FA860B871C87AD86E4
:10134000BE86CF86D88A282C3324CA01B90120E072
:1013500030E040E050E00E94632E181614F433246D
:1013600033946D817E818F8198852CED38EB48E038
:101370005EE30E94182D0E94802D9B0177FF03C021
:10138000309521953F4FB901882777FD8095982F9B
:101390000E94B32D69837A838B839C8369857A85C8
:1013A0008B859C852CED38EB48E05EE30E94182D80
:1013B0000E94802D9B0177FF03C0309521953F4F00
:1013C000B901882777FD8095982F0E94B32D4B0196
:1013D0005C016D857E858F8598892CED38EB48E022
:1013E0005EE30E94182D0E94802D9B0177FF03C0B1
:1013F000309521953F4FB901882777FD8095982F2B
:101400000E94B32D6B017C01C301B20120E030E0EA
:1014100040E05FE40E94142D8823A1F569817A8160
:101420008B819C810E94852D2B013C01C501B4015B
:101430000E94852D4B015C01C701B6010E94852DDC
:101440006B017C012DB73EB7295030400FB6F894A0
:101450003EBF0FBE2DBFEDB7FEB73196ADB7BEB7DD
:1014600012965C924E921197938282827583648366
:1014700026821086178281E062E0432D920184016A
:101480007601C1C1C301B20120E030E040E050E08C
:101490000E94142D8823E9F569817A818B819C81D2
:1014A0000E94852D3B01C501B4010E94852D8B0151
:1014B000C701B6010E94852D7B012DB73EB729508B
:1014C00030400FB6F8943EBF0FBE2DBFEDB7FEB74C
:1014D000319640E0332009F441E071826082138349
:1014E0000283F582E48226821086178281E062E020
:1014F0009301C22CAA24BB24832C0E943D1D81E0B1
:10150000ADB7BEB719960FB6F894BEBF0FBEADBF4C
:1015100089C1C301B20120E030E040E050E00E9408
:10152000632E18160CF0B1C066E676E68AEA91ECF6
:10153000A30192010E94182D20E030E040E85FE313
:101540000E94B02C7B018C0166E676E68AEA91E483
:10155000A30192010E94182D20E030E040E85FE3F3
:101560000E94B02C5B016C01EDB7FEB739970FB646
:10157000F894FEBF0FBEEDBF8DB69EB60894811CD9
:10158000911C6D817E818F819885A80197010E94B1
:10159000A12E2CED38EB48E05EE30E94182D0E944E
:1015A000852D698B7A8B8B8B9C8B69857A858B8556
:1015B0009C85A80197010E94A12E2CED38EB48E0F4
:1015C0005EE30E94182D0E94852D6D8B7E8B8F8B84
:1015D000988F6D857E858F859889A80197010E94D7
:1015E000A12E2CED38EB48E05EE30E94182D0E94FE
:1015F000852D2B013C016D817E818F819885A6010F
:1016000095010E94A12E2CED38EB48E05EE30E948C
:10161000182D0E94852DD4016D937C9369857A8560
:101620008B859C85A60195010E94A12E2CED38EB9F
:1016300048E05EE30E94182D0E94852DF40173831B
:1016400062836D857E858F859889A60195010E94AC
:10165000A12E2CED38EB48E05EE30E94182D0E948D
:10166000852DD40115967C936E93149716962C9223
:10167000169718961C921E92179781E062E0432DF0
:1016800029893A890D891E89BDC0C301B20120E0B4
:1016900030E040E050E00E94142D87FD02C080E061
:1016A000C1C066E676E68AEA91E4A30192010E944F
:1016B000182D20E030E040E85FE30E94B02C7B0171
:1016C0008C0166E676E68AEA91ECA30192010E941B
:1016D000182D20E030E040E85FE30E94B02C5B0171
:1016E0006C012DB73EB7295030400FB6F8943EBF7D
:1016F0000FBE2DBF8DB69EB60894811C911C6D81C6
:101700007E818F819885A80197010E94A12E2CEDE2
:1017100038EB48E05EE30E94182D0E94852D698F0A
:101720007A8F8B8F9C8F69857A858B859C85A801A4
:1017300097010E94A12E2CED38EB48E05EE30E9459
:10174000182D0E94852D6D8F7E8F8F8F98A36D85AC
:101750007E858F859889A80197010E94A12E2CED86
:1017600038EB48E05EE30E94182D0E94852D2B0186
:101770003C016D817E818F819885A60195010E9433
:10178000A12E2CED38EB48E05EE30E94182D0E945C
:10179000852DD4016D937C9369857A858B859C8595
:1017A000A60195010E94A12E2CED38EB48E05EE3E6
:1017B0000E94182D0E94852DF401738362836D852C
:1017C0007E858F859889A60195010E94A12E2CED1A
:1017D00038EB48E05EE30E94182D0E94852DD4016D
:1017E00015967C936E93149716962C9216971896CE
:1017F0001C921E92179781E062E0432D298D3A8D4D
:101800000D8D1E8D7201C22CAA24BB24832C0E9434
:101810003D1D81E0EDB7FEB739960FB6F894FEBFD7
:101820000FBEEDBFA0960FB6F894DEBF0FBECDBFC2
:10183000CF91DF911F910F91FF90EF90DF90CF90AC
:10184000BF90AF909F908F907F906F905F904F90E0
:101850003F902F9008952F923F924F925F926F92F8
:101860007F928F929F92AF92BF92CF92DF92EF9230
:10187000FF920F931F93DF93CF93CDB7DEB7A0975F
:101880000FB6F894DEBF0FBECDBF2B013C012D83F8
:101890003E834F835887E986FA860B871C87AD867F
:1018A000BE86CF86D88A282C3324CA01B90120E00D
:1018B00030E040E050E00E94632E181614F4332408
:1018C00033946D817E818F8198852CED38EB48E0D3
:1018D0005EE30E94182D0E94802D9B0177FF03C0BC
:1018E000309521953F4FB901882777FD8095982F36
:1018F0000E94B32D69837A838B839C8369857A8563
:101900008B859C852CED38EB48E05EE30E94182D1A
:101910000E94802D9B0177FF03C0309521953F4F9A
:10192000B901882777FD8095982F0E94B32D4B0130
:101930005C016D857E858F8598892CED38EB48E0BC
:101940005EE30E94182D0E94802D9B0177FF03C04B
:10195000309521953F4FB901882777FD8095982FC5
:101960000E94B32D6B017C01C301B20120E030E085
:1019700040E05FE40E94142D8823A1F569817A81FB
:101980008B819C810E94852D2B013C01C501B401F6
:101990000E94852D4B015C01C701B6010E94852D77
:1019A0006B017C012DB73EB7295030400FB6F8943B
:1019B0003EBF0FBE2DBFEDB7FEB73196ADB7BEB778
:1019C00012965C924E921197938282827583648301
:1019D00026821086178280E062E0432D9201840106
:1019E0007601C1C1C301B20120E030E040E050E027
:1019F0000E94142D8823E9F569817A818B819C816D
:101A00000E94852D3B01C501B4010E94852D8B01EB
:101A1000C701B6010E94852D7B012DB73EB7295025
:101A200030400FB6F8943EBF0FBE2DBFEDB7FEB7E6
:101A3000319640E0332009F441E0718260821383E3
:101A40000283F582E48226821086178280E062E0BB
:101A50009301C22CAA24BB24832C0E943D1D81E04B
:101A6000ADB7BEB719960FB6F894BEBF0FBEADBFE7
:101A700089C1C301B20120E030E040E050E00E94A3
:101A8000632E18160CF0B1C066E676E68AEA91EC91
:101A9000A30192010E94182D20E030E040E85FE3AE
:101AA0000E94B02C7B018C0166E676E68AEA91E41E
:101AB000A30192010E94182D20E030E040E85FE38E
:101AC0000E94B02C5B016C01EDB7FEB739970FB6E1
:101AD000F894FEBF0FBEEDBF8DB69EB60894811C74
:101AE000911C6D817E818F819885A80197010E944C
:101AF000A12E2CED38EB48E05EE30E94182D0E94E9
:101B0000852D698B7A8B8B8B9C8B69857A858B85F0
:101B10009C85A80197010E94A12E2CED38EB48E08E
:101B20005EE30E94182D0E94852D6D8B7E8B8F8B1E
:101B3000988F6D857E858F859889A80197010E9471
:101B4000A12E2CED38EB48E05EE30E94182D0E9498
:101B5000852D2B013C016D817E818F819885A601A9
:101B600095010E94A12E2CED38EB48E05EE30E9427
:101B7000182D0E94852DD4016D937C9369857A85FB
:101B80008B859C85A60195010E94A12E2CED38EB3A
:101B900048E05EE30E94182D0E94852DF4017383B6
:101BA00062836D857E858F859889A60195010E9447
:101BB000A12E2CED38EB48E05EE30E94182D0E9428
:101BC000852DD40115967C936E93149716962C92BE
:101BD000169718961C921E92179780E062E0432D8C
:101BE00029893A890D891E89BDC0C301B20120E04F
:101BF00030E040E050E00E94142D87FD02C080E0FC
:101C0000C1C066E676E68AEA91E4A30192010E94E9
:101C1000182D20E030E040E85FE30E94B02C7B010B
:101C20008C0166E676E68AEA91ECA30192010E94B5
:101C3000182D20E030E040E85FE30E94B02C5B010B
:101C40006C012DB73EB7295030400FB6F8943EBF17
:101C50000FBE2DBF8DB69EB60894811C911C6D8160
:101C60007E818F819885A80197010E94A12E2CED7D
:101C700038EB48E05EE30E94182D0E94852D698FA5
:101C80007A8F8B8F9C8F69857A858B859C85A8013F
:101C900097010E94A12E2CED38EB48E05EE30E94F4
:101CA000182D0E94852D6D8F7E8F8F8F98A36D8547
:101CB0007E858F859889A80197010E94A12E2CED21
:101CC00038EB48E05EE30E94182D0E94852D2B0121
:101CD0003C016D817E818F819885A60195010E94CE
:101CE000A12E2CED38EB48E05EE30E94182D0E94F7
:101CF000852DD4016D937C9369857A858B859C8530
:101D0000A60195010E94A12E2CED38EB48E05EE380
:101D10000E94182D0E94852DF401738362836D85C6
:101D20007E858F859889A60195010E94A12E2CEDB4
:101D300038EB48E05EE30E94182D0E94852DD40107
:101D400015967C936E93149716962C921697189668
:101D50001C921E92179780E062E0432D298D3A8DE8
:101D60000D8D1E8D7201C22CAA24BB24832C0E94CF
:101D70003D1D81E0EDB7FEB739960FB6F894FEBF72
:101D80000FBEEDBFA0960FB6F894DEBF0FBECDBF5D
:101D9000CF91DF911F910F91FF90EF90DF90CF9047
:101DA000BF90AF909F908F907F906F905F904F907B
:101DB0003F902F9008958F92AF92BF92CF92EF9263
:101DC000FF920F931F936093CF057093D00580937C
:101DD000D1059093D2050E94852D8B019C018DB772
:101DE0009EB709970FB6F8949EBF0FBE8DBFEDB793
:101DF000FEB73196ADB7BEB712961C930E931197EE
:101E000084EF91E093838283958384831682108686
:101E1000178281E062E041E0980104EF11E094EF65
:101E2000E92E91E0F92ECC24AA24BB2488248394A3
:101E30000E943D1D8DB79EB709960FB6F8949EBFC0
:101E40000FBE8DBF1F910F91FF90EF90CF90BF906D
:101E5000AF908F9008950E946920282F21702093C1
:101E6000E80690E082709070959587958093E906DA
:101E700008950E9458056093DF057093E0058093F4
:101E8000E1059093E2050E946D05609377077093DA
:101E900078078093790790937A0708950E94EF045A
:101EA00060934705709348058093490590934A05D0
:101EB0000E94CC04609351057093520580935305A2
:101EC000909354050E9435056093EA067093EB06E3
:101ED0008093EC069093ED060E9412056093EE0647
:101EE0007093EF068093F0069093F1060895CF92D9
:101EF000DF92EF92FF920F931F93CF93DF93162FF2
:101F0000E42E5FE1F52EF8221F770F2D069506953A
:101F10000695C02FD0E0C12EDD24CE01B6010E946F
:101F2000BE1A802F612F0E94B71AFE0145E0EE0F06
:101F3000FF1F4A95E1F72F2D30E0EE2089F0EC0DE0
:101F4000FD1DEE59F94F2770307081E090E002C01E
:101F5000880F991F2A95E2F72081282B208311C032
:101F6000EC0DFD1DEE59F94F2770307081E090E0C7
:101F700002C0880F991F2A95E2F78095208182235D
:101F8000808335E0CC0FDD1F3A95E1F7CC0DDD1DE8
:101F9000CE59D94F888161E00E94D71ADF91CF9145
:101FA0001F910F91FF90EF90DF90CF9008957F9257
:101FB0008F929F92AF92BF92CF92DF92EF92FF9259
:101FC0000F931F93982EB62EC42EA22E802E7E2CF9
:101FD000BB0CBB0CBB0CDD2423E0CC0CDD1C2A9518
:101FE000E1F71C2D0FE10B19802F6C2D41E00E94B1
:101FF000770F98E1E92EEB188E2D6C2D41E00E94B1
:10200000770F87E0F82EFC0C802F6F2D41E00E94A7
:10201000770F8E2D6F2D41E00E94770FC92C93FE14
:1020200024C0612F6F5F802F41E00E94770F612FE6
:102030006E5F802F41E00E94770F612F6D5F802FD0
:1020400041E00E94770F612F6C5F802F41E00E947A
:10205000770F612F6B5F802F41E00E94770F612F18
:102060006A5F802F41E00E94770FC2FE25C08B2D52
:102070008095815E6F2D41E00E94770F8DE18B1975
:102080006F2D41E00E94770F8CE18B196F2D41E09D
:102090000E94770F8BE18B196F2D41E00E94770F23
:1020A0008AE18B196F2D41E00E94770F89E18B192E
:1020B0006F2D41E00E94770FC1FE24C0612F6F5F3A
:1020C0008E2D41E00E94770F612F6E5F8E2D41E0D3
:1020D0000E94770F612F6D5F8E2D41E00E94770F78
:1020E000612F6C5F8E2D41E00E94770F612F6B5F37
:1020F0008E2D41E00E94770F612F6A5F8E2D41E0A7
:102100000E94770FC0FE25C08B2D8095815E612FC8
:1021100041E00E94770F8DE18B19612F41E00E9411
:10212000770F8CE18B19612F41E00E94770F8BE1D3
:102130008B19612F41E00E94770F8AE18B19612F83
:1021400041E00E94770F89E18B19612F41E00E94E5
:10215000770FAA20E1F1BCE1EB2EEB18A3E0CA2E29
:10216000C10E8E2D6C2D4A2D0E94770FFBE1FF2EA4
:10217000FB188F2D6C2D4A2D0E94770F012F0C5FBD
:102180008E2D602F4A2D0E94770F8F2D602F4A2DA4
:102190000E94770F81E0881671F0881640F082E087
:1021A000881661F083E0881609F04AC00BC08DE103
:1021B0008B196C2D0AC01B5F8E2D06C08AE18B190E
:1021C000602F03C01E5F8F2D612F4A2D37C07720EF
:1021D000B9F1ECE1CE2ECB1873E0E72EE10E8C2D99
:1021E0006E2D40E00E94770F0BE10B19802F6E2DB2
:1021F00040E00E94770F64E0F62EF10E8C2D6F2DDB
:1022000040E00E94770F802F6F2D40E00E94770FF3
:102210008DE18B196E2D40E00E94770F1B5F8C2D96
:10222000612F40E00E94770F8AE18B196F2D40E00B
:102230000E94770F1350802F612F40E00E94770F8C
:102240001F910F91FF90EF90DF90CF90BF90AF90D4
:102250009F908F907F9008959F92AF92BF92CF9260
:10226000DF92EF92FF920F931F93CF93DF93982EFD
:102270008091E606A82EA694A69443E0B42EB82238
:10228000CC24DD241EC08881FA1419F020E030E04F
:1022900006C020E030E01B1511F421E030E06F2D86
:1022A000412F0091E405E92C0E94D70F1F5F219672
:1022B000143049F70894C11CD11C84E0C816D1041D
:1022C00051F0FC2CE601CC0FDD1FCC0FDD1FCC53F1
:1022D000DC4F10E0D8CFDF91CF911F910F91FF908D
:1022E000EF90DF90CF90BF90AF909F90089588239C
:1022F00091F080E090E0A0E0B0E08093CF05909373
:10230000D005A093D105B093D20582E060E070E0E3
:102310000E94C01E17C00E94751C6093E206709355
:10232000E3068093E4069093E50640E08091E4069E
:102330009091E5062091E2063091E306820F931F0B
:10234000892B09F441E0842F08955F926F927F9268
:102350008F929F92AF92BF92CF92DF92EF92FF92B5
:102360000F931F93CF93DF93E0904705F0904805BC
:102370000091490510914A05C801B70120E030E0FD
:1023800040E251E40E94142D181614F081E01BC1A4
:102390005524C801B70120E030E040E050E00E9441
:1023A000142D882314F455245394A090EE06B09075
:1023B000EF06C090F006D090F1066090EA067090AB
:1023C000EB068090EC069090ED06552041F560916B
:1023D000510570915205809153059091540520E06C
:1023E00030E040E251E40E94142D87FD18C0C60180
:1023F000B50120E030E040E551E40E94142D87FD56
:102400000EC0C401B30120E030E040E551E40E9479
:10241000142D87FD04C082E064EF71E0CFC0C601D7
:10242000B50120E030E040E551E40E94632E18162B
:1024300064F480E090E0A0E5B1E48093EE06909330
:10244000EF06A093F006B093F106C401B30120E0BB
:1024500030E040E551E40E94632E181614F080E04D
:102460000DC080E090E0A0E5B1E48093EA0690938F
:10247000EB06A093EC06B093ED0681E0552021F128
:10248000882329F060E070E08AE794E404C060E00B
:1024900070E08AE794ECA80197010E94182D209122
:1024A000EA063091EB064091EC065091ED060E9451
:1024B000B02C9B01AC016091EE067091EF0680910B
:1024C000F0069091F10610C06091EE067091EF0653
:1024D0008091F0069091F1062091EA063091EB068A
:1024E0004091EC065091ED060E94AF2CE62F2E2F66
:1024F000372F482F592FB901CA0140E00E94A10788
:102500007B018C010E94802DEB0177FF03C0D095E9
:10251000C195DF4FC536D105FCF0C801B70120E0F9
:1025200030E040E050E00E94142D8823A9F0BE0165
:10253000882777FD8095982F0E94B32D9B01AC01D1
:10254000C801B7010E94182D20E030E048EC52E4A9
:102550000E94A12E7B018C01C801B70120E030E070
:1025600048EC52E40E94182D7B018C0120E030E001
:102570004AE753E40E94A12E20E030E04AE753E40A
:102580000E94B02C0E94852D9B01AC0180E0B90116
:102590000E949E1EC801B70120E030E04AE753ECDC
:1025A0000E94A12E20E030E04AE753E40E94B02CC4
:1025B0000E94852D9B01AC0181E0B9010E949E1E05
:1025C00080E00E947711DF91CF911F910F91FF90D2
:1025D000EF90DF90CF90BF90AF909F908F907F90C3
:1025E0006F905F9008950E94E8209093CC048093B0
:1025F000CB040E94FE1A9093CA048093C9040E94DF
:10260000151A9093C8048093C7040E94E41D81E0CA
:102610000E941B1C0E94FE1A0E9442220E948219E4
:1026200081E00E94E4190E944E0F81E00E940A0698
:102630008FEE90E0A5E8B1E48093CF059093D005AC
:10264000A093D105B093D20520E030E00AC01192EA
:10265000019680329105D9F72F5F3F4F2430310525
:1026600059F0F90155E0EE0FFF1F5A95E1F7EE59C9
:10267000F94F80E090E0EBCF08950895482F4695FC
:102680004695582F5370A42FB0E0252F30E0FD0160
:10269000EE0FFF1FEE0FFF1FE20FF31FE05CFB4F7B
:1026A0008081882311F481E00895E42FE150E43023
:1026B00080F4F0E0EE0FFF1FEE0FFF1FE20FF31F9D
:1026C000E05CFB4FE081E43620F41092E5059E2F9C
:1026D00001C094E6842F8F5F843088F4E82FF0E007
:1026E000EE0FFF1FEE0FFF1FE20FF31FE05CFB4F2B
:1026F000E081E91720F482E08093E5059E2F852F85
:102700008F5F843081F0FD01EE0FFF1FEE0FFF1F82
:10271000E80FF11DE05CFB4FE081E91720F481E058
:102720008093E5059E2F852F8150843080F4AA0F79
:10273000BB1FAA0FBB1FA80FB11DA05CBB4F8C9184
:10274000891728F483E08093E50580E0089580E010
:102750000895BF92CF92DF92EF92FF920F931F9353
:10276000CF93DF9380915505282F30E02370307090
:102770008695869590E0CC27DD27C81BD90B00E015
:1027800010E0CC24DD24C21AD30AF3E6BF2E25C004
:102790008C918F3011F4B08211C09A0157FF04C0A0
:1027A00022273327241B350B229FC001239F900D26
:1027B000329F900D11248E0D9F1D80836F5F7F4F80
:1027C000119631964F5F5F4F6430710509F70F5FC7
:1027D0001F4F219604301105E9F0CE01D7FF04C048
:1027E000882799278C1B9D0B889F7001899FF00C6F
:1027F000989FF00C1124C801880F991F880F991F0A
:10280000DC01AC53BC4FFC01E05CFB4FA60160E077
:1028100070E0BECFDF91CF911F910F91FF90EF90AD
:10282000DF90CF90BF9008951F931091E60680919E
:102830004F056091E40540E00E940008E12FE69515
:10284000E695F0E0EE0FFF1FEE0FFF1F1370E10F94
:10285000F11DEC53FC4F80831F910895EF92FF927E
:102860000F931F930091E606102F1695169583E09F
:10287000E82EE022E12FF0E0EE0FFF1FEE0FFF1F2A
:10288000EE0DF11DEC53FC4FF08080914F056091EF
:10289000E40540E00E9400088F15E9F08F258230A2
:1028A00061F0833018F48130B1F405C0843069F0F0
:1028B000883089F40EC0015009C01F5F110F110F3D
:1028C0001E0D1093760781E007C00F5F0093760717
:1028D000FACF1150F3CF80E01F910F91FF90EF904E
:1028E0000895FF920F931F93142F082F06950695B6
:1028F00093E0F92EF822623031F06330A9F06130B4
:10290000B1F4115012C0413049F0413028F042304A
:1029100039F04330B9F406C0015014C0F39412C02A
:102920000F5F10C0FA940EC01F5F13700BC000D071
:1029300082E592E0EDB7FEB7928381830E9468360C
:102940000F900F901093E405000F000F802F8F0D54
:102950001F910F91FF900895DF92EF92FF920F93D6
:102960001F93182F062FFF2490E02BC0153088F5F9
:10297000053078F5EF2DF0E0E05DFB4FD580E28487
:1029800080816E2D40E00E940008E12FF0E0EE0F04
:10299000FF1FEE0FFF1FE00FF11DEC53FC4F908166
:1029A0008917B9F4110F110F812F800F6D2D4E2D46
:1029B0000E947114982F182F16951695082F0370E2
:1029C000F39480913F04F81688F29093E60681E034
:1029D00001C080E01F910F91FF90EF90DF9008956C
:1029E00080914F0580FD02C081E005C083FD02C0DB
:1029F00082E001C083E08093CD048091CE048130D9
:102A000029F0813038F0843028F40FC082E08093C0
:102A1000CD040BC000D08BE592E0EDB7FEB79283FA
:102A200081830E9468360F900F908091CD0480932F
:102A3000CE04089580913F04853080F0E0E3F4E017
:102A4000818180838681858383858287319684E036
:102A5000E533F807A9F784E080933F040E94F0145F
:102A6000E0913F04F0E0E05DFB4F80914F058083F3
:102A70009091CD0495838091E40582879230B1F0E6
:102A8000933021F0913039F4815001C08F5F837011
:102A90008093E4050BC000D084E692E0EDB7FEB76A
:102AA000928381830E9468360F900F9080913F043B
:102AB0008F5F80933F0408959091E405913091F0E9
:102AC000913028F09230D9F09330C1F523C0809135
:102AD000E505813091F0813068F1823049F1833031
:102AE00069F526C08091E505813021F18130E8F05B
:102AF000823019F0833011F518C083E01CC080913A
:102B0000E5058130C1F0813098F08230A1F083304A
:102B1000A9F411C08091E505813069F0813028F079
:102B2000823031F0833051F405C09093CD04089584
:102B300081E001C082E08093CD04089500D08DE64D
:102B400092E0EDB7FEB7928381830E9468360F90C2
:102B50000F900895CF92DF92EF92FF920F931F9301
:102B6000DF93CF930F92CDB7DEB78091E606F82EB4
:102B7000F694F694982F93700091E405CC24DD240C
:102B8000F601ED52FA4F1081EF2DF0E0EE0FFF1F2E
:102B9000EE0FFF1FE90FF11DEC53FC4F8081602FFA
:102BA00041E099830E940008F601E659F84F8083BE
:102BB0009981123089F4013049F0013028F0023057
:102BC00039F0033089F406C0FA940EC09F5F0CC040
:102BD000F3940AC0915008C0133011F40F5F03C082
:102BE000113011F4015003700894C11CD11C8DE008
:102BF000C816D10429F6CC24DD2496E7E92E92E00C
:102C0000F92EF601E659F84F00810E94F819202F9D
:102C100030E0ADB7BEB754970FB6F894BEBF0FBE45
:102C2000ADBFEDB7FEB731961296FC92EE921197BA
:102C3000D382C282112707FD10950027110F001FB4
:102C4000112715830483C901B6E096958795BA9537
:102C5000E1F78170907097838683C901A5E096950E
:102C60008795AA95E1F78170907091878087C90157
:102C700074E0969587957A95E1F7817090709387C7
:102C80008287C90163E0969587956A95E1F781701F
:102C9000907095878487C9019695879596958795B5
:102CA0008170907097878687C90196958795817006
:102CB0009070918B808B21703070338B228B0E94AF
:102CC0006836EDB7FEB774960FB6F894FEBF0FBE28
:102CD000EDBF88EE93E00E9437210894C11CD11CFF
:102CE000FDE0CF16D10409F08CCF0F90CF91DF918A
:102CF0001F910F91FF90EF90DF90CF9008958F92EA
:102D0000AF92BF92CF92DF92EF92FF920F931F93F9
:102D100060E070E080E090E041E00E94A1078091D7
:102D2000CD04823069F08330C1F08130D1F560E0AC
:102D300070E080E090E020E030E044E851EC15C025
:102D400060E070E08AEA93E40E94DB0E0E944E0F7E
:102D50000E94A5118823D1F317C060E070E080E0E5
:102D600090E020E030E044E851E40F2EF0E0EF2E58
:102D7000F0E0FF2EF0EF0F2FF1E41F2FF02D5701A1
:102D8000680188240E942B0C82E061E00E94671F8A
:102D900082E390E00E94372182E060E00E94671F9A
:102DA0000BC000D084E692E0EDB7FEB7928381833A
:102DB0000E9468360F900F901F910F91FF90EF9037
:102DC000DF90CF90BF90AF908F900895CF92DF9219
:102DD000EF92FF920F931F93DF93CF930F92CDB794
:102DE000DEB7E090300410927E0700E010E01CC0D7
:102DF000F6018081E81669F48F2D692F99830E946E
:102E0000AC149981882329F080917E078F5F80938D
:102E10007E079F5F0894C11CD11C943049F70F5F57
:102E20001F4F0430110561F0F02E6801CC0CDD1C41
:102E3000CC0CDD1C84EC93E0C80ED91E90E0D8CFFA
:102E400064EF71E080E090E048EE53E022E330E090
:102E50000E94281C10E00BC068EE73E080E090E058
:102E600048EE53E022E330E00E94281C1F5F90915F
:102E70007E07191788F380E0913009F081E00F9008
:102E8000CF91DF911F910F91FF90EF90DF90CF9046
:102E90000895EF92FF920F931F93CF93DF9381E0FA
:102EA00080937F07E8E9EE2EE2E0FE2E22C10E9429
:102EB0004E0F0E9415080E9414140E94F0140E94E4
:102EC0007F168091E6066091CD044091E4050E9452
:102ED00071148093E6069091E706981741F420E07C
:102EE00030E09091E3058091E405981711F021E01E
:102EF00030E020937F07222309F400C10E94F819D3
:102F00008091CD04282F30E06091E606462F50E0F6
:102F10000091E405A02FB0E0CDB7DEB7E2970FB681
:102F2000F894DEBF0FBECDBFEDB7FEB73196FA8283
:102F3000E982992787FD90958827990F881F9927FF
:102F400093838283C90116E0969587951A95E1F7D8
:102F50008170907095838483C90175E096958795FB
:102F60007A95E1F78170907097838683C90114E0A8
:102F7000969587951A95E1F7817090709187808773
:102F8000C90173E0969587957A95E1F78170907005
:102F900093878287C90196958795969587958170C5
:102FA000907095878487C9019695879581709070F8
:102FB0009787868721703070318B208B772767FD4C
:102FC00070956627770F661F7727738B628BCA0110
:102FD00026E0969587952A95E1F781709070958BFC
:102FE000848BCA0115E0969587951A95E1F7817053
:102FF0009070978B868BCA0174E0969587957A9529
:10300000E1F781709070918F808FCA0163E096958F
:1030100087956A95E1F781709070938F828FCA01CE
:10302000969587959695879581709070958F848FEA
:10303000CA019695879581709070978F868F4170A1
:10304000507051A340A3112707FD10950027110FC1
:10305000001F112713A302A3CD0106E096958795C3
:103060000A95E1F78170907095A384A3CD0115E0D6
:10307000969587951A95E1F78170907097A386A32E
:10308000CD0174E0969587957A95E1F781709070FF
:1030900091A780A7CD0163E0969587956A95E1F7A2
:1030A0008170907093A782A7CD019695879596958C
:1030B00087958170907095A784A7CD019695879587
:1030C0008170907097A786A7A170B070B1ABA0ABCC
:1030D0000E946836EDB7FEB7F2960FB6F894FEBFC1
:1030E0000FBEEDBF81E00E942C1184EF91E00E94A1
:1030F000372180917F07882309F0D9CEDF91CF91C6
:103100001F910F91FF90EF9008950E94A9131092C4
:103110007B075AC00E94F8198091E405813051F074
:10312000813028F0823049F0833071F409C08BEE91
:1031300092E008C08BEF92E005C08AE093E002C005
:103140008AE193E00E947A368091E6060E943E135F
:1031500080937B078823E9F58091E505813051F064
:10316000813028F0823049F0833071F409C089E25F
:1031700093E008C089E393E005C088E493E002C0CF
:1031800088E593E00E947A368091CD04823051F038
:10319000833029F0813051F487E693E005C084E75D
:1031A00093E002C082E893E00E947A360E945C15A8
:1031B0000E947F168091E6066091CD044091E4055F
:1031C0000E9471148093E60680917B07882309F49E
:1031D000A1CF0895CF93DF930E94F3120E94F819B4
:1031E00082E993E00E947A3681E00E942C1188EEF9
:1031F00093E00E9437210E94F81981E080937C07B8
:103200001092E40584E08093CE041092E6061092BA
:103210007D071BC00E944E0F0E9415080E942E14AD
:1032200080937D07882319F0C0E0D0E013C00E948E
:10323000F0148091E6066091CD044091E4050E946F
:1032400071148093E6060E947F1680917D07882383
:1032500009F3EACF6AEF70E080E090E00E94731B10
:1032600088EE93E00E94372164EF71E080E090E007
:103270000E94731B88EE93E00E9437212196C43090
:10328000D10541F760E070E080E090E00E94731BA0
:103290000E94851882E060E00E94671F64EF71E081
:1032A00080E090E00E94731B88EB9BE00E94372136
:1032B00060E070E080E090E00E94731B0E94F819CB
:1032C00000D000D0EDB7FEB7319683EA93E0ADB7FA
:1032D000BEB712969C938E93119780917607828346
:1032E00013820E9468360F900F900F900F9082E02B
:1032F00060E00E94671F80E197E20E943721DF9122
:10330000CF9108958FE00E94DA1F882331F40E9444
:1033100069228FE061E00E9422208FE091E0089511
:103320008FE00E94DA1F813019F020E030E013C0F6
:1033300080917A00806480937A0080917A0086FD83
:10334000FCCF3091780020917900922F80E0232FDC
:1033500030E0282B392BC9010895582F8091D403D0
:103360008830D8F440917E0021E030E0B90102C0FD
:10337000660F771F8A95E2F7CB01809584238093AF
:103380007E0080917E00052E02C0220F331F0A941A
:10339000E2F7822B80937E000DC020917E0081E0B9
:1033A00090E0052E02C0880F991F0A94E2F7282B9F
:1033B00020937E005093D40380917C005F71807EC7
:1033C000852B80937C000895ECE7F0E09081829556
:1033D000880F880F807C9F73982B908308950E949C
:1033E00082220E9474220E94EA1880E090E00895F0
:1033F0000F931F9380E460E00E94D71A00E0802FB3
:1034000060E00E94BE1A10E080E061E00E94D71ADE
:103410001F5F1038C9F70F5F043089F783E060E061
:103420000E94B71A1F910F9108950F931F9382E086
:103430000E94DA1F882311F482E006C081E00E9416
:10344000DA1F882319F481E090E06DC00E94EA241D
:1034500085E061E00E9422208EEA60E00E94D71A97
:1034600082EA60E00E94D71A80EA60E00E94D71AE0
:1034700000E513ECC8010197F1F780EC60E00E94D1
:10348000D71A8FE260E00E94D71A81E860E00E94BC
:10349000D71A86E160E00E94D71A82E260E00E94BB
:1034A000D71AC8010197F1F78FEA60E00E94D71A96
:1034B00086EA60E00E94D71A85EA60E00E94D71A87
:1034C00080E090E028E833E1F9013197F1F70196C7
:1034D00043E0883E9407C1F783EB60E00E94D71A6F
:1034E00080E460E00E94D71A83E060E00E94BE1A88
:1034F00083E060E00E94B71A1092CE071092D007C6
:103500001092CF078BE194E09093FF078093FE0722
:1035100088E10E94961A0E94F81984EA60E00E94ED
:10352000D71A85E091E01F910F9108951F93182FEE
:1035300085E00E94DA1F8130C1F487E00E94131BEE
:1035400082E06AE00E94641B82E061EB0E94641BDF
:10355000612F113208F060E282E00E94641B89EE64
:103560008A95F1F787E00E94131B1F9108958370DD
:103570006F776093CC078093CD0708950F931F93C7
:10358000062F162F1F778370806B60E00E94D71A7A
:1035900012951F70812F806160E00E94D71A802FE2
:1035A0008F7060E00E94D71A1F910F9108950F93BA
:1035B0001F93082F162F85E00E94DA1F813079F4BF
:1035C000112319F0113021F402C02B9801C02B9A5D
:1035D00086E08A95F1F780E0602F0E94641B1F91BE
:1035E0000F9108951F93182F86E00E94DA1F8130F3
:1035F00019F4812F0E9499251F9108950E949E25FC
:1036000086E061E00E94222086E091E008951F9309
:10361000182F86E00E94DA1F813019F4812F0E9452
:10362000A1251F9108951F93182F82E00E94DA1F91
:10363000813009F047C0912F97708091D10798177A
:1036400009F440C09093D10785B1887F892B85B953
:10365000933011F1943028F4913051F0923090F47D
:103660000CC0953019F19530E0F0963021F50FC07F
:10367000E091B204F091B30422C0E091B004F09163
:10368000B1041DC0E091B404F091B50418C0E091FC
:10369000BC04F091BD0413C0E091B604F091B704EE
:1036A0000EC0E091B804F091B90409C0E091BA04E9
:1036B000F091BB0404C0E091BE04F091BF043097C8
:1036C00009F009951F9108951F93162F0E94131B4F
:1036D00082E00E94DA1F813021F41EBD0DB407FE86
:1036E000FDCF1F9108959B01AC0180915104882367
:1036F00081F0DA01C901880F991FAA1FBB1F90939F
:103700005D0480935C04211531054105510509F4E0
:103710005F9808950F931F93CF93DF9380E291E01A
:103720000E9449349C0190935F0480935E04892B2E
:1037300011F480E039C08901C0E0D0E0BE0180E032
:1037400090E00E94B12D20E030E040EA51E40E9478
:10375000182D27EF35E740E05FE30E94A12E9B0183
:10376000AC0160E070E080E291E40E94042F9B01D4
:10377000AC01CA01B9012DEC3CEC42E851E40E94D5
:10378000A12E0E94672E2AE030E040E050E00E9427
:10379000D133F80161937193819391938F012196B5
:1037A000C834D10559F681E0DF91CF911F910F9177
:1037B00008958AE00E94DA1F882371F410925B0456
:1037C00010925A0481E00E94DC2681E0809351042B
:1037D0008AE061E00E9422208AE091E008951F9330
:1037E0008BE00E94DA1F882311F090E021C089E06D
:1037F0000E94DA1F8823D9F40E948A1B182F813077
:10380000B1F4109252041092530410925404109286
:1038100055048DE06FE576E20E94C22482E00E94AA
:10382000DC261093500489E061E00E94222091E0A0
:1038300089E01F910895813029F0823031F090E0C5
:1038400089E008950E94D91B08950E94EF1B0895F6
:103850008F929F92AF92BF92CF92DF92EF92FF92A0
:103860000F931F93CF93DF934B015C01EA01B901E2
:103870002115310539F19E01442737FD4095542F1C
:103880006536710510F064E670E080E090E00E941B
:10389000D13324E630E040E050E00E94F03379017B
:1038A0008A01C501B4010E94731BC7010E94372120
:1038B00060E070E080E090E00E94731BCE018E1902
:1038C0009F0904C04115510519F0CA010E94372112
:1038D000DF91CF911F910F91FF90EF90DF90CF90EC
:1038E000BF90AF909F908F90089580919207909194
:1038F00093072091940730919507BC01C901089561
:103900002F923F924F925F926F927F928F929F92EF
:10391000AF92BF92CF92DF92EF92FF920F931F93DD
:10392000DF93CF93CDB7DEB7582E962E442E3901B4
:103930003C2CC98CDA8C2B8C81E0681739F1681724
:1039400028F092E0691709F085C049C080E061E085
:103950000E94891E80E0B7010E94521E80E0642D03
:10396000A3019801032DEE24E394E7EBCE2EE7E0CC
:10397000DE2E0E94DB1E552009F06CC000D00F9295
:10398000EDB7FEB71182B382A28223C081E061E06D
:103990000E94891E81E0B6010E94521E81E0682DBE
:1039A0004D895E892F89388D022DEE24E39477EBC3
:1039B000C72E77E0D72E0E94DB1E552009F04AC0A3
:1039C00000D00F92EDB7FEB791828C8D9D8D9383C1
:1039D00082830E948C1F0F900F900F903BC082E05B
:1039E00061E00E94891E80E0B7010E94521E81E0C2
:1039F000B6010E94521E80E0642DA3019801032DA0
:103A0000EE24E39497EBC92E97E0D92E0E94DB1E9B
:103A100081E0682D4D895E892F89388D022D0E94A5
:103A2000DB1E5520B9F400D000D00F92ADB7BEB761
:103A30001196EDB7FEB79182FD01B282A1828C8D05
:103A40009D8D948383830E948C1F0F900F900F9005
:103A50000F900F90CF91DF911F910F91FF90EF90FA
:103A6000DF90CF90BF90AF909F908F907F906F909E
:103A70005F904F903F902F9008956F927F928F921A
:103A80009F92AF92BF92CF92DF92EF92FF920F93ED
:103A90001F93DF93CF93CDB7DEB7942E7C2DD50146
:103AA00049895A89AB88BC88CD88DE889F89813056
:103AB00009F457C08130B8F1823009F076C0613026
:103AC00091F0613020F0623009F06FC015C080E0E5
:103AD00060E00E94891E80E0B7010E94521E80E0D3
:103AE000692DA8011DC081E060E00E94891E81E06F
:103AF000B6010E94521E11C082E060E00E94891E41
:103B000080E0B7010E94521E81E0B6010E94521E61
:103B100080E0692DA8010E943B1E81E0682DA5016F
:103B20000E943B1E42C0EDB7FEB739970FB6F8941E
:103B3000FEBF0FBEEDBF6DB67EB60894611C711C52
:103B400052834183F301B382A282D582C4829683D9
:103B5000888D998D9087878380E0492DC72E5D01E0
:103B60001AC0EDB7FEB739970FB6F894FEBF0FBE77
:103B7000EDBFADB7BEB7119652834183FD01B3824D
:103B8000A282D582C48296831086178281E0492D55
:103B9000C72EAA24BB240E94801C8DB79EB709960D
:103BA0000FB6F8949EBF0FBE8DBFCF91DF911F91CE
:103BB0000F91FF90EF90DF90CF90BF90AF909F90CC
:103BC0008F907F906F9008950E94212781E08093CD
:103BD000B607E0E8F7E01192119211821082329656
:103BE00011821082329611821082329611821082D6
:103BF0003296118210823296118210823296118290
:103C00001082329611821082329611821082329680
:103C100011821082329611821082329611821082A5
:103C2000369611921192119210823296119211923F
:103C30001192119211921192119211821082329668
:103C40001182108232961182108232961182108275
:103C50007697118210823296118210821092B507E7
:103C60001092B4071092B60787E061E00E9422200C
:103C700087E091E00895EF92FF920F931F93182F22
:103C8000062F7A0160E00E94891E812F602F0E941A
:103C9000741E812FB7010E949E1E1F910F91FF90ED
:103CA000EF900895482F81E08093B607CB0123E081
:103CB000693E720710F088EE93E0413071F04130B8
:103CC00018F0423071F405C090938B0780938A07F7
:103CD00008C090938B0780938A0790938D078093F9
:103CE0008C071092B6070895982F81E08093B6074D
:103CF000913051F0913018F0923041F403C060934C
:103D0000A30704C06093A3076093A4071092B607AB
:103D10000895982F81E08093B607913051F091304B
:103D200018F0923041F403C06093800704C06093A0
:103D30008007609381071092B6070895482F81E0AD
:103D40008093B607CB0121E06139720710F080E95A
:103D500091E0413071F0413018F0423071F405C00B
:103D6000909383078093820708C090938307809382
:103D7000820790938507809384071092B607089571
:103D8000982F81E08093B607913071F0913018F050
:103D9000923071F405C0709393076093920708C046
:103DA00070939307609392077093950760939407BD
:103DB0001092B60708958F929F92AF92BF92CF92C2
:103DC000DF92EF92FF920F931F93CF93DF93182F01
:103DD000F62E5A014901E60161E00E94891E812FF9
:103DE000B501A4010E944027812F6F2D0E94741EEF
:103DF000812F602F0E942B27812FB5010E94C01EAA
:103E0000C114D10499F0113049F0113018F012307A
:103E100069F406C018821092B20708C0198204C063
:103E2000188219821092B2071092B307D093B50787
:103E3000C093B407EE20B9F580E694E09093B507FF
:103E40008093B407812FB4010E949E1E812F0E948F
:103E50000C27113071F0113018F0123059F512C0E2
:103E6000109260041092B207809160048823E1F3FD
:103E700021C0109261041092B307809161048823DD
:103E8000E1F318C010926004109261041092B2071E
:103E90001092B307809160048823E1F3809161045C
:103EA0008823C1F307C0812FB4010E949E1E812F79
:103EB0000E940C27DF91CF911F910F91FF90EF90FF
:103EC000DF90CF90BF90AF909F908F9008950F9309
:103ED0001F93182F062F662349F460E070E00E94BC
:103EE0009E1E812F60E070E00E94C01E81E08093E2
:103EF000B607113051F0113018F0123041F403C000
:103F000000939E0704C000939E0700939F071092A2
:103F1000B6071F910F910895CF92DF92EF92FF9213
:103F20000F931F93DF93CF93CDB7DEB78B8581308F
:103F300061F0813018F08230A1F511C0EC85FD856B
:103F40008091B7078823E1F306C0EC85FD85809159
:103F5000B8078823E1F3309721F1099522C0CC847A
:103F6000DD84EE84FF8400E010E0002351F48091B2
:103F7000B707882331F0C114D10411F0F601099577
:103F800001E0112351F48091B807882331F0E11446
:103F9000F10411F0F701099511E0002331F3112329
:103FA00021F3CF91DF911F910F91FF90EF90DF9060
:103FB000CF900895E82FF0E0E331F10540F4E25CA2
:103FC000FF4FEE0FFF1F0590F491E02D099480E064
:103FD00008958091B90708958091BA070895809156
:103FE000BB0708958091BC0708958091BD0708958F
:103FF0008091BF0708958091BE0708958091C00702
:1040000008958091C10708958091C2070895809115
:10401000C30708958091C40708958091C507089546
:104020008091C60708958091C70708958091C807B9
:1040300008958091C90708958091CA0708958091D5
:10404000CB070895E82FF0E0E331F10508F040C018
:10405000EF5AFF4FEE0FFF1F0590F491E02D0994EA
:104060006093B90708956093BA0708956093BB07FA
:1040700008956093BC0708956093BD070895609309
:10408000BF0708956093BE0708956093C007089521
:104090006093C10708956093C20708956093C307B2
:1040A00008956093C40708956093C50708956093C9
:1040B000C60708956093C70708956093C8070895D9
:1040C0006093C90708956093CA0708956093C9076C
:1040D00008950F931F9381E00E94DA1F813011F041
:1040E00000E024C087E00E94131B82E06AE00E9487
:1040F000641B82E062EB0E94641B18EC812F8A959E
:10410000F1F782E060E00E944426082F812F8A9513
:10411000F1F782E060E00E9444261A95F1F787E00B
:104120000E94131B88E893E10197F1F7802F1F91FC
:104130000F9108951F93CF93DF93182F80916304FD
:10414000882341F080916D04882399F010926304D4
:1041500010926D040E9469208093620487E694E0C7
:1041600061E040E022E330E00E94582181E080934A
:10417000630490916204A12FB0E0ED01CB5EDB4FB0
:104180008881882369F0FD01E85EFB4F80819823D8
:10419000C1F0FD01EC59FB4F81E08083188211C012
:1041A000FD01EC59FB4F808181111082FD01E85E19
:1041B000FB4F8081982329F4FD01EB5EFB4F81E0EA
:1041C0008083AC59BB4F8C91DF91CF911F910895A3
:1041D00082E00E94DA1F882319F490E082E00895BB
:1041E0001092E7071092E6071092E9071092E8078D
:1041F0001092EB071092EA071092ED071092EC076D
:104200001092EF071092EE0780E991E09093D307A8
:104210008093D2079093D5078093D4079093D707C4
:104220008093D6079093D9078093D8079093DB07A4
:104230008093DA0784E398E09093DD078093DC07AE
:104240009093DF078093DE079093E1078093E00768
:104250009093E3078093E2079093E5078093E40748
:1042600081E061E00E94222091E081E00895DF93E7
:10427000CF93CDB7DEB729970FB6F894DEBF0FBE48
:10428000CDBF9C01CE01019661E040E00E94582123
:10429000982F882319F48F818823E9F3892F299691
:1042A0000FB6F894DEBF0FBECDBFCF91DF9108955A
:1042B000EF92FF920F931F93CF93DF93EC01F62EB3
:1042C000E42E890188E00E94DA1F813011F081E03C
:1042D00026C084E090E00E944934FC01009711F46C
:1042E00082E01DC0F982F0FC1E8281E0E81619F41C
:1042F0008981846089838981886089831B830A839B
:104300001D830C83D183C0831382128281E080934A
:10431000C004CF010E94A0271092C00480E0DF916A
:10432000CF911F910F91FF90EF900895FC01809124
:10433000F307813011F085E008958091F407813012
:1043400011F08AE00895613011F484EC01C084E832
:104350008093BC008091BC0087FFFCCF613031F4BA
:104360008091B900887F803559F405C08091B900EB
:10437000887F883529F48091BB00808380E0089590
:1043800082E00895982F8091F307813011F085E045
:1043900008958091F407813011F08AE00895909398
:1043A000BB0084E88093BC008091BC0087FFFCCFF9
:1043B0008091B90090E0887F90708832910521F05B
:1043C000C09721F483E0089580E008958CE008957B
:1043D000982F2091F307213011F085E00895809106
:1043E000F507813011F489E008952093F40784EAF9
:1043F0008093BC008091BC0087FFFCCF8091B90006
:10440000887F883039F08091B900887F803111F041
:1044100081E00895613019F4990F916003C066231B
:1044200019F4990F9093BB0084E88093BC008091AD
:10443000BC0087FFFCCF613031F48091B900887FE8
:10444000803441F409C0662339F48091B900887F33
:10445000883111F082E0089580E008958091F4079A
:10446000813011F08AE008958091F607813029F4B7
:1044700085E98093BC0080E0089584E98093BC00C6
:1044800080E0089582E10E94DA1F8823B1F410923F
:10449000F3071092F4071092F5071092F6071092A6
:1044A000F7070E943C2887E160E00E9460220E949A
:1044B000322882E161E00E94222082E190E00895AA
:1044C00063706093B9008093B80081E08093F30734
:1044D00008958FE180937C00EAE7F0E087E0808335
:1044E00080818068808308950E947D270E94A62590
:1044F0000E94D6240E9409280E940B260E94E820D0
:1045000078940895000008951F920F920FB60F92AD
:1045100011242F933F934F935F936F937F938F93C8
:104520009F93AF93BF93EF93FF93E0919004F0912B
:104530009104309709F00995FF91EF91BF91AF91E8
:104540009F918F917F916F915F914F913F912F91AB
:104550000F900FBE0F901F9018951F920F920FB6DD
:104560000F9211242F933F934F935F936F937F93F9
:104570008F939F93AF93BF93EF93FF93E091920438
:10458000F0919304309709F00995FF91EF91BF9155
:10459000AF919F918F917F916F915F914F913F91DB
:1045A0002F910F900FBE0F901F9018951F920F9292
:1045B0000FB60F9211242F933F934F935F936F93F6
:1045C0007F938F939F93AF93BF93EF93FF93E0916C
:1045D0009404F0919504309709F00995FF91EF91BB
:1045E000BF91AF919F918F917F916F915F914F910B
:1045F0003F912F910F900FBE0F901F9018951F9213
:104600000F920FB60F9211242F933F934F935F9306
:104610006F937F938F939F93AF93BF93EF93FF938A
:10462000E0918204F0918304309709F00995FF919D
:10463000EF91BF91AF919F918F917F916F915F911A
:104640004F913F912F910F900FBE0F901F90189593
:104650001F920F920FB60F9211242F933F934F93F7
:104660005F936F937F938F939F93AF93BF93EF93DA
:10467000FF93E0918404F0918504309709F0099547
:10468000FF91EF91BF91AF919F918F917F916F912A
:104690005F914F913F912F910F900FBE0F901F9000
:1046A00018951F920F920FB60F9211242F933F93DC
:1046B0004F935F936F937F938F939F93AF93BF932A
:1046C000EF93FF93E0918604F0918704309709F00F
:1046D0000995FF91EF91BF91AF919F918F917F913C
:1046E0006F915F914F913F912F910F900FBE0F905F
:1046F0001F9018951F920F920FB60F9211242F93AF
:104700003F934F935F936F937F938F939F93AF9359
:10471000BF93EF93FF93E0918A04F0918B0430975D
:1047200009F00995FF91EF91BF91AF919F918F9102
:104730007F916F915F914F913F912F910F900FBE9D
:104740000F901F9018951F920F920FB60F92112481
:104750002F933F934F935F936F937F938F939F9389
:10476000AF93BF93EF93FF93E0918C04F0918D048E
:10477000309709F00995FF91EF91BF91AF919F910B
:104780008F917F916F915F914F913F912F910F90FA
:104790000FBE0F901F9018951F920F920FB60F9299
:1047A00011242F933F934F935F936F937F938F9336
:1047B0009F93AF93BF93EF93FF93E0918804F091A1
:1047C0008904309709F00995FF91EF91BF91AF915E
:1047D0009F918F917F916F915F914F913F912F9119
:1047E0000F900FBE0F901F9018951F920F920FB64B
:1047F0000F9211242F933F934F935F936F937F9367
:104800008F939F93AF93BF93EF93FF93E0918E04A9
:10481000F0918F04309709F00995FF91EF91BF91C6
:10482000AF919F918F917F916F915F914F913F9148
:104830002F910F900FBE0F901F9018951F920F92FF
:104840000FB60F9211242F933F934F935F936F9363
:104850007F938F939F93AF93BF93EF93FF93E091D9
:104860007804F0917904309709F00995FF91EF9160
:10487000BF91AF919F918F917F916F915F914F9178
:104880003F912F910F900FBE0F901F9018951F9280
:104890000F920FB60F9211242F933F934F935F9374
:1048A0006F937F938F939F93AF93BF93EF93FF93F8
:1048B000E0917A04F0917B04309709F00995FF911B
:1048C000EF91BF91AF919F918F917F916F915F9188
:1048D0004F913F912F910F900FBE0F901F90189501
:1048E0001F920F920FB60F9211242F933F934F9365
:1048F0005F936F937F938F939F93AF93BF93EF9348
:10490000FF93E0917C04F0917D04309709F00995C4
:10491000FF91EF91BF91AF919F918F917F916F9197
:104920005F914F913F912F910F900FBE0F901F906D
:1049300018951F920F920FB60F9211242F933F9349
:104940004F935F936F937F938F939F93AF93BF9397
:10495000EF93FF93E0917E04F0917F04309709F08C
:104960000995FF91EF91BF91AF919F918F917F91A9
:104970006F915F914F913F912F910F900FBE0F90CC
:104980001F901895E82F803268F48051833050F0E2
:10499000F0E0EE0FFF1FE059FB4F20813181718362
:1049A000608302C020E030E0C901089580E10E94E8
:1049B000DA1F882361F4E0E7F4E01192119284E0B9
:1049C000E03BF807D1F780E161E00E94222080E11E
:1049D00091E00895239A0895FF920F931F93CF9328
:1049E000DF93F82E8AE0F816B1F08F1548F0E8E072
:1049F000FE16B9F1EF1538F1F7E0FF1651F43BC0A0
:104A00008DE0F81659F0EBE1FE1689F0FCE0FF1698
:104A100041F001E041C01092CC0703C01092CC07D6
:104A20003AC08091CD0781508093CD0734C00E9459
:104A3000F81914C080E061E00E94D71A8091CC0779
:104A40008F5F8093CC078091CC0787FFF3CF1092C4
:104A5000CC078091CD0781508093CD0700E011E015
:104A60001CC08091CC078823B1F08091CC07865080
:104A70008093CC0710C081E00E941B1C64EF71E0A2
:104A800080E090E04DE750E024E630E00E94281CF2
:104A900081E00E94D22600E010E08091CD07609175
:104AA000CC070E94BE1A002351F185E0F89EC00198
:104AB0001124EC01C355DF4F8C010E541F4FFE0132
:104AC000849161E00E94D71A2196C017D107B9F7E7
:104AD00080E061E00E94D71A8091CC078A5F8093C2
:104AE000CC078091CC0790E08C3791053CF0109278
:104AF000CC078091CD0781508093CD0711E0809144
:104B0000CD0783708093CD07113059F48091CE0783
:104B1000813039F4E091CF07F091D007309709F058
:104B2000099580E090E0DF91CF911F910F91FF9068
:104B3000089585FD5D9886FD5E980895559A569A6C
:104B4000089585FD5D9A86FD5E9A089580E00E9435
:104B5000DA1F882351F4F8940E94502881E00E94C3
:104B6000B82580E061E00E94222080E091E0089575
:104B7000813049F0F894813020F18230B1F08330F7
:104B800009F045C017C02C9A80E88093610010920C
:104B9000610080E090E00000019688329105D9F72D
:104BA0001092680010926B00089580E88093610075
:104BB00083E004C080E88093610088E08093610016
:104BC00028C080E090E0000001962DE68036920734
:104BD000D1F72C9880E090E0000001962DE6803619
:104BE0009207D1F710927A008FEF80936400809142
:104BF000680081608093680080916B00846080937E
:104C00006B00789483B7816083BF88950895823064
:104C100008F0789408950F931F930E947C2880E0F9
:104C20006BE678E20E94562681E063E678E20E9415
:104C3000562682E06BE578E20E94562686E063E71E
:104C400078E20E94562603E518E283E0B8010E944C
:104C5000562684E0B8010E94562685E0B8010E94DD
:104C6000562687E0B8010E94562682E061E00E9445
:104C700022208FEF8093D10787E00E94131B82E0F0
:104C800091E01F910F9108951F93162F0E94131BFF
:104C900082E00E94DA1F813011F080E005C01EBD65
:104CA0000DB407FEFDCF8EB51F910895E82FF0E0FB
:104CB000EE0FFF1FE055FB4F7183608308950E9444
:104CC000622608958091520490915304A091540457
:104CD000B0915504209156043091570440915804E6
:104CE00050915904280F391F4A1F5B1F209352040B
:104CF00030935304409354045093550480915204CC
:104D000090915304A0915404B09155048851964F4A
:104D1000A040B040BCF08BB180588BB98091520458
:104D200090915304A0915404B09155048851964F2A
:104D3000A040B0408093520490935304A093540435
:104D4000B093550408958AE00E94DA1F813041F43F
:104D50000E948328109251048AE060E00E94222081
:104D6000089589E00E94DA1F8130D9F480915004BF
:104D7000882311F00E94062782E00E9483288091F8
:104D80005E0490915F04009731F00E94F634109217
:104D90005F0410925E041092500489E060E00E946B
:104DA00022200895813029F0823029F40E94B12612
:104DB00008950E94A3260895982F80915004882377
:104DC00031F480915104882311F4579A5F988091AF
:104DD00050048823D1F49230C1F4109280001092D4
:104DE00081008091810088608093810080918100A2
:104DF000816080938100109285001092840081E090
:104E00008093890080E9809388000895EFE6F0E0C0
:104E100080818D7F80830895982F81E08093B607ED
:104E2000913051F0913018F0923041F403C010925B
:104E30009E0704C010929E0710929F071092B6071B
:104E400008953A9A3B9A3C9A3D9A3E9A3F9A88B185
:104E5000837088B90895982F81E08093B6079130C8
:104E600051F0913018F0923041F403C06093A007E4
:104E700004C06093A0076093A1071092B60708953D
:104E80000F931F93CF93DF93EB018A01813001F1E0
:104E9000813018F0823061F50DC080918A079091C1
:104EA0008B07892B11F080E01AC01092970710929F
:104EB00096071EC080918A0790918B07892B21F05D
:104EC00080E00E949F2804C01092970710929607D6
:104ED00080918C0790918D07892B31F081E0BE0184
:104EE000A8010E949F2804C0109299071092980769
:104EF000DF91CF911F910F9108951092B9071092F1
:104F0000BA071092BE071092BB071092BD0710920D
:104F1000BF071092C0071092C1071092C2071092EB
:104F2000C3071092C4071092C5071092C6071092CB
:104F3000C7071092C8071092C9071092CA070895B0
:104F4000CF92DF92EF92FF920F931F93CF93DF9355
:104F5000EC018091F007882339F4D093F207C093D5
:104F6000F1070E942E2847C0C090F107D090F207A9
:104F700000E010E0EE24FF2437C0A881B981FD01D4
:104F800064817581F60140815181FA0184819581A6
:104F90009B01281B390B37FF0FC0861B970B95838E
:104FA0008483DB82CA82012B29F4D093F207C09359
:104FB000F10721C0F7010CC0F60182819381211510
:104FC000310549F4FD01158214829B838A83F60121
:104FD000D383C28310C0FD01358324830097B9F3C6
:104FE0000F5F1F4F76016C018091F00790E008176A
:104FF000190718F2ECCF8091F0078F5F8093F007CC
:10500000DF91CF911F910F91FF90EF90DF90CF90A4
:10501000089588E00E94DA1F8823B9F41092F007FF
:105020001092F2071092F1071092C0041092C1047E
:1050300080E16CE079E20E943F280E9413290E94DF
:10504000282888E061E00E94222088E091E008950D
:10505000EEE6F0E0808182608083089581E08093B5
:10506000C10408958091F307813029F48091BC0038
:1050700084608093BC0008953898399808958032F0
:1050800018F020E030E00AC0E82FF0E0EE0FFF1F3C
:10509000E059FB4F2081318171836083C9010895FC
:1050A000249A2C9A089583E58CBD81E08DBD8DE016
:1050B0008A95F1F7089583E58CBD1DBC84EF91E0DE
:1050C0000197F1F708958FE78CBD1DBC84EF91E047
:1050D0000197F1F7089583E58CBD81E08DBD8DE0EA
:1050E0008A95F1F7089583E58CBD81E08DBD84EF4D
:1050F00091E00197F1F70895259A2698279A209A2A
:10510000219A229A0895823029F4809181008E7F1D
:105110008093810080915004813031F4809151045A
:10512000813011F40000089580915004813021F005
:1051300080915104813011F45F9857980895EF924F
:10514000FF920F931F93CF93DF93EB01882321F0FE
:10515000813009F05AC02DC09A0140E050E0CA01E8
:10516000B9010E94D13320918A0730918B07220F19
:10517000331F40E050E00E94F03379018A01A8011A
:105180009701220F331F441F551FCE01A0E0B0E04E
:1051900082179307A407B50728F0F0929707E092CB
:1051A000960733C0D695C795D0939707C0939607B7
:1051B0002CC09A0140E050E0CA01B9010E94D133ED
:1051C00020918C0730918D07220F331F40E050E073
:1051D0000E94F03379018A01A8019701220F331F41
:1051E000441F551FCE01A0E0B0E082179307A4072B
:1051F000B50728F0F0929907E092980706C0D69577
:10520000C795D0939907C0939807DF91CF911F91CD
:105210000F91FF90EF9008950E941C290E945C2935
:105220000E943529089584B5826084BD85B5846067
:1052300085BD8EE487BD089588E00E94DA1F88232B
:1052400011F484E008958091C104882311F483E06F
:1052500008958091C004882311F082E008950E948F
:10526000A92B8130E1F380E00895809151048130D1
:1052700011F580915A0490915B0420915C04309167
:105280005D04280F391F30935B0420935A048091EA
:105290005A0490915B04885E93406CF08BB1805807
:1052A0008BB980915A0490915B04885E93409093EF
:1052B0005B0480935A04089587E00E94DA1F8130CE
:1052C00009F0AAC080918A0790918B07892B09F178
:1052D0008091AE079091AF0720918A0730918B079C
:1052E000820F931F9093AF078093AE078091AE0714
:1052F0009091AF07885E9340A4F08091AE079091A3
:10530000AF07885E93409093AF078093AE0741E06C
:1053100009C08091820790918307909387078093BB
:10532000860740E080918C0790918D07892B09F1C9
:105330008091B0079091B10720918C0730918D0733
:10534000820F931F9093B1078093B0078091B007AD
:105350009091B107885E9340A4F08091B00790913E
:10536000B107885E93409093B1078093B00761E0E6
:1053700009C0809184079091850790938907809355
:10538000880760E0842F0E940D2A8091AA079091DF
:10539000AB072091860730918707280F391F30937C
:1053A000AB072093AA078091AA079091AB07885E6C
:1053B000934014F440E00BC08091AA079091AB0792
:1053C000885E93409093AB078093AA0741E0809159
:1053D000AC079091AD072091880730918907280F7D
:1053E000391F3093AD072093AC078091AC079091A3
:1053F000AD07885E934014F460E00BC08091AC0769
:105400009091AD07885E93409093AD078093AC0771
:1054100061E0842F0E94522A08958823F1F02091A0
:105420008207309183078091860790918707281B18
:10543000390B1216130634F4809186079091870772
:10544000019607C0232B49F080918607909187072A
:1054500001979093870780938607662311F1209127
:105460008407309185078091880790918907281BD0
:10547000390B1216130654F480918807909189070E
:10548000019690938907809388070895232B49F00C
:10549000809188079091890701979093890780935D
:1054A000880708950F931F93182F062F8091B60732
:1054B000882309F0E7C080919E07882309F05AC02D
:1054C0008091860790918707892BE9F48091C20427
:1054D000837E8093C2041092A7078091B20788232D
:1054E00009F45DC06091A00780E00E94671FE09111
:1054F000B407F091B507309709F451C081E080837B
:105500001092B2074CC080918007813041F48091A5
:10551000920790919307019711F411E002C01123B3
:10552000F1F1E091A507F0E0E35FFB4F9091C20439
:10553000937E8081892B8093C2048091A307882366
:1055400021F48091A5078F5F03C08091A50781504A
:105550008093A5078091A50783708093A50781E0BC
:105560008093A707809180078130C9F480E00E9472
:10557000552B15C09091C204937E9093C204E09184
:10558000A507F0E0E35FFB4F8081892B8093C20485
:1055900082E08093A7071092870710928607809178
:1055A0009F07882309F059C0809188079091890747
:1055B000892BE9F48091C2048F718093C204109208
:1055C000A8078091B307882309F45CC06091A10704
:1055D00081E00E94671FE091B407F091B507309712
:1055E00009F450C081E081831092B3074BC08091D1
:1055F0008107813041F4809194079091950701973C
:1056000011F401E002C00023E9F1E091A607F0E007
:10561000EF5EFB4F9091C2049F718081892B809334
:10562000C2048091A407882321F48091A6078F5F8C
:1056300003C08091A60781508093A6078091A6079A
:1056400083708093A60781E08093A80780918107EB
:105650008130C1F40E94552B15C09091C2049F71F6
:105660009093C204E091A607F0E0EF5EFB4F8081CB
:10567000892B8093C20482E08093A8071092890747
:10568000109288078091A907882331F482EC94E076
:10569000612F402F0E94172C88B183709091C20413
:1056A000892B88B91F910F910895882321F08130AB
:1056B00009F04EC027C08091920790919307892BE3
:1056C00049F08091920790919307019790939307E7
:1056D000809392078091B2078823D1F52091920799
:1056E0003091930780919607909197072817390773
:1056F00079F580E060E070E00E949E1E81E080937A
:10570000B20708958091940790919507892B49F0ED
:1057100080919407909195070197909395078093B6
:1057200094078091B307882399F4209194073091CE
:10573000950780919807909199072817390741F4A8
:1057400081E060E070E00E949E1E81E08093B307DC
:105750000895FF920F931F93CF93DF938091F007EB
:10576000882309F459C00091F1071091F207F8015C
:10577000C081D1818C819D8101979D838C83181676
:1057800019060CF449C0898180FF05C08E818823E9
:1057900011F481E08E83898181FF03C0EF81F88558
:1057A00009958091F0078230A8F0F80182819381F9
:1057B0009093F2078093F10713821282E091000028
:1057C000F091010084819581181619063CF0FF24A0
:1057D000F39405C01092F2071092F107FF24809114
:1057E000F00781508093F0078091F007882311F42F
:1057F0000E94142C898182FF08C08A819B819D832D
:105800008C83C8010E94A02708C0C8010E94F634FA
:1058100089818F7E898301C0FF248F2DDF91CF91F5
:105820001F910F91FF9008951092C1040895FC01FB
:105830008091A707823069F48091C60491E089279E
:105840008093C604882309F03EC08081837E8083D4
:105850003AC08091860790918707C397A4F5662385
:10586000D1F0209186073091870780E690E0BC0157
:10587000269FC001279F900D369F900D1124880F01
:10588000892F881F990B90939B0780939A0781E03B
:105890008093C40418C08091C4048823A1F080912F
:1058A0009A0790919B07019790939B0780939A0783
:1058B00080919A0790919B07892B29F48081837EA0
:1058C00080831092C4048091A807823069F480918B
:1058D000C50491E089278093C504882309F03EC060
:1058E00080818F71808308958091880790918907C6
:1058F000C397A4F54423D1F02091880730918907FC
:1059000080E690E0AC01249FC001259F900D349F5C
:10591000900D1124880F892F881F990B90939D0754
:1059200080939C0781E08093C30408958091C30411
:105930008823A1F080919C0790919D0701979093F7
:105940009D0780939C0780919C0790919D07892BD0
:1059500029F480818F7180831092C3040895505878
:10596000BB27AA270ED075C166D130F06BD120F0CD
:1059700031F49F3F11F41EF45BC10EF4E095E7FB98
:1059800051C1E92F77D180F3BA17620773078407F3
:10599000950718F071F49EF58FC10EF4E0950B2E6B
:1059A000BA2FA02D0B01B90190010C01CA01A00171
:1059B0001124FF27591B99F0593F50F4503E68F1CC
:1059C0001A16F040A22F232F342F4427585FF3CF0D
:1059D000469537952795A795F0405395C9F77EF4DE
:1059E0001F16BA0B620B730B840BBAF09150A1F027
:1059F000FF0FBB1F661F771F881FC2F70EC0BA0FAD
:105A0000621F731F841F48F4879577956795B79534
:105A1000F7959E3F08F0B3CF9395880F08F099272C
:105A2000EE0F979587950895D9D008F481E00895F1
:105A30000CD00FC107D140F0FED030F021F45F3F11
:105A400019F0F0C0511139C1F3C014D198F3992362
:105A5000C9F35523B1F3951B550BBB27AA27621732
:105A60007307840738F09F5F5F4F220F331F441F77
:105A7000AA1FA9F333D00E2E3AF0E0E830D09150AF
:105A80005040E695001CCAF729D0FE2F27D0660F9C
:105A9000771F881FBB1F261737074807AB07B0E8DB
:105AA00009F0BB0B802DBF01FF2793585F4F2AF0F1
:105AB0009E3F510568F0B6C000C15F3FECF3983ED1
:105AC000DCF3869577956795B795F7959F5FC9F74E
:105AD000880F911D9695879597F90895E1E0660FD7
