:100000000C9431030C944E030C944E030C944E0349
:100010000C946C230C9495230C94BE230C94E7232E
:100020000C944E030C944D220C9476220C949F2237
:100030000C941A230C94C8220C94F1220C944323A0
:100040000C94D2210C94FB210C9424220C944E038A
:100050000C944E030C944E030C944E030C944E03DC
:100060000C944E030C944E030C944E030C944E03CC
:100070000C944E030C944E030C944E03371F3A1FFE
:100080003D1F401F491F431F461F4C1F4F1F521F3C
:10009000551F581F5B1F5E1F611F641F671F6A1F6C
:1000A0006D1F7E1F811F841F871F901F8A1F8D1F3A
:1000B000931F961F991F9C1F9F1FA21FA51FA81F5C
:1000C000AB1FAE1FB11FB41F07634236B79BD8A743
:1000D0001A39685618AEBAAB558C1D3CB7CC57636D
:1000E000BD6DEDFD753EF6177231BF000000803F1B
:1000F00008000000BE922449123EABAAAA2ABECD37
:10010000CCCC4C3E00000080BEABAAAAAA3E0000A8
:100110000000BF000000803F0000000000084178A0
:10012000D3BB4387D1133D190E3CC3BD4282AD2BD7
:100130003E68EC8276BED98FE1A93E4C80EFFFBECF
:1001400001C4FF7F3F000000000016050100000011
:1001500000000000FA000000E000E00028FE28FE99
:10016000282454FE5448C4C81026466C92AA44A0C1
:1001700000A0C000000038448200008244380028FB
:10018000107C102810107C1010000A0C00001010B9
:10019000101010000606000004081020407C8A920F
:1001A000A27C0042FE020042868A92628482A2D22F
:1001B0008C182848FE08E4A2A2A29C3C5292920C01
:1001C000808E90A0C06C9292926C60929294780013
:1001D0006C6C0000006A6C00001028448200282823
:1001E000282828008244281040808A90604C929EE3
:1001F000827C7E8888887EFE9292926C7C8282824B
:1002000044FE82824438FE92929282FE90909080C8
:100210007C8292925EFE101010FE0082FE8200042C
:100220000282FC80FE10284482FE02020202FE408E
:100230003040FEFE201008FE7C8282827CFE909080
:1002400090607C828A847AFE909894626292929204
:100250008C8080FE8080FC020202FCF8040204F81C
:10026000FC021C02FCC6281028C6E0100E10E08616
:100270008A92A2C200FE82820040201008040082FE
:1002800082FE0020408040200202020202008040E4
:100290002000042A2A2A1EFE1222221C1C222222AC
:1002A000041C222212FE1C2A2A2A18107E9080404A
:1002B000304A4A4A7CFE1020201E0022BE02000462
:1002C0000222BC00FE081422000082FE02003E2032
:1002D00018201E3E1020201E1C2222221C3E2828F0
:1002E0002810102828183E3E10202010122A2A2AF2
:1002F0000420FC2202043C0202043E3804020438BA
:100300003C020C023C2214081422300A0A0A3C2245
:10031000262A322200106C82000000FE00000082BB
:100320006C1000081010081000000000007F818190
:10033000817F7F8383837F7F8787877F7F8F8F8F77
:100340007F7F9F9F9F7F7FBFBFBF7F7FFFFFFF7F1D
:100350002040FF4020621517156500FBFB000000E0
:1003600000000000C0FF0300E0FF0700F0FF0F00E7
:10037000F8FF1F0078001E0078001E0078001E00A5
:1003800078001E0078001E0078001E0078001E0015
:1003900078001E0078001E00000000000000000031
:1003A00080FF0300E0FF0700F0FF0F00F8FF1F00D1
:1003B000F83C1F00783C1E00783C1E00783C1E0074
:1003C000783C1E00783C1E00783C1E00783C1E00E5
:1003D000783C1E00783C1E00783C1E0000000000A7
:1003E00000000000E0FF0300F0FF0700F8FF0F002F
:1003F000F8FF1F00783C1E00783C1E00783C1E0071
:10040000783C1E00783C1E00783C1E00783C1E00A4
:10041000783C1E00783C1E00783C1E000000000066
:1004200000000000F8FF0300F8FF0F00F8FF1F00B6
:10043000F8FF1F0000001E0000001E0000801F00CB
:1004400000F01F0000FF0F00E0FF0700F0FF0000BA
:10045000F80F0000F80000007800000078000000AD
:10046000F8FF1F00F8FF1F00F0FF1F00E0FF1F0054
:100470000000000000000000F8FF1F00F8FF1F0050
:10048000F8FF1F00F8FF1F0078001E00783C1E00D8
:10049000783C1E00783C1E00783C1E00783C1E0014
:1004A000783C1E00F87E1F00F8FF1F00F0FF0F00D1
:1004B000E0E703000000000000003800EEFF6C00E1
:1004C0002A8045003A0047FC03FF6CFC83FF39009B
:1004D000DEFF0B7CD0810BFCD0810BC0D0810BFCEC
:1004E000D0810B7CDEFF0B0082FF397002FF6CF8BD
:1004F0003A0047DC2A8045CCEEFF6CCC0000380087
:100500000000000C00001E0C00001E0000001E0079
:1005100000001E0000001E00F8FF1F00F8FF1F0073
:10052000F8FF1F00F8FF1F0000001E0000001E0063
:1005300000001E0000001E0000005E0000004000E1
:1005400000007C00000040000000400000007C0033
:1005500000003000000010000000300000007C6E41
:10056000616E00696E660000407A10F35A00A07256
:100570004E18090010A5D4E80000E87648170000DE
:10058000E40B54020000CA9A3B000000E1F50500AC
:100590000080969800000040420F000000A08601F5
:1005A000000000102700000000E8030000000064C5
:1005B00000000000000A0000000000010000000030
:1005C000002C76D888DC674F0823DFC1DFAE59E105
:1005D000B1B796E5E3E453C63AE651997696E8E674
:1005E000C28426EB898C9B62ED407C6FFCEFBC9C47
:1005F0009F40F2BAA56FA5F490055A2AF75C936B59
:100600006CF9676DC11BFCE0E40D47FEF520E6B513
:1006100000D0ED902E0300943577050080841E08ED
:100620000000204E0A000000C80C333333330F980B
:100630006E12831141EF8D2114893BE65516CFFED2
:10064000E6DB18D1844B381BF77C1D901DA4BBE45E
:1006500024203284725E228100C9F124ECA1E53DA0
:10066000270011241FBECFEFD8E0DEBFCDBF13E0BF
:10067000A0E0B1E0E4E5FDE602C005900D92A235F0
:10068000B107D9F717E0A2E5B3E001C01D92A4328B
:10069000B107E1F70E948A190C94A8360C94000067
:1006A0001F93CF93DF93EC0188E660E00E94362130
:1006B000182F8823A1F481E00E941021182F88238D
:1006C00071F488E661E00E943621182F882339F4FE
:1006D000CE0160E00E94E420182F811118820E9450
:1006E0007C21812FDF91CF911F9108951F93CF938C
:1006F000DF93EC0188E660E00E943621182F882302
:10070000A1F489E00E941021182F882371F488E653
:1007100061E00E943621182F882339F4CE0160E071
:100720000E94E420182F811118820E947C21812FC1
:10073000DF91CF911F9108951F93CF93DF93EC0129
:1007400088E660E00E943621182F8823A1F488E013
:100750000E941021182F882371F488E661E00E941E
:100760003621182F882339F4CE0160E00E94E4205E
:10077000182F811118820E947C21812FDF91CF9147
:100780001F9108951F93CF93DF93EC0188E660E0FB
:100790000E943621182F8823A1F487E00E9410219F
:1007A000182F882371F488E661E00E943621182F03
:1007B000882339F4CE0160E00E94E420182F8111D3
:1007C00018820E947C21812FDF91CF911F91089583
:1007D0001F93CF93DF93EC0188E660E00E943621FF
:1007E000182F8823A1F486E00E941021182F882357
:1007F00071F488E661E00E943621182F882339F4CD
:10080000CE0160E00E94E420182F811118820E941E
:100810007C21812FDF91CF911F9108951F93CF935A
:10082000DF93EC0188E660E00E943621182F8823D0
:10083000A1F485E00E941021182F882371F488E626
:1008400061E00E943621182F882339F4CE0160E040
:100850000E94E420182F811118820E947C21812F90
:10086000DF91CF911F9108951F93CF93DF93EC01F8
:1008700088E660E00E943621182F8823A1F484E0E6
:100880000E941021182F882371F488E661E00E94ED
:100890003621182F882339F4CE0160E00E94E4202D
:1008A000182F811118820E947C21812FDF91CF9116
:1008B0001F9108951F93CF93DF93EC0188E660E0CA
:1008C0000E943621182F8823A1F483E00E94102172
:1008D000182F882371F488E661E00E943621182FD2
:1008E000882339F4CE0160E00E94E420182F8111A2
:1008F00018820E947C21812FDF91CF911F91089552
:100900001F93CF93DF93EC0188E660E00E943621CD
:10091000182F8823A1F482E00E941021182F882329
:1009200071F488E661E00E943621182F882339F49B
:10093000CE0160E00E94E420182F811118820E94ED
:100940007C21812FDF91CF911F9108951F93CF9329
:10095000DF93EC0188E660E00E943621182F88239F
:10096000A1F480E00E941021182F882371F488E6FA
:1009700061E00E943621182F882339F4CE0160E00F
:100980000E94E420182F811118820E947C21812F5F
:10099000DF91CF911F91089581E00E947F1985E03A
:1009A0000E9448190E942B19A0E0B0E0BC01CD01C3
:1009B0000E944C2D20E030E040EA50E40E944B2C95
:1009C0009B01AC0160E070E286E395E40E94B32CE9
:1009D00020E030E040E85FE30E944A2C089581E087
:1009E0000E947F1987E00E9448190E942B19A0E0FD
:1009F000B0E0BC01CD010E944C2D20E030E040EA87
:100A000050E40E944B2C9B01AC0160E070E286E355
:100A100095E40E94B32C20E030E040E85FE30E94C0
:100A20004A2C089581E00E947F1983E00E944819B2
:100A30000E942B19A0E0B0E0BC01CD010E944C2D1A
:100A400020E030E040EA50E40E944B2C9B01AC01D6
:100A500060E070E286E395E40E94B32C20E030E091
:100A600040E85FE30E944A2C089581E00E947F19CC
:100A700084E00E9448190E942B19A0E0B0E0BC015C
:100A8000CD010E944C2D20E030E040EA50E40E946D
:100A90004B2C9B01AC0160E070E286E395E40E9480
:100AA000B32C20E030E040E85FE30E944A2C089538
:100AB00081E00E947F1985E00E9448190E942B194D
:100AC000A0E0B0E0BC01CD010E944C2D20E030E060
:100AD00040EA5BE30E943C2E089581E00E947F196A
:100AE00086E00E9448190E942B19A0E0B0E0BC01EA
:100AF000CD010E944C2D20E030E040EA5BE30E94F3
:100B00003C2E08950F931F9381E08093EE0380E0C5
:100B10000E94E81F082F81E00E94E81F182F82E042
:100B20000E94E81F113019F422E030E006C020E0F6
:100B300030E0013011F421E030E0813011F423E0A5
:100B400030E0C9011F910F910895FF920F931F93F9
:100B5000CF93DF930E94931981E08093EE0380E0AE
:100B60000E94E81F182F81E00E94E81F082F82E0F2
:100B70000E94E81FF82E113019F0C0E0D0E013C039
:100B800080E091E00E94153680E20E94A21A84EF74
:100B900091E00E94852080E40E948D1A80E20E94EC
:100BA0008D1AC1E0D0E0013099F48CE091E00E9410
:100BB000153680E40E94A21A84EF91E00E948520FD
:100BC00080E40E948D1A80E20E948D1AC2E0D0E07B
:100BD00081E0F816B1F488E191E00E94153680E4D6
:100BE0000E94A21A80E20E94A21A84EF91E00E9461
:100BF000852080E40E948D1A80E20E948D1AC3E055
:100C0000D0E00E949319CE01DF91CF911F910F91F7
:100C1000FF9008952F923F924F925F926F927F9232
:100C20008F929F92AF92BF92CF92DF92EF92FF92FC
:100C30000F931F93DF93CF93CDB7DEB764970FB6B3
:100C4000F894DEBF0FBECDBF882339F581E694E06E
:100C50009C8B8B8BA4E8B6E0BE83AD83ECE7F5E01C
:100C6000FC83EB8389EE94E09A8389830F2EF0E076
:100C70002F2EF0E03F2EF0E04F2EF0E05F2EF02D13
:100C80002F86388A498A5A8A2B863C864D865E860C
:100C90002F82388649865A8643C0A0900C06B090B1
:100CA0000D06C0900E06D0900F06E0901006F09052
:100CB00011060091120610911306209069043090DD
:100CC0006A0440906B0450906C042091730430913E
:100CD0007404409175045091760480E090E0FC012A
:100CE000EF50FC4FA082B182C282D382FC01EC5E45
:100CF000F94FE082F18202831383FC01E45FFA4F33
:100D00002082318242825382FC01E758FB4F2083CC
:100D100031834283538304968837910501F796CF38
:100D2000AB89BC892D913D914D915C911397FD014B
:100D30002483358346835783AD81BE81ED90FD903A
:100D40000D911C911397FD01E482F58206831783B0
:100D5000AB81BC81AD90BD90CD90DC901397FD012F
:100D6000A482B582C682D782A981BA816D907D9016
:100D70008D909C901397FD01648275828682978284
:100D8000C201B1010E944B2C1B012C016F85788997
:100D900089899A89A80197010E944B2C6F87788BCB
:100DA000898B9A8B6B857C858D859E85A6019501A7
:100DB0000E944B2C6B877C878D879E876F817885FF
:100DC00089859A85A40193010E944B2C6F837887B3
:100DD00089879A878B899C8904979C8B8B8BAD81A3
:100DE000BE811497BE83AD83EB81FC813497FC8375
:100DF000EB8389819A8104979A838983AB89BC8923
:100E0000A95EB34009F08CCF80910C0690910D063D
:100E1000A0910E06B0910F06EB89FC89808791871F
:100E2000A287B3878091100690911106A0911206B7
:100E3000B09113068093140690931506A09316069E
:100E4000B09317068091690490916A04A0916B0495
:100E5000B0916C0480930C0590930D05A0930E0542
:100E6000B0930F058091730490917404A091750460
:100E7000B09176048093790490937A04A0937B04D4
:100E8000B0937C04C201B10120E030E040EF51E4B6
:100E90000E94B32C60930C0670930D0680930E068F
:100EA00090930F066F85788989899A8920E030E0D0
:100EB00040EF51E40E94B32C60931006709311062A
:100EC00080931206909313066B857C858D859E8595
:100ED00020E030E040EF51E40E94B32C60936904BD
:100EE00070936A0480936B0490936C046F8178858F
:100EF00089859A8520E030E040EF51E40E94B32CD0
:100F000060937304709374048093750490937604D3
:100F100064960FB6F894DEBF0FBECDBFCF91DF91C0
:100F20001F910F91FF90EF90DF90CF90BF90AF9007
:100F30009F908F907F906F905F904F903F902F90F9
:100F40000895AF92BF92CF92DF92EF92FF920F93EC
:100F50001F937B018C01442361F080E090E0A0E0CE
:100F6000B0E080936D0490936E04A0936F04B093EF
:100F70007004C801B70120916D0430916E04409156
:100F80006F04509170040E944B2C5B016C016093C4
:100F90006D0470936E0480936F0490937004C80185
:100FA000B701209108053091090540910A0550913B
:100FB0000B050E944A2C2DEC3CEC4CEC5DE30E94AE
:100FC0003C2E9B01AC01C801B7010E944B2C7B0158
:100FD0008C01C601B50120E030E040E050E00E9405
:100FE0003C2E9B01AC01C801B7010E944B2C1F9104
:100FF0000F91FF90EF90DF90CF90BF90AF9008954A
:10100000442381F006C0E82FF0E0EC5DFE4F8081C4
:1010100061506623C1F70895E82FF0E0EC5CFE4FC5
:10102000808161506623C1F70895EF92FF920F937C
:101030001F936091690470916A0480916B04909190
:101040006C0420E030E040E251E40E94AF2CF82E26
:10105000FF1CFF24FF1CFF0CFF0CFF0C60910C0613
:1010600070910D0680910E0690910F0620E030E001
:1010700040EF51E40E94AF2C082F001F0027001FF3
:10108000000F000F609173047091740480917504D7
:101090009091760420E030E04CE052E40E94AF2CC6
:1010A000182F111F1127111F110FEE246091100628
:1010B00070911106809112069091130620E030E0A5
:1010C00040EF51E40E94AF2C882314F4EE24E39403
:1010D0008F2D8E0D800F810F8093710420917204EB
:1010E000E22FF0E0E457F94F91819093780489174B
:1010F00019F42F5F209372041F910F91FF90EF90CE
:1011000008952F923F924F925F926F927F928F92AB
:101110009F92AF92BF92CF92DF92EF92FF920F9386
:101120001F93DF93CF93CDB7DEB7A0970FB6F89498
:10113000DEBF0FBECDBF2B013C012D833E834F830D
:101140005887E986FA860B871C87AD86BE86CF86D0
:10115000D88A282C3324CA01B90120E030E040E0CD
:1011600050E00E94FE2D181614F4332433946D8140
:101170007E818F8198852CED38EB48E05EE30E94FC
:10118000B32C0E941B2D9B0177FF03C03095219546
:101190003F4FB901882777FD8095982F0E944E2DEB
:1011A00069837A838B839C8369857A858B859C850B
:1011B0002CED38EB48E05EE30E94B32C0E941B2D1F
:1011C0009B0177FF03C0309521953F4FB9018827D8
:1011D00077FD8095982F0E944E2D4B015C016D8507
:1011E0007E858F8598892CED38EB48E05EE30E9480
:1011F000B32C0E941B2D9B0177FF03C030952195D6
:101200003F4FB901882777FD8095982F0E944E2D7A
:101210006B017C01C301B20120E030E040E05FE4FB
:101220000E94AF2C8823A1F569817A818B819C81F2
:101230000E94202D2B013C01C501B4010E94202DEC
:101240004B015C01C701B6010E94202D6B017C019E
:101250002DB73EB7295030400FB6F8943EBF0FBEB1
:101260002DBFEDB7FEB73196ADB7BEB712965C9203
:101270004E921197938282827583648326821086B0
:10128000178281E062E0432D920184017601C1C1A1
:10129000C301B20120E030E040E050E00E94AF2CFA
:1012A0008823E9F569817A818B819C810E94202DB8
:1012B0003B01C501B4010E94202D8B01C701B6017D
:1012C0000E94202D7B012DB73EB7295030400FB62C
:1012D000F8943EBF0FBE2DBFEDB7FEB7319640E08C
:1012E000332009F441E07182608213830283F58226
:1012F000E48226821086178281E062E09301C22C8C
:10130000AA24BB24832C0E948B1C81E0ADB7BEB7FE
:1013100019960FB6F894BEBF0FBEADBF89C1C30109
:10132000B20120E030E040E050E00E94FE2D1816AF
:101330000CF0B1C066E676E68AEA91ECA301920170
:101340000E94B32C20E030E040E85FE30E944B2C89
:101350007B018C0166E676E68AEA91E4A3019201BC
:101360000E94B32C20E030E040E85FE30E944B2C69
:101370005B016C01EDB7FEB739970FB6F894FEBF6D
:101380000FBEEDBF8DB69EB60894811C911C6D8179
:101390007E818F819885A80197010E943C2E2CEDBB
:1013A00038EB48E05EE30E94B32C0E94202D698B4D
:1013B0007A8B8B8B9C8B69857A858B859C85A80124
:1013C00097010E943C2E2CED38EB48E05EE30E9432
:1013D000B32C0E94202D6D8B7E8B8F8B988F6D850B
:1013E0007E858F859889A80197010E943C2E2CED5F
:1013F00038EB48E05EE30E94B32C0E94202D2B01C5
:101400003C016D817E818F819885A60195010E94A6
:101410003C2E2CED38EB48E05EE30E94B32C0E949A
:10142000202DD4016D937C9369857A858B859C856D
:10143000A60195010E943C2E2CED38EB48E05EE3BE
:101440000E94B32C0E94202DF401738362836D856A
:101450007E858F859889A60195010E943C2E2CEDF2
:1014600038EB48E05EE30E94B32C0E94202DD401AB
:1014700015967C936E93149716962C921697189641
:101480001C921E92179781E062E0432D29893A89C8
:101490000D891E89BDC0C301B20120E030E040E0EB
:1014A00050E00E94AF2C87FD02C080E0C1C066E61C
:1014B00076E68AEA91E4A30192010E94B32C20E02F
:1014C00030E040E85FE30E944B2C7B018C0166E634
:1014D00076E68AEA91ECA30192010E94B32C20E007
:1014E00030E040E85FE30E944B2C5B016C012DB7BC
:1014F0003EB7295030400FB6F8943EBF0FBE2DBF07
:101500008DB69EB60894811C911C6D817E818F8161
:101510009885A80197010E943C2E2CED38EB48E0FD
:101520005EE30E94B32C0E94202D698F7A8F8B8FEF
:101530009C8F69857A858B859C85A80197010E947F
:101540003C2E2CED38EB48E05EE30E94B32C0E9469
:10155000202D6D8F7E8F8F8F98A36D857E858F85D3
:101560009889A80197010E943C2E2CED38EB48E0A9
:101570005EE30E94B32C0E94202D2B013C016D8163
:101580007E818F819885A60195010E943C2E2CEDCD
:1015900038EB48E05EE30E94B32C0E94202DD4017A
:1015A0006D937C9369857A858B859C85A6019501D1
:1015B0000E943C2E2CED38EB48E05EE30E94B32CF9
:1015C0000E94202DF401738362836D857E858F8553
:1015D0009889A60195010E943C2E2CED38EB48E03D
:1015E0005EE30E94B32C0E94202DD40115967C93BB
:1015F0006E93149716962C92169718961C921E921C
:10160000179781E062E0432D298D3A8D0D8D1E8D57
:101610007201C22CAA24BB24832C0E948B1C81E063
:10162000EDB7FEB739960FB6F894FEBF0FBEEDBF0B
:10163000A0960FB6F894DEBF0FBECDBFCF91DF915D
:101640001F910F91FF90EF90DF90CF90BF90AF90E0
:101650009F908F907F906F905F904F903F902F90D2
:1016600008952F923F924F925F926F927F928F9246
:101670009F92AF92BF92CF92DF92EF92FF920F9321
:101680001F93DF93CF93CDB7DEB7A0970FB6F89433
:10169000DEBF0FBECDBF2B013C012D833E834F83A8
:1016A0005887E986FA860B871C87AD86BE86CF866B
:1016B000D88A282C3324CA01B90120E030E040E068
:1016C00050E00E94FE2D181614F4332433946D81DB
:1016D0007E818F8198852CED38EB48E05EE30E9497
:1016E000B32C0E941B2D9B0177FF03C030952195E1
:1016F0003F4FB901882777FD8095982F0E944E2D86
:1017000069837A838B839C8369857A858B859C85A5
:101710002CED38EB48E05EE30E94B32C0E941B2DB9
:101720009B0177FF03C0309521953F4FB901882772
:1017300077FD8095982F0E944E2D4B015C016D85A1
:101740007E858F8598892CED38EB48E05EE30E941A
:10175000B32C0E941B2D9B0177FF03C03095219570
:101760003F4FB901882777FD8095982F0E944E2D15
:101770006B017C01C301B20120E030E040E05FE496
:101780000E94AF2C8823A1F569817A818B819C818D
:101790000E94202D2B013C01C501B4010E94202D87
:1017A0004B015C01C701B6010E94202D6B017C0139
:1017B0002DB73EB7295030400FB6F8943EBF0FBE4C
:1017C0002DBFEDB7FEB73196ADB7BEB712965C929E
:1017D0004E9211979382828275836483268210864B
:1017E000178280E062E0432D920184017601C1C13D
:1017F000C301B20120E030E040E050E00E94AF2C95
:101800008823E9F569817A818B819C810E94202D52
:101810003B01C501B4010E94202D8B01C701B60117
:101820000E94202D7B012DB73EB7295030400FB6C6
:10183000F8943EBF0FBE2DBFEDB7FEB7319640E026
:10184000332009F441E07182608213830283F582C0
:10185000E48226821086178280E062E09301C22C27
:10186000AA24BB24832C0E948B1C81E0ADB7BEB799
:1018700019960FB6F894BEBF0FBEADBF89C1C301A4
:10188000B20120E030E040E050E00E94FE2D18164A
:101890000CF0B1C066E676E68AEA91ECA30192010B
:1018A0000E94B32C20E030E040E85FE30E944B2C24
:1018B0007B018C0166E676E68AEA91E4A301920157
:1018C0000E94B32C20E030E040E85FE30E944B2C04
:1018D0005B016C01EDB7FEB739970FB6F894FEBF08
:1018E0000FBEEDBF8DB69EB60894811C911C6D8114
:1018F0007E818F819885A80197010E943C2E2CED56
:1019000038EB48E05EE30E94B32C0E94202D698BE7
:101910007A8B8B8B9C8B69857A858B859C85A801BE
:1019200097010E943C2E2CED38EB48E05EE30E94CC
:10193000B32C0E94202D6D8B7E8B8F8B988F6D85A5
:101940007E858F859889A80197010E943C2E2CEDF9
:1019500038EB48E05EE30E94B32C0E94202D2B015F
:101960003C016D817E818F819885A60195010E9441
:101970003C2E2CED38EB48E05EE30E94B32C0E9435
:10198000202DD4016D937C9369857A858B859C8508
:10199000A60195010E943C2E2CED38EB48E05EE359
:1019A0000E94B32C0E94202DF401738362836D8505
:1019B0007E858F859889A60195010E943C2E2CED8D
:1019C00038EB48E05EE30E94B32C0E94202DD40146
:1019D00015967C936E93149716962C9216971896DC
:1019E0001C921E92179780E062E0432D29893A8964
:1019F0000D891E89BDC0C301B20120E030E040E086
:101A000050E00E94AF2C87FD02C080E0C1C066E6B6
:101A100076E68AEA91E4A30192010E94B32C20E0C9
:101A200030E040E85FE30E944B2C7B018C0166E6CE
:101A300076E68AEA91ECA30192010E94B32C20E0A1
:101A400030E040E85FE30E944B2C5B016C012DB756
:101A50003EB7295030400FB6F8943EBF0FBE2DBFA1
:101A60008DB69EB60894811C911C6D817E818F81FC
:101A70009885A80197010E943C2E2CED38EB48E098
:101A80005EE30E94B32C0E94202D698F7A8F8B8F8A
:101A90009C8F69857A858B859C85A80197010E941A
:101AA0003C2E2CED38EB48E05EE30E94B32C0E9404
:101AB000202D6D8F7E8F8F8F98A36D857E858F856E
:101AC0009889A80197010E943C2E2CED38EB48E044
:101AD0005EE30E94B32C0E94202D2B013C016D81FE
:101AE0007E818F819885A60195010E943C2E2CED68
:101AF00038EB48E05EE30E94B32C0E94202DD40115
:101B00006D937C9369857A858B859C85A60195016B
:101B10000E943C2E2CED38EB48E05EE30E94B32C93
:101B20000E94202DF401738362836D857E858F85ED
:101B30009889A60195010E943C2E2CED38EB48E0D7
:101B40005EE30E94B32C0E94202DD40115967C9355
:101B50006E93149716962C92169718961C921E92B6
:101B6000179780E062E0432D298D3A8D0D8D1E8DF3
:101B70007201C22CAA24BB24832C0E948B1C81E0FE
:101B8000EDB7FEB739960FB6F894FEBF0FBEEDBFA6
:101B9000A0960FB6F894DEBF0FBECDBFCF91DF91F8
:101BA0001F910F91FF90EF90DF90CF90BF90AF907B
:101BB0009F908F907F906F905F904F903F902F906D
:101BC00008958F92AF92BF92CF92EF92FF920F93B0
:101BD0001F936093F1047093F2048093F304909345
:101BE000F4040E94202D8B019C018DB79EB70997AC
:101BF0000FB6F8949EBF0FBE8DBFEDB7FEB73196FE
:101C0000ADB7BEB712961C930E93119784EF91E077
:101C1000938382839583848316821086178281E062
:101C200062E041E0980104EF11E094EFE92E91E0C9
:101C3000F92ECC24AA24BB24882483940E948B1CD4
:101C40008DB79EB709960FB6F8949EBF0FBE8DBF95
:101C50001F910F91FF90EF90CF90BF90AF908F901A
:101C600008950E94B71F282F217020930A0690E044
:101C7000827090709595879580930B0608950E94C9
:101C800058056093010570930205809303059093B6
:101C900004050E946D056093990670939A068093DF
:101CA0009B0690939C0608950E94EF04609369043C
:101CB00070936A0480936B0490936C040E94CC042C
:101CC0006093730470937404809375049093760406
:101CD0000E94350560930C0670930D0680930E06E6
:101CE00090930F060E9412056093100670931106E0
:101CF00080931206909313060895CF92DF92EF928D
:101D0000FF920F931F93CF93DF93162FE42E5FE183
:101D1000F52EF8221F770F2D069506950695C02FF4
:101D2000D0E0C12EDD24CE01B6010E94591A802FC9
:101D3000612F0E94521AFE0145E0EE0FFF1F4A95E7
:101D4000E1F72F2D30E0EE2089F0EC0DFD1DEC5772
:101D5000FA4F2770307081E090E002C0880F991F21
:101D60002A95E2F72081282B208311C0EC0DFD1D60
:101D7000EC57FA4F2770307081E090E002C0880F76
:101D8000991F2A95E2F7809520818223808335E090
:101D9000CC0FDD1F3A95E1F7CC0DDD1DCC57DA4FA6
:101DA000888161E00E94721ADF91CF911F910F919B
:101DB000FF90EF90DF90CF9008957F928F929F9247
:101DC000AF92BF92CF92DF92EF92FF920F931F9349
:101DD000982EB62EC42EA22E702E8E2CBB0CBB0CB1
:101DE000BB0CDD2423E0CC0CDD1C2A95E1F71C2D77
:101DF0000FE10B19802F6C2D41E00E947D0E98E1C0
:101E0000E92EEB188E2D6C2D41E00E947D0E87E0AF
:101E1000F82EFC0C802F6F2D41E00E947D0E8E2D40
:101E20006F2D41E00E947D0ED92C93FE24C0612FBE
:101E30006F5F802F41E00E947D0E612F6E5F802FCB
:101E400041E00E947D0E612F6D5F802F41E00E9476
:101E50007D0E612F6C5F802F41E00E947D0E612F0F
:101E60006B5F802F41E00E947D0E612F6A5F802FA3
:101E700041E00E947D0ED2FE25C08B2D8095815EB3
:101E80006F2D41E00E947D0E8DE18B196F2D41E099
:101E90000E947D0E8CE18B196F2D41E00E947D0E1A
:101EA0008BE18B196F2D41E00E947D0E8AE18B1929
:101EB0006F2D41E00E947D0E89E18B196F2D41E06D
:101EC0000E947D0ED1FE24C0612F6F5F8E2D41E0F8
:101ED0000E947D0E612F6E5F8E2D41E00E947D0E6F
:101EE000612F6D5F8E2D41E00E947D0E612F6C5F32
:101EF0008E2D41E00E947D0E612F6B5F8E2D41E0A3
:101F00000E947D0E612F6A5F8E2D41E00E947D0E42
:101F1000D0FE25C08B2D8095815E612F41E00E940F
:101F20007D0E8DE18B19612F41E00E947D0E8CE1C9
:101F30008B19612F41E00E947D0E8BE18B19612F7F
:101F400041E00E947D0E8AE18B19612F41E00E94E1
:101F50007D0E89E18B19612F41E00E947D0EAA2040
:101F600009F487C00CE1F02EFB18B3E0CB2EC10EB4
:101F70008F2D6C2D4A2D0E947D0EABE1EA2EEB18C1
:101F80008E2D6C2D4A2D0E947D0EF4E0DF2ED10E99
:101F90008F2D6D2D4A2D0E947D0E8E2D6D2D4A2D7B
:101FA0000E947D0E81E07816C9F0781640F082E03C
:101FB000781649F183E0781609F094C03FC08DE1AE
:101FC0008B196C2D4A2D0E947D0E00E0882009F4AB
:101FD00001E01B5F8F2D612F402F0EC000E0882095
:101FE00009F401E08DE18B196C2D402F0E947D0ECC
:101FF0001B5F8F2D612F4A2D0E947D0E8AE18B1968
:102000006D2D402F14C000E0882009F401E08DE11F
:102010008B196C2D402F0E947D0E1B5F8F2D612F21
:10202000402F0E947D0E8AE18B196D2D4A2D0E9452
:102030007D0E13508E2D612F402F52C000E088205E
:1020400009F401E08DE18B196C2D402F0E947D0E6B
:102050001B5F8F2D612F402F0E947D0E8AE18B190F
:102060006D2D402F0E947D0E13508E2D612F4A2D15
:1020700037C08820B9F1ECE1CE2ECB1873E0E72E03
:10208000E10E8C2D6E2D40E00E947D0E0BE10B19B0
:10209000802F6E2D40E00E947D0E64E0F62EF10E42
:1020A0008C2D6F2D40E00E947D0E802F6F2D40E023
:1020B0000E947D0E8DE18B196E2D40E00E947D0EF9
:1020C0001B5F8C2D612F40E00E947D0E8AE18B19F1
:1020D0006F2D40E00E947D0E1350802F612F40E055
:1020E0000E947D0E1F910F91FF90EF90DF90CF9097
:1020F000BF90AF909F908F907F9008958F929F9206
:10210000AF92BF92CF92DF92EF92FF920F931F9305
:10211000CF93DF93882E942EA62EA694A69443E008
:10212000B42EB622CC24DD241DC08881FA1419F007
:1021300020E030E006C020E030E01B1511F421E083
:1021400030E06F2D412F082DE92C0E94DD0E1F5F1E
:102150002196143051F70894C11CD11C84E0C81694
:10216000D10451F0FC2CE601CC0FDD1FCC0FDD1F9C
:10217000CA51DD4F10E0D9CFDF91CF911F910F9160
:10218000FF90EF90DF90CF90BF90AF909F908F9097
:102190000895882391F080E090E0A0E0B0E0809383
:1021A000F1049093F204A093F304B093F40482E05A
:1021B00060E070E00E940E1E17C00E94C31B609377
:1021C000040670930506809306069093070640E088
:1021D000809106069091070620910406309105062D
:1021E000820F931F892B09F441E0842F08955F9299
:1021F0006F927F928F929F92AF92BF92CF92DF9217
:10220000EF92FF920F931F93CF93DF93E0906904B7
:10221000F0906A0400916B0410916C04C801B7013E
:1022200020E030E040E251E40E94AF2C181614F098
:1022300081E01BC15524C801B70120E030E040E037
:1022400050E00E94AF2C882314F455245394A0909E
:102250001006B0901106C0901206D0901306609040
:102260000C0670900D0680900E0690900F0655207B
:1022700041F560917304709174048091750490919C
:10228000760420E030E040E251E40E94AF2C87FD6C
:1022900018C0C601B50120E030E040E551E40E94DD
:1022A000AF2C87FD0EC0C401B30120E030E040E553
:1022B00051E40E94AF2C87FD04C082E064EF71E01E
:1022C000CFC0C601B50120E030E040E551E40E94F6
:1022D000FE2D181664F480E090E0A0E5B1E4809350
:1022E000100690931106A0931206B0931306C40132
:1022F000B30120E030E040E551E40E94FE2D1816C5
:1023000014F080E00DC080E090E0A0E5B1E480939F
:102310000C0690930D06A0930E06B0930F0681E075
:10232000552021F1882329F060E070E08AE794E4E9
:1023300004C060E070E08AE794ECA80197010E9475
:10234000B32C20910C0630910D0640910E06509151
:102350000F060E944B2C9B01AC01609110067091FE
:102360001106809112069091130610C0609110061C
:1023700070911106809112069091130620910C061F
:1023800030910D0640910E0650910F060E944A2C86
:10239000E62F2E2F372F482F592FB901CA0140E0C1
:1023A0000E94A1077B018C010E941B2DEB0177FF8E
:1023B00003C0D095C195DF4FC536D105FCF0C801EB
:1023C000B70120E030E040E050E00E94AF2C8823CD
:1023D000A9F0BE01882777FD8095982F0E944E2D89
:1023E0009B01AC01C801B7010E94B32C20E030E092
:1023F00048EC52E40E943C2E7B018C01C801B701DD
:1024000020E030E048EC52E40E94B32C7B018C01C8
:1024100020E030E04AE753E40E943C2E20E030E028
:102420004AE753E40E944B2C0E94202D9B01AC01F3
:1024300080E0B9010E94EC1DC801B70120E030E046
:102440004AE753EC0E943C2E20E030E04AE753E498
:102450000E944B2C0E94202D9B01AC0181E0B90110
:102460000E94EC1D80E00E94C910DF91CF911F9166
:102470000F91FF90EF90DF90CF90BF90AF909F9023
:102480008F907F906F905F9008950E943620909378
:10249000EE038093ED030E94991A9093EC038093CE
:1024A000EB030E94B0199093EA038093E9030E9422
:1024B000321D81E00E94B61B0E94991A0E94902151
:1024C0000E941D1981E00E947F190E94540E81E034
:1024D0000E940A068FEE90E0A5E8B1E48093F10433
:1024E0009093F204A093F304B093F40420E030E05E
:1024F0000AC01192019680329105D9F72F5F3F4FA4
:102500002430310559F0F90155E0EE0FFF1F5A95BF
:10251000E1F7EC57FA4F80E090E0EBCF0895089593
:10252000482F46954695582F5370A42FB0E0252F7D
:1025300030E0FD01EE0FFF1FEE0FFF1FE20FF31F54
:10254000EE59FC4F8081813009F453C0E42FE150F3
:10255000E43080F4F0E0EE0FFF1FEE0FFF1FE20FFC
:10256000F31FEE59FC4FE081E43620F4109207058A
:102570009E2F01C094E6842F8F5F843088F4E82F6B
:10258000F0E0EE0FFF1FEE0FFF1FE20FF31FEE59FB
:10259000FC4FE081E91720F482E0809307059E2F2D
:1025A000852F8F5F843081F0FD01EE0FFF1FEE0F4E
:1025B000FF1FE80FF11DEE59FC4FE081E91720F4F1
:1025C00081E0809307059E2F852F8150843080F411
:1025D000AA0FBB1FAA0FBB1FA80FB11DAE59BC4F3E
:1025E0008C91891728F483E08093070580E0089593
:1025F00080E00895FF920F931F93F82E162F83E02B
:102600008F15D0F16430C0F58F2D90E0880F991FA1
:10261000880F991F860F911DFC01EA51FD4F208103
:10262000FC01EE59FC4F2F3019F483E6808324C05F
:102630004083042F0F5F8F2D8150843018F4402F7A
:102640000E94FA128F2D8F5F843021F0612F402F6E
:102650000E94FA12612F6F5F643021F08F2D402F9E
:102660000E94FA12612F6150643020F48F2D402FA8
:102670000E94FA1281E001C080E01F910F91FF904B
:1026800008951F93109108068091710460910605CA
:1026900040E00E940008E12FE695E695F0E0EE0F9D
:1026A000FF1FEE0FFF1F1370E10FF11DEA51FD4FE9
:1026B00080831F910895EF92FF920F931F930091D3
:1026C0000806102F1695169583E0E82EE022E12FDC
:1026D000F0E0EE0FFF1FEE0FFF1FEE0DF11DEA51B0
:1026E000FD4FF080809171046091060540E00E94EA
:1026F00000088F15E9F08F25823061F0833018F4DF
:102700008130B1F405C0843069F0883089F40EC09E
:10271000015009C01F5F110F110F1E0D1093980675
:1027200081E007C00F5F00939806FACF1150F3CFF6
:1027300080E01F910F91FF90EF900895FF920F930B
:102740001F93142F082F0695069593E0F92EF82273
:10275000623031F06330A9F06130B1F4115012C031
:10276000413049F0413028F0423039F04330B9F47B
:1027700006C0015014C0F39412C00F5F10C0FA9449
:102780000EC01F5F13700BC000D084E491E0EDB762
:10279000FEB7928381830E9403360F900F901093AF
:1027A0000605000F000F802F8F0D1F910F91FF90D6
:1027B0000895DF92EF92FF920F931F93182F062F29
:1027C000FF2490E02BC0153088F5053078F5EF2D0B
:1027D000F0E0EE5AFC4FD580E28480816E2D40E01F
:1027E0000E940008E12FF0E0EE0FFF1FEE0FFF1F29
:1027F000E00FF11DEA51FD4F90818917B9F4110FD7
:10280000110F812F800F6D2D4E2D0E949E13982F3A
:10281000182F16951695082F0370F3948091610375
:10282000F81688F29093080681E001C080E01F91BD
:102830000F91FF90EF90DF900895CF92DF92EF928B
:10284000FF920F931F93DF93CF930F92CDB7DEB715
:10285000E09052031092A00600E010E01CC0F601C8
:102860008081E81669F48F2D692F99830E94D9130E
:102870009981882329F08091A0068F5F8093A0061C
:102880009F5F0894C11CD11C943049F70F5F1F4F04
:102890000430110561F0F02E6801CC0CDD1CCC0C6D
:1028A000DD1C86EE92E0C80ED91E90E0D8CF90E0F5
:1028B0008091A006813009F091E0892F0F90CF918F
:1028C000DF911F910F91FF90EF90DF90CF900895CF
:1028D0008091710480FD02C081E005C083FD02C0CB
:1028E00082E001C083E08093EF038091F0038130A8
:1028F00029F0813038F0843028F40FC082E08093D2
:10290000EF030BC000D08DE491E0EDB7FEB79283EA
:1029100081830E9403360F900F908091EF03809384
:10292000F003089580916103853080F0E2E5F3E0E3
:10293000818180838681858383858287319683E048
:10294000E735F807A9F784E0809361030E946814D3
:10295000E0916103F0E0EE5AFC4F809171048083B6
:102960009091EF0395838091060582879230B1F0B4
:10297000933021F0913039F4815001C08F5F837022
:10298000809306050BC000D086E591E0EDB7FEB759
:10299000928381830E9403360F900F908091610390
:1029A0008F5F80936103089590910605913091F0B7
:1029B000913028F09230D9F09330C1F523C0809146
:1029C0000705813091F0813068F1823049F1833020
:1029D00069F526C080910705813021F18130E8F04A
:1029E000823019F0833011F518C083E01CC080914B
:1029F00007058130C1F0813098F08230A1F083303A
:102A0000A9F411C080910705813069F0813028F068
:102A1000823031F0833051F405C09093EF03089574
:102A200081E001C082E08093EF03089500D08FE53C
:102A300091E0EDB7FEB7928381830E9403360F9039
:102A40000F900895CF92DF92EF92FF920F931F9312
:102A5000DF93CF930F92CDB7DEB780910806F82EA3
:102A6000F694F694982F937000910605CC24DD24FB
:102A7000F601EB50FB4F1081EF2DF0E0EE0FFF1F42
:102A8000EE0FFF1FE90FF11DEA51FD4F8081602F0E
:102A900041E099830E940008F601E457F94F8083D2
:102AA0009981123089F4013049F0013028F0023068
:102AB00039F0033089F406C0FA940EC09F5F0CC051
:102AC000F3940AC0915008C0133011F40F5F03C093
:102AD000113011F4015003700894C11CD11C8DE019
:102AE000C816D10429F6CC24DD2498E6E92E91E01D
:102AF000F92EF601E457F94F00810E949319202F17
:102B000030E0ADB7BEB754970FB6F894BEBF0FBE56
:102B1000ADBFEDB7FEB731961296FC92EE921197CB
:102B2000D382C282112707FD10950027110F001FC5
:102B3000112715830483C901B6E096958795BA9548
:102B4000E1F78170907097838683C901A5E096951F
:102B50008795AA95E1F78170907091878087C90168
:102B600074E0969587957A95E1F7817090709387D8
:102B70008287C90163E0969587956A95E1F7817030
:102B8000907095878487C9019695879596958795C6
:102B90008170907097878687C90196958795817017
:102BA0009070918B808B21703070338B228B0E94C0
:102BB0000336EDB7FEB774960FB6F894FEBF0FBE9E
:102BC000EDBF88EE93E00E9485200894C11CD11CC3
:102BD000FDE0CF16D10409F08CCF0F90CF91DF919B
:102BE0001F910F91FF90EF90DF90CF9008958F92FB
:102BF000AF92BF92CF92DF92EF92FF920F931F930B
:102C000060E070E080E090E041E00E94A1078091E8
:102C1000EF03823069F08330C1F08130D1F560E09C
:102C200070E080E090E020E030E044E851EC15C036
:102C300060E070E085EA93E40E94E10D0E94540E8A
:102C40000E94F7108823D1F317C060E070E080E0A5
:102C500090E020E030E044E851E40F2EF0E0EF2E69
:102C6000F0E0FF2EF0EF0F2FF1E41F2FF02D5701B2
:102C7000680188240E94310B82E061E00E94B51E49
:102C800082E390E00E94852082E060E00E94B51E11
:102C90000BC000D086E591E0EDB7FEB7928381834B
:102CA0000E9403360F900F901F910F91FF90EF90AD
:102CB000DF90CF90BF90AF908F900895EF92FF92EA
:102CC0000F931F93CF93DF9381E08093A106EAE8EF
:102CD000EE2EE1E0FE2E26C10E94540E0E94150841
:102CE0000E9441130E9468140E94F7158091080603
:102CF0006091EF03409106050E949E1380930806A1
:102D000090910906981741F420E030E09091050574
:102D100080910605981711F021E030E02093A1067C
:102D2000222309F404C10E9493198091EF03282FF4
:102D300030E060910806462F50E000910605A02F74
:102D4000B0E0CDB7DEB7E2970FB6F894DEBF0FBEA6
:102D5000CDBFEDB7FEB73196FA82E982992787FD9C
:102D600090958827990F881F992793838283C9019B
:102D700016E0969587951A95E1F781709070958386
:102D80008483C90175E0969587957A95E1F78170FE
:102D9000907097838683C90114E0969587951A955C
:102DA000E1F78170907091878087C90173E09695F3
:102DB00087957A95E1F78170907093878287C90132
:102DC000969587959695879581709070958784875D
:102DD000C901969587958170907097878687217035
:102DE0003070318B208B772767FD70956627770FC2
:102DF000661F7727738B628BCA0126E096958795AD
:102E00002A95E1F781709070958B848BCA0115E04B
:102E1000969587951A95E1F781709070978B868BC0
:102E2000CA0174E0969587957A95E1F78170907064
:102E3000918F808FCA0163E0969587956A95E1F737
:102E400081709070938F828FCA0196958795969521
:102E5000879581709070958F848FCA01969587951C
:102E600081709070978F868F4170507051A340A3EE
:102E7000112707FD10950027110F001F112713A31D
:102E800002A3CD0116E0969587951A95E1F781701A
:102E9000907095A384A3CD0175E0969587957A955A
:102EA000E1F78170907097A386A3CD0164E09695B9
:102EB00087956A95E1F78170907091A780A7CD0101
:102EC00053E0969587955A95E1F78170907093A796
:102ED00082A7CD019695879596958795817090707C
:102EE00095A784A7CD01969587958170907097A737
:102EF00086A7A170B070B1ABA0AB0E940336EDB74E
:102F0000FEB7F2960FB6F894FEBF0FBEEDBF8091EC
:102F100006056091080641E00E947E1084EF91E072
:102F20000E9485208091A106882309F0D5CEDF91EB
:102F3000CF911F910F91FF90EF9008951F931092E2
:102F40009D0610E06BC0112341F064EF71E080E05A
:102F500090E00E940E1B10E007C06AEF70E080E076
:102F600090E00E940E1B11E00E94931980910605CB
:102F7000813051F0813028F0823049F0833071F493
:102F800009C08DED91E008C08DEE91E005C08CEF99
:102F900091E002C08CE092E00E9415368091080614
:102FA0000E94901280939D068823E9F58091070581
:102FB000813051F0813028F0823049F0833071F453
:102FC00009C08BE192E008C08BE292E005C08AE381
:102FD00092E002C08AE492E00E9415368091EF03ED
:102FE000823051F0833029F0813051F489E592E04C
:102FF00005C086E692E002C084E792E00E941536A2
:103000000E94D4140E94F715809108066091EF0386
:10301000409106050E949E138093080680919D06AC
:10302000882309F490CF60E070E080E090E00E9497
:103030000E1B1F9108951F930E94451210920605C2
:103040000E94931984E892E00E9415360E9482053E
:10305000823029F0833049F0813069F402C011E0F8
:103060000BC080917704815003C0809177048F5FFB
:103070008F708093770410E080910605609177044B
:1030800041E00E947E1084E690E00E94852011239A
:10309000E9F20E94931983E992E00E9415360E949A
:1030A0008205823029F0833049F0813069F402C012
:1030B00011E00BC080910605815003C08091060588
:1030C0008F5F83708093060510E080910605609104
:1030D000770441E00E947E1084E690E00E94852003
:1030E0001123E9F20E94931984EA92E00E941536B6
:1030F0000E948205823011F411E001C010E080913D
:1031000006056091770441E00E947E1084E690E01D
:103110000E948520112361F360910806862F869511
:103120008695637040E00E94FA1281E080939E06CB
:1031300084E08093F0030CC00E94540E0E94150896
:103140000E9492140E941D1480939E060E94F715FF
:1031500080919E06882381F764EF71E080E090E023
:103160000E940E1B0E94931984EB92E00E94153678
:10317000809106056091080641E00E947E1088E873
:1031800093E10E94852060E070E080E090E00E9482
:103190000E1B10929F0618C00E94540E0E94150824
:1031A0000E945B1380939F06882391F40E94681409
:1031B000809108066091EF03409106050E949E13DE
:1031C000809308060E94F71580919F06882321F3BB
:1031D0000E949E170E94931900D000D0EDB7FEB751
:1031E000319685EC92E0ADB7BEB712969C938E9364
:1031F000119780919806828313820E9403360F9064
:103200000F900F900F9082E060E00E94B51E64EF77
:1032100071E080E090E00E940E1B88EB9BE00E9432
:10322000852060E070E080E090E00E940E1B88E561
:103230009BE10E9485201F9108958FE00E94281F26
:10324000882331F40E94B7218FE061E00E94701F53
:103250008FE091E008958FE00E94281F813019F0DF
:1032600020E030E013C080917A00806480937A007F
:1032700080917A0086FDFCCF309178002091790012
:10328000922F80E0232F30E0282B392BC90108959D
:10329000582F8091F6028830D8F440917E0021E0CA
:1032A00030E0B90102C0660F771F8A95E2F7CB01C3
:1032B0008095842380937E0080917E00052E02C03D
:1032C000220F331F0A94E2F7822B80937E000DC0F9
:1032D00020917E0081E090E0052E02C0880F991FAA
:1032E0000A94E2F7282B20937E005093F6028091F7
:1032F0007C005F71807E852B80937C000895ECE7D5
:10330000F0E090818295880F880F807C9F73982BC6
:10331000908308950E94D0210E94C2210E941B1810
:1033200080E090E008950F931F9380E460E00E9496
:10333000721A00E0802F60E00E94591A10E080E0CD
:1033400061E00E94721A1F5F1038C9F70F5F0430E6
:1033500089F783E060E00E94521A1F910F9108954F
:103360000F931F9382E00E94281F882311F482E0AC
:1033700006C081E00E94281F882319F481E090E0B4
:103380006DC00E94382485E061E00E94701F8EEAC3
:1033900060E00E94721A82EA60E00E94721A80EA7B
:1033A00060E00E94721A00E513ECC8010197F1F782
:1033B00080EC60E00E94721A8FE260E00E94721A54
:1033C00081E860E00E94721A86E160E00E94721A51
:1033D00082E260E00E94721AC8010197F1F78FEA59
:1033E00060E00E94721A86EA60E00E94721A85EA22
:1033F00060E00E94721A80E090E028E833E1F90171
:103400003197F1F7019643E0883E9407C1F783EBCB
:1034100060E00E94721A80E460E00E94721A83E009
:1034200060E00E94591A83E060E00E94521A1092F4
:10343000F0061092F2061092F1068DE393E090935D
:1034400021078093200788E10E94311A0E94931976
:1034500084EA60E00E94721A85E091E01F910F916A
:1034600008951F93182F85E00E94281F8130C1F412
:1034700087E00E94AE1A82E06AE00E94FF1A82E0B2
:1034800061EB0E94FF1A612F113208F060E282E0C6
:103490000E94FF1A89EE8A95F1F787E00E94AE1A22
:1034A0001F91089583706F776093EE068093EF0607
:1034B00008950F931F93062F162F1F778370806B2D
:1034C00060E00E94721A12951F70812F806160E087
:1034D0000E94721A802F8F7060E00E94721A1F91F2
:1034E0000F9108950F931F93082F162F85E00E94C8
:1034F000281F813079F4112319F0113021F402C012
:103500002B9801C02B9A86E08A95F1F780E0602F16
:103510000E94FF1A1F910F9108951F93182F86E0A4
:103520000E94281F813019F4812F0E94E7241F91E7
:1035300008950E94EC2486E061E00E94701F86E0FE
:1035400091E008951F93182F86E00E94281F813074
:1035500019F4812F0E94EF241F9108951F93182FB3
:1035600082E00E94281F813009F047C0912F977098
:103570008091F306981709F440C09093F30685B143
:10358000887F892B85B9933011F1943028F49130DC
:1035900051F0923090F40CC0953019F19530E0F074
:1035A000963021F50FC0E091D403F091D50322C0ED
:1035B000E091D203F091D3031DC0E091D603F091C6
:1035C000D70318C0E091DE03F091DF0313C0E09150
:1035D000D803F091D9030EC0E091DA03F091DB0338
:1035E00009C0E091DC03F091DD0304C0E091E00349
:1035F000F091E103309709F009951F9108951F9309
:10360000162F0E94AE1A82E00E94281F813021F4FA
:103610001EBD0DB407FEFDCF1F9108959B01AC01A7
:1036200080917303882381F0DA01C901880F991F03
:10363000AA1FBB1F90937F0380937E032115310542
:103640004105510509F45F9808950F931F93CF9397
:10365000DF9380E291E00E94E4339C019093810328
:1036600080938003892B11F480E039C08901C0E088
:10367000D0E0BE0180E090E00E944C2D20E030E0E0
:1036800040EA51E40E94B32C27EF35E740E05FE3C6
:103690000E943C2E9B01AC0160E070E080E291E46E
:1036A0000E949F2E9B01AC01CA01B9012DEC3CEC9C
:1036B00042E851E40E943C2E0E94022E2AE030E0B3
:1036C00040E050E00E946C33F80161937193819364
:1036D00091938F012196C834D10559F681E0DF918D
:1036E000CF911F910F9108958AE00E94281F88238F
:1036F00071F410927D0310927C0381E00E942A26CF
:1037000081E0809373038AE061E00E94701F8AE089
:1037100091E008951F938BE00E94281F882311F0E9
:1037200090E021C089E00E94281F8823D9F40E94DC
:10373000251B182F8130B1F4109274031092750379
:1037400010927603109277038DE06DEA75E20E9485
:10375000102482E00E942A261093720389E061E01F
:103760000E94701F91E089E01F910895813029F037
:10377000823031F090E089E008950E94741B089532
:103780000E948A1B08958091B4069091B5062091FD
:10379000B6063091B706BC01C90108952F923F9239
:1037A0004F925F926F927F928F929F92AF92BF9251
:1037B000CF92DF92EF92FF920F931F93DF93CF93FD
:1037C000CDB7DEB7582E962E442E39013C2CC98C2D
:1037D000DA8C2B8C81E0681739F1681728F092E0B9
:1037E000691709F085C049C080E061E00E94D71DDB
:1037F00080E0B7010E94A01D80E0642DA301980124
:10380000032DEE24E394E9EDCE2EE6E0DE2E0E94B9
:10381000291E552009F06CC000D00F92EDB7FEB7FD
:103820001182B382A28223C081E061E00E94D71D91
:1038300081E0B6010E94A01D81E0682D4D895E895E
:103840002F89388D022DEE24E39479EDC72E76E092
:10385000D72E0E94291E552009F04AC000D00F9291
:10386000EDB7FEB791828C8D9D8D938382830E94EC
:10387000DA1E0F900F900F903BC082E061E00E9433
:10388000D71D80E0B7010E94A01D81E0B6010E9413
:10389000A01D80E0642DA3019801032DEE24E39484
:1038A00099EDC92E96E0D92E0E94291E81E0682D3F
:1038B0004D895E892F89388D022D0E94291E552041
:1038C000B9F400D000D00F92ADB7BEB71196EDB7E6
:1038D000FEB79182FD01B282A1828C8D9D8D948371
:1038E00083830E94DA1E0F900F900F900F900F901D
:1038F000CF91DF911F910F91FF90EF90DF90CF90CC
:10390000BF90AF909F908F907F906F905F904F90FF
:103910003F902F9008956F927F928F929F92AF92D7
:10392000BF92CF92DF92EF92FF920F931F93DF939C
:10393000CF93CDB7DEB7942E7C2DD50149895A8916
:10394000AB88BC88CD88DE889F89813009F457C058
:103950008130B8F1823009F076C0613091F0613089
:1039600020F0623009F06FC015C080E060E00E9476
:10397000D71D80E0B7010E94A01D80E0692DA8013D
:103980001DC081E060E00E94D71D81E0B6010E9469
:10399000A01D11C082E060E00E94D71D80E0B70149
:1039A0000E94A01D81E0B6010E94A01D80E0692D4B
:1039B000A8010E94891D81E0682DA5010E94891D32
:1039C00042C0EDB7FEB739970FB6F894FEBF0FBEF1
:1039D000EDBF6DB67EB60894611C711C52834183A5
:1039E000F301B382A282D582C4829683888D998D99
:1039F0009087878380E0492DC72E5D011AC0EDB7FF
:103A0000FEB739970FB6F894FEBF0FBEEDBFADB746
:103A1000BEB7119652834183FD01B382A282D58243
:103A2000C48296831086178281E0492DC72EAA246E
:103A3000BB240E94CE1B8DB79EB709960FB6F89493
:103A40009EBF0FBE8DBFCF91DF911F910F91FF9051
:103A5000EF90DF90CF90BF90AF909F908F907F902E
:103A60006F9008950E94BC2681E08093D806E2EA18
:103A7000F6E0119211921182108232961182108218
:103A80003296118210823296118210823296118201
:103A900010823296118210823296118210823296F2
:103AA0001182108232961182108232961182108217
:103AB00032961182108232961182108236961192BD
:103AC00011921192108232961192119211921192CA
:103AD00011921192119211821082329611821082EB
:103AE000329611821082329611821082769711825C
:103AF00010823296118210821092D7061092D6064A
:103B00001092D80687E061E00E94701F87E091E084
:103B10000895EF92FF920F931F93182F062F7A01AB
:103B200060E00E94D71D812F602F0E94C21D812F4F
:103B3000B7010E94EC1D1F910F91FF90EF90089527
:103B4000482F81E08093D806CB0123E0693E7207BD
:103B500010F088EE93E0413071F0413018F04230BF
:103B600071F405C09093AD068093AC0608C09093A5
:103B7000AD068093AC069093AF068093AE0610928C
:103B8000D8060895982F81E08093D806913051F09F
:103B9000913018F0923041F403C06093C50604C020
:103BA0006093C5066093C6061092D8060895982FB4
:103BB00081E08093D806913051F0913018F0923026
:103BC00041F403C06093A20604C06093A206609310
:103BD000A3061092D8060895482F81E08093D80656
:103BE000CB0121E06139720710F080E991E04130AA
:103BF00071F0413018F0423071F405C09093A50681
:103C00008093A40608C09093A5068093A406909381
:103C1000A7068093A6061092D8060895982F81E0F3
:103C20008093D806913071F0913018F0923071F491
:103C300005C07093B5066093B40608C07093B506CE
:103C40006093B4067093B7066093B6061092D806D8
:103C500008958F929F92AF92BF92CF92DF92EF9290
:103C6000FF920F931F93CF93DF93182FF62E5A01D5
:103C70004901E60161E00E94D71D812FB501A40131
:103C80000E94DB26812F6F2D0E94C21D812F602F85
:103C90000E94C626812FB5010E940E1EC114D104B8
:103CA00099F0113049F0113018F0123069F406C063
:103CB00018821092D40608C0198204C01882198292
:103CC0001092D4061092D506D093D706C093D6068C
:103CD000EE20B9F582E893E09093D7068093D6065C
:103CE000812FB4010E94EC1D812F0E94A726113064
:103CF00071F0113018F0123059F512C01092820391
:103D00001092D406809182038823E1F321C010929F
:103D100083031092D506809183038823E1F318C0B2
:103D200010928203109283031092D4061092D5064B
:103D3000809182038823E1F3809183038823C1F378
:103D400007C0812FB4010E94EC1D812F0E94A7267D
:103D5000DF91CF911F910F91FF90EF90DF90CF9067
:103D6000BF90AF909F908F9008950F931F93182F3F
:103D7000062F662349F460E070E00E94EC1D812F5D
:103D800060E070E00E940E1E81E08093D806113042
:103D900051F0113018F0123041F403C00093C00606
:103DA00004C00093C0060093C1061092D8061F916C
:103DB0000F910895CF92DF92EF92FF920F931F938E
:103DC000DF93CF93CDB7DEB78B85813061F0813043
:103DD00018F08230A1F511C0EC85FD858091D906DF
:103DE0008823E1F306C0EC85FD858091DA068823FF
:103DF000E1F3309721F1099522C0CC84DD84EE8473
:103E0000FF8400E010E0002351F48091D90688235C
:103E100031F0C114D10411F0F601099501E011232C
:103E200051F48091DA06882331F0E114F10411F0A5
:103E3000F701099511E0002331F3112321F3CF910C
:103E4000DF911F910F91FF90EF90DF90CF90089539
:103E5000E82FF0E0E331F10540F4E25CFF4FEE0FB4
:103E6000FF1F0590F491E02D099480E00895809162
:103E7000DB0608958091DC0608958091DD060895A3
:103E80008091DE0608958091DF0608958091E10615
:103E900008958091E00608958091E206089580914A
:103EA000E30608958091E40608958091E50608955B
:103EB0008091E60608958091E70608958091E806CE
:103EC00008958091E90608958091EA060895809109
:103ED000EB0608958091EC0608958091ED06089513
:103EE000E82FF0E0E331F10508F040C0EF5AFF4F52
:103EF000EE0FFF1F0590F491E02D09946093DB060F
:103F000008956093DC0608956093DD06089560933C
:103F1000DE0608956093DF0608956093E106089534
:103F20006093E00608956093E20608956093E306C7
:103F300008956093E40608956093E50608956093FC
:103F4000E60608956093E70608956093E8060895ED
:103F50006093E90608956093EA0608956093EB067E
:103F600008956093EC0608956093EB0608950F930F
:103F70001F9381E00E94281F813011F000E024C0CF
:103F800087E00E94AE1A82E06AE00E94FF1A82E097
:103F900062EB0E94FF1A18EC812F8A95F1F782E0FC
:103FA00060E00E949225082F812F8A95F1F782E028
:103FB00060E00E9492251A95F1F787E00E94AE1A00
:103FC00088E893E10197F1F7802F1F910F910895F1
:103FD0001F93CF93DF93182F80918503882341F09F
:103FE00080918F03882399F01092850310928F039C
:103FF0000E94B71F8093840389E893E061E040E06A
:1040000022E330E00E94A62081E080938503909116
:104010008403A12FB0E0ED01C95CDC4F88818823C7
:1040200069F0FD01E65CFC4F80819823C1F0FD0141
:10403000EA57FC4F81E08083188211C0FD01EA57E6
:10404000FC4F808181111082FD01E65CFC4F808174
:10405000982329F4FD01E95CFC4F81E08083AA5795
:10406000BC4F8C91DF91CF911F91089582E00E9407
:10407000281F882319F490E082E008951092090720
:104080001092080710920B0710920A0710920D0762
:1040900010920C0710920F0710920E071092110742
:1040A0001092100780E991E09093F5068093F40652
:1040B0009093F7068093F6069093F9068093F8069E
:1040C0009093FB068093FA069093FD068093FC067E
:1040D00084E398E09093FF068093FE069093010797
:1040E000809300079093030780930207909305073E
:1040F00080930407909307078093060781E061E0AF
:104100000E94701F91E081E00895DF93CF93CDB7B7
:10411000DEB729970FB6F894DEBF0FBECDBF9C0166
:10412000CE01019661E040E00E94A620982F8823EE
:1041300019F48F818823E9F3892F29960FB6F89413
:10414000DEBF0FBECDBFCF91DF910895EF92FF92FA
:104150000F931F93CF93DF93EC01F62EE42E89018A
:1041600088E00E94281F813011F081E026C084E0A1
:1041700090E00E94E433FC01009711F482E01DC03E
:10418000F982F0FC1E8281E0E81619F489818460CE
:1041900089838981886089831B830A831D830C83BB
:1041A000D183C0831382128281E08093E203CF0126
:1041B0000E943B271092E20380E0DF91CF911F9194
:1041C0000F91FF90EF900895FC01809115078130C9
:1041D00011F085E0089580911607813011F08AE092
:1041E0000895613011F484EC01C084E88093BC0030
:1041F0008091BC0087FFFCCF613031F48091B90021
:10420000887F803559F405C08091B900887F883552
:1042100029F48091BB00808380E0089582E00895B6
:10422000982F80911507813011F085E008958091D5
:104230001607813011F08AE008959093BB0084E85E
:104240008093BC008091BC0087FFFCCF8091B900B7
:1042500090E0887F90708832910521F0C09721F41A
:1042600083E0089580E008958CE00895982F2091D0
:104270001507213011F085E00895809117078130EE
:1042800011F489E008952093160784EA8093BC0016
:104290008091BC0087FFFCCF8091B900887F883077
:1042A00039F08091B900887F803111F081E0089564
:1042B000613019F4990F916003C0662319F4990FC6
:1042C0009093BB0084E88093BC008091BC0087FF82
:1042D000FCCF613031F48091B900887F803441F4A3
:1042E00009C0662339F48091B900887F883111F0C4
:1042F00082E0089580E0089580911607813011F0E2
:104300008AE0089580911807813029F485E9809327
:10431000BC0080E0089584E98093BC0080E00895AB
:1043200082E10E94281F8823B1F410921507109291
:1043300016071092170710921807109219070E947B
:10434000D72787E160E00E94AE210E94CD2782E15D
:1043500061E00E94701F82E190E0089563706093B5
:10436000B9008093B80081E08093150708958FE12C
:1043700080937C00EAE7F0E087E0808380818068BA
:10438000808308950E9418270E94F4240E94242408
:104390000E94A4270E9459250E94362078940895EF
:1043A000000008951F920F920FB60F9211242F93C1
:1043B0003F934F935F936F937F938F939F93AF93AD
:1043C000BF93EF93FF93E091B203F091B303309763
:1043D00009F00995FF91EF91BF91AF919F918F9156
:1043E0007F916F915F914F913F912F910F900FBEF1
:1043F0000F901F9018951F920F920FB60F921124D5
:104400002F933F934F935F936F937F938F939F93DC
:10441000AF93BF93EF93FF93E091B403F091B50393
:10442000309709F00995FF91EF91BF91AF919F915E
:104430008F917F916F915F914F913F912F910F904D
:104440000FBE0F901F9018951F920F920FB60F92EC
:1044500011242F933F934F935F936F937F938F9389
:104460009F93AF93BF93EF93FF93E091B603F091C7
:10447000B703309709F00995FF91EF91BF91AF9184
:104480009F918F917F916F915F914F913F912F916C
:104490000F900FBE0F901F9018951F920F920FB69E
:1044A0000F9211242F933F934F935F936F937F93BA
:1044B0008F939F93AF93BF93EF93FF93E091A403E8
:1044C000F091A503309709F00995FF91EF91BF9105
:1044D000AF919F918F917F916F915F914F913F919C
:1044E0002F910F900FBE0F901F9018951F920F9253
:1044F0000FB60F9211242F933F934F935F936F93B7
:104500007F938F939F93AF93BF93EF93FF93E0912C
:10451000A603F091A703309709F00995FF91EF9159
:10452000BF91AF919F918F917F916F915F914F91CB
:104530003F912F910F900FBE0F901F9018951F92D3
:104540000F920FB60F9211242F933F934F935F93C7
:104550006F937F938F939F93AF93BF93EF93FF934B
:10456000E091A803F091A903309709F00995FF9114
:10457000EF91BF91AF919F918F917F916F915F91DB
:104580004F913F912F910F900FBE0F901F90189554
:104590001F920F920FB60F9211242F933F934F93B8
:1045A0005F936F937F938F939F93AF93BF93EF939B
:1045B000FF93E091AC03F091AD03309709F00995BA
:1045C000FF91EF91BF91AF919F918F917F916F91EB
:1045D0005F914F913F912F910F900FBE0F901F90C1
:1045E00018951F920F920FB60F9211242F933F939D
:1045F0004F935F936F937F938F939F93AF93BF93EB
:10460000EF93FF93E091AE03F091AF03309709F081
:104610000995FF91EF91BF91AF919F918F917F91FC
:104620006F915F914F913F912F910F900FBE0F901F
:104630001F9018951F920F920FB60F9211242F936F
:104640003F934F935F936F937F938F939F93AF931A
:10465000BF93EF93FF93E091AA03F091AB033097E0
:1046600009F00995FF91EF91BF91AF919F918F91C3
:104670007F916F915F914F913F912F910F900FBE5E
:104680000F901F9018951F920F920FB60F92112442
:104690002F933F934F935F936F937F938F939F934A
:1046A000AF93BF93EF93FF93E091B003F091B10309
:1046B000309709F00995FF91EF91BF91AF919F91CC
:1046C0008F917F916F915F914F913F912F910F90BB
:1046D0000FBE0F901F9018951F920F920FB60F925A
:1046E00011242F933F934F935F936F937F938F93F7
:1046F0009F93AF93BF93EF93FF93E0919A03F09151
:104700009B03309709F00995FF91EF91BF91AF910D
:104710009F918F917F916F915F914F913F912F91D9
:104720000F900FBE0F901F9018951F920F920FB60B
:104730000F9211242F933F934F935F936F937F9327
:104740008F939F93AF93BF93EF93FF93E0919C035D
:10475000F0919D03309709F00995FF91EF91BF917A
:10476000AF919F918F917F916F915F914F913F9109
:104770002F910F900FBE0F901F9018951F920F92C0
:104780000FB60F9211242F933F934F935F936F9324
:104790007F938F939F93AF93BF93EF93FF93E0919A
:1047A0009E03F0919F03309709F00995FF91EF91D7
:1047B000BF91AF919F918F917F916F915F914F9139
:1047C0003F912F910F900FBE0F901F9018951F9241
:1047D0000F920FB60F9211242F933F934F935F9335
:1047E0006F937F938F939F93AF93BF93EF93FF93B9
:1047F000E091A003F091A103309709F00995FF9192
:10480000EF91BF91AF919F918F917F916F915F9148
:104810004F913F912F910F900FBE0F901F901895C1
:10482000E82F803268F48051833050F0F0E0EE0FD2
:10483000FF1FEE56FC4F208131817183608302C0DF
:1048400020E030E0C901089580E10E94281F8823FC
:1048500061F4E2E9F3E01192119283E0E23DF8079E
:10486000D1F780E161E00E94701F80E191E008953E
:10487000239A0895FF920F931F93CF93DF93F82EFF
:104880008AE0F816B1F08F1548F0E8E0FE16B9F1AD
:10489000EF1538F1F7E0FF1651F43BC08DE0F81644
:1048A00059F0EBE1FE1689F0FCE0FF1641F001E063
:1048B00041C01092EE0603C01092EE063AC08091FD
:1048C000EF0681508093EF0634C00E94931914C004
:1048D00080E061E00E94721A8091EE068F5F809303
:1048E000EE068091EE0687FFF3CF1092EE068091E0
:1048F000EF0681508093EF0600E011E01CC080912C
:10490000EE068823B1F08091EE0686508093EE0685
:1049100010C081E00E94B61B64EF71E080E090E07F
:104920004DE750E024E630E00E94542681E00E94EA
:10493000202600E010E08091EF066091EE060E94D4
:10494000591A002351F185E0F89EC0011124EC01B1
:10495000C355DF4F8C010E541F4FFE01849161E05F
:104960000E94721A2196C017D107B9F780E061E062
:104970000E94721A8091EE068A5F8093EE06809103
:10498000EE0690E08C3791053CF01092EE06809197
:10499000EF0681508093EF0611E08091EF0683705F
:1049A0008093EF06113059F48091F006813039F48C
:1049B000E091F106F091F206309709F0099580E058
:1049C00090E0DF91CF911F910F91FF90089585FDA9
:1049D0005D9886FD5E980895559A569A089585FDCE
:1049E0005D9A86FD5E9A089580E00E94281F8823C4
:1049F00051F4F8940E94EB2781E00E94062580E0A4
:104A000061E00E94701F80E091E00895813049F0DC
:104A1000F894813020F18230B1F0833009F045C044
:104A200017C02C9A80E8809361001092610080E0AA
:104A300090E00000019688329105D9F71092680045
:104A400010926B00089580E88093610083E004C0B9
:104A500080E88093610088E08093610028C080E056
:104A600090E0000001962DE680369207D1F72C9851
:104A700080E090E0000001962DE680369207D1F7A5
:104A800010927A008FEF80936400809168008160BB
:104A90008093680080916B00846080936B007894B1
:104AA00083B7816083BF88950895823008F0789439
:104AB00008950F931F930E94172880E066E078E224
:104AC0000E94A42581E06EEF77E20E94A42582E097
:104AD00066EF77E20E94A42586E06EE078E20E940D
:104AE000A4250EEE17E283E0B8010E94A42584E01D
:104AF000B8010E94A42585E0B8010E94A42587E0A2
:104B0000B8010E94A42582E061E00E94701F8FEF2F
:104B10008093F30687E00E94AE1A82E091E01F9135
:104B20000F9108951F93162F0E94AE1A82E00E94E3
:104B3000281F813011F080E005C01EBD0DB407FEB6
:104B4000FDCF8EB51F910895E82FF0E0EE0FFF1F07
:104B5000EE52FC4F7183608308950E94B025089542
:104B60008091740390917503A0917603B0917703BF
:104B7000209178033091790340917A0350917B031F
:104B8000280F391F4A1F5B1F20937403309375034E
:104B9000409376035093770380917403909175034B
:104BA000A0917603B09177038851964FA040B04012
:104BB000BCF08BB180588BB98091740390917503D0
:104BC000A0917603B09177038851964FA040B040F2
:104BD0008093740390937503A0937603B093770347
:104BE00008958AE00E94281F813041F40E941E2807
:104BF000109273038AE060E00E94701F089589E0BC
:104C00000E94281F8130D9F480917203882311F00B
:104C10000E94A12682E00E941E288091800390912C
:104C20008103009731F00E94913410928103109219
:104C300080031092720389E060E00E94701F089563
:104C4000813029F0823029F40E94FF2508950E94C6
:104C5000F1250895982F80917203882331F4809173
:104C60007303882311F4579A5F9880917203882305
:104C7000D1F49230C1F410928000109281008091A2
:104C800081008860809381008091810081608093A1
:104C90008100109285001092840081E08093890049
:104CA00080E98093880008958F929F92AF92BF927F
:104CB000CF92DF92EF92FF920F931F93CF93DF93E8
:104CC0004B015C01EA01B9012115310539F19E0161
:104CD000442737FD4095542F6536710510F064E682
:104CE00070E080E090E00E946C3324E630E040E029
:104CF00050E00E948B3379018A01C501B4010E9402
:104D00000E1BC7010E94852060E070E080E090E00B
:104D10000E940E1BCE018E199F0904C0411551053A
:104D200019F0CA010E948520DF91CF911F910F9148
:104D3000FF90EF90DF90CF90BF90AF909F908F90BB
:104D40000895EFE6F0E080818D7F80830895982FAD
:104D500081E08093D806913051F0913018F0923074
:104D600041F403C01092C00604C01092C006109215
:104D7000C1061092D80608953A9A3B9A3C9A3D9AF9
:104D80003E9A3F9A88B1837088B90895982F81E040
:104D90008093D806913051F0913018F0923041F460
:104DA00003C06093C20604C06093C2066093C3064A
:104DB0001092D80608950F931F93CF93DF93EB01C2
:104DC0008A01813001F1813018F0823061F50DC027
:104DD0008091AC069091AD06892B11F080E01AC04D
:104DE0001092B9061092B8061EC08091AC06909140
:104DF000AD06892B21F080E00E943A2804C0109271
:104E0000B9061092B8068091AE069091AF06892B34
:104E100031F081E0BE01A8010E943A2804C010923E
:104E2000BB061092BA06DF91CF911F910F910895A2
:104E30001092DB061092DC061092E0061092DD065E
:104E40001092DF061092E1061092E2061092E3063D
:104E50001092E4061092E5061092E6061092E7061C
:104E60001092E8061092E9061092EA061092EB06FC
:104E70001092EC060895CF92DF92EF92FF920F937B
:104E80001F93CF93DF93EC0180911207882339F4AD
:104E9000D0931407C09313070E94C92747C0C0903E
:104EA0001307D090140700E010E0EE24FF2437C071
:104EB000A881B981FD0164817581F601408151812C
:104EC000FA01848195819B01281B390B37FF0FC0A4
:104ED000861B970B95838483DB82CA82012B29F47E
:104EE000D0931407C093130721C0F7010CC0F6013B
:104EF000828193812115310549F4FD0115821482C7
:104F00009B838A83F601D383C28310C0FD0135835E
:104F100024830097B9F30F5F1F4F76016C018091D6
:104F2000120790E00817190718F2ECCF80911207CA
:104F30008F5F80931207DF91CF911F910F91FF90A8
:104F4000EF90DF90CF90089588E00E94281F88237B
:104F5000B9F41092120710921407109213071092CE
:104F6000E2031092E30380E167EA78E20E94DA2725
:104F70000E94AE280E94C32788E061E00E94701F53
:104F800088E091E00895EEE6F0E080818260808321
:104F9000089581E08093E30308958091150781309F
:104FA00029F48091BC0084608093BC0008953898F7
:104FB00039980895803218F020E030E00AC0E82FD8
:104FC000F0E0EE0FFF1FEE56FC4F20813181718320
:104FD0006083C9010895249A2C9A089583E58CBDB5
:104FE00081E08DBD8DE08A95F1F7089583E58CBD54
:104FF0001DBC84EF91E00197F1F708958FE78CBD18
:105000001DBC84EF91E00197F1F7089583E58CBD15
:1050100081E08DBD8DE08A95F1F7089583E58CBD23
:1050200081E08DBD84EF91E00197F1F70895259A15
:105030002698279A209A219A229A0895823029F454
:10504000809181008E7F80938100809172038130F6
:1050500031F480917303813011F400000895809140
:105060007203813021F080917303813011F45F98D5
:1050700057980895EF92FF920F931F93CF93DF936A
:10508000EB01882321F0813009F05AC02DC09A012C
:1050900040E050E0CA01B9010E946C332091AC0697
:1050A0003091AD06220F331F40E050E00E948B3359
:1050B00079018A01A8019701220F331F441F551F50
:1050C000CE01A0E0B0E082179307A407B50728F04F
:1050D000F092B906E092B80633C0D695C795D09342
:1050E000B906C093B8062CC09A0140E050E0CA014E
:1050F000B9010E946C332091AE063091AF06220FA9
:10510000331F40E050E00E948B3379018A01A801EF
:105110009701220F331F441F551FCE01A0E0B0E0BE
:1051200082179307A407B50728F0F092BB06E09218
:10513000BA0606C0D695C795D093BB06C093BA06EB
:10514000DF91CF911F910F91FF90EF9008950E94F2
:10515000B7280E94F7280E94D028089584B582605D
:1051600084BD85B5846085BD8EE487BD089588E0E3
:105170000E94281F882311F484E008958091E3039E
:10518000882311F483E008958091E203882311F0CD
:1051900082E008950E94442B8130E1F380E008957D
:1051A00080917303813011F580917C0390917D0390
:1051B00020917E0330917F03280F391F30937D03A8
:1051C00020937C0380917C0390917D03885E9340C3
:1051D0006CF08BB180588BB980917C0390917D03EA
:1051E000885E934090937D0380937C03089587E0CD
:1051F0000E94281F813009F0AAC08091AC069091CE
:10520000AD06892B09F18091D0069091D1062091AD
:10521000AC063091AD06820F931F9093D106809318
:10522000D0068091D0069091D106885E9340A4F07C
:105230008091D0069091D106885E93409093D106DC
:105240008093D00641E009C08091A4069091A50604
:105250009093A9068093A80640E08091AE069091B5
:10526000AF06892B09F18091D2069091D306209147
:10527000AE063091AF06820F931F9093D3068093B2
:10528000D2068091D2069091D306885E9340A4F016
:105290008091D2069091D306885E93409093D30676
:1052A0008093D20661E009C08091A6069091A7067E
:1052B0009093AB068093AA0660E0842F0E94A829F1
:1052C0008091CC069091CD062091A8063091A90638
:1052D000280F391F3093CD062093CC068091CC0641
:1052E0009091CD06885E934014F440E00BC080910D
:1052F000CC069091CD06885E93409093CD06809326
:10530000CC0641E08091CE069091CF062091AA066E
:105310003091AB06280F391F3093CF062093CE066D
:105320008091CE069091CF06885E934014F460E0A1
:105330000BC08091CE069091CF06885E93409093EB
:10534000CF068093CE0661E0842F0E94ED29089558
:105350008823F1F02091A4063091A5068091A8063B
:105360009091A906281B390B1216130634F480916C
:10537000A8069091A906019607C0232B49F08091B9
:10538000A8069091A90601979093A9068093A80674
:10539000662311F12091A6063091A7068091AA06F6
:1053A0009091AB06281B390B1216130654F480910A
:1053B000AA069091AB0601969093AB068093AA063D
:1053C0000895232B49F08091AA069091AB0601978E
:1053D0009093AB068093AA0608950F931F93182FFE
:1053E000062F8091D806882309F0E7C08091C00677
:1053F000882309F05AC08091A8069091A906892BAC
:10540000E9F48091E403837E8093E4031092C9065B
:105410008091D406882309F45DC06091C20680E0C3
:105420000E94B51EE091D606F091D706309709F498
:1054300051C081E080831092D4064CC08091A206B6
:10544000813041F48091B4069091B506019711F432
:1054500011E002C01123F1F1E091C706F0E0E15D37
:10546000FC4F9091E403937E8081892B8093E40329
:105470008091C506882321F48091C7068F5F03C001
:105480008091C70681508093C7068091C7068370BC
:105490008093C70681E08093C9068091A20681307F
:1054A000C9F480E00E94F02A15C09091E403937E35
:1054B0009093E403E091C706F0E0E15DFC4F80814A
:1054C000892B8093E40382E08093C9061092A90699
:1054D0001092A8068091C106882309F059C08091D6
:1054E000AA069091AB06892BE9F48091E4038F71B1
:1054F0008093E4031092CA068091D506882309F4AC
:105500005CC06091C30681E00E94B51EE091D606A2
:10551000F091D706309709F450C081E08183109252
:10552000D5064BC08091A306813041F48091B60628
:105530009091B706019711F401E002C00023E9F150
:10554000E091C806F0E0ED5CFC4F9091E4039F71A0
:105550008081892B8093E4038091C606882321F4FF
:105560008091C8068F5F03C08091C80681508093E8
:10557000C8068091C80683708093C80681E0809336
:10558000CA068091A3068130C1F40E94F02A15C09A
:105590009091E4039F719093E403E091C806F0E0DA
:1055A000ED5CFC4F8081892B8093E40382E0809343
:1055B000CA061092AB061092AA068091CB068823E9
:1055C00031F484EE93E0612F402F0E94B22B88B11A
:1055D00083709091E403892B88B91F910F910895EE
:1055E000882321F0813009F04EC027C08091B40695
:1055F0009091B506892B49F08091B4069091B5063B
:1056000001979093B5068093B4068091D4068823C1
:10561000D1F52091B4063091B5068091B8069091ED
:10562000B9062817390779F580E060E070E00E943C
:10563000EC1D81E08093D40608958091B606909188
:10564000B706892B49F08091B6069091B70601976D
:105650009093B7068093B6068091D506882399F477
:105660002091B6063091B7068091BA069091BB069C
:105670002817390741F481E060E070E00E94EC1DDA
:1056800081E08093D5060895FF920F931F93CF93E7
:10569000DF9380911207882309F459C00091130702
:1056A00010911407F801C081D1818C819D810197EF
:1056B0009D838C83181619060CF449C0898180FFDC
:1056C00005C08E81882311F481E08E83898181FF5A
:1056D00003C0EF81F8850995809112078230A8F008
:1056E000F8018281938190931407809313071382AA
:1056F0001282E0910000F0910100848195811816DA
:1057000019063CF0FF24F39405C010921407109280
:105710001307FF2480911207815080931207809114
:105720001207882311F40E94AF2B898182FF08C0E1
:105730008A819B819D838C83C8010E943B2708C07E
:10574000C8010E94913489818F7E898301C0FF2422
:105750008F2DDF91CF911F910F91FF90089510929F
:10576000E3030895FC018091C906823069F48091B9
:10577000E80391E089278093E803882309F03EC07D
:105780008081837E80833AC08091A8069091A9068B
:10579000C397A4F56623D1F02091A8063091A906FD
:1057A00080E690E0BC01269FC001279F900D369FA8
:1057B000900D1124880F892F881F990B9093BD0697
:1057C0008093BC0681E08093E60318C08091E603D5
:1057D0008823A1F08091BC069091BD06019790931B
:1057E000BD068093BC068091BC069091BD06892BB6
:1057F00029F48081837E80831092E6038091CA061B
:10580000823069F48091E70391E089278093E70370
:10581000882309F03EC080818F7180830895809134
:10582000AA069091AB06C397A4F54423D1F020912A
:10583000AA063091AB0680E690E0AC01249FC0013F
:10584000259F900D349F900D1124880F892F881F5C
:10585000990B9093BF068093BE0681E08093E50389
:1058600008958091E5038823A1F08091BE06909170
:10587000BF0601979093BF068093BE068091BE0637
:105880009091BF06892B29F480818F7180831092BB
:10589000E50308955058BB27AA270ED075C166D1DD
:1058A00030F06BD120F031F49F3F11F41EF45BC156
:1058B0000EF4E095E7FB51C1E92F77D180F3BA17D9
:1058C000620773078407950718F071F49EF58FC17E
:1058D0000EF4E0950B2EBA2FA02D0B01B90190010B
:1058E0000C01CA01A0011124FF27591B99F0593F4F
:1058F00050F4503E68F11A16F040A22F232F342F97
:105900004427585FF3CF469537952795A795F040E4
:105910005395C9F77EF41F16BA0B620B730B840BF9
:10592000BAF09150A1F0FF0FBB1F661F771F881FB1
:10593000C2F70EC0BA0F621F731F841F48F4879509
:1059400077956795B795F7959E3F08F0B3CF9395F8
:10595000880F08F09927EE0F979587950895D9D06D
:1059600008F481E008950CD00FC107D140F0FED0BB
:1059700030F021F45F3F19F0F0C0511139C1F3C08C
:1059800014D198F39923C9F35523B1F3951B550B03
:10599000BB27AA2762177307840738F09F5F5F4F02
:1059A000220F331F441FAA1FA9F333D00E2E3AF043
:1059B000E0E830D091505040E695001CCAF729D05D
:1059C000FE2F27D0660F771F881FBB1F26173707AC
:1059D0004807AB07B0E809F0BB0B802DBF01FF27DC
:1059E00093585F4F2AF09E3F510568F0B6C000C142
:1059F0005F3FECF3983EDCF3869577956795B79516
:105A0000F7959F5FC9F7880F911D9695879597F930
:105A10000895E1E0660F771F881FBB1F62177307A9
:105A20008407BA0720F0621B730B840BBA0BEE1FBE
:105A300088F7E095089504D06894B111D9C008950D
:105A4000BCD088F09F5790F0B92F9927B751A0F09C
:105A5000D1F0660F771F881F991F1AF0BA95C9F702
:105A600012C0B13081F0C3D0B1E00895C0C0672F3B
:105A7000782F8827B85F39F0B93FCCF386957795B2
:105A80006795B395D9F73EF490958095709561959B
:105A90007F4F8F4F9F4F0895E89409C097FB3EF4C6
:105AA00090958095709561957F4F8F4F9F4F99236B
:105AB000A9F0F92F96E9BB279395F69587957795E9
:105AC0006795B795F111F8CFFAF4BB0F11F460FFA9
:105AD0001BC06F5F7F4F8F4F9F4F16C0882311F001
