:100000000C9431030C944E030C944E030C944E0349
:100010000C945F240C9488240C94B1240C94DA245E
:100020000C944E030C9440230C9469230C9492235B
:100030000C940D240C94BB230C94E4230C943624D0
:100040000C94C5220C94EE220C9417230C944E03AE
:100050000C944E030C944E030C944E030C944E03DC
:100060000C944E030C944E030C944E030C944E03CC
:100070000C944E030C944E030C944E032A202D2016
:10008000302033203C20362039203F20422045209C
:1000900048204B204E205120542057205A205D20CC
:1000A00060207120742077207A2083207D2080209A
:1000B000862089208C208F209220952098209B20BC
:1000C0009E20A120A420A72007634236B79BD8A773
:1000D0001A39685618AEBAAB558C1D3CB7CC57636D
:1000E000BD6DEDFD753EF6177231BF000000803F1B
:1000F00008000000BE922449123EABAAAA2ABECD37
:10010000CCCC4C3E00000080BEABAAAAAA3E0000A8
:100110000000BF000000803F0000000000084178A0
:10012000D3BB4387D1133D190E3CC3BD4282AD2BD7
:100130003E68EC8276BED98FE1A93E4C80EFFFBECF
:1001400001C4FF7F3F000000000016050100000011
:1001500000000000FA000000E000E00028FE28FE99
:10016000282454FE5448C4C81026466C92AA44A0C1
:1001700000A0C000000038448200008244380028FB
:10018000107C102810107C1010000A0C00001010B9
:10019000101010000606000004081020407C8A920F
:1001A000A27C0042FE020042868A92628482A2D22F
:1001B0008C182848FE08E4A2A2A29C3C5292920C01
:1001C000808E90A0C06C9292926C60929294780013
:1001D0006C6C0000006A6C00001028448200282823
:1001E000282828008244281040808A90604C929EE3
:1001F000827C7E8888887EFE9292926C7C8282824B
:1002000044FE82824438FE92929282FE90909080C8
:100210007C8292925EFE101010FE0082FE8200042C
:100220000282FC80FE10284482FE02020202FE408E
:100230003040FEFE201008FE7C8282827CFE909080
:1002400090607C828A847AFE909894626292929204
:100250008C8080FE8080FC020202FCF8040204F81C
:10026000FC021C02FCC6281028C6E0100E10E08616
:100270008A92A2C200FE82820040201008040082FE
:1002800082FE0020408040200202020202008040E4
:100290002000042A2A2A1EFE1222221C1C222222AC
:1002A000041C222212FE1C2A2A2A18107E9080404A
:1002B000304A4A4A7CFE1020201E0022BE02000462
:1002C0000222BC00FE081422000082FE02003E2032
:1002D00018201E3E1020201E1C2222221C3E2828F0
:1002E0002810102828183E3E10202010122A2A2AF2
:1002F0000420FC2202043C0202043E3804020438BA
:100300003C020C023C2214081422300A0A0A3C2245
:10031000262A322200106C82000000FE00000082BB
:100320006C1000081010081000000000007F818190
:10033000817F7F8383837F7F8787877F7F8F8F8F77
:100340007F7F9F9F9F7F7FBFBFBF7F7FFFFFFF7F1D
:100350002040FF4020621517156500FBFB000000E0
:1003600000000000C0FF0300E0FF0700F0FF0F00E7
:10037000F8FF1F0078001E0078001E0078001E00A5
:1003800078001E0078001E0078001E0078001E0015
:1003900078001E0078001E00000000000000000031
:1003A00080FF0300E0FF0700F0FF0F00F8FF1F00D1
:1003B000F83C1F00783C1E00783C1E00783C1E0074
:1003C000783C1E00783C1E00783C1E00783C1E00E5
:1003D000783C1E00783C1E00783C1E0000000000A7
:1003E00000000000E0FF0300F0FF0700F8FF0F002F
:1003F000F8FF1F00783C1E00783C1E00783C1E0071
:10040000783C1E00783C1E00783C1E00783C1E00A4
:10041000783C1E00783C1E00783C1E000000000066
:1004200000000000F8FF0300F8FF0F00F8FF1F00B6
:10043000F8FF1F0000001E0000001E0000801F00CB
:1004400000F01F0000FF0F00E0FF0700F0FF0000BA
:10045000F80F0000F80000007800000078000000AD
:10046000F8FF1F00F8FF1F00F0FF1F00E0FF1F0054
:100470000000000000000000F8FF1F00F8FF1F0050
:10048000F8FF1F00F8FF1F0078001E00783C1E00D8
:10049000783C1E00783C1E00783C1E00783C1E0014
:1004A000783C1E00F87E1F00F8FF1F00F0FF0F00D1
:1004B000E0E703000000000000003800EEFF6C00E1
:1004C0002A8045003A0047FC03FF6CFC83FF39009B
:1004D000DEFF0B7CD0810BFCD0810BC0D0810BFCEC
:1004E000D0810B7CDEFF0B0082FF397002FF6CF8BD
:1004F0003A0047DC2A8045CCEEFF6CCC0000380087
:100500000000000C00001E0C00001E0000001E0079
:1005100000001E0000001E00F8FF1F00F8FF1F0073
:10052000F8FF1F00F8FF1F0000001E0000001E0063
:1005300000001E0000001E0000005E0000004000E1
:1005400000007C00000040000000400000007C0033
:1005500000003000000010000000300000007C6E41
:10056000616E00696E660000407A10F35A00A07256
:100570004E18090010A5D4E80000E87648170000DE
:10058000E40B54020000CA9A3B000000E1F50500AC
:100590000080969800000040420F000000A08601F5
:1005A000000000102700000000E8030000000064C5
:1005B00000000000000A0000000000010000000030
:1005C000002C76D888DC674F0823DFC1DFAE59E105
:1005D000B1B796E5E3E453C63AE651997696E8E674
:1005E000C28426EB898C9B62ED407C6FFCEFBC9C47
:1005F0009F40F2BAA56FA5F490055A2AF75C936B59
:100600006CF9676DC11BFCE0E40D47FEF520E6B513
:1006100000D0ED902E0300943577050080841E08ED
:100620000000204E0A000000C80C333333330F980B
:100630006E12831141EF8D2114893BE65516CFFED2
:10064000E6DB18D1844B381BF77C1D901DA4BBE45E
:1006500024203284725E228100C9F124ECA1E53DA0
:10066000270011241FBECFEFD8E0DEBFCDBF14E0BE
:10067000A0E0B1E0EAE3FFE602C005900D92AE35DE
:10068000B107D9F718E0AEE5B4E001C01D92A03380
:10069000B107E1F70E947D1A0C949B370C9400007F
:1006A0001F93CF93DF93EC0188E660E00E9429223C
:1006B000182F8823A1F481E00E940322182F882399
:1006C00071F488E661E00E942922182F882339F40A
:1006D000CE0160E00E94D721182F811118820E945C
:1006E0006F22812FDF91CF911F9108951F93CF9398
:1006F000DF93EC0188E660E00E942922182F88230E
:10070000A1F489E00E940322182F882371F488E65F
:1007100061E00E942922182F882339F4CE0160E07D
:100720000E94D721182F811118820E946F22812FD9
:10073000DF91CF911F9108951F93CF93DF93EC0129
:1007400088E660E00E942922182F8823A1F488E01F
:100750000E940322182F882371F488E661E00E942A
:100760002922182F882339F4CE0160E00E94D72176
:10077000182F811118820E946F22812FDF91CF9153
:100780001F9108951F93CF93DF93EC0188E660E0FB
:100790000E942922182F8823A1F487E00E940322B7
:1007A000182F882371F488E661E00E942922182F0F
:1007B000882339F4CE0160E00E94D721182F8111DF
:1007C00018820E946F22812FDF91CF911F9108958F
:1007D0001F93CF93DF93EC0188E660E00E9429220B
:1007E000182F8823A1F486E00E940322182F882363
:1007F00071F488E661E00E942922182F882339F4D9
:10080000CE0160E00E94D721182F811118820E942A
:100810006F22812FDF91CF911F9108951F93CF9366
:10082000DF93EC0188E660E00E942922182F8823DC
:10083000A1F485E00E940322182F882371F488E632
:1008400061E00E942922182F882339F4CE0160E04C
:100850000E94D721182F811118820E946F22812FA8
:10086000DF91CF911F9108951F93CF93DF93EC01F8
:1008700088E660E00E942922182F8823A1F484E0F2
:100880000E940322182F882371F488E661E00E94F9
:100890002922182F882339F4CE0160E00E94D72145
:1008A000182F811118820E946F22812FDF91CF9122
:1008B0001F9108951F93CF93DF93EC0188E660E0CA
:1008C0000E942922182F8823A1F483E00E9403228A
:1008D000182F882371F488E661E00E942922182FDE
:1008E000882339F4CE0160E00E94D721182F8111AE
:1008F00018820E946F22812FDF91CF911F9108955E
:100900001F93CF93DF93EC0188E660E00E942922D9
:10091000182F8823A1F482E00E940322182F882335
:1009200071F488E661E00E942922182F882339F4A7
:10093000CE0160E00E94D721182F811118820E94F9
:100940006F22812FDF91CF911F9108951F93CF9335
:10095000DF93EC0188E660E00E942922182F8823AB
:10096000A1F480E00E940322182F882371F488E606
:1009700061E00E942922182F882339F4CE0160E01B
:100980000E94D721182F811118820E946F22812F77
:10099000DF91CF911F91089581E00E94721A85E046
:1009A0000E943B1A0E941E1AA0E0B0E0BC01CD01DB
:1009B0000E943F2E20E030E040EA50E40E943E2DAD
:1009C0009B01AC0160E070E286E395E40E94A62DF5
:1009D00020E030E040E85FE30E943D2D089581E093
:1009E0000E94721A87E00E943B1A0E941E1AA0E021
:1009F000B0E0BC01CD010E943F2E20E030E040EA93
:100A000050E40E943E2D9B01AC0160E070E286E361
:100A100095E40E94A62D20E030E040E85FE30E94CC
:100A20003D2D089581E00E94721A83E00E943B1AD6
:100A30000E941E1AA0E0B0E0BC01CD010E943F2E32
:100A400020E030E040EA50E40E943E2D9B01AC01E2
:100A500060E070E286E395E40E94A62D20E030E09D
:100A600040E85FE30E943D2D089581E00E94721AE4
:100A700084E00E943B1A0E941E1AA0E0B0E0BC0174
:100A8000CD010E943F2E20E030E040EA50E40E9479
:100A90003E2D9B01AC0160E070E286E395E40E948C
:100AA000A62D20E030E040E85FE30E943D2D089550
:100AB00081E00E94721A85E00E943B1A0E941E1A71
:100AC000A0E0B0E0BC01CD010E943F2E20E030E06C
:100AD00040EA5BE30E942F2F089581E00E94721A82
:100AE00086E00E943B1A0E941E1AA0E0B0E0BC0102
:100AF000CD010E943F2E20E030E040EA5BE30E94FF
:100B00002F2F08950F931F9381E08093FA0480E0C4
:100B10000E94DB20082F81E00E94DB20182F82E05A
:100B20000E94DB20113019F422E030E006C020E002
:100B300030E0013011F421E030E0813011F423E0A5
:100B400030E0C9011F910F910895FF920F931F93F9
:100B5000CF93DF930E94861A81E08093FA0480E0AD
:100B60000E94DB20182F81E00E94DB20082F82E00A
:100B70000E94DB20F82E113019F0C0E0D0E013C045
:100B800080E091E00E94083780E20E94951B84EF8C
:100B900091E00E94782180E40E94801B80E20E9404
:100BA000801BC1E0D0E0013099F48CE091E00E941C
:100BB000083780E40E94951B84EF91E00E94782121
:100BC00080E40E94801B80E20E94801BC2E0D0E093
:100BD00081E0F816B1F488E191E00E94083780E4E2
:100BE0000E94951B80E20E94951B84EF91E00E9479
:100BF000782180E40E94801B80E20E94801BC3E079
:100C0000D0E00E94861ACE01DF91CF911F910F9103
:100C1000FF9008952F923F924F925F926F927F9232
:100C20008F929F92AF92BF92CF92DF92EF92FF92FC
:100C30000F931F93DF93CF93CDB7DEB764970FB6B3
:100C4000F894DEBF0FBECDBF882339F58DE695E061
:100C50009C8B8B8BA0E9B7E0BE83AD83E8E8F6E020
:100C6000FC83EB8385EF95E09A8389830F2EF0E078
:100C70002F2EF0E03F2EF0E04F2EF0E05F2EF02D13
:100C80002F86388A498A5A8A2B863C864D865E860C
:100C90002F82388649865A8643C0A0901807B090A4
:100CA0001907C0901A07D0901B07E0901C07F0901E
:100CB0001D0700911E0710911F07209075053090A9
:100CC0007605409077055090780520917F0530910A
:100CD0008005409181055091820580E090E0FC0103
:100CE000E350FB4FA082B182C282D382FC01E05E5E
:100CF000F84FE082F18202831383FC01E85EF94F32
:100D00002082318242825382FC01EB57FA4F2083CA
:100D100031834283538304968837910501F796CF38
:100D2000AB89BC892D913D914D915C911397FD014B
:100D30002483358346835783AD81BE81ED90FD903A
:100D40000D911C911397FD01E482F58206831783B0
:100D5000AB81BC81AD90BD90CD90DC901397FD012F
:100D6000A482B582C682D782A981BA816D907D9016
:100D70008D909C901397FD01648275828682978284
:100D8000C201B1010E943E2D1B012C016F857889A3
:100D900089899A89A80197010E943E2D6F87788BD7
:100DA000898B9A8B6B857C858D859E85A6019501A7
:100DB0000E943E2D6B877C878D879E876F8178850B
:100DC00089859A85A40193010E943E2D6F837887BF
:100DD00089879A878B899C8904979C8B8B8BAD81A3
:100DE000BE811497BE83AD83EB81FC813497FC8375
:100DF000EB8389819A8104979A838983AB89BC8923
:100E0000A55FB44009F08CCF809118079091190725
:100E1000A0911A07B0911B07EB89FC898087918705
:100E2000A287B38780911C0790911D07A0911E0790
:100E3000B0911F078093200790932107A09322076A
:100E4000B09323078091750590917605A091770561
:100E5000B09178058093180690931906A0931A060E
:100E6000B0931B0680917F0590918005A09181052C
:100E7000B09182058093850590938605A0938705A0
:100E8000B0938805C201B10120E030E040EF51E4A9
:100E90000E94A62D609318077093190780931A0774
:100EA00090931B076F85788989899A8920E030E0C3
:100EB00040EF51E40E94A62D60931C0770931D071C
:100EC00080931E0790931F076B857C858D859E857B
:100ED00020E030E040EF51E40E94A62D60937505BC
:100EE0007093760580937705909378056F81788568
:100EF00089859A8520E030E040EF51E40E94A62DDC
:100F000060937F057093800580938105909382059F
:100F100064960FB6F894DEBF0FBECDBFCF91DF91C0
:100F20001F910F91FF90EF90DF90CF90BF90AF9007
:100F30009F908F907F906F905F904F903F902F90F9
:100F40000895AF92BF92CF92DF92EF92FF920F93EC
:100F50001F937B018C01442361F080E090E0A0E0CE
:100F6000B0E08093790590937A05A0937B05B093C8
:100F70007C05C801B7012091790530917A0540912F
:100F80007B0550917C050E943E2D5B016C016093B6
:100F9000790570937A0580937B0590937C05C80151
:100FA000B701209114063091150640911606509114
:100FB00017060E943D2D2DEC3CEC4CEC5DE30E94AD
:100FC0002F2F9B01AC01C801B7010E943E2D7B0170
:100FD0008C01C601B50120E030E040E050E00E9405
:100FE0002F2F9B01AC01C801B7010E943E2D1F911C
:100FF0000F91FF90EF90DF90CF90BF90AF9008954A
:10100000442381F006C0E82FF0E0EE5CFD4F8081C4
:1010100061506623C1F70895E82FF0E0EE5BFD4FC5
:10102000808161506623C1F70895EF92FF920F937C
:101030001F93609175057091760580917705909169
:10104000780520E030E040E251E40E94A22DF82E25
:10105000FF1CFF24FF1CFF0CFF0CFF0C6091180706
:101060007091190780911A0790911B0720E030E0DA
:1010700040EF51E40E94A22D082F001F0027001FFF
:10108000000F000F60917F057091800580918105B0
:101090009091820520E030E04CE052E40E94A22DC5
:1010A000182F111F1127111F110FEE2460911C071B
:1010B00070911D0780911E0790911F0720E030E07E
:1010C00040EF51E40E94A22D882314F4EE24E3940F
:1010D0008F2D8E0D800F810F80937D0520917E05D1
:1010E000E22FF0E0E856F84F91819093840589173C
:1010F00019F42F5F20937E051F910F91FF90EF90C1
:101100000895FF920F931F93CF93DF93FF24F394DF
:1011100010E0C4E2D1E00E948205082F813021F066
:10112000823011F0833039F4E12FF0E0EF5FF94FB6
:1011300000831F5F02C0882321F10E94861A8DB7A9
:101140009EB708970FB6F8949EBF0FBE8DBFEDB740
:10115000FEB73196ADB7BEB71296DC93CE9311971A
:10116000F282138204831582168317820E94F63658
:10117000F02E8DB79EB708960FB6F8949EBF0FBE9F
:101180008DBF84EF91E00E9478211B3020F21F5F19
:10119000E12FF0E0EF5FF94F84E08083DF91CF91A2
:1011A0001F910F91FF9008951F93CF93DF9310E04D
:1011B000C5E5D1E00E948205813021F480911407B9
:1011C000880F06C0823039F480911407880F8F5F32
:1011D000809314071F5F0E94861A00D000D000D0B1
:1011E000EDB7FEB73196ADB7BEB71296DC93CE938E
:1011F00011978091140782831382148315820E94B1
:10120000F6368DB79EB706960FB6F8949EBF0FBE02
:101210008DBF84EF91E00E947821143058F28091C4
:10122000140780931507DF91CF911F9108951F93A5
:10123000CF93DF9310E0CDE7D1E00E9482058130AB
:1012400021F480911206880F06C0823041F480910B
:101250001206880F8F5F809312061F5F02C08823DB
:10126000F1F00E94861A00D000D000D0EDB7FEB792
:101270003196ADB7BEB71296DC93CE93119780919D
:10128000120682831382148315820E94F6368DB76C
:101290009EB706960FB6F8949EBF0FBE8DBF84EF23
:1012A00091E00E947821123040F20E94861A8091CB
:1012B0001206813051F0813028F0823049F08330BD
:1012C00071F409C08CEA91E008C08EEC91E005C091
:1012D0008FEE91E002C081E192E00E940837809198
:1012E00012068093110684EF91E00E947821DF912D
:1012F000CF911F9108952F923F924F925F926F92DC
:101300007F928F929F92AF92BF92CF92DF92EF9295
:10131000FF920F931F93DF93CF93CDB7DEB7A097C4
:101320000FB6F894DEBF0FBECDBF2B013C012D835D
:101330003E834F835887E986FA860B871C87AD86E4
:10134000BE86CF86D88A282C3324CA01B90120E072
:1013500030E040E050E00E94F12E181614F43324DF
:1013600033946D817E818F8198852CED38EB48E038
:101370005EE30E94A62D0E940E2E9B0177FF03C004
:10138000309521953F4FB901882777FD8095982F9B
:101390000E94412E69837A838B839C8369857A8539
:1013A0008B859C852CED38EB48E05EE30E94A62DF2
:1013B0000E940E2E9B0177FF03C0309521953F4F71
:1013C000B901882777FD8095982F0E94412E4B0107
:1013D0005C016D857E858F8598892CED38EB48E022
:1013E0005EE30E94A62D0E940E2E9B0177FF03C094
:1013F000309521953F4FB901882777FD8095982F2B
:101400000E94412E6B017C01C301B20120E030E05B
:1014100040E05FE40E94A22D8823A1F569817A81D2
:101420008B819C810E94132E2B013C01C501B401CC
:101430000E94132E4B015C01C701B6010E94132EBE
:101440006B017C012DB73EB7295030400FB6F894A0
:101450003EBF0FBE2DBFEDB7FEB73196ADB7BEB7DD
:1014600012965C924E921197938282827583648366
:1014700026821086178281E062E0432D920184016A
:101480007601C1C1C301B20120E030E040E050E08C
:101490000E94A22D8823E9F569817A818B819C8144
:1014A0000E94132E3B01C501B4010E94132E8B0133
:1014B000C701B6010E94132E7B012DB73EB72950FC
:1014C00030400FB6F8943EBF0FBE2DBFEDB7FEB74C
:1014D000319640E0332009F441E071826082138349
:1014E0000283F582E48226821086178281E062E020
:1014F0009301C22CAA24BB24832C0E947E1D81E070
:10150000ADB7BEB719960FB6F894BEBF0FBEADBF4C
:1015100089C1C301B20120E030E040E050E00E9408
:10152000F12E18160CF0B1C066E676E68AEA91EC68
:10153000A30192010E94A62D20E030E040E85FE385
:101540000E943E2D7B018C0166E676E68AEA91E4F4
:10155000A30192010E94A62D20E030E040E85FE365
:101560000E943E2D5B016C01EDB7FEB739970FB6B7
:10157000F894FEBF0FBEEDBF8DB69EB60894811CD9
:10158000911C6D817E818F819885A80197010E94B1
:101590002F2F2CED38EB48E05EE30E94A62D0E9431
:1015A000132E698B7A8B8B8B9C8B69857A858B85C7
:1015B0009C85A80197010E942F2F2CED38EB48E065
:1015C0005EE30E94A62D0E94132E6D8B7E8B8F8B67
:1015D000988F6D857E858F859889A80197010E94D7
:1015E0002F2F2CED38EB48E05EE30E94A62D0E94E1
:1015F000132E2B013C016D817E818F819885A60180
:1016000095010E942F2F2CED38EB48E05EE30E94FD
:10161000A62D0E94132ED4016D937C9369857A8543
:101620008B859C85A60195010E942F2F2CED38EB10
:1016300048E05EE30E94A62D0E94132EF4017383FE
:1016400062836D857E858F859889A60195010E94AC
:101650002F2F2CED38EB48E05EE30E94A62D0E9470
:10166000132ED40115967C936E93149716962C9294
:10167000169718961C921E92179781E062E0432DF0
:1016800029893A890D891E89BDC0C301B20120E0B4
:1016900030E040E050E00E94A22D87FD02C080E0D3
:1016A000C1C066E676E68AEA91E4A30192010E944F
:1016B000A62D20E030E040E85FE30E943E2D7B0154
:1016C0008C0166E676E68AEA91ECA30192010E941B
:1016D000A62D20E030E040E85FE30E943E2D5B0154
:1016E0006C012DB73EB7295030400FB6F8943EBF7D
:1016F0000FBE2DBF8DB69EB60894811C911C6D81C6
:101700007E818F819885A80197010E942F2F2CED53
:1017100038EB48E05EE30E94A62D0E94132E698FED
:101720007A8F8B8F9C8F69857A858B859C85A801A4
:1017300097010E942F2F2CED38EB48E05EE30E94CA
:10174000A62D0E94132E6D8F7E8F8F8F98A36D858F
:101750007E858F859889A80197010E942F2F2CEDF7
:1017600038EB48E05EE30E94A62D0E94132E2B0169
:101770003C016D817E818F819885A60195010E9433
:101780002F2F2CED38EB48E05EE30E94A62D0E943F
:10179000132ED4016D937C9369857A858B859C8506
:1017A000A60195010E942F2F2CED38EB48E05EE357
:1017B0000E94A62D0E94132EF401738362836D850F
:1017C0007E858F859889A60195010E942F2F2CED8B
:1017D00038EB48E05EE30E94A62D0E94132ED40150
:1017E00015967C936E93149716962C9216971896CE
:1017F0001C921E92179781E062E0432D298D3A8D4D
:101800000D8D1E8D7201C22CAA24BB24832C0E9434
:101810007E1D81E0EDB7FEB739960FB6F894FEBF96
:101820000FBEEDBFA0960FB6F894DEBF0FBECDBFC2
:10183000CF91DF911F910F91FF90EF90DF90CF90AC
:10184000BF90AF909F908F907F906F905F904F90E0
:101850003F902F9008952F923F924F925F926F92F8
:101860007F928F929F92AF92BF92CF92DF92EF9230
:10187000FF920F931F93DF93CF93CDB7DEB7A0975F
:101880000FB6F894DEBF0FBECDBF2B013C012D83F8
:101890003E834F835887E986FA860B871C87AD867F
:1018A000BE86CF86D88A282C3324CA01B90120E00D
:1018B00030E040E050E00E94F12E181614F433247A
:1018C00033946D817E818F8198852CED38EB48E0D3
:1018D0005EE30E94A62D0E940E2E9B0177FF03C09F
:1018E000309521953F4FB901882777FD8095982F36
:1018F0000E94412E69837A838B839C8369857A85D4
:101900008B859C852CED38EB48E05EE30E94A62D8C
:101910000E940E2E9B0177FF03C0309521953F4F0B
:10192000B901882777FD8095982F0E94412E4B01A1
:101930005C016D857E858F8598892CED38EB48E0BC
:101940005EE30E94A62D0E940E2E9B0177FF03C02E
:10195000309521953F4FB901882777FD8095982FC5
:101960000E94412E6B017C01C301B20120E030E0F6
:1019700040E05FE40E94A22D8823A1F569817A816D
:101980008B819C810E94132E2B013C01C501B40167
:101990000E94132E4B015C01C701B6010E94132E59
:1019A0006B017C012DB73EB7295030400FB6F8943B
:1019B0003EBF0FBE2DBFEDB7FEB73196ADB7BEB778
:1019C00012965C924E921197938282827583648301
:1019D00026821086178280E062E0432D9201840106
:1019E0007601C1C1C301B20120E030E040E050E027
:1019F0000E94A22D8823E9F569817A818B819C81DF
:101A00000E94132E3B01C501B4010E94132E8B01CD
:101A1000C701B6010E94132E7B012DB73EB7295096
:101A200030400FB6F8943EBF0FBE2DBFEDB7FEB7E6
:101A3000319640E0332009F441E0718260821383E3
:101A40000283F582E48226821086178280E062E0BB
:101A50009301C22CAA24BB24832C0E947E1D81E00A
:101A6000ADB7BEB719960FB6F894BEBF0FBEADBFE7
:101A700089C1C301B20120E030E040E050E00E94A3
:101A8000F12E18160CF0B1C066E676E68AEA91EC03
:101A9000A30192010E94A62D20E030E040E85FE320
:101AA0000E943E2D7B018C0166E676E68AEA91E48F
:101AB000A30192010E94A62D20E030E040E85FE300
:101AC0000E943E2D5B016C01EDB7FEB739970FB652
:101AD000F894FEBF0FBEEDBF8DB69EB60894811C74
:101AE000911C6D817E818F819885A80197010E944C
:101AF0002F2F2CED38EB48E05EE30E94A62D0E94CC
:101B0000132E698B7A8B8B8B9C8B69857A858B8561
:101B10009C85A80197010E942F2F2CED38EB48E0FF
:101B20005EE30E94A62D0E94132E6D8B7E8B8F8B01
:101B3000988F6D857E858F859889A80197010E9471
:101B40002F2F2CED38EB48E05EE30E94A62D0E947B
:101B5000132E2B013C016D817E818F819885A6011A
:101B600095010E942F2F2CED38EB48E05EE30E9498
:101B7000A62D0E94132ED4016D937C9369857A85DE
:101B80008B859C85A60195010E942F2F2CED38EBAB
:101B900048E05EE30E94A62D0E94132EF401738399
:101BA00062836D857E858F859889A60195010E9447
:101BB0002F2F2CED38EB48E05EE30E94A62D0E940B
:101BC000132ED40115967C936E93149716962C922F
:101BD000169718961C921E92179780E062E0432D8C
:101BE00029893A890D891E89BDC0C301B20120E04F
:101BF00030E040E050E00E94A22D87FD02C080E06E
:101C0000C1C066E676E68AEA91E4A30192010E94E9
:101C1000A62D20E030E040E85FE30E943E2D7B01EE
:101C20008C0166E676E68AEA91ECA30192010E94B5
:101C3000A62D20E030E040E85FE30E943E2D5B01EE
:101C40006C012DB73EB7295030400FB6F8943EBF17
:101C50000FBE2DBF8DB69EB60894811C911C6D8160
:101C60007E818F819885A80197010E942F2F2CEDEE
:101C700038EB48E05EE30E94A62D0E94132E698F88
:101C80007A8F8B8F9C8F69857A858B859C85A8013F
:101C900097010E942F2F2CED38EB48E05EE30E9465
:101CA000A62D0E94132E6D8F7E8F8F8F98A36D852A
:101CB0007E858F859889A80197010E942F2F2CED92
:101CC00038EB48E05EE30E94A62D0E94132E2B0104
:101CD0003C016D817E818F819885A60195010E94CE
:101CE0002F2F2CED38EB48E05EE30E94A62D0E94DA
:101CF000132ED4016D937C9369857A858B859C85A1
:101D0000A60195010E942F2F2CED38EB48E05EE3F1
:101D10000E94A62D0E94132EF401738362836D85A9
:101D20007E858F859889A60195010E942F2F2CED25
:101D300038EB48E05EE30E94A62D0E94132ED401EA
:101D400015967C936E93149716962C921697189668
:101D50001C921E92179780E062E0432D298D3A8DE8
:101D60000D8D1E8D7201C22CAA24BB24832C0E94CF
:101D70007E1D81E0EDB7FEB739960FB6F894FEBF31
:101D80000FBEEDBFA0960FB6F894DEBF0FBECDBF5D
:101D9000CF91DF911F910F91FF90EF90DF90CF9047
:101DA000BF90AF909F908F907F906F905F904F907B
:101DB0003F902F9008958F92AF92BF92CF92EF9263
:101DC000FF920F931F936093FD057093FE05809320
:101DD000FF05909300060E94132E8B019C018DB786
:101DE0009EB709970FB6F8949EBF0FBE8DBFEDB793
:101DF000FEB73196ADB7BEB712961C930E931197EE
:101E000084EF91E093838283958384831682108686
:101E1000178281E062E041E0980104EF11E094EF65
:101E2000E92E91E0F92ECC24AA24BB2488248394A3
:101E30000E947E1D8DB79EB709960FB6F8949EBF7F
:101E40000FBE8DBF1F910F91FF90EF90CF90BF906D
:101E5000AF908F9008950E94AA20282F2170209380
:101E6000160790E08270907095958795809317077C
:101E700008950E94580560930D0670930E06809396
:101E80000F06909310060E946D056093A50770934E
:101E9000A6078093A7079093A80708950E94EF04D0
:101EA0006093750570937605809377059093780518
:101EB0000E94CC0460937F05709380058093810518
:101EC000909382050E943505609318077093190757
:101ED00080931A0790931B070E94120560931C07BA
:101EE00070931D0780931E0790931F070895CF924C
:101EF000DF92EF92FF920F931F93CF93DF93162FF2
:101F0000E42E5FE1F52EF8221F770F2D069506953A
:101F10000695C02FD0E0C12EDD24CE01B6010E946F
:101F20004C1B802F612F0E94451BFE0145E0EE0FE8
:101F3000FF1F4A95E1F72F2D30E0EE2089F0EC0DE0
:101F4000FD1DE057F94F2770307081E090E002C02E
:101F5000880F991F2A95E2F72081282B208311C032
:101F6000EC0DFD1DE057F94F2770307081E090E0D7
:101F700002C0880F991F2A95E2F78095208182235D
:101F8000808335E0CC0FDD1F3A95E1F7CC0DDD1DE8
:101F9000C057D94F888161E00E94651BDF91CF91C6
:101FA0001F910F91FF90EF90DF90CF9008957F9257
:101FB0008F929F92AF92BF92CF92DF92EF92FF9259
:101FC0000F931F93982EB62EC42EA22E802E7E2CF9
:101FD000BB0CBB0CBB0CDD2423E0CC0CDD1C2A9518
:101FE000E1F71C2D0FE10B19802F6C2D41E00E94B1
:101FF000770F98E1E92EEB188E2D6C2D41E00E94B1
:10200000770F87E0F82EFC0C802F6F2D41E00E94A7
:10201000770F8E2D6F2D41E00E94770FC92C93FE14
:1020200024C0612F6F5F802F41E00E94770F612FE6
:102030006E5F802F41E00E94770F612F6D5F802FD0
:1020400041E00E94770F612F6C5F802F41E00E947A
:10205000770F612F6B5F802F41E00E94770F612F18
:102060006A5F802F41E00E94770FC2FE25C08B2D52
:102070008095815E6F2D41E00E94770F8DE18B1975
:102080006F2D41E00E94770F8CE18B196F2D41E09D
:102090000E94770F8BE18B196F2D41E00E94770F23
:1020A0008AE18B196F2D41E00E94770F89E18B192E
:1020B0006F2D41E00E94770FC1FE24C0612F6F5F3A
:1020C0008E2D41E00E94770F612F6E5F8E2D41E0D3
:1020D0000E94770F612F6D5F8E2D41E00E94770F78
:1020E000612F6C5F8E2D41E00E94770F612F6B5F37
:1020F0008E2D41E00E94770F612F6A5F8E2D41E0A7
:102100000E94770FC0FE25C08B2D8095815E612FC8
:1021100041E00E94770F8DE18B19612F41E00E9411
:10212000770F8CE18B19612F41E00E94770F8BE1D3
:102130008B19612F41E00E94770F8AE18B19612F83
:1021400041E00E94770F89E18B19612F41E00E94E5
:10215000770FAA20E1F1BCE1EB2EEB18A3E0CA2E29
:10216000C10E8E2D6C2D4A2D0E94770FFBE1FF2EA4
:10217000FB188F2D6C2D4A2D0E94770F012F0C5FBD
:102180008E2D602F4A2D0E94770F8F2D602F4A2DA4
:102190000E94770F81E0881671F0881640F082E087
:1021A000881661F083E0881609F04AC00BC08DE103
:1021B0008B196C2D0AC01B5F8E2D06C08AE18B190E
:1021C000602F03C01E5F8F2D612F4A2D37C07720EF
:1021D000B9F1ECE1CE2ECB1873E0E72EE10E8C2D99
:1021E0006E2D40E00E94770F0BE10B19802F6E2DB2
:1021F00040E00E94770F64E0F62EF10E8C2D6F2DDB
:1022000040E00E94770F802F6F2D40E00E94770FF3
:102210008DE18B196E2D40E00E94770F1B5F8C2D96
:10222000612F40E00E94770F8AE18B196F2D40E00B
:102230000E94770F1350802F612F40E00E94770F8C
:102240001F910F91FF90EF90DF90CF90BF90AF90D4
:102250009F908F907F9008958F929F92AF92BF92A0
:10226000CF92DF92EF92FF920F931F93CF93DF9362
:10227000882E942EA62EA694A69443E0B42EB622C1
:10228000CC24DD241DC08881FA1419F020E030E050
:1022900006C020E030E01B1511F421E030E06F2D86
:1022A000412F082DE92C0E94D70F1F5F2196143073
:1022B00051F70894C11CD11C84E0C816D10451F018
:1022C000FC2CE601CC0FDD1FCC0FDD1FCD50DC4F09
:1022D00010E0D9CFDF91CF911F910F91FF90EF9038
:1022E000DF90CF90BF90AF909F908F9008958823FC
:1022F00091F080E090E0A0E0B0E08093FD05909345
:10230000FE05A093FF05B093000682E060E070E058
:102310000E94011F17C00E94B61C609310077093A3
:102320001107809312079093130740E080911207E2
:10233000909113072091100730911107820F931F7E
:10234000892B09F441E0842F08955F926F927F9268
:102350008F929F92AF92BF92CF92DF92EF92FF92B5
:102360000F931F93CF93DF93E0907505F090760560
:102370000091770510917805C801B70120E030E0A1
:1023800040E251E40E94A22D181614F081E01BC116
:102390005524C801B70120E030E040E050E00E9441
:1023A000A22D882314F455245394A0901C07B090B8
:1023B0001D07C0901E07D0901F07609018077090EF
:1023C000190780901A0790901B07552041F56091DE
:1023D0007F0570918005809181059091820520E0B4
:1023E00030E040E251E40E94A22D87FD18C0C601F2
:1023F000B50120E030E040E551E40E94A22D87FDC8
:102400000EC0C401B30120E030E040E551E40E9479
:10241000A22D87FD04C082E064EF71E0CFC0C60149
:10242000B50120E030E040E551E40E94F12E18169D
:1024300064F480E090E0A0E5B1E480931C07909301
:102440001D07A0931E07B0931F07C401B30120E02E
:1024500030E040E551E40E94F12E181614F080E0BF
:102460000DC080E090E0A0E5B1E480931807909360
:102470001907A0931A07B0931B0781E0552021F19B
:10248000882329F060E070E08AE794E404C060E00B
:1024900070E08AE794ECA80197010E94A62D209194
:1024A00018073091190740911A0750911B070E9495
:1024B0003E2D9B01AC0160911C0770911D0780911E
:1024C0001E0790911F0710C060911C0770911D0797
:1024D00080911E0790911F072091180730911907CE
:1024E00040911A0750911B070E943D2DE62F2E2F79
:1024F000372F482F592FB901CA0140E00E94A10788
:102500007B018C010E940E2EEB0177FF03C0D0955A
:10251000C195DF4FC536D105FCF0C801B70120E0F9
:1025200030E040E050E00E94A22D8823A9F0BE01D7
:10253000882777FD8095982F0E94412E9B01AC0142
:10254000C801B7010E94A62D20E030E048EC52E41B
:102550000E942F2F7B018C01C801B70120E030E0E1
:1025600048EC52E40E94A62D7B018C0120E030E073
:102570004AE753E40E942F2F20E030E04AE753E47B
:102580000E943E2D0E94132E9B01AC0180E0B901F8
:102590000E94DF1EC801B70120E030E04AE753EC9B
:1025A0000E942F2F20E030E04AE753E40E943E2DA6
:1025B0000E94132E9B01AC0181E0B9010E94DF1E35
:1025C00080E00E947711DF91CF911F910F91FF90D2
:1025D000EF90DF90CF90BF90AF909F908F907F90C3
:1025E0006F905F9008950E9429219093FA04809340
:1025F000F9040E948C1B9093F8048093F7040E94C6
:10260000A31A9093F6048093F5040E94251E81E09E
:102610000E94A91C0E948C1B0E9483220E94101AF7
:1026200081E00E94721A0E944E0F81E00E940A0609
:102630008FEE90E0A5E8B1E48093FD059093FE0550
:10264000A093FF05B093000620E030E00AC011928D
:10265000019680329105D9F72F5F3F4F2430310525
:1026600059F0F90155E0EE0FFF1F5A95E1F7E057D9
:10267000F94F80E090E0EBCF08950895482F4695FC
:102680004695582F5370A42FB0E0252F30E0FD0160
:10269000EE0FFF1FEE0FFF1FE20FF31FE259FB4F7C
:1026A0008081882311F481E00895E42FE150E43023
:1026B00080F4F0E0EE0FFF1FEE0FFF1FE20FF31F9D
:1026C000E259FB4FE081E43620F4109213069E2F6E
:1026D00001C094E6842F8F5F843088F4E82FF0E007
:1026E000EE0FFF1FEE0FFF1FE20FF31FE259FB4F2C
:1026F000E081E91720F482E0809313069E2F852F56
:102700008F5F843081F0FD01EE0FFF1FEE0FFF1F82
:10271000E80FF11DE259FB4FE081E91720F481E059
:10272000809313069E2F852F8150843080F4AA0F4A
:10273000BB1FAA0FBB1FA80FB11DA259BB4F8C9185
:10274000891728F483E08093130680E0089580E0E1
:102750000895BF92CF92DF92EF92FF920F931F9353
:10276000CF93DF9380918305282F30E02370307062
:102770008695869590E0CC27DD27C81BD90B00E015
:1027800010E0CC24DD24C21AD30AF3E6BF2E25C004
:102790008C918F3011F4B08211C09A0157FF04C0A0
:1027A00022273327241B350B229FC001239F900D26
:1027B000329F900D11248E0D9F1D80836F5F7F4F80
:1027C000119631964F5F5F4F6430710509F70F5FC7
:1027D0001F4F219604301105E9F0CE01D7FF04C048
:1027E000882799278C1B9D0B889F7001899FF00C6F
:1027F000989FF00C1124C801880F991F880F991F0A
:10280000DC01AD50BC4FFC01E259FB4FA60160E07A
:1028100070E0BECFDF91CF911F910F91FF90EF90AD
:10282000DF90CF90BF9008951F931091140780916F
:102830007D056091120640E00E940008E12FE695B8
:10284000E695F0E0EE0FFF1FEE0FFF1F1370E10F94
:10285000F11DED50FC4F80831F910895EF92FF9280
:102860000F931F9300911407102F1695169583E070
:10287000E82EE022E12FF0E0EE0FFF1FEE0FFF1F2A
:10288000EE0DF11DED50FC4FF08080917D056091C3
:10289000120640E00E9400088F15E9F08F25823073
:1028A00061F0833018F48130B1F405C0843069F0F0
:1028B000883089F40EC0015009C01F5F110F110F3D
:1028C0001E0D1093A40781E007C00F5F0093A407BB
:1028D000FACF1150F3CF80E01F910F91FF90EF904E
:1028E0000895FF920F931F93142F082F06950695B6
:1028F00093E0F92EF822623031F06330A9F06130B4
:10290000B1F4115012C0413049F0413028F042304A
:1029100039F04330B9F406C0015014C0F39412C02A
:102920000F5F10C0FA940EC01F5F13700BC000D071
:1029300082E592E0EDB7FEB7928381830E94F6367E
:102940000F900F9010931206000F000F802F8F0D25
:102950001F910F91FF900895DF92EF92FF920F93D6
:102960001F93182F062FFF2490E02BC0153088F5F9
:10297000053078F5EF2DF0E0E25AFB4FD580E28488
:1029800080816E2D40E00E940008E12FF0E0EE0F04
:10299000FF1FEE0FFF1FE00FF11DED50FC4F908168
:1029A0008917B9F4110F110F812F800F6D2D4E2D46
:1029B0000E947114982F182F16951695082F0370E2
:1029C000F39480916D04F81688F29093140781E0D7
:1029D00001C080E01F910F91FF90EF90DF9008956C
:1029E000CF92DF92EF92FF920F931F93DF93CF93DB
:1029F0000F92CDB7DEB7E0905E041092AC0700E016
:102A000010E01CC0F6018081E81669F48F2D692F53
:102A100099830E94AC149981882329F08091AC0796
:102A20008F5F8093AC079F5F0894C11CD11C9430CA
:102A300049F70F5F1F4F0430110561F0F02E680158
:102A4000CC0CDD1CCC0CDD1C83EF93E0C80ED91E32
:102A500090E0D8CF90E08091AC07813009F091E010
:102A6000892F0F90CF91DF911F910F91FF90EF90E1
:102A7000DF90CF90089580917D0580FD02C081E0B8
:102A800005C083FD02C082E001C083E08093FB04A7
:102A90008091FC04813029F0813038F0843028F4B2
:102AA0000FC082E08093FB040BC000D08BE592E066
:102AB000EDB7FEB7928381830E94F6360F900F9098
:102AC0008091FB048093FC04089580916D0485300F
:102AD00080F0EEE5F4E081818083868185838385C3
:102AE0008287319684E0E336F807A9F784E0809383
:102AF0006D040E943B15E0916D04F0E0E25AFB4F3B
:102B000080917D0580839091FB04958380911206CE
:102B100082879230B1F0933021F0913039F48150B6
:102B200001C08F5F8370809312060BC000D084E6D3
:102B300092E0EDB7FEB7928381830E94F6360F9044
:102B40000F9080916D048F5F80936D040895909134
:102B50001206913091F0913028F09230D9F09330F4
:102B6000C1F523C080911306813091F0813068F166
:102B7000823049F1833069F526C080911306813097
:102B800021F18130E8F0823019F0833011F518C05E
:102B900083E01CC0809113068130C1F0813098F031
:102BA0008230A1F08330A9F411C0809113068130E6
:102BB00069F0813028F0823031F0833051F405C063
:102BC0009093FB04089581E001C082E08093FB04B0
:102BD000089500D08DE692E0EDB7FEB79283818331
:102BE0000E94F6360F900F900895CF92DF92EF92E9
:102BF000FF920F931F93DF93CF930F92CDB7DEB762
:102C000080911407F82EF694F694982F9370009103
:102C10001206CC24DD24F601EF5FF94F1081EF2D71
:102C2000F0E0EE0FFF1FEE0FFF1FE90FF11DED505B
:102C3000FC4F8081602F41E099830E940008F601DB
:102C4000E856F84F80839981123089F4013049F0B9
:102C5000013028F0023039F0033089F406C0FA94CC
:102C60000EC09F5F0CC0F3940AC0915008C013308F
:102C700011F40F5F03C0113011F401500370089478
:102C8000C11CD11C8DE0C816D10429F6CC24DD244A
:102C900096E7E92E92E0F92EF601E856F84F00810A
:102CA0000E94861A202F30E0ADB7BEB754970FB6FA
:102CB000F894BEBF0FBEADBFEDB7FEB7319612960A
:102CC000FC92EE921197D382C282112707FD1095D4
:102CD0000027110F001F112715830483C901B6E0D7
:102CE00096958795BA95E1F7817090709783868362
:102CF000C901A5E096958795AA95E1F78170907036
:102D000091878087C90174E0969587957A95E1F758
:102D10008170907093878287C90163E0969587954B
:102D20006A95E1F78170907095878487C9019695BF
:102D30008795969587958170907097878687C9014A
:102D40009695879581709070918B808B21703070F3
:102D5000338B228B0E94F636EDB7FEB774960FB612
:102D6000F894FEBF0FBEEDBF88EE93E00E9478217D
:102D70000894C11CD11CFDE0CF16D10409F08CCF02
:102D80000F90CF91DF911F910F91FF90EF90DF9007
:102D9000CF9008958F92AF92BF92CF92DF92EF9231
:102DA000FF920F931F9360E070E080E090E041E0BD
:102DB0000E94A1078091FB04823069F08330C1F04A
:102DC0008130D1F560E070E080E090E020E030E01C
:102DD00044E851EC15C060E070E085EA93E40E949D
:102DE000DB0E0E944E0F0E94A5118823D1F317C05D
:102DF00060E070E080E090E020E030E044E851E402
:102E00000F2EF0E0EF2EF0E0FF2EF0EF0F2FF1E4A9
:102E10001F2FF02D5701680188240E942B0C82E09F
:102E200061E00E94A81F82E390E00E94782182E086
:102E300060E00E94A81F0BC000D084E692E0EDB7CE
:102E4000FEB7928381830E94F6360F900F901F91F8
:102E50000F91FF90EF90DF90CF90BF90AF908F9049
:102E60000895EF92FF920F931F93CF93DF9381E02A
:102E70008093AD07E8E9EE2EE2E0FE2E26C10E9427
:102E80004E0F0E9415080E9414140E943B150E94C8
:102E9000CA16809114076091FB04409112060E94AB
:102EA00071148093140790911507981741F420E04E
:102EB00030E09091110680911206981711F021E0F0
:102EC00030E02093AD07222309F404C10E94861A42
:102ED0008091FB04282F30E060911407462F50E0CA
:102EE00000911206A02FB0E0CDB7DEB7E2970FB683
:102EF000F894DEBF0FBECDBFEDB7FEB73196FA82B4
:102F0000E982992787FD90958827990F881F99272F
:102F100093838283C90116E0969587951A95E1F708
:102F20008170907095838483C90175E0969587952B
:102F30007A95E1F78170907097838683C90114E0D8
:102F4000969587951A95E1F78170907091878087A3
:102F5000C90173E0969587957A95E1F78170907035
:102F600093878287C90196958795969587958170F5
:102F7000907095878487C901969587958170907028
:102F80009787868721703070318B208B772767FD7C
:102F900070956627770F661F7727738B628BCA0140
:102FA00026E0969587952A95E1F781709070958B2C
:102FB000848BCA0115E0969587951A95E1F7817083
:102FC0009070978B868BCA0174E0969587957A9559
:102FD000E1F781709070918F808FCA0163E09695C0
:102FE00087956A95E1F781709070938F828FCA01FF
:102FF000969587959695879581709070958F848F1B
:10300000CA019695879581709070978F868F4170D1
:10301000507051A340A3112707FD10950027110FF1
:10302000001F112713A302A3CD0116E096958795E3
:103030001A95E1F78170907095A384A3CD0175E096
:10304000969587957A95E1F78170907097A386A3FE
:10305000CD0164E0969587956A95E1F7817090704F
:1030600091A780A7CD0153E0969587955A95E1F7F2
:103070008170907093A782A7CD01969587959695BC
:1030800087958170907095A784A7CD0196958795B7
:103090008170907097A786A7A170B070B1ABA0ABFC
:1030A0000E94F636EDB7FEB7F2960FB6F894FEBF63
:1030B0000FBEEDBF809112066091140741E00E949F
:1030C0002C1184EF91E00E9478218091AD07882334
:1030D00009F0D5CEDF91CF911F910F91FF90EF9026
:1030E00008951F938FE0809383050E94A913109287
:1030F000A90710E06BC0112341F064EF71E080E09C
:1031000090E00E94011C10E007C06AEF70E080E0D0
:1031100090E00E94011C11E00E94861A8091120624
:10312000813051F0813028F0823049F0833071F4E1
:1031300009C08BEE92E008C08BEF92E005C08AE0F8
:1031400093E002C08AE193E00E940837809114075F
:103150000E943E138093A9078823E9F58091130606
:10316000813051F0813028F0823049F0833071F4A1
:1031700009C089E293E008C089E393E005C088E4D0
:1031800093E002C088E593E00E9408378091FB0439
:10319000823051F0833029F0813051F487E693E09A
:1031A00005C084E793E002C082E893E00E940837FC
:1031B0000E94A7150E94CA16809114076091FB0413
:1031C000409112060E947114809314078091A90700
:1031D000882309F490CF60E070E080E090E00E94E6
:1031E000011C1F9108951F930E94F3121092120662
:1031F0000E94861A82E993E00E9408370E948205A5
:10320000823029F0833049F0813069F402C011E046
:103210000BC080918305815003C0809183058F5F2F
:103220008F708093830510E0809112066091830572
:1032300041E00E942C1184E690E00E947821112345
:10324000E9F20E94861A81EA93E00E9408370E9400
:103250008205823029F0833049F0813069F402C060
:1032600011E00BC080911206815003C080911206BC
:103270008F5F83708093120610E080911206609138
:10328000830541E00E942C1184E690E00E947821A1
:103290001123E9F20E94861A81EB93E00E9408371D
:1032A0000E948205823011F411E001C010E080918B
:1032B00012066091830541E00E942C1184E690E0A3
:1032C0000E947821112361F381E08093AA0784E0B2
:1032D0008093FC040CC00E944E0F0E9415080E94AF
:1032E00065150E94F0148093AA070E94CA16809167
:1032F000AA07882381F78091FB048230E1F08330B4
:1033000031F0813059F480911206815003C08091D0
:1033100012068F5F8370809312060DC000D084E682
:1033200092E0ADB7BEB712969C938E9311970E9410
:10333000F6360F900F9064EF71E080E090E00E940D
:10334000011C0E94861A81EC93E00E94083780914C
:1033500012066091140741E00E942C1188EE93E060
:103360000E94782160E070E080E090E00E94011C03
:103370001092AB0718C00E944E0F0E9415080E94C1
:103380002E148093AB07882391F40E943B15809103
:1033900014076091FB04409112060E9471148093FF
:1033A00014070E94CA168091AB07882321F30E945C
:1033B000711882E060E00E94A81F0E94861A00D067
:1033C00000D0EDB7FEB7319682ED93E0ADB7BEB752
:1033D00012969C938E9311978091A40782831382F7
:1033E0000E94F6360F900F900F900F9082E060E0F1
:1033F0000E94A81F64EF71E080E090E00E94011C31
:1034000088EB9BE00E94782160E070E080E090E033
:103410000E94011C88E59BE10E9478211F9108957C
:103420008FE00E941B20882331F40E94AA228FE0A3
:1034300061E00E9463208FE091E008958FE00E9498
:103440001B20813019F020E030E013C080917A0019
:10345000806480937A0080917A0086FDFCCF309161
:10346000780020917900922F80E0232F30E0282BE4
:10347000392BC9010895582F809103048830D8F45E
:1034800040917E0021E030E0B90102C0660F771F55
:103490008A95E2F7CB018095842380937E0080910A
:1034A0007E00052E02C0220F331F0A94E2F7822B02
:1034B00080937E000DC020917E0081E090E0052E7B
:1034C00002C0880F991F0A94E2F7282B20937E00F0
:1034D0005093030480917C005F71807E852B8093E4
:1034E0007C000895ECE7F0E090818295880F880FCA
:1034F000807C9F73982B908308950E94C3220E9422
:10350000B5220E94F31880E090E008950F931F9376
:1035100080E460E00E94651B00E0802F60E00E9474
:103520004C1B10E080E061E00E94651B1F5F1038BB
:10353000C9F70F5F043089F783E060E00E94451B04
:103540001F910F9108950F931F9382E00E941B20FB
:10355000882311F482E006C081E00E941B208823AA
:1035600019F481E090E06DC00E942B2585E061E0B8
:103570000E9463208EEA60E00E94651B82EA60E0A0
:103580000E94651B80EA60E00E94651B00E513EC69
:10359000C8010197F1F780EC60E00E94651B8FE2A3
:1035A00060E00E94651B81E860E00E94651B86E187
:1035B00060E00E94651B82E260E00E94651BC8011A
:1035C0000197F1F78FEA60E00E94651B86EA60E0F0
:1035D0000E94651B85EA60E00E94651B80E090E028
:1035E00028E833E1F9013197F1F7019643E0883E8D
:1035F0009407C1F783EB60E00E94651B80E460E004
:103600000E94651B83E060E00E944C1B83E060E049
:103610000E94451B1092FC071092FE071092FD07B6
:103620008AE494E090932D0880932C0888E10E940E
:10363000241B0E94861A84EA60E00E94651B85E0D4
:1036400091E01F910F9108951F93182F85E00E941C
:103650001B208130C1F487E00E94A11B82E06AE058
:103660000E94F21B82E061EB0E94F21B612F11327B
:1036700008F060E282E00E94F21B89EE8A95F1F781
:1036800087E00E94A11B1F91089583706F7760935C
:10369000FA078093FB0708950F931F93062F162FA9
:1036A0001F778370806B60E00E94651B12951F700E
:1036B000812F806160E00E94651B802F8F7060E029
:1036C0000E94651B1F910F9108950F931F93082F60
:1036D000162F85E00E941B20813079F4112319F008
:1036E000113021F402C02B9801C02B9A86E08A95F4
:1036F000F1F780E0602F0E94F21B1F910F91089557
:103700001F93182F86E00E941B20813019F4812F0F
:103710000E94DA251F9108950E94DF2586E061E06E
:103720000E94632086E091E008951F93182F86E0A1
:103730000E941B20813019F4812F0E94E2251F91E5
:1037400008951F93182F82E00E941B20813009F0FA
:1037500047C0912F97708091FF07981709F440C0D8
:103760009093FF0785B1887F892B85B9933011F13C
:10377000943028F4913051F0923090F40CC0953090
:1037800019F19530E0F0963021F50FC0E091E0049A
:10379000F091E10422C0E091DE04F091DF041DC04D
:1037A000E091E204F091E30418C0E091EA04F091A2
:1037B000EB0413C0E091E404F091E5040EC0E09145
:1037C000E604F091E70409C0E091E804F091E9040F
:1037D00004C0E091EC04F091ED04309709F00995F4
:1037E0001F9108951F93162F0E94A11B82E00E9433
:1037F0001B20813021F41EBD0DB407FEFDCF1F91AB
:1038000008959B01AC0180917F04882381F0DA0147
:10381000C901880F991FAA1FBB1F90938B04809327
:103820008A04211531054105510509F45F98089571
:103830000F931F93CF93DF9380E291E00E94D734E0
:103840009C0190938D0480938C04892B11F480E06B
:1038500039C08901C0E0D0E0BE0180E090E00E9464
:103860003F2E20E030E040EA51E40E94A62D27EFF1
:1038700035E740E05FE30E942F2F9B01AC0160E041
:1038800070E080E291E40E94922F9B01AC01CA019A
:10389000B9012DEC3CEC42E851E40E942F2F0E942C
:1038A000F52E2AE030E040E050E00E945F34F8015D
:1038B00061937193819391938F012196C834D105BF
:1038C00059F681E0DF91CF911F910F9108958AE021
:1038D0000E941B20882371F410928904109288049E
:1038E00081E00E941D2781E080937F048AE061E0EF
:1038F0000E9463208AE091E008951F938BE00E946C
:103900001B20882311F090E021C089E00E941B2039
:103910008823D9F40E94181C182F8130B1F410921A
:1039200080041092810410928204109283048DE02E
:1039300060EA76E20E94032582E00E941D27109330
:103940007E0489E061E00E94632091E089E01F919C
:103950000895813029F0823031F090E089E00895B7
:103960000E94671C08950E947D1C08958091C007E5
:103970009091C1072091C2073091C307BC01C901D2
:1039800008952F923F924F925F926F927F928F9203
:103990009F92AF92BF92CF92DF92EF92FF920F93DE
:1039A0001F93DF93CF93CDB7DEB7582E962E442EBC
:1039B00039013C2CC98CDA8C2B8C81E0681739F1E9
:1039C000681728F092E0691709F085C049C080E0C7
:1039D00061E00E94CA1E80E0B7010E94931E80E051
:1039E000642DA3019801032DEE24E394E5EECE2E81
:1039F000E7E0DE2E0E941C1F552009F06CC000D0AD
:103A00000F92EDB7FEB71182B382A28223C081E08C
:103A100061E00E94CA1E81E0B6010E94931E81E00F
:103A2000682D4D895E892F89388D022DEE24E3940F
:103A300075EEC72E77E0D72E0E941C1F552009F087
:103A40004AC000D00F92EDB7FEB791828C8D9D8D4C
:103A5000938382830E94CD1F0F900F900F903BC0E5
:103A600082E061E00E94CA1E80E0B7010E94931EBE
:103A700081E0B6010E94931E80E0642DA3019801AD
:103A8000032DEE24E39495EEC92E97E0D92E0E94E3
:103A90001C1F81E0682D4D895E892F89388D022D8C
:103AA0000E941C1F5520B9F400D000D00F92ADB772
:103AB000BEB71196EDB7FEB79182FD01B282A18229
:103AC0008C8D9D8D948383830E94CD1F0F900F90CA
:103AD0000F900F900F90CF91DF911F910F91FF905A
:103AE000EF90DF90CF90BF90AF909F908F907F909E
:103AF0006F905F904F903F902F9008956F927F92BC
:103B00008F929F92AF92BF92CF92DF92EF92FF92ED
:103B10000F931F93DF93CF93CDB7DEB7942E7C2DF9
:103B2000D50149895A89AB88BC88CD88DE889F89B0
:103B3000813009F457C08130B8F1823009F076C085
:103B4000613091F0613020F0623009F06FC015C033
:103B500080E060E00E94CA1E80E0B7010E94931ED0
:103B600080E0692DA8011DC081E060E00E94CA1EAE
:103B700081E0B6010E94931E11C082E060E00E94C5
:103B8000CA1E80E0B7010E94931E81E0B6010E9428
:103B9000931E80E0692DA8010E947C1E81E0682DA3
:103BA000A5010E947C1E42C0EDB7FEB739970FB643
:103BB000F894FEBF0FBEEDBF6DB67EB60894611CD3
:103BC000711C52834183F301B382A282D582C482E5
:103BD0009683888D998D9087878380E0492DC72EA5
:103BE0005D011AC0EDB7FEB739970FB6F894FEBF66
:103BF0000FBEEDBFADB7BEB7119652834183FD0135
:103C0000B382A282D582C48296831086178281E015
:103C1000492DC72EAA24BB240E94C11C8DB79EB774
:103C200009960FB6F8949EBF0FBE8DBFCF91DF915E
:103C30001F910F91FF90EF90DF90CF90BF90AF90CA
:103C40009F908F907F906F9008950E94AF2781E0A2
:103C50008093E407EEEAF7E011921192118210824C
:103C6000329611821082329611821082329611821F
:103C70001082329611821082329611821082329610
:103C80001182108232961182108232961182108235
:103C900032961182108232961182108232961182EF
:103CA00010823696119211921192108232961192D0
:103CB000119211921192119211921192118210820D
:103CC00032961182108232961182108232961182BF
:103CD0001082769711821082329611821082109291
:103CE000E3071092E2071092E40787E061E00E9488
:103CF000632087E091E00895EF92FF920F931F9366
:103D0000182F062F7A0160E00E94CA1E812F602FB3
:103D10000E94B51E812FB7010E94DF1E1F910F91D7
:103D2000FF90EF900895482F81E08093E407CB0146
:103D300023E0693E720710F088EE93E0413071F0A5
:103D4000413018F0423071F405C09093B907809368
:103D5000B80708C09093B9078093B8079093BB0742
:103D60008093BA071092E4070895982F81E080931A
:103D7000E407913051F0913018F0923041F403C0D3
:103D80006093D10704C06093D1076093D20710926B
:103D9000E4070895982F81E08093E407913051F073
:103DA000913018F0923041F403C06093AE0704C024
:103DB0006093AE076093AF071092E4070895482F11
:103DC00081E08093E407CB0121E06139720710F0B4
:103DD00080E991E0413071F0413018F0423071F4E7
:103DE00005C09093B1078093B00708C09093B107C6
:103DF0008093B0079093B3078093B2071092E407C3
:103E00000895982F81E08093E407913071F091300C
:103E100018F0923071F405C07093C1076093C00729
:103E200008C07093C1076093C0077093C307609385
:103E3000C2071092E40708958F929F92AF92BF92AB
:103E4000CF92DF92EF92FF920F931F93CF93DF9366
:103E5000182FF62E5A014901E60161E00E94CA1EA0
:103E6000812FB501A4010E94CE27812F6F2D0E94C2
:103E7000B51E812F602F0E94B927812FB5010E94A6
:103E8000011FC114D10499F0113049F0113018F01C
:103E9000123069F406C018821092E00708C0198237
:103EA00004C0188219821092E0071092E107D093A3
:103EB000E307C093E207EE20B9F58EE894E0909313
:103EC000E3078093E207812FB4010E94DF1E812F58
:103ED0000E949A27113071F0113018F0123059F504
:103EE00012C010928E041092E00780918E048823F5
:103EF000E1F321C010928F041092E10780918F04AA
:103F00008823E1F318C010928E0410928F0410924F
:103F1000E0071092E10780918E048823E1F38091FD
:103F20008F048823C1F307C0812FB4010E94DF1ED4
:103F3000812F0E949A27DF91CF911F910F91FF90BF
:103F4000EF90DF90CF90BF90AF909F908F900895AB
:103F50000F931F93182F062F662349F460E070E03B
:103F60000E94DF1E812F60E070E00E94011F81E04F
:103F70008093E407113051F0113018F0123041F401
:103F800003C00093CC0704C00093CC070093CD0777
:103F90001092E4071F910F910895CF92DF92EF9254
:103FA000FF920F931F93DF93CF93CDB7DEB78B852F
:103FB000813061F0813018F08230A1F511C0EC85BC
:103FC000FD858091E5078823E1F306C0EC85FD853A
:103FD0008091E6078823E1F3309721F1099522C00B
:103FE000CC84DD84EE84FF8400E010E0002351F4F3
:103FF0008091E507882331F0C114D10411F0F60156
:10400000099501E0112351F48091E607882331F0EE
:10401000E114F10411F0F701099511E0002331F3E7
:10402000112321F3CF91DF911F910F91FF90EF901A
:10403000DF90CF900895E82FF0E0E331F10540F4F0
:10404000E25CFF4FEE0FFF1F0590F491E02D099405
:1040500080E008958091E70708958091E80708952A
:104060008091E90708958091EA0708958091EB0710
:1040700008958091ED0708958091EC07089580914F
:10408000EE0708958091EF0708958091F007089555
:104090008091F10708958091F20708958091F307C8
:1040A00008958091F40708958091F507089580910F
:1040B000F60708958091F70708958091F80708950D
:1040C0008091F9070895E82FF0E0E331F10508F059
:1040D00040C0EF5AFF4FEE0FFF1F0590F491E02D07
:1040E00009946093E70708956093E8070895609343
:1040F000E90708956093EA0708956093EB07089530
:104100006093ED0708956093EC0708956093EE07C0
:1041100008956093EF0708956093F0070895609302
:10412000F10708956093F20708956093F3070895E7
:104130006093F40708956093F50708956093F60778
:1041400008956093F70708956093F80708956093C2
:10415000F70708950F931F9381E00E941B20813081
:1041600011F000E024C087E00E94A11B82E06AE019
:104170000E94F21B82E062EB0E94F21B18EC812F7E
:104180008A95F1F782E060E00E948526082F812F52
:104190008A95F1F782E060E00E9485261A95F1F792
:1041A00087E00E94A11B88E893E10197F1F7802F37
:1041B0001F910F9108951F93CF93DF93182F809134
:1041C0009104882341F080919B04882399F01092F8
:1041D000910410929B040E94AA208093900485E988
:1041E00094E061E040E022E330E00E94992181E028
:1041F0008093910490919004A12FB0E0ED01CC5BED
:10420000DB4F8881882369F0FD01E95BFB4F8081EA
:104210009823C1F0FD01EE56FB4F81E080831882A8
:1042200011C0FD01EE56FB4F808181111082FD010E
:10423000E95BFB4F8081982329F4FD01EC5BFB4F88
:1042400081E08083AE56BB4F8C91DF91CF911F915F
:10425000089582E00E941B20882319F490E082E0F8
:1042600008951092150810921408109217081092D1
:104270001608109219081092180810921B08109234
:104280001A0810921D0810921C0880E991E0909382
:10429000010880930008909303088093020890938C
:1042A000050880930408909307088093060890936C
:1042B00009088093080884E398E090930B088093A2
:1042C0000A0890930D0880930C0890930F08809330
:1042D0000E08909311088093100890931308809310
:1042E000120881E061E00E94632091E081E008957E
:1042F000DF93CF93CDB7DEB729970FB6F894DEBF23
:104300000FBECDBF9C01CE01019661E040E00E944E
:104310009921982F882319F48F818823E9F3892F15
:1043200029960FB6F894DEBF0FBECDBFCF91DF91B7
:104330000895EF92FF920F931F93CF93DF93EC01B9
:10434000F62EE42E890188E00E941B20813011F0B6
:1043500081E026C084E090E00E94D734FC01009701
:1043600011F482E01DC0F982F0FC1E8281E0E816A3
:1043700019F48981846089838981886089831B839A
:104380000A831D830C83D183C0831382128281E050
:104390008093EE04CF010E942E281092EE0480E05C
:1043A000DF91CF911F910F91FF90EF900895FC0145
:1043B00080912108813011F085E0089580912208D4
:1043C000813011F08AE00895613011F484EC01C06D
:1043D00084E88093BC008091BC0087FFFCCF6130F3
:1043E00031F48091B900887F803559F405C08091FF
:1043F000B900887F883529F48091BB00808380E0F4
:10440000089582E00895982F80912108813011F05D
:1044100085E0089580912208813011F08AE00895A6
:104420009093BB0084E88093BC008091BC0087FF20
:10443000FCCF8091B90090E0887F90708832910520
:1044400021F0C09721F483E0089580E008958CE086
:104450000895982F20912108213011F085E00895CA
:1044600080912308813011F489E008952093220877
:1044700084EA8093BC008091BC0087FFFCCF8091D0
:10448000B900887F883039F08091B900887F803109
:1044900011F081E00895613019F4990F916003C023
:1044A000662319F4990F9093BB0084E88093BC00B5
:1044B0008091BC0087FFFCCF613031F48091B9005E
:1044C000887F803441F409C0662339F48091B900B3
:1044D000887F883111F082E0089580E0089580910E
:1044E0002208813011F08AE00895809124088130FB
:1044F00029F485E98093BC0080E0089584E98093E5
:10450000BC0080E0089582E10E941B208823B1F462
:104510001092210810922208109223081092240869
:10452000109225080E94CA2887E160E00E94A1221B
:104530000E94C02882E161E00E94632082E190E055
:10454000089563706093B9008093B80081E0809310
:10455000210808958FE180937C00EAE7F0E087E08E
:10456000808380818068808308950E940B280E9448
:10457000E7250E9417250E9497280E944C260E943A
:10458000292178940895000008951F920F920FB684
:104590000F9211242F933F934F935F936F937F93C9
:1045A0008F939F93AF93BF93EF93FF93E091BE04DC
:1045B000F091BF04309709F00995FF91EF91BF91F9
:1045C000AF919F918F917F916F915F914F913F91AB
:1045D0002F910F900FBE0F901F9018951F920F9262
:1045E0000FB60F9211242F933F934F935F936F93C6
:1045F0007F938F939F93AF93BF93EF93FF93E0913C
:10460000C004F091C104309709F00995FF91EF9132
:10461000BF91AF919F918F917F916F915F914F91DA
:104620003F912F910F900FBE0F901F9018951F92E2
:104630000F920FB60F9211242F933F934F935F93D6
:104640006F937F938F939F93AF93BF93EF93FF935A
:10465000E091C204F091C304309709F00995FF91ED
:10466000EF91BF91AF919F918F917F916F915F91EA
:104670004F913F912F910F900FBE0F901F90189563
:104680001F920F920FB60F9211242F933F934F93C7
:104690005F936F937F938F939F93AF93BF93EF93AA
:1046A000FF93E091B004F091B104309709F00995BF
:1046B000FF91EF91BF91AF919F918F917F916F91FA
:1046C0005F914F913F912F910F900FBE0F901F90D0
:1046D00018951F920F920FB60F9211242F933F93AC
:1046E0004F935F936F937F938F939F93AF93BF93FA
:1046F000EF93FF93E091B204F091B304309709F087
:104700000995FF91EF91BF91AF919F918F917F910B
:104710006F915F914F913F912F910F900FBE0F902E
:104720001F9018951F920F920FB60F9211242F937E
:104730003F934F935F936F937F938F939F93AF9329
:10474000BF93EF93FF93E091B404F091B5043097D9
:1047500009F00995FF91EF91BF91AF919F918F91D2
:104760007F916F915F914F913F912F910F900FBE6D
:104770000F901F9018951F920F920FB60F92112451
:104780002F933F934F935F936F937F938F939F9359
:10479000AF93BF93EF93FF93E091B804F091B90406
:1047A000309709F00995FF91EF91BF91AF919F91DB
:1047B0008F917F916F915F914F913F912F910F90CA
:1047C0000FBE0F901F9018951F920F920FB60F9269
:1047D00011242F933F934F935F936F937F938F9306
:1047E0009F93AF93BF93EF93FF93E091BA04F0913F
:1047F000BB04309709F00995FF91EF91BF91AF91FC
:104800009F918F917F916F915F914F913F912F91E8
:104810000F900FBE0F901F9018951F920F920FB61A
:104820000F9211242F933F934F935F936F937F9336
:104830008F939F93AF93BF93EF93FF93E091B60451
:10484000F091B704309709F00995FF91EF91BF916E
:10485000AF919F918F917F916F915F914F913F9118
:104860002F910F900FBE0F901F9018951F920F92CF
:104870000FB60F9211242F933F934F935F936F9333
:104880007F938F939F93AF93BF93EF93FF93E091A9
:10489000BC04F091BD04309709F00995FF91EF91A8
:1048A000BF91AF919F918F917F916F915F914F9148
:1048B0003F912F910F900FBE0F901F9018951F9250
:1048C0000F920FB60F9211242F933F934F935F9344
:1048D0006F937F938F939F93AF93BF93EF93FF93C8
:1048E000E091A604F091A704309709F00995FF9193
:1048F000EF91BF91AF919F918F917F916F915F9158
:104900004F913F912F910F900FBE0F901F901895D0
:104910001F920F920FB60F9211242F933F934F9334
:104920005F936F937F938F939F93AF93BF93EF9317
:10493000FF93E091A804F091A904309709F009953C
:10494000FF91EF91BF91AF919F918F917F916F9167
:104950005F914F913F912F910F900FBE0F901F903D
:1049600018951F920F920FB60F9211242F933F9319
:104970004F935F936F937F938F939F93AF93BF9367
:10498000EF93FF93E091AA04F091AB04309709F004
:104990000995FF91EF91BF91AF919F918F917F9179
:1049A0006F915F914F913F912F910F900FBE0F909C
:1049B0001F9018951F920F920FB60F9211242F93EC
:1049C0003F934F935F936F937F938F939F93AF9397
:1049D000BF93EF93FF93E091AC04F091AD04309757
:1049E00009F00995FF91EF91BF91AF919F918F9140
:1049F0007F916F915F914F913F912F910F900FBEDB
:104A00000F901F901895E82F803268F48051833002
:104A100050F0F0E0EE0FFF1FE256FB4F2081318196
:104A20007183608302C020E030E0C901089580E115
:104A30000E941B20882361F4EEE9F4E011921192A8
:104A400084E0EE3DF807D1F780E161E00E94632049
:104A500080E191E00895239A0895FF920F931F93A8
:104A6000CF93DF93F82E8AE0F816B1F08F1548F057
:104A7000E8E0FE16B9F1EF1538F1F7E0FF1651F452
:104A80003BC08DE0F81659F0EBE1FE1689F0FCE032
:104A9000FF1641F001E041C01092FA0703C01092E6
:104AA000FA073AC08091FB0781508093FB0734C01E
:104AB0000E94861A14C080E061E00E94651B80910C
:104AC000FA078F5F8093FA078091FA0787FFF3CF89
:104AD0001092FA078091FB0781508093FB0700E05A
:104AE00011E01CC08091FA078823B1F08091FA0789
:104AF00086508093FA0710C081E00E94A91C64EFE1
:104B000071E080E090E04DE750E024E630E00E9464
:104B1000472781E00E94132700E010E08091FB0707
:104B20006091FA070E944C1B002351F185E0F89E2A
:104B3000C0011124EC01C355DF4F8C010E541F4FEF
:104B4000FE01849161E00E94651B2196C017D10788
:104B5000B9F780E061E00E94651B8091FA078A5FE7
:104B60008093FA078091FA0790E08C3791053CF02A
:104B70001092FA078091FB0781508093FB0711E0A8
:104B80008091FB0783708093FB07113059F480916B
:104B9000FC07813039F4E091FD07F091FE07309772
:104BA00009F0099580E090E0DF91CF911F910F917E
:104BB000FF90089585FD5D9886FD5E980895559A4D
:104BC000569A089585FD5D9A86FD5E9A089580E067
:104BD0000E941B20882351F4F8940E94DE2881E073
:104BE0000E94F92580E061E00E94632080E091E06E
:104BF0000895813049F0F894813020F18230B1F08D
:104C0000833009F045C017C02C9A80E8809361007A
:104C10001092610080E090E00000019688329105DA
:104C2000D9F71092680010926B00089580E8809385
:104C3000610083E004C080E88093610088E0809395
:104C4000610028C080E090E0000001962DE68036EB
:104C50009207D1F72C9880E090E0000001962DE6B5
:104C600080369207D1F710927A008FEF809364001C
:104C70008091680081608093680080916B008460FF
:104C800080936B00789483B7816083BF8895089583
:104C9000823008F0789408950F931F930E940A2998
:104CA00080E069EF78E20E94972681E061EF78E288
:104CB0000E94972682E069EE78E20E94972686E0BD
:104CC00061E079E20E94972601EE18E283E0B801E4
:104CD0000E94972684E0B8010E94972685E0B801DB
:104CE0000E94972687E0B8010E94972682E061E043
:104CF0000E9463208FEF8093FF0787E00E94A11B33
:104D000082E091E01F910F9108951F93162F0E944A
:104D1000A11B82E00E941B20813011F080E005C0C1
:104D20001EBD0DB407FEFDCF8EB51F910895E82F6F
:104D3000F0E0EE0FFF1FE252FB4F71836083089596
:104D40000E94A32608958091800490918104A091EF
:104D50008204B091830420918404309185044091B1
:104D6000860450918704280F391F4A1F5B1F209328
:104D70008004309381044093820450938304809193
:104D8000800490918104A0918204B09183048851A1
:104D9000964FA040B040BCF08BB180588BB9809149
:104DA000800490918104A0918204B0918304885181
:104DB000964FA040B0408093800490938104A093CC
:104DC0008204B093830408958AE00E941B208130FE
:104DD00041F40E94112910927F048AE060E00E9451
:104DE0006320089589E00E941B208130D9F48091CE
:104DF0007E04882311F00E94942782E00E941129EA
:104E000080918C0490918D04009731F00E9484353C
:104E100010928D0410928C0410927E0489E060E060
:104E20000E9463200895813029F0823029F40E9485
:104E3000F22608950E94E4260895982F80917E041A
:104E4000882331F480917F04882311F4579A5F9866
:104E500080917E048823D1F49230C1F410928000B6
:104E60001092810080918100886080938100809100
:104E700081008160809381001092850010928400EF
:104E800081E08093890080E98093880008958F9263
:104E90009F92AF92BF92CF92DF92EF92FF920F93C9
:104EA0001F93CF93DF934B015C01EA01B9012115F8
:104EB000310539F19E01442737FD4095542F653661
:104EC000710510F064E670E080E090E00E945F34CD
:104ED00024E630E040E050E00E947E3479018A010F
:104EE000C501B4010E94011CC7010E94782160E045
:104EF00070E080E090E00E94011CCE018E199F09B5
:104F000004C04115510519F0CA010E947821DF91B2
:104F1000CF911F910F91FF90EF90DF90CF90BF90B6
:104F2000AF909F908F900895EFE6F0E080818D7FA5
:104F300080830895982F81E08093E407913051F0A9
:104F4000913018F0923041F403C01092CC0704C0A5
:104F50001092CC071092CD071092E40708953A9A68
:104F60003B9A3C9A3D9A3E9A3F9A88B1837088B9A1
:104F70000895982F81E08093E407913051F09130AB
:104F800018F0923041F403C06093CE0704C06093E0
:104F9000CE076093CF071092E40708950F931F93F5
:104FA000CF93DF93EB018A01813001F1813018F05A
:104FB000823061F50DC08091B8079091B907892BB7
:104FC00011F080E01AC01092C5071092C4071EC0ED
:104FD0008091B8079091B907892B21F080E00E9459
:104FE0002D2904C01092C5071092C4078091BA07FA
:104FF0009091BB07892B31F081E0BE01A8010E948E
:105000002D2904C01092C7071092C607DF91CF91D7
:105010001F910F9108951092E7071092E8071092E0
:10502000EC071092E9071092EB071092ED0710922F
:10503000EE071092EF071092F0071092F10710920E
:10504000F2071092F3071092F4071092F5071092EE
:10505000F6071092F7071092F8070895CF92DF92A3
:10506000EF92FF920F931F93CF93DF93EC01809108
:105070001E08882339F4D0932008C0931F080E948B
:10508000BC2847C0C0901F08D090200800E010E066
:10509000EE24FF2437C0A881B981FD0164817581A8
:1050A000F60140815181FA01848195819B01281B81
:1050B000390B37FF0FC0861B970B95838483DB82E8
:1050C000CA82012B29F4D0932008C0931F0821C065
:1050D000F7010CC0F601828193812115310549F455
:1050E000FD01158214829B838A83F601D383C283D8
:1050F00010C0FD01358324830097B9F30F5F1F4F64
:1051000076016C0180911E0890E00817190718F2CB
:10511000ECCF80911E088F5F80931E08DF91CF91A6
:105120001F910F91FF90EF90DF90CF90089588E04E
:105130000E941B208823B9F410921E0810922008A8
:1051400010921F081092EE041092EF0480E16AE9B9
:1051500079E20E94CD280E94A1290E94B62888E009
:1051600061E00E94632088E091E00895EEE6F0E0BF
:10517000808182608083089581E08093EF040895A8
:1051800080912108813029F48091BC008460809353
:10519000BC000895389839980895803218F020E0BE
:1051A00030E00AC0E82FF0E0EE0FFF1FE256FB4FA1
:1051B0002081318171836083C9010895249A2C9ADA
:1051C000089583E58CBD81E08DBD8DE08A95F1F772
:1051D000089583E58CBD1DBC84EF91E00197F1F744
:1051E00008958FE78CBD1DBC84EF91E00197F1F726
:1051F000089583E58CBD81E08DBD8DE08A95F1F742
:10520000089583E58CBD81E08DBD84EF91E0019729
:10521000F1F70895259A2698279A209A219A229A9A
:105220000895823029F4809181008E7F80938100DF
:1052300080917E04813031F480917F04813011F4BB
:105240000000089580917E04813021F080917F04D8
:10525000813011F45F9857980895EF92FF920F9361
:105260001F93CF93DF93EB01882321F0813009F066
:105270005AC02DC09A0140E050E0CA01B9010E9415
:105280005F342091B8073091B907220F331F40E0F7
:1052900050E00E947E3479018A01A8019701220F13
:1052A000331F441F551FCE01A0E0B0E082179307C3
:1052B000A407B50728F0F092C507E092C40733C0F1
:1052C000D695C795D093C507C093C4072CC09A0143
:1052D00040E050E0CA01B9010E945F342091BA0752
:1052E0003091BB07220F331F40E050E00E947E3414
:1052F00079018A01A8019701220F331F441F551F0E
:10530000CE01A0E0B0E082179307A407B50728F00C
:10531000F092C707E092C60706C0D695C795D0930E
:10532000C707C093C607DF91CF911F910F91FF90E0
:10533000EF9008950E94AA290E94EA290E94C32999
:10534000089584B5826084BD85B5846085BD8EE492
:1053500087BD089588E00E941B20882311F484E013
:1053600008958091EF04882311F483E008958091DB
:10537000EE04882311F082E008950E94372C8130DA
:10538000E1F380E0089580917F04813011F58091F0
:1053900088049091890420918A0430918B04280F0D
:1053A000391F309389042093880480918804909158
:1053B0008904885E93406CF08BB180588BB98091E2
:1053C000880490918904885E934090938904809327
:1053D0008804089587E00E941B20813009F0AAC04C
:1053E0008091B8079091B907892B09F18091DC076A
:1053F0009091DD072091B8073091B907820F931F74
:105400009093DD078093DC078091DC079091DD07A6
:10541000885E9340A4F08091DC079091DD07885E60
:1054200093409093DD078093DC0741E009C08091B1
:10543000B0079091B1079093B5078093B40740E00F
:105440008091BA079091BB07892B09F18091DE0703
:105450009091DF072091BA073091BB07820F931F0D
:105460009093DF078093DE078091DE079091DF073E
:10547000885E9340A4F08091DE079091DF07885EFC
:1054800093409093DF078093DE0761E009C080912D
:10549000B2079091B3079093B7078093B60760E087
:1054A000842F0E949B2A8091D8079091D907209140
:1054B000B4073091B507280F391F3093D9072093CF
:1054C000D8078091D8079091D907885E934014F44B
:1054D00040E00BC08091D8079091D907885E934037
:1054E0009093D9078093D80741E08091DA07909193
:1054F000DB072091B6073091B707280F391F30938B
:10550000DB072093DA078091DA079091DB07885E4A
:10551000934014F460E00BC08091DA079091DB07B0
:10552000885E93409093DB078093DA0761E0842FD5
:105530000E94E02A08958823F1F02091B00730916D
:10554000B1078091B4079091B507281B390B12164B
:10555000130634F48091B4079091B507019607C003
:10556000232B49F08091B4079091B5070197909350
:10557000B5078093B407662311F12091B2073091EB
:10558000B3078091B6079091B707281B390B121605
:10559000130654F48091B6079091B7070196909343
:1055A000B7078093B6070895232B49F08091B6077B
:1055B0009091B70701979093B7078093B607089526
:1055C0000F931F93182F062F8091E407882309F06B
:1055D000E7C08091CC07882309F05AC08091B407B6
:1055E0009091B507892BE9F48091F004837E809334
:1055F000F0041092D5078091E007882309F45DC07C
:105600006091CE0780E00E94A81FE091E207F09130
:10561000E307309709F451C081E080831092E007DE
:105620004CC08091AE07813041F48091C0079091C9
:10563000C107019711F411E002C01123F1F1E091CB
:10564000D307F0E0E45CFB4F9091F004937E8081FF
:10565000892B8093F0048091D107882321F48091D5
:10566000D3078F5F03C08091D30781508093D30706
:105670008091D30783708093D30781E08093D5070F
:105680008091AE078130C9F480E00E94E32B15C001
:105690009091F004937E9093F004E091D307F0E0B2
:1056A000E45CFB4F8081892B8093F00482E080933F
:1056B000D5071092B5071092B4078091CD078823C3
:1056C00009F059C08091B6079091B707892BE9F48A
:1056D0008091F0048F718093F0041092D60780912E
:1056E000E107882309F45CC06091CF0781E00E9444
:1056F000A81FE091E207F091E307309709F450C04A
:1057000081E081831092E1074BC08091AF07813027
:1057100041F48091C2079091C307019711F401E011
:1057200002C00023E9F1E091D407F0E0E05CFB4F18
:105730009091F0049F718081892B8093F004809177
:10574000D207882321F48091D4078F5F03C0809112
:10575000D40781508093D4078091D40783708093BD
:10576000D40781E08093D6078091AF078130C1F4E0
:105770000E94E32B15C09091F0049F719093F00468
:10578000E091D407F0E0E05CFB4F8081892B8093AF
:10579000F00482E08093D6071092B7071092B60704
:1057A0008091D707882331F480EF94E0612F402F58
:1057B0000E94A52C88B183709091F004892B88B940
:1057C0001F910F910895882321F0813009F04EC078
:1057D00027C08091C0079091C107892B49F0809123
:1057E000C0079091C10701979093C1078093C007AC
:1057F0008091E0078823D1F52091C0073091C1073F
:105800008091C4079091C5072817390779F580E082
:1058100060E070E00E94DF1E81E08093E007089561
:105820008091C2079091C307892B49F08091C207EC
:105830009091C30701979093C3078093C20780910B
:10584000E107882399F42091C2073091C307809122
:10585000C6079091C7072817390741F481E060E037
:1058600070E00E94DF1E81E08093E1070895FF92BF
:105870000F931F93CF93DF9380911E08882309F421
:1058800059C000911F0810912008F801C081D181F2
:105890008C819D8101979D838C83181619060CF4C9
:1058A00049C0898180FF05C08E81882311F481E081
:1058B0008E83898181FF03C0EF81F88509958091EE
:1058C0001E088230A8F0F80182819381909320080D
:1058D00080931F0813821282E0910000F091010072
:1058E00084819581181619063CF0FF24F39405C0B5
:1058F0001092200810921F08FF2480911E088150EA
:1059000080931E0880911E08882311F40E94A22C07
:10591000898182FF08C08A819B819D838C83C80115
:105920000E942E2808C0C8010E94843589818F7E7C
:10593000898301C0FF248F2DDF91CF911F910F919B
:10594000FF9008951092EF040895FC018091D5070F
:10595000823069F48091F40491E089278093F40403
:10596000882309F03EC08081837E80833AC0809185
:10597000B4079091B507C397A4F56623D1F02091A1
:10598000B4073091B50780E690E0BC01269FC001C6
:10599000279F900D369F900D1124880F892F881F07
:1059A000990B9093C9078093C80781E08093F20414
:1059B00018C08091F2048823A1F08091C8079091CB
:1059C000C90701979093C9078093C8078091C807BA
:1059D0009091C907892B29F48081837E808310925E
:1059E000F2048091D607823069F48091F30491E04B
:1059F00089278093F304882309F03EC080818F714A
:105A0000808308958091B6079091B707C397A4F556
:105A10004423D1F02091B6073091B70780E690E09B
:105A2000AC01249FC001259F900D349F900D11243F
:105A3000880F892F881F990B9093CB078093CA07F3
:105A400081E08093F10408958091F1048823A1F00E
:105A50008091CA079091CB0701979093CB078093D1
:105A6000CA078091CA079091CB07892B29F48081BE
:105A70008F7180831092F10408955058BB27AA2794
:105A80000ED075C166D130F06BD120F031F49F3F5C
:105A900011F41EF45BC10EF4E095E7FB51C1E92F50
:105AA00077D180F3BA17620773078407950718F058
:105AB00071F49EF58FC10EF4E0950B2EBA2FA02D38
:105AC0000B01B90190010C01CA01A0011124FF27AB
:105AD000591B99F0593F50F4503E68F11A16F040A6
