:100000000C9431030C944E030C944E030C944E0349
:100010000C9417250C9440250C9469250C9492257A
:100020000C944E030C94F8230C9421240C944A2431
:100030000C94C5240C9473240C949C240C94EE24EE
:100040000C947D230C94A6230C94CF230C944E0384
:100050000C944E030C944E030C944E030C944E03DC
:100060000C944E030C944E030C944E030C944E03CC
:100070000C944E030C944E030C944E03E220E520A6
:10008000E820EB20F420EE20F120F720FA20FD20DC
:1000900000210321062109210C210F211221152104
:1000A000182129212C212F2132213B2135213821D2
:1000B0003E214121442147214A214D2150215321F4
:1000C000562159215C215F2107634236B79BD8A78F
:1000D0001A39685618AEBAAB558C1D3CB7CC57636D
:1000E000BD6DEDFD753EF6177231BF000000803F1B
:1000F00008000000BE922449123EABAAAA2ABECD37
:10010000CCCC4C3E00000080BEABAAAAAA3E0000A8
:100110000000BF000000803F0000000000084178A0
:10012000D3BB4387D1133D190E3CC3BD4282AD2BD7
:100130003E68EC8276BED98FE1A93E4C80EFFFBECF
:1001400001C4FF7F3F000000000016050100000011
:1001500000000000FA000000E000E00028FE28FE99
:10016000282454FE5448C4C81026466C92AA44A0C1
:1001700000A0C000000038448200008244380028FB
:10018000107C102810107C1010000A0C00001010B9
:10019000101010000606000004081020407C8A920F
:1001A000A27C0042FE020042868A92628482A2D22F
:1001B0008C182848FE08E4A2A2A29C3C5292920C01
:1001C000808E90A0C06C9292926C60929294780013
:1001D0006C6C0000006A6C00001028448200282823
:1001E000282828008244281040808A90604C929EE3
:1001F000827C7E8888887EFE9292926C7C8282824B
:1002000044FE82824438FE92929282FE90909080C8
:100210007C8292925EFE101010FE0082FE8200042C
:100220000282FC80FE10284482FE02020202FE408E
:100230003040FEFE201008FE7C8282827CFE909080
:1002400090607C828A847AFE909894626292929204
:100250008C8080FE8080FC020202FCF8040204F81C
:10026000FC021C02FCC6281028C6E0100E10E08616
:100270008A92A2C200FE82820040201008040082FE
:1002800082FE0020408040200202020202008040E4
:100290002000042A2A2A1EFE1222221C1C222222AC
:1002A000041C222212FE1C2A2A2A18107E9080404A
:1002B000304A4A4A7CFE1020201E0022BE02000462
:1002C0000222BC00FE081422000082FE02003E2032
:1002D00018201E3E1020201E1C2222221C3E2828F0
:1002E0002810102828183E3E10202010122A2A2AF2
:1002F0000420FC2202043C0202043E3804020438BA
:100300003C020C023C2214081422300A0A0A3C2245
:10031000262A322200106C82000000FE00000082BB
:100320006C1000081010081000000000007F818190
:10033000817F7F8383837F7F8787877F7F8F8F8F77
:100340007F7F9F9F9F7F7FBFBFBF7F7FFFFFFF7F1D
:100350002040FF4020621517156500FBFB000000E0
:1003600000000000C0FF0300E0FF0700F0FF0F00E7
:10037000F8FF1F0078001E0078001E0078001E00A5
:1003800078001E0078001E0078001E0078001E0015
:1003900078001E0078001E00000000000000000031
:1003A00080FF0300E0FF0700F0FF0F00F8FF1F00D1
:1003B000F83C1F00783C1E00783C1E00783C1E0074
:1003C000783C1E00783C1E00783C1E00783C1E00E5
:1003D000783C1E00783C1E00783C1E0000000000A7
:1003E00000000000E0FF0300F0FF0700F8FF0F002F
:1003F000F8FF1F00783C1E00783C1E00783C1E0071
:10040000783C1E00783C1E00783C1E00783C1E00A4
:10041000783C1E00783C1E00783C1E000000000066
:1004200000000000F8FF0300F8FF0F00F8FF1F00B6
:10043000F8FF1F0000001E0000001E0000801F00CB
:1004400000F01F0000FF0F00E0FF0700F0FF0000BA
:10045000F80F0000F80000007800000078000000AD
:10046000F8FF1F00F8FF1F00F0FF1F00E0FF1F0054
:100470000000000000000000F8FF1F00F8FF1F0050
:10048000F8FF1F00F8FF1F0078001E00783C1E00D8
:10049000783C1E00783C1E00783C1E00783C1E0014
:1004A000783C1E00F87E1F00F8FF1F00F0FF0F00D1
:1004B000E0E703000000000000003800EEFF6C00E1
:1004C0002A8045003A0047FC03FF6CFC83FF39009B
:1004D000DEFF0B7CD0810BFCD0810BC0D0810BFCEC
:1004E000D0810B7CDEFF0B0082FF397002FF6CF8BD
:1004F0003A0047DC2A8045CCEEFF6CCC0000380087
:100500000000000C00001E0C00001E0000001E0079
:1005100000001E0000001E00F8FF1F00F8FF1F0073
:10052000F8FF1F00F8FF1F0000001E0000001E0063
:1005300000001E0000001E0000005E0000004000E1
:1005400000007C00000040000000400000007C0033
:1005500000003000000010000000300000007C6E41
:10056000616E00696E660000407A10F35A00A07256
:100570004E18090010A5D4E80000E87648170000DE
:10058000E40B54020000CA9A3B000000E1F50500AC
:100590000080969800000040420F000000A08601F5
:1005A000000000102700000000E8030000000064C5
:1005B00000000000000A0000000000010000000030
:1005C000002C76D888DC674F0823DFC1DFAE59E105
:1005D000B1B796E5E3E453C63AE651997696E8E674
:1005E000C28426EB898C9B62ED407C6FFCEFBC9C47
:1005F0009F40F2BAA56FA5F490055A2AF75C936B59
:100600006CF9676DC11BFCE0E40D47FEF520E6B513
:1006100000D0ED902E0300943577050080841E08ED
:100620000000204E0A000000C80C333333330F980B
:100630006E12831141EF8D2114893BE65516CFFED2
:10064000E6DB18D1844B381BF77C1D901DA4BBE45E
:1006500024203284725E228100C9F124ECA1E53DA0
:10066000270011241FBECFEFD8E0DEBFCDBF13E0BF
:10067000A0E0B1E0E8EDF0E702C005900D92AA3DE0
:10068000B107D9F717E0AAEDB3E001C01D92AF3969
:10069000B107E1F70E944C1B0C946A380C940000DF
:1006A0001F93CF93DF93EC0188E660E00E94E12284
:1006B000182F8823A1F481E00E94BB22182F8823E1
:1006C00071F488E661E00E94E122182F882339F452
:1006D000CE0160E00E948F22182F811118820E94A3
:1006E0002723812FDF91CF911F9108951F93CF93DF
:1006F000DF93EC0188E660E00E94E122182F882356
:10070000A1F489E00E94BB22182F882371F488E6A7
:1007100061E00E94E122182F882339F4CE0160E0C5
:100720000E948F22182F811118820E942723812F67
:10073000DF91CF911F9108951F93CF93DF93EC0129
:1007400088E660E00E94E122182F8823A1F488E067
:100750000E94BB22182F882371F488E661E00E9472
:10076000E122182F882339F4CE0160E00E948F2205
:10077000182F811118820E942723812FDF91CF919A
:100780001F9108951F93CF93DF93EC0188E660E0FB
:100790000E94E122182F8823A1F487E00E94BB2247
:1007A000182F882371F488E661E00E94E122182F57
:1007B000882339F4CE0160E00E948F22182F811126
:1007C00018820E942723812FDF91CF911F910895D6
:1007D0001F93CF93DF93EC0188E660E00E94E12253
:1007E000182F8823A1F486E00E94BB22182F8823AB
:1007F00071F488E661E00E94E122182F882339F421
:10080000CE0160E00E948F22182F811118820E9471
:100810002723812FDF91CF911F9108951F93CF93AD
:10082000DF93EC0188E660E00E94E122182F882324
:10083000A1F485E00E94BB22182F882371F488E67A
:1008400061E00E94E122182F882339F4CE0160E094
:100850000E948F22182F811118820E942723812F36
:10086000DF91CF911F9108951F93CF93DF93EC01F8
:1008700088E660E00E94E122182F8823A1F484E03A
:100880000E94BB22182F882371F488E661E00E9441
:10089000E122182F882339F4CE0160E00E948F22D4
:1008A000182F811118820E942723812FDF91CF9169
:1008B0001F9108951F93CF93DF93EC0188E660E0CA
:1008C0000E94E122182F8823A1F483E00E94BB221A
:1008D000182F882371F488E661E00E94E122182F26
:1008E000882339F4CE0160E00E948F22182F8111F5
:1008F00018820E942723812FDF91CF911F910895A5
:100900001F93CF93DF93EC0188E660E00E94E12221
:10091000182F8823A1F482E00E94BB22182F88237D
:1009200071F488E661E00E94E122182F882339F4EF
:10093000CE0160E00E948F22182F811118820E9440
:100940002723812FDF91CF911F9108951F93CF937C
:10095000DF93EC0188E660E00E94E122182F8823F3
:10096000A1F480E00E94BB22182F882371F488E64E
:1009700061E00E94E122182F882339F4CE0160E063
:100980000E948F22182F811118820E942723812F05
:10099000DF91CF911F91089581E00E94411B85E076
:1009A0000E940A1B0E94ED1AA0E0B0E0BC01CD013C
:1009B0000E940E2F20E030E040EA50E40E940D2E0D
:1009C0009B01AC0160E070E286E395E40E94752E25
:1009D00020E030E040E85FE30E940C2E089581E0C3
:1009E0000E94411B87E00E940A1B0E94ED1AA0E0B2
:1009F000B0E0BC01CD010E940E2F20E030E040EAC3
:100A000050E40E940D2E9B01AC0160E070E286E391
:100A100095E40E94752E20E030E040E85FE30E94FC
:100A20000C2E089581E00E94411B83E00E940A1B66
:100A30000E94ED1AA0E0B0E0BC01CD010E940E2F93
:100A400020E030E040EA50E40E940D2E9B01AC0112
:100A500060E070E286E395E40E94752E20E030E0CD
:100A600040E85FE30E940C2E089581E00E94411B44
:100A700084E00E940A1B0E94ED1AA0E0B0E0BC01D5
:100A8000CD010E940E2F20E030E040EA50E40E94A9
:100A90000D2E9B01AC0160E070E286E395E40E94BC
:100AA000752E20E030E040E85FE30E940C2E0895B0
:100AB00081E00E94411B85E00E940A1B0E94ED1A02
:100AC000A0E0B0E0BC01CD010E940E2F20E030E09C
:100AD00040EA5BE30E94FE2F089581E00E94411BE3
:100AE00086E00E940A1B0E94ED1AA0E0B0E0BC0163
:100AF000CD010E940E2F20E030E040EA5BE30E942F
:100B0000FE2F08950F931F9381E08093660480E089
:100B10000E949321082F81E00E949321182F82E0E8
:100B20000E949321113019F422E030E006C020E049
:100B300030E0013011F421E030E0813011F423E0A5
:100B400030E0C9011F910F910895FF920F931F93F9
:100B5000CF93DF930E94551B81E08093660480E071
:100B60000E949321182F81E00E949321082F82E098
:100B70000E949321F82E113019F0C0E0D0E013C08C
:100B800080E091E00E94D73780E20E94641C84EFED
:100B900091E00E94302280E40E944F1C80E20E947B
:100BA0004F1CC1E0D0E0013099F48CE091E00E944C
:100BB000D73780E40E94641C84EF91E00E943022C9
:100BC00080E40E944F1C80E20E944F1CC2E0D0E0F3
:100BD00081E0F816B1F488E191E00E94D73780E413
:100BE0000E94641C80E20E94641C84EF91E00E94D9
:100BF000302280E40E944F1C80E20E944F1CC3E020
:100C0000D0E00E94551BCE01DF91CF911F910F9133
:100C1000FF9008952F923F924F925F926F927F9232
:100C20008F929F92AF92BF92CF92DF92EF92FF92FC
:100C30000F931F93DF93CF93CDB7DEB764970FB6B3
:100C4000F894DEBF0FBECDBF882339F58BED94E05D
:100C50009C8B8B8BADEFB6E0BE83AD83E4EFF5E00C
:100C6000FC83EB8382E695E09A8389830F2EF0E084
:100C70002F2EF0E03F2EF0E04F2EF0E05F2EF02D13
:100C80002F86388A498A5A8A2B863C864D865E860C
:100C90002F82388649865A8643C0A0908406B09039
:100CA0008506C0908606D0908706E0908906F09071
:100CB0008A0600918B0610918C062090E3043090F8
:100CC000E4044090E5045090E6042091ED04309156
:100CD000EE044091EF045091F00480E090E0FC01BC
:100CE000E559FB4FA082B182C282D382FC01E35757
:100CF000F94FE082F18202831383FC01EC57FA4F33
:100D00002082318242825382FC01EE50FB4F2083CD
:100D100031834283538304968837910501F796CF38
:100D2000AB89BC892D913D914D915C911397FD014B
:100D30002483358346835783AD81BE81ED90FD903A
:100D40000D911C911397FD01E482F58206831783B0
:100D5000AB81BC81AD90BD90CD90DC901397FD012F
:100D6000A482B582C682D782A981BA816D907D9016
:100D70008D909C901397FD01648275828682978284
:100D8000C201B1010E940D2E1B012C016F857889D3
:100D900089899A89A80197010E940D2E6F87788B07
:100DA000898B9A8B6B857C858D859E85A6019501A7
:100DB0000E940D2E6B877C878D879E876F8178853B
:100DC00089859A85A40193010E940D2E6F837887EF
:100DD00089879A878B899C8904979C8B8B8BAD81A3
:100DE000BE811497BE83AD83EB81FC813497FC8375
:100DF000EB8389819A8104979A838983AB89BC8923
:100E0000A356B44009F08CCF80918406909185065A
:100E1000A0918606B0918706EB89FC89808791872F
:100E2000A287B3878091890690918A06A0918B064C
:100E3000B0918C0680938D0690938E06A0938F06BA
:100E4000B09390068091E3049091E404A091E504AE
:100E5000B091E6048093840590938505A093860560
:100E6000B09387058091ED049091EE04A091EF047A
:100E7000B091F0048093F2049093F304A093F404EF
:100E8000B093F504C201B10120E030E040EF51E43D
:100E90000E94752E60938406709385068093860663
:100EA000909387066F85788989899A8920E030E058
:100EB00040EF51E40E94752E6093890670938A0674
:100EC00080938B0690938C066B857C858D859E85A3
:100ED00020E030E040EF51E40E94752E6093E3047F
:100EE0007093E4048093E5049093E6046F81788521
:100EF00089859A8520E030E040EF51E40E94752E0C
:100F00006093ED047093EE048093EF049093F004EB
:100F100064960FB6F894DEBF0FBECDBFCF91DF91C0
:100F20001F910F91FF90EF90DF90CF90BF90AF9007
:100F30009F908F907F906F905F904F903F902F90F9
:100F40000895AF92BF92CF92DF92EF92FF920F93EC
:100F50001F937B018C01442361F080E090E0A0E0CE
:100F6000B0E08093E7049093E804A093E904B09381
:100F7000EA04C801B7012091E7043091E8044091E8
:100F8000E9045091EA040E940D2E5B016C0160930C
:100F9000E7047093E8048093E9049093EA04C8019D
:100FA000B7012091800530918105409182055091D3
:100FB00083050E940C2E20E030E040E050E00E94CB
:100FC000FE2F9B01AC01C801B7010E940D2E7B01D1
:100FD0008C01C601B50120E030E040E050E00E9405
:100FE000FE2F9B01AC01C801B7010E940D2E1F917D
:100FF0000F91FF90EF90DF90CF90BF90AF9008954A
:10100000442381F006C0E82FF0E0EC5DFE4F8081C4
:1010100061506623C1F70895E82FF0E0EC5CFE4FC5
:10102000808161506623C1F708952F923F924F92BD
:101030005F926F927F928F929F92AF92BF92CF9268
:10104000DF92EF92FF920F931F93DF93CF93CDB771
:10105000DEB7A0970FB6F894DEBF0FBECDBF2B0151
:101060003C012D833E834F835887E986FA860B87A0
:101070001C87AD86BE86CF86D88A282C3324CA0129
:10108000B90120E030E040E050E00E94C02F181687
:1010900014F4332433946D817E818F8198852CEDF7
:1010A00038EB48E05EE30E94752E0E94DD2E9B0126
:1010B00077FF03C0309521953F4FB901882777FD11
:1010C0008095982F0E94102F69837A838B839C834D
:1010D00069857A858B859C852CED38EB48E05EE34D
:1010E0000E94752E0E94DD2E9B0177FF03C0309574
:1010F00021953F4FB901882777FD8095982F0E9451
:10110000102F4B015C016D857E858F8598892CEDB4
:1011100038EB48E05EE30E94752E0E94DD2E9B01B5
:1011200077FF03C0309521953F4FB901882777FDA0
:101130008095982F0E94102F6B017C01C301B20192
:1011400020E030E040E05FE40E94712E8823A1F5AA
:1011500069817A818B819C810E94E22E2B013C0166
:10116000C501B4010E94E22E4B015C01C701B6012A
:101170000E94E22E6B017C012DB73EB72950304012
:101180000FB6F8943EBF0FBE2DBFEDB7FEB7319638
:10119000ADB7BEB712965C924E921197938282823F
:1011A0007583648326821086178281E062E0432D76
:1011B000920184017601C1C1C301B20120E030E097
:1011C00040E050E00E94712E8823E9F569817A8120
:1011D0008B819C810E94E22E3B01C501B4010E94DB
:1011E000E22E8B01C701B6010E94E22E7B012DB7D2
:1011F0003EB7295030400FB6F8943EBF0FBE2DBF0A
:10120000EDB7FEB7319640E0332009F441E071823A
:10121000608213830283F582E4822682108617821D
:1012200081E062E09301C22CAA24BB24832C0E949B
:10123000361E81E0ADB7BEB719960FB6F894BEBFA3
:101240000FBEADBF89C1C301B20120E030E040E074
:1012500050E00E94C02F18160CF0B1C066E676E68A
:101260008AEA91ECA30192010E94752E20E030E001
:1012700040E85FE30E940D2E7B018C0166E676E676
:101280008AEA91E4A30192010E94752E20E030E0E9
:1012900040E85FE30E940D2E5B016C01EDB7FEB7E5
:1012A00039970FB6F894FEBF0FBEEDBF8DB69EB650
:1012B0000894811C911C6D817E818F819885A80185
:1012C00097010E94FE2F2CED38EB48E05EE30E9470
:1012D000752E0E94E22E698B7A8B8B8B9C8B698595
:1012E0007A858B859C85A80197010E94FE2F2CEDA5
:1012F00038EB48E05EE30E94752E0E94E22E6D8B73
:101300007E8B8F8B988F6D857E858F859889A801C0
:1013100097010E94FE2F2CED38EB48E05EE30E941F
:10132000752E0E94E22E2B013C016D817E818F8102
:101330009885A60195010E94FE2F2CED38EB48E020
:101340005EE30E94752E0E94E22ED4016D937C9381
:1013500069857A858B859C85A60195010E94FE2F63
:101360002CED38EB48E05EE30E94752E0E94E22EE1
:10137000F401738362836D857E858F859889A601CC
:1013800095010E94FE2F2CED38EB48E05EE30E94B1
:10139000752E0E94E22ED40115967C936E931497BD
:1013A00016962C92169718961C921E92179781E00B
:1013B00062E0432D29893A890D891E89BDC0C30188
:1013C000B20120E030E040E050E00E94712E87FD45
:1013D00002C080E0C1C066E676E68AEA91E4A30135
:1013E00092010E94752E20E030E040E85FE30E9409
:1013F0000D2E7B018C0166E676E68AEA91ECA3016C
:1014000092010E94752E20E030E040E85FE30E94E8
:101410000D2E5B016C012DB73EB7295030400FB641
:10142000F8943EBF0FBE2DBF8DB69EB60894811CAA
:10143000911C6D817E818F819885A80197010E9402
:10144000FE2F2CED38EB48E05EE30E94752E0E94E3
:10145000E22E698F7A8F8B8F9C8F69857A858B8539
:101460009C85A80197010E94FE2F2CED38EB48E0E7
:101470005EE30E94752E0E94E22E6D8F7E8F8F8F0D
:1014800098A36D857E858F859889A80197010E9414
:10149000FE2F2CED38EB48E05EE30E94752E0E9493
:1014A000E22E2B013C016D817E818F819885A60102
:1014B00095010E94FE2F2CED38EB48E05EE30E9480
:1014C000752E0E94E22ED4016D937C9369857A85F6
:1014D0008B859C85A60195010E94FE2F2CED38EB93
:1014E00048E05EE30E94752E0E94E22EF4017383B1
:1014F00062836D857E858F859889A60195010E94FE
:10150000FE2F2CED38EB48E05EE30E94752E0E9422
:10151000E22ED40115967C936E93149716962C9216
:10152000169718961C921E92179781E062E0432D41
:10153000298D3A8D0D8D1E8D7201C22CAA24BB24DB
:10154000832C0E94361E81E0EDB7FEB739960FB6A8
:10155000F894FEBF0FBEEDBFA0960FB6F894DEBFA5
:101560000FBECDBFCF91DF911F910F91FF90EF90F4
:10157000DF90CF90BF90AF909F908F907F906F90B3
:101580005F904F903F902F9008952F923F924F92EF
:101590005F926F927F928F929F92AF92BF92CF9203
:1015A000DF92EF92FF920F931F93DF93CF93CDB70C
:1015B000DEB7A0970FB6F894DEBF0FBECDBF2B01EC
:1015C0003C012D833E834F835887E986FA860B873B
:1015D0001C87AD86BE86CF86D88A282C3324CA01C4
:1015E000B90120E030E040E050E00E94C02F181622
:1015F00014F4332433946D817E818F8198852CED92
:1016000038EB48E05EE30E94752E0E94DD2E9B01C0
:1016100077FF03C0309521953F4FB901882777FDAB
:101620008095982F0E94102F69837A838B839C83E7
:1016300069857A858B859C852CED38EB48E05EE3E7
:101640000E94752E0E94DD2E9B0177FF03C030950E
:1016500021953F4FB901882777FD8095982F0E94EB
:10166000102F4B015C016D857E858F8598892CED4F
:1016700038EB48E05EE30E94752E0E94DD2E9B0150
:1016800077FF03C0309521953F4FB901882777FD3B
:101690008095982F0E94102F6B017C01C301B2012D
:1016A00020E030E040E05FE40E94712E8823A1F545
:1016B00069817A818B819C810E94E22E2B013C0101
:1016C000C501B4010E94E22E4B015C01C701B601C5
:1016D0000E94E22E6B017C012DB73EB729503040AD
:1016E0000FB6F8943EBF0FBE2DBFEDB7FEB73196D3
:1016F000ADB7BEB712965C924E92119793828282DA
:101700007583648326821086178280E062E0432D11
:10171000920184017601C1C1C301B20120E030E031
:1017200040E050E00E94712E8823E9F569817A81BA
:101730008B819C810E94E22E3B01C501B4010E9475
:10174000E22E8B01C701B6010E94E22E7B012DB76C
:101750003EB7295030400FB6F8943EBF0FBE2DBFA4
:10176000EDB7FEB7319640E0332009F441E07182D5
:10177000608213830283F582E482268210861782B8
:1017800080E062E09301C22CAA24BB24832C0E9437
:10179000361E81E0ADB7BEB719960FB6F894BEBF3E
:1017A0000FBEADBF89C1C301B20120E030E040E00F
:1017B00050E00E94C02F18160CF0B1C066E676E625
:1017C0008AEA91ECA30192010E94752E20E030E09C
:1017D00040E85FE30E940D2E7B018C0166E676E611
:1017E0008AEA91E4A30192010E94752E20E030E084
:1017F00040E85FE30E940D2E5B016C01EDB7FEB780
:1018000039970FB6F894FEBF0FBEEDBF8DB69EB6EA
:101810000894811C911C6D817E818F819885A8011F
:1018200097010E94FE2F2CED38EB48E05EE30E940A
:10183000752E0E94E22E698B7A8B8B8B9C8B69852F
:101840007A858B859C85A80197010E94FE2F2CED3F
:1018500038EB48E05EE30E94752E0E94E22E6D8B0D
:101860007E8B8F8B988F6D857E858F859889A8015B
:1018700097010E94FE2F2CED38EB48E05EE30E94BA
:10188000752E0E94E22E2B013C016D817E818F819D
:101890009885A60195010E94FE2F2CED38EB48E0BB
:1018A0005EE30E94752E0E94E22ED4016D937C931C
:1018B00069857A858B859C85A60195010E94FE2FFE
:1018C0002CED38EB48E05EE30E94752E0E94E22E7C
:1018D000F401738362836D857E858F859889A60167
:1018E00095010E94FE2F2CED38EB48E05EE30E944C
:1018F000752E0E94E22ED40115967C936E93149758
:1019000016962C92169718961C921E92179780E0A6
:1019100062E0432D29893A890D891E89BDC0C30122
:10192000B20120E030E040E050E00E94712E87FDDF
:1019300002C080E0C1C066E676E68AEA91E4A301CF
:1019400092010E94752E20E030E040E85FE30E94A3
:101950000D2E7B018C0166E676E68AEA91ECA30106
:1019600092010E94752E20E030E040E85FE30E9483
:101970000D2E5B016C012DB73EB7295030400FB6DC
:10198000F8943EBF0FBE2DBF8DB69EB60894811C45
:10199000911C6D817E818F819885A80197010E949D
:1019A000FE2F2CED38EB48E05EE30E94752E0E947E
:1019B000E22E698F7A8F8B8F9C8F69857A858B85D4
:1019C0009C85A80197010E94FE2F2CED38EB48E082
:1019D0005EE30E94752E0E94E22E6D8F7E8F8F8FA8
:1019E00098A36D857E858F859889A80197010E94AF
:1019F000FE2F2CED38EB48E05EE30E94752E0E942E
:101A0000E22E2B013C016D817E818F819885A6019C
:101A100095010E94FE2F2CED38EB48E05EE30E941A
:101A2000752E0E94E22ED4016D937C9369857A8590
:101A30008B859C85A60195010E94FE2F2CED38EB2D
:101A400048E05EE30E94752E0E94E22EF40173834B
:101A500062836D857E858F859889A60195010E9498
:101A6000FE2F2CED38EB48E05EE30E94752E0E94BD
:101A7000E22ED40115967C936E93149716962C92B1
:101A8000169718961C921E92179780E062E0432DDD
:101A9000298D3A8D0D8D1E8D7201C22CAA24BB2476
:101AA000832C0E94361E81E0EDB7FEB739960FB643
:101AB000F894FEBF0FBEEDBFA0960FB6F894DEBF40
:101AC0000FBECDBFCF91DF911F910F91FF90EF908F
:101AD000DF90CF90BF90AF909F908F907F906F904E
:101AE0005F904F903F902F9008950E946221282F81
:101AF00021702093820690E0827090709595879572
:101B00008093830608950E94580560937A05709328
:101B10007B0580937C0590937D050E946D05609305
:101B20001107709312078093130790931407089579
:101B30000E94EF046093E3047093E4048093E5044F
:101B40009093E6040E94CC046093ED047093EE043D
:101B50008093EF049093F0040E943505609384060F
:101B60007093850680938606909387060E941205DF
:101B70006093890670938A0680938B0690938C06F7
:101B80000895CF92DF92EF92FF920F931F93CF931E
:101B9000DF93162FE42E5FE1F52EF8221F770F2D2D
:101BA000069506950695C02FD0E0C12EDD24CE0106
:101BB000B6010E941B1C802F612F0E94141CFE0185
:101BC00045E0EE0FFF1F4A95E1F72F2D30E0EE20A4
:101BD00089F0EC0DFD1DE450FA4F2770307081E064
:101BE00090E002C0880F991F2A95E2F72081282BE8
:101BF000208311C0EC0DFD1DE450FA4F27703070AA
:101C000081E090E002C0880F991F2A95E2F7809545
:101C100020818223808335E0CC0FDD1F3A95E1F7E8
:101C2000CC0DDD1DC450DA4F888161E00E94341C68
:101C3000DF91CF911F910F91FF90EF90DF90CF90A8
:101C400008957F928F929F92AF92BF92CF92DF9230
:101C5000EF92FF920F931F93982EB62EC42EA22EB2
:101C6000802E7E2CBB0CBB0CBB0CDD2423E0CC0CEB
:101C7000DD1C2A95E1F71C2D0FE10B19802F6C2D2F
:101C800041E00E94C10D98E1E92EEB188E2D6C2DDC
:101C900041E00E94C10D87E0F82EFC0C802F6F2DD3
:101CA00041E00E94C10D8E2D6F2D41E00E94C10DBB
:101CB000C92C93FE24C0612F6F5F802F41E00E94EA
:101CC000C10D612F6E5F802F41E00E94C10D612F19
:101CD0006D5F802F41E00E94C10D612F6C5F802FEE
:101CE00041E00E94C10D612F6B5F802F41E00E9497
:101CF000C10D612F6A5F802F41E00E94C10DC2FEBD
:101D000025C08B2D8095815E6F2D41E00E94C10D15
:101D10008DE18B196F2D41E00E94C10D8CE18B1973
:101D20006F2D41E00E94C10D8BE18B196F2D41E0B9
:101D30000E94C10D8AE18B196F2D41E00E94C10DF7
:101D400089E18B196F2D41E00E94C10DC1FE24C0B5
:101D5000612F6F5F8E2D41E00E94C10D612F6E5F7C
:101D60008E2D41E00E94C10D612F6D5F8E2D41E0EF
:101D70000E94C10D612F6C5F8E2D41E00E94C10D4C
:101D8000612F6B5F8E2D41E00E94C10D612F6A5F54
:101D90008E2D41E00E94C10DC0FE25C08B2D809587
:101DA000815E612F41E00E94C10D8DE18B19612F91
:101DB00041E00E94C10D8CE18B19612F41E00E942E
:101DC000C10D8BE18B19612F41E00E94C10D8AE1A9
:101DD0008B19612F41E00E94C10D89E18B19612FA0
:101DE00041E00E94C10DAA20E1F1BCE1EB2EEB180D
:101DF000A3E0CA2EC10E8E2D6C2D4A2D0E94C10D5E
:101E0000FBE1FF2EFB188F2D6C2D4A2D0E94C10D7A
:101E1000012F0C5F8E2D602F4A2D0E94C10D8F2D3A
:101E2000602F4A2D0E94C10D81E0881671F088163E
:101E300040F082E0881661F083E0881609F04AC01D
:101E40000BC08DE18B196C2D0AC01B5F8E2D06C057
:101E50008AE18B19602F03C01E5F8F2D612F4A2DE1
:101E600037C07720B9F1ECE1CE2ECB1873E0E72E26
:101E7000E10E8C2D6E2D40E00E94C10D0BE10B197F
:101E8000802F6E2D40E00E94C10D64E0F62EF10E11
:101E90008C2D6F2D40E00E94C10D802F6F2D40E0F2
:101EA0000E94C10D8DE18B196E2D40E00E94C10D85
:101EB0001B5F8C2D612F40E00E94C10D8AE18B19C0
:101EC0006F2D40E00E94C10D1350802F612F40E024
:101ED0000E94C10D1F910F91FF90EF90DF90CF9066
:101EE000BF90AF909F908F907F9008959F92AF92F8
:101EF000BF92CF92DF92EF92FF920F931F93CF93F7
:101F0000DF93982E80918006A82EA694A69443E095
:101F1000B42EB822CC24DD241EC08881FA1419F016
:101F200020E030E006C020E030E01B1511F421E095
:101F300030E06F2D412F00917F05E92C0E94210E8A
:101F40001F5F2196143049F70894C11CD11C84E00E
:101F5000C816D10451F0FC2CE601CC0FDD1FCC0FCC
:101F6000DD1FC159DC4F10E0D8CFDF91CF911F9119
:101F70000F91FF90EF90DF90CF90BF90AF909F9028
:101F800008951F93182F609115077091160780917F
:101F900017079091180720916704309168044091C9
:101FA000690450916A040E940D2E20E030E040E068
:101FB0005FE30E94FE2F2CED38EB48E05EE30E94C9
:101FC000FE2F20916A0530916B0540916C05509170
:101FD0006D050E94C02F1816BCF481E0809388061E
:101FE00080E090E0A0E0B0E08093150790931607A2
:101FF000A0931707B0931807809367049093680421
:10200000A0936904B0936A041123D9F082E060E0E0
:1020100070E00E94B91F1092880680E090E0A0E076
:10202000B0E08093150790931607A0931707B0931D
:1020300018078093670490936804A0936904B09391
:102040006A041F9108950E94E12190936604809391
:1020500065040E945B1C90936404809363040E9457
:10206000721B90936204809361040E94DD1E82E0E3
:102070000E94611D0E945B1C0E943B230E94DF1A8C
:1020800081E00E94411B0E94980D81E00E940A0697
:102090008FEE90E0A5E8B1E480936A0590936B051C
:1020A000A0936C05B0936D0520E030E00AC011925A
:1020B000019680329105D9F72F5F3F4F24303105CB
:1020C00059F0F90155E0EE0FFF1F5A95E1F7E45082
:1020D000FA4F80E090E0EBCF0895EF92FF920F93DC
:1020E0001F936091E3047091E4048091E504909162
:1020F000E60420E030E040E551E40E94712EF82E25
:10210000FF1CFF24FF1CFF0CFF0CFF0C60918406DA
:1021100070918506809186069091870620E030E0D8
:1021200040EF51E40E94712E082F001F0027001F6E
:10213000000F000F6091ED047091EE048091EF04A8
:102140009091F00420E030E04CE052E40E94712EC7
:10215000182F111F1127111F110FEE2460918906EE
:1021600070918A0680918B0690918C0620E030E079
:1021700040EF51E40E94712E882314F4EE24E3947E
:102180008F2D8E0D800F810F8093EB042091EC0436
:10219000E22FF0E0EB5FF84F91819093F104891703
:1021A00019F42F5F2093EC041F910F91FF90EF9093
:1021B00008952F923F924F925F926F927F928F92EB
:1021C0009F92AF92BF92CF92DF92EF92FF920F93C6
:1021D0001F93E090E304F090E4040091E504109173
:1021E000E6043324C801B70120E030E040E050E0CD
:1021F0000E94712E882314F433243394A09089060E
:10220000B0908A06C0908B06D0908C0640908406D1
:1022100050908506609086067090870688246091AD
:10222000ED047091EE048091EF049091F00420E0B1
:1022300030E040E751E40E94712E882314F4882492
:102240008394932C98288824C601B50120E030E0BF
:1022500040E751E40E94712E882314F4882483946B
:1022600098288824C301B20120E030E040E751E41F
:102270000E94712E882314F488248394292C282802
:1022800081F460E070E080E09FE420E030E040E234
:1022900051E479018A0159016A0188240E941508D4
:1022A000F7C0C601B50120E030E040E751E40E94EC
:1022B000C02F181664F480E090E0A0E4B0EC8093A6
:1022C000890690938A06A0938B06B0938C06C3016F
:1022D000B20120E030E040E751E40E94C02F181620
:1022E00014F080E00DC080E090E0A0E4B0EC8093BA
:1022F000840690938506A0938606B093870681E0B6
:10230000332021F1882329F060E070E08AE794E42B
:1023100004C060E070E08AE794ECA80197010E9495
:10232000752E209184063091850640918606509145
:1023300087060E940D2E9B01AC0160918906709169
:102340008A0680918B0690918C0610C06091890658
:1023500070918A0680918B0690918C06209184065C
:102360003091850640918606509187060E940C2E7A
:10237000905840E00E94A1076B017C010E94DD2E75
:102380008B0177FF03C0109501951F4F053611058E
:10239000FCF0C701B60120E030E040E050E00E94D0
:1023A000712E8823A9F0B801882777FD8095982F92
:1023B0000E94102F9B01AC01C701B6010E94752E2F
:1023C00020E030E048EC52E40E94FE2F6B017C01DB
:1023D000C701B60120E030E048EC52E40E94752EBF
:1023E0006B017C018DB79EB709970FB6F8949EBF1D
:1023F0000FBE8DBF0DB71EB70F5F1F4FC701B601D0
:1024000020E030E048EC52E40E94FE2F20E030E073
:1024100048EC52E40E940D2E0E94E22E4B015C011A
:1024200082E390E0F80191838083C701B60120E048
:1024300030E048EC52EC0E94FE2F20E030E048EC07
:1024400052E40E940D2E0E94E22EF80173836283F3
:1024500082EC91E09583848316821086178281E056
:1024600062E041E022E330E0840192ECE92E91E069
:10247000F92ECC24AA24BB24882483940E94361EDF
:102480008DB79EB709960FB6F8949EBF0FBE8DBF4D
:10249000822D1F910F91FF90EF90DF90CF90BF9012
:1024A000AF909F908F907F906F905F904F903F90F4
:1024B0002F9008952F923F924F925F926F927F924A
:1024C0008F929F92AF92BF92CF92DF92EF92FF9244
:1024D0000F931F93E090E304F090E4040091E5046F
:1024E0001091E6043324C801B70120E030E040E059
:1024F00050E00E94712E882314F433243394A0906A
:102500008906B0908A06C0908B06D0908C064090C9
:102510008406509085066090860670908706882411
:102520006091ED047091EE048091EF049091F004BD
:1025300020E030E040E751E40E94712E882314F43B
:1025400088248394932C98288824C601B50120E020
:1025500030E040E751E40E94712E882314F488246F
:10256000839498288824C301B20120E030E040E73A
:1025700051E40E94712E882314F488248394292C1A
:10258000282809F08AC00E946E1D60937C06709313
:102590007D0680937E0690937F06CB0161157105C1
:1025A000E1F064E170E0681B790B80E090E00E944C
:1025B0000E2F9B01AC016091150770911607809159
:1025C0001707909118070E940D2E609315077093BE
:1025D0001607809317079093180780917E069091B5
:1025E0007F060097E1F064E170E0681B790B80E002
:1025F00090E00E940E2F9B01AC01609167047091E6
:1026000068048091690490916A040E940D2E609381
:102610006704709368048093690490936A0482E06D
:1026200060E070E00E94B91F8DB79EB709970FB6A2
:10263000F8949EBF0FBE8DBFEDB7FEB7319684E113
:1026400090E0ADB7BEB712969C938E93119788EC2D
:1026500090E09383828382EC91E095838483168259
:102660001086178281E062E041E024E130E008EC6E
:1026700010E072ECE72E71E0F72ECC24AA24BB24E4
:10268000882483940E94361EEDB7FEB739960FB6A4
:10269000F894FEBF0FBEEDBF48C1C601B50120E0F2
:1026A00030E040E751E40E94C02F181664F480E047
:1026B00090E0A0E4B0EC8093890690938A06A09302
:1026C0008B06B0938C06C301B20120E030E040E7F6
:1026D00051E40E94C02F181614F080E00DC080E075
:1026E00090E0A0E4B0EC8093840690938506A093DC
:1026F0008606B093870681E0332021F1882329F0F4
:1027000060E070E08AE794E404C060E070E08AE78B
:1027100094ECA80197010E94752E209184063091B7
:10272000850640918606509187060E940D2E9B01DA
:10273000AC016091890670918A0680918B06909118
:102740008C0610C06091890670918A0680918B0674
:1027500090918C06209184063091850640918606E2
:10276000509187060E940C2E905840E00E94A107CD
:102770006B017C010E94DD2E8B0177FF03C0109559
:1027800001951F4F05361105FCF0C701B60120E089
:1027900030E040E050E00E94712E8823A9F0B8019B
:1027A000882777FD8095982F0E94102F9B01AC0100
:1027B000C701B6010E94752E20E030E048EC52E4DB
:1027C0000E94FE2F6B017C01C701B60120E030E0C2
:1027D00048EC52E40E94752E4B015C010E946E1D74
:1027E00060937C0670937D0680937E0690937F06AF
:1027F000CB0161157105E1F064E170E0681B790BB4
:1028000080E090E00E940E2F9B01AC0160911507C3
:102810007091160780911707909118070E940D2E4E
:102820006093150770931607809317079093180706
:1028300080917E0690917F060097E1F064E170E060
:10284000681B790B80E090E00E940E2F9B01AC0189
:1028500060916704709168048091690490916A04A2
:102860000E940D2E6093670470936804809369043E
:1028700090936A0482E060E070E00E94B91F8DB717
:102880009EB709970FB6F8949EBF0FBE8DBF0DB7C8
:102890001EB70F5F1F4FC501B40120E030E048ECC8
:1028A00052E40E94FE2F20E030E048EC52E40E9407
:1028B0000D2E0E94E22E6B017C0184E190E0D80194
:1028C0008D939C93C501B40120E030E048EC52ECBC
:1028D0000E94FE2F20E030E048EC52E40E940D2ED2
:1028E0000E94E22EF8017383628382EC91E095836B
:1028F000848316821086178281E062E041E024E141
:1029000030E0860152ECE52E51E0F52ECC24AA24CD
:10291000BB24882483940E94361E8DB79EB70996E7
:102920000FB6F8949EBF0FBE8DBF822D1F910F91E1
:10293000FF90EF90DF90CF90BF90AF909F908F90DF
:102940007F906F905F904F903F902F900895FF92EF
:102950000F931F93142F082F06950695E3E0FE2E84
:10296000F822623031F06330A9F06130B1F41150D7
:1029700012C0413049F0413028F0423039F0433044
:10298000B9F406C0015014C0F39412C00F5F10C018
:10299000FA940EC01F5F13700BC000D084E491E066
:1029A000EDB7FEB7928381830E94C5370F900F90D9
:1029B00010937F05000F000F802F8F0D1F910F9137
:1029C000FF9008958F92AF92BF92CF92DF92EF92D5
:1029D000FF920F931F9380911907823069F0833023
:1029E000A1F0813051F560E070E080E090E020E0FF
:1029F00030E04CE851EC11C060E070E080E09FE412
:102A000020E030E044E352E408C060E070E080E0A1
:102A100090E020E030E04CE851E40F2EF0E0EF2EA3
:102A2000F0E0FF2EF0E20F2FF1E41F2FF02D570101
:102A3000680188240E94C50A0BC000D08DE491E093
:102A4000EDB7FEB7928381830E94C5370F900F9038
:102A50001F910F91FF90EF90DF90CF90BF90AF90BC
:102A60008F9008958091EB0480FD02C081E005C045
:102A700083FD02C082E001C083E08093190780914A
:102A80001A07813029F0813038F0843028F40FC0E3
:102A900082E0809319070BC000D086E591E0EDB786
:102AA000FEB7928381830E94C5370F900F9080916B
:102AB000190780931A0708958091E903853080F003
:102AC000EAEDF3E081818083868185838385828737
:102AD000319683E0EF3DF807A9F784E08093E9039E
:102AE0000E943215E091E903F0E0E652FC4F80913C
:102AF000EB04808390911907958380917F058287ED
:102B0000913019F0933041F402C0815001C08F5FC1
:102B1000837080937F050BC000D08DE491E0EDB70A
:102B2000FEB7928381830E94C5370F900F908091EA
:102B3000E9038F5F8093E90308958F92AF92BF926C
:102B4000CF92DF92EF92FF920F931F930E94551B3B
:102B5000E091EC04F0E0E259FA4FE081E0931907CC
:102B600080E0E13009F481E090E0E33009F491E0A5
:102B7000892B282F30E040E050E080911A07823006
:102B800011F441E050E024233523232BB9F060E019
:102B900070E080E09FE428E431EE46EB51E40F2E34
:102BA000F0E0EF2EF0E0FF2EF0E20F2FF1E41F2F08
:102BB000F02D5701680188240E94C50A20911A0748
:102BC00080E0213009F481E090E0233009F491E0C5
:102BD000892B282F30E040E050E0809119078230A7
:102BE00011F441E050E024233523232BB9F060E0B9
:102BF00070E080E09FE425E33FEE40EA51E40F2ED1
:102C0000F0E0EF2EF0E0FF2EF0E20F2FF1E41F2FA7
:102C1000F02D5701680188240E94C50A8091190788
:102C20008230C1F1833009F461C0813009F09FC066
:102C30008DB79EB708970FB6F8949EBF0FBE8DBF95
:102C4000EDB7FEB731968FE591E0ADB7BEB71296FE
:102C50009C938E9311978091EC04828313828091D0
:102C6000EB04848315828091F104868317820E948D
:102C7000C537EDB7FEB738960FB6F894FEBF0FBE56
:102C8000EDBF60E070E080E090E020E030E04CE8F4
:102C900051EC5DC08DB79EB708970FB6F8949EBFF4
:102CA0000FBE8DBFEDB7FEB731968AE891E0ADB7A4
:102CB000BEB712969C938E9311978091EC048283F9
:102CC00013828091EB04848315828091F1048683C2
:102CD00017820E94C537EDB7FEB738960FB6F89445
:102CE000FEBF0FBEEDBF0E94D91053C08DB79EB777
:102CF00008970FB6F8949EBF0FBE8DBFEDB7FEB715
:102D0000319688EB91E0ADB7BEB712969C938E9347
:102D100011978091EC04828313828091EB04848369
:102D200015828091F104868317820E94C537EDB722
:102D3000FEB738960FB6F894FEBF0FBEEDBF60E049
:102D400070E080E090E020E030E04CE851E40F2EAD
:102D5000F0E0EF2EF0E0FF2EF0E20F2FF1E41F2F56
:102D6000F02D5701680188240E94C50A12C000D0C6
:102D700084EE91E0ADB7BEB712969C938E931197F7
:102D80000E94C5370F900F9082E060E00E946020A3
:102D9000FFCF8091190780931A0781E01F910F914F
:102DA000FF90EF90DF90CF90BF90AF908F900895FD
:102DB000FF920F931F93CF93DF93FF24F39410E0C0
:102DC000CDEED1E00E948205082F813021F08230C3
:102DD00011F0833039F4E12FF0E0E259FA4F00832B
:102DE0001F5F02C0882321F10E94551B8DB79EB73B
:102DF00008970FB6F8949EBF0FBE8DBFEDB7FEB714
:102E00003196ADB7BEB71296DC93CE931197F2828E
:102E1000138204831582168317820E94C537F02E11
:102E20008DB79EB708960FB6F8949EBF0FBE8DBFA4
:102E300084EF91E00E9430221B3020F21F5FE12FCF
:102E4000F0E0E259FA4F84E08083DF91CF911F9147
:102E50000F91FF9008951F93CF93DF9310E0CEE181
:102E6000D2E00E948205813021F480918006880F93
:102E700006C0823039F480918006880F8F5F80937E
:102E800080061F5F0E94551B00D000D000D0EDB718
:102E9000FEB73196ADB7BEB71296DC93CE931197BD
:102EA0008091800682831382148315820E94C53725
:102EB0008DB79EB706960FB6F8949EBF0FBE8DBF16
:102EC00084EF91E00E943022143058F28091800605
:102ED00080938106DF91CF911F9108951F93CF9327
:102EE000DF9310E0C6E4D2E00E948205813021F435
:102EF00080917F05880F06C0823041F480917F0564
:102F0000880F8F5F80937F051F5F02C08823F1F0D9
:102F10000E94551B00D000D000D0EDB7FEB731960F
:102F2000ADB7BEB71296DC93CE93119780917F0513
:102F300082831382148315820E94C5378DB79EB792
:102F400006960FB6F8949EBF0FBE8DBF84EF91E03A
:102F50000E943022123040F20E94551B80917F0562
:102F6000813051F0813028F0823049F0833071F4A3
:102F700009C085E792E008C087E992E005C088EBC8
:102F800092E002C08AED92E00E94D73780917F05DF
:102F900080937E0584EF91E00E943022DF91CF91F3
:102FA0001F910895CF92DF92EF92FF920F931F939C
:102FB000DF93CF930F92CDB7DEB780918006F82EC6
:102FC000F694F694982F937000917F05CC24DD241D
:102FD000F601E259FA4F1081EF2DF0E0EE0FFF1FDE
:102FE000EE0FFF1FE90FF11DE159FC4F8081602FAB
:102FF00041E099830E940008F601EB5FF84F80835F
:103000009981123089F4013049F0013028F0023002
:1030100039F0033089F406C0FA940EC09F5F0CC0EB
:10302000F3940AC0915008C0133011F40F5F03C02D
:10303000113011F4015003700894C11CD11C8DE0B3
:10304000C816D10429F6CC24DD247BEFE72E72E0EC
:10305000F72EF601EB5FF84F00810E94551B202FE1
:1030600030E0ADB7BEB754970FB6F894BEBF0FBEF1
:10307000ADBFEDB7FEB731961296FC92EE92119766
:10308000D382C282112707FD10950027110F001F60
:10309000112715830483C90156E0969587955A95A3
:1030A000E1F78170907097838683C90145E096951A
:1030B00087954A95E1F78170907091878087C90163
:1030C00004E0969587950A95E1F781709070938753
:1030D0008287C90113E0969587951A95E1F781706B
:1030E000907095878487C901969587959695879561
:1030F0008170907097878687C901969587958170B2
:103100009070918B808B21703070338B228B0E945A
:10311000C537EDB7FEB774960FB6F894FEBF0FBE75
:10312000EDBF88EE93E00E9430220894C11CD11CB0
:10313000FDE0CF16D10409F08CCF0F90CF91DF9135
:103140001F910F91FF90EF90DF90CF9008951F9304
:10315000109180068091EB0460917F0540E00E9411
:103160000008E12FE695E695F0E0EE0FFF1FEE0F69
:10317000FF1F1370E10FF11DE159FC4F80831F9178
:103180000895DF92EF92FF920F931F93062F142F53
:10319000FF242EC0053090F5153080F5EF2DF0E0BE
:1031A000E652FC4FD580E28480816E2D40E00E9483
:1031B0000008E02FF0E0EE0FFF1FEE0FFF1FE10F02
:1031C000F11DE159FC4F90818917C1F4802F880FC0
:1031D000880F810F809380066D2D4E2D0E94A714BD
:1031E00080938006082F06950695182F1370F39488
:1031F0008091E903F81670F281E001C080E01F9130
:103200000F91FF90EF90DF900895DF92EF92FF9281
:103210000F931F93CF93DF93D090DA0310921B0785
:1032200000E010E01AC08881D81669F48FE693E0B8
:103230006E2D4F2D0E94C118882329F080911B0705
:103240008F5F80931B07F394219684E0F81659F75B
:103250000F5F1F4F0430110551F0E02EE801CC0F35
:10326000DD1FCC0FDD1FC159DC4FFF24DCCF90E008
:1032700080911B07813009F091E0892FDF91CF9178
:103280001F910F91FF90EF90DF9008958F929F9282
:10329000AF92BF92CF92DF92EF92FF920F931F9364
:1032A000CF93DF930E9423100E94551B8DE193E082
:1032B0000E94D73781E00E94760F88EE93E00E944B
:1032C00030220E94551B6EE2862E63E0962EC5E3E7
:1032D000D3E059E3A52E53E0B52E40E4C42E43E0DD
:1032E000D42E37E4E32E33E0F32E03E513E035C1AB
:1032F0000E94980D0E946D100E945C150E94051995
:1033000080936E030E94551B00D0ADB7BEB71296D6
:103310009C928E9211970E94C53700D0EDB7FEB7F0
:103320003196ADB7BEB71296DC93CE9311978091CC
:10333000DA03828313820E94C537EDB7FEB7319658
:10334000ADB7BEB71296DC93CE9311978091DB0395
:10335000828313820E94C537EDB7FEB73196ADB7B1
:10336000BEB71296DC93CE9311978091DC038283D3
:1033700013820E94C537EDB7FEB73196ADB7BEB721
:103380001296DC93CE9311978091DD038283138292
:103390000E94C537EDB7FEB73196ADB7BEB71296EE
:1033A000DC93CE9311978091DE03828313820E9477
:1033B000C5370F900F90EDB7FEB7B282A1820E9481
:1033C000C53700D0EDB7FEB73196ADB7BEB7129690
:1033D000DC93CE9311978091DF03828313820E9446
:1033E000C537EDB7FEB73196ADB7BEB71296DC93D1
:1033F000CE9311978091E003828313820E94C53798
:10340000EDB7FEB73196ADB7BEB71296DC93CE934B
:1034100011978091E103828313820E94C537EDB733
:10342000FEB73196ADB7BEB71296DC93CE93119727
:103430008091E203828313820E94C537EDB7FEB705
:103440003196ADB7BEB71296DC93CE9311978091AB
:10345000E303828313820E94C5370F900F90EDB76C
:10346000FEB7D282C1820E94C53700D0EDB7FEB749
:103470003196ADB7BEB71296DC93CE93119780917B
:10348000E403828313820E94C537EDB7FEB73196FD
:10349000ADB7BEB71296DC93CE9311978091E5033A
:1034A000828313820E94C537EDB7FEB73196ADB760
:1034B000BEB71296DC93CE9311978091E603828378
:1034C00013820E94C537EDB7FEB73196ADB7BEB7D0
:1034D0001296DC93CE9311978091E7038283138237
:1034E0000E94C537EDB7FEB73196ADB7BEB712969D
:1034F000DC93CE9311978091E803828313820E941C
:10350000C537EDB7FEB73196ADB7BEB71296FC9290
:10351000EE92119780916E03828313820E94C537C9
:10352000EDB7FEB73196ADB7BEB712961C930E93AA
:10353000119780911B07828313820E94C5370F90D9
:103540000F900F900F9080ED97E00E9430220E9424
:10355000E21480916E03882329F080916E03882302
:1035600009F0C6CE0E94551B00D08EE593E0EDB762
:10357000FEB7928381830E94C5370F900F9088EB2E
:103580009BE00E9430220E94551B8DE193E00E9437
:10359000D73781E00E94760F80E197E20E943022C7
:1035A0000E94551BDF91CF911F910F91FF90EF90DB
:1035B000DF90CF90BF90AF909F908F9008958FE055
:1035C0000E94D320882331F40E9462238FE061E0BF
:1035D0000E941B218FE091E008958FE00E94D3208C
:1035E000813019F020E030E013C080917A008064CF
:1035F00080937A0080917A0086FDFCCF309178002C
:1036000020917900922F80E0232F30E0282B392B56
:10361000C9010895582F80917F038830D8F44091D4
:103620007E0021E030E0B90102C0660F771F8A9565
:10363000E2F7CB018095842380937E0080917E0009
:10364000052E02C0220F331F0A94E2F7822B8093CB
:103650007E000DC020917E0081E090E0052E02C02A
:10366000880F991F0A94E2F7282B20937E0050932D
:103670007F0380917C005F71807E852B80937C002E
:103680000895ECE7F0E090818295880F880F807CA8
:103690009F73982B908308950E947B230E946D2333
:1036A0000E94461980E090E008950F931F9380E4F4
:1036B00060E00E94341C00E0802F60E00E941B1C30
:1036C00010E080E061E00E94341C1F5F1038C9F7F1
:1036D0000F5F043089F783E060E00E94141C1F91A3
:1036E0000F9108950F931F9382E00E94D3208823A7
:1036F00011F482E006C081E00E94D320882319F4EF
:1037000081E090E06DC00E94E32585E061E00E94C9
:103710001B218EEA60E00E94341C82EA60E00E9475
:10372000341C80EA60E00E94341C00E513ECC80100
:103730000197F1F780EC60E00E94341C8FE260E0BA
:103740000E94341C81E860E00E94341C86E160E045
:103750000E94341C82E260E00E94341CC801019780
:10376000F1F78FEA60E00E94341C86EA60E00E9474
:10377000341C85EA60E00E94341C80E090E028E878
:1037800033E1F9013197F1F7019643E0883E940760
:10379000C1F783EB60E00E94341C80E460E00E948B
:1037A000341C83E060E00E941B1C83E060E00E9408
:1037B000141C10926B0710926D0710926C078EE824
:1037C00093E090939C0780939B0788E10E94F31BF2
:1037D0000E94551B84EA60E00E94341C85E091E061
:1037E0001F910F9108951F93182F85E00E94D320F9
:1037F0008130C1F487E00E94701C82E06AE00E9480
:10380000C11C82E061EB0E94C11C612F113208F0E3
:1038100060E282E00E94C11C89EE8A95F1F787E0A0
:103820000E94701C1F91089583706F7760936907E1
:1038300080936A0708950F931F93062F162F1F7703
:103840008370806B60E00E94341C12951F70812F82
:10385000806160E00E94341C802F8F7060E00E94C5
:10386000341C1F910F9108950F931F93082F162F4B
:1038700085E00E94D320813079F4112319F01130B2
:1038800021F402C02B9801C02B9A86E08A95F1F7AB
:1038900080E0602F0E94C11C1F910F9108951F931B
:1038A000182F86E00E94D320813019F4812F0E94C6
:1038B00092261F9108950E94972686E061E00E945B
:1038C0001B2186E091E008951F93182F86E00E9447
:1038D000D320813019F4812F0E949A261F910895D8
:1038E0001F93182F82E00E94D320813009F047C037
:1038F000912F977080916E07981709F440C09093AC
:103900006E0785B1887F892B85B9933011F194308A
:1039100028F4913051F0923090F40CC0953019F1A8
:103920009530E0F0963021F50FC0E0913C04F09125
:103930003D0422C0E0913A04F0913B041DC0E091A7
:103940003E04F0913F0418C0E0914604F091470412
:1039500013C0E0914004F09141040EC0E091420494
:10396000F091430409C0E0914404F091450404C07F
:10397000E0914804F0914904309709F009951F91AE
:1039800008951F93162F0E94701C82E00E94D3207E
:10399000813021F41EBD0DB407FEFDCF1F910895A7
:1039A0000F931F93CF93DF9380E291E00E94A6359F
:1039B0009C019093590480935804892B11F480E062
:1039C00039C08901C0E0D0E0BE0180E090E00E94F3
:1039D0000E2F20E030E040EA51E40E94752E27EFE0
:1039E00035E740E05FE30E94FE2F9B01AC0160E001
:1039F00070E080E291E40E9461309B01AC01CA0159
:103A0000B9012DEC3CEC42E851E40E94FE2F0E94EB
:103A1000C42F2AE030E040E050E00E942E35F8014B
:103A200061937193819391938F012196C834D1054D
:103A300059F681E0DF91CF911F910F9108958AE0AF
:103A40000E94D320882371F41092550410925404DC
:103A500081E00E94D52781E080934B048AE061E0F9
:103A60000E941B218AE091E008951F938BE00E9441
:103A7000D320882311F090E021C089E00E94D32058
:103A80008823D9F40E94D01C182F8130B1F41092F1
:103A90004C0410924D0410924E0410924F048DE08D
:103AA00068E577E20E94BB2582E00E94D52710934B
:103AB0004A0489E061E00E941B2191E089E01F91A6
:103AC0000895813029F0823031F090E089E0089546
:103AD0000E941F1D08950E94351D089580912F0793
:103AE000909130072091310730913207BC01C90114
:103AF00008952F923F924F925F926F927F928F9292
:103B00009F92AF92BF92CF92DF92EF92FF920F936C
:103B10001F93DF93CF93CDB7DEB7582E962E442E4A
:103B200039013C2CC98CDA8C2B8C81E0681739F177
:103B3000681728F092E0691709F085C049C080E055
:103B400061E00E94821F80E0B7010E944B1F80E06D
:103B5000642DA3019801032DEE24E394E4E5CE2E19
:103B6000E7E0DE2E0E94D41F552009F06CC000D083
:103B70000F92EDB7FEB71182B382A28223C081E01B
:103B800061E00E94821F81E0B6010E944B1F81E02C
:103B9000682D4D895E892F89388D022DEE24E3949E
:103BA00074E5C72E77E0D72E0E94D41F552009F068
:103BB0004AC000D00F92EDB7FEB791828C8D9D8DDB
:103BC000938382830E9485200F900F900F903BC0BB
:103BD00082E061E00E94821F80E0B7010E944B1FDB
:103BE00081E0B6010E944B1F80E0642DA301980183
:103BF000032DEE24E39494E5C92E97E0D92E0E947C
:103C0000D41F81E0682D4D895E892F89388D022D62
:103C10000E94D41F5520B9F400D000D00F92ADB748
:103C2000BEB71196EDB7FEB79182FD01B282A182B7
:103C30008C8D9D8D948383830E9485200F900F909F
:103C40000F900F900F90CF91DF911F910F91FF90E8
:103C5000EF90DF90CF90BF90AF909F908F907F902C
:103C60006F905F904F903F902F9008956F927F924A
:103C70008F929F92AF92BF92CF92DF92EF92FF927C
:103C80000F931F93DF93CF93CDB7DEB7942E7C2D88
:103C9000D50149895A89AB88BC88CD88DE889F893F
:103CA000813009F457C08130B8F1823009F076C014
:103CB000613091F0613020F0623009F06FC015C0C2
:103CC00080E060E00E94821F80E0B7010E944B1FED
:103CD00080E0692DA8011DC081E060E00E94821F84
:103CE00081E0B6010E944B1F11C082E060E00E949B
:103CF000821F80E0B7010E944B1F81E0B6010E9445
:103D00004B1F80E0692DA8010E94341F81E0682DBF
:103D1000A5010E94341F42C0EDB7FEB739970FB618
:103D2000F894FEBF0FBEEDBF6DB67EB60894611C61
:103D3000711C52834183F301B382A282D582C48273
:103D40009683888D998D9087878380E0492DC72E33
:103D50005D011AC0EDB7FEB739970FB6F894FEBFF4
:103D60000FBEEDBFADB7BEB7119652834183FD01C3
:103D7000B382A282D582C48296831086178281E0A4
:103D8000492DC72EAA24BB240E94791D8DB79EB74A
:103D900009960FB6F8949EBF0FBE8DBFCF91DF91ED
:103DA0001F910F91FF90EF90DF90CF90BF90AF9059
:103DB0009F908F907F906F9008950E94672881E078
:103DC00080935307EDE1F7E0119211921182108276
:103DD00032961182108232961182108232961182AE
:103DE000108232961182108232961182108232969F
:103DF00011821082329611821082329611821082C4
:103E0000329611821082329611821082329611827D
:103E1000108236961192119211921082329611925E
:103E2000119211921192119211921192118210829B
:103E3000329611821082329611821082329611824D
:103E4000108276971182108232961182108210921F
:103E50005207109251071092530787E061E00E94C9
:103E60001B2187E091E00895EF92FF920F931F933B
:103E7000182F062F7A0160E00E94821F812F602F89
:103E80000E946D1F812FB7010E94971F1F910F91F4
:103E9000FF90EF900895482F81E080935307CB0166
:103EA00023E0693E720710F088EE93E0413071F034
:103EB000413018F0423071F405C090932807809388
:103EC000270708C0909328078093270790932A0715
:103ED00080932907109253070895982F81E08093CB
:103EE0005307913051F0913018F0923041F403C0F3
:103EF0006093400704C060934007609341071092AD
:103F000053070895982F81E080935307913051F023
:103F1000913018F0923041F403C060931D0704C043
:103F200060931D0760931E07109253070895482F52
:103F300081E080935307CB0121E06139720710F0D3
:103F400080E991E0413071F0413018F0423071F475
:103F500005C09093200780931F0708C09093200707
:103F600080931F0790932207809321071092530795
:103F70000895982F81E080935307913071F091302C
:103F800018F0923071F405C07093300760932F07DA
:103F900008C07093300760932F07709332076093C7
:103FA00031071092530708958F929F92AF92BF925C
:103FB000CF92DF92EF92FF920F931F93CF93DF93F5
:103FC000182FF62E5A014901E60161E00E94821F76
:103FD000812FB501A4010E948628812F6F2D0E9498
:103FE0006D1F812F602F0E947128812FB5010E94C3
:103FF000B91FC114D10499F0113049F0113018F0F3
:10400000123069F406C0188210924F0708C0198256
:1040100004C01882198210924F0710925007D09353
:104020005207C0935107EE20B9F58AEE93E09093C2
:10403000520780935107812FB4010E94971F812F4F
:104040000E945228113071F0113018F0123059F5D9
:1040500012C01092EA0310924F078091EA0388235E
:10406000E1F321C01092EB03109250078091EB0313
:104070008823E1F318C01092EA031092EB03109228
:104080004F07109250078091EA038823E1F3809153
:10409000EB038823C1F307C0812FB4010E94971F4F
:1040A000812F0E945228DF91CF911F910F91FF9095
:1040B000EF90DF90CF90BF90AF909F908F9008953A
:1040C0000F931F93182F062F662349F460E070E0CA
:1040D0000E94971F812F60E070E00E94B91F81E06D
:1040E00080935307113051F0113018F0123041F421
:1040F00003C000933B0704C000933B0700933C07B9
:10410000109253071F910F910895CF92DF92EF9273
:10411000FF920F931F93DF93CF93CDB7DEB78B85BD
:10412000813061F0813018F08230A1F511C0EC854A
:10413000FD85809154078823E1F306C0EC85FD8559
:10414000809155078823E1F3309721F1099522C02A
:10415000CC84DD84EE84FF8400E010E0002351F481
:1041600080915407882331F0C114D10411F0F60175
:10417000099501E0112351F480915507882331F00E
:10418000E114F10411F0F701099511E0002331F376
:10419000112321F3CF91DF911F910F91FF90EF90A9
:1041A000DF90CF900895E82FF0E0E331F10540F47F
:1041B000E25CFF4FEE0FFF1F0590F491E02D099494
:1041C00080E00895809156070895809157070895DB
:1041D00080915807089580915907089580915A0752
:1041E000089580915C07089580915B070895809100
:1041F0005D07089580915E07089580915F07089597
:104200008091600708958091610708958091620709
:1042100008958091630708958091640708958091BF
:10422000650708958091660708958091670708954E
:10423000809168070895E82FF0E0E331F10508F078
:1042400040C0EF5AFF4FEE0FFF1F0590F491E02D95
:1042500009946093560708956093570708956093F3
:104260005807089560935907089560935A07089571
:1042700060935C07089560935B07089560935D0702
:10428000089560935E07089560935F0708956093B3
:104290006007089560936107089560936207089529
:1042A00060936307089560936407089560936507BA
:1042B0000895609366070895609367070895609373
:1042C000660708950F931F9381E00E94D3208130E9
:1042D00011F000E024C087E00E94701C82E06AE0D8
:1042E0000E94C11C82E062EB0E94C11C18EC812F6D
:1042F0008A95F1F782E060E00E943D27082F812F28
:104300008A95F1F782E060E00E943D271A95F1F767
:1043100087E00E94701C88E893E10197F1F7802FF5
:104320001F910F9108951F93CF93DF93182F8091C2
:10433000ED03882341F08091F703882399F01092D0
:10434000ED031092F7030E9462218093EC0381EF4A
:1043500093E061E040E022E330E00E94512281E0FE
:104360008093ED039091EC03A12FB0E0ED01C857CD
:10437000DC4F8881882369F0FD01E557FC4F80817F
:104380009823C1F0FD01E251FC4F81E08083188247
:1043900011C0FD01E251FC4F808181111082FD01AD
:1043A000E557FC4F8081982329F4FD01E857FC4F25
:1043B00081E08083A251BC4F8C91DF91CF911F91FE
:1043C000089582E00E94D320882319F490E082E0CF
:1043D0000895109284071092830710928607109216
:1043E0008507109288071092870710928A0710920B
:1043F000890710928C0710928B0780E991E09093C7
:10440000700780936F079093720780937107909362
:104410007407809373079093760780937507909342
:1044200078078093770784E398E090937A078093E6
:10443000790790937C0780937B0790937E07809306
:104440007D079093800780937F07909382078093E6
:10445000810781E061E00E941B2191E081E00895E5
:10446000DF93CF93CDB7DEB729970FB6F894DEBFB1
:104470000FBECDBF9C01CE01019661E040E00E94DD
:104480005122982F882319F48F818823E9F3892FEB
:1044900029960FB6F894DEBF0FBECDBFCF91DF9146
:1044A0000895EF92FF920F931F93CF93DF93EC0148
:1044B000F62EE42E890188E00E94D320813011F08D
:1044C00081E026C084E090E00E94A635FC010097C0
:1044D00011F482E01DC0F982F0FC1E8281E0E81632
:1044E00019F48981846089838981886089831B8329
:1044F0000A831D830C83D183C0831382128281E0DF
:1045000080935A04CF010E94E62810925A0480E05A
:10451000DF91CF911F910F91FF90EF900895FC01D3
:1045200080919007813011F085E008958091910786
:10453000813011F08AE00895613011F484EC01C0FB
:1045400084E88093BC008091BC0087FFFCCF613081
:1045500031F48091B900887F803559F405C080918D
:10456000B900887F883529F48091BB00808380E082
:10457000089582E00895982F80919007813011F07E
:1045800085E0089580919107813011F08AE00895C7
:104590009093BB0084E88093BC008091BC0087FFAF
:1045A000FCCF8091B90090E0887F907088329105AF
:1045B00021F0C09721F483E0089580E008958CE015
:1045C0000895982F20919007213011F085E00895EB
:1045D00080919207813011F489E00895209391072A
:1045E00084EA8093BC008091BC0087FFFCCF80915F
:1045F000B900887F883039F08091B900887F803198
:1046000011F081E00895613019F4990F916003C0B1
:10461000662319F4990F9093BB0084E88093BC0043
:104620008091BC0087FFFCCF613031F48091B900EC
:10463000887F803441F409C0662339F48091B90041
:10464000887F883111F082E0089580E0089580919C
:104650009107813011F08AE00895809193078130AD
:1046600029F485E98093BC0080E0089584E9809373
:10467000BC0080E0089582E10E94D3208823B1F439
:104680001092900710929107109292071092930740
:10469000109294070E94822987E160E00E945923CA
:1046A0000E94782982E161E00E941B2182E190E072
:1046B000089563706093B9008093B80081E080939F
:1046C000900708958FE180937C00EAE7F0E087E0AF
:1046D000808380818068808308950E94C3280E941F
:1046E0009F260E94CF250E944F290E9404270E94E6
:1046F000E12178940895000008951F920F920FB65B
:104700000F9211242F933F934F935F936F937F9357
:104710008F939F93AF93BF93EF93FF93E0911A040E
:10472000F0911B04309709F00995FF91EF91BF912B
:10473000AF919F918F917F916F915F914F913F9139
:104740002F910F900FBE0F901F9018951F920F92F0
:104750000FB60F9211242F933F934F935F936F9354
:104760007F938F939F93AF93BF93EF93FF93E091CA
:104770001C04F0911D04309709F00995FF91EF9109
:10478000BF91AF919F918F917F916F915F914F9169
:104790003F912F910F900FBE0F901F9018951F9271
:1047A0000F920FB60F9211242F933F934F935F9365
:1047B0006F937F938F939F93AF93BF93EF93FF93E9
:1047C000E0911E04F0911F04309709F00995FF91C4
:1047D000EF91BF91AF919F918F917F916F915F9179
:1047E0004F913F912F910F900FBE0F901F901895F2
:1047F0001F920F920FB60F9211242F933F934F9356
:104800005F936F937F938F939F93AF93BF93EF9338
:10481000FF93E0910C04F0910D04309709F0099595
:10482000FF91EF91BF91AF919F918F917F916F9188
:104830005F914F913F912F910F900FBE0F901F905E
:1048400018951F920F920FB60F9211242F933F933A
:104850004F935F936F937F938F939F93AF93BF9388
:10486000EF93FF93E0910E04F0910F04309709F05D
:104870000995FF91EF91BF91AF919F918F917F919A
:104880006F915F914F913F912F910F900FBE0F90BD
:104890001F9018951F920F920FB60F9211242F930D
:1048A0003F934F935F936F937F938F939F93AF93B8
:1048B000BF93EF93FF93E0911004F09111043097B0
:1048C00009F00995FF91EF91BF91AF919F918F9161
:1048D0007F916F915F914F913F912F910F900FBEFC
:1048E0000F901F9018951F920F920FB60F921124E0
:1048F0002F933F934F935F936F937F938F939F93E8
:10490000AF93BF93EF93FF93E0911404F0911504DC
:10491000309709F00995FF91EF91BF91AF919F9169
:104920008F917F916F915F914F913F912F910F9058
:104930000FBE0F901F9018951F920F920FB60F92F7
:1049400011242F933F934F935F936F937F938F9394
:104950009F93AF93BF93EF93FF93E0911604F09171
:104960001704309709F00995FF91EF91BF91AF912E
:104970009F918F917F916F915F914F913F912F9177
:104980000F900FBE0F901F9018951F920F920FB6A9
:104990000F9211242F933F934F935F936F937F93C5
:1049A0008F939F93AF93BF93EF93FF93E091120484
:1049B000F0911304309709F00995FF91EF91BF91A1
:1049C000AF919F918F917F916F915F914F913F91A7
:1049D0002F910F900FBE0F901F9018951F920F925E
:1049E0000FB60F9211242F933F934F935F936F93C2
:1049F0007F938F939F93AF93BF93EF93FF93E09138
:104A00001804F0911904309709F00995FF91EF917E
:104A1000BF91AF919F918F917F916F915F914F91D6
:104A20003F912F910F900FBE0F901F9018951F92DE
:104A30000F920FB60F9211242F933F934F935F93D2
:104A40006F937F938F939F93AF93BF93EF93FF9356
:104A5000E0910204F0910304309709F00995FF9169
:104A6000EF91BF91AF919F918F917F916F915F91E6
:104A70004F913F912F910F900FBE0F901F9018955F
:104A80001F920F920FB60F9211242F933F934F93C3
:104A90005F936F937F938F939F93AF93BF93EF93A6
:104AA000FF93E0910404F0910504309709F0099513
:104AB000FF91EF91BF91AF919F918F917F916F91F6
:104AC0005F914F913F912F910F900FBE0F901F90CC
:104AD00018951F920F920FB60F9211242F933F93A8
:104AE0004F935F936F937F938F939F93AF93BF93F6
:104AF000EF93FF93E0910604F0910704309709F0DB
:104B00000995FF91EF91BF91AF919F918F917F9107
:104B10006F915F914F913F912F910F900FBE0F902A
:104B20001F9018951F920F920FB60F9211242F937A
:104B30003F934F935F936F937F938F939F93AF9325
:104B4000BF93EF93FF93E0910804F091090430972D
:104B500009F00995FF91EF91BF91AF919F918F91CE
:104B60007F916F915F914F913F912F910F900FBE69
:104B70000F901F901895E82F803268F48051833091
:104B800050F0F0E0EE0FFF1FE650FC4F2081318126
:104B90007183608302C020E030E0C901089580E1A4
:104BA0000E94D320882361F4EAEFF3E0119211927E
:104BB00084E0EA33F807D1F780E161E00E941B212D
:104BC00080E191E00895239A0895FF920F931F9337
:104BD000CF93DF93F82E8AE0F816B1F08F1548F0E6
:104BE000E8E0FE16B9F1EF1538F1F7E0FF1651F4E1
:104BF0003BC08DE0F81659F0EBE1FE1689F0FCE0C1
:104C0000FF1641F001E041C01092690703C0109205
:104C100069073AC080916A07815080936A0734C05F
:104C20000E94551B14C080E061E00E94341C8091FA
:104C300069078F5F809369078091690787FFF3CFCA
:104C40001092690780916A07815080936A0700E09B
:104C500011E01CC0809169078823B1F08091690739
:104C600086508093690710C081E00E94611D64EF47
:104C700071E080E090E04DE750E024E630E00E94F3
:104C8000FF2781E00E94CB2700E010E080916A07B7
:104C9000609169070E941B1C002351F185E0F89E7A
:104CA000C0011124EC01C355DF4F8C010E541F4F7E
:104CB000FE01849161E00E94341C2196C017D10747
:104CC000B9F780E061E00E94341C809169078A5F37
:104CD000809369078091690790E08C3791053CF0DB
:104CE0001092690780916A07815080936A0711E0EA
:104CF00080916A07837080936A07113059F480911C
:104D00006B07813039F4E0916C07F0916D073097B3
:104D100009F0099580E090E0DF91CF911F910F910C
:104D2000FF90089585FD5D9886FD5E980895559ADB
:104D3000569A089585FD5D9A86FD5E9A089580E0F5
:104D40000E94D320882351F4F8940E94962981E090
:104D50000E94B12680E061E00E941B2180E091E08A
:104D60000895813049F0F894813020F18230B1F01B
:104D7000833009F045C017C02C9A80E88093610009
:104D80001092610080E090E0000001968832910569
:104D9000D9F71092680010926B00089580E8809314
:104DA000610083E004C080E88093610088E0809324
:104DB000610028C080E090E0000001962DE680367A
:104DC0009207D1F72C9880E090E0000001962DE644
:104DD00080369207D1F710927A008FEF80936400AB
:104DE0008091680081608093680080916B0084608E
:104DF00080936B00789483B7816083BF8895089512
:104E0000823008F0789408950F931F930E94C2296E
:104E100080E061EB79E20E944F2781E069EA79E264
:104E20000E944F2782E061EA79E20E944F2786E0E4
:104E300069EB79E20E944F2709E919E283E0B801A2
:104E40000E944F2784E0B8010E944F2785E0B801F7
:104E50000E944F2787E0B8010E944F2782E061E05F
:104E60000E941B218FEF80936E0787E00E94701CC9
:104E700082E091E01F910F9108951F93162F0E94D9
:104E8000701C82E00E94D320813011F080E005C0C8
:104E90001EBD0DB407FEFDCF8EB51F910895E82FFE
:104EA000F0E0EE0FFF1FE65CFB4F71836083089517
:104EB0000E945B27089580914C0490914D04A0912D
:104EC0004E04B0914F042091500430915104409110
:104ED000520450915304280F391F4A1F5B1F20931F
:104EE0004C0430934D0440934E0450934F048091F2
:104EF0004C0490914D04A0914E04B0914F04885100
:104F0000964FA040B040BCF08BB180588BB98091D7
:104F10004C0490914D04A0914E04B0914F048851DF
:104F2000964FA040B04080934C0490934D04A093C2
:104F30004E04B0934F0408958AE00E94D32081303C
:104F400041F40E94E02910924B048AE060E00E9444
:104F50001B21089589E00E94D3208130D9F48091EB
:104F60004A04882311F00E944C2882E00E94E02924
:104F70008091580490915904009731F00E94533663
:104F8000109259041092580410924A0489E060E08B
:104F90000E941B210895813029F0823029F40E945B
:104FA000AA2708950E949C270895982F80914A046B
:104FB000882331F480914B04882311F4579A5F9829
:104FC00080914A048823D1F49230C1F41092800079
:104FD000109281008091810088608093810080918F
:104FE000810081608093810010928500109284007E
:104FF00081E08093890080E98093880008958F92F2
:105000009F92AF92BF92CF92DF92EF92FF920F9357
:105010001F93CF93DF934B015C01EA01B901211586
:10502000310539F19E01442737FD4095542F6536EF
:10503000710510F064E670E080E090E00E942E358B
:1050400024E630E040E050E00E944D3579018A01CD
:10505000C501B4010E94C929C7010E94302260E045
:1050600070E080E090E00E94C929CE018E199F096E
:1050700004C04115510519F0CA010E943022DF9188
:10508000CF911F910F91FF90EF90DF90CF90BF9045
:10509000AF909F908F900895EFE6F0E080818D7F34
:1050A00080830895982F81E080935307913051F0C9
:1050B000913018F0923041F403C010923B0704C0C5
:1050C00010923B0710923C071092530708953A9AAA
:1050D0003B9A3C9A3D9A3E9A3F9A88B1837088B930
:1050E0000895982F81E080935307913051F09130CB
:1050F00018F0923041F403C060933D0704C0609300
:105100003D0760933E071092530708950F931F9336
:10511000CF93DF93EB018A01813001F1813018F0E8
:10512000823061F50DC08091270790912807892B67
:1051300011F080E01AC010923407109233071EC09D
:105140008091270790912807892B21F080E00E9409
:10515000FC2904C01092340710923307809129076C
:1051600090912A07892B31F081E0BE01A8010E94AD
:10517000FC2904C01092360710923507DF91CF91B9
:105180001F910F9108951092560710925707109291
:105190005B071092580710925A0710925C07109202
:1051A0005D0710925E0710925F07109260071092E1
:1051B00061071092620710926307109264071092C1
:1051C000650710926607109267070895CF92DF92E5
:1051D000EF92FF920F931F93CF93DF93EC01809197
:1051E0008D07882339F4D0938F07C0938E070E94D0
:1051F000742947C0C0908E07D0908F0700E010E060
:10520000EE24FF2437C0A881B981FD016481758136
:10521000F60140815181FA01848195819B01281B0F
:10522000390B37FF0FC0861B970B95838483DB8276
:10523000CA82012B29F4D0938F07C0938E0721C017
:10524000F7010CC0F601828193812115310549F4E3
:10525000FD01158214829B838A83F601D383C28366
:1052600010C0FD01358324830097B9F30F5F1F4FF2
:1052700076016C0180918D0790E00817190718F2EC
:10528000ECCF80918D078F5F80938D07DF91CF9159
:105290001F910F91FF90EF90DF90CF90089588E0DD
:1052A0000E94D3208823B9F410928D0710928F07A3
:1052B00010928E0710925A0410925B0480E169E606
:1052C0007AE20E9485290E94702A0E946E2988E055
:1052D00061E00E941B2188E091E00895EEE6F0E095
:1052E000808182608083089581E080935B040895CB
:1052F00080919007813029F48091BC008460809374
:10530000BC000895389839980895803218F020E04C
:1053100030E00AC0E82FF0E0EE0FFF1FE650FC4F30
:105320002081318171836083C9010895249A2C9A68
:10533000089583E58CBD81E08DBD8DE08A95F1F700
:10534000089583E58CBD1DBC84EF91E00197F1F7D2
:1053500008958FE78CBD1DBC84EF91E00197F1F7B4
:10536000089583E58CBD81E08DBD8DE08A95F1F7D0
:10537000089583E58CBD81E08DBD84EF91E00197B8
:10538000F1F70895259A2698279A209A219A229A29
:1053900008959B01AC0180914B04882381F0DA01D0
:1053A000C901880F991FAA1FBB1F909357048093B0
:1053B0005604211531054105510509F45F980895FA
:1053C000823029F4809181008E7F809381008091CA
:1053D0004A04813031F480914B04813011F4000093
:1053E000089580914A04813021F080914B048130EE
:1053F00011F45F9857980895EF92FF920F931F93BF
:10540000CF93DF93EB01882321F0813009F05AC05C
:105410002DC09A0140E050E0CA01B9010E942E352A
:105420002091270730912807220F331F40E050E0DA
:105430000E944D3579018A01A8019701220F331F7F
:10544000441F551FCE01A0E0B0E082179307A407C8
:10545000B50728F0F0923407E092330733C0D695B1
:10546000C795D0933407C09333072CC09A0140E00E
:1054700050E0CA01B9010E942E35209129073091D0
:105480002A07220F331F40E050E00E944D3579017A
:105490008A01A8019701220F331F441F551FCE0117
:1054A000A0E0B0E082179307A407B50728F0F092B8
:1054B0003607E092350706C0D695C795D0933607D4
:1054C000C0933507DF91CF911F910F91FF90EF901F
:1054D00008950E94792A0E94B92A0E94922A08956A
:1054E00084B5826084BD85B5846085BD8EE487BD4A
:1054F000089588E00E94D320882311F484E0089561
:1055000080915B04882311F483E0089580915A040C
:10551000882311F082E008950E94062D8130E1F386
:1055200080E0089580914B04813011F580915404FE
:10553000909155042091560430915704280F391F3B
:105540003093550420935404809154049091550451
:10555000885E93406CF08BB180588BB98091540475
:1055600090915504885E9340909355048093540421
:10557000089587E00E94D320813009F0AAC080916D
:10558000270790912807892B09F180914B0790916B
:105590004C072091270730912807820F931F909383
:1055A0004C0780934B0780914B0790914C07885E86
:1055B0009340A4F080914B0790914C07885E9340F4
:1055C00090934C0780934B0741E009C080911F07DF
:1055D00090912007909324078093230740E08091C7
:1055E000290790912A07892B09F180914D07909105
:1055F0004E072091290730912A07820F931F90931D
:105600004E0780934D0780914D0790914E07885E1D
:105610009340A4F080914D0790914E07885E93408F
:1056200090934E0780934D0761E009C08091210758
:1056300090912207909326078093250760E0842F9E
:105640000E946A2B80914707909148072091230779
:1056500030912407280F391F3093480720934707BC
:105660008091470790914807885E934014F440E08A
:105670000BC08091470790914807885E93409093B4
:1056800048078093470741E08091490790914A0776
:105690002091250730912607280F391F30934A079C
:1056A000209349078091490790914A07885E93406B
:1056B00014F460E00BC08091490790914A07885E1E
:1056C000934090934A078093490761E0842F0E949A
:1056D000AF2B08958823F1F020911F073091200708
:1056E0008091230790912407281B390B121613066B
:1056F00034F48091230790912407019607C0232B4F
:1057000049F08091230790912407019790932407F3
:1057100080932307662311F12091210730912207FE
:105720008091250790912607281B390B1216130626
:1057300054F48091250790912607019690932607AF
:10574000809325070895232B49F080912507909198
:1057500026070197909326078093250708950F93B6
:105760001F93182F062F80915307882309F0E7C055
:1057700080913B07882309F05AC0809123079091BC
:105780002407892BE9F480915C04837E80935C0478
:105790001092440780914F07882309F45DC06091FF
:1057A0003D0780E00E946020E0915107F091520790
:1057B000309709F451C081E0808310924F074CC0AC
:1057C00080911D07813041F480912F07909130071F
:1057D000019711F411E002C01123F1F1E0914207A9
:1057E000F0E0E058FC4F90915C04937E8081892B1F
:1057F00080935C0480914007882321F480914207C4
:105800008F5F03C08091420781508093420780914F
:10581000420783708093420781E080934407809120
:105820001D078130C9F480E00E94B22C15C0909110
:105830005C04937E90935C04E0914207F0E0E058B2
:10584000FC4F8081892B80935C0482E08093440725
:10585000109224071092230780913C07882309F0B7
:1058600059C08091250790912607892BE9F48091F2
:105870005C048F7180935C041092450780915007FF
:10588000882309F45CC060913E0781E00E9460209B
:10589000E0915107F0915207309709F450C081E030
:1058A0008183109250074BC080911E07813041F4D4
:1058B0008091310790913207019711F401E002C005
:1058C0000023E9F1E0914307F0E0EC57FC4F9091A1
:1058D0005C049F718081892B80935C0480914107D7
:1058E000882321F4809143078F5F03C08091430791
:1058F00081508093430780914307837080934307CF
:1059000081E08093450780911E078130C1F40E9499
:10591000B22C15C090915C049F7190935C04E0914F
:105920004307F0E0EC57FC4F8081892B80935C04A7
:1059300082E08093450710922607109225078091F8
:105940004607882331F48CE594E0612F402F0E94B4
:10595000742D88B1837090915C04892B88B91F9154
:105960000F910895882321F0813009F04EC027C09F
:1059700080912F0790913007892B49F080912F0754
:105980009091300701979093300780932F07809173
:105990004F078823D1F520912F0730913007809150
:1059A0003307909134072817390779F580E060E0D4
:1059B00070E00E94971F81E080934F0708958091C7
:1059C000310790913207892B49F0809131079091EE
:1059D00032070197909332078093310780915007E7
:1059E000882399F42091310730913207809135074F
:1059F000909136072817390741F481E060E070E0A4
:105A00000E94971F81E0809350070895FF920F93A3
:105A10001F93CF93DF9380918D07882309F459C09A
:105A200000918E0710918F07F801C081D1818C8180
:105A30009D8101979D838C83181619060CF449C02B
:105A4000898180FF05C08E81882311F481E08E83D7
:105A5000898181FF03C0EF81F885099580918D07C9
:105A60008230A8F0F8018281938190938F07809310
:105A70008E0713821282E0910000F0910100848170
:105A80009581181619063CF0FF24F39405C0109276
:105A90008F0710928E07FF2480918D07815080938D
:105AA0008D0780918D07882311F40E94712D8981C3
:105AB00082FF08C08A819B819D838C83C8010E94DC
:105AC000E62808C0C8010E94533689818F7E8983E9
:105AD00001C0FF248F2DDF91CF911F910F91FF9077
