:100000000C9431030C944E030C944E030C944E0349
:100010000C942D250C9456250C947F250C94A82522
:100020000C944E030C940E240C9437240C946024EE
:100030000C94DB240C9489240C94B2240C94042595
:100040000C9493230C94BC230C94E5230C944E0342
:100050000C944E030C944E030C944E030C944E03DC
:100060000C944E030C944E030C944E030C944E03CC
:100070000C944E030C944E030C944E03F820FB207A
:10008000FE2001210A21042107210D211021132125
:10009000162119211C211F212221252128212B2154
:1000A0002E213F2142214521482151214B214E2122
:1000B000542157215A215D21602163216621692144
:1000C0006C216F217221752107634236B79BD8A737
:1000D0001A39685618AEBAAB558C1D3CB7CC57636D
:1000E000BD6DEDFD753EF6177231BF000000803F1B
:1000F00008000000BE922449123EABAAAA2ABECD37
:10010000CCCC4C3E00000080BEABAAAAAA3E0000A8
:100110000000BF000000803F0000000000084178A0
:10012000D3BB4387D1133D190E3CC3BD4282AD2BD7
:100130003E68EC8276BED98FE1A93E4C80EFFFBECF
:1001400001C4FF7F3F000000000016050100000011
:1001500000000000FA000000E000E00028FE28FE99
:10016000282454FE5448C4C81026466C92AA44A0C1
:1001700000A0C000000038448200008244380028FB
:10018000107C102810107C1010000A0C00001010B9
:10019000101010000606000004081020407C8A920F
:1001A000A27C0042FE020042868A92628482A2D22F
:1001B0008C182848FE08E4A2A2A29C3C5292920C01
:1001C000808E90A0C06C9292926C60929294780013
:1001D0006C6C0000006A6C00001028448200282823
:1001E000282828008244281040808A90604C929EE3
:1001F000827C7E8888887EFE9292926C7C8282824B
:1002000044FE82824438FE92929282FE90909080C8
:100210007C8292925EFE101010FE0082FE8200042C
:100220000282FC80FE10284482FE02020202FE408E
:100230003040FEFE201008FE7C8282827CFE909080
:1002400090607C828A847AFE909894626292929204
:100250008C8080FE8080FC020202FCF8040204F81C
:10026000FC021C02FCC6281028C6E0100E10E08616
:100270008A92A2C200FE82820040201008040082FE
:1002800082FE0020408040200202020202008040E4
:100290002000042A2A2A1EFE1222221C1C222222AC
:1002A000041C222212FE1C2A2A2A18107E9080404A
:1002B000304A4A4A7CFE1020201E0022BE02000462
:1002C0000222BC00FE081422000082FE02003E2032
:1002D00018201E3E1020201E1C2222221C3E2828F0
:1002E0002810102828183E3E10202010122A2A2AF2
:1002F0000420FC2202043C0202043E3804020438BA
:100300003C020C023C2214081422300A0A0A3C2245
:10031000262A322200106C82000000FE00000082BB
:100320006C1000081010081000000000007F818190
:10033000817F7F8383837F7F8787877F7F8F8F8F77
:100340007F7F9F9F9F7F7FBFBFBF7F7FFFFFFF7F1D
:100350002040FF4020621517156500FBFB000000E0
:1003600000000000C0FF0300E0FF0700F0FF0F00E7
:10037000F8FF1F0078001E0078001E0078001E00A5
:1003800078001E0078001E0078001E0078001E0015
:1003900078001E0078001E00000000000000000031
:1003A00080FF0300E0FF0700F0FF0F00F8FF1F00D1
:1003B000F83C1F00783C1E00783C1E00783C1E0074
:1003C000783C1E00783C1E00783C1E00783C1E00E5
:1003D000783C1E00783C1E00783C1E0000000000A7
:1003E00000000000E0FF0300F0FF0700F8FF0F002F
:1003F000F8FF1F00783C1E00783C1E00783C1E0071
:10040000783C1E00783C1E00783C1E00783C1E00A4
:10041000783C1E00783C1E00783C1E000000000066
:1004200000000000F8FF0300F8FF0F00F8FF1F00B6
:10043000F8FF1F0000001E0000001E0000801F00CB
:1004400000F01F0000FF0F00E0FF0700F0FF0000BA
:10045000F80F0000F80000007800000078000000AD
:10046000F8FF1F00F8FF1F00F0FF1F00E0FF1F0054
:100470000000000000000000F8FF1F00F8FF1F0050
:10048000F8FF1F00F8FF1F0078001E00783C1E00D8
:10049000783C1E00783C1E00783C1E00783C1E0014
:1004A000783C1E00F87E1F00F8FF1F00F0FF0F00D1
:1004B000E0E703000000000000003800EEFF6C00E1
:1004C0002A8045003A0047FC03FF6CFC83FF39009B
:1004D000DEFF0B7CD0810BFCD0810BC0D0810BFCEC
:1004E000D0810B7CDEFF0B0082FF397002FF6CF8BD
:1004F0003A0047DC2A8045CCEEFF6CCC0000380087
:100500000000000C00001E0C00001E0000001E0079
:1005100000001E0000001E00F8FF1F00F8FF1F0073
:10052000F8FF1F00F8FF1F0000001E0000001E0063
:1005300000001E0000001E0000005E0000004000E1
:1005400000007C00000040000000400000007C0033
:1005500000003000000010000000300000007C6E41
:10056000616E00696E660000407A10F35A00A07256
:100570004E18090010A5D4E80000E87648170000DE
:10058000E40B54020000CA9A3B000000E1F50500AC
:100590000080969800000040420F000000A08601F5
:1005A000000000102700000000E8030000000064C5
:1005B00000000000000A0000000000010000000030
:1005C000002C76D888DC674F0823DFC1DFAE59E105
:1005D000B1B796E5E3E453C63AE651997696E8E674
:1005E000C28426EB898C9B62ED407C6FFCEFBC9C47
:1005F0009F40F2BAA56FA5F490055A2AF75C936B59
:100600006CF9676DC11BFCE0E40D47FEF520E6B513
:1006100000D0ED902E0300943577050080841E08ED
:100620000000204E0A000000C80C333333330F980B
:100630006E12831141EF8D2114893BE65516CFFED2
:10064000E6DB18D1844B381BF77C1D901DA4BBE45E
:1006500024203284725E228100C9F124ECA1E53DA0
:10066000270011241FBECFEFD8E0DEBFCDBF14E0BE
:10067000A0E0B1E0E4E0F1E702C005900D92A835FA
:10068000B107D9F718E0A8E5B4E001C01D92A03386
:10069000B107E1F70E94621B0C9480380C940000B3
:1006A0001F93CF93DF93EC0188E660E00E94F7226E
:1006B000182F8823A1F481E00E94D122182F8823CB
:1006C00071F488E661E00E94F722182F882339F43C
:1006D000CE0160E00E94A522182F811118820E948D
:1006E0003D23812FDF91CF911F9108951F93CF93C9
:1006F000DF93EC0188E660E00E94F722182F882340
:10070000A1F489E00E94D122182F882371F488E691
:1007100061E00E94F722182F882339F4CE0160E0AF
:100720000E94A522182F811118820E943D23812F3B
:10073000DF91CF911F9108951F93CF93DF93EC0129
:1007400088E660E00E94F722182F8823A1F488E051
:100750000E94D122182F882371F488E661E00E945C
:10076000F722182F882339F4CE0160E00E94A522D9
:10077000182F811118820E943D23812FDF91CF9184
:100780001F9108951F93CF93DF93EC0188E660E0FB
:100790000E94F722182F8823A1F487E00E94D1221B
:1007A000182F882371F488E661E00E94F722182F41
:1007B000882339F4CE0160E00E94A522182F811110
:1007C00018820E943D23812FDF91CF911F910895C0
:1007D0001F93CF93DF93EC0188E660E00E94F7223D
:1007E000182F8823A1F486E00E94D122182F882395
:1007F00071F488E661E00E94F722182F882339F40B
:10080000CE0160E00E94A522182F811118820E945B
:100810003D23812FDF91CF911F9108951F93CF9397
:10082000DF93EC0188E660E00E94F722182F88230E
:10083000A1F485E00E94D122182F882371F488E664
:1008400061E00E94F722182F882339F4CE0160E07E
:100850000E94A522182F811118820E943D23812F0A
:10086000DF91CF911F9108951F93CF93DF93EC01F8
:1008700088E660E00E94F722182F8823A1F484E024
:100880000E94D122182F882371F488E661E00E942B
:10089000F722182F882339F4CE0160E00E94A522A8
:1008A000182F811118820E943D23812FDF91CF9153
:1008B0001F9108951F93CF93DF93EC0188E660E0CA
:1008C0000E94F722182F8823A1F483E00E94D122EE
:1008D000182F882371F488E661E00E94F722182F10
:1008E000882339F4CE0160E00E94A522182F8111DF
:1008F00018820E943D23812FDF91CF911F9108958F
:100900001F93CF93DF93EC0188E660E00E94F7220B
:10091000182F8823A1F482E00E94D122182F882367
:1009200071F488E661E00E94F722182F882339F4D9
:10093000CE0160E00E94A522182F811118820E942A
:100940003D23812FDF91CF911F9108951F93CF9366
:10095000DF93EC0188E660E00E94F722182F8823DD
:10096000A1F480E00E94D122182F882371F488E638
:1009700061E00E94F722182F882339F4CE0160E04D
:100980000E94A522182F811118820E943D23812FD9
:10099000DF91CF911F91089581E00E94571B85E060
:1009A0000E94201B0E94031BA0E0B0E0BC01CD010F
:1009B0000E94242F20E030E040EA50E40E94232EE1
:1009C0009B01AC0160E070E286E395E40E948B2E0F
:1009D00020E030E040E85FE30E94222E089581E0AD
:1009E0000E94571B87E00E94201B0E94031BA0E06F
:1009F000B0E0BC01CD010E94242F20E030E040EAAD
:100A000050E40E94232E9B01AC0160E070E286E37B
:100A100095E40E948B2E20E030E040E85FE30E94E6
:100A2000222E089581E00E94571B83E00E94201B24
:100A30000E94031BA0E0B0E0BC01CD010E94242F66
:100A400020E030E040EA50E40E94232E9B01AC01FC
:100A500060E070E286E395E40E948B2E20E030E0B7
:100A600040E85FE30E94222E089581E00E94571B18
:100A700084E00E94201B0E94031BA0E0B0E0BC01A8
:100A8000CD010E94242F20E030E040EA50E40E9493
:100A9000232E9B01AC0160E070E286E395E40E94A6
:100AA0008B2E20E030E040E85FE30E94222E089584
:100AB00081E00E94571B85E00E94201B0E94031BBF
:100AC000A0E0B0E0BC01CD010E94242F20E030E086
:100AD00040EA5BE30E941430089581E00E94571BB6
:100AE00086E00E94201B0E94031BA0E0B0E0BC0136
:100AF000CD010E94242F20E030E040EA5BE30E9419
:100B0000143008950F931F9381E08093F40480E0E4
:100B10000E94A921082F81E00E94A921182F82E0BC
:100B20000E94A921113019F422E030E006C020E033
:100B300030E0013011F421E030E0813011F423E0A5
:100B400030E0C9011F910F910895FF920F931F93F9
:100B5000CF93DF930E946B1B81E08093F40480E0CD
:100B60000E94A921182F81E00E94A921082F82E06C
:100B70000E94A921F82E113019F0C0E0D0E013C076
:100B800080E091E00E94ED3780E20E947A1C84EFC1
:100B900091E00E94462280E40E94651C80E20E944F
:100BA000651CC1E0D0E0013099F48CE091E00E9436
:100BB000ED3780E40E947A1C84EF91E00E94462287
:100BC00080E40E94651C80E20E94651CC2E0D0E0C7
:100BD00081E0F816B1F488E191E00E94ED3780E4FD
:100BE0000E947A1C80E20E947A1C84EF91E00E94AD
:100BF000462280E40E94651C80E20E94651CC3E0DE
:100C0000D0E00E946B1BCE01DF91CF911F910F911D
:100C1000FF9008952F923F924F925F926F927F9232
:100C20008F929F92AF92BF92CF92DF92EF92FF92FC
:100C30000F931F93DF93CF93CDB7DEB764970FB6B3
:100C4000F894DEBF0FBECDBF882339F589E695E065
:100C50009C8B8B8BADE8B7E0BE83AD83E4E8F6E018
:100C6000FC83EB8381EF95E09A8389830F2EF0E07C
:100C70002F2EF0E03F2EF0E04F2EF0E05F2EF02D13
:100C80002F86388A498A5A8A2B863C864D865E860C
:100C90002F82388649865A8643C0A0901407B090A8
:100CA0001507C0901607D0901707E0901907F0902D
:100CB0001A0700911B0710911C07209071053090B6
:100CC0007205409073055090740520917B0530911A
:100CD0007C0540917D0550917E0580E090E0FC010F
:100CE000E750FB4FA082B182C282D382FC01E35E57
:100CF000F84FE082F18202831383FC01EC5EF94F2E
:100D00002082318242825382FC01EF57FA4F2083C6
:100D100031834283538304968837910501F796CF38
:100D2000AB89BC892D913D914D915C911397FD014B
:100D30002483358346835783AD81BE81ED90FD903A
:100D40000D911C911397FD01E482F58206831783B0
:100D5000AB81BC81AD90BD90CD90DC901397FD012F
:100D6000A482B582C682D782A981BA816D907D9016
:100D70008D909C901397FD01648275828682978284
:100D8000C201B1010E94232E1B012C016F857889BD
:100D900089899A89A80197010E94232E6F87788BF1
:100DA000898B9A8B6B857C858D859E85A6019501A7
:100DB0000E94232E6B877C878D879E876F81788525
:100DC00089859A85A40193010E94232E6F837887D9
:100DD00089879A878B899C8904979C8B8B8BAD81A3
:100DE000BE811497BE83AD83EB81FC813497FC8375
:100DF000EB8389819A8104979A838983AB89BC8923
:100E0000A15FB44009F08CCF809114079091150731
:100E1000A0911607B0911707EB89FC89808791870D
:100E2000A287B3878091190790911A07A0911B0799
:100E3000B0911C0780931D0790931E07A0931F0776
:100E4000B09320078091710590917205A091730570
:100E5000B09174058093140690931506A09316061E
:100E6000B093170680917B0590917C05A0917D053C
:100E7000B0917E058093810590938205A0938305B0
:100E8000B0938405C201B10120E030E040EF51E4AD
:100E90000E948B2E6093140770931507809316079A
:100EA000909317076F85788989899A8920E030E0C7
:100EB00040EF51E40E948B2E6093190770931A073C
:100EC00080931B0790931C076B857C858D859E8581
:100ED00020E030E040EF51E40E948B2E60937105DA
:100EE0007093720580937305909374056F81788574
:100EF00089859A8520E030E040EF51E40E948B2EF6
:100F000060937B0570937C0580937D0590937E05AF
:100F100064960FB6F894DEBF0FBECDBFCF91DF91C0
:100F20001F910F91FF90EF90DF90CF90BF90AF9007
:100F30009F908F907F906F905F904F903F902F90F9
:100F40000895AF92BF92CF92DF92EF92FF920F93EC
:100F50001F937B018C01442361F080E090E0A0E0CE
:100F6000B0E08093750590937605A0937705B093D4
:100F70007805C801B701209175053091760540913B
:100F80007705509178050E94232E5B016C016093D8
:100F90007505709376058093770590937805C80161
:100FA000B701209110063091110640911206509120
:100FB00013060E94222E20E030E040E050E00E9424
:100FC00014309B01AC01C801B7010E94232E7B01A4
:100FD0008C01C601B50120E030E040E050E00E9405
:100FE00014309B01AC01C801B7010E94232E1F9150
:100FF0000F91FF90EF90DF90CF90BF90AF9008954A
:10100000442381F006C0E82FF0E0EC5DFE4F8081C4
:1010100061506623C1F70895E82FF0E0EC5CFE4FC5
:10102000808161506623C1F708952F923F924F92BD
:101030005F926F927F928F929F92AF92BF92CF9268
:10104000DF92EF92FF920F931F93DF93CF93CDB771
:10105000DEB7A0970FB6F894DEBF0FBECDBF2B0151
:101060003C012D833E834F835887E986FA860B87A0
:101070001C87AD86BE86CF86D88A282C3324CA0129
:10108000B90120E030E040E050E00E94D62F181671
:1010900014F4332433946D817E818F8198852CEDF7
:1010A00038EB48E05EE30E948B2E0E94F32E9B01FA
:1010B00077FF03C0309521953F4FB901882777FD11
:1010C0008095982F0E94262F69837A838B839C8337
:1010D00069857A858B859C852CED38EB48E05EE34D
:1010E0000E948B2E0E94F32E9B0177FF03C0309548
:1010F00021953F4FB901882777FD8095982F0E9451
:10110000262F4B015C016D857E858F8598892CED9E
:1011100038EB48E05EE30E948B2E0E94F32E9B0189
:1011200077FF03C0309521953F4FB901882777FDA0
:101130008095982F0E94262F6B017C01C301B2017C
:1011400020E030E040E05FE40E94872E8823A1F594
:1011500069817A818B819C810E94F82E2B013C0150
:10116000C501B4010E94F82E4B015C01C701B60114
:101170000E94F82E6B017C012DB73EB729503040FC
:101180000FB6F8943EBF0FBE2DBFEDB7FEB7319638
:10119000ADB7BEB712965C924E921197938282823F
:1011A0007583648326821086178281E062E0432D76
:1011B000920184017601C1C1C301B20120E030E097
:1011C00040E050E00E94872E8823E9F569817A810A
:1011D0008B819C810E94F82E3B01C501B4010E94C5
:1011E000F82E8B01C701B6010E94F82E7B012DB7A6
:1011F0003EB7295030400FB6F8943EBF0FBE2DBF0A
:10120000EDB7FEB7319640E0332009F441E071823A
:10121000608213830283F582E4822682108617821D
:1012200081E062E09301C22CAA24BB24832C0E949B
:101230004C1E81E0ADB7BEB719960FB6F894BEBF8D
:101240000FBEADBF89C1C301B20120E030E040E074
:1012500050E00E94D62F18160CF0B1C066E676E674
:101260008AEA91ECA30192010E948B2E20E030E0EB
:1012700040E85FE30E94232E7B018C0166E676E660
:101280008AEA91E4A30192010E948B2E20E030E0D3
:1012900040E85FE30E94232E5B016C01EDB7FEB7CF
:1012A00039970FB6F894FEBF0FBEEDBF8DB69EB650
:1012B0000894811C911C6D817E818F819885A80185
:1012C00097010E9414302CED38EB48E05EE30E9459
:1012D0008B2E0E94F82E698B7A8B8B8B9C8B698569
:1012E0007A858B859C85A80197010E9414302CED8E
:1012F00038EB48E05EE30E948B2E0E94F82E6D8B47
:101300007E8B8F8B988F6D857E858F859889A801C0
:1013100097010E9414302CED38EB48E05EE30E9408
:101320008B2E0E94F82E2B013C016D817E818F81D6
:101330009885A60195010E9414302CED38EB48E009
:101340005EE30E948B2E0E94F82ED4016D937C9355
:1013500069857A858B859C85A60195010E9414304C
:101360002CED38EB48E05EE30E948B2E0E94F82EB5
:10137000F401738362836D857E858F859889A601CC
:1013800095010E9414302CED38EB48E05EE30E949A
:101390008B2E0E94F82ED40115967C936E93149791
:1013A00016962C92169718961C921E92179781E00B
:1013B00062E0432D29893A890D891E89BDC0C30188
:1013C000B20120E030E040E050E00E94872E87FD2F
:1013D00002C080E0C1C066E676E68AEA91E4A30135
:1013E00092010E948B2E20E030E040E85FE30E94F3
:1013F000232E7B018C0166E676E68AEA91ECA30156
:1014000092010E948B2E20E030E040E85FE30E94D2
:10141000232E5B016C012DB73EB7295030400FB62B
:10142000F8943EBF0FBE2DBF8DB69EB60894811CAA
:10143000911C6D817E818F819885A80197010E9402
:1014400014302CED38EB48E05EE30E948B2E0E94B6
:10145000F82E698F7A8F8B8F9C8F69857A858B8523
:101460009C85A80197010E9414302CED38EB48E0D0
:101470005EE30E948B2E0E94F82E6D8F7E8F8F8FE1
:1014800098A36D857E858F859889A80197010E9414
:1014900014302CED38EB48E05EE30E948B2E0E9466
:1014A000F82E2B013C016D817E818F819885A601EC
:1014B00095010E9414302CED38EB48E05EE30E9469
:1014C0008B2E0E94F82ED4016D937C9369857A85CA
:1014D0008B859C85A60195010E9414302CED38EB7C
:1014E00048E05EE30E948B2E0E94F82EF401738385
:1014F00062836D857E858F859889A60195010E94FE
:1015000014302CED38EB48E05EE30E948B2E0E94F5
:10151000F82ED40115967C936E93149716962C9200
:10152000169718961C921E92179781E062E0432D41
:10153000298D3A8D0D8D1E8D7201C22CAA24BB24DB
:10154000832C0E944C1E81E0EDB7FEB739960FB692
:10155000F894FEBF0FBEEDBFA0960FB6F894DEBFA5
:101560000FBECDBFCF91DF911F910F91FF90EF90F4
:10157000DF90CF90BF90AF909F908F907F906F90B3
:101580005F904F903F902F9008952F923F924F92EF
:101590005F926F927F928F929F92AF92BF92CF9203
:1015A000DF92EF92FF920F931F93DF93CF93CDB70C
:1015B000DEB7A0970FB6F894DEBF0FBECDBF2B01EC
:1015C0003C012D833E834F835887E986FA860B873B
:1015D0001C87AD86BE86CF86D88A282C3324CA01C4
:1015E000B90120E030E040E050E00E94D62F18160C
:1015F00014F4332433946D817E818F8198852CED92
:1016000038EB48E05EE30E948B2E0E94F32E9B0194
:1016100077FF03C0309521953F4FB901882777FDAB
:101620008095982F0E94262F69837A838B839C83D1
:1016300069857A858B859C852CED38EB48E05EE3E7
:101640000E948B2E0E94F32E9B0177FF03C03095E2
:1016500021953F4FB901882777FD8095982F0E94EB
:10166000262F4B015C016D857E858F8598892CED39
:1016700038EB48E05EE30E948B2E0E94F32E9B0124
:1016800077FF03C0309521953F4FB901882777FD3B
:101690008095982F0E94262F6B017C01C301B20117
:1016A00020E030E040E05FE40E94872E8823A1F52F
:1016B00069817A818B819C810E94F82E2B013C01EB
:1016C000C501B4010E94F82E4B015C01C701B601AF
:1016D0000E94F82E6B017C012DB73EB72950304097
:1016E0000FB6F8943EBF0FBE2DBFEDB7FEB73196D3
:1016F000ADB7BEB712965C924E92119793828282DA
:101700007583648326821086178280E062E0432D11
:10171000920184017601C1C1C301B20120E030E031
:1017200040E050E00E94872E8823E9F569817A81A4
:101730008B819C810E94F82E3B01C501B4010E945F
:10174000F82E8B01C701B6010E94F82E7B012DB740
:101750003EB7295030400FB6F8943EBF0FBE2DBFA4
:10176000EDB7FEB7319640E0332009F441E07182D5
:10177000608213830283F582E482268210861782B8
:1017800080E062E09301C22CAA24BB24832C0E9437
:101790004C1E81E0ADB7BEB719960FB6F894BEBF28
:1017A0000FBEADBF89C1C301B20120E030E040E00F
:1017B00050E00E94D62F18160CF0B1C066E676E60F
:1017C0008AEA91ECA30192010E948B2E20E030E086
:1017D00040E85FE30E94232E7B018C0166E676E6FB
:1017E0008AEA91E4A30192010E948B2E20E030E06E
:1017F00040E85FE30E94232E5B016C01EDB7FEB76A
:1018000039970FB6F894FEBF0FBEEDBF8DB69EB6EA
:101810000894811C911C6D817E818F819885A8011F
:1018200097010E9414302CED38EB48E05EE30E94F3
:101830008B2E0E94F82E698B7A8B8B8B9C8B698503
:101840007A858B859C85A80197010E9414302CED28
:1018500038EB48E05EE30E948B2E0E94F82E6D8BE1
:101860007E8B8F8B988F6D857E858F859889A8015B
:1018700097010E9414302CED38EB48E05EE30E94A3
:101880008B2E0E94F82E2B013C016D817E818F8171
:101890009885A60195010E9414302CED38EB48E0A4
:1018A0005EE30E948B2E0E94F82ED4016D937C93F0
:1018B00069857A858B859C85A60195010E941430E7
:1018C0002CED38EB48E05EE30E948B2E0E94F82E50
:1018D000F401738362836D857E858F859889A60167
:1018E00095010E9414302CED38EB48E05EE30E9435
:1018F0008B2E0E94F82ED40115967C936E9314972C
:1019000016962C92169718961C921E92179780E0A6
:1019100062E0432D29893A890D891E89BDC0C30122
:10192000B20120E030E040E050E00E94872E87FDC9
:1019300002C080E0C1C066E676E68AEA91E4A301CF
:1019400092010E948B2E20E030E040E85FE30E948D
:10195000232E7B018C0166E676E68AEA91ECA301F0
:1019600092010E948B2E20E030E040E85FE30E946D
:10197000232E5B016C012DB73EB7295030400FB6C6
:10198000F8943EBF0FBE2DBF8DB69EB60894811C45
:10199000911C6D817E818F819885A80197010E949D
:1019A00014302CED38EB48E05EE30E948B2E0E9451
:1019B000F82E698F7A8F8B8F9C8F69857A858B85BE
:1019C0009C85A80197010E9414302CED38EB48E06B
:1019D0005EE30E948B2E0E94F82E6D8F7E8F8F8F7C
:1019E00098A36D857E858F859889A80197010E94AF
:1019F00014302CED38EB48E05EE30E948B2E0E9401
:101A0000F82E2B013C016D817E818F819885A60186
:101A100095010E9414302CED38EB48E05EE30E9403
:101A20008B2E0E94F82ED4016D937C9369857A8564
:101A30008B859C85A60195010E9414302CED38EB16
:101A400048E05EE30E948B2E0E94F82EF40173831F
:101A500062836D857E858F859889A60195010E9498
:101A600014302CED38EB48E05EE30E948B2E0E9490
:101A7000F82ED40115967C936E93149716962C929B
:101A8000169718961C921E92179780E062E0432DDD
:101A9000298D3A8D0D8D1E8D7201C22CAA24BB2476
:101AA000832C0E944C1E81E0EDB7FEB739960FB62D
:101AB000F894FEBF0FBEEDBFA0960FB6F894DEBF40
:101AC0000FBECDBFCF91DF911F910F91FF90EF908F
:101AD000DF90CF90BF90AF909F908F907F906F904E
:101AE0005F904F903F902F9008950E947821282F6B
:101AF00021702093120790E08270907095958795E1
:101B00008093130708950E94580560930906709307
:101B10000A0680930B0690930C060E946D05609355
:101B2000A1077093A2078093A3079093A407089539
:101B30000E94EF04609371057093720580937305A2
:101B4000909374050E94CC0460937B0570937C0590
:101B500080937D0590937E050E9435056093140760
:101B60007093150780931607909317070E9412052C
:101B70006093190770931A0780931B0790931C07B3
:101B80000895CF92DF92EF92FF920F931F93CF931E
:101B9000DF93162FE42E5FE1F52EF8221F770F2D2D
:101BA000069506950695C02FD0E0C12EDD24CE0106
:101BB000B6010E94311C802F612F0E942A1CFE0159
:101BC00045E0EE0FFF1F4A95E1F72F2D30E0EE20A4
:101BD00089F0EC0DFD1DE457F94F2770307081E05E
:101BE00090E002C0880F991F2A95E2F72081282BE8
:101BF000208311C0EC0DFD1DE457F94F27703070A4
:101C000081E090E002C0880F991F2A95E2F7809545
:101C100020818223808335E0CC0FDD1F3A95E1F7E8
:101C2000CC0DDD1DC457D94F888161E00E944A1C4C
:101C3000DF91CF911F910F91FF90EF90DF90CF90A8
:101C400008957F928F929F92AF92BF92CF92DF9230
:101C5000EF92FF920F931F93982EB62EC42EA22EB2
:101C6000802E7E2CBB0CBB0CBB0CDD2423E0CC0CEB
:101C7000DD1C2A95E1F71C2D0FE10B19802F6C2D2F
:101C800041E00E94C10D98E1E92EEB188E2D6C2DDC
:101C900041E00E94C10D87E0F82EFC0C802F6F2DD3
:101CA00041E00E94C10D8E2D6F2D41E00E94C10DBB
:101CB000C92C93FE24C0612F6F5F802F41E00E94EA
:101CC000C10D612F6E5F802F41E00E94C10D612F19
:101CD0006D5F802F41E00E94C10D612F6C5F802FEE
:101CE00041E00E94C10D612F6B5F802F41E00E9497
:101CF000C10D612F6A5F802F41E00E94C10DC2FEBD
:101D000025C08B2D8095815E6F2D41E00E94C10D15
:101D10008DE18B196F2D41E00E94C10D8CE18B1973
:101D20006F2D41E00E94C10D8BE18B196F2D41E0B9
:101D30000E94C10D8AE18B196F2D41E00E94C10DF7
:101D400089E18B196F2D41E00E94C10DC1FE24C0B5
:101D5000612F6F5F8E2D41E00E94C10D612F6E5F7C
:101D60008E2D41E00E94C10D612F6D5F8E2D41E0EF
:101D70000E94C10D612F6C5F8E2D41E00E94C10D4C
:101D8000612F6B5F8E2D41E00E94C10D612F6A5F54
:101D90008E2D41E00E94C10DC0FE25C08B2D809587
:101DA000815E612F41E00E94C10D8DE18B19612F91
:101DB00041E00E94C10D8CE18B19612F41E00E942E
:101DC000C10D8BE18B19612F41E00E94C10D8AE1A9
:101DD0008B19612F41E00E94C10D89E18B19612FA0
:101DE00041E00E94C10DAA20E1F1BCE1EB2EEB180D
:101DF000A3E0CA2EC10E8E2D6C2D4A2D0E94C10D5E
:101E0000FBE1FF2EFB188F2D6C2D4A2D0E94C10D7A
:101E1000012F0C5F8E2D602F4A2D0E94C10D8F2D3A
:101E2000602F4A2D0E94C10D81E0881671F088163E
:101E300040F082E0881661F083E0881609F04AC01D
:101E40000BC08DE18B196C2D0AC01B5F8E2D06C057
:101E50008AE18B19602F03C01E5F8F2D612F4A2DE1
:101E600037C07720B9F1ECE1CE2ECB1873E0E72E26
:101E7000E10E8C2D6E2D40E00E94C10D0BE10B197F
:101E8000802F6E2D40E00E94C10D64E0F62EF10E11
:101E90008C2D6F2D40E00E94C10D802F6F2D40E0F2
:101EA0000E94C10D8DE18B196E2D40E00E94C10D85
:101EB0001B5F8C2D612F40E00E94C10D8AE18B19C0
:101EC0006F2D40E00E94C10D1350802F612F40E024
:101ED0000E94C10D1F910F91FF90EF90DF90CF9066
:101EE000BF90AF909F908F907F9008959F92AF92F8
:101EF000BF92CF92DF92EF92FF920F931F93CF93F7
:101F0000DF93982E80911007A82EA694A69443E004
:101F1000B42EB822CC24DD241EC08881FA1419F016
:101F200020E030E006C020E030E01B1511F421E095
:101F300030E06F2D412F00910E06E92C0E94210EFA
:101F40001F5F2196143049F70894C11CD11C84E00E
:101F5000C816D10451F0FC2CE601CC0FDD1FCC0FCC
:101F6000DD1FC352DC4F10E0D8CFDF91CF911F911E
:101F70000F91FF90EF90DF90CF90BF90AF909F9028
:101F800008951F93182F6091A5077091A60780915F
:101F9000A7079091A8072091F5043091F60440918D
:101FA000F7045091F8040E94232E20E030E040E036
:101FB0005FE30E9414302CED38EB48E05EE30E94B2
:101FC00014302091F9053091FA054091FB055091AC
:101FD000FC050E94D62F1816BCF481E080931807E8
:101FE00080E090E0A0E0B0E08093A5079093A60782
:101FF000A093A707B093A8078093F5049093F604E5
:10200000A093F704B093F8041123D9F082E060E0C4
:1020100070E00E94CF1F1092180780E090E0A0E0CF
:10202000B0E08093A5079093A607A093A707B0936D
:10203000A8078093F5049093F604A093F704B09357
:10204000F8041F9108950E94F7219093F40480935F
:10205000F3040E94711C9093F2048093F1040E9497
:10206000881B9093F0048093EF040E94F31E82E09B
:102070000E94771D0E94711C0E9451230E94F51A34
:1020800081E00E94571B0E94980D81E00E940A0681
:102090008FEE90E0A5E8B1E48093F9059093FA05FE
:1020A000A093FB05B093FC0520E030E00AC011923C
:1020B000019680329105D9F72F5F3F4F24303105CB
:1020C00059F0F90155E0EE0FFF1F5A95E1F7E4577B
:1020D000F94F80E090E0EBCF0895482F4695469564
:1020E000582F5370A42FB0E0252F30E0FD01EE0FE4
:1020F000FF1FEE0FFF1FE20FF31FE859FB4F808118
:10210000882311F481E00895E42FE150E43080F455
:10211000F0E0EE0FFF1FEE0FFF1FE20FF31FE85975
:10212000FB4FE081E43620F410920F069E2F01C091
:1021300094E6842F8F5F843088F4E82FF0E0EE0F70
:10214000FF1FEE0FFF1FE20FF31FE859FB4FE08167
:10215000E91720F482E080930F069E2F852F8F5F72
:10216000843081F0FD01EE0FFF1FEE0FFF1FE80F1F
:10217000F11DE859FB4FE081E91720F481E08093DD
:102180000F069E2F852F8150843080F4AA0FBB1F2D
:10219000AA0FBB1FA80FB11DA859BB4F8C9189175F
:1021A00028F483E080930F0680E0089580E008958E
:1021B0008F929F92BF92CF92DF92EF92FF920F93F6
:1021C0001F93CF93DF9390917F05892F86958695F6
:1021D000C82EDD24E92EFF2483E0E822FF24C0E09E
:1021E000D0E013E6B12E3FC0D8018C918F3011F4AE
:1021F000B0822AC0D4019C91892F86958695482F5C
:1022000050E04C195D0957FF03C0509541955F4F51
:10221000292F30E0237030702E193F0937FF03C09B
:10222000309521953F4F229FC001239F900D329FF3
:10223000900D1124449F9001459F300D549F300D07
:102240001124820F931F80836F5F7F4F0F5F1F4F9B
:1022500031960894811C911C6430710529F62196F1
:10226000C430D105A1F0CE01880F991F880F991FA6
:102270008C0103521C4FFC01E859FB4FADEE8A2E36
:10228000A3E09A2E880E991E60E070E0ADCFDF913A
:10229000CF911F910F91FF90EF90DF90CF90BF9063
:1022A0009F908F900895EF92FF920F931F936091EC
:1022B000710570917205809173059091740520E00D
:1022C00030E040E551E40E94872EF82EFF1CFF24E9
:1022D000FF1CFF0CFF0CFF0C609114077091150799
:1022E000809116079091170720E030E040EF51E40D
:1022F0000E94872E082F001F0027001F000F000FCD
:1023000060917B0570917C0580917D0590917E05A3
:1023100020E030E04CE052E40E94872E182F111F7D
:102320001127111F110FEE246091190770911A07E0
:1023300080911B0790911C0720E030E040EF51E4B2
:102340000E94872E882314F4EE24E3948F2D8E0DA3
:10235000800F810F8093790520917A05E22FF0E0BC
:10236000EB56F84F918190938005891719F42F5FF0
:1023700020937A051F910F91FF90EF9008952F926F
:102380003F924F925F926F927F928F929F92AF9205
:10239000BF92CF92DF92EF92FF920F931F93E09044
:1023A0007105F09072050091730510917405332446
:1023B000C801B70120E030E040E050E00E94872EE5
:1023C000882314F433243394A0901907B0901A078B
:1023D000C0901B07D0901C07409014075090150721
:1023E0006090160770901707882460917B057091A4
:1023F0007C0580917D0590917E0520E030E040E7EE
:1024000051E40E94872E882314F488248394932C0B
:1024100098288824C601B50120E030E040E751E467
:102420000E94872E882314F4882483949828882473
:10243000C301B20120E030E040E751E40E94872E62
:10244000882314F488248394292C282881F460E0BC
:1024500070E080E09FE420E030E040E251E4790168
:102460008A0159016A0188240E941508F7C0C60133
:10247000B50120E030E040E751E40E94D62F181665
:1024800064F480E090E0A0E4B0EC809319079093AE
:102490001A07A0931B07B0931C07C301B20120E0E9
:1024A00030E040E751E40E94D62F181614F080E087
:1024B0000DC080E090E0A0E4B0EC8093140790930E
:1024C0001507A0931607B093170781E0332021F179
:1024D000882329F060E070E08AE794E404C060E0BB
:1024E00070E08AE794ECA80197010E948B2E20915E
:1024F00014073091150740911607509117070E9455
:10250000232E9B01AC016091190770911A078091ED
:102510001B0790911C0710C06091190770911A0752
:1025200080911B0790911C0720911407309115078B
:1025300040911607509117070E94222E905840E0B4
:102540000E94A1076B017C010E94F32E8B0177FF93
:1025500003C0109501951F4F05361105FCF0C7010A
:10256000B60120E030E040E050E00E94872E882352
:10257000A9F0B801882777FD8095982F0E94262F13
:102580009B01AC01C701B6010E948B2E20E030E018
:1025900048EC52E40E9414306B017C01C701B60183
:1025A00020E030E048EC52E40E948B2E6B017C016D
:1025B0008DB79EB709970FB6F8949EBF0FBE8DBF1B
:1025C0000DB71EB70F5F1F4FC701B60120E030E007
:1025D00048EC52E40E94143020E030E048EC52E431
:1025E0000E94232E0E94F82E4B015C0182E390E0B2
:1025F000F80191838083C701B60120E030E048EC08
:1026000052EC0E94143020E030E048EC52E40E948A
:10261000232E0E94F82EF8017383628382EC91E0EE
:102620009583848316821086178281E062E041E000
:1026300022E330E0840192ECE92E91E0F92ECC24E3
:10264000AA24BB24882483940E944C1E8DB79EB775
:1026500009960FB6F8949EBF0FBE8DBF822D1F91B5
:102660000F91FF90EF90DF90CF90BF90AF909F9031
:102670008F907F906F905F904F903F902F90089534
:102680002F923F924F925F926F927F928F929F9282
:10269000AF92BF92CF92DF92EF92FF920F931F9370
:1026A000E0907105F090720500917305109174052A
:1026B0003324C801B70120E030E040E050E00E9440
:1026C000872E882314F433243394A0901907B090F4
:1026D0001A07C0901B07D0901C0740901407509019
:1026E00015076090160770901707882460917B0586
:1026F00070917C0580917D0590917E0520E030E011
:1027000040E751E40E94872E882314F488248394A0
:10271000932C98288824C601B50120E030E040E7DA
:1027200051E40E94872E882314F4882483949828E7
:102730008824C301B20120E030E040E751E40E9468
:10274000872E882314F488248394292C282809F0C0
:102750008AC00E94841D60930C0770930D078093BC
:102760000E0790930F07CB0161157105E1F064E14D
:1027700070E0681B790B80E090E00E94242F9B01A1
:10278000AC016091A5077091A6078091A707909171
:10279000A8070E94232E6093A5077093A607809335
:1027A000A7079093A80780910E0790910F070097B5
:1027B000E1F064E170E0681B790B80E090E00E943A
:1027C000242F9B01AC016091F5047091F604809177
:1027D000F7049091F8040E94232E6093F5047093FF
:1027E000F6048093F7049093F80482E060E070E0D0
:1027F0000E94CF1F8DB79EB709970FB6F8949EBF62
:102800000FBE8DBFEDB7FEB7319684E190E0ADB756
:10281000BEB712969C938E93119788EC90E09383A9
:10282000828382EC91E095838483168210861782DE
:1028300081E062E041E024E130E008EC10E072EC7D
:10284000E72E71E0F72ECC24AA24BB24882483949D
:102850000E944C1EEDB7FEB739960FB6F894FEBF36
:102860000FBEEDBF48C1C601B50120E030E040E732
:1028700051E40E94D62F181664F480E090E0A0E4A2
:10288000B0EC8093190790931A07A0931B07B0939D
:102890001C07C301B20120E030E040E751E40E9490
:1028A000D62F181614F080E00DC080E090E0A0E470
:1028B000B0EC8093140790931507A0931607B0937C
:1028C000170781E0332021F1882329F060E070E0D0
:1028D0008AE794E404C060E070E08AE794ECA80121
:1028E00097010E948B2E209114073091150740917B
:1028F0001607509117070E94232E9B01AC0160918F
:10290000190770911A0780911B0790911C0710C03E
:102910006091190770911A0780911B0790911C070D
:102920002091140730911507409116075091170711
:102930000E94222E905840E00E94A1076B017C016A
:102940000E94F32E8B0177FF03C0109501951F4F56
:1029500005361105FCF0C701B60120E030E040E08B
:1029600050E00E94872E8823A9F0B801882777FDC0
:102970008095982F0E94262F9B01AC01C701B601BC
:102980000E948B2E20E030E048EC52E40E9414308C
:102990006B017C01C701B60120E030E048EC52E455
:1029A0000E948B2E4B015C010E94841D60930C07DA
:1029B00070930D0780930E0790930F07CB0161155D
:1029C0007105E1F064E170E0681B790B80E090E054
:1029D0000E94242F9B01AC016091A5077091A6076E
:1029E0008091A7079091A8070E94232E6093A507C6
:1029F0007093A6078093A7079093A80780910E076E
:102A000090910F070097E1F064E170E0681B790B8B
:102A100080E090E00E94242F9B01AC016091F504BE
:102A20007091F6048091F7049091F8040E94232E8F
:102A30006093F5047093F6048093F7049093F80480
:102A400082E060E070E00E94CF1F8DB79EB70997CB
:102A50000FB6F8949EBF0FBE8DBF0DB71EB70F5FA8
:102A60001F4FC501B40120E030E048EC52E40E9461
:102A7000143020E030E048EC52E40E94232E0E9403
:102A8000F82E6B017C0184E190E0D8018D939C933A
:102A9000C501B40120E030E048EC52EC0E94143053
:102AA00020E030E048EC52E40E94232E0E94F82EF1
:102AB000F8017383628382EC91E0958384831682AC
:102AC0001086178281E062E041E024E130E0860177
:102AD00052ECE52E51E0F52ECC24AA24BB24882408
:102AE00083940E944C1E8DB79EB709960FB6F8943A
:102AF0009EBF0FBE8DBF822D1F910F91FF90EF9053
:102B0000DF90CF90BF90AF909F908F907F906F900D
:102B10005F904F903F902F900895FF920F931F93D7
:102B2000142F082F06950695E3E0FE2EF82262305A
:102B300031F06330A9F06130B1F4115012C041306E
:102B400049F0413028F0423039F04330B9F406C042
:102B5000015014C0F39412C00F5F10C0FA940EC05D
:102B60001F5F13700BC000D084E491E0EDB7FEB797
:102B7000928381830E94DB370F900F9010930E0693
:102B8000000F000F802F8F0D1F910F91FF90089560
:102B90008F92AF92BF92CF92DF92EF92FF920F93FC
:102BA0001F938091A907823069F08330A1F08130B2
:102BB00051F560E070E080E090E020E030E04CE82B
:102BC00051EC11C060E070E080E09FE420E030E074
:102BD00044E352E408C060E070E080E090E020E070
:102BE00030E04CE851E40F2EF0E0EF2EF0E0FF2E45
:102BF000F0E20F2FF1E41F2FF02D57016801882418
:102C00000E94C50A0BC000D08DE491E0EDB7FEB77D
:102C1000928381830E94DB370F900F901F910F9159
:102C2000FF90EF90DF90CF90BF90AF908F9008957E
:102C30008091790580FD02C081E005C083FD02C05E
:102C400082E001C083E08093A9078091AA078130C8
:102C500029F0813038F0843028F40FC082E080936E
:102C6000A9070BC000D086E591E0EDB7FEB79283CF
:102C700081830E94DB370F900F908091A90780938A
:102C8000AA07089580916704853080F0E8E5F4E0B4
:102C9000818180838681858383858287319684E0E4
:102CA000ED35F807A9F784E0809367040E941816B1
:102CB000E0916704F0E0E85AFB4F8091790580834A
:102CC0009091A907958380910E068287913019F023
:102CD000933041F402C0815001C08F5F83708093B4
:102CE0000E060BC000D08DE491E0EDB7FEB79283E5
:102CF00081830E94DB370F900F90809167048F5F74
:102D000080936704089590910E06913091F0913070
:102D100028F09230D9F09330C1F523C080910F068E
:102D2000813091F0813068F1823049F1833069F56A
:102D300026C080910F06813021F18130E8F0823089
:102D400019F0833011F518C083E01CC080910F0684
:102D50008130C1F0813098F08230A1F08330A9F445
:102D600011C080910F06813069F0813028F08230E7
:102D700031F0833051F405C09093A907089581E0A4
:102D800001C082E08093A907089500D08FE591E00B
:102D9000EDB7FEB7928381830E94DB370F900F90CF
:102DA00008958F92AF92BF92CF92DF92EF92FF92EF
:102DB0000F931F930E946B1BE0917A05F0E0E350A4
:102DC000FA4FE081E093A90780E0E13009F481E067
:102DD00090E0E33009F491E0892B282F30E040E0C7
:102DE00050E08091AA07823011F441E050E02423A2
:102DF0003523232BB9F060E070E080E09FE428E405
:102E000031EE46EB51E40F2EF0E0EF2EF0E0FF2E16
:102E1000F0E20F2FF1E41F2FF02D570168018824F5
:102E20000E94C50A2091AA0780E0213009F481E0C0
:102E300090E0233009F491E0892B282F30E040E026
:102E400050E08091A907823011F441E050E0242342
:102E50003523232BB9F060E070E080E09FE425E3A8
:102E60003FEE40EA51E40F2EF0E0EF2EF0E0FF2EAF
:102E7000F0E20F2FF1E41F2FF02D57016801882495
:102E80000E94C50A8091A9078230C1F1833009F4FC
:102E900061C0813009F09FC08DB79EB708970FB60B
:102EA000F8949EBF0FBE8DBFEDB7FEB7319688E692
:102EB00091E0ADB7BEB712969C938E931197809117
:102EC0007A058283138280917905848315828091AB
:102ED0008005868317820E94DB37EDB7FEB73896F0
:102EE0000FB6F894FEBF0FBEEDBF60E070E080E06B
:102EF00090E020E030E04CE851EC5DC08DB79EB72B
:102F000008970FB6F8949EBF0FBE8DBFEDB7FEB702
:102F1000319683E991E0ADB7BEB712969C938E933C
:102F2000119780917A058283138280917905848339
:102F3000158280918005868317820E94DB37EDB76A
:102F4000FEB738960FB6F894FEBF0FBEEDBF0E94D5
:102F5000BF1153C08DB79EB708970FB6F8949EBFA8
:102F60000FBE8DBFEDB7FEB7319681EC91E0ADB7E6
:102F7000BEB712969C938E93119780917A058283A7
:102F800013828091790584831582809180058683E0
:102F900017820E94DB37EDB7FEB738960FB6F8946C
:102FA000FEBF0FBEEDBF60E070E080E090E020E08B
:102FB00030E04CE851E40F2EF0E0EF2EF0E0FF2E71
:102FC000F0E20F2FF1E41F2FF02D57016801882444
:102FD0000E94C50A12C000D08DEE91E0ADB7BEB719
:102FE00012969C938E9311970E94DB370F900F904F
:102FF00082E060E00E947620FFCF8091A907809355
:10300000AA0781E01F910F91FF90EF90DF90CF9082
:10301000BF90AF908F900895FF920F931F93CF931F
:10302000DF93FF24F39410E0C6EFD1E00E94820505
:10303000082F813021F0823011F0833039F4E12FF4
:10304000F0E0E350FA4F00831F5F02C0882321F1B4
:103050000E946B1B8DB79EB708970FB6F8949EBF62
:103060000FBE8DBFEDB7FEB73196ADB7BEB71296A6
:10307000DC93CE931197F282138204831582168318
:1030800017820E94DB37F02E8DB79EB708960FB6D9
:10309000F8949EBF0FBE8DBF84EF91E00E94462240
:1030A0001B3020F21F5FE12FF0E0E350FA4F84E085
:1030B0008083DF91CF911F910F91FF9008951F930F
:1030C000CF93DF9310E0C7E2D2E00E948205813007
:1030D00021F480911007880F06C0823039F4809166
:1030E0001007880F8F5F809310071F5F0E946B1B74
:1030F00000D000D000D0EDB7FEB73196ADB7BEB767
:103100001296DC93CE9311978091100782831382DD
:10311000148315820E94DB378DB79EB706960FB6D3
:10312000F8949EBF0FBE8DBF84EF91E00E944622AF
:10313000143058F28091100780931107DF91CF91DE
:103140001F9108951F93CF93DF9310E0CFE4D2E057
:103150000E948205813021F480910E06880F06C0FE
:10316000823041F480910E06880F8F5F80930E06A7
:103170001F5F02C08823F1F00E946B1B00D000D0BB
:1031800000D0EDB7FEB73196ADB7BEB71296DC935F
:10319000CE93119780910E06828313821483158239
:1031A0000E94DB378DB79EB706960FB6F8949EBF88
:1031B0000FBE8DBF84EF91E00E944622123040F294
:1031C0000E946B1B80910E06813051F0813028F0F7
:1031D000823049F0833071F409C08EE792E008C074
:1031E00080EA92E005C081EC92E002C083EE92E0BA
:1031F0000E94ED3780910E0680930D0684EF91E0DA
:103200000E944622DF91CF911F910895CF92DF92C5
:10321000EF92FF920F931F93DF93CF930F92CDB74F
:10322000DEB780911007F82EF694F694982F9370DD
:1032300000910E06CC24DD24F601E350FA4F1081F4
:10324000EF2DF0E0EE0FFF1FEE0FFF1FE90FF11D56
:10325000E352FC4F8081602F41E099830E94000877
:10326000F601EB56F84F80839981123089F40130D2
:1032700049F0013028F0023039F0033089F406C0FB
:10328000FA940EC09F5F0CC0F3940AC0915008C01E
:10329000133011F40F5F03C0113011F401500370AB
:1032A0000894C11CD11C8DE0C816D10429F6CC2489
:1032B000DD2474E0E72E73E0F72EF601EB56F84FAD
:1032C00000810E946B1B202F30E0ADB7BEB7549732
:1032D0000FB6F894BEBF0FBEADBFEDB7FEB73196C7
:1032E0001296FC92EE921197D382C282112707FDAB
:1032F00010950027110F001F112715830483C901A2
:1033000056E0969587955A95E1F78170907097836E
:103310008683C90145E0969587954A95E1F78170C6
:10332000907091878087C90104E0969587950A95EA
:10333000E1F78170907093878287C90113E09695B9
:1033400087951A95E1F78170907095878487C901F8
:1033500096958795969587958170907097878687C3
:10336000C9019695879581709070918B808B2170A3
:103370003070338B228B0E94DB37EDB7FEB774962B
:103380000FB6F894FEBF0FBEEDBF88EE93E00E942B
:1033900046220894C11CD11CFDE0CF16D10409F0CF
:1033A0008CCF0F90CF91DF911F910F91FF90EF90F5
:1033B000DF90CF9008951F931091100780917905A9
:1033C00060910E0640E00E940008E12FE695E69528
:1033D000F0E0EE0FFF1FEE0FFF1F1370E10FF11D66
:1033E000E352FC4F80831F910895DF92EF92FF928A
:1033F0000F931F93062F142FFF242EC0053090F536
:10340000153080F5EF2DF0E0E85AFB4FD580E284CF
:1034100080816E2D40E00E940008E02FF0E0EE0F6A
:10342000FF1FEE0FFF1FE10FF11DE352FC4F9081D4
:103430008917C1F4802F880F880F810F80931007A0
:103440006D2D4E2D0E948D1580931007082F069527
:103450000695182F1370F39480916704F81670F294
:1034600081E001C080E01F910F91FF90EF90DF900D
:103470000895DF92EF92FF920F931F93CF93DF9304
:10348000D09058041092AC0700E010E01AC0888178
:10349000D81669F48DED93E06E2D4F2D0E94F5192D
:1034A000882329F08091AC078F5F8093AC07F39459
:1034B000219684E0F81659F70F5F1F4F043011056D
:1034C00051F0E02EE801CC0FDD1FCC0FDD1FC35201
:1034D000DC4FFF24DCCF90E08091AC07813009F015
:1034E00091E0892FDF91CF911F910F91FF90EF9085
:1034F000DF9008950E942310109210078FE08093B0
:103500007F050E94D8105AC00E946B1B80910E0646
:10351000813051F0813028F0823049F0833071F4ED
:1035200009C086E293E008C086E393E005C085E425
:1035300093E002C085E593E00E94ED37809110078B
:103540000E946D108093AB078823E9F580910F06E8
:10355000813051F0813028F0823049F0833071F4AD
:1035600009C084E693E008C084E793E005C083E8DF
:1035700093E002C083E993E00E94ED378091A907B0
:10358000823051F0833029F0813051F482EA93E0A7
:1035900005C08FEA93E002C08DEB93E00E94ED3707
:1035A0000E9483160E94C815809110076091A90798
:1035B00040910E060E948D15809310078091AB07F5
:1035C000882309F4A1CF0E946B1B00D08DEC93E0FF
:1035D000EDB7FEB7928381830E94DB370F900F9087
:1035E00088E893E10E94462208958FE00E94E92036
:1035F000882331F40E9478238FE061E00E9431211A
:103600008FE091E008958FE00E94E920813019F069
:1036100020E030E013C080917A00806480937A00CB
:1036200080917A0086FDFCCF30917800209179005E
:10363000922F80E0232F30E0282B392BC9010895E9
:10364000582F8091FD038830D8F440917E0021E00E
:1036500030E0B90102C0660F771F8A95E2F7CB010F
:103660008095842380937E0080917E00052E02C089
:10367000220F331F0A94E2F7822B80937E000DC045
:1036800020917E0081E090E0052E02C0880F991FF6
:103690000A94E2F7282B20937E005093FD0380913B
:1036A0007C005F71807E852B80937C000895ECE721
:1036B000F0E090818295880F880F807C9F73982B13
:1036C000908308950E9491230E9483230E947A1A76
:1036D00080E090E008950F931F9380E460E00E94E3
:1036E0004A1C00E0802F60E00E94311C10E080E066
:1036F00061E00E944A1C1F5F1038C9F70F5F043059
:1037000089F783E060E00E942A1C1F910F910895C1
:103710000F931F9382E00E94E920882311F482E036
:1037200006C081E00E94E920882319F481E090E03E
:103730006DC00E94F92585E061E00E9431218EEA8A
:1037400060E00E944A1C82EA60E00E944A1C80EA13
:1037500060E00E944A1C00E513ECC8010197F1F7F4
:1037600080EC60E00E944A1C8FE260E00E944A1CEC
:1037700081E860E00E944A1C86E160E00E944A1CE9
:1037800082E260E00E944A1CC8010197F1F78FEACB
:1037900060E00E944A1C86EA60E00E944A1C85EABA
:1037A00060E00E944A1C80E090E028E833E1F901E3
:1037B0003197F1F7019643E0883E9407C1F783EB18
:1037C00060E00E944A1C80E460E00E944A1C83E0A2
:1037D00060E00E94311C83E060E00E942A1C10928D
:1037E000FC071092FE071092FD078CE094E0909386
:1037F0002D0880932C0888E10E94091C0E946B1BF5
:1038000084EA60E00E944A1C85E091E01F910F91DC
:1038100008951F93182F85E00E94E9208130C1F49C
:1038200087E00E94861C82E06AE00E94D71C82E04A
:1038300061EB0E94D71C612F113208F060E282E038
:103840000E94D71C89EE8A95F1F787E00E94861CBA
:103850001F91089583706F776093FA078093FB0739
:1038600008950F931F93062F162F1F778370806B79
:1038700060E00E944A1C12951F70812F806160E0F9
:103880000E944A1C802F8F7060E00E944A1C1F918A
:103890000F9108950F931F93082F162F85E00E9414
:1038A000E920813079F4112319F0113021F402C09C
:1038B0002B9801C02B9A86E08A95F1F780E0602F63
:1038C0000E94D71C1F910F9108951F93182F86E017
:1038D0000E94E920813019F4812F0E94A8261F91AF
:1038E00008950E94AD2686E061E00E94312186E0C5
:1038F00091E008951F93182F86E00E94E9208130FF
:1039000019F4812F0E94B0261F9108951F93182F3C
:1039100082E00E94E920813009F047C0912F977022
:103920008091FF07981709F440C09093FF0785B175
:10393000887F892B85B9933011F1943028F4913028
:1039400051F0923090F40CC0953019F19530E0F0C0
:10395000963021F50FC0E091CA04F091CB0422C04B
:10396000E091C804F091C9041DC0E091CC04F0912D
:10397000CD0418C0E091D404F091D50413C0E091B7
:10398000CE04F091CF040EC0E091D004F091D104A8
:1039900009C0E091D204F091D30404C0E091D604B0
:1039A000F091D704309709F009951F9108951F935E
:1039B000162F0E94861C82E00E94E920813021F4AB
:1039C0001EBD0DB407FEFDCF1F9108950F931F93E9
:1039D000CF93DF9380E291E00E94BC359C019093ED
:1039E000E7048093E604892B11F480E039C0890153
:1039F000C0E0D0E0BE0180E090E00E94242F20E0F3
:103A000030E040EA51E40E948B2E27EF35E740E09A
:103A10005FE30E9414309B01AC0160E070E080E243
:103A200091E40E9477309B01AC01CA01B9012DECF1
:103A30003CEC42E851E40E9414300E94DA2F2AE064
:103A400030E040E050E00E944435F801619371930A
:103A5000819391938F012196C834D10559F681E065
:103A6000DF91CF911F910F9108958AE00E94E92084
:103A7000882371F41092E3041092E20481E00E9422
:103A8000EB2781E08093D9048AE061E00E94312134
:103A90008AE091E008951F938BE00E94E92088233B
:103AA00011F090E021C089E00E94E9208823D9F438
:103AB0000E94E61C182F8130B1F41092DA041092A3
:103AC000DB041092DC041092DD048DE06EE677E2F8
:103AD0000E94D12582E00E94EB271093D80489E050
:103AE00061E00E94312191E089E01F9108958130C9
:103AF00029F0823031F090E089E008950E94351D70
:103B000008950E944B1D08958091C0079091C107B0
:103B10002091C2073091C307BC01C90108952F92BB
:103B20003F924F925F926F927F928F929F92AF924D
:103B3000BF92CF92DF92EF92FF920F931F93DF938A
:103B4000CF93CDB7DEB7582E962E442E39013C2C9C
:103B5000C98CDA8C2B8C81E0681739F1681728F052
:103B600092E0691709F085C049C080E061E00E94D9
:103B7000981F80E0B7010E94611F80E0642DA301BF
:103B80009801032DEE24E394E5EECE2EE7E0DE2E41
:103B90000E94EA1F552009F06CC000D00F92EDB7CB
:103BA000FEB71182B382A28223C081E061E00E944D
:103BB000981F81E0B6010E94611F81E0682D4D8948
:103BC0005E892F89388D022DEE24E39475EEC72E81
:103BD00077E0D72E0E94EA1F552009F04AC000D096
:103BE0000F92EDB7FEB791828C8D9D8D938382836A
:103BF0000E949B200F900F900F903BC082E061E0ED
:103C00000E94981F80E0B7010E94611F81E0B60109
:103C10000E94611F80E0642DA3019801032DEE2412
:103C2000E39495EEC92E97E0D92E0E94EA1F81E019
:103C3000682D4D895E892F89388D022D0E94EA1FDB
:103C40005520B9F400D000D00F92ADB7BEB7119691
:103C5000EDB7FEB79182FD01B282A1828C8D9D8D60
:103C6000948383830E949B200F900F900F900F905E
:103C70000F90CF91DF911F910F91FF90EF90DF9008
:103C8000CF90BF90AF909F908F907F906F905F90FC
:103C90004F903F902F9008956F927F928F929F92B6
:103CA000AF92BF92CF92DF92EF92FF920F931F934A
:103CB000DF93CF93CDB7DEB7942E7C2DD501498904
:103CC0005A89AB88BC88CD88DE889F89813009F409
:103CD00057C08130B8F1823009F076C0613091F080
:103CE000613020F0623009F06FC015C080E060E004
:103CF0000E94981F80E0B7010E94611F80E0692D3B
:103D0000A8011DC081E060E00E94981F81E0B6011B
:103D10000E94611F11C082E060E00E94981F80E055
:103D2000B7010E94611F81E0B6010E94611F80E01F
:103D3000692DA8010E944A1F81E0682DA5010E94FB
:103D40004A1F42C0EDB7FEB739970FB6F894FEBFD1
:103D50000FBEEDBF6DB67EB60894611C711C528318
:103D60004183F301B382A282D582C4829683888D77
:103D7000998D9087878380E0492DC72E5D011AC0F9
:103D8000EDB7FEB739970FB6F894FEBF0FBEEDBF83
:103D9000ADB7BEB7119652834183FD01B382A282B3
:103DA000D582C48296831086178281E0492DC72E62
:103DB000AA24BB240E948F1D8DB79EB709960FB60B
:103DC000F8949EBF0FBE8DBFCF91DF911F910F91D1
:103DD000FF90EF90DF90CF90BF90AF909F908F902B
:103DE0007F906F9008950E947D2881E08093E40782
:103DF000EEEAF7E01192119211821082329611824E
:103E0000108232961182108232961182108232967E
:103E100011821082329611821082329611821082A3
:103E2000329611821082329611821082329611825D
:103E3000108232961182108232961182108236964A
:103E40001192119211921082329611921192119246
:103E50001192119211921192118210823296118256
:103E600010823296118210823296118210827697D9
:103E7000118210823296118210821092E307109202
:103E8000E2071092E40787E061E00E94312187E0B9
:103E900091E00895EF92FF920F931F93182F062F32
:103EA0007A0160E00E94981F812F602F0E94831F7B
:103EB000812FB7010E94AD1F1F910F91FF90EF90CE
:103EC0000895482F81E08093E407CB0123E0693E09
:103ED000720710F088EE93E0413071F0413018F035
:103EE000423071F405C09093B9078093B80708C0B9
:103EF0009093B9078093B8079093BB078093BA0754
:103F00001092E4070895982F81E08093E4079130A0
:103F100051F0913018F0923041F403C06093D10712
:103F200004C06093D1076093D2071092E40708950C
:103F3000982F81E08093E407913051F0913018F090
:103F4000923041F403C06093AE0704C06093AE07A3
:103F50006093AF071092E4070895482F81E08093A3
:103F6000E407CB0121E06139720710F080E991E0AC
:103F7000413071F0413018F0423071F405C0909337
:103F8000B1078093B00708C09093B1078093B00742
:103F90009093B3078093B2071092E4070895982F87
:103FA00081E08093E407913071F0913018F0923005
:103FB00071F405C07093C1076093C00708C0709387
:103FC000C1076093C0077093C3076093C207109244
:103FD000E40708958F929F92AF92BF92CF92DF92A3
:103FE000EF92FF920F931F93CF93DF93182FF62E2C
:103FF0005A014901E60161E00E94981F812FB50135
:10400000A4010E949C28812F6F2D0E94831F812F65
:10401000602F0E948728812FB5010E94CF1FC114F5
:10402000D10499F0113049F0113018F0123069F4D0
:1040300006C018821092E00708C0198204C01882D6
:1040400019821092E0071092E107D093E307C09322
:10405000E207EE20B9F588E794E09093E3078093B8
:10406000E207812FB4010E94AD1F812F0E946828B2
:10407000113071F0113018F0123059F512C0109251
:1040800078041092E007809178048823E1F321C03E
:10409000109279041092E107809179048823E1F36A
:1040A00018C010927804109279041092E0071092D0
:1040B000E107809178048823E1F3809179048823D3
:1040C000C1F307C0812FB4010E94AD1F812F0E9450
:1040D0006828DF91CF911F910F91FF90EF90DF90B3
:1040E000CF90BF90AF909F908F9008950F931F93A4
:1040F000182F062F662349F460E070E00E94AD1F80
:10410000812F60E070E00E94CF1F81E08093E40780
:10411000113051F0113018F0123041F403C0009307
:10412000CC0704C00093CC070093CD071092E4079E
:104130001F910F910895CF92DF92EF92FF920F930C
:104140001F93DF93CF93CDB7DEB78B85813061F0BE
:10415000813018F08230A1F511C0EC85FD85809189
:10416000E5078823E1F306C0EC85FD858091E6072D
:104170008823E1F3309721F1099522C0CC84DD84B6
:10418000EE84FF8400E010E0002351F48091E50705
:10419000882331F0C114D10411F0F601099501E032
:1041A000112351F48091E607882331F0E114F104E2
:1041B00011F0F701099511E0002331F3112321F3E8
:1041C000CF91DF911F910F91FF90EF90DF90CF90F3
:1041D0000895E82FF0E0E331F10540F4E25CFF4F91
:1041E000EE0FFF1F0590F491E02D099480E00895F3
:1041F0008091E70708958091E80708958091E90785
:1042000008958091EA0708958091EB0708958091C1
:10421000ED0708958091EC0708958091EE070895C9
:104220008091EF0708958091F00708958091F1073C
:1042300008958091F20708958091F3070895809181
:10424000F40708958091F50708958091F607089581
:104250008091F70708958091F80708958091F907F4
:104260000895E82FF0E0E331F10508F040C0EF5A7F
:10427000FF4FEE0FFF1F0590F491E02D099460931E
:10428000E70708956093E80708956093E9070895A4
:104290006093EA0708956093EB0708956093ED0734
:1042A00008956093EC0708956093EE070895609376
:1042B000EF0708956093F00708956093F10708955C
:1042C0006093F20708956093F30708956093F407ED
:1042D00008956093F50708956093F6070895609335
:1042E000F70708956093F80708956093F707089516
:1042F0000F931F9381E00E94E920813011F000E0CC
:1043000024C087E00E94861C82E06AE00E94D71CDD
:1043100082E062EB0E94D71C18EC812F8A95F1F79E
:1043200082E060E00E945327082F812F8A95F1F7E1
:1043300082E060E00E9453271A95F1F787E00E941F
:10434000861C88E893E10197F1F7802F1F910F9168
:1043500008951F93CF93DF93182F80917B048823B8
:1043600041F080918504882399F010927B0410928B
:1043700085040E94782180937A048FE794E061E0BD
:1043800040E022E330E00E94672281E080937B04DA
:1043900090917A04A12FB0E0ED01CA5FDB4F8881D4
:1043A000882369F0FD01E75FFB4F80819823C1F00E
:1043B000FD01E458FB4F81E08083188211C0FD01AC
:1043C000E458FB4F808181111082FD01E75FFB4FB4
:1043D0008081982329F4FD01EA5FFB4F81E080830F
:1043E000A458BB4F8C91DF91CF911F91089582E02B
:1043F0000E94E920882319F490E082E00895109249
:1044000015081092140810921708109216081092AE
:1044100019081092180810921B0810921A0810928E
:104420001D0810921C0880E991E090930108809388
:1044300000089093030880930208909305088093E6
:1044400004089093070880930608909309088093C6
:10445000080884E398E090930B0880930A089093EF
:104460000D0880930C0890930F0880930E0890938A
:10447000110880931008909313088093120881E02C
:1044800061E00E94312191E081E00895DF93CF93B4
:10449000CDB7DEB729970FB6F894DEBF0FBECDBFFC
:1044A0009C01CE01019661E040E00E946722982FB6
:1044B000882319F48F818823E9F3892F29960FB671
:1044C000F894DEBF0FBECDBFCF91DF910895EF927C
:1044D000FF920F931F93CF93DF93EC01F62EE42E00
:1044E000890188E00E94E920813011F081E026C036
:1044F00084E090E00E94BC35FC01009711F482E05A
:104500001DC0F982F0FC1E8281E0E81619F4898151
:10451000846089838981886089831B830A831D83E2
:104520000C83D183C0831382128281E08093E804DC
:10453000CF010E94FC281092E80480E0DF91CF9127
:104540001F910F91FF90EF900895FC018091210839
:10455000813011F085E0089580912208813011F0BA
:104560008AE00895613011F484EC01C084E88093FE
:10457000BC008091BC0087FFFCCF613031F480919A
:10458000B900887F803559F405C08091B900887FD3
:10459000883529F48091BB00808380E0089582E013
:1045A0000895982F80912108813011F085E00895B9
:1045B00080912208813011F08AE008959093BB0029
:1045C00084E88093BC008091BC0087FFFCCF809181
:1045D000B90090E0887F90708832910521F0C097F3
:1045E00021F483E0089580E008958CE00895982FE9
:1045F00020912108213011F085E008958091230851
:10460000813011F489E008952093220884EA809390
:10461000BC008091BC0087FFFCCF8091B900887FEF
:10462000883039F08091B900887F803111F081E0C5
:104630000895613019F4990F916003C0662319F44D
:10464000990F9093BB0084E88093BC008091BC00DC
:1046500087FFFCCF613031F48091B900887F8034CE
:1046600041F409C0662339F48091B900887F88310C
:1046700011F082E0089580E0089580912208813051
:1046800011F08AE0089580912408813029F485E9A9
:104690008093BC0080E0089584E98093BC0080E0B2
:1046A000089582E10E94E9208823B1F41092210844
:1046B00010922208109223081092240810922508C4
:1046C0000E94982987E160E00E946F230E948E2952
:1046D00082E161E00E94312182E190E008956370FF
:1046E0006093B9008093B80081E080932108089519
:1046F0008FE180937C00EAE7F0E087E080838081AF
:104700008068808308950E94D9280E94B5260E945F
:10471000E5250E9465290E941A270E94F7217894B6
:104720000895000008951F920F920FB60F92112462
:104730002F933F934F935F936F937F938F939F93A9
:10474000AF93BF93EF93FF93E091A804F091A90476
:10475000309709F00995FF91EF91BF91AF919F912B
:104760008F917F916F915F914F913F912F910F901A
:104770000FBE0F901F9018951F920F920FB60F92B9
:1047800011242F933F934F935F936F937F938F9356
:104790009F93AF93BF93EF93FF93E091AA04F0919F
:1047A000AB04309709F00995FF91EF91BF91AF915C
:1047B0009F918F917F916F915F914F913F912F9139
:1047C0000F900FBE0F901F9018951F920F920FB66B
:1047D0000F9211242F933F934F935F936F937F9387
:1047E0008F939F93AF93BF93EF93FF93E091AC04AC
:1047F000F091AD04309709F00995FF91EF91BF91C9
:10480000AF919F918F917F916F915F914F913F9168
:104810002F910F900FBE0F901F9018951F920F921F
:104820000FB60F9211242F933F934F935F936F9383
:104830007F938F939F93AF93BF93EF93FF93E091F9
:104840009A04F0919B04309709F00995FF91EF913C
:10485000BF91AF919F918F917F916F915F914F9198
:104860003F912F910F900FBE0F901F9018951F92A0
:104870000F920FB60F9211242F933F934F935F9394
:104880006F937F938F939F93AF93BF93EF93FF9318
:10489000E0919C04F0919D04309709F00995FF91F7
:1048A000EF91BF91AF919F918F917F916F915F91A8
:1048B0004F913F912F910F900FBE0F901F90189521
:1048C0001F920F920FB60F9211242F933F934F9385
:1048D0005F936F937F938F939F93AF93BF93EF9368
:1048E000FF93E0919E04F0919F04309709F00995A1
:1048F000FF91EF91BF91AF919F918F917F916F91B8
:104900005F914F913F912F910F900FBE0F901F908D
:1049100018951F920F920FB60F9211242F933F9369
:104920004F935F936F937F938F939F93AF93BF93B7
:10493000EF93FF93E091A204F091A304309709F064
:104940000995FF91EF91BF91AF919F918F917F91C9
:104950006F915F914F913F912F910F900FBE0F90EC
:104960001F9018951F920F920FB60F9211242F933C
:104970003F934F935F936F937F938F939F93AF93E7
:10498000BF93EF93FF93E091A404F091A5043097B7
:1049900009F00995FF91EF91BF91AF919F918F9190
:1049A0007F916F915F914F913F912F910F900FBE2B
:1049B0000F901F9018951F920F920FB60F9211240F
:1049C0002F933F934F935F936F937F938F939F9317
:1049D000AF93BF93EF93FF93E091A004F091A104F4
:1049E000309709F00995FF91EF91BF91AF919F9199
:1049F0008F917F916F915F914F913F912F910F9088
:104A00000FBE0F901F9018951F920F920FB60F9226
:104A100011242F933F934F935F936F937F938F93C3
:104A20009F93AF93BF93EF93FF93E091A604F09110
:104A3000A704309709F00995FF91EF91BF91AF91CD
:104A40009F918F917F916F915F914F913F912F91A6
:104A50000F900FBE0F901F9018951F920F920FB6D8
:104A60000F9211242F933F934F935F936F937F93F4
:104A70008F939F93AF93BF93EF93FF93E091900435
:104A8000F0919104309709F00995FF91EF91BF9152
:104A9000AF919F918F917F916F915F914F913F91D6
:104AA0002F910F900FBE0F901F9018951F920F928D
:104AB0000FB60F9211242F933F934F935F936F93F1
:104AC0007F938F939F93AF93BF93EF93FF93E09167
:104AD0009204F0919304309709F00995FF91EF91BA
:104AE000BF91AF919F918F917F916F915F914F9106
:104AF0003F912F910F900FBE0F901F9018951F920E
:104B00000F920FB60F9211242F933F934F935F9301
:104B10006F937F938F939F93AF93BF93EF93FF9385
:104B2000E0919404F0919504309709F00995FF9174
:104B3000EF91BF91AF919F918F917F916F915F9115
:104B40004F913F912F910F900FBE0F901F9018958E
:104B50001F920F920FB60F9211242F933F934F93F2
:104B60005F936F937F938F939F93AF93BF93EF93D5
:104B7000FF93E0919604F0919704309709F009951E
:104B8000FF91EF91BF91AF919F918F917F916F9125
:104B90005F914F913F912F910F900FBE0F901F90FB
:104BA0001895E82F803268F48051833050F0F0E09F
:104BB000EE0FFF1FE857FB4F208131817183608327
:104BC00002C020E030E0C901089580E10E94E920A0
:104BD000882361F4E8E8F4E01192119284E0E83C63
:104BE000F807D1F780E161E00E94312180E191E096
:104BF0000895239A0895FF920F931F93CF93DF9305
:104C0000F82E8AE0F816B1F08F1548F0E8E0FE16AD
:104C1000B9F1EF1538F1F7E0FF1651F43BC08DE024
:104C2000F81659F0EBE1FE1689F0FCE0FF1641F0B2
:104C300001E041C01092FA0703C01092FA073AC08F
:104C40008091FB0781508093FB0734C00E946B1B4F
:104C500014C080E061E00E944A1C8091FA078F5FD7
:104C60008093FA078091FA0787FFF3CF1092FA0733
:104C70008091FB0781508093FB0700E011E01CC08E
:104C80008091FA078823B1F08091FA0786508093CB
:104C9000FA0710C081E00E94771D64EF71E080E0A8
:104CA00090E04DE750E024E630E00E94152881E0D6
:104CB0000E94E12700E010E08091FB076091FA0775
:104CC0000E94311C002351F185E0F89EC00111249F
:104CD000EC01C355DF4F8C010E541F4FFE01849130
:104CE00061E00E944A1C2196C017D107B9F780E005
:104CF00061E00E944A1C8091FA078A5F8093FA075C
:104D00008091FA0790E08C3791053CF01092FA07F9
:104D10008091FB0781508093FB0711E08091FB0796
:104D200083708093FB07113059F48091FC07813028
:104D300039F4E091FD07F091FE07309709F00995ED
:104D400080E090E0DF91CF911F910F91FF90089547
:104D500085FD5D9886FD5E980895559A569A08954A
:104D600085FD5D9A86FD5E9A089580E00E94E920A7
:104D7000882351F4F8940E94AC2981E00E94C72650
:104D800080E061E00E94312180E091E0089581306F
:104D900049F0F894813020F18230B1F0833009F08D
:104DA00045C017C02C9A80E8809361001092610082
:104DB00080E090E00000019688329105D9F71092CA
:104DC000680010926B00089580E88093610083E092
:104DD00004C080E88093610088E08093610028C06F
:104DE00080E090E0000001962DE680369207D1F732
:104DF0002C9880E090E0000001962DE68036920726
:104E0000D1F710927A008FEF809364008091680050
:104E100081608093680080916B00846080936B0058
:104E2000789483B7816083BF88950895823008F0B5
:104E3000789408950F931F930E94D82980E067EC1F
:104E400079E20E94652781E06FEB79E20E94652795
:104E500082E067EB79E20E94652786E06FEC79E2F9
:104E60000E9465270FEA19E283E0B8010E946527D6
:104E700084E0B8010E94652785E0B8010E9465279B
:104E800087E0B8010E94652782E061E00E9431213D
:104E90008FEF8093FF0787E00E94861C82E091E0FD
:104EA0001F910F9108951F93162F0E94861C82E078
:104EB0000E94E920813011F080E005C01EBD0DB4D4
:104EC00007FEFDCF8EB51F910895E82FF0E0EE0F9D
:104ED000FF1FE853FB4F7183608308950E94712781
:104EE00008958091DA049091DB04A091DC04B091E4
:104EF000DD042091DE043091DF044091E004509104
:104F0000E104280F391F4A1F5B1F2093DA043093F6
:104F1000DB044093DC045093DD048091DA0490912B
:104F2000DB04A091DC04B091DD048851964FA040D1
:104F3000B040BCF08BB180588BB98091DA0490916D
:104F4000DB04A091DC04B091DD048851964FA040B1
:104F5000B0408093DA049093DB04A093DC04B09318
:104F6000DD0408958AE00E94E920813041F40E9426
:104F7000F6291092D9048AE060E00E943121089558
:104F800089E00E94E9208130D9F48091D8048823F7
:104F900011F00E94622882E00E94F6298091E604C6
:104FA0009091E704009731F00E9469361092E7046F
:104FB0001092E6041092D80489E060E00E9431214A
:104FC0000895813029F0823029F40E94C027089585
:104FD0000E94B2270895982F8091D804882331F435
:104FE0008091D904882311F4579A5F988091D8044E
:104FF0008823D1F49230C1F4109280001092810085
:10500000809181008860809381008091810081601F
:1050100080938100109285001092840081E080933B
:10502000890080E98093880008958F929F92AF92C3
:10503000BF92CF92DF92EF92FF920F931F93CF9385
:10504000DF934B015C01EA01B9012115310539F10A
:105050009E01442737FD4095542F6536710510F0A9
:1050600064E670E080E090E00E94443524E630E0A1
:1050700040E050E00E94633579018A01C501B40126
:105080000E94DF29C7010E94462260E070E080E0B4
:1050900090E00E94DF29CE018E199F0904C04115BE
:1050A000510519F0CA010E944622DF91CF911F914C
:1050B0000F91FF90EF90DF90CF90BF90AF909F90B7
:1050C0008F900895EFE6F0E080818D7F80830895D2
:1050D000982F81E08093E407913051F0913018F0DF
:1050E000923041F403C01092CC0704C01092CC0758
:1050F0001092CD071092E40708953A9A3B9A3C9A91
:105100003D9A3E9A3F9A88B1837088B90895982F46
:1051100081E08093E407913051F0913018F09230A3
:1051200041F403C06093CE0704C06093CE07609340
:10513000CF071092E40708950F931F93CF93DF9347
:10514000EB018A01813001F1813018F0823061F584
:105150000DC08091B8079091B907892B11F080E0BC
:105160001AC01092C5071092C4071EC08091B807DC
:105170009091B907892B21F080E00E94122A04C087
:105180001092C5071092C4078091BA079091BB078F
:10519000892B31F081E0BE01A8010E94122A04C0CF
:1051A0001092C7071092C607DF91CF911F910F9100
:1051B00008951092E7071092E8071092EC071092FA
:1051C000E9071092EB071092ED071092EE0710928C
:1051D000EF071092F0071092F1071092F207109269
:1051E000F3071092F4071092F5071092F607109249
:1051F000F7071092F8070895CF92DF92EF92FF928F
:105200000F931F93CF93DF93EC0180911E088823A7
:1052100039F4D0932008C0931F080E948A2947C000
:10522000C0901F08D090200800E010E0EE24FF247A
:1052300037C0A881B981FD0164817581F601408183
:105240005181FA01848195819B01281B390B37FF1D
:105250000FC0861B970B95838483DB82CA82012B48
:1052600029F4D0932008C0931F0821C0F7010CC077
:10527000F601828193812115310549F4FD011582E2
:1052800014829B838A83F601D383C28310C0FD01FD
:10529000358324830097B9F30F5F1F4F76016C01AC
:1052A00080911E0890E00817190718F2ECCF809142
:1052B0001E088F5F80931E08DF91CF911F910F9181
:1052C000FF90EF90DF90CF90089588E00E94E92052
:1052D0008823B9F410921E081092200810921F081B
:1052E0001092E8041092E90480E16FE77AE20E94EC
:1052F0009B290E94862A0E94842988E061E00E94FE
:10530000312188E091E00895EEE6F0E0808182604E
:105310008083089581E08093E904089580912108B5
:10532000813029F48091BC0084608093BC00089592
:10533000389839980895803218F020E030E00AC09B
:10534000E82FF0E0EE0FFF1FE857FB4F208131817F
:1053500071836083C9010895249A2C9A089583E586
:105360008CBD81E08DBD8DE08A95F1F7089583E5D0
:105370008CBD1DBC84EF91E00197F1F708958FE794
:105380008CBD1DBC84EF91E00197F1F7089583E592
:105390008CBD81E08DBD8DE08A95F1F7089583E5A0
:1053A0008CBD81E08DBD84EF91E00197F1F7089508
:1053B000259A2698279A209A219A229A08959B0145
:1053C000AC018091D904882381F0DA01C901880FEA
:1053D000991FAA1FBB1F9093E5048093E404211535
:1053E00031054105510509F45F980895823029F48B
:1053F000809181008E7F809381008091D8048130DC
:1054000031F48091D904813011F400000895809125
:10541000D804813021F08091D904813011F45F9853
:1054200057980895EF92FF920F931F93CF93DF93B6
:10543000EB01882321F0813009F05AC02DC09A0178
:1054400040E050E0CA01B9010E9444352091B807FC
:105450003091B907220F331F40E050E00E946335BE
:1054600079018A01A8019701220F331F441F551F9C
:10547000CE01A0E0B0E082179307A407B50728F09B
:10548000F092C507E092C40733C0D695C795D09374
:10549000C507C093C4072CC09A0140E050E0CA0180
:1054A000B9010E9444352091BA073091BB07220F01
:1054B000331F40E050E00E94633579018A01A80162
:1054C0009701220F331F441F551FCE01A0E0B0E00B
:1054D00082179307A407B50728F0F092C707E09258
:1054E000C60706C0D695C795D093C707C093C60711
:1054F000DF91CF911F910F91FF90EF9008950E943F
:105500008F2A0E94CF2A0E94A82A089584B582601B
:1055100084BD85B5846085BD8EE487BD089588E02F
:105520000E94E920882311F484E008958091E90421
:10553000882311F483E008958091E804882311F012
:1055400082E008950E941C2D8130E1F380E00895EF
:105550008091D904813011F58091E2049091E304A7
:105560002091E4043091E504280F391F3093E304BF
:105570002093E2048091E2049091E304885E9340DA
:105580006CF08BB180588BB98091E2049091E30468
:10559000885E93409093E3048093E204089587E04B
:1055A0000E94E920813009F0AAC08091B80790914B
:1055B000B907892B09F18091DC079091DD072091D3
:1055C000B8073091B907820F931F9093DD0780933E
:1055D000DC078091DC079091DD07885E9340A4F0A2
:1055E0008091DC079091DD07885E93409093DD0702
:1055F0008093DC0741E009C08091B0079091B1072A
:105600009093B5078093B40740E08091BA079091DA
:10561000BB07892B09F18091DE079091DF0720916C
:10562000BA073091BB07820F931F9093DF078093D7
:10563000DE078091DE079091DF07885E9340A4F03B
:105640008091DE079091DF07885E93409093DF079B
:105650008093DE0761E009C08091B2079091B307A3
:105660009093B7078093B60760E0842F0E94802B49
:105670008091D8079091D9072091B4073091B50750
:10568000280F391F3093D9072093D8078091D80766
:105690009091D907885E934014F440E00BC080914C
:1056A000D8079091D907885E93409093D90780934B
:1056B000D80741E08091DA079091DB072091B60787
:1056C0003091B707280F391F3093DB072093DA0793
:1056D0008091DA079091DB07885E934014F460E0D4
:1056E0000BC08091DA079091DB07885E934090931E
:1056F000DB078093DA0761E0842F0E94C52B0895B1
:105700008823F1F02091B0073091B1078091B40760
:105710009091B507281B390B1216130634F48091AB
:10572000B4079091B507019607C0232B49F08091EB
:10573000B4079091B50701979093B5078093B4078C
:10574000662311F12091B2073091B3078091B6071B
:105750009091B707281B390B1216130654F4809149
:10576000B6079091B70701969093B7078093B60755
:105770000895232B49F08091B6079091B7070197C0
:105780009093B7078093B60708950F931F93182F30
:10579000062F8091E407882309F0E7C08091CC07A9
:1057A000882309F05AC08091B4079091B507892BDE
:1057B000E9F48091EA04837E8093EA041092D5078D
:1057C0008091E007882309F45DC06091CE0780E0F6
:1057D0000E947620E091E207F091E307309709F408
:1057E00051C081E080831092E0074CC08091AE07E9
:1057F000813041F48091C0079091C107019711F465
:1058000011E002C01123F1F1E091D307F0E0E25082
:10581000FC4F9091EA04937E8081892B8093EA0467
:105820008091D107882321F48091D3078F5F03C033
:105830008091D30781508093D3078091D3078370E1
:105840008093D30781E08093D5078091AE078130A4
:10585000C9F480E00E94C82C15C09091EA04937EA0
:105860009093EA04E091D307F0E0E250FC4F80818E
:10587000892B8093EA0482E08093D5071092B507C4
:105880001092B4078091CD07882309F059C0809108
:10589000B6079091B707892BE9F48091EA048F71DC
:1058A0008093EA041092D6078091E107882309F4D7
:1058B0005CC06091CF0781E00E947620E091E20712
:1058C000F091E307309709F450C081E08183109292
:1058D000E1074BC08091AF07813041F48091C2074E
:1058E0009091C307019711F401E002C00023E9F190
:1058F000E091D407F0E0EE5FFB4F9091EA049F71D6
:105900008081892B8093EA048091D207882321F437
:105910008091D4078F5F03C08091D407815080931A
:10592000D4078091D40783708093D40781E080935B
:10593000D6078091AF078130C1F40E94C82C15C0F2
:105940009091EA049F719093EA04E091D407F0E00B
:10595000EE5FFB4F8081892B8093EA0482E0809385
:10596000D6071092B7071092B6078091D707882301
:1059700031F48AEE94E0612F402F0E948A2D88B185
:1059800083709091EA04892B88B91F910F91089533
:10599000882321F0813009F04EC027C08091C007D4
:1059A0009091C107892B49F08091C0079091C10760
:1059B00001979093C1078093C0078091E0078823E7
:1059C000D1F52091C0073091C1078091C407909113
:1059D000C5072817390779F580E060E070E00E947C
:1059E000AD1F81E08093E00708958091C2079091F8
:1059F000C307892B49F08091C2079091C307019793
:105A00009093C3078093C2078091E107882399F49C
:105A10002091C2073091C3078091C6079091C707B4
:105A20002817390741F481E060E070E00E94AD1F63
:105A300081E08093E1070895FF920F931F93CF9326
:105A4000DF9380911E08882309F459C000911F0834
:105A500010912008F801C081D1818C819D8101972E
:105A60009D838C83181619060CF449C0898180FF28
:105A700005C08E81882311F481E08E83898181FFA6
:105A800003C0EF81F885099580911E088230A8F047
:105A9000F801828193819093200880931F081382DC
:105AA0001282E0910000F091010084819581181626
:105AB00019063CF0FF24F39405C0109220081092C0
:105AC0001F08FF2480911E08815080931E0880913A
:105AD0001E08882311F40E94872D898182FF08C047
