:100000000C9431030C944E030C944E030C944E0349
:100010000C942B240C9454240C947D240C94A6242E
:100020000C944E030C940C230C9435230C945E23F7
:100030000C94D9230C9487230C94B0230C940224A1
:100040000C9491220C94BA220C94E3220C944E034B
:100050000C944E030C944E030C944E030C944E03DC
:100060000C944E030C944E030C944E030C944E03CC
:100070000C944E030C944E030C944E03F61FF91F80
:10008000FC1FFF1F0820022005200B200E2011203E
:10009000142017201A201D2020202320262029206C
:1000A0002C203D204020432046204F2049204C203A
:1000B0005220552058205B205E206120642067205C
:1000C0006A206D207020732007634236B79BD8A743
:1000D0001A39685618AEBAAB558C1D3CB7CC57636D
:1000E000BD6DEDFD753EF6177231BF000000803F1B
:1000F00008000000BE922449123EABAAAA2ABECD37
:10010000CCCC4C3E00000080BEABAAAAAA3E0000A8
:100110000000BF000000803F0000000000084178A0
:10012000D3BB4387D1133D190E3CC3BD4282AD2BD7
:100130003E68EC8276BED98FE1A93E4C80EFFFBECF
:1001400001C4FF7F3F000000000016050100000011
:1001500000000000FA000000E000E00028FE28FE99
:10016000282454FE5448C4C81026466C92AA44A0C1
:1001700000A0C000000038448200008244380028FB
:10018000107C102810107C1010000A0C00001010B9
:10019000101010000606000004081020407C8A920F
:1001A000A27C0042FE020042868A92628482A2D22F
:1001B0008C182848FE08E4A2A2A29C3C5292920C01
:1001C000808E90A0C06C9292926C60929294780013
:1001D0006C6C0000006A6C00001028448200282823
:1001E000282828008244281040808A90604C929EE3
:1001F000827C7E8888887EFE9292926C7C8282824B
:1002000044FE82824438FE92929282FE90909080C8
:100210007C8292925EFE101010FE0082FE8200042C
:100220000282FC80FE10284482FE02020202FE408E
:100230003040FEFE201008FE7C8282827CFE909080
:1002400090607C828A847AFE909894626292929204
:100250008C8080FE8080FC020202FCF8040204F81C
:10026000FC021C02FCC6281028C6E0100E10E08616
:100270008A92A2C200FE82820040201008040082FE
:1002800082FE0020408040200202020202008040E4
:100290002000042A2A2A1EFE1222221C1C222222AC
:1002A000041C222212FE1C2A2A2A18107E9080404A
:1002B000304A4A4A7CFE1020201E0022BE02000462
:1002C0000222BC00FE081422000082FE02003E2032
:1002D00018201E3E1020201E1C2222221C3E2828F0
:1002E0002810102828183E3E10202010122A2A2AF2
:1002F0000420FC2202043C0202043E3804020438BA
:100300003C020C023C2214081422300A0A0A3C2245
:10031000262A322200106C82000000FE00000082BB
:100320006C1000081010081000000000007F818190
:10033000817F7F8383837F7F8787877F7F8F8F8F77
:100340007F7F9F9F9F7F7FBFBFBF7F7FFFFFFF7F1D
:100350002040FF4020621517156500FBFB000000E0
:1003600000000000C0FF0300E0FF0700F0FF0F00E7
:10037000F8FF1F0078001E0078001E0078001E00A5
:1003800078001E0078001E0078001E0078001E0015
:1003900078001E0078001E00000000000000000031
:1003A00080FF0300E0FF0700F0FF0F00F8FF1F00D1
:1003B000F83C1F00783C1E00783C1E00783C1E0074
:1003C000783C1E00783C1E00783C1E00783C1E00E5
:1003D000783C1E00783C1E00783C1E0000000000A7
:1003E00000000000E0FF0300F0FF0700F8FF0F002F
:1003F000F8FF1F00783C1E00783C1E00783C1E0071
:10040000783C1E00783C1E00783C1E00783C1E00A4
:10041000783C1E00783C1E00783C1E000000000066
:1004200000000000F8FF0300F8FF0F00F8FF1F00B6
:10043000F8FF1F0000001E0000001E0000801F00CB
:1004400000F01F0000FF0F00E0FF0700F0FF0000BA
:10045000F80F0000F80000007800000078000000AD
:10046000F8FF1F00F8FF1F00F0FF1F00E0FF1F0054
:100470000000000000000000F8FF1F00F8FF1F0050
:10048000F8FF1F00F8FF1F0078001E00783C1E00D8
:10049000783C1E00783C1E00783C1E00783C1E0014
:1004A000783C1E00F87E1F00F8FF1F00F0FF0F00D1
:1004B000E0E703000000000000003800EEFF6C00E1
:1004C0002A8045003A0047FC03FF6CFC83FF39009B
:1004D000DEFF0B7CD0810BFCD0810BC0D0810BFCEC
:1004E000D0810B7CDEFF0B0082FF397002FF6CF8BD
:1004F0003A0047DC2A8045CCEEFF6CCC0000380087
:100500000000000C00001E0C00001E0000001E0079
:1005100000001E0000001E00F8FF1F00F8FF1F0073
:10052000F8FF1F00F8FF1F0000001E0000001E0063
:1005300000001E0000001E0000005E0000004000E1
:1005400000007C00000040000000400000007C0033
:1005500000003000000010000000300000007C6E41
:10056000616E00696E660000407A10F35A00A07256
:100570004E18090010A5D4E80000E87648170000DE
:10058000E40B54020000CA9A3B000000E1F50500AC
:100590000080969800000040420F000000A08601F5
:1005A000000000102700000000E8030000000064C5
:1005B00000000000000A0000000000010000000030
:1005C000002C76D888DC674F0823DFC1DFAE59E105
:1005D000B1B796E5E3E453C63AE651997696E8E674
:1005E000C28426EB898C9B62ED407C6FFCEFBC9C47
:1005F0009F40F2BAA56FA5F490055A2AF75C936B59
:100600006CF9676DC11BFCE0E40D47FEF520E6B513
:1006100000D0ED902E0300943577050080841E08ED
:100620000000204E0A000000C80C333333330F980B
:100630006E12831141EF8D2114893BE65516CFFED2
:10064000E6DB18D1844B381BF77C1D901DA4BBE45E
:1006500024203284725E228100C9F124ECA1E53DA0
:10066000270011241FBECFEFD8E0DEBFCDBF13E0BF
:10067000A0E0B1E0E0E0FFE602C005900D92AA3DE7
:10068000B107D9F717E0AAEDB3E001C01D92A63972
:10069000B107E1F70E94601A0C947E370C940000B9
:1006A0001F93CF93DF93EC0188E660E00E94F52171
:1006B000182F8823A1F481E00E94CF21182F8823CE
:1006C00071F488E661E00E94F521182F882339F43F
:1006D000CE0160E00E94A321182F811118820E9490
:1006E0003B22812FDF91CF911F9108951F93CF93CC
:1006F000DF93EC0188E660E00E94F521182F882343
:10070000A1F489E00E94CF21182F882371F488E694
:1007100061E00E94F521182F882339F4CE0160E0B2
:100720000E94A321182F811118820E943B22812F41
:10073000DF91CF911F9108951F93CF93DF93EC0129
:1007400088E660E00E94F521182F8823A1F488E054
:100750000E94CF21182F882371F488E661E00E945F
:10076000F521182F882339F4CE0160E00E94A321DF
:10077000182F811118820E943B22812FDF91CF9187
:100780001F9108951F93CF93DF93EC0188E660E0FB
:100790000E94F521182F8823A1F487E00E94CF2121
:1007A000182F882371F488E661E00E94F521182F44
:1007B000882339F4CE0160E00E94A321182F811113
:1007C00018820E943B22812FDF91CF911F910895C3
:1007D0001F93CF93DF93EC0188E660E00E94F52140
:1007E000182F8823A1F486E00E94CF21182F882398
:1007F00071F488E661E00E94F521182F882339F40E
:10080000CE0160E00E94A321182F811118820E945E
:100810003B22812FDF91CF911F9108951F93CF939A
:10082000DF93EC0188E660E00E94F521182F882311
:10083000A1F485E00E94CF21182F882371F488E667
:1008400061E00E94F521182F882339F4CE0160E081
:100850000E94A321182F811118820E943B22812F10
:10086000DF91CF911F9108951F93CF93DF93EC01F8
:1008700088E660E00E94F521182F8823A1F484E027
:100880000E94CF21182F882371F488E661E00E942E
:10089000F521182F882339F4CE0160E00E94A321AE
:1008A000182F811118820E943B22812FDF91CF9156
:1008B0001F9108951F93CF93DF93EC0188E660E0CA
:1008C0000E94F521182F8823A1F483E00E94CF21F4
:1008D000182F882371F488E661E00E94F521182F13
:1008E000882339F4CE0160E00E94A321182F8111E2
:1008F00018820E943B22812FDF91CF911F91089592
:100900001F93CF93DF93EC0188E660E00E94F5210E
:10091000182F8823A1F482E00E94CF21182F88236A
:1009200071F488E661E00E94F521182F882339F4DC
:10093000CE0160E00E94A321182F811118820E942D
:100940003B22812FDF91CF911F9108951F93CF9369
:10095000DF93EC0188E660E00E94F521182F8823E0
:10096000A1F480E00E94CF21182F882371F488E63B
:1009700061E00E94F521182F882339F4CE0160E050
:100980000E94A321182F811118820E943B22812FDF
:10099000DF91CF911F91089581E00E94551A85E063
:1009A0000E941E1A0E94011AA0E0B0E0BC01CD0115
:1009B0000E94222E20E030E040EA50E40E94212DE7
:1009C0009B01AC0160E070E286E395E40E94892D12
:1009D00020E030E040E85FE30E94202D089581E0B0
:1009E0000E94551A87E00E941E1A0E94011AA0E078
:1009F000B0E0BC01CD010E94222E20E030E040EAB0
:100A000050E40E94212D9B01AC0160E070E286E37E
:100A100095E40E94892D20E030E040E85FE30E94E9
:100A2000202D089581E00E94551A83E00E941E1A2D
:100A30000E94011AA0E0B0E0BC01CD010E94222E6C
:100A400020E030E040EA50E40E94212D9B01AC01FF
:100A500060E070E286E395E40E94892D20E030E0BA
:100A600040E85FE30E94202D089581E00E94551A1E
:100A700084E00E941E1A0E94011AA0E0B0E0BC01AE
:100A8000CD010E94222E20E030E040EA50E40E9496
:100A9000212D9B01AC0160E070E286E395E40E94A9
:100AA000892D20E030E040E85FE30E94202D08958A
:100AB00081E00E94551A85E00E941E1A0E94011AC8
:100AC000A0E0B0E0BC01CD010E94222E20E030E089
:100AD00040EA5BE30E94122F089581E00E94551ABC
:100AE00086E00E941E1A0E94011AA0E0B0E0BC013C
:100AF000CD010E94222E20E030E040EA5BE30E941C
:100B0000122F08950F931F9381E08093660480E075
:100B10000E94A720082F81E00E94A720182F82E0C2
:100B20000E94A720113019F422E030E006C020E036
:100B300030E0013011F421E030E0813011F423E0A5
:100B400030E0C9011F910F910895FF920F931F93F9
:100B5000CF93DF930E94691A81E08093660480E05E
:100B60000E94A720182F81E00E94A720082F82E072
:100B70000E94A720F82E113019F0C0E0D0E013C079
:100B800080E091E00E94EB3680E20E94781B84EFC7
:100B900091E00E94442180E40E94631B80E20E9455
:100BA000631BC1E0D0E0013099F48CE091E00E9439
:100BB000EB3680E40E94781B84EF91E00E94442190
:100BC00080E40E94631B80E20E94631BC2E0D0E0CD
:100BD00081E0F816B1F488E191E00E94EB3680E400
:100BE0000E94781B80E20E94781B84EF91E00E94B3
:100BF000442180E40E94631B80E20E94631BC3E0E7
:100C0000D0E00E94691ACE01DF91CF911F910F9120
:100C1000FF9008952F923F924F925F926F927F9232
:100C20008F929F92AF92BF92CF92DF92EF92FF92FC
:100C30000F931F93DF93CF93CDB7DEB764970FB6B3
:100C4000F894DEBF0FBECDBF882339F587ED94E061
:100C50009C8B8B8BA8EFB6E0BE83AD83E0EFF5E015
:100C6000FC83EB838EE595E09A8389830F2EF0E079
:100C70002F2EF0E03F2EF0E04F2EF0E05F2EF02D13
:100C80002F86388A498A5A8A2B863C864D865E860C
:100C90002F82388649865A8643C0A0908006B0903D
:100CA0008106C0908206D0908306E0908406F09082
:100CB000850600918606109187062090DF0430900B
:100CC000E0044090E1045090E2042091E904309166
:100CD000EA044091EB045091EC0480E090E0FC01C8
:100CE000E959FB4FA082B182C282D382FC01E8574E
:100CF000F94FE082F18202831383FC01E058FA4F3E
:100D00002082318242825382FC01E251FB4F2083D8
:100D100031834283538304968837910501F796CF38
:100D2000AB89BC892D913D914D915C911397FD014B
:100D30002483358346835783AD81BE81ED90FD903A
:100D40000D911C911397FD01E482F58206831783B0
:100D5000AB81BC81AD90BD90CD90DC901397FD012F
:100D6000A482B582C682D782A981BA816D907D9016
:100D70008D909C901397FD01648275828682978284
:100D8000C201B1010E94212D1B012C016F857889C0
:100D900089899A89A80197010E94212D6F87788BF4
:100DA000898B9A8B6B857C858D859E85A6019501A7
:100DB0000E94212D6B877C878D879E876F81788528
:100DC00089859A85A40193010E94212D6F837887DC
:100DD00089879A878B899C8904979C8B8B8BAD81A3
:100DE000BE811497BE83AD83EB81FC813497FC8375
:100DF000EB8389819A8104979A838983AB89BC8923
:100E0000AF55B44009F08CCF809180069091810657
:100E1000A0918206B0918306EB89FC898087918737
:100E2000A287B3878091840690918506A09186065B
:100E3000B09187068093880690938906A0938A06CE
:100E4000B0938B068091DF049091E004A091E104BF
:100E5000B091E2048093800590938105A093820570
:100E6000B09383058091E9049091EA04A091EB048A
:100E7000B091EC048093EE049093EF04A093F004FF
:100E8000B093F104C201B10120E030E040EF51E441
:100E90000E94892D6093800670938106809382065C
:100EA000909383066F85788989899A8920E030E05C
:100EB00040EF51E40E94892D60938406709385066B
:100EC00080938606909387066B857C858D859E85AD
:100ED00020E030E040EF51E40E94892D6093DF0470
:100EE0007093E0048093E1049093E2046F8178852D
:100EF00089859A8520E030E040EF51E40E94892DF9
:100F00006093E9047093EA048093EB049093EC04FB
:100F100064960FB6F894DEBF0FBECDBFCF91DF91C0
:100F20001F910F91FF90EF90DF90CF90BF90AF9007
:100F30009F908F907F906F905F904F903F902F90F9
:100F40000895AF92BF92CF92DF92EF92FF920F93EC
:100F50001F937B018C01442361F080E090E0A0E0CE
:100F6000B0E08093E3049093E404A093E504B0938D
:100F7000E604C801B7012091E3043091E4044091F4
:100F8000E5045091E6040E94212D5B016C01609301
:100F9000E3047093E4048093E5049093E604C801AD
:100FA000B70120917C0530917D0540917E055091DF
:100FB0007F050E94202D20E030E040E050E00E94BC
:100FC000122F9B01AC01C801B7010E94212D7B01AA
:100FD0008C01C601B50120E030E040E050E00E9405
:100FE000122F9B01AC01C801B7010E94212D1F9156
:100FF0000F91FF90EF90DF90CF90BF90AF9008954A
:10100000442381F006C0E82FF0E0EC5DFE4F8081C4
:1010100061506623C1F70895E82FF0E0EC5CFE4FC5
:10102000808161506623C1F708952F923F924F92BD
:101030005F926F927F928F929F92AF92BF92CF9268
:10104000DF92EF92FF920F931F93DF93CF93CDB771
:10105000DEB7A0970FB6F894DEBF0FBECDBF2B0151
:101060003C012D833E834F835887E986FA860B87A0
:101070001C87AD86BE86CF86D88A282C3324CA0129
:10108000B90120E030E040E050E00E94D42E181674
:1010900014F4332433946D817E818F8198852CEDF7
:1010A00038EB48E05EE30E94892D0E94F12D9B0100
:1010B00077FF03C0309521953F4FB901882777FD11
:1010C0008095982F0E94242E69837A838B839C833A
:1010D00069857A858B859C852CED38EB48E05EE34D
:1010E0000E94892D0E94F12D9B0177FF03C030954E
:1010F00021953F4FB901882777FD8095982F0E9451
:10110000242E4B015C016D857E858F8598892CEDA1
:1011100038EB48E05EE30E94892D0E94F12D9B018F
:1011200077FF03C0309521953F4FB901882777FDA0
:101130008095982F0E94242E6B017C01C301B2017F
:1011400020E030E040E05FE40E94852D8823A1F597
:1011500069817A818B819C810E94F62D2B013C0153
:10116000C501B4010E94F62D4B015C01C701B60117
:101170000E94F62D6B017C012DB73EB729503040FF
:101180000FB6F8943EBF0FBE2DBFEDB7FEB7319638
:10119000ADB7BEB712965C924E921197938282823F
:1011A0007583648326821086178281E062E0432D76
:1011B000920184017601C1C1C301B20120E030E097
:1011C00040E050E00E94852D8823E9F569817A810D
:1011D0008B819C810E94F62D3B01C501B4010E94C8
:1011E000F62D8B01C701B6010E94F62D7B012DB7AC
:1011F0003EB7295030400FB6F8943EBF0FBE2DBF0A
:10120000EDB7FEB7319640E0332009F441E071823A
:10121000608213830283F582E4822682108617821D
:1012200081E062E09301C22CAA24BB24832C0E949B
:101230004A1D81E0ADB7BEB719960FB6F894BEBF90
:101240000FBEADBF89C1C301B20120E030E040E074
:1012500050E00E94D42E18160CF0B1C066E676E677
:101260008AEA91ECA30192010E94892D20E030E0EE
:1012700040E85FE30E94212D7B018C0166E676E663
:101280008AEA91E4A30192010E94892D20E030E0D6
:1012900040E85FE30E94212D5B016C01EDB7FEB7D2
:1012A00039970FB6F894FEBF0FBEEDBF8DB69EB650
:1012B0000894811C911C6D817E818F819885A80185
:1012C00097010E94122F2CED38EB48E05EE30E945C
:1012D000892D0E94F62D698B7A8B8B8B9C8B69856F
:1012E0007A858B859C85A80197010E94122F2CED91
:1012F00038EB48E05EE30E94892D0E94F62D6D8B4D
:101300007E8B8F8B988F6D857E858F859889A801C0
:1013100097010E94122F2CED38EB48E05EE30E940B
:10132000892D0E94F62D2B013C016D817E818F81DC
:101330009885A60195010E94122F2CED38EB48E00C
:101340005EE30E94892D0E94F62DD4016D937C935B
:1013500069857A858B859C85A60195010E94122F4F
:101360002CED38EB48E05EE30E94892D0E94F62DBB
:10137000F401738362836D857E858F859889A601CC
:1013800095010E94122F2CED38EB48E05EE30E949D
:10139000892D0E94F62DD40115967C936E93149797
:1013A00016962C92169718961C921E92179781E00B
:1013B00062E0432D29893A890D891E89BDC0C30188
:1013C000B20120E030E040E050E00E94852D87FD32
:1013D00002C080E0C1C066E676E68AEA91E4A30135
:1013E00092010E94892D20E030E040E85FE30E94F6
:1013F000212D7B018C0166E676E68AEA91ECA30159
:1014000092010E94892D20E030E040E85FE30E94D5
:10141000212D5B016C012DB73EB7295030400FB62E
:10142000F8943EBF0FBE2DBF8DB69EB60894811CAA
:10143000911C6D817E818F819885A80197010E9402
:10144000122F2CED38EB48E05EE30E94892D0E94BC
:10145000F62D698F7A8F8B8F9C8F69857A858B8526
:101460009C85A80197010E94122F2CED38EB48E0D3
:101470005EE30E94892D0E94F62D6D8F7E8F8F8FE7
:1014800098A36D857E858F859889A80197010E9414
:10149000122F2CED38EB48E05EE30E94892D0E946C
:1014A000F62D2B013C016D817E818F819885A601EF
:1014B00095010E94122F2CED38EB48E05EE30E946C
:1014C000892D0E94F62DD4016D937C9369857A85D0
:1014D0008B859C85A60195010E94122F2CED38EB7F
:1014E00048E05EE30E94892D0E94F62DF40173838B
:1014F00062836D857E858F859889A60195010E94FE
:10150000122F2CED38EB48E05EE30E94892D0E94FB
:10151000F62DD40115967C936E93149716962C9203
:10152000169718961C921E92179781E062E0432D41
:10153000298D3A8D0D8D1E8D7201C22CAA24BB24DB
:10154000832C0E944A1D81E0EDB7FEB739960FB695
:10155000F894FEBF0FBEEDBFA0960FB6F894DEBFA5
:101560000FBECDBFCF91DF911F910F91FF90EF90F4
:10157000DF90CF90BF90AF909F908F907F906F90B3
:101580005F904F903F902F9008952F923F924F92EF
:101590005F926F927F928F929F92AF92BF92CF9203
:1015A000DF92EF92FF920F931F93DF93CF93CDB70C
:1015B000DEB7A0970FB6F894DEBF0FBECDBF2B01EC
:1015C0003C012D833E834F835887E986FA860B873B
:1015D0001C87AD86BE86CF86D88A282C3324CA01C4
:1015E000B90120E030E040E050E00E94D42E18160F
:1015F00014F4332433946D817E818F8198852CED92
:1016000038EB48E05EE30E94892D0E94F12D9B019A
:1016100077FF03C0309521953F4FB901882777FDAB
:101620008095982F0E94242E69837A838B839C83D4
:1016300069857A858B859C852CED38EB48E05EE3E7
:101640000E94892D0E94F12D9B0177FF03C03095E8
:1016500021953F4FB901882777FD8095982F0E94EB
:10166000242E4B015C016D857E858F8598892CED3C
:1016700038EB48E05EE30E94892D0E94F12D9B012A
:1016800077FF03C0309521953F4FB901882777FD3B
:101690008095982F0E94242E6B017C01C301B2011A
:1016A00020E030E040E05FE40E94852D8823A1F532
:1016B00069817A818B819C810E94F62D2B013C01EE
:1016C000C501B4010E94F62D4B015C01C701B601B2
:1016D0000E94F62D6B017C012DB73EB7295030409A
:1016E0000FB6F8943EBF0FBE2DBFEDB7FEB73196D3
:1016F000ADB7BEB712965C924E92119793828282DA
:101700007583648326821086178280E062E0432D11
:10171000920184017601C1C1C301B20120E030E031
:1017200040E050E00E94852D8823E9F569817A81A7
:101730008B819C810E94F62D3B01C501B4010E9462
:10174000F62D8B01C701B6010E94F62D7B012DB746
:101750003EB7295030400FB6F8943EBF0FBE2DBFA4
:10176000EDB7FEB7319640E0332009F441E07182D5
:10177000608213830283F582E482268210861782B8
:1017800080E062E09301C22CAA24BB24832C0E9437
:101790004A1D81E0ADB7BEB719960FB6F894BEBF2B
:1017A0000FBEADBF89C1C301B20120E030E040E00F
:1017B00050E00E94D42E18160CF0B1C066E676E612
:1017C0008AEA91ECA30192010E94892D20E030E089
:1017D00040E85FE30E94212D7B018C0166E676E6FE
:1017E0008AEA91E4A30192010E94892D20E030E071
:1017F00040E85FE30E94212D5B016C01EDB7FEB76D
:1018000039970FB6F894FEBF0FBEEDBF8DB69EB6EA
:101810000894811C911C6D817E818F819885A8011F
:1018200097010E94122F2CED38EB48E05EE30E94F6
:10183000892D0E94F62D698B7A8B8B8B9C8B698509
:101840007A858B859C85A80197010E94122F2CED2B
:1018500038EB48E05EE30E94892D0E94F62D6D8BE7
:101860007E8B8F8B988F6D857E858F859889A8015B
:1018700097010E94122F2CED38EB48E05EE30E94A6
:10188000892D0E94F62D2B013C016D817E818F8177
:101890009885A60195010E94122F2CED38EB48E0A7
:1018A0005EE30E94892D0E94F62DD4016D937C93F6
:1018B00069857A858B859C85A60195010E94122FEA
:1018C0002CED38EB48E05EE30E94892D0E94F62D56
:1018D000F401738362836D857E858F859889A60167
:1018E00095010E94122F2CED38EB48E05EE30E9438
:1018F000892D0E94F62DD40115967C936E93149732
:1019000016962C92169718961C921E92179780E0A6
:1019100062E0432D29893A890D891E89BDC0C30122
:10192000B20120E030E040E050E00E94852D87FDCC
:1019300002C080E0C1C066E676E68AEA91E4A301CF
:1019400092010E94892D20E030E040E85FE30E9490
:10195000212D7B018C0166E676E68AEA91ECA301F3
:1019600092010E94892D20E030E040E85FE30E9470
:10197000212D5B016C012DB73EB7295030400FB6C9
:10198000F8943EBF0FBE2DBF8DB69EB60894811C45
:10199000911C6D817E818F819885A80197010E949D
:1019A000122F2CED38EB48E05EE30E94892D0E9457
:1019B000F62D698F7A8F8B8F9C8F69857A858B85C1
:1019C0009C85A80197010E94122F2CED38EB48E06E
:1019D0005EE30E94892D0E94F62D6D8F7E8F8F8F82
:1019E00098A36D857E858F859889A80197010E94AF
:1019F000122F2CED38EB48E05EE30E94892D0E9407
:101A0000F62D2B013C016D817E818F819885A60189
:101A100095010E94122F2CED38EB48E05EE30E9406
:101A2000892D0E94F62DD4016D937C9369857A856A
:101A30008B859C85A60195010E94122F2CED38EB19
:101A400048E05EE30E94892D0E94F62DF401738325
:101A500062836D857E858F859889A60195010E9498
:101A6000122F2CED38EB48E05EE30E94892D0E9496
:101A7000F62DD40115967C936E93149716962C929E
:101A8000169718961C921E92179780E062E0432DDD
:101A9000298D3A8D0D8D1E8D7201C22CAA24BB2476
:101AA000832C0E944A1D81E0EDB7FEB739960FB630
:101AB000F894FEBF0FBEEDBFA0960FB6F894DEBF40
:101AC0000FBECDBFCF91DF911F910F91FF90EF908F
:101AD000DF90CF90BF90AF909F908F907F906F904E
:101AE0005F904F903F902F9008958F92AF92BF924A
:101AF000CF92EF92FF920F931F93609366057093BE
:101B0000670580936805909369050E94F62D8B0107
:101B10009C018DB79EB709970FB6F8949EBF0FBE74
:101B20008DBFEDB7FEB73196ADB7BEB712961C9319
:101B30000E93119788EC90E09383828382EC91E07E
:101B40009583848316821086178281E062E041E0EB
:101B5000980108EC10E092ECE92E91E0F92ECC24EB
:101B6000AA24BB24882483940E944A1D8DB79EB763
:101B700009960FB6F8949EBF0FBE8DBF1F910F91AF
:101B8000FF90EF90CF90BF90AF908F9008950E94FC
:101B90007620282F217020937E0690E0827090702E
:101BA0009595879580937F0608950E9458056093C8
:101BB00076057093770580937805909379050E9458
:101BC0006D0560930C0770930D0780930E0790933B
:101BD0000F0708950E94EF046093DF047093E00400
:101BE0008093E1049093E2040E94CC046093E904A2
:101BF0007093EA048093EB049093EC040E94350503
:101C0000609380067093810680938206909383068A
:101C10000E94120560938406709385068093860661
:101C2000909387060895CF92DF92EF92FF920F93E1
:101C30001F93CF93DF93162FE42E5FE1F52EF8224A
:101C40001F770F2D069506950695C02FD0E0C12E63
:101C5000DD24CE01B6010E942F1B802F612F0E9430
:101C6000281BFE0145E0EE0FFF1F4A95E1F72F2DDF
:101C700030E0EE2089F0EC0DFD1DE850FA4F2770A2
:101C8000307081E090E002C0880F991F2A95E2F73A
:101C90002081282B208311C0EC0DFD1DE850FA4F48
:101CA0002770307081E090E002C0880F991F2A955C
:101CB000E2F7809520818223808335E0CC0FDD1F01
:101CC0003A95E1F7CC0DDD1DC850DA4F888161E00F
:101CD0000E94481BDF91CF911F910F91FF90EF90D1
:101CE000DF90CF9008957F928F929F92AF92BF9294
:101CF000CF92DF92EF92FF920F931F93982EB62E02
:101D0000C42EA22E802E7E2CBB0CBB0CBB0CDD2463
:101D100023E0CC0CDD1C2A95E1F71C2D0FE10B19FB
:101D2000802F6C2D41E00E94130E98E1E92EEB18F4
:101D30008E2D6C2D41E00E94130E87E0F82EFC0CD6
:101D4000802F6F2D41E00E94130E8E2D6F2D41E0EC
:101D50000E94130EC92C93FE24C0612F6F5F802F49
:101D600041E00E94130E612F6E5F802F41E00E94C0
:101D7000130E612F6D5F802F41E00E94130E612FC3
:101D80006C5F802F41E00E94130E612F6B5F802FEC
:101D900041E00E94130E612F6A5F802F41E00E9494
:101DA000130EC2FE25C08B2D8095815E6F2D41E004
:101DB0000E94130E8DE18B196F2D41E00E94130ECE
:101DC0008CE18B196F2D41E00E94130E8BE18B1972
:101DD0006F2D41E00E94130E8AE18B196F2D41E0B7
:101DE0000E94130E89E18B196F2D41E00E94130EA2
:101DF000C1FE24C0612F6F5F8E2D41E00E94130E43
:101E0000612F6E5F8E2D41E00E94130E612F6D5F7A
:101E10008E2D41E00E94130E612F6C5F8E2D41E0EC
:101E20000E94130E612F6B5F8E2D41E00E94130EF6
:101E3000612F6A5F8E2D41E00E94130EC0FE25C007
:101E40008B2D8095815E612F41E00E94130E8DE104
:101E50008B19612F41E00E94130E8CE18B19612FC9
:101E600041E00E94130E8BE18B19612F41E00E942B
:101E7000130E8AE18B19612F41E00E94130E89E154
:101E80008B19612F41E00E94130EAA20E1F1BCE101
:101E9000EB2EEB18A3E0CA2EC10E8E2D6C2D4A2D11
:101EA0000E94130EFBE1FF2EFB188F2D6C2D4A2D87
:101EB0000E94130E012F0C5F8E2D602F4A2D0E9461
:101EC000130E8F2D602F4A2D0E94130E81E088166D
:101ED00071F0881640F082E0881661F083E0881681
:101EE00009F04AC00BC08DE18B196C2D0AC01B5F35
:101EF0008E2D06C08AE18B19602F03C01E5F8F2DC7
:101F0000612F4A2D37C07720B9F1ECE1CE2ECB18E6
:101F100073E0E72EE10E8C2D6E2D40E00E94130E33
:101F20000BE10B19802F6E2D40E00E94130E64E030
:101F3000F62EF10E8C2D6F2D40E00E94130E802F97
:101F40006F2D40E00E94130E8DE18B196E2D40E045
:101F50000E94130E1B5F8C2D612F40E00E94130E18
:101F60008AE18B196F2D40E00E94130E1350802FD1
:101F7000612F40E00E94130E1F910F91FF90EF9090
:101F8000DF90CF90BF90AF909F908F907F900895FB
:101F90009F92AF92BF92CF92DF92EF92FF920F93F8
:101FA0001F93CF93DF93982E80917C06A82EA69442
:101FB000A69443E0B42EB822CC24DD241EC0888130
:101FC000FA1419F020E030E006C020E030E01B15E4
:101FD00011F421E030E06F2D412F00917B05E92CB9
:101FE0000E94730E1F5F2196143049F70894C11C9C
:101FF000D11C84E0C816D10451F0FC2CE601CC0FB2
:10200000DD1FCC0FDD1FC159DC4F10E0D8CFDF91B1
:10201000CF911F910F91FF90EF90DF90CF90BF90E5
:10202000AF909F900895882391F080E090E0A0E029
:10203000B0E08093660590936705A0936805B09320
:10204000690582E060E070E00E94CD1E17C00E942A
:10205000821C609378067093790680937A06909339
:102060007B0640E080917A0690917B06209178066D
:1020700030917906820F931F892B09F441E0842F58
:1020800008955F926F927F928F929F92AF92BF92CC
:10209000CF92DF92EF92FF920F931F93CF93DF9334
:1020A000E090DF04F090E0040091E1041091E2047C
:1020B0005524C801B70120E030E040E050E00E9424
:1020C000852D882314F455245394A0908406B09051
:1020D0008506C0908606D090870660908006709036
:1020E00081068090820690908306552041F560918C
:1020F000E9047091EA048091EB049091EC0420E0F3
:1021000030E040E751E40E94852D87FD18C0C601EC
:10211000B50120E030E040E751E40E94852D87FDC5
:102120000EC0C401B30120E030E040E751E40E945A
:10213000852D87FD04C082E068EC70E0C9C0C6014F
:10214000B50120E030E040E751E40E94D42E18169B
:1021500064F480E090E0A0E4B0EC80938406909377
:102160008506A0938606B0938706C401B30120E0DC
:1021700030E040E751E40E94D42E181614F080E0BD
:102180000DC080E090E0A0E4B0EC809380069093D6
:102190008106A0938206B093830681E0552021F149
:1021A000882329F060E070E08AE794E404C060E0EE
:1021B00070E08AE794ECA80197010E94892D209194
:1021C00080063091810640918206509183060E94DC
:1021D000212D9B01AC016091840670918506809150
:1021E00086069091870610C06091840670918506DE
:1021F0008091860690918706209180063091810615
:1022000040918206509183060E94202D905840E014
:102210000E94A1077B018C010E94F12DEB0177FF49
:1022200003C0D095C195DF4FC536D105FCF0C8017C
:10223000B70120E030E040E050E00E94852D882387
:10224000A9F0BE01882777FD8095982F0E94242E43
:102250009B01AC01C801B7010E94892D20E030E04C
:1022600048EC52E40E94122F7B018C01C801B70197
:1022700020E030E048EC52E40E94892D7B018C0183
:1022800020E030E048EC52E40E94122F20E030E0E1
:1022900048EC52E40E94212D0E94F62D9B01AC01D6
:1022A00080E0B9010E94AB1EC801B70120E030E018
:1022B00048EC52EC0E94122F20E030E048EC52E44F
:1022C0000E94212D0E94F62D9B01AC0181E0B901F5
:1022D0000E94AB1E80E00E941310DF91CF911F91EE
:1022E0000F91FF90EF90DF90CF90BF90AF909F90B5
:1022F0008F907F906F905F90089563EC75E38BEA09
:1023000093E40E94750D0E94EA0D0E9441108823FB
:10231000D1F308950E94F52090936604809365049C
:102320000E946F1B90936404809363040E94861A3A
:1023300090936204809361040E94F11D82E00E94E8
:10234000751C0E946F1B0E944F220E94F31981E0AE
:102350000E94551A0E94EA0D81E00E940A068FEE43
:1023600090E0A5E8B1E48093660590936705A0939B
:102370006805B093690520E030E00AC0119201962B
:1023800080329105D9F72F5F3F4F2430310559F046
:10239000F90155E0EE0FFF1F5A95E1F7E850FA4FAB
:1023A00080E090E0EBCF0895EF92FF920F931F93A0
:1023B0006091DF047091E0048091E1049091E20467
:1023C00020E030E040E551E40E94852DF82EFF1C0E
:1023D000FF24FF1CFF0CFF0CFF0C60918006709126
:1023E0008106809182069091830620E030E040EFE4
:1023F00051E40E94852D082F001F0027001F000FA9
:10240000000F6091E9047091EA048091EB049091CF
:10241000EC0420E030E04CE052E40E94852D182FBF
:10242000111F1127111F110FEE2460918406709166
:102430008506809186069091870620E030E040EF87
:1024400051E40E94852D882314F4EE24E3948F2D0B
:102450008E0D800F810F8093E7042091E804E22F16
:10246000F0E0E050F94F91819093ED04891719F451
:102470002F5F2093E8041F910F91FF90EF90089534
:102480002F923F924F925F926F927F928F929F9284
:10249000AF92BF92CF92DF92EF92FF920F931F9372
:1024A000E090DF04F090E0040091E1041091E20478
:1024B0003324C801B70120E030E040E050E00E9442
:1024C000852D882314F433243394A0908406B0908F
:1024D0008506C0908606D090870640908006509072
:1024E0008106609082067090830688246091E904DA
:1024F0007091EA048091EB049091EC0420E030E0CC
:1025000040E751E40E94852D882314F488248394A5
:10251000932C98288824C601B50120E030E040E7DC
:1025200051E40E94852D882314F4882483949828EC
:102530008824C301B20120E030E040E751E40E946A
:10254000852D882314F488248394292C282881F449
:1025500060E070E080E09FE420E030E040E251E4A1
:1025600079018A0159016A0188240E941508F7C07F
:10257000C601B50120E030E040E751E40E94D42ECE
:10258000181664F480E090E0A0E4B0EC8093840638
:1025900090938506A0938606B0938706C301B20187
:1025A00020E030E040E751E40E94D42E181614F0E9
:1025B00080E00DC080E090E0A0E4B0EC8093800665
:1025C00090938106A0938206B093830681E0332026
:1025D00021F1882329F060E070E08AE794E404C0E8
:1025E00060E070E08AE794ECA80197010E94892DD1
:1025F0002091800630918106409182065091830699
:102600000E94212D9B01AC0160918406709185068A
:10261000809186069091870610C060918406709123
:1026200085068091860690918706209180063091DC
:10263000810640918206509183060E94202D905879
:1026400040E00E94A1076B017C010E94F12D8B01EB
:1026500077FF03C0109501951F4F05361105FCF05B
:10266000C701B60120E030E040E050E00E94852D37
:102670008823A9F0B801882777FD8095982F0E94BC
:10268000242E9B01AC01C701B6010E94892D20E0D8
:1026900030E048EC52E40E94122F6B017C01C7012C
:1026A000B60120E030E048EC52E40E94892D6B0135
:1026B0007C018DB79EB709970FB6F8949EBF0FBEE9
:1026C0008DBF0DB71EB70F5F1F4FC701B60120E0CA
:1026D00030E048EC52E40E94122F20E030E048EC59
:1026E00052E40E94212D0E94F62D4B015C0182E3F1
:1026F00090E0F80191838083C701B60120E030E0CB
:1027000048EC52EC0E94122F20E030E048EC52E4FA
:102710000E94212D0E94F62DF8017383628382ECC2
:1027200091E09583848316821086178281E062E0AF
:1027300041E022E330E0840192ECE92E91E0F92EB1
:10274000CC24AA24BB24882483940E944A1D8DB7DC
:102750009EB709960FB6F8949EBF0FBE8DBF822D0F
:102760001F910F91FF90EF90DF90CF90BF90AF90AF
:102770009F908F907F906F905F904F903F902F90A1
:102780000895FF920F931F93142F082F0695069517
:1027900023E0F22EF822623031F06330A9F061308C
:1027A000B1F4115012C0413049F0413028F04230AC
:1027B00039F04330B9F406C0015014C0F39412C08C
:1027C0000F5F10C0FA940EC01F5F13700BC000D0D3
:1027D00084E491E0EDB7FEB7928381830E94D936FD
:1027E0000F900F9010937B05000F000F802F8F0D1F
:1027F0001F910F91FF9008958091E70480FD02C022
:1028000081E005C083FD02C082E001C083E08093C7
:10281000100780911107813029F0813038F0843021
:1028200028F40FC082E0809310070BC000D08DE425
:1028300091E0EDB7FEB7928381830E94D9360F9065
:102840000F90809110078093110708958091E903FC
:10285000853080F0EAEDF3E0818180838681858395
:1028600083858287319683E0EF3DF807A9F784E0FE
:102870008093E9030E94FC13E091E903F0E0E65243
:10288000FC4F8091E704808390911007958380919D
:102890007B058287913019F0933041F402C081505A
:1028A00001C08F5F837080937B050BC000D086E5ED
:1028B00091E0EDB7FEB7928381830E94D9360F90E5
:1028C0000F908091E9038F5F8093E90308958F92C1
:1028D000AF92BF92CF92DF92EF92FF920F931F932E
:1028E0000E94691AE091E804F0E0E659FA4FE081AD
:1028F000E093100780E0E13009F481E090E0E330FC
:1029000009F491E0892B282F30E040E050E08091DD
:102910001107823011F441E050E024233523232BAA
:10292000B9F060E070E080E09FE428E431EE46EB2F
:1029300051E40F2EF0E0EF2EF0E0FF2EF0E20F2F2B
:10294000F1E41F2FF02D5701680188240E94C50A69
:102950002091110780E0213009F481E090E02330DC
:1029600009F491E0892B282F30E040E050E080917D
:102970001007823011F441E050E024233523232B4B
:10298000B9F060E070E080E09FE425E33FEE40EACC
:1029900051E40F2EF0E0EF2EF0E0FF2EF0E20F2FCB
:1029A000F1E41F2FF02D5701680188240E94C50A09
:1029B000809110078230C1F1833009F461C0813009
:1029C00009F09FC08DB79EB708970FB6F8949EBFC9
:1029D0000FBE8DBFEDB7FEB731968FE591E0ADB775
:1029E000BEB712969C938E9311978091E8048283D0
:1029F00013828091E704848315828091ED0486839D
:102A000017820E94D936EDB7FEB738960FB6F89404
:102A1000FEBF0FBEEDBF60E070E080E090E020E020
:102A200030E04CE851EC5DC08DB79EB708970FB60B
:102A3000F8949EBF0FBE8DBFEDB7FEB731968AE802
:102A400091E0ADB7BEB712969C938E93119780918B
:102A5000E804828313828091E70484831582809145
:102A6000ED04868317820E94D936EDB7FEB73896FB
:102A70000FB6F894FEBF0FBEEDBF0E94401253C0C8
:102A80008DB79EB708970FB6F8949EBF0FBE8DBF47
:102A9000EDB7FEB7319688EB91E0ADB7BEB71296B1
:102AA0009C938E9311978091E80482831382809186
:102AB000E704848315828091ED04868317820E9447
:102AC000D936EDB7FEB738960FB6F894FEBF0FBEF5
:102AD000EDBF60E070E080E090E020E030E04CE8A6
:102AE00051E40F2EF0E0EF2EF0E0FF2EF0E20F2F7A
:102AF000F1E41F2FF02D5701680188240E94C50AB8
:102B000012C000D084EE91E0ADB7BEB712969C9390
:102B10008E9311970E94D9360F900F9082E060E05B
:102B20000E94741FFFCF809110078093110781E0EE
:102B30001F910F91FF90EF90DF90CF90BF90AF90DB
:102B40008F900895FF920F931F93CF93DF93FF24ED
:102B5000F39410E0CDEED1E00E948205082F813081
:102B600021F0823011F0833039F4E12FF0E0E659A2
:102B7000FA4F00831F5F02C0882321F10E94691A67
:102B80008DB79EB708970FB6F8949EBF0FBE8DBF46
:102B9000EDB7FEB73196ADB7BEB71296DC93CE93C4
:102BA0001197F282138204831582168317820E9482
:102BB000D936F02E8DB79EB708960FB6F8949EBF03
:102BC0000FBE8DBF84EF91E00E9444211B3020F2A4
:102BD0001F5FE12FF0E0E659FA4F84E08083DF9138
:102BE000CF911F910F91FF9008951F93CF93DF9383
:102BF00010E0CEE1D2E00E948205813021F4809184
:102C00007C06880F06C0823039F480917C06880FDC
:102C10008F5F80937C061F5F0E94691A00D000D0EE
:102C200000D0EDB7FEB73196ADB7BEB71296DC93C4
:102C3000CE93119780917C06828313821483158230
:102C40000E94D9368DB79EB706960FB6F8949EBFF0
:102C50000FBE8DBF84EF91E00E944421143058F2E2
:102C600080917C0680937D06DF91CF911F9108951E
:102C70001F93CF93DF9310E0C6E4D2E00E94820559
:102C8000813021F480917B05880F06C0823041F4A9
:102C900080917B05880F8F5F80937B051F5F02C04B
:102CA0008823F1F00E94691A00D000D000D0EDB75F
:102CB000FEB73196ADB7BEB71296DC93CE9311979F
:102CC00080917B0582831382148315820E94D936FA
:102CD0008DB79EB706960FB6F8949EBF0FBE8DBFF8
:102CE00084EF91E00E944421123040F20E94691A60
:102CF00080917B05813051F0813028F0823049F09D
:102D0000833071F409C085E792E008C087E992E05A
:102D100005C088EB92E002C08AED92E00E94EB369B
:102D200080917B0580937A0584EF91E00E94442195
:102D3000DF91CF911F910895CF92DF92EF92FF9292
:102D40000F931F93DF93CF930F92CDB7DEB7809190
:102D50007C06F82EF694F694982F937000917B05DC
:102D6000CC24DD24F601E659FA4F1081EF2DF0E076
:102D7000EE0FFF1FEE0FFF1FE90FF11DE159FC4F92
:102D80008081602F41E099830E940008F601E050A5
:102D9000F94F80839981123089F4013049F0013074
:102DA00028F0023039F0033089F406C0FA940EC0DE
:102DB0009F5F0CC0F3940AC0915008C0133011F407
:102DC0000F5F03C0113011F4015003700894C11C4F
:102DD000D11C8DE0C816D10429F6CC24DD249BEF4C
:102DE000E92E92E0F92EF601E050F94F00810E94A1
:102DF000691A202F30E0ADB7BEB754970FB6F894DC
:102E0000BEBF0FBEADBFEDB7FEB731961296FC92B6
:102E1000EE921197D382C282112707FD10950027E9
:102E2000110F001F112715830483C901B6E0969581
:102E30008795BA95E1F78170907097838683C90171
:102E4000A5E096958795AA95E1F781709070918796
:102E50008087C90174E0969587957A95E1F781702E
:102E6000907093878287C90163E0969587956A95EC
:102E7000E1F78170907095878487C9019695879551
:102E8000969587958170907097878687C9019695EA
:102E9000879581709070918B808B21703070338B0F
:102EA000228B0E94D936EDB7FEB774960FB6F89410
:102EB000FEBF0FBEEDBF88EE93E00E944421089450
:102EC000C11CD11CFDE0CF16D10409F08CCF0F90AE
:102ED000CF91DF911F910F91FF90EF90DF90CF90F6
:102EE00008951F9310917C068091E70460917B0503
:102EF00040E00E940008E12FE695E695F0E0EE0F35
:102F0000FF1FEE0FFF1F1370E10FF11DE159FC4F82
:102F100080831F910895DF92EF92FF920F931F938A
:102F2000062F142FFF242EC0053090F5153080F5A4
:102F3000EF2DF0E0E652FC4FD580E28480816E2DCB
:102F400040E00E940008E02FF0E0EE0FFF1FEE0FC0
:102F5000FF1FE10FF11DE159FC4F90818917C1F46A
:102F6000802F880F880F810F80937C066D2D4E2D4A
:102F70000E94C11380937C06082F06950695182F92
:102F80001370F3948091E903F81670F281E001C0A8
:102F900080E01F910F91FF90EF90DF900895DF92F6
:102FA000EF92FF920F931F93CF93DF93D090DA03AA
:102FB0001092120700E010E01AC08881D81669F458
:102FC0008FE693E06E2D4F2D0E948B17882329F0FA
:102FD000809112078F5F80931207F394219684E00B
:102FE000F81659F70F5F1F4F0430110551F0E02E0E
:102FF000E801CC0FDD1FCC0FDD1FC159DC4FFF24D2
:10300000DCCF90E080911207813009F091E0892FA8
:10301000DF91CF911F910F91FF90EF90DF90089576
:103020008F92AF92BF92CF92DF92EF92FF920F9367
:103030001F9380911007823069F0833071F08130E6
:1030400021F560E070E080E090E020E030E04CE8C6
:1030500051EC0BC00E947D1123C060E070E080E065
:1030600090E020E030E04CE851E40F2EF0E0EF2E4D
:10307000F0E0FF2EF0E20F2FF1E41F2FF02D5701AB
:10308000680188240E94C50A0BC000D086E591E043
:10309000EDB7FEB7928381830E94D9360F900F90CF
:1030A0001F910F91FF90EF90DF90CF90BF90AF9066
:1030B0008F9008958F929F92AF92BF92CF92DF929E
:1030C000EF92FF920F931F93CF93DF930E948A1189
:1030D0000E94691A8DE193E00E94EB3681E00E9424
:1030E000C80F80ED97E00E9444210E94691AFEE219
:1030F0008F2EF3E09F2EC5E3D3E0E9E3AE2EE3E0AD
:10310000BE2E70E4C72E73E0D72E67E4E62E63E090
:10311000F62E03E513E035C10E94EA0D0E94D4119A
:103120000E9426140E94CF1780936E030E94691A92
:1031300000D0ADB7BEB712969C928E9211970E94A6
:10314000D93600D0EDB7FEB73196ADB7BEB71296FF
:10315000DC93CE9311978091DA03828313820E94CD
:10316000D936EDB7FEB73196ADB7BEB71296DC9340
:10317000CE9311978091DB03828313820E94D9360C
:10318000EDB7FEB73196ADB7BEB71296DC93CE93CE
:1031900011978091DC03828313820E94D936EDB7A8
:1031A000FEB73196ADB7BEB71296DC93CE931197AA
:1031B0008091DD03828313820E94D936EDB7FEB77A
:1031C0003196ADB7BEB71296DC93CE93119780912E
:1031D000DE03828313820E94D9360F900F90EDB7E1
:1031E000FEB7B282A1820E94D93600D0EDB7FEB7F9
:1031F0003196ADB7BEB71296DC93CE9311978091FE
:10320000DF03828313820E94D936EDB7FEB7319671
:10321000ADB7BEB71296DC93CE9311978091E003C1
:10322000828313820E94D936EDB7FEB73196ADB7CF
:10323000BEB71296DC93CE9311978091E1038283FF
:1032400013820E94D936EDB7FEB73196ADB7BEB73F
:103250001296DC93CE9311978091E20382831382BE
:103260000E94D936EDB7FEB73196ADB7BEB712960C
:10327000DC93CE9311978091E303828313820E94A3
:10328000D9360F900F90EDB7FEB7D282C1820E945F
:10329000D93600D0EDB7FEB73196ADB7BEB71296AE
:1032A000DC93CE9311978091E403828313820E9472
:1032B000D936EDB7FEB73196ADB7BEB71296DC93EF
:1032C000CE9311978091E503828313820E94D936B1
:1032D000EDB7FEB73196ADB7BEB71296DC93CE937D
:1032E00011978091E603828313820E94D936EDB74D
:1032F000FEB73196ADB7BEB71296DC93CE93119759
:103300008091E703828313820E94D936EDB7FEB71E
:103310003196ADB7BEB71296DC93CE9311978091DC
:10332000E803828313820E94D936EDB7FEB7319647
:10333000ADB7BEB71296FC92EE92119780916E03D4
:10334000828313820E94D936EDB7FEB73196ADB7AE
:10335000BEB712961C930E93119780911207828329
:1033600013820E94D9360F900F900F900F9080EA31
:103370009FE00E9444210E94101880916E038823D0
:1033800029F080916E03882309F0C6CE0E94691A45
:1033900000D08EE593E0EDB7FEB7928381830E9463
:1033A000D9360F900F9088EB9BE00E9444210E9439
:1033B000691A8DE193E00E94EB3681E00E94C80F0C
:1033C00080E197E20E9444210E94691ADF91CF9127
:1033D0001F910F91FF90EF90DF90CF90BF90AF9033
:1033E0009F908F9008958FE00E94E71F882331F40B
:1033F0000E9476228FE061E00E942F208FE091E012
:1034000008958FE00E94E71F813019F020E030E03E
:1034100013C080917A00806480937A0080917A0052
:1034200086FDFCCF3091780020917900922F80E0CA
:10343000232F30E0282B392BC9010895582F809174
:103440007F038830D8F440917E0021E030E0B9015C
:1034500002C0660F771F8A95E2F7CB01809584231F
:1034600080937E0080917E00052E02C0220F331FC4
:103470000A94E2F7822B80937E000DC020917E009B
:1034800081E090E0052E02C0880F991F0A94E2F7B0
:10349000282B20937E0050937F0380917C005F71E6
:1034A000807E852B80937C000895ECE7F0E090818E
:1034B0008295880F880F807C9F73982B9083089546
:1034C0000E948F220E9481220E945A1880E090E080
:1034D00008950F931F9380E460E00E94481B00E072
:1034E000802F60E00E942F1B10E080E061E00E94CE
:1034F000481B1F5F1038C9F70F5F043089F783E05E
:1035000060E00E94281B1F910F9108950F931F9355
:1035100082E00E94E71F882311F482E006C081E068
:103520000E94E71F882319F481E090E06DC00E949B
:10353000F72485E061E00E942F208EEA60E00E947F
:10354000481B82EA60E00E94481B80EA60E00E941B
:10355000481B00E513ECC8010197F1F780EC60E02F
:103560000E94481B8FE260E00E94481B81E860E0F7
:103570000E94481B86E160E00E94481B82E260E0F6
:103580000E94481BC8010197F1F78FEA60E00E9492
:10359000481B86EA60E00E94481B85EA60E00E94C2
:1035A000481B80E090E028E833E1F9013197F1F71A
:1035B000019643E0883E9407C1F783EB60E00E94E8
:1035C000481B80E460E00E94481B83E060E00E94AA
:1035D0002F1B83E060E00E94281B1092620710926C
:1035E0006407109263078EE893E0909393078093AB
:1035F000920788E10E94071B0E94691A84EA60E032
:103600000E94481B85E091E01F910F9108951F9340
:10361000182F85E00E94E71F8130C1F487E00E94E7
:10362000841B82E06AE00E94D51B82E061EB0E946D
:10363000D51B612F113208F060E282E00E94D51B99
:1036400089EE8A95F1F787E00E94841B1F91089507
:1036500083706F77609360078093610708950F937D
:103660001F93062F162F1F778370806B60E00E94D8
:10367000481B12951F70812F806160E00E94481BDB
:10368000802F8F7060E00E94481B1F910F9108955A
:103690000F931F93082F162F85E00E94E71F81309C
:1036A00079F4112319F0113021F402C02B9801C0D4
:1036B0002B9A86E08A95F1F780E0602F0E94D51B57
:1036C0001F910F9108951F93182F86E00E94E71F06
:1036D000813019F4812F0E94A6251F9108950E9420
:1036E000AB2586E061E00E942F2086E091E00895FE
:1036F0001F93182F86E00E94E71F813019F4812F55
:103700000E94AE251F9108951F93182F82E00E94FA
:10371000E71F813009F047C0912F977080916507AE
:10372000981709F440C09093650785B1887F892B6D
:1037300085B9933011F1943028F4913051F09230E2
:1037400090F40CC0953019F19530E0F0963021F5E9
:103750000FC0E0913C04F0913D0422C0E0913A0496
:10376000F0913B041DC0E0913E04F0913F0418C06D
:10377000E0914604F091470413C0E0914004F091B9
:1037800041040EC0E0914204F091430409C0E0916D
:103790004404F091450404C0E0914804F0914904C8
:1037A000309709F009951F9108951F93162F0E94D5
:1037B000841B82E00E94E71F813021F41EBD0DB4FE
:1037C00007FEFDCF1F9108950F931F93CF93DF93B3
:1037D00080E291E00E94BA349C0190935904809356
:1037E0005804892B11F480E039C08901C0E0D0E091
:1037F000BE0180E090E00E94222E20E030E040EA0E
:1038000051E40E94892D27EF35E740E05FE30E94F5
:10381000122F9B01AC0160E070E080E291E40E9415
:10382000752F9B01AC01CA01B9012DEC3CEC42E8BB
:1038300051E40E94122F0E94D82E2AE030E040E08E
:1038400050E00E944234F801619371938193919307
:103850008F012196C834D10559F681E0DF91CF91CF
:103860001F910F9108958AE00E94E71F882371F449
:10387000109255041092540481E00E94E92681E0E0
:1038800080934B048AE061E00E942F208AE091E05F
:1038900008951F938BE00E94E71F882311F090E0AA
:1038A00021C089E00E94E71F8823D9F40E94E41B0D
:1038B000182F8130B1F410924C0410924D041092E4
:1038C0004E0410924F048DE06CE676E20E94CF2405
:1038D00082E00E94E92610934A0489E061E00E9498
:1038E0002F2091E089E01F910895813029F08230E6
:1038F00031F090E089E008950E94331C08950E9401
:10390000491C089580912607909127072091280748
:1039100030912907BC01C90108952F923F924F921F
:103920005F926F927F928F929F92AF92BF92CF924F
:10393000DF92EF92FF920F931F93DF93CF93CDB758
:10394000DEB7582E962E442E39013C2CC98CDA8CC9
:103950002B8C81E0681739F1681728F092E069171D
:1039600009F085C049C080E061E00E94961E80E0B9
:10397000B7010E945F1E80E0642DA3019801032D12
:10398000EE24E394EBE4CE2EE7E0DE2E0E94E81E68
:10399000552009F06CC000D00F92EDB7FEB7118230
:1039A000B382A28223C081E061E00E94961E81E082
:1039B000B6010E945F1E81E0682D4D895E892F89C6
:1039C000388D022DEE24E3947BE4C72E77E0D72ECA
:1039D0000E94E81E552009F04AC000D00F92EDB7B2
:1039E000FEB791828C8D9D8D938382830E94991F57
:1039F0000F900F900F903BC082E061E00E94961EF6
:103A000080E0B7010E945F1E81E0B6010E945F1E48
:103A100080E0642DA3019801032DEE24E3949BE440
:103A2000C92E97E0D92E0E94E81E81E0682D4D89AD
:103A30005E892F89388D022D0E94E81E5520B9F429
:103A400000D000D00F92ADB7BEB71196EDB7FEB75C
:103A50009182FD01B282A1828C8D9D8D948383839E
:103A60000E94991F0F900F900F900F900F90CF9181
:103A7000DF911F910F91FF90EF90DF90CF90BF905B
:103A8000AF909F908F907F906F905F904F903F90FE
:103A90002F9008956F927F928F929F92AF92BF92D4
:103AA000CF92DF92EF92FF920F931F93DF93CF930A
:103AB000CDB7DEB7942E7C2DD50149895A89AB88C4
:103AC000BC88CD88DE889F89813009F457C0813059
:103AD000B8F1823009F076C0613091F0613020F0A9
:103AE000623009F06FC015C080E060E00E94961E51
:103AF00080E0B7010E945F1E80E0692DA8011DC013
:103B000081E060E00E94961E81E0B6010E945F1E87
:103B100011C082E060E00E94961E80E0B7010E9422
:103B20005F1E81E0B6010E945F1E80E0692DA80142
:103B30000E94481E81E0682DA5010E94481E42C0D7
:103B4000EDB7FEB739970FB6F894FEBF0FBEEDBFC5
:103B50006DB67EB60894611C711C52834183F301DB
:103B6000B382A282D582C4829683888D998D9087F4
:103B7000878380E0492DC72E5D011AC0EDB7FEB7DF
:103B800039970FB6F894FEBF0FBEEDBFADB7BEB705
:103B9000119652834183FD01B382A282D582C482F1
:103BA00096831086178281E0492DC72EAA24BB2454
:103BB0000E948D1C8DB79EB709960FB6F8949EBFD4
:103BC0000FBE8DBFCF91DF911F910F91FF90EF90AE
:103BD000DF90CF90BF90AF909F908F907F906F902D
:103BE00008950E947B2781E080934A07E4E1F7E093
:103BF00011921192118210823296118210823296A5
:103C000011821082329611821082329611821082B5
:103C1000329611821082329611821082329611826F
:103C20001082329611821082329611821082329660
:103C30001182108232961182108236961192119260
:103C40001192108232961192119211921192119248
:103C50001192119211821082329611821082329644
:103C60001182108232961182108276971182108210
:103C700032961182108210924907109248071092D2
:103C80004A0787E061E00E942F2087E091E00895D5
:103C9000EF92FF920F931F93182F062F7A0160E087
:103CA0000E94961E812F602F0E94811E812FB701D6
:103CB0000E94AB1E1F910F91FF90EF900895482F27
:103CC00081E080934A07CB0123E0693E720710F040
:103CD00088EE93E0413071F0413018F0423071F4D9
:103CE00005C090931F0780931E0708C090931F077D
:103CF00080931E07909321078093200710924A0714
:103D00000895982F81E080934A07913051F09130C7
:103D100018F0923041F403C06093370704C06093F9
:103D200037076093380710924A070895982F81E06B
:103D300080934A07913051F0913018F0923041F45D
:103D400003C06093140704C06093140760931507C1
:103D500010924A070895482F81E080934A07CB01CB
:103D600021E06139720710F080E991E0413071F093
:103D7000413018F0423071F405C0909317078093DA
:103D8000160708C09093170780931607909319079A
:103D90008093180710924A070895982F81E0809326
:103DA0004A07913071F0913018F0923071F405C0EB
:103DB000709327076093260708C0709327076093C6
:103DC0002607709329076093280710924A070895E1
:103DD0008F929F92AF92BF92CF92DF92EF92FF921B
:103DE0000F931F93CF93DF93182FF62E5A0149019B
:103DF000E60161E00E94961E812FB501A4010E9498
:103E00009A27812F6F2D0E94811E812F602F0E9483
:103E10008527812FB5010E94CD1EC114D10499F0D0
:103E2000113049F0113018F0123069F406C01882D0
:103E30001092460708C0198204C018821982109295
:103E4000460710924707D0934907C0934807EE20D2
:103E5000B9F58AEE93E09093490780934807812F44
:103E6000B4010E94AB1E812F0E946627113071F0B1
:103E7000113018F0123059F512C01092EA03109266
:103E800046078091EA038823E1F321C01092EB03F7
:103E9000109247078091EB038823E1F318C010923A
:103EA000EA031092EB0310924607109247078091A5
:103EB000EA038823E1F38091EB038823C1F307C071
:103EC000812FB4010E94AB1E812F0E946627DF91D3
:103ED000CF911F910F91FF90EF90DF90CF90BF9007
:103EE000AF909F908F9008950F931F93182F062FD8
:103EF000662349F460E070E00E94AB1E812F60E011
:103F000070E00E94CD1E81E080934A07113051F08D
:103F1000113018F0123041F403C00093320704C08E
:103F2000009332070093330710924A071F910F91B5
:103F30000895CF92DF92EF92FF920F931F93DF933A
:103F4000CF93CDB7DEB78B85813061F0813018F02B
:103F50008230A1F511C0EC85FD8580914B07882347
:103F6000E1F306C0EC85FD8580914C078823E1F3E1
:103F7000309721F1099522C0CC84DD84EE84FF8442
:103F800000E010E0002351F480914B07882331F0CA
:103F9000C114D10411F0F601099501E0112351F487
:103FA00080914C07882331F0E114F10411F0F701FE
:103FB000099511E0002331F3112321F3CF91DF9113
:103FC0001F910F91FF90EF90DF90CF900895E82F11
:103FD000F0E0E331F10540F4E25CFF4FEE0FFF1F2C
:103FE0000590F491E02D099480E0089580914D07AB
:103FF000089580914E07089580914F07089580910C
:1040000050070895809151070895809153070895AE
:104010008091520708958091540708958091550723
:1040200008958091560708958091570708958091CB
:104030005807089580915907089580915A07089567
:1040400080915B07089580915C07089580915D07DA
:10405000089580915E07089580915F070895E82F85
:10406000F0E0E331F10508F040C0EF5AFF4FEE0FEA
:10407000FF1F0590F491E02D099460934D0708957A
:1040800060934E07089560934F070895609350071B
:1040900008956093510708956093530708956093BE
:1040A0005207089560935407089560935507089543
:1040B00060935607089560935707089560935807D3
:1040C000089560935907089560935A07089560937F
:1040D0005B07089560935C07089560935D070895FA
:1040E00060935E07089560935D0708950F931F9393
:1040F00081E00E94E71F813011F000E024C087E0DA
:104100000E94841B82E06AE00E94D51B82E062EB81
:104110000E94D51B18EC812F8A95F1F782E060E0B0
:104120000E945126082F812F8A95F1F782E060E0E6
:104130000E9451261A95F1F787E00E94841B88E8B7
:1041400093E10197F1F7802F1F910F9108951F932D
:10415000CF93DF93182F8091ED03882341F0809156
:10416000F703882399F01092ED031092F7030E9451
:1041700076208093EC0381EF93E061E040E022E35E
:1041800030E00E94652181E08093ED039091EC0383
:10419000A12FB0E0ED01C857DC4F8881882369F07A
:1041A000FD01E557FC4F80819823C1F0FD01E251EC
:1041B000FC4F81E08083188211C0FD01E251FC4F69
:1041C000808181111082FD01E557FC4F8081982389
:1041D00029F4FD01E857FC4F81E08083A251BC4FD8
:1041E0008C91DF91CF911F91089582E00E94E71F8B
:1041F000882319F490E082E0089510927B071092D2
:104200007A0710927D0710927C0710927F07109218
:104210007E071092810710928007109283071092F8
:10422000820780E991E090936707809366079093F7
:1042300069078093680790936B0780936A07909350
:104240006D0780936C0790936F0780936E0784E3EC
:1042500098E0909371078093700790937307809311
:1042600072079093750780937407909377078093F4
:104270007607909379078093780781E061E00E9448
:104280002F2091E081E00895DF93CF93CDB7DEB783
:1042900029970FB6F894DEBF0FBECDBF9C01CE01AB
:1042A000019661E040E00E946521982F882319F46F
:1042B0008F818823E9F3892F29960FB6F894DEBF02
:1042C0000FBECDBFCF91DF910895EF92FF920F9374
:1042D0001F93CF93DF93EC01F62EE42E890188E043
:1042E0000E94E71F813011F081E026C084E090E059
:1042F0000E94BA34FC01009711F482E01DC0F982DB
:10430000F0FC1E8281E0E81619F4898184608983BB
:104310008981886089831B830A831D830C83D183F1
:10432000C0831382128281E080935A04CF010E94DD
:10433000FA2710925A0480E0DF91CF911F910F91DC
:10434000FF90EF900895FC0180918707813011F074
:1043500085E0089580918807813011F08AE0089502
:10436000613011F484EC01C084E88093BC0080913A
:10437000BC0087FFFCCF613031F48091B900887FA9
:10438000803559F405C08091B900887F883529F4BB
:104390008091BB00808380E0089582E00895982F8B
:1043A00080918707813011F085E00895809188071A
:1043B000813011F08AE008959093BB0084E88093E7
:1043C000BC008091BC0087FFFCCF8091B90090E0D9
:1043D000887F90708832910521F0C09721F483E0A6
:1043E000089580E008958CE00895982F2091870724
:1043F000213011F085E0089580918907813011F412
:1044000089E008952093880784EA8093BC00809116
:10441000BC0087FFFCCF8091B900887F883039F0DD
:104420008091B900887F803111F081E0089561307A
:1044300019F4990F916003C0662319F4990F9093B2
:10444000BB0084E88093BC008091BC0087FFFCCF58
:10445000613031F48091B900887F803441F409C023
:10446000662339F48091B900887F883111F082E0A9
:10447000089580E0089580918807813011F08AE0E6
:10448000089580918A07813029F485E98093BC00E2
:1044900080E0089584E98093BC0080E0089582E183
:1044A0000E94E71F8823B1F41092870710928807B3
:1044B0001092890710928A0710928B070E94962803
:1044C00087E160E00E946D220E948C2882E161E019
:1044D0000E942F2082E190E0089563706093B900FC
:1044E0008093B80081E08093870708958FE18093DF
:1044F0007C00EAE7F0E087E0808380818068808349
:1045000008950E94D7270E94B3250E94E3240E94A9
:1045100063280E9418260E94F520789408950000D0
:1045200008951F920F920FB60F9211242F933F936D
:104530004F935F936F937F938F939F93AF93BF93AB
:10454000EF93FF93E0911A04F0911B04309709F068
:104550000995FF91EF91BF91AF919F918F917F91BD
:104560006F915F914F913F912F910F900FBE0F90E0
:104570001F9018951F920F920FB60F9211242F9330
:104580003F934F935F936F937F938F939F93AF93DB
:10459000BF93EF93FF93E0911C04F0911D043097BB
:1045A00009F00995FF91EF91BF91AF919F918F9184
:1045B0007F916F915F914F913F912F910F900FBE1F
:1045C0000F901F9018951F920F920FB60F92112403
:1045D0002F933F934F935F936F937F938F939F930B
:1045E000AF93BF93EF93FF93E0911E04F0911F04EC
:1045F000309709F00995FF91EF91BF91AF919F918D
:104600008F917F916F915F914F913F912F910F907B
:104610000FBE0F901F9018951F920F920FB60F921A
:1046200011242F933F934F935F936F937F938F93B7
:104630009F93AF93BF93EF93FF93E0910C04F0919E
:104640000D04309709F00995FF91EF91BF91AF915B
:104650009F918F917F916F915F914F913F912F919A
:104660000F900FBE0F901F9018951F920F920FB6CC
:104670000F9211242F933F934F935F936F937F93E8
:104680008F939F93AF93BF93EF93FF93E0910E04AB
:10469000F0910F04309709F00995FF91EF91BF91C8
:1046A000AF919F918F917F916F915F914F913F91CA
:1046B0002F910F900FBE0F901F9018951F920F9281
:1046C0000FB60F9211242F933F934F935F936F93E5
:1046D0007F938F939F93AF93BF93EF93FF93E0915B
:1046E0001004F0911104309709F00995FF91EF91B2
:1046F000BF91AF919F918F917F916F915F914F91FA
:104700003F912F910F900FBE0F901F9018951F9201
:104710000F920FB60F9211242F933F934F935F93F5
:104720006F937F938F939F93AF93BF93EF93FF9379
:10473000E0911404F0911504309709F00995FF9168
:10474000EF91BF91AF919F918F917F916F915F9109
:104750004F913F912F910F900FBE0F901F90189582
:104760001F920F920FB60F9211242F933F934F93E6
:104770005F936F937F938F939F93AF93BF93EF93C9
:10478000FF93E0911604F0911704309709F0099512
:10479000FF91EF91BF91AF919F918F917F916F9119
:1047A0005F914F913F912F910F900FBE0F901F90EF
:1047B00018951F920F920FB60F9211242F933F93CB
:1047C0004F935F936F937F938F939F93AF93BF9319
:1047D000EF93FF93E0911204F0911304309709F0E6
:1047E0000995FF91EF91BF91AF919F918F917F912B
:1047F0006F915F914F913F912F910F900FBE0F904E
:104800001F9018951F920F920FB60F9211242F939D
:104810003F934F935F936F937F938F939F93AF9348
:10482000BF93EF93FF93E0911804F0911904309730
:1048300009F00995FF91EF91BF91AF919F918F91F1
:104840007F916F915F914F913F912F910F900FBE8C
:104850000F901F9018951F920F920FB60F92112470
:104860002F933F934F935F936F937F938F939F9378
:10487000AF93BF93EF93FF93E0910204F091030491
:10488000309709F00995FF91EF91BF91AF919F91FA
:104890008F917F916F915F914F913F912F910F90E9
:1048A0000FBE0F901F9018951F920F920FB60F9288
:1048B00011242F933F934F935F936F937F938F9325
:1048C0009F93AF93BF93EF93FF93E0910404F09114
:1048D0000504309709F00995FF91EF91BF91AF91D1
:1048E0009F918F917F916F915F914F913F912F9108
:1048F0000F900FBE0F901F9018951F920F920FB63A
:104900000F9211242F933F934F935F936F937F9355
:104910008F939F93AF93BF93EF93FF93E091060420
:10492000F0910704309709F00995FF91EF91BF913D
:10493000AF919F918F917F916F915F914F913F9137
:104940002F910F900FBE0F901F9018951F920F92EE
:104950000FB60F9211242F933F934F935F936F9352
:104960007F938F939F93AF93BF93EF93FF93E091C8
:104970000804F0910904309709F00995FF91EF912F
:10498000BF91AF919F918F917F916F915F914F9167
:104990003F912F910F900FBE0F901F901895E82F09
:1049A000803268F48051833050F0F0E0EE0FFF1F4A
:1049B000E650FC4F208131817183608302C020E08A
:1049C00030E0C901089580E10E94E71F882361F467
:1049D000EAEFF3E01192119284E0EA33F807D1F79D
:1049E00080E161E00E942F2080E191E00895239A08
:1049F0000895FF920F931F93CF93DF93F82E8AE0D1
:104A0000F816B1F08F1548F0E8E0FE16B9F1EF1591
:104A100038F1F7E0FF1651F43BC08DE0F81659F07D
:104A2000EBE1FE1689F0FCE0FF1641F001E041C029
:104A30001092600703C0109260073AC0809161072E
:104A400081508093610734C00E94691A14C080E0CD
:104A500061E00E94481B809160078F5F8093600730
:104A60008091600787FFF3CF109260078091610704
:104A700081508093610700E011E01CC080916007C5
:104A80008823B1F08091600786508093600710C042
:104A900081E00E94751C64EF71E080E090E04DE7DA
:104AA00050E024E630E00E94132781E00E94DF26D8
:104AB00000E010E080916107609160070E942F1B69
:104AC000002351F185E0F89EC0011124EC01C3558B
:104AD000DF4F8C010E541F4FFE01849161E00E9454
:104AE000481B2196C017D107B9F780E061E00E940A
:104AF000481B809160078A5F809360078091600700
:104B000090E08C3791053CF010926007809161072E
:104B100081508093610711E08091610783708093D9
:104B20006107113059F480916207813039F4E091C6
:104B30006307F0916407309709F0099580E090E0F1
:104B4000DF91CF911F910F91FF90089585FD5D98A2
:104B500086FD5E980895559A569A089585FD5D9A4A
:104B600086FD5E9A089580E00E94E71F882351F435
:104B7000F8940E94AA2881E00E94C52580E061E0A7
:104B80000E942F2080E091E00895813049F0F89450
:104B9000813020F18230B1F0833009F045C017C078
:104BA0002C9A80E8809361001092610080E090E090
:104BB0000000019688329105D9F710926800109292
:104BC0006B00089580E88093610083E004C080E872
:104BD0008093610088E08093610028C080E090E0CD
:104BE000000001962DE680369207D1F72C9880E0E0
:104BF00090E0000001962DE680369207D1F71092E2
:104C00007A008FEF809364008091680081608093C8
:104C1000680080916B00846080936B00789483B708
:104C2000816083BF88950895823008F07894089554
:104C30000F931F930E94D62880E065EC78E20E94D3
:104C4000632681E06DEB78E20E94632682E065EBEB
:104C500078E20E94632686E06DEC78E20E9463268B
:104C60000DEA18E283E0B8010E94632684E0B801EF
:104C70000E94632685E0B8010E94632687E0B801A0
:104C80000E94632682E061E00E942F208FEF8093D4
:104C9000650787E00E94841B82E091E01F910F91DD
:104CA00008951F93162F0E94841B82E00E94E71F25
:104CB000813011F080E005C01EBD0DB407FEFDCFB0
:104CC0008EB51F910895E82FF0E0EE0FFF1FE65C10
:104CD000FB4F7183608308950E946F260895809131
:104CE0004C0490914D04A0914E04B0914F0420913A
:104CF0005004309151044091520450915304280FB4
:104D0000391F4A1F5B1F20934C0430934D0440937E
:104D10004E0450934F0480914C0490914D04A09107
:104D20004E04B0914F048851964FA040B040BCF063
:104D30008BB180588BB980914C0490914D04A09117
:104D40004E04B0914F048851964FA040B0408093DC
:104D50004C0490934D04A0934E04B0934F040895D7
:104D60008AE00E94E71F813041F40E94F4281092EB
:104D70004B048AE060E00E942F20089589E00E94A1
:104D8000E71F8130D9F480914A04882311F00E94F2
:104D9000602782E00E94F428809158049091590481
:104DA000009731F00E946735109259041092580410
:104DB00010924A0489E060E00E942F20089581301B
:104DC00029F0823029F40E94BE2608950E94B02660
:104DD0000895982F80914A04882331F480914B04E0
:104DE000882311F4579A5F9880914A048823D1F45C
:104DF0009230C1F410928000109281008091810065
:104E0000886080938100809181008160809381001F
:104E1000109285001092840081E08093890080E9DF
:104E20008093880008958F929F92AF92BF92CF9205
:104E3000DF92EF92FF920F931F93CF93DF934B017B
:104E40005C01EA01B9012115310539F19E014427C0
:104E500037FD4095542F6536710510F064E670E01B
:104E600080E090E00E94423424E630E040E050E0F0
:104E70000E94613479018A01C501B4010E94DD28D4
:104E8000C7010E94442160E070E080E090E00E9451
:104E9000DD28CE018E199F0904C04115510519F076
:104EA000CA010E944421DF91CF911F910F91FF9081
:104EB000EF90DF90CF90BF90AF909F908F9008952C
:104EC000EFE6F0E080818D7F80830895982F81E068
:104ED00080934A07913051F0913018F0923041F4AC
:104EE00003C01092320704C01092320710923307A9
:104EF00010924A0708953A9A3B9A3C9A3D9A3E9AF4
:104F00003F9A88B1837088B90895982F81E0809383
:104F10004A07913051F0913018F0923041F403C0BB
:104F20006093340704C06093340760933507109290
:104F30004A0708950F931F93CF93DF93EB018A01E4
:104F4000813001F1813018F0823061F50DC080911F
:104F50001E0790911F07892B11F080E01AC0109254
:104F60002B0710922A071EC080911E0790911F07E1
:104F7000892B21F080E00E94102904C010922B0799
:104F800010922A078091200790912107892B31F0F8
:104F900081E0BE01A8010E94102904C010922D07D3
:104FA00010922C07DF91CF911F910F9108951092CD
:104FB0004D0710924E071092520710924F07109211
:104FC00051071092530710925407109255071092F0
:104FD00056071092570710925807109259071092CF
:104FE0005A0710925B0710925C0710925D071092AF
:104FF0005E070895CF92DF92EF92FF920F931F9377
:10500000CF93DF93EC0180918407882339F4D09308
:105010008607C09385070E94882847C0C0908507EF
:10502000D090860700E010E0EE24FF2437C0A8816E
:10503000B981FD0164817581F60140815181FA01D8
:10504000848195819B01281B390B37FF0FC0861B7C
:10505000970B95838483DB82CA82012B29F4D0933A
:105060008607C093850721C0F7010CC0F601828135
:1050700093812115310549F4FD01158214829B832A
:105080008A83F601D383C28310C0FD013583248354
:105090000097B9F30F5F1F4F76016C018091840771
:1050A00090E00817190718F2ECCF809184078F5F02
:1050B00080938407DF91CF911F910F91FF90EF9024
:1050C000DF90CF90089588E00E94E71F8823B9F40D
:1050D00010928407109286071092850710925A0446
:1050E00010925B0480E16DE779E20E9499280E94AA
:1050F00084290E94822888E061E00E942F2088E0B5
:1051000091E00895EEE6F0E080818260808308956A
:1051100081E080935B04089580918707813029F4B2
:105120008091BC0084608093BC00089538983998C1
:105130000895803218F020E030E00AC0E82FF0E057
:10514000EE0FFF1FE650FC4F208131817183608399
:10515000C9010895249A2C9A089583E58CBD81E0B5
:105160008DBD8DE08A95F1F7089583E58CBD1DBC5A
:1051700084EF91E00197F1F708958FE78CBD1DBC96
:1051800084EF91E00197F1F7089583E58CBD81E00C
:105190008DBD8DE08A95F1F7089583E58CBD81E0A2
:1051A0008DBD84EF91E00197F1F70895259A269837
:1051B000279A209A219A229A08959B01AC01809106
:1051C0004B04882381F0DA01C901880F991FAA1FB7
:1051D000BB1F909357048093560421153105410558
:1051E000510509F45F980895823029F48091810077
:1051F0008E7F8093810080914A04813031F48091C8
:105200004B04813011F40000089580914A048130EC
:1052100021F080914B04813011F45F9857980895E4
:10522000EF92FF920F931F93CF93DF93EB018823AD
:1052300021F0813009F05AC02DC09A0140E050E0C1
:10524000CA01B9010E94423420911E0730911F0704
:10525000220F331F40E050E00E94613479018A013F
:10526000A8019701220F331F441F551FCE01A0E054
:10527000B0E082179307A407B50728F0F0922B0738
:10528000E0922A0733C0D695C795D0932B07C093D9
:105290002A072CC09A0140E050E0CA01B9010E94DF
:1052A00042342091200730912107220F331F40E024
:1052B00050E00E94613479018A01A8019701220F10
:1052C000331F441F551FCE01A0E0B0E082179307A3
:1052D000A407B50728F0F0922D07E0922C0706C02E
:1052E000D695C795D0932D07C0932C07DF91CF910A
:1052F0001F910F91FF90EF9008950E948D290E94B9
:10530000CD290E94A629089584B5826084BD85B503
:10531000846085BD8EE487BD089588E00E94E71F04
:10532000882311F484E0089580915B04882311F4AC
:1053300083E0089580915A04882311F082E0089553
:105340000E941A2C8130E1F380E0089580914B0493
:10535000813011F5809154049091550420915604A8
:1053600030915704280F391F30935504209354046B
:105370008091540490915504885E93406CF08BB1F9
:1053800080588BB98091540490915504885E934065
:105390009093550480935404089587E00E94E71F7A
:1053A000813009F0AAC080911E0790911F07892BB8
:1053B00009F1809142079091430720911E07309197
:1053C0001F07820F931F909343078093420780919A
:1053D000420790914307885E9340A4F08091420772
:1053E00090914307885E93409093430780934207D0
:1053F00041E009C0809116079091170790931B0711
:1054000080931A0740E08091200790912107892B13
:1054100009F1809144079091450720912007309130
:105420002107820F931F9093450780934407809133
:10543000440790914507885E9340A4F0809144070B
:1054400090914507885E9340909345078093440769
:1054500061E009C0809118079091190790931D078A
:1054600080931C0760E0842F0E947E2A80913E0773
:1054700090913F0720911A0730911B07280F391F81
:1054800030933F0720933E0780913E0790913F075E
:10549000885E934014F440E00BC080913E079091E9
:1054A0003F07885E934090933F0780933E0741E01B
:1054B000809140079091410720911C0730911D0772
:1054C000280F391F309341072093400780914007F0
:1054D00090914107885E934014F460E00BC0809186
:1054E000400790914107885E9340909341078093D5
:1054F000400761E0842F0E94C32A08958823F1F0B9
:10550000209116073091170780911A0790911B0779
:10551000281B390B1216130634F480911A07909148
:105520001B07019607C0232B49F080911A07909121
:105530001B07019790931B0780931A07662311F1AD
:10554000209118073091190780911C0790911D0731
:10555000281B390B1216130654F480911C079091E6
:105560001D07019690931D0780931C070895232B18
:1055700049F080911C0790911D07019790931D079A
:1055800080931C0708950F931F93182F062F809167
:105590004A07882309F0E7C080913207882309F081
:1055A0005AC080911A0790911B07892BE9F48091CA
:1055B0005C04837E80935C0410923B0780914607D5
:1055C000882309F45DC06091340780E00E94741F55
:1055D000E0914807F0914907309709F451C081E004
:1055E0008083109246074CC080911407813041F4AB
:1055F0008091260790912707019711F411E002C0CE
:105600001123F1F1E0913907F0E0E058FC4F90915F
:105610005C04937E8081892B80935C0480913707A2
:10562000882321F4809139078F5F03C08091390767
:1056300081508093390780913907837080933907AF
:1056400081E080933B07809114078130C9F480E0AA
:105650000E94C62B15C090915C04937E90935C04CD
:10566000E0913907F0E0E058FC4F8081892B80936E
:105670005C0482E080933B0710921B0710921A078C
:1056800080913307882309F059C080911C079091BD
:105690001D07892BE9F480915C048F7180935C0471
:1056A00010923C0780914707882309F45CC0609101
:1056B000350781E00E94741FE0914807F091490787
:1056C000309709F450C081E08183109247074BC0A6
:1056D00080911507813041F4809128079091290726
:1056E000019711F401E002C00023E9F1E0913A07CB
:1056F000F0E0EC57FC4F90915C049F718081892B06
:1057000080935C0480913807882321F480913A07C4
:105710008F5F03C080913A07815080933A07809150
:105720003A07837080933A0781E080933C07809129
:1057300015078130C1F40E94C62B15C090915C04FE
:105740009F7190935C04E0913A07F0E0EC57FC4FB6
:105750008081892B80935C0482E080933C071092C7
:105760001D0710921C0780913D07882331F48CE5BA
:1057700094E0612F402F0E94882C88B18370909113
:105780005C04892B88B91F910F910895882321F01B
:10579000813009F04EC027C08091260790912707DD
:1057A000892B49F0809126079091270701979093C4
:1057B000270780932607809146078823D1F52091FB
:1057C00026073091270780912A0790912B072817E9
:1057D000390779F580E060E070E00E94AB1E81E05F
:1057E0008093460708958091280790912907892B77
:1057F00049F08091280790912907019790932907F4
:105800008093280780914707882399F420912807DF
:105810003091290780912C0790912D07281739077F
:1058200041F481E060E070E00E94AB1E81E0809373
:1058300047070895FF920F931F93CF93DF938091B3
:105840008407882309F459C00091850710918607C1
:10585000F801C081D1818C819D8101979D838C83CA
:10586000181619060CF449C0898180FF05C08E8185
:10587000882311F481E08E83898181FF03C0EF8149
:10588000F8850995809184078230A8F0F80182811B
:105890009381909386078093850713821282E0910B
:1058A0000000F091010084819581181619063CF0E2
:1058B000FF24F39405C01092860710928507FF24F9
:1058C0008091840781508093840780918407882386
:1058D00011F40E94852C898182FF08C08A819B81F6
:1058E0009D838C83C8010E94FA2708C0C8010E94CA
:1058F000673589818F7E898301C0FF248F2DDF91D9
:10590000CF911F910F91FF90089510925B0408951D
:10591000FC0180913B07823069F48091600491E042
:10592000892780936004882309F03EC08081837EAC
:1059300080833AC080911A0790911B07C397A4F502
:105940006623D1F020911A0730911B0780E690E082
:10595000BC01269FC001279F900D369F900D1124FA
:10596000880F892F881F990B90932F0780932E07FC
:1059700081E080935E0418C080915E048823A1F0CA
:1059800080912E0790912F07019790932F07809376
:105990002E0780912E0790912F07892B29F4808163
:1059A000837E808310925E0480913C07823069F48C
:1059B00080915F0491E0892780935F04882309F038
:1059C0003EC080818F718083089580911C079091E3
:1059D0001D07C397A4F54423D1F020911C073091F3
:1059E0001D0780E690E0AC01249FC001259F900D2B
:1059F000349F900D1124880F892F881F990B909345
:105A000031078093300781E080935D040895809191
:105A10005D048823A1F080913007909131070197B0
:105A20009093310780933007809130079091310730
:105A3000892B29F480818F71808310925D040895F1
:105A40005058BB27AA270ED075C166D130F06BD154
:105A500020F031F49F3F11F41EF45BC10EF4E09589
:105A6000E7FB51C1E92F77D180F3BA1762077307BB
:105A70008407950718F071F49EF58FC10EF4E09538
:105A80000B2EBA2FA02D0B01B90190010C01CA01F8
:105A9000A0011124FF27591B99F0593F50F4503EA3
:105AA00068F11A16F040A22F232F342F4427585F95
:105AB000F3CF469537952795A795F0405395C9F7AD
:105AC0007EF41F16BA0B620B730B840BBAF0915065
:105AD000A1F0FF0FBB1F661F771F881FC2F70EC004
