:100000000C9431030C944E030C944E030C944E0349
:100010000C9453190C947C190C94A5190C94CE19BA
:100020000C944E030C9434180C945D180C948618A0
:100030000C9401190C94AF180C94D8180C942A192C
:100040000C94B9170C94E2170C940B180C944E03F3
:100050000C944E030C944E030C944E030C944E03DC
:100060000C944E030C944E030C944E030C944E03CC
:100070000C944E030C944E030C944E031E15211544
:100080002415271530152A152D1533153615391554
:100090003C153F154215451548154B154E15511584
:1000A0005415651568156B156E1577157115741552
:1000B0007A157D1580158315861589158C158F1574
:1000C0009215951598159B1507634236B79BD8A7CF
:1000D0001A39685618AEBAAB558C1D3CB7CC57636D
:1000E000BD6DEDFD753EF6177231BF000000803F1B
:1000F00008000000BE922449123EABAAAA2ABECD37
:10010000CCCC4C3E00000080BEABAAAAAA3E0000A8
:100110000000BF000000803F0000000000084178A0
:10012000D3BB4387D1133D190E3CC3BD4282AD2BD7
:100130003E68EC8276BED98FE1A93E4C80EFFFBECF
:1001400001C4FF7F3F000000000016050100000011
:1001500000000000FA000000E000E00028FE28FE99
:10016000282454FE5448C4C81026466C92AA44A0C1
:1001700000A0C000000038448200008244380028FB
:10018000107C102810107C1010000A0C00001010B9
:10019000101010000606000004081020407C8A920F
:1001A000A27C0042FE020042868A92628482A2D22F
:1001B0008C182848FE08E4A2A2A29C3C5292920C01
:1001C000808E90A0C06C9292926C60929294780013
:1001D0006C6C0000006A6C00001028448200282823
:1001E000282828008244281040808A90604C929EE3
:1001F000827C7E8888887EFE9292926C7C8282824B
:1002000044FE82824438FE92929282FE90909080C8
:100210007C8292925EFE101010FE0082FE8200042C
:100220000282FC80FE10284482FE02020202FE408E
:100230003040FEFE201008FE7C8282827CFE909080
:1002400090607C828A847AFE909894626292929204
:100250008C8080FE8080FC020202FCF8040204F81C
:10026000FC021C02FCC6281028C6E0100E10E08616
:100270008A92A2C200FE82820040201008040082FE
:1002800082FE0020408040200202020202008040E4
:100290002000042A2A2A1EFE1222221C1C222222AC
:1002A000041C222212FE1C2A2A2A18107E9080404A
:1002B000304A4A4A7CFE1020201E0022BE02000462
:1002C0000222BC00FE081422000082FE02003E2032
:1002D00018201E3E1020201E1C2222221C3E2828F0
:1002E0002810102828183E3E10202010122A2A2AF2
:1002F0000420FC2202043C0202043E3804020438BA
:100300003C020C023C2214081422300A0A0A3C2245
:10031000262A322200106C82000000FE00000082BB
:100320006C1000081010081000000000007F818190
:10033000817F7F8383837F7F8787877F7F8F8F8F77
:100340007F7F9F9F9F7F7FBFBFBF7F7FFFFFFF7F1D
:100350002040FF4020621517156500FBFB000000E0
:1003600000000000C0FF0300E0FF0700F0FF0F00E7
:10037000F8FF1F0078001E0078001E0078001E00A5
:1003800078001E0078001E0078001E0078001E0015
:1003900078001E0078001E00000000000000000031
:1003A00080FF0300E0FF0700F0FF0F00F8FF1F00D1
:1003B000F83C1F00783C1E00783C1E00783C1E0074
:1003C000783C1E00783C1E00783C1E00783C1E00E5
:1003D000783C1E00783C1E00783C1E0000000000A7
:1003E00000000000E0FF0300F0FF0700F8FF0F002F
:1003F000F8FF1F00783C1E00783C1E00783C1E0071
:10040000783C1E00783C1E00783C1E00783C1E00A4
:10041000783C1E00783C1E00783C1E000000000066
:1004200000000000F8FF0300F8FF0F00F8FF1F00B6
:10043000F8FF1F0000001E0000001E0000801F00CB
:1004400000F01F0000FF0F00E0FF0700F0FF0000BA
:10045000F80F0000F80000007800000078000000AD
:10046000F8FF1F00F8FF1F00F0FF1F00E0FF1F0054
:100470000000000000000000F8FF1F00F8FF1F0050
:10048000F8FF1F00F8FF1F0078001E00783C1E00D8
:10049000783C1E00783C1E00783C1E00783C1E0014
:1004A000783C1E00F87E1F00F8FF1F00F0FF0F00D1
:1004B000E0E703000000000000003800EEFF6C00E1
:1004C0002A8045003A0047FC03FF6CFC83FF39009B
:1004D000DEFF0B7CD0810BFCD0810BC0D0810BFCEC
:1004E000D0810B7CDEFF0B0082FF397002FF6CF8BD
:1004F0003A0047DC2A8045CCEEFF6CCC0000380087
:100500000000000C00001E0C00001E0000001E0079
:1005100000001E0000001E00F8FF1F00F8FF1F0073
:10052000F8FF1F00F8FF1F0000001E0000001E0063
:1005300000001E0000001E0000005E0000004000E1
:1005400000007C00000040000000400000007C0033
:1005500000003000000010000000300000007C6E41
:10056000616E00696E660000407A10F35A00A07256
:100570004E18090010A5D4E80000E87648170000DE
:10058000E40B54020000CA9A3B000000E1F50500AC
:100590000080969800000040420F000000A08601F5
:1005A000000000102700000000E8030000000064C5
:1005B00000000000000A0000000000010000000030
:1005C000002C76D888DC674F0823DFC1DFAE59E105
:1005D000B1B796E5E3E453C63AE651997696E8E674
:1005E000C28426EB898C9B62ED407C6FFCEFBC9C47
:1005F0009F40F2BAA56FA5F490055A2AF75C936B59
:100600006CF9676DC11BFCE0E40D47FEF520E6B513
:1006100000D0ED902E0300943577050080841E08ED
:100620000000204E0A000000C80C333333330F980B
:100630006E12831141EF8D2114893BE65516CFFED2
:10064000E6DB18D1844B381BF77C1D901DA4BBE45E
:1006500024203284725E228100C9F124ECA1E53DA0
:10066000270011241FBECFEFD8E0DEBFCDBF11E0C1
:10067000A0E0B1E0E2EEFAE502C005900D92AA3AE0
:10068000B107D9F714E0AAEAB1E001C01D92AD3A72
:10069000B107E1F70E94C80F0C946F2D0C94000075
:1006A0001F93CF93DF93EC0188E660E00E941D1753
:1006B000182F8823A1F481E00E94F716182F8823B1
:1006C00071F488E661E00E941D17182F882339F421
:1006D000CE0160E00E94CB16182F811118820E9473
:1006E0006317812FDF91CF911F9108951F93CF93AF
:1006F000DF93EC0188E660E00E941D17182F882325
:10070000A1F489E00E94F716182F882371F488E677
:1007100061E00E941D17182F882339F4CE0160E094
:100720000E94CB16182F811118820E946317812F07
:10073000DF91CF911F9108951F93CF93DF93EC0129
:1007400088E660E00E941D17182F8823A1F488E036
:100750000E94F716182F882371F488E661E00E9442
:100760001D17182F882339F4CE0160E00E94CB16A4
:10077000182F811118820E946317812FDF91CF916A
:100780001F9108951F93CF93DF93EC0188E660E0FB
:100790000E941D17182F8823A1F487E00E94F716E6
:1007A000182F882371F488E661E00E941D17182F26
:1007B000882339F4CE0160E00E94CB16182F8111F6
:1007C00018820E946317812FDF91CF911F910895A6
:1007D0001F93CF93DF93EC0188E660E00E941D1722
:1007E000182F8823A1F486E00E94F716182F88237B
:1007F00071F488E661E00E941D17182F882339F4F0
:10080000CE0160E00E94CB16182F811118820E9441
:100810006317812FDF91CF911F9108951F93CF937D
:10082000DF93EC0188E660E00E941D17182F8823F3
:10083000A1F485E00E94F716182F882371F488E64A
:1008400061E00E941D17182F882339F4CE0160E063
:100850000E94CB16182F811118820E946317812FD6
:10086000DF91CF911F9108951F93CF93DF93EC01F8
:1008700088E660E00E941D17182F8823A1F484E009
:100880000E94F716182F882371F488E661E00E9411
:100890001D17182F882339F4CE0160E00E94CB1673
:1008A000182F811118820E946317812FDF91CF9139
:1008B0001F9108951F93CF93DF93EC0188E660E0CA
:1008C0000E941D17182F8823A1F483E00E94F716B9
:1008D000182F882371F488E661E00E941D17182FF5
:1008E000882339F4CE0160E00E94CB16182F8111C5
:1008F00018820E946317812FDF91CF911F91089575
:100900001F93CF93DF93EC0188E660E00E941D17F0
:10091000182F8823A1F482E00E94F716182F88234D
:1009200071F488E661E00E941D17182F882339F4BE
:10093000CE0160E00E94CB16182F811118820E9410
:100940006317812FDF91CF911F9108951F93CF934C
:10095000DF93EC0188E660E00E941D17182F8823C2
:10096000A1F480E00E94F716182F882371F488E61E
:1009700061E00E941D17182F882339F4CE0160E032
:100980000E94CB16182F811118820E946317812FA5
:10099000DF91CF911F91089581E00E94BD0F85E006
:1009A0000E94860F0E94690FA0E0B0E0BC01CD015B
:1009B0000E948A2320E030E040EA50E40E9489222D
:1009C0009B01AC0160E070E286E395E40E94F122B5
:1009D00020E030E040E85FE30E948822089581E053
:1009E0000E94BD0F87E00E94860F0E94690FA0E061
:1009F000B0E0BC01CD010E948A2320E030E040EA53
:100A000050E40E9489229B01AC0160E070E286E321
:100A100095E40E94F12220E030E040E85FE30E948C
:100A20008822089581E00E94BD0F83E00E94860F16
:100A30000E94690FA0E0B0E0BC01CD010E948A23B2
:100A400020E030E040EA50E40E9489229B01AC01A2
:100A500060E070E286E395E40E94F12220E030E05D
:100A600040E85FE30E948822089581E00E94BD0F64
:100A700084E00E94860F0E94690FA0E0B0E0BC01F4
:100A8000CD010E948A2320E030E040EA50E40E9439
:100A900089229B01AC0160E070E286E395E40E944C
:100AA000F12220E030E040E85FE30E9488220895D0
:100AB00081E00E94BD0F85E00E94860F0E94690FB1
:100AC000A0E0B0E0BC01CD010E948A2320E030E02C
:100AD00040EA5BE30E947A24089581E00E94BD0F02
:100AE00086E00E94860F0E94690FA0E0B0E0BC0182
:100AF000CD010E948A2320E030E040EA5BE30E94BF
:100B00007A240895FF920F931F93CF93DF930E944F
:100B1000D10F81E08093480280E00E94CF15182F0A
:100B200081E00E94CF15082F82E00E94CF15F82E99
:100B3000113019F0C0E0D0E017C080E091E00E94D1
:100B4000C12C88EE93E00E946C1680E20E94E010B7
:100B500080ED97E00E946C1680E40E94CB1080E24A
:100B60000E94CB10C1E0D0E00130B9F48CE091E0FC
:100B70000E94C12C88EE93E00E946C1680E40E94D3
:100B8000E01080ED97E00E946C1680E40E94CB108C
:100B900080E20E94CB10C2E0D0E081E0F816D1F4F0
:100BA00088E191E00E94C12C88EE93E00E946C16CF
:100BB00080E40E94E01080E20E94E01080ED97E067
:100BC0000E946C1680E40E94CB1080E20E94CB1041
:100BD000C3E0D0E00E94D10FCE01DF91CF911F91F1
:100BE0000F91FF9008952F923F924F925F926F92D4
:100BF0007F928F929F92AF92BF92CF92DF92EF92AD
:100C0000FF920F931F93DF93CF93CDB7DEB7649717
:100C10000FB6F894DEBF0FBECDBF882339F589EB40
:100C200092E09C8B8B8BA3E2B4E0BE83AD83E9EAB8
:100C3000F3E0FC83EB8381E393E09A8389830F2EB7
:100C4000F0E02F2EF0E03F2EF0E04F2EF0E05F2E90
:100C5000F02D2F86388A498A5A8A2B863C864D8603
:100C60005E862F82388649865A8643C0A090B2019C
:100C7000B090B301C090B401D090B501E090B6013E
:100C8000F090B7010091B8011091B9012090BA011C
:100C90003090BB014090BC015090BD012091BE013D
:100CA0003091BF014091C0015091C10180E090E0BE
:100CB000FC01E75BFD4FA082B182C282D382FC01BE
:100CC000ED54FC4FE082F18202831383FC01E75C68
:100CD000FC4F2082318242825382FC01EF53FD4F50
:100CE000208331834283538304968837910501F72B
:100CF00096CFAB89BC892D913D914D915C91139715
:100D0000FD012483358346835783AD81BE81ED90F9
:100D1000FD900D911C911397FD01E482F5820683ED
:100D20001783AB81BC81AD90BD90CD90DC901397C3
:100D3000FD01A482B582C682D782A981BA816D9055
:100D40007D908D909C901397FD01648275828682C0
:100D50009782C201B1010E9489221B012C016F857B
:100D6000788989899A89A80197010E9489226F87C9
:100D7000788B898B9A8B6B857C858D859E85A6016A
:100D800095010E9489226B877C878D879E876F8162
:100D9000788589859A85A40193010E9489226F83B1
:100DA000788789879A878B899C8904979C8B8B8B02
:100DB000AD81BE811497BE83AD83EB81FC813497F6
:100DC000FC83EB8389819A8104979A838983AB8919
:100DD000BC89A154B24009F08CCF8091B2019091AE
:100DE000B301A091B401B091B501EB89FC89808772
:100DF0009187A287B3878091B6019091B701A091A6
:100E0000B801B091B9018093B3039093B403A09358
:100E1000B503B093B6038091BA019091BB01A09144
:100E2000BC01B091BD018093390390933A03A09324
:100E30003B03B0933C038091BE019091BF01A09110
:100E4000C001B091C1018093C1029093C202A093EE
:100E5000C302B093C402C201B10120E030E040EF10
:100E600051E40E94F1226093B2017093B301809328
:100E7000B4019093B5016F85788989899A8920E0BA
:100E800030E040EF51E40E94F1226093B60170938C
:100E9000B7018093B8019093B9016B857C858D85EE
:100EA0009E8520E030E040EF51E40E94F122609303
:100EB000BA017093BB018093BC019093BD016F8117
:100EC000788589859A8520E030E040EF51E40E94E2
:100ED000F1226093BE017093BF018093C001909393
:100EE000C10164960FB6F894DEBF0FBECDBFCF919F
:100EF000DF911F910F91FF90EF90DF90CF90BF9007
:100F0000AF909F908F907F906F905F904F903F90A9
:100F10002F9008956F927F928F929F92AF92BF927F
:100F2000CF92DF92EF92FF920F931F933B014C0100
:100F3000442361F080E090E0A0E0B0E08093AA015B
:100F40009093AB01A093AC01B093AD01C401B30188
:100F50002091AA013091AB014091AC015091AD01BB
:100F60000E9489225B016C016093AA017093AB011E
:100F70008093AC019093AD01C401B301A40193012E
:100F80000E9489227B018C01C401B3012091AE0132
:100F90003091AF014091B0015091B1010E9488227F
:100FA00020E030E040E251E40E947A249B01AC0151
:100FB000C801B7010E9489227B018C01C601B501DD
:100FC00020E030E040E050E00E947A249B01AC0138
:100FD000C801B7010E9489221F910F91FF90EF90E5
:100FE000DF90CF90BF90AF909F908F907F906F9049
:100FF00008952F926F927F928F929F92AF92BF929D
:10100000CF92DF92EF92FF920F931F93DF93CF93D4
:1010100000D000D0CDB7DEB769837A838B839C8301
:101020006090BA017090BB018090BC019090BD01AE
:101030006091BE017091BF018091C0019091C1018A
:101040000E94ED22282E221C2224221C220C6091B8
:10105000B2017091B3018091B4019091B501A801E2
:1010600097010E94ED22082F001F0027001F000F8C
:10107000000F6091B6017091B7018091B801909115
:10108000B901A60195010E94ED22182F111F112709
:10109000111F110F110F110FFF24C401B30129817A
:1010A0003A814B815C810E94ED22882314F4FF2455
:1010B000F3942F0C200E822D810F0F900F900F9024
:1010C0000F90CF91DF911F910F91FF90EF90DF90E4
:1010D000CF90BF90AF909F908F907F906F902F9008
:1010E000089508950E949E15282F21702093B10322
:1010F00090E082709070959587958093B2030895E3
:101100000E9458056093C2017093C3018093C4018B
:101110009093C5010E946D056093C6017093C7014D
:101120008093C8019093C90108950E94EF046093D1
:10113000BA017093BB018093BC019093BD0180E024
:1011400090E0A8E4B2E48093BE019093BF01A09325
:10115000C001B093C1010E9435056093B201709344
:10116000B3018093B4019093B5010E94120560937E
:10117000B6017093B7018093B8019093B9010895B7
:101180002F923F924F925F926F927F928F929F9297
:10119000AF92BF92CF92DF92EF92FF920F931F9385
:1011A000DF93CF9300D000D0CDB7DEB76090BA0107
:1011B0007090BB018090BC019090BD01A090BE01D9
:1011C000B090BF01C090C001D090C101E090B601C5
:1011D000F090B7010091B8011091B9018091B2016E
:1011E0009091B301A091B401B091B50189839A8324
:1011F000AB83BC83C801B70129813A814B815C81F3
:101200000E9488221B012C01C401B30120E030E0C0
:1012100040EE50E40E94ED2287FD0BC0C601B501EF
:1012200020E030E040EE50E40E94ED2288230CF0F4
:1012300068C0C401B301A60195010E9488227B0108
:101240008C01772420E030E040E050E00E943C2414
:10125000882314F077247394C801B7010E9459239E
:101260009B0177FF03C0309521953F4FB901882737
:1012700077FD8095982F0E948C236B017C01ADB780
:10128000BEB719970FB6F894BEBF0FBEADBF0DB76E
:101290001EB70F5F1F4FA20191010E9489220E9479
:1012A0005E234B015C0182E390E0F801918380832F
:1012B000C701B601A20191010E9488220E945E230B
:1012C000D80113967C936E93129782EC91E0159659
:1012D0009C938E93149716961C92169718961C92B0
:1012E0001E92179781E062E0472D22E330E08401EF
:1012F000E2ECEE2EE1E0FE2ECC24AA24BB24872CC7
:1013000082C0C801B70120E030E040E251E40E9411
:10131000ED228823B4F5C201B1010E9459238B014B
:1013200077FF03C0109501951F4F2DB73EB7295089
:1013300030400FB6F8943EBF0FBE2DBFEDB7FEB7DD
:10134000319688EC90E0ADB7BEB712969C938E9321
:1013500011971383028382EC91E095838483168234
:101360001086178281E062E040E028EC30E072EC09
:10137000E72E71E0F72ECC24AA24BB248824839482
:1013800042C069817A818B819C8120E030E040E21B
:1013900051E40E94ED2287FD02C080E03FC0C201FF
:1013A000B1010E9459238B0177FF03C0109501956D
:1013B0001F4F2DB73EB7295030400FB6F8943EBFAF
:1013C0000FBE2DBFEDB7FEB7319688EC90E0ADB7FC
:1013D000BEB712969C938E9311971383028382EC6F
:1013E00091E09583848316821086178281E062E003
:1013F00041E028EC30E052ECE52E51E0F52ECC2413
:10140000AA24BB2488240E94B21281E0EDB7FEB763
:1014100039960FB6F894FEBF0FBEEDBF0F900F9038
:101420000F900F90CF91DF911F910F91FF90EF9050
:10143000DF90CF90BF90AF909F908F907F906F90F4
:101440005F904F903F902F9008955F926F927F92A0
:101450008F929F92AF92BF92CF92DF92EF92FF92C4
:101460000F931F93E090BA01F090BB010091BC0173
:101470001091BD015524C801B70120E030E048EBD0
:1014800051E40E94ED22882314F455245394A09033
:10149000B601B090B701C090B801D090B90160908A
:1014A000B2017090B3018090B4019090B5015520C5
:1014B00031F56091BE017091BF018091C0019091A2
:1014C000C10120E030E048EB51E40E94ED2287FDAD
:1014D00016C0C601B50120E030E040EA51E40E94A8
:1014E000ED2287FD0CC0C401B30120E030E040EAEA
:1014F00051E40E94ED2287FD02C080E009C1C601CF
:10150000B50120E030E040EA51E40E943C24181686
:1015100064F480E090E0A0EAB0E48093B601909398
:10152000B701A093B801B093B901C401B30120E0A1
:1015300030E040EA51E40E943C24181614F080E0A8
:101540000DC080E090E0A0EAB0E48093B2019093F7
:10155000B301A093B401B093B50181E0552081F1AE
:10156000882389F0C801B701A80197010E947A2455
:101570002091B2013091B3014091B4015091B50175
:101580000E94892212C0C801B701A80197010E94D8
:101590007A249B01AC016091B2017091B3018091FA
:1015A000B4019091B5010E9488229B01AC01609129
:1015B000B6017091B7018091B8019091B90110C046
:1015C0006091B6017091B7018091B8019091B90115
:1015D0002091B2013091B3014091B4015091B50115
:1015E0000E948822E62F2E2F372F482F592FB9011E
:1015F000CA0140E00E948A076B017C010E945923C6
:101600008B0177FF03C0109501951F4F053611051B
:10161000FCF0C701B60120E030E040E050E00E945D
:10162000ED228823A9F0B801882777FD8095982FAF
:101630000E948C239B01AC01C701B6010E94F122DC
:1016400020E030E048EC52E40E947A246B017C01F7
:10165000C701B60120E030E048EC52E40E94F122DC
:101660006B017C018DB79EB709970FB6F8949EBFAA
:101670000FBE8DBF0DB71EB70F5F1F4FC701B6015D
:1016800020E030E048EC52E40E947A2420E030E090
:1016900048EC52E40E9489220E945E234B015C01C7
:1016A00082E390E0F80191838083C701B60120E0D6
:1016B00030E048EC52EC0E947A2420E030E048EC24
:1016C00052E40E9489220E945E23F80173836283A0
:1016D00082EC91E09583848316821086178281E0E4
:1016E00062E041E022E330E08401F2ECEF2EF1E031
:1016F000FF2ECC24AA24BB24882483940E94B212F7
:101700008DB79EB709960FB6F8949EBF0FBE8DBFDA
:101710001F910F91FF90EF90DF90CF90BF90AF900F
:101720009F908F907F906F905F9008953F924F921F
:101730005F926F927F928F929F92AF92BF92CF9261
:10174000DF92EF92FF920F931F937C014090C201B2
:101750005090C3016090C4017090C501C301B201F3
:101760002BE734E146E850E40E943C24181694F03C
:1017700000E010E06091C6017091C7018091C8013E
:101780009091C9012BE734E146E850E40E943C24E3
:10179000181614F401E010E0302E002309F431C1D2
:1017A00081E0E816F104F1F092E0E916F1041CF48E
:1017B000EF28C1F00AC0E2E0EE16F10409F44FC0D0
:1017C000F3E0EF16F10409F47DC00F2EF0E0CF2E08
:1017D000F0E0DF2EF0E0EF2EF0E0FF2EF02D4601DE
:1017E0005701A2C06091C6017091C7018091C801E4
:1017F0009091C9012BE734E146E850E40E94882229
:1018000028E53FE842E05FE30E94F12220E030E07B
:1018100048EC52EC0E947A2420E030E048EC52E49C
:101820000E9489226B017C01C301B2012BE734E1E4
:1018300046E850E40E94882228E53FE842E05FE362
:101840000E94F12220E030E048EC52EC0E947A2421
:1018500020E030E048EC52E40E94892263C06091AD
:10186000C6017091C7018091C8019091C9012BE711
:1018700034E146E850E40E94882228E53FE842E04F
:101880005FE30E94F12220E030E048EC52E40E9445
:101890007A244B015C01C301B2012BE734E146E835
:1018A00050E40E94882228E53FE842E05FE30E947E
:1018B000F12220E030E048EC52E40E947A246B01EF
:1018C0007C0132C06091C6017091C7018091C8014E
:1018D0009091C9012BE734E146E850E40E94882248
:1018E00028E53FE842E05FE30E94F12220E030E09B
:1018F00048EC52E40E947A246B017C01C301B201DE
:101900002BE734E146E850E40E94882228E53FE8CE
:1019100042E05FE30E94F12220E030E048EC52E434
:101920000E947A244B015C01C701B60120E030E03F
:1019300040E050E00E94ED22882364F466240F2EDC
:10194000F0E0CF2EF0E0DF2EF0E0EF2EF0E0FF2E03
:10195000F02D02C066246394C501B40120E030E09C
:1019600040E050E00E94ED22882364F477240F2E9B
:10197000F0E08F2EF0E09F2EF0E0AF2EF0E0BF2ED3
:10198000F02D02C0772473948DB79EB709970FB6D8
:10199000F8949EBF0FBE8DBF0DB71EB70F5F1F4FD0
:1019A000C701B6010E945E236B017C0182E390E0D7
:1019B000F80191838083C501B4010E945E23F80180
:1019C0007383628382EC91E0958384831682108610
:1019D000178281E062E0462D22E330E08601A2EC2E
:1019E000EA2EA1E0FA2ECC24AA24BB24872C0E9444
:1019F000B2128DB79EB709960FB6F8949EBF0FBE70
:101A00008DBF832D1F910F91FF90EF90DF90CF90AE
:101A1000BF90AF909F908F907F906F905F904F900E
:101A20003F9008954F925F926F927F928F92AF9204
:101A3000BF92CF92EF92FF920F931F939091B103B9
:101A40009130A1F18091B203813081F12DB73EB781
:101A5000295030400FB6F8943EBF0FBE2DBFEDB7F2
:101A6000FEB7319688EC90E0ADB7BEB712969C9366
:101A70008E9311979383828382EC91E09583848384
:101A800016821086178281E062E040E028EC30E0A8
:101A900008EC10E052ECE52E51E0F52ECC24AA24FF
:101AA000BB2488240E94B21281E0A5C08091B203B9
:101AB000882309F04DC0913009F0AAC08DB79EB7B8
:101AC00009970FB6F8949EBF0FBE8DBFEDB7FEB756
:101AD00031968BE490E0ADB7BEB712969C938E938F
:101AE000119738EC432E512C538242822AEF622EFA
:101AF000712C7582648216821086178280E062E003
:101B000041E02BE430E008EC10E09AEFE92EF12CF4
:101B1000CC24AA24BB24882483940E94B212EDB75B
:101B2000FEB7319684E690E0ADB7BEB712969C93AF
:101B30008E93119753824282758264821682108638
:101B4000178280E062E041E024E630E088244EC065
:101B5000813009F05DC0992309F057C08DB79EB759
:101B600009970FB6F8949EBF0FBE8DBFEDB7FEB7B5
:101B700031968BE490E0ADB7BEB712969C938E93EE
:101B8000119708EC402E512C538242821AEF612E9D
:101B9000712C7582648216821086178280E062E062
:101BA00041E02BE430E008EC10E0BAEFEB2EF12C32
:101BB000CC24AA24BB24882483940E94B212EDB7BB
:101BC000FEB7319684E690E0ADB7BEB712969C930F
:101BD0008E93119753824282758264821682108698
:101BE000178280E062E040E024E630E00E94B2121A
:101BF0001092CB0180E02DB73EB7275F3F4F0FB665
:101C0000F8943EBF0FBE2DBF04C0913009F4A6CF9B
:101C100080E01F910F91FF90EF90CF90BF90AF9019
:101C20008F907F906F905F904F9008958F92AF92BA
:101C3000BF92CF92DF92EF92FF920F931F93CF93B9
:101C4000DF930E94EA11672B09F076C0892B09F017
:101C500073C00E94982B8C010E94982BEC010E946B
:101C6000982B7C010E94982B20E06AE070E00E9493
:101C7000C92908970CF021E0822E8094C80160E900
:101C800071E00E94C929E0E9AE2EE1E0BE2EA80E67
:101C9000B91E8DB79EB709970FB6F8949EBF0FBEB9
:101CA0008DBF0DB71EB70F5F1F4FC70168EC70E007
:101CB0000E94C92988539F4FAA2797FDA095BA2F44
:101CC000BC01CD010E948C230E945E236B017C012C
:101CD000F801B182A082CE0168EC70E00E94C929AF
:101CE00088539F4FAA2797FDA095BA2FBC01CD011D
:101CF0000E948C230E945E23F8017383628382EC2E
:101D000091E09583848316821086178281E062E0D9
:101D1000482D9501860172ECE72E71E0F72ECC2458
:101D2000AA24BB240E94B2128DB79EB709960FB6A3
:101D3000F8949EBF0FBE8DBF81E0DF91CF911F91C0
:101D40000F91FF90EF90DF90CF90BF90AF908F906A
:101D500008956091C6017091C7018091C80190916A
:101D6000C90126E636E646E950E40E943C24882371
:101D7000FCF06091C2017091C3018091C401909107
:101D8000C50126E636E646E950E40E943C24882355
:101D90007CF081E08093CA018093CB0184E291E0E2
:101DA0000E94C12C88EB9BE00E946C1680E0089595
:101DB00082E090E00E94960B08950E94C00888235C
:101DC00071F080E090E0A0E0B0E08093AA019093F1
:101DD000AB01A093AC01B093AD0181E00895809177
:101DE000CA01882391F40E94A90E882371F080E033
:101DF00090E0A0E0B0E08093AA019093AB01A093A3
:101E0000AC01B093AD0182E008958091CB018130A7
:101E100091F40E94120D882371F080E090E0A0E020
:101E2000B0E08093AA019093AB01A093AC01B09372
:101E3000AD0183E008950E94250A882369F080E0BF
:101E400090E0A0E0B0E08093AA019093AB01A09352
:101E5000AC01B093AD0184E008950E941D169093EB
:101E60004802809347020E94D710909346028093C5
:101E700045020E94EE0F90934402809343020E9419
:101E8000591381E00E94DD110E94D7100E9477173C
:101E90000E945B0F81E00E94BD0F0E94950881E0C7
:101EA0000E94F3050E9480080E9495080E94720813
:101EB0000E94250AF7CF8FE00E940F15882331F486
:101EC0000E949E178FE061E00E9457158FE091E01D
:101ED00008958FE00E940F15813019F020E030E066
:101EE00013C080917A00806480937A0080917A0098
:101EF00086FDFCCF3091780020917900922F80E010
:101F0000232F30E0282B392BC9010895582F8091B9
:101F10004B018830D8F440917E0021E030E0B901D7
:101F200002C0660F771F8A95E2F7CB018095842364
:101F300080937E0080917E00052E02C0220F331F09
:101F40000A94E2F7822B80937E000DC020917E00E0
:101F500081E090E0052E02C0880F991F0A94E2F7F5
:101F6000282B20937E0050934B0180917C005F7161
:101F7000807E852B80937C000895ECE7F0E09081D3
:101F80008295880F880F807C9F73982B908308958B
:101F90000E94B7170E94A9170E942D0F80E090E0C1
:101FA00008950F931F9380E460E00E94B01000E05A
:101FB000802F60E00E94971010E080E061E00E94B6
:101FC000B0101F5F1038C9F70F5F043089F783E046
:101FD00060E00E9490101F910F9108950F931F933E
:101FE00082E00E940F15882311F482E006C081E090
:101FF0000E940F15882319F481E090E06DC00E94C3
:102000001F1A85E061E00E9457158EEA60E00E9489
:10201000B01082EA60E00E94B01080EA60E00E94A6
:10202000B01000E513ECC8010197F1F780EC60E017
:102030000E94B0108FE260E00E94B01081E860E082
:102040000E94B01086E160E00E94B01082E260E081
:102050000E94B010C8010197F1F78FEA60E00E947A
:10206000B01086EA60E00E94B01085EA60E00E944D
:10207000B01080E090E028E833E1F9013197F1F702
:10208000019643E0883E9407C1F783EB60E00E942D
:10209000B01080E460E00E94B01083E060E00E9435
:1020A000971083E060E00E949010109279041092E3
:1020B0007B0410927A048AE591E09093AA048093BD
:1020C000A90488E10E946F100E94D10F84EA60E0A9
:1020D0000E94B01085E091E01F910F9108951F9329
:1020E000182F85E00E940F158130C1F487E00E940F
:1020F000EC1082E06AE00E943D1182E061EB0E94F8
:102100003D11612F113208F060E282E00E943D1122
:1021100089EE8A95F1F787E00E94EC101F910895EF
:1021200083706F77609377048093780408950F939A
:102130001F93062F162F1F778370806B60E00E941D
:10214000B01012951F70812F806160E00E94B01066
:10215000802F8F7060E00E94B0101F910F91089542
:102160000F931F93082F162F85E00E940F158130C3
:1021700079F4112319F0113021F402C02B9801C019
:102180002B9A86E08A95F1F780E0602F0E943D113E
:102190001F910F9108951F93182F86E00E940F152D
:1021A000813019F4812F0E94CE1A1F9108950E9448
:1021B000D31A86E061E00E94571586E091E0089509
:1021C0001F93182F86E00E940F15813019F4812F7C
:1021D0000E94D61A1F9108951F93182F82E00E9423
:1021E0000F15813009F047C0912F977080917C04C2
:1021F000981709F440C090937C0485B1887F892B9F
:1022000085B9933011F1943028F4913051F0923027
:1022100090F40CC0953019F19530E0F0963021F52E
:102220000FC0E0911E02F0911F0222C0E0911C023B
:10223000F0911D021DC0E0912002F091210218C012
:10224000E0912802F091290213C0E0912202F0915E
:1022500023020EC0E0912402F091250209C0E09112
:102260002602F091270204C0E0912A02F0912B028D
:10227000309709F009951F9108951F93162F0E941A
:10228000EC1082E00E940F15813021F41EBD0DB4C8
:1022900007FEFDCF1F9108950F931F93CF93DF93F8
:1022A00080E291E00E94492A9C0190933B02809336
:1022B0003A02892B11F480E039C08901C0E0D0E0F6
:1022C000BE0180E090E00E948A2320E030E040EAF6
:1022D00051E40E94F12227EF35E740E05FE30E94DE
:1022E0007A249B01AC0160E070E080E291E40E94FE
:1022F000DD249B01AC01CA01B9012DEC3CEC42E8A4
:1023000051E40E947A240E9440242AE030E040E018
:1023100050E00E94AA29F8016193719381939193EF
:102320008F012196C834D10559F681E0DF91CF9114
:102330001F910F9108958AE00E940F15882371F470
:10234000109237021092360281E00E94111C81E047
:1023500080932D028AE061E00E9457158AE091E0A7
:1023600008951F938BE00E940F15882311F090E0D1
:1023700021C089E00E940F158823D9F40E944C11D6
:10238000182F8130B1F410922E0210922F02109269
:102390003002109231028DE064E97BE10E94F7196E
:1023A00082E00E94111C10932C0289E061E00E94DF
:1023B000571591E089E01F910895813029F082300E
:1023C00031F090E089E008950E949B1108950E94E9
:1023D000B111089580913D0490913E0420913F04F5
:1023E00030914004BC01C90108952F923F924F9251
:1023F0005F926F927F928F929F92AF92BF92CF9295
:10240000DF92EF92FF920F931F93DF93CF93CDB79D
:10241000DEB7582E962E442E39013C2CC98CDA8C0E
:102420002B8C81E0681739F1681728F092E0691762
:1024300009F085C049C080E061E00E94FE1380E0A1
:10244000B7010E94C71380E0642DA3019801032DFA
:10245000EE24E394E2E6CE2EE4E0DE2E0E94351474
:10246000552009F06CC000D00F92EDB7FEB7118275
:10247000B382A28223C081E061E00E94FE1381E06A
:10248000B6010E94C71381E0682D4D895E892F89AE
:10249000388D022DEE24E39472E6C72E74E0D72E19
:1024A0000E943514552009F04AC000D00F92EDB7B4
:1024B000FEB791828C8D9D8D938382830E94C1147F
:1024C0000F900F900F903BC082E061E00E94FE13DE
:1024D00080E0B7010E94C71381E0B6010E94C713D4
:1024E00080E0642DA3019801032DEE24E39492E68D
:1024F000C92E94E0D92E0E94351481E0682D4D89B3
:102500005E892F89388D022D0E9435145520B9F42B
:1025100000D000D00F92ADB7BEB71196EDB7FEB7A1
:102520009182FD01B282A1828C8D9D8D94838383E3
:102530000E94C1140F900F900F900F900F90CF91A9
:10254000DF911F910F91FF90EF90DF90CF90BF90A0
:10255000AF909F908F907F906F905F904F903F9043
:102560002F9008956F927F928F929F92AF92BF9219
:10257000CF92DF92EF92FF920F931F93DF93CF934F
:10258000CDB7DEB7942E7C2DD50149895A89AB8809
:10259000BC88CD88DE889F89813009F457C081309E
:1025A000B8F1823009F076C0613091F0613020F0EE
:1025B000623009F06FC015C080E060E00E94FE1339
:1025C00080E0B7010E94C71380E0692DA8011DC0FB
:1025D00081E060E00E94FE1381E0B6010E94C71313
:1025E00011C082E060E00E94FE1380E0B7010E940B
:1025F000C71381E0B6010E94C71380E0692DA801CE
:102600000E94B01381E0682DA5010E94B01342C062
:10261000EDB7FEB739970FB6F894FEBF0FBEEDBF0A
:102620006DB67EB60894611C711C52834183F30120
:10263000B382A282D582C4829683888D998D908739
:10264000878380E0492DC72E5D011AC0EDB7FEB724
:1026500039970FB6F894FEBF0FBEEDBFADB7BEB74A
:10266000119652834183FD01B382A282D582C48236
:1026700096831086178281E0492DC72EAA24BB2499
:102680000E94F5118DB79EB709960FB6F8949EBFBC
:102690000FBE8DBFCF91DF911F910F91FF90EF90F3
:1026A000DF90CF90BF90AF909F908F907F906F9072
:1026B00008950E94A31C81E080936104EBE2F4E0A2
:1026C00011921192118210823296118210823296EA
:1026D00011821082329611821082329611821082FB
:1026E00032961182108232961182108232961182B5
:1026F00010823296118210823296118210823296A6
:1027000011821082329611821082369611921192A5
:10271000119210823296119211921192119211928D
:102720001192119211821082329611821082329689
:102730001182108232961182108276971182108255
:102740003296118210821092600410925F041092EF
:10275000610487E061E00E94571587E091E00895E9
:10276000EF92FF920F931F93182F062F7A0160E0CC
:102770000E94FE13812F602F0E94E913812FB70161
:102780000E9413141F910F91FF90EF900895482F0E
:1027900081E080936104CB0123E0693E720710F071
:1027A00088EE93E0413071F0413018F0423071F41E
:1027B00005C0909336048093350408C09093360486
:1027C0008093350490933804809337041092610409
:1027D0000895982F81E080936104913051F09130F9
:1027E00018F0923041F403C060934E0404C060932B
:1027F0004E0460934F04109261040895982F81E075
:1028000080936104913051F0913018F0923041F48E
:1028100003C060932B0404C060932B0460932C04CA
:10282000109261040895482F81E080936104CB01E8
:1028300021E06139720710F080E991E0413071F0D8
:10284000413018F0423071F405C090932E0480930B
:102850002D0408C090932E0480932D04909330048F
:1028600080932F041092610408958F929F92AF92EB
:10287000BF92CF92DF92EF92FF920F931F93CF936D
:10288000DF93182FF62E5A014901E60161E00E94FC
:10289000FE13812FB501A4010E94DD1C812F6F2D35
:1028A0000E94E913812F602F0E94C81C812FB5015F
:1028B0000E94AD1CC114D10499F0113049F01130BF
:1028C00018F0123069F406C0188210925D0408C036
:1028D000198204C01882198210925D0410925E045D
:1028E000D0936004C0935F04EE20B9F58CEC91E0C6
:1028F0009093600480935F04812FB4010E941314AD
:10290000812F0E948E1C113071F0113018F012309E
:1029100059F512C01092CC0110925D048091CC0147
:102920008823E1F321C01092CD0110925E048091C2
:10293000CD018823E1F318C01092CC011092CD0193
:1029400010925D0410925E048091CC018823E1F323
:102950008091CD018823C1F307C0812FB4010E946B
:102960001314812F0E948E1CDF91CF911F910F9124
:10297000FF90EF90DF90CF90BF90AF909F908F909F
:102980000895CF92DF92EF92FF920F931F93DF9300
:10299000CF93CDB7DEB78B85813061F0813018F0F1
:1029A0008230A1F511C0EC85FD85809162048823F9
:1029B000E1F306C0EC85FD85809163048823E1F393
:1029C000309721F1099522C0CC84DD84EE84FF8408
:1029D00000E010E0002351F480916204882331F07C
:1029E000C114D10411F0F601099501E0112351F44D
:1029F00080916304882331F0E114F10411F0F701B0
:102A0000099511E0002331F3112321F3CF91DF91D8
:102A10001F910F91FF90EF90DF90CF900895E82FD6
:102A2000F0E0E331F10540F4E25CFF4FEE0FFF1FF1
:102A30000590F491E02D099480E00895809164045C
:102A400008958091650408958091660408958091A9
:102A50006704089580916804089580916A04089538
:102A600080916904089580916B04089580916C04AD
:102A7000089580916D04089580916E040895809169
:102A80006F040895809170040895809171040895F1
:102A90008091720408958091730408958091740464
:102AA0000895809175040895809176040895E82F23
:102AB000F0E0E331F10508F040C0EF5AFF4FEE0FB0
:102AC000FF1F0590F491E02D09946093640408952C
:102AD00060936504089560936604089560936704A5
:102AE000089560936804089560936A04089560935C
:102AF0006904089560936B04089560936C040895CD
:102B000060936D04089560936E04089560936F045C
:102B1000089560937004089560937104089560931C
:102B20007204089560937304089560937404089583
:102B30006093750408956093740408950F931F9330
:102B400081E00E940F15813011F000E024C087E081
:102B50000E94EC1082E06AE00E943D1182E062EB8C
:102B60000E943D1118EC812F8A95F1F782E060E018
:102B70000E94791B082F812F8A95F1F782E060E08F
:102B80000E94791B1A95F1F787E00E94EC1088E803
:102B900093E10197F1F7802F1F910F9108951F93F3
:102BA000CF93DF93182F8091CF01882341F080913C
:102BB000D901882399F01092CF011092D9010E9477
:102BC0009E158093CE0183ED91E061E040E022E329
:102BD00030E00E948D1681E08093CF019091CE016C
:102BE000A12FB0E0ED01CC5ADE4F8881882369F037
:102BF000FD01E95AFE4F80819823C1F0FD01E053A9
:102C0000FE4F81E08083188211C0FD01E053FE4F2A
:102C1000808181111082FD01E95AFE4F8081982345
:102C200029F4FD01EC5AFE4F81E08083A053BE4F92
:102C30008C91DF91CF911F91089582E00E940F1532
:102C4000882319F490E082E0089510929204109283
:102C5000910410929404109293041092960410928E
:102C60009504109298041092970410929A0410926E
:102C7000990480E991E090937E0480937D04909381
:102C8000800480937F0490938204809381049093C6
:102C9000840480938304909386048093850484E362
:102CA00098E0909388048093870490938A0480939B
:102CB000890490938C0480938B0490938E0480936A
:102CC0008D049093900480938F0481E061E00E94D2
:102CD000571591E081E00895DF93CF93CDB7DEB72C
:102CE00029970FB6F894DEBF0FBECDBF9C01CE0171
:102CF000019661E040E00E948D16982F882319F418
:102D00008F818823E9F3892F29960FB6F894DEBFC7
:102D10000FBECDBFCF91DF910895EF92FF920F9339
:102D20001F93CF93DF93EC01F62EE42E890188E008
:102D30000E940F15813011F081E026C084E090E000
:102D40000E94492AFC01009711F482E01DC0F9821B
:102D5000F0FC1E8281E0E81619F489818460898381
:102D60008981886089831B830A831D830C83D183B7
:102D7000C0831382128281E080933C02CF010E94C3
:102D80003D1D10923C0280E0DF91CF911F910F9189
:102D9000FF90EF900895FC0180919E04813011F026
:102DA00085E0089580919F04813011F08AE00895B4
:102DB000613011F484EC01C084E88093BC00809100
:102DC000BC0087FFFCCF613031F48091B900887F6F
:102DD000803559F405C08091B900887F883529F481
:102DE0008091BB00808380E0089582E00895982F51
:102DF00080919E04813011F085E0089580919F04B8
:102E0000813011F08AE008959093BB0084E88093AC
:102E1000BC008091BC0087FFFCCF8091B90090E09E
:102E2000887F90708832910521F0C09721F483E06B
:102E3000089580E008958CE00895982F20919E04D5
:102E4000213011F085E008958091A004813011F4C3
:102E500089E0089520939F0484EA8093BC008091C8
:102E6000BC0087FFFCCF8091B900887F883039F0A3
:102E70008091B900887F803111F081E00895613040
:102E800019F4990F916003C0662319F4990F909378
:102E9000BB0084E88093BC008091BC0087FFFCCF1E
:102EA000613031F48091B900887F803441F409C0E9
:102EB000662339F48091B900887F883111F082E06F
:102EC000089580E0089580919F04813011F08AE098
:102ED00008958091A104813029F485E98093BC0094
:102EE00080E0089584E98093BC0080E0089582E149
:102EF0000E940F158823B1F410929E0410929F0433
:102F00001092A0041092A1041092A2040E94D91D54
:102F100087E160E00E9495170E94CF1D82E161E089
:102F20000E94571582E190E0089563706093B900A4
:102F30008093B80081E080939E0408958FE1809390
:102F40007C00EAE7F0E087E080838081806880830E
:102F500008950E941A1D0E94DB1A0E940B1A0E94FB
:102F6000A61D0E94401B0E941D1678940895000023
:102F700008951F920F920FB60F9211242F933F9333
:102F80004F935F936F937F938F939F93AF93BF9371
:102F9000EF93FF93E091FC01F091FD01309709F070
:102FA0000995FF91EF91BF91AF919F918F917F9183
:102FB0006F915F914F913F912F910F900FBE0F90A6
:102FC0001F9018951F920F920FB60F9211242F93F6
:102FD0003F934F935F936F937F938F939F93AF93A1
:102FE000BF93EF93FF93E091FE01F091FF013097C3
:102FF00009F00995FF91EF91BF91AF919F918F914A
:103000007F916F915F914F913F912F910F900FBEE4
:103010000F901F9018951F920F920FB60F921124C8
:103020002F933F934F935F936F937F938F939F93D0
:10303000AF93BF93EF93FF93E0910002F0910102F1
:10304000309709F00995FF91EF91BF91AF919F9152
:103050008F917F916F915F914F913F912F910F9041
:103060000FBE0F901F9018951F920F920FB60F92E0
:1030700011242F933F934F935F936F937F938F937D
:103080009F93AF93BF93EF93FF93E091EE01F09185
:10309000EF01309709F00995FF91EF91BF91AF9142
:1030A0009F918F917F916F915F914F913F912F9160
:1030B0000F900FBE0F901F9018951F920F920FB692
:1030C0000F9211242F933F934F935F936F937F93AE
:1030D0008F939F93AF93BF93EF93FF93E091F00192
:1030E000F091F101309709F00995FF91EF91BF91AF
:1030F000AF919F918F917F916F915F914F913F9190
:103100002F910F900FBE0F901F9018951F920F9246
:103110000FB60F9211242F933F934F935F936F93AA
:103120007F938F939F93AF93BF93EF93FF93E09120
:10313000F201F091F301309709F00995FF91EF91B9
:10314000BF91AF919F918F917F916F915F914F91BF
:103150003F912F910F900FBE0F901F9018951F92C7
:103160000F920FB60F9211242F933F934F935F93BB
:103170006F937F938F939F93AF93BF93EF93FF933F
:10318000E091F601F091F701309709F00995FF9170
:10319000EF91BF91AF919F918F917F916F915F91CF
:1031A0004F913F912F910F900FBE0F901F90189548
:1031B0001F920F920FB60F9211242F933F934F93AC
:1031C0005F936F937F938F939F93AF93BF93EF938F
:1031D000FF93E091F801F091F901309709F009951A
:1031E000FF91EF91BF91AF919F918F917F916F91DF
:1031F0005F914F913F912F910F900FBE0F901F90B5
:1032000018951F920F920FB60F9211242F933F9390
:103210004F935F936F937F938F939F93AF93BF93DE
:10322000EF93FF93E091F401F091F501309709F0ED
:103230000995FF91EF91BF91AF919F918F917F91F0
:103240006F915F914F913F912F910F900FBE0F9013
:103250001F9018951F920F920FB60F9211242F9363
:103260003F934F935F936F937F938F939F93AF930E
:10327000BF93EF93FF93E091FA01F091FB01309738
:1032800009F00995FF91EF91BF91AF919F918F91B7
:103290007F916F915F914F913F912F910F900FBE52
:1032A0000F901F9018951F920F920FB60F92112436
:1032B0002F933F934F935F936F937F938F939F933E
:1032C000AF93BF93EF93FF93E091E401F091E50199
:1032D000309709F00995FF91EF91BF91AF919F91C0
:1032E0008F917F916F915F914F913F912F910F90AF
:1032F0000FBE0F901F9018951F920F920FB60F924E
:1033000011242F933F934F935F936F937F938F93EA
:103310009F93AF93BF93EF93FF93E091E601F091FA
:10332000E701309709F00995FF91EF91BF91AF91B7
:103330009F918F917F916F915F914F913F912F91CD
:103340000F900FBE0F901F9018951F920F920FB6FF
:103350000F9211242F933F934F935F936F937F931B
:103360008F939F93AF93BF93EF93FF93E091E80107
:10337000F091E901309709F00995FF91EF91BF9124
:10338000AF919F918F917F916F915F914F913F91FD
:103390002F910F900FBE0F901F9018951F920F92B4
:1033A0000FB60F9211242F933F934F935F936F9318
:1033B0007F938F939F93AF93BF93EF93FF93E0918E
:1033C000EA01F091EB01309709F00995FF91EF9137
:1033D000BF91AF919F918F917F916F915F914F912D
:1033E0003F912F910F900FBE0F901F901895E82FCF
:1033F000803268F48051833050F0F0E0EE0FFF1F10
:10340000E452FE4F208131817183608302C020E04D
:1034100030E0C901089580E10E940F15882361F40E
:10342000ECEDF1E01192119282E0EC31F807D1F766
:1034300080E161E00E94571580E191E00895239AB0
:103440000895FF920F931F93CF93DF93F82E8AE096
:10345000F816B1F08F1548F0E8E0FE16B9F1EF1557
:1034600038F1F7E0FF1651F43BC08DE0F81659F043
:10347000EBE1FE1689F0FCE0FF1641F001E041C0EF
:103480001092770403C0109277043AC080917804B8
:1034900081508093780434C00E94D10F14C080E022
:1034A00061E00E94B010809177048F5F8093770471
:1034B0008091770487FFF3CF10927704809178048E
:1034C00081508093780400E011E01CC08091770463
:1034D0008823B1F08091770486508093770410C0E0
:1034E00081E00E94DD1164EF71E080E090E04DE743
:1034F00050E024E630E00E943B1C81E00E94071C63
:1035000000E010E080917804609177040E949710A9
:10351000002351F185E0F89EC0011124EC01C35550
:10352000DF4F8C010E541F4FFE01849161E00E9419
:10353000B0102196C017D107B9F780E061E00E9472
:10354000B010809177048A5F80937704809177042C
:1035500090E08C3791053CF01092770480917804CC
:1035600081508093780411E0809178048370809377
:103570007804113059F480917904813039F4E09164
:103580007A04F0917B04309709F0099580E090E08F
:10359000DF91CF911F910F91FF90089585FD5D9868
:1035A00086FD5E980895559A569A089585FD5D9A10
:1035B00086FD5E9A089580E00E940F15882351F4DD
:1035C000F8940E94ED1D81E00E94ED1A80E061E018
:1035D0000E94571580E091E00895813049F0F894F9
:1035E000813020F18230B1F0833009F045C017C03E
:1035F0002C9A80E8809361001092610080E090E056
:103600000000019688329105D9F710926800109257
:103610006B00089580E88093610083E004C080E837
:103620008093610088E08093610028C080E090E092
:10363000000001962DE680369207D1F72C9880E0A5
:1036400090E0000001962DE680369207D1F71092A7
:103650007A008FEF8093640080916800816080938E
:10366000680080916B00846080936B00789483B7CE
:10367000816083BF88950895823008F0789408951A
:103680000F931F930E94191E80E068E07EE10E9464
:103690008B1B81E060E07EE10E948B1B82E068EF83
:1036A0007DE10E948B1B86E060E17EE10E948B1B26
:1036B00000EF1DE183E0B8010E948B1B84E0B8019C
:1036C0000E948B1B85E0B8010E948B1B87E0B8012C
:1036D0000E948B1B82E061E00E9457158FEF809360
:1036E0007C0487E00E94EC1082E091E01F910F9132
:1036F00008951F93162F0E94EC1082E00E940F1570
:10370000813011F080E005C01EBD0DB407FEFDCF75
:103710008EB51F910895E82FF0E0EE0FFF1FE45ED5
:10372000FD4F7183608308950E94971B08958091D7
:103730002E0290912F02A0913002B091310220917F
:103740003202309133024091340250913502280FF9
:10375000391F4A1F5B1F20932E0230932F02409384
:1037600030025093310280912E0290912F02A0914D
:103770003002B09131028851964FA040B040BCF069
:103780008BB180588BB980912E0290912F02A0911D
:103790003002B09131028851964FA040B0408093E2
:1037A0002E0290932F02A0933002B093310208951D
:1037B0008AE00E940F15813041F40E94371E10925A
:1037C0002D028AE060E00E945715089589E00E946A
:1037D0000F158130D9F480912C02882311F00E94BA
:1037E000881C82E00E94371E80913A0290913B0231
:1037F000009731F00E94F62A10923B0210923A0292
:1038000010922C0289E060E00E94571508958130E3
:1038100029F0823029F40E94E61B08950E94D81BEB
:103820000895982F80912C02882331F480912D02E5
:10383000882311F4579A5F9880912C028823D1F441
:103840009230C1F41092800010928100809181002A
:1038500088608093810080918100816080938100E5
:10386000109285001092840081E08093890080E9A5
:103870008093880008958F929F92AF92BF92CF92CB
:10388000DF92EF92FF920F931F93CF93DF934B0141
:103890005C01EA01B9012115310539F19E01442786
:1038A00037FD4095542F6536710510F064E670E0E1
:1038B00080E090E00E94AA2924E630E040E050E059
:1038C0000E94DC2979018A01C501B4010E94201EF1
:1038D000C7010E946C1660E070E080E090E00E94FA
:1038E000201ECE018E199F0904C04115510519F003
:1038F000CA010E946C16DF91CF911F910F91FF902A
:10390000EF90DF90CF90BF90AF909F908F900895F1
:10391000EFE6F0E080818D7F80830895982F81E02D
:1039200080936104913051F0913018F0923041F45D
:1039300003C01092490404C01092490410924A0432
:103940001092610408953A9A3B9A3C9A3D9A3E9AA5
:103950003F9A88B1837088B90895982F81E0809349
:103960006104913071F0913018F0923071F405C01B
:1039700070933E0460933D0408C070933E046093CE
:103980003D047093400460933F04109261040895D5
:10399000982F81E080936104913051F0913018F0BC
:1039A000923041F403C060934B0404C060934B0415
:1039B00060934C041092610408950F931F93CF936A
:1039C000DF93EB018A01813001F1813018F0823000
:1039D00061F50DC08091350490913604892B11F06A
:1039E00080E01AC010924204109241041EC08091DF
:1039F000350490913604892B21F080E00E94531EFB
:103A000004C01092420410924104809137049091B6
:103A10003804892B31F081E0BE01A8010E94531EB9
:103A200004C01092440410924304DF91CF911F917F
:103A30000F91089510926404109265041092690425
:103A4000109266041092680410926A0410926B043B
:103A500010926C0410926D0410926E0410926F0418
:103A600010927004109271041092720410927304F8
:103A700010927404109275040895CF92DF92EF9221
:103A8000FF920F931F93CF93DF93EC0180919B04E0
:103A9000882339F4D0939D04C0939C040E94CB1DCD
:103AA00047C0C0909C04D0909D0400E010E0EE243C
:103AB000FF2437C0A881B981FD0164817581F601B9
:103AC00040815181FA01848195819B01281B390B2A
:103AD00037FF0FC0861B970B95838483DB82CA82D6
:103AE000012B29F4D0939D04C0939C0421C0F701BD
:103AF0000CC0F601828193812115310549F4FD0145
:103B0000158214829B838A83F601D383C28310C0FB
:103B1000FD01358324830097B9F30F5F1F4F7601B2
:103B20006C0180919B0490E00817190718F2ECCF04
:103B300080919B048F5F80939B04DF91CF911F91B5
:103B40000F91FF90EF90DF90CF90089588E00E9452
:103B50000F158823B9F410929B0410929D041092C3
:103B60009C0410923C0210923D0280E160EC7EE1E8
:103B70000E94DC1D0E94C71E0E94C51D88E061E0F6
:103B80000E94571588E091E00895EEE6F0E080810C
:103B900082608083089581E080933D020895809142
:103BA0009E04813029F48091BC0084608093BC0025
:103BB0000895389839980895803218F020E030E060
:103BC0000AC0E82FF0E0EE0FFF1FE452FE4F208105
:103BD000318171836083C9010895249A2C9A0895D4
:103BE00083E58CBD81E08DBD8DE08A95F1F7089568
:103BF00083E58CBD1DBC84EF91E00197F1F708953A
:103C00008FE78CBD1DBC84EF91E00197F1F708951B
:103C100083E58CBD81E08DBD8DE08A95F1F7089537
:103C200083E58CBD81E08DBD84EF91E00197F1F7D4
:103C30000895259A2698279A209A219A229A0895DB
:103C40009B01AC0180912D02882381F0DA01C9012A
:103C5000880F991FAA1FBB1F9093390280933802C7
:103C6000211531054105510509F45F980895823009
:103C700029F4809181008E7F8093810080912C02B5
:103C8000813031F480912D02813011F400000895CB
:103C900080912C02813021F080912D02813011F42D
:103CA0005F9857980895EF92FF920F931F93CF93C9
:103CB000DF93EB01882321F0813009F05AC02DC039
:103CC0009A0140E050E0CA01B9010E94AA2920915E
:103CD000350430913604220F331F40E050E00E943B
:103CE000DC2979018A01A8019701220F331F441FA3
:103CF000551FCE01A0E0B0E082179307A407B507D7
:103D000028F0F0924204E092410433C0D695C79562
:103D1000D0934204C09341042CC09A0140E050E08B
:103D2000CA01B9010E94AA292091370430913804B0
:103D3000220F331F40E050E00E94DC2979018A0104
:103D4000A8019701220F331F441F551FCE01A0E089
:103D5000B0E082179307A407B50728F0F092440457
:103D6000E092430406C0D695C795D0934404C0930F
:103D70004304DF91CF911F910F91FF90EF90089531
:103D80000E94D01E0E94101F0E94E91E089584B553
:103D9000826084BD85B5846085BD8EE487BD08954D
:103DA00088E00E940F15882311F484E00895809123
:103DB0003D02882311F483E0089580913C0288231A
:103DC00011F082E008950E9482218130E1F380E0C9
:103DD000089580912D02813011F5809136029091E5
:103DE00037022091380230913902280F391F309361
:103DF0003702209336028091360290913702885E16
:103E000093406CF08BB180588BB9809136029091C1
:103E10003702885E9340909337028093360208956C
:103E200087E00E940F15813009F0AAC08091350407
:103E300090913604892B09F18091590490915A048C
:103E40002091350430913604820F931F90935A04C9
:103E5000809359048091590490915A04885E93404C
:103E6000A4F08091590490915A04885E93409093F5
:103E70005A048093590441E009C080912D04909127
:103E80002E04909332048093310440E080913704F3
:103E900090913804892B09F180915B0490915C0426
:103EA0002091370430913804820F931F90935C0463
:103EB00080935B0480915B0490915C04885E9340E6
:103EC000A4F080915B0490915C04885E9340909391
:103ED0005C0480935B0461E009C080912F049091A1
:103EE0003004909334048093330460E0842F0E9464
:103EF000C11F809155049091560420913104309156
:103F00003204280F391F30935604209355048091B2
:103F1000550490915604885E934014F440E00BC021
:103F20008091550490915604885E93409093560476
:103F30008093550441E0809157049091580420915A
:103F4000330430913404280F391F309358042093E0
:103F500057048091570490915804885E934014F45C
:103F600060E00BC08091570490915804885E9340A4
:103F7000909358048093570461E0842F0E94062098
:103F800008958823F1F020912D0430912E04809122
:103F9000310490913204281B390B1216130634F4A5
:103FA0008091310490913204019607C0232B49F08F
:103FB0008091310490913204019790933204809360
:103FC0003104662311F120912F0430913004809147
:103FD000330490913404281B390B1216130654F441
:103FE000809133049091340401969093340480932B
:103FF00033040895232B49F08091330490913404C5
:104000000197909334048093330408950F931F9382
:10401000182F062F80916104882309F0E7C0809152
:104020004904882309F05AC08091310490913204E8
:10403000892BE9F480913E02837E80933E021092A8
:10404000520480915D04882309F45DC060914B04A3
:1040500080E00E945D21E0915F04F0916004309760
:1040600009F451C081E0808310925D044CC08091BE
:104070002B04813041F480913D0490913E040197DE
:1040800011F411E002C01123F1F1E0915004F0E0CD
:10409000E45BFE4F90913E02937E8081892B80935A
:1040A0003E0280914E04882321F4809150048F5F5A
:1040B00003C080915004815080935004809150043B
:1040C00083708093500481E08093520480912B048C
:1040D0008130C9F480E00E94092115C090913E0210
:1040E000937E90933E02E0915004F0E0E45BFE4F3B
:1040F0008081892B80933E0282E08093520410924B
:1041000032041092310480914A04882309F059C086
:104110008091330490913404892BE9F480913E021C
:104120008F7180933E021092530480915E04882325
:1041300009F45CC060914C0481E00E945D21E09133
:104140005F04F0916004309709F450C081E08183EE
:1041500010925E044BC080912C04813041F4809118
:104160003F0490914004019711F401E002C0002344
:10417000E9F1E0915104F0E0E05BFE4F90913E02E6
:104180009F718081892B80933E0280914F04882308
:1041900021F4809151048F5F03C0809151048150BC
:1041A000809351048091510483708093510481E085
:1041B0008093530480912C048130C1F40E94092122
:1041C00015C090913E029F7190933E02E091510480
:1041D000F0E0E05BFE4F8081892B80933E0282E01D
:1041E0008093530410923404109233048091540449
:1041F000882331F48EE392E0612F402F0E94F0215A
:1042000088B1837090913E02892B88B91F910F91DC
:104210000895882321F0813009F04EC027C0809195
:104220003D0490913E04892B49F080913D0490918A
:104230003E04019790933E0480933D0480915D0479
:104240008823D1F520913D0430913E0480914104B2
:10425000909142042817390779F580E060E070E01A
:104260000E94131481E080935D04089580913F04BF
:1042700090914004892B49F080913F049091400433
:1042800001979093400480933F0480915E048823BB
:1042900099F420913F04309140048091430490911F
:1042A00044042817390741F481E060E070E00E947F
:1042B000131481E080935E0408950F931F93182FC9
:1042C000062F662349F460E070E00E941314812FEA
:1042D00060E070E00E94AD1C81E0809361041130C9
:1042E00051F0113018F0123041F403C0009349042A
:1042F00004C00093490400934A04109261041F9182
:104300000F910895FF920F931F93CF93DF938091A6
:104310009B04882309F459C000919C0410919D04CA
:10432000F801C081D1818C819D8101979D838C830F
:10433000181619060CF449C0898180FF05C08E81CA
:10434000882311F481E08E83898181FF03C0EF818E
:10435000F885099580919B048230A8F0F80182814C
:10436000938190939D0480939C0413821282E09128
:104370000000F091010084819581181619063CF027
:10438000FF24F39405C010929D0410929C04FF2416
:1043900080919B04815080939B0480919B0488238F
:1043A00011F40E94ED21898182FF08C08A819B81DE
:1043B0009D838C83C8010E943D1D08C0C8010E94D6
:1043C000F62A89818F7E898301C0FF248F2DDF919A
:1043D000CF911F910F91FF90089510923D02089583
:1043E000FC0180915204823069F48091420291E094
:1043F000892780934202882309F03EC08081837E12
:1044000080833AC08091310490913204C397A4F51F
:104410006623D1F0209131043091320480E690E09F
:10442000BC01269FC001279F900D369F900D11243F
:10443000880F892F881F990B909346048093450419
:1044400081E08093400218C0809140028823A1F04F
:10445000809145049091460401979093460480937F
:1044600045048091450490914604892B29F480816C
:10447000837E80831092400280915304823069F4DD
:104480008091410291E0892780934102882309F0BD
:104490003EC080818F718083089580913304909114
:1044A0003404C397A4F54423D1F020913304309110
:1044B000340480E690E0AC01249FC001259F900D5C
:1044C000349F900D1124880F892F881F990B90938A
:1044D00048048093470481E080933F0208958091CF
:1044E0003F028823A1F080914704909148040197EE
:1044F0009093480480934704809147049091480426
:10450000892B29F480818F71808310923F02089556
:104510005058BB27AA270ED075C166D130F06BD199
:1045200020F031F49F3F11F41EF45BC10EF4E095CE
:10453000E7FB51C1E92F77D180F3BA176207730700
:104540008407950718F071F49EF58FC10EF4E0957D
:104550000B2EBA2FA02D0B01B90190010C01CA013D
:10456000A0011124FF27591B99F0593F50F4503EE8
:1045700068F11A16F040A22F232F342F4427585FDA
:10458000F3CF469537952795A795F0405395C9F7F2
:104590007EF41F16BA0B620B730B840BBAF09150AA
:1045A000A1F0FF0FBB1F661F771F881FC2F70EC049
:1045B000BA0F621F731F841F48F48795779567951C
:1045C000B795F7959E3F08F0B3CF9395880F08F005
:1045D0009927EE0F979587950895D9D008F481E033
:1045E00008950CD00FC107D140F0FED030F021F477
:1045F0005F3F19F0F0C0511139C1F3C014D198F3E5
:104600009923C9F35523B1F3951B550BBB27AA2753
:1046100062177307840738F09F5F5F4F220F331FC5
:10462000441FAA1FA9F333D00E2E3AF0E0E830D091
:1046300091505040E695001CCAF729D0FE2F27D094
:10464000660F771F881FBB1F261737074807AB0762
:10465000B0E809F0BB0B802DBF01FF2793585F4FD7
:104660002AF09E3F510568F0B6C000C15F3FECF3F1
:10467000983EDCF3869577956795B795F7959F5F9C
:10468000C9F7880F911D9695879597F90895E1E0F0
:10469000660F771F881FBB1F621773078407BA074F
:1046A00020F0621B730B840BBA0BEE1F88F7E095AA
:1046B000089504D06894B111D9C00895BCD088F091
:1046C0009F5790F0B92F9927B751A0F0D1F0660FFE
:1046D000771F881F991F1AF0BA95C9F712C0B13019
:1046E00081F0C3D0B1E00895C0C0672F782F88272C
:1046F000B85F39F0B93FCCF3869577956795B39558
:10470000D9F73EF490958095709561957F4F8F4FC6
:104710009F4F0895E89409C097FB3EF490958095CB
:10472000709561957F4F8F4F9F4F9923A9F0F92F77
:1047300096E9BB279395F695879577956795B795F5
:10474000F111F8CFFAF4BB0F11F460FF1BC06F5FDB
:104750007F4F8F4F9F4F16C0882311F096E911C0ED
:10476000772321F09EE8872F762F05C0662371F00E
:1047700096E8862F70E060E02AF09A95660F771F22
:10478000881FDAF7880F9695879597F90895990FFE
:104790000008550FAA0BE0E8FEEF16161706E8070B
:1047A000F907C0F012161306E407F50798F0621B2C
:1047B000730B840B950B39F40A2661F0232B242B01
:1047C000252B21F408950A2609F4A140A6958FEF20
:1047D000811D811D089597F99F6780E870E060E072
:1047E00008959FEF80EC089500240A94161617068A
:1047F00018060906089500240A94121613061406D2
:1048000005060895092E0394000C11F4882352F034
:10481000BB0F40F4BF2B11F460FF04C06F5F7F4FEC
:104820008F4F9F4F089557FD9058440F551F59F0D3
:104830005F3F71F04795880F97FB991F61F09F3F8D
:1048400079F087950895121613061406551FF2CFB6
:104850004695F1DF08C0161617061806991FF1CF06
:1048600086957105610508940895E894BB2766272D
:104870007727CB0197F908958ADF08F48FEF089521
:10488000DADFA8F19E57A8F1985160F039F198301D
:1048900070F5092E9927660F771F881F991F0A94B4
:1048A000D1F71CC0BB27993F4CF4B111B1E0B62B36
:1048B000672F782F8827985FB1F708C0869577957E
:1048C0006795B79508F4B1609395C1F7BB0F30F4C5
:1048D00011F460FF03C06F5F7F4F8F4F3EF49095E0
:1048E0008095709561957F4F8F4F9F4F0895689485
:1048F000BDCFBBCF0BD086CF77DF28F07CDF18F0A1
:10490000952309F068CF6DCF1124B0CF8CDFA0F3D1
:10491000959FD1F3950F50E0551F629FF001729F54
:10492000BB27F00DB11D639FAA27F00DB11DAA1F73
:10493000649F6627B00DA11D661F829F2227B00DC0
:10494000A11D621F739FB00DA11D621F839FA00D4B
:10495000611D221F749F3327A00D611D231F849F9B
:10496000600D211D822F762F6A2F11249F575040F2
:104970008AF0E1F088234AF0EE0FFF1FBB1F661F8D
:10498000771F881F91505040A9F79E3F510570F046
:1049900022CF6CCF5F3FECF3983EDCF386957795A2
:1049A0006795B795F795E7959F5FC1F7FE2B880F41
:1049B000911D9695879597F90895FA01EE0FFF1FBF
:1049C00030962105310599F16115710561F4803842
:1049D000BFE39B0749F168949038810561F0803806
:1049E000BFEF9B0741F0992342F5FF3FE1053105F9
:1049F000210511F1E8940894E795D901AA2329F437
:104A0000AB2FBE2FF85FD0F310C0FF5F70F4A695F8
:104A1000E0F7F73950F019F0FF3A38F49F779F9399
:104A20000CD00F9007FC905808953EF0DACE60E06D
:104A300070E080E89FE308954FE79F775F934F937F
:104A40003F932F939ED02F913F914F915F9152DFD3
:104A500005C019F40EF0BFCE08CFC3CEECDEC8F30C
:104A60009638C0F707F80F92E8942BE33AEA48EB40
:104A70005FE74EDF0F920F920F924DB75EB70F9226
:104A8000C0D0E8ECF0E016D04F915F91EF91FF912C
:104A9000E595EE1FFF1F49F0FE57E0684427EE0F33
:104AA000441FFA95E1F74195550B32D00F9007FE60
:104AB00026C00895DF93CF931F930F93FF92EF9239
:104AC000DF927B018C01689405C0DA2EEF011EDFB6
:104AD000FE01E894A5912591359145915591AEF34C
:104AE000EF0128DDFE019701A801DA9479F7DF9044
:104AF000EF90FF900F911F91CF91DF9108959B014F
:104B0000AC0160E070E080E89FE36BCD64CEACC0A8
:104B100092DEE8F39923D9F3940F511DBBF3915022
:104B2000504094F059F0882332F0660F771F881FA9
:104B300091505040C1F79E3F510544F7880F911D99
:104B40009695879597F908955F3FACF0983E9CF055
:104B5000BB27869577956795B79508F4B1609395CF
:104B6000C1F7BB0F58F711F460FFE8CF6F5F7F4FBD
:104B70008F4F9F4FE3CF7ACE0EF076C032CE68943F
:104B80002ACE59DEC8F39923D1F3C6F3DF93CF932E
:104B90001F930F93FF92C92FDD2788232AF02197B7
:104BA000660F771F881FDAF720E030E040E85FEB00
:104BB0009FE3883920F0803E30F021968F77A9DC82
:104BC000E0EFF0E003C0A5DCEDE1F1E073DF8B0185
:104BD000BE01EC01FB2E6F5771097595771F880B8D
:104BE000990B9ADD28E132E741E35FE38FDEAF2DD9
:104BF0009801AE01FF900F911F91CF91DF919ADC48
:104C000001CEFA01DC01AA0FBB1F9B01AC01BF570B
:104C100028F422273327442750781FC0B75188F43F
:104C2000AB2F0024469537952795011CA395D2F309
:104C3000002069F0220F331F441FB395DAF30DD023
:104C400067CC61307105A0E88A07B94630F49B0152
:104C5000AC016627772788279078309621F020834B
:104C600031834283538308959F3F31F0915020F464
:104C7000879577956795B795880F911D9695879538
:104C800097F90895A1E1B0E0E7E4F6E2B7C33C018B
:104C90007F876E876A01FC0117821682838181FDFE
:104CA00003C06FEF7FEF52C39E012F5F3F4F398BE1
:104CB000288BF3012381EE85FF8523FD859123FF5A
:104CC0008191FF87EE87882309F43DC3853251F433
:104CD000EE85FF8523FD859123FF8191FF87EE8778
:104CE000853221F490E0B30120D6E3CF982F10E075
:104CF000882499241032B0F49B3269F09C3228F455
:104D0000903251F0933271F40BC09D3239F09033F0
:104D100049F4116028C01260146025C0186023C0D7
:104D2000106121C017FD2AC0892F80538A3078F482
:104D300016FF06C0FAE09F9E902C1124980E13C017
:104D40003AE0839E802C1124880E10620CC09E32A3
:104D500021F416FDF8C2106406C09C3611F41068E8
:104D600002C0983659F4EE85FF8523FD959123FF07
:104D70009191FF87EE87992309F0BCCF892F855445
:104D8000833020F4812F8061905E07C0892F855683
:104D9000833008F08FC1812F8F7E86FD02C076E0C0
:104DA000972E6FE3F62EF822953619F4F0E4FF2AD9
:104DB00007C0963619F420E8F22A02C091109A949E
:104DC000F7FE0AC03BE3391518F45CE3B52E02C0C8
:104DD000B92CB39427E009C047E0491520F4BB245F
:104DE00047E0942EF7CF292DBB24C60104969D875A
:104DF0008C87F6016081718182819381AE014F5F62
:104E00005F4F0B2DA4D46C010981202E332400FFA9
:104E100004C003FD02C01DE209C0F1FE02C01BE296
:104E200005C0F2FC02C010E001C010E2C1018C70AC
:104E30009070892BA1F1112311F483E001C084E06B
:104E4000881510F0882409C0881AF3FC06C080E297
:104E500090E0B3016AD58A94D1F7112321F0812F14
:104E600090E0B30162D523FE03C00FE515E00DC04D
:104E700003E615E00AC0E114F10409F0805290E065
:104E8000B30153D50F5F1F4F05C0EF2CFF24F0E196
:104E9000EF22FF24F8018491882369F708C1F7FE07
:104EA00012C0BC0C24FE04C08A81813309F4BA9478
:104EB0001B141CF0BB24B3942DC0F8E0FB1550F577
:104EC00038E0B32E27C0F6FC25C0892D90E08C1564
:104ED0009D054CF02CEFC2162FEFD20624F030E8DF
:104EE000F32A01C09A94992049F0E2E0F0E0EC0F37
:104EF000FD1FE90DF11D80818033A1F3F7FE0AC08B
:104F0000B92CB394892D90E0C816D90614F09924D1
:104F100001C09C18F7FC03C025E030E009C01C1458
:104F20001D041CF021E030E003C096012F5F3F4FCD
:104F3000112311F02F5F3F4F992029F0892D90E028
:104F40000196280F391F882D90E02817390714F093
:104F5000882401C0821A4F2C5524C2018970907098
:104F6000892B31F007C080E290E0B301DED48A944F
:104F70008820C9F7112321F0812F90E0B301D5D407
:104F800043FE06C007C080E390E0B301CED48A940C
:104F90008820C9F7F7FE44C08601D7FE02C000E0B2
:104FA00010E076010894E11CF11CE01AF10A41E0DE
:104FB00050E04C0F5D1FE40EF51E26014B18510802
:104FC000892D90E0AA24BB24A81AB90A5FEF0F3FED
:104FD000150721F48EE290E0B301A7D4C016D106E4
:104FE00034F0401651061CF4F701808101C080E3C3
:104FF000015010400894E11CF11C0A151B0524F017
:1050000090E0B30192D4E2CF0C151D0539F49A81DA
:10501000963318F4953311F424FE81E390E045C0F3
:105020008A81813309F00F7E90E0B3017ED499200C
:1050300091F08EE290E0B30178D412E0E1E0F0E08C
:10504000EC0FFD1FE10FF11D1F5F808190E0B301A8
:105050006CD49A9499F744FC03C085E690E002C0B2
:1050600085E490E0B30161D4D7FC05C0C114D1043C
:1050700041F404FF06C0D094C194D108D3948DE2CA
:1050800001C08BE290E0B30150D480E305C08F5F94
:1050900026EF3FEFC20ED31E3AE0C316D104BCF791
:1050A00090E0B30142D4C601C096B3013ED4CC8493
:1050B000DD8446C1933631F0933799F0933509F08A
:1050C00055C022C0F601808189835E010894A11C2D
:1050D000B11C22E030E0C20ED31E21E0E22EF12C02
:1050E00011C0F601A080B18016FD03C06FEF7FEF05
:1050F00002C0692D70E022E030E0C20ED31EC5016F
:1051000009D47C011F7712C0F601A080B18016FD82
:1051100003C06FEF7FEF02C0692D70E022E030E046
:10512000C20ED31EC501EBD37C01106813FF06C06D
:1051300019C080E290E0B301F8D38A94882D90E002
:10514000E816F906B0F30EC0F50117FD859117FFBB
:1051500081915F0190E0B301E8D381108A940894B3
:10516000E108F108E114F10479F7EAC0943611F08E
:10517000993681F517FF08C0F601208131814281FF
:10518000538184E090E00AC0F601808191819C0106
:10519000442737FD4095542F82E090E0C80ED91E79
:1051A0009FE6F92EF12257FF09C0509540953095A2
:1051B00021953F4F4F4F5F4F90E8F92ACA01B9013F
:1051C000AE014F5F5F4F2AE030E010D4E82EE8894F
:1051D000EE1A40C0953721F41F7E2AE030E01CC053
:1051E000197F9F3661F0903720F4983509F0ABC0F5
:1051F0000FC0903739F0983709F0A5C004C028E0F7
:1052000030E00AC0106114FD146020E130E004C0F9
:1052100014FD166020E132E017FF08C0F60160813E
:1052200071818281938144E050E008C0F601808161
:105230009181BC0180E090E042E050E0C40ED51EB8
:10524000AE014F5F5F4FD2D3E82E5889E51A8FE742
:10525000F82EF122F6FE0BC08EEFF822E91438F496
:10526000F4FE07C0F2FC05C09FEEF92202C01E2D1D
:1052700001C0192DF4FE0DC0FE01EE0DF11D80815F
:10528000803319F4E9EEFE2208C01F5FF2FE05C06C
:1052900003C08F2D867809F01F5F0F2DF3FC13C01C
:1052A000F0FE0EC0181510F09E2C0AC09E2C980C13
:1052B000911A182D05C080E290E0B30136D31F5F2C
:1052C0001815C8F304C0181510F4811A01C08824F9
:1052D00004FF0EC080E390E0B30127D302FF1BC0A0
:1052E00001FD03C088E790E00EC088E590E00BC0A8
:1052F000802F867881F001FF02C08BE201C080E23E
:10530000F7FC8DE290E0B30110D305C080E390E09C
:10531000B3010BD39A94E914C8F3EA94E1E0F0E006
:10532000EC0FFD1FEE0DF11D808190E0B301FDD269
:10533000EE2099F705C080E290E0B301F6D28A949E
:105340008820C9F7B6CCF30166817781CB016196DD
:10535000E2E170C0629FD001739FF001829FE00D77
:10536000F11D649FE00DF11D929FF00D839FF00DE4
:10537000749FF00D659FF00D9927729FB00DE11D90
:10538000F91F639FB00DE11DF91FBD01CF0111246D
:10539000089597FB092E07260AD077FD04D065D023
:1053A00006D000201AF4709561957F4F0895F6F7A6
:1053B000909581959F4F0895A1E21A2EAA1BBB1BC1
:1053C000FD010DC0AA1FBB1FEE1FFF1FA217B307D1
:1053D000E407F50720F0A21BB30BE40BF50B661FE7
:1053E000771F881F991F1A9469F7609570958095AB
:1053F00090959B01AC01BD01CF0108952F923F9282
:105400004F925F926F927F928F929F92AF92BF92D4
:10541000CF92DF92EF92FF920F931F93CF93DF9380
:10542000CDB7DEB7CA1BDB0B0FB6F894DEBF0FBEDD
:10543000CDBF09942A88398848885F846E847D842A
:105440008C849B84AA84B984C884DF80EE80FD802C
:105450000C811B81AA81B981CE0FD11D0FB6F894A2
:10546000DEBF0FBECDBFED010895AA1BBB1B51E1EE
:1054700007C0AA1FBB1FA617B70710F0A61BB70BC4
:10548000881F991F5A95A9F780959095BC01CD0169
:105490000895CF93DF93BC018230910510F462E050
:1054A00070E0A091A504B091A604ED01E0E0F0E069
:1054B00040E050E021C0888199818617970769F400
:1054C0008A819B81309719F09383828304C09093E3
:1054D000A6048093A504FE0134C06817790738F448
:1054E0004115510519F08417950708F4AC01FE0128
:1054F0008A819B819C01E9012097E9F641155105BC
:10550000A9F1CA01861B970B049708F4BA01E0E0E1
:10551000F0E02AC08D919C91119784179507F9F4BA
:105520006417750781F412968D919C9113973097AB
:1055300019F09383828304C09093A6048093A504FA
:10554000FD0132964FC0CA01861B970BFD01E80F83
:10555000F91F6193719302978D939C9343C0FD0152
:10556000828193819C01D9011097A1F68091A304B7
:105570009091A404892B41F48091A2019091A30100
:105580009093A4048093A3044091A4015091A50199
:105590004115510541F44DB75EB78091A00190913E
:1055A000A101481B590B2091A3043091A404241796
:1055B0003507B0F4CA01821B930B8617970780F05A
:1055C000AB014E5F5F4F8417950750F0420F531F9A
:1055D0005093A4044093A304F9016193719302C012
:1055E000E0E0F0E0CF01DF91CF910895CF93DF931A
:1055F000009709F450C0EC0122971B821A82A091F7
:10560000A504B091A604109709F140E050E0AC1752
:10561000BD0708F1BB83AA83FE0121913191E20FFE
:10562000F31FAE17BF0779F48D919C911197280F46
:10563000391F2E5F3F4F3983288312968D919C919D
:1056400013979B838A834115510571F4D093A60467
:10565000C093A50420C012968D919C911397AD0123
:10566000009711F0DC01D3CFFA01D383C2832191DB
:105670003191E20FF31FCE17DF0769F4888199811A
:10568000280F391F2E5F3F4FFA01318320838A8113
:105690009B8193838283DF91CF910895A0E0B0E056
:1056A000E3E5FBE2B3CEEC01A880B980CA80DB80E1
:1056B000A114B104C104D10441F484E2A82E89EDFF
:1056C000B82E8BE5C82E87E0D82EC601B5012DE196
:1056D00033EF41E050E0E8D127EA31E440E050E028
:1056E00039DE7B018C01C601B5012DE133EF41E0CC
:1056F00050E0DAD1CA01B9012CEE34EF4FEF5FEF81
:1057000029DE6E0D7F1D801F911F97FF04C0615021
:10571000704080409048688379838A839B839B0193
:105720003F77C901CDB7DEB7EAE08CCEB7DF089589
:1057300086EA91E0B3DF0895A0E0B0E08093A6018F
:105740009093A701A093A801B093A90108952830D0
:1057500008F027E03327DA01990F311D87FD9160AA
:1057600000966105710539F432602E5F3D9330E398
:105770002A95E1F708959F3F30F080387105610563
:1057800009F03C5F3C5F3D93913008F08068911DCB
:10579000DF93CF931F930F93FF92EF92192F987F70
:1057A0009695E92F96959695E90FFF27EF53FA4FB7
:1057B00099273327EE24FF24A701E70105900894D9
:1057C000079428F4360FE71EF81E491F511D660F77
:1057D000771F881F991F0694A1F70590079428F456
:1057E000E70EF81E491F561FC11D770F881F991F0E
:1057F000661F0694A1F70590079428F4F80E491F38
:10580000561FC71FD11D880F991F661F771F06944B
:10581000A1F70590079420F4490F561FC71FD81F02
:10582000990F661F771F881F0694A9F7849110951A
:10583000177041F0D695C79557954795F794E7941B
:105840001A95C1F7E7E6F5E0689415901591359142
:105850006591959105907FE27395E118F10A430BEC
:10586000560BC90BD009C0F7E10CF11E431F561FA0
:10587000C91FD01D7EF4703311F48A95E6CFE894E9
:10588000015030F0080F0AF40027021708F4202F07
:105890002395022F7A3328F079E37D932A95E9F74F
:1058A00010C07D932A9589F606949795679537954C
:1058B00017951794E118F10A430B560BC90BD00941
:1058C00098F023957E9173957A3308F070E37C937A
:1058D0002013B8F77E9170617D9330F0839571E36A
:1058E0007D9370E32A95E1F71124EF90FF900F91DB
:1058F0001F91CF91DF91992787FD90950895FC0125
:105900000590615070400110D8F7809590958E0FEA
:105910009F1F0895FC016150704001900110D8F75D
:10592000809590958E0F9F1F08950F931F93CF938F
:10593000DF938C01EB018B8181FF1BC082FF0DC0C7
:105940002E813F818C819D812817390764F4E8817D
:10595000F9810193F983E88306C0E885F985802FF2
:105960000995892B31F48E819F8101969F838E83C7
:1059700002C00FEF1FEFC801DF91CF911F910F9170
:1059800008950F931F93CF93DF938C01E091A904A7
:10599000F091AA04838181FF21C0C0E0D0E00DC056
:1059A000E091A904F091AA0420853185BF01F90195
:1059B0000995892B11F0CFEFDFEFF80181918F016D
:1059C000882371F7E091A904F091AA04208531851C
:1059D0008AE0BF01F9010995892B11F0CFEFDFEFC4
:1059E000CE01DF91CF911F910F910895FA01AA275F
:1059F000283051F1203181F1E8946F936E7F6E5F12
:105A00007F4F8F4F9F4FAF4FB1E03ED0B4E03CD0BF
:105A1000670F781F891F9A1FA11D680F791F8A1FA2
:105A2000911DA11D6A0F711D811D911DA11D20D009
:105A300009F468943F912AE0269F11243019305DC3
:105A40003193DEF6CF010895462F4770405D4193B4
:105A5000B3E00FD0C9F7F6CF462F4F70405D4A3301
:105A600018F0495D31FD4052419302D0A9F7EACFC9
:105A7000B4E0A6959795879577956795BA95C9F7F8
:105A800000976105710508959B01AC010A2E0694EB
:105A90005795479537952795BA95C9F7620F731FA4
:105AA000841F951FA01D089597FB092E05260ED073
:105AB00057FD04D081DC0AD0001C38F45095409585
:105AC000309521953F4F4F4F5F4F0895F6F79095D2
:105AD0008095709561957F4F8F4F9F4F0895F894F3
:025AE000FFCFF6
