:100000000C9431030C944E030C944E030C944E0349
:100010000C9439210C9462210C948B210C94B42102
:100020000C944E030C941A200C9443200C946C20D6
:100030000C94E7200C9495200C94BE200C94102175
:100040000C949F1F0C94C81F0C94F11F0C944E032A
:100050000C944E030C944E030C944E030C944E03DC
:100060000C944E030C944E030C944E030C944E03CC
:100070000C944E030C944E030C944E03041D071D68
:100080000A1D0D1D161D101D131D191D1C1D1F1DE4
:10009000221D251D281D2B1D2E1D311D341D371D14
:1000A0003A1D4B1D4E1D511D541D5D1D571D5A1DE2
:1000B000601D631D661D691D6C1D6F1D721D751D04
:1000C000781D7B1D7E1D811D07634236B79BD8A717
:1000D0001A39685618AEBAAB558C1D3CB7CC57636D
:1000E000BD6DEDFD753EF6177231BF000000803F1B
:1000F00008000000BE922449123EABAAAA2ABECD37
:10010000CCCC4C3E00000080BEABAAAAAA3E0000A8
:100110000000BF000000803F0000000000084178A0
:10012000D3BB4387D1133D190E3CC3BD4282AD2BD7
:100130003E68EC8276BED98FE1A93E4C80EFFFBECF
:1001400001C4FF7F3F000000000016050100000011
:1001500000000000FA000000E000E00028FE28FE99
:10016000282454FE5448C4C81026466C92AA44A0C1
:1001700000A0C000000038448200008244380028FB
:10018000107C102810107C1010000A0C00001010B9
:10019000101010000606000004081020407C8A920F
:1001A000A27C0042FE020042868A92628482A2D22F
:1001B0008C182848FE08E4A2A2A29C3C5292920C01
:1001C000808E90A0C06C9292926C60929294780013
:1001D0006C6C0000006A6C00001028448200282823
:1001E000282828008244281040808A90604C929EE3
:1001F000827C7E8888887EFE9292926C7C8282824B
:1002000044FE82824438FE92929282FE90909080C8
:100210007C8292925EFE101010FE0082FE8200042C
:100220000282FC80FE10284482FE02020202FE408E
:100230003040FEFE201008FE7C8282827CFE909080
:1002400090607C828A847AFE909894626292929204
:100250008C8080FE8080FC020202FCF8040204F81C
:10026000FC021C02FCC6281028C6E0100E10E08616
:100270008A92A2C200FE82820040201008040082FE
:1002800082FE0020408040200202020202008040E4
:100290002000042A2A2A1EFE1222221C1C222222AC
:1002A000041C222212FE1C2A2A2A18107E9080404A
:1002B000304A4A4A7CFE1020201E0022BE02000462
:1002C0000222BC00FE081422000082FE02003E2032
:1002D00018201E3E1020201E1C2222221C3E2828F0
:1002E0002810102828183E3E10202010122A2A2AF2
:1002F0000420FC2202043C0202043E3804020438BA
:100300003C020C023C2214081422300A0A0A3C2245
:10031000262A322200106C82000000FE00000082BB
:100320006C1000081010081000000000007F818190
:10033000817F7F8383837F7F8787877F7F8F8F8F77
:100340007F7F9F9F9F7F7FBFBFBF7F7FFFFFFF7F1D
:100350002040FF4020621517156500FBFB000000E0
:1003600000000000C0FF0300E0FF0700F0FF0F00E7
:10037000F8FF1F0078001E0078001E0078001E00A5
:1003800078001E0078001E0078001E0078001E0015
:1003900078001E0078001E00000000000000000031
:1003A00080FF0300E0FF0700F0FF0F00F8FF1F00D1
:1003B000F83C1F00783C1E00783C1E00783C1E0074
:1003C000783C1E00783C1E00783C1E00783C1E00E5
:1003D000783C1E00783C1E00783C1E0000000000A7
:1003E00000000000E0FF0300F0FF0700F8FF0F002F
:1003F000F8FF1F00783C1E00783C1E00783C1E0071
:10040000783C1E00783C1E00783C1E00783C1E00A4
:10041000783C1E00783C1E00783C1E000000000066
:1004200000000000F8FF0300F8FF0F00F8FF1F00B6
:10043000F8FF1F0000001E0000001E0000801F00CB
:1004400000F01F0000FF0F00E0FF0700F0FF0000BA
:10045000F80F0000F80000007800000078000000AD
:10046000F8FF1F00F8FF1F00F0FF1F00E0FF1F0054
:100470000000000000000000F8FF1F00F8FF1F0050
:10048000F8FF1F00F8FF1F0078001E00783C1E00D8
:10049000783C1E00783C1E00783C1E00783C1E0014
:1004A000783C1E00F87E1F00F8FF1F00F0FF0F00D1
:1004B000E0E703000000000000003800EEFF6C00E1
:1004C0002A8045003A0047FC03FF6CFC83FF39009B
:1004D000DEFF0B7CD0810BFCD0810BC0D0810BFCEC
:1004E000D0810B7CDEFF0B0082FF397002FF6CF8BD
:1004F0003A0047DC2A8045CCEEFF6CCC0000380087
:100500000000000C00001E0C00001E0000001E0079
:1005100000001E0000001E00F8FF1F00F8FF1F0073
:10052000F8FF1F00F8FF1F0000001E0000001E0063
:1005300000001E0000001E0000005E0000004000E1
:1005400000007C00000040000000400000007C0033
:1005500000003000000010000000300000007C6E41
:10056000616E00696E660000407A10F35A00A07256
:100570004E18090010A5D4E80000E87648170000DE
:10058000E40B54020000CA9A3B000000E1F50500AC
:100590000080969800000040420F000000A08601F5
:1005A000000000102700000000E8030000000064C5
:1005B00000000000000A0000000000010000000030
:1005C000002C76D888DC674F0823DFC1DFAE59E105
:1005D000B1B796E5E3E453C63AE651997696E8E674
:1005E000C28426EB898C9B62ED407C6FFCEFBC9C47
:1005F0009F40F2BAA56FA5F490055A2AF75C936B59
:100600006CF9676DC11BFCE0E40D47FEF520E6B513
:1006100000D0ED902E0300943577050080841E08ED
:100620000000204E0A000000C80C333333330F980B
:100630006E12831141EF8D2114893BE65516CFFED2
:10064000E6DB18D1844B381BF77C1D901DA4BBE45E
:1006500024203284725E228100C9F124ECA1E53DA0
:10066000270011241FBECFEFD8E0DEBFCDBF13E0BF
:10067000A0E0B1E0E8E8FAE602C005900D92AE3ED7
:10068000B107D9F717E0AEEEB3E001C01D92A93271
:10069000B107E1F70E9489170C9442350C940000D1
:1006A0001F93CF93DF93EC0188E660E00E94031F65
:1006B000182F8823A1F481E00E94DD1E182F8823C3
:1006C00071F488E661E00E94031F182F882339F433
:1006D000CE0160E00E94B11E182F811118820E9485
:1006E000491F812FDF91CF911F9108951F93CF93C1
:1006F000DF93EC0188E660E00E94031F182F882337
:10070000A1F489E00E94DD1E182F882371F488E689
:1007100061E00E94031F182F882339F4CE0160E0A6
:100720000E94B11E182F811118820E94491F812F2B
:10073000DF91CF911F9108951F93CF93DF93EC0129
:1007400088E660E00E94031F182F8823A1F488E048
:100750000E94DD1E182F882371F488E661E00E9454
:10076000031F182F882339F4CE0160E00E94B11EC8
:10077000182F811118820E94491F812FDF91CF917C
:100780001F9108951F93CF93DF93EC0188E660E0FB
:100790000E94031F182F8823A1F487E00E94DD1E0A
:1007A000182F882371F488E661E00E94031F182F38
:1007B000882339F4CE0160E00E94B11E182F811108
:1007C00018820E94491F812FDF91CF911F910895B8
:1007D0001F93CF93DF93EC0188E660E00E94031F34
:1007E000182F8823A1F486E00E94DD1E182F88238D
:1007F00071F488E661E00E94031F182F882339F402
:10080000CE0160E00E94B11E182F811118820E9453
:10081000491F812FDF91CF911F9108951F93CF938F
:10082000DF93EC0188E660E00E94031F182F882305
:10083000A1F485E00E94DD1E182F882371F488E65C
:1008400061E00E94031F182F882339F4CE0160E075
:100850000E94B11E182F811118820E94491F812FFA
:10086000DF91CF911F9108951F93CF93DF93EC01F8
:1008700088E660E00E94031F182F8823A1F484E01B
:100880000E94DD1E182F882371F488E661E00E9423
:10089000031F182F882339F4CE0160E00E94B11E97
:1008A000182F811118820E94491F812FDF91CF914B
:1008B0001F9108951F93CF93DF93EC0188E660E0CA
:1008C0000E94031F182F8823A1F483E00E94DD1EDD
:1008D000182F882371F488E661E00E94031F182F07
:1008E000882339F4CE0160E00E94B11E182F8111D7
:1008F00018820E94491F812FDF91CF911F91089587
:100900001F93CF93DF93EC0188E660E00E94031F02
:10091000182F8823A1F482E00E94DD1E182F88235F
:1009200071F488E661E00E94031F182F882339F4D0
:10093000CE0160E00E94B11E182F811118820E9422
:10094000491F812FDF91CF911F9108951F93CF935E
:10095000DF93EC0188E660E00E94031F182F8823D4
:10096000A1F480E00E94DD1E182F882371F488E630
:1009700061E00E94031F182F882339F4CE0160E044
:100980000E94B11E182F811118820E94491F812FC9
:10099000DF91CF911F91089581E00E947E1785E03D
:1009A0000E9447170E942A17A0E0B0E0BC01CD01C9
:1009B0000E944B2B20E030E040EA50E40E944A2A9B
:1009C0009B01AC0160E070E286E395E40E94B22AEC
:1009D00020E030E040E85FE30E94492A089581E08A
:1009E0000E947E1787E00E9447170E942A17A0E006
:1009F000B0E0BC01CD010E944B2B20E030E040EA8A
:100A000050E40E944A2A9B01AC0160E070E286E358
:100A100095E40E94B22A20E030E040E85FE30E94C3
:100A2000492A089581E00E947E1783E00E944717BB
:100A30000E942A17A0E0B0E0BC01CD010E944B2B20
:100A400020E030E040EA50E40E944A2A9B01AC01D9
:100A500060E070E286E395E40E94B22A20E030E094
:100A600040E85FE30E94492A089581E00E947E17D2
:100A700084E00E9447170E942A17A0E0B0E0BC0162
:100A8000CD010E944B2B20E030E040EA50E40E9470
:100A90004A2A9B01AC0160E070E286E395E40E9483
:100AA000B22A20E030E040E85FE30E94492A08953E
:100AB00081E00E947E1785E00E9447170E942A1756
:100AC000A0E0B0E0BC01CD010E944B2B20E030E063
:100AD00040EA5BE30E943B2C089581E00E947E1770
:100AE00086E00E9447170E942A17A0E0B0E0BC01F0
:100AF000CD010E944B2B20E030E040EA5BE30E94F6
:100B00003B2C08950F931F9381E080936A0480E04B
:100B10000E94B51D082F81E00E94B51D182F82E0AC
:100B20000E94B51D113019F422E030E006C020E02B
:100B300030E0013011F421E030E0813011F423E0A5
:100B400030E0C9011F910F910895FF920F931F93F9
:100B5000CF93DF930E94921781E080936A0480E034
:100B60000E94B51D182F81E00E94B51D082F82E05C
:100B70000E94B51DF82E113019F0C0E0D0E013C06E
:100B800080E091E00E94943480E20E94A11884EFFA
:100B900091E00E94521E80E40E948C1880E20E9424
:100BA0008C18C1E0D0E0013099F48CE091E00E9413
:100BB000943480E40E94A11884EF91E00E94521EB8
:100BC00080E40E948C1880E20E948C18C2E0D0E081
:100BD00081E0F816B1F488E191E00E94943480E459
:100BE0000E94A11880E20E94A11884EF91E00E9467
:100BF000521E80E40E948C1880E20E948C18C3E090
:100C0000D0E00E949217CE01DF91CF911F910F91FA
:100C1000FF9008951F93182F20916C046091A606F1
:100C200070E0620F711D75956795882777FD809537
:100C3000982F0E944D2B2CED38EB48E05EE30E948C
:100C40003B2C0E941F2B20916D05261710F01123BD
:100C500039F081E0809318061092A60610926C0479
:100C60001F910895EF92FF920F931F936091E604F6
:100C70007091E7048091E8049091E90420E030E06D
:100C800040E551E40E94AE2AF82EFF1CFF24FF1C11
:100C9000FF0CFF0CFF0C60911406709115068091FB
:100CA00016069091170620E030E040EF51E40E94D4
:100CB000AE2A082F001F0027001F000F000F6091B1
:100CC000F0047091F1048091F2049091F30420E01B
:100CD00030E04CE052E40E94AE2A182F111F112779
:100CE000111F110FEE246091190670911A06809160
:100CF0001B0690911C0620E030E040EF51E40E947A
:100D0000AE2A882314F4EE24E3948F2D8E0D800FE9
:100D1000810F8093EE042091EF04E22FF0E0EB5678
:100D2000F94F91819093F404891719F42F5F209360
:100D3000EF041F910F91FF90EF9008952F923F9233
:100D40004F925F926F927F928F929F92AF92BF92DB
:100D5000CF92DF92EF92FF920F931F93DF93CF9387
:100D600000D000D0CDB7DEB76090E6047090E70405
:100D70008090E8049090E904A090F004B090F10411
:100D8000C090F204D090F304E0901906F0901A0697
:100D900000911B0610911C06809114069091150677
:100DA000A0911606B091170689839A83AB83BC8302
:100DB000C801B70129813A814B815C810E94492A8F
:100DC0001B012C01C401B30120E030E040EE50E4EF
:100DD0000E94AE2A87FD0BC0C601B50120E030E0BD
:100DE00040EE50E40E94AE2A88230CF068C0C40193
:100DF000B301A60195010E94492A7B018C01772449
:100E000020E030E040E050E00E94FD2B882314F009
:100E100077247394C801B7010E941A2B9B0177FFB6
:100E200003C0309521953F4FB901882777FD809504
:100E3000982F0E944D2B6B017C01ADB7BEB719975F
:100E40000FB6F894BEBF0FBEADBF0DB71EB70F5F94
:100E50001F4FA20191010E944A2A0E941F2B4B01A1
:100E60005C0182E390E0F80191838083C701B601C1
:100E7000A20191010E94492A0E941F2BD8011396BA
:100E80007C936E93129782EC91E015969C938E93CF
:100E9000149716961C92169718961C921E921797E6
:100EA00081E062E0472D22E330E0840172ECE72E1E
:100EB00071E0F72ECC24AA24BB24872C82C0C80161
:100EC000B70120E030E040E251E40E94AE2A8823DE
:100ED000B4F5C201B1010E941A2B8B0177FF03C048
:100EE000109501951F4F2DB73EB7295030400FB6D2
:100EF000F8943EBF0FBE2DBFEDB7FEB7319688EC1C
:100F000090E0ADB7BEB712969C938E931197138362
:100F1000028382EC91E09583848316821086178287
:100F200081E062E040E028EC30E052ECE52E51E058
:100F3000F52ECC24AA24BB248824839442C0698142
:100F40007A818B819C8120E030E040E251E40E9474
:100F5000AE2A87FD02C080E03FC0C201B1010E94FD
:100F60001A2B8B0177FF03C0109501951F4F2DB7EA
:100F70003EB7295030400FB6F8943EBF0FBE2DBF8C
:100F8000EDB7FEB7319688EC90E0ADB7BEB71296DC
:100F90009C938E9311971383028382EC91E0958347
:100FA000848316821086178281E062E041E028EC9B
:100FB00030E092ECE92E91E0F92ECC24AA24BB2457
:100FC00088240E94731A81E0EDB7FEB739960FB6F8
:100FD000F894FEBF0FBEEDBF0F900F900F900F90D3
:100FE000CF91DF911F910F91FF90EF90DF90CF9005
:100FF000BF90AF909F908F907F906F905F904F9039
:101000003F902F9008958F92AF92BF92CF92DF9230
:10101000EF92FF920F931F93CF93DF930E94AB1930
:10102000672B09F076C0892B09F073C00E945933F1
:101030008C010E945933EC010E9459337C010E94BB
:10104000593320E06AE070E00E948A3108970CF082
:1010500021E0822E8094C80160E971E00E948A310B
:10106000F0E9AF2EF1E0BF2EA80EB91E8DB79EB7E6
:1010700009970FB6F8949EBF0FBE8DBF0DB71EB770
:101080000F5F1F4FC70168EC70E00E948A318853E0
:101090009F4FAA2797FDA095BA2FBC01CD010E94B2
:1010A0004D2B0E941F2B6B017C01F801B182A082A5
:1010B000CE0168EC70E00E948A3188539F4FAA27C6
:1010C00097FDA095BA2FBC01CD010E944D2B0E9427
:1010D0001F2BF8017383628382EC91E095838483F4
:1010E00016821086178281E062E0482D9501860104
:1010F000E2ECEE2EE1E0FE2ECC24AA24BB240E94DA
:10110000731A8DB79EB709960FB6F8949EBF0FBE9F
:101110008DBF81E0DF91CF911F910F91FF90EF90F4
:10112000DF90CF90BF90AF908F9008952F923F9215
:101130004F925F926F927F928F929F92AF92BF92E7
:10114000CF92DF92EF92FF920F931F93E090E6040D
:10115000F090E7040091E8041091E9043324C801F9
:10116000B70120E030E040E050E00E94AE2A882342
:1011700014F433243394A0901906B0901A06C0904A
:101180001B06D0901C0640901406509015066090E7
:1011900016067090170688246091F0047091F1048F
:1011A0008091F2049091F30420E030E040E751E4B4
:1011B0000E94AE2A882314F488248394932C9828C0
:1011C0008824C601B50120E030E040E251E40E94ED
:1011D000AE2A882314F48824839498288824C30191
:1011E000B20120E030E040E251E40E94AE2A8823C0
:1011F00014F488248394292C282881F460E070E07A
:1012000080E09FE420E030E040E251E479018A018F
:1012100059016A0188240E944A110FC1C601B50113
:1012200020E030E040E251E40E94FD2B181664F407
:1012300080E090E0A0E0B1EC8093190690931A064C
:10124000A0931B06B0931C06C301B20120E030E05E
:1012500040E251E40E94FD2B181614F080E00DC00E
:1012600080E090E0A0E0B1EC809314069093150626
:10127000A0931606B093170681E0332021F188234E
:1012800029F060E070E08AE794E404C060E070E078
:101290008AE794ECA80197010E94B22A20911406D3
:1012A0003091150640911606509117060E944A2A61
:1012B0009B01AC016091190670911A0680911B0682
:1012C00090911C0610C06091190670911A068091C9
:1012D0001B0690911C062091140630911506409132
:1012E0001606509117060E94492A905840E00E9425
:1012F000D6106B017C010E941A2B8B0177FF03C073
:10130000109501951F4F05361105FCF0C701B60178
:1013100020E030E040E050E00E94AE2A8823A9F0AF
:10132000B801882777FD8095982F0E944D2B9B014F
:10133000AC01C701B6010E94B22A20E030E048ECBF
:1013400052E40E943B2C6B017C01C701B60120E0F6
:1013500030E048EC52E40E94B22A6B017C010E940A
:10136000AB1960930C0670930D0680930E06909354
:101370000F068091A6068E5C861B8093A606809140
:101380006C048E5C90910E06891B80936C048DB763
:101390009EB709970FB6F8949EBF0FBE8DBF0DB7CD
:1013A0001EB70F5F1F4FC701B60120E030E048ECC9
:1013B00052E40E943B2C20E030E048EC52E40E94D2
:1013C0004A2A0E941F2B4B015C0182E390E0F80146
:1013D00091838083C701B60120E030E048EC52ECF5
:1013E0000E943B2C20E030E048EC52E40E944A2A64
:1013F0000E941F2BF8017383628382EC91E0958336
:10140000848316821086178281E062E041E022E345
:1014100030E08401A2ECEA2EA1E0FA2ECC24AA242A
:10142000BB24882483940E94731A8DB79EB70996B3
:101430000FB6F8949EBF0FBE8DBF822D1F910F91E6
:10144000FF90EF90DF90CF90BF90AF909F908F90E4
:101450007F906F905F904F903F902F9008958F9264
:10146000AF92BF92CF92DF92EF92FF920F931F93B2
:101470000E949217E091EF04F0E0E259FA4FE08108
:10148000E0936B0480E0E13009F481E090E0E33028
:1014900009F491E0892B282F30E040E050E0809162
:1014A0006D04823011F441E050E024233523232BD6
:1014B000B9F060E070E080E09FE42DEB34E74BEDA5
:1014C00051E40F2EF0E0EF2EF0E0FF2EF0E20F2FB0
:1014D000F1E41F2FF02D5701680188240E94FA13B0
:1014E00020916D0480E0213009F481E090E0233008
:1014F00009F491E0892B282F30E040E050E0809102
:101500006B04823011F441E050E024233523232B77
:10151000B9F060E070E080E09FE42DEB34E74BED44
:1015200051E40F2EF0E0EF2EF0E0FF2EF0E20F2F4F
:10153000F1E41F2FF02D5701680188240E94FA134F
:1015400080916B048230C1F1833009F461C0813035
:1015500009F09FC08DB79EB708970FB6F8949EBF4D
:101560000FBE8DBFEDB7FEB7319684E291E0ADB707
:10157000BEB712969C938E9311978091EF0482834D
:1015800013828091EE04848315828091F404868313
:1015900017820E948234EDB7FEB738960FB6F894E2
:1015A000FEBF0FBEEDBF60E070E080E090E020E0A5
:1015B00030E044E851EC5DC08DB79EB708970FB698
:1015C000F8949EBF0FBE8DBFEDB7FEB731968FE486
:1015D00091E0ADB7BEB712969C938E931197809110
:1015E000EF04828313828091EE04848315828091BC
:1015F000F404868317820E948234EDB7FEB73896D2
:101600000FB6F894FEBF0FBEEDBF0E94960853C000
:101610008DB79EB708970FB6F8949EBF0FBE8DBFCB
:10162000EDB7FEB731968DE791E0ADB7BEB7129634
:101630009C938E9311978091EF0482831382809103
:10164000EE04848315828091F404868317820E94BD
:101650008234EDB7FEB738960FB6F894FEBF0FBED2
:10166000EDBF60E070E080E090E020E030E044E832
:1016700051E40F2EF0E0EF2EF0E0FF2EF0E20F2FFE
:10168000F1E41F2FF02D5701680188240E94FA13FE
:1016900012C000D089EA91E0ADB7BEB712969C9314
:1016A0008E9311970E9482340F900F9082E060E039
:1016B0000E94821CFFCF80916B0480936D0481E0B7
:1016C0001F910F91FF90EF90DF90CF90BF90AF9060
:1016D0008F9008950E942F0A882369F080E090E09F
:1016E000A0E0B0E08093EA049093EB04A093EC04B4
:1016F000B093ED0481E00895FF920F931F93CF9371
:10170000DF93FF24F39410E0C0EBD1E00E94820548
:10171000082F813021F0823011F0833039F4E12F2D
:10172000F0E0E259FA4F00831F5F02C0882321F1E5
:101730000E9492178DB79EB708970FB6F8949EBF78
:101740000FBE8DBFEDB7FEB73196ADB7BEB71296DF
:10175000DC93CE931197F282138204831582168351
:1017600017820E948234F02E8DB79EB708960FB66E
:10177000F8949EBF0FBE8DBF84EF91E00E94521E71
:101780001B3020F21F5FE12FF0E0E259FA4F84E0B6
:101790008083DF91CF911F910F91FF9008951F9348
:1017A000CF93DF9310E0C1EED1E00E94820581303B
:1017B00021F480911006880F06C0823039F48091A0
:1017C0001006880F8F5F809310061F5F0E9492178C
:1017D00000D000D000D0EDB7FEB73196ADB7BEB7A0
:1017E0001296DC93CE931197809110068283138218
:1017F000148315820E948234809110068093110612
:101800008DB79EB706960FB6F8949EBF0FBE8DBFDC
:1018100084EF91E00E94521E143038F2DF91CF9194
:101820001F9108951F93CF93DF9310E0C9E0D2E09A
:101830000E948205813021F480918F05880F06C0B7
:10184000823041F480918F05880F8F5F80938F05E0
:101850001F5F02C08823F1F00E94921700D000D0D1
:1018600000D0EDB7FEB73196ADB7BEB71296DC9398
:10187000CE93119780918F058283138214831582F2
:101880000E9482348DB79EB706960FB6F8949EBF1D
:101890000FBE8DBF84EF91E00E94521E123040F2C5
:1018A0000E94921780918F05813051F0813028F08D
:1018B000823049F0833071F409C088E392E008C0B7
:1018C0008AE592E005C08BE792E002C08DE992E0E4
:1018D0000E94943484EF91E00E94521EDF91CF91D8
:1018E0001F910895CF92DF92EF92FF920F931F9373
:1018F000DF93CF930F92CDB7DEB780911006F82E0D
:10190000F694F694982F937000918F05CC24DD24E3
:10191000F601E259FA4F1081EF2DF0E0EE0FFF1FB4
:10192000EE0FFF1FE90FF11DE258FA4F8081602F83
:1019300041E099830E943511F601EB56F94F8083FF
:101940009981123089F4013049F0013028F00230D9
:1019500039F0033089F406C0FA940EC09F5F0CC0C2
:10196000F3940AC0915008C0133011F40F5F03C004
:10197000113011F4015003700894C11CD11C8DE08A
:10198000C816D10429F6CC24DD24EEEBEE2EE2E0DD
:10199000FE2EF601EB56F94F00810E949217202F80
:1019A00030E0ADB7BEB754970FB6F894BEBF0FBEC8
:1019B000ADBFEDB7FEB731961296FC92EE9211973D
:1019C000D382C282112707FD10950027110F001F37
:1019D000112715830483C90166E0969587956A955A
:1019E000E1F78170907097838683C90155E09695E1
:1019F00087955A95E1F78170907091878087C9012A
:101A000044E0969587954A95E1F7817090709387A9
:101A10008287C90103E0969587950A95E1F7817061
:101A2000907095878487C901969587959695879537
:101A30008170907097878687C90196958795817088
:101A40009070918B808B21703070338B228B0E9431
:101A50008234EDB7FEB774960FB6F894FEBF0FBE92
:101A6000EDBF84EF91E00E94521E0894C11CD11C6E
:101A7000FDE0CF16D10409F08CCF0F90CF91DF910C
:101A80001F910F91FF90EF90DF90CF900895FF92FC
:101A90000F931F9380911006082F0695069513E06B
:101AA000F12EF82210918F058091EE04612F40E015
:101AB0000E943511E02FF0E0EE0FFF1FEE0FFF1F29
:101AC000EF0DF11DE258FA4F808380916B04823054
:101AD000A1F0833021F0813029F4115001C01F5F43
:101AE00013700BC000D080EE92E0EDB7FEB792838A
:101AF00081830E9482340F900F90113049F0113091
:101B000028F0123039F0133041F406C0015005C0FE
:101B1000F39403C00F5F01C0FA94000F000F0F0D84
:101B2000009310061F910F91FF9008958F92AF922E
:101B3000BF92CF92DF92EF92FF920F931F9380910B
:101B4000EE0480FD04C081E080936B040AC083FD35
:101B500004C082E080936B0406C083E080936B0432
:101B600081E00E940A0680911806882311F00E94E5
:101B7000470D0E94921780916B04823009F459C07E
:101B8000833009F482C0813009F0C0C08DB79EB7A0
:101B900008970FB6F8949EBF0FBE8DBFEDB7FEB786
:101BA000319684E291E0ADB7BEB712969C938E93C6
:101BB00011978091EF04828313828091EE048483D5
:101BC00015828091F404868317820E948234EDB7D7
:101BD000FEB738960FB6F894FEBF0FBEEDBF60E0BB
:101BE00070E080E09FE42BE533ED4CEC51E40F2EE8
:101BF000F0E0EF2EF0E0FF2EF0E20F2FF1E41F2FC8
:101C0000F02D5701680188240E94FA1360E070E00B
:101C100080E090E020E030E044E851EC0E94FA13CC
:101C200060E070E080E09FE428E431EE46E352E4B7
:101C30006AC08DB79EB708970FB6F8949EBF0FBEC7
:101C40008DBFEDB7FEB731968FE491E0ADB7BEB76B
:101C500012969C938E9311978091EF048283138246
:101C60008091EE04848315828091F4048683178228
:101C70000E948234EDB7FEB738960FB6F894FEBFD7
:101C80000FBEEDBF0E94960852C08DB79EB7089751
:101C90000FB6F8949EBF0FBE8DBFEDB7FEB731965D
:101CA0008DE791E0ADB7BEB712969C938E931197D6
:101CB0008091EF04828313828091EE0484831582E5
:101CC0008091F404868317820E948234EDB7FEB7B8
:101CD00038960FB6F894FEBF0FBEEDBF60E070E01F
:101CE00080E090E020E030E044E851E40F2EF0E0A6
:101CF000EF2EF0E0FF2EF0E20F2FF1E41F2FF02D7A
:101D00005701680188240E94FA1311C000D089EAA3
:101D100091E0ADB7BEB712969C938E9311970E9437
:101D200082340F900F9082E060E00E94821C81E07C
:101D30001F910F91FF90EF90DF90CF90BF90AF90E9
:101D40008F9008950E94F61688EE92E00E949434D7
:101D500088EE93E00E94521E0E9492170E94CF0BC1
:101D600088EE93E00E94521E0E9492178EEF92E03E
:101D70000E94943488EE93E00E94521E0E949217B3
:101D80000E94120C88EE93E00E94521E0E9492174D
:101D90008DE280936D0581E08093A50621C00E94AD
:101DA000CD160E94320680E00E940A060E94960D1F
:101DB00020E030E09091110680911006981711F004
:101DC00021E030E040E050E090918E0580918F0559
:101DD000981711F041E050E0242B352B2093A506F5
:101DE0008091A5068823D9F687E193E00E94943478
:101DF00088EE93E00E94521E0E9492170E94CF0B21
:101E000088EE93E00E94521E0E9492178DE293E0AA
:101E10000E94943488EE93E00E94521E0E94921712
:101E20000E94120C88EE93E00E94521E0E949217AC
:101E300086E493E00E94943488EE93E00E94521E60
:101E40000E9492170E947C0B88EE93E00E94521E23
:101E50000E9492178CE593E00E94943488EE93E000
:101E60000E94521E0E9492170E94720C88EE93E00C
:101E70000E94521E0E9492170E94CD16FDCF2F92F3
:101E80003F924F925F926F927F928F929F92AF920A
:101E9000BF92CF92DF92EF92FF920F931F93DF9347
:101EA000CF93CDB7DEB764970FB6F894DEBF0FBE01
:101EB000CDBF882339F58EED94E09C8B8B8BADE8FC
:101EC000B6E0BE83AD83E4E0F6E0FC83EB8385E619
:101ED00095E09A8389830F2EF0E02F2EF0E03F2EBD
:101EE000F0E04F2EF0E05F2EF02D2F86388A498AE1
:101EF0005A8A2B863C864D865E862F823886498696
:101F00005A8643C0A0901406B0901506C0901606DD
:101F1000D0901706E0901906F0901A0600911B0663
:101F200010911C062090E6043090E7044090E804ED
:101F30005090E9042091F0043091F1044091F204B2
:101F40005091F30480E090E0FC01E259FB4FA08245
:101F5000B182C282D382FC01E35EF94FE082F1825A
:101F600002831383FC01EC56FA4F208231824282B5
:101F70005382FC01EB50FB4F208331834283538318
:101F800004968837910501F796CFAB89BC892D91CE
:101F90003D914D915C911397FD01248335834683D8
:101FA0005783AD81BE81ED90FD900D911C911397EB
:101FB000FD01E482F58206831783AB81BC81AD907D
:101FC000BD90CD90DC901397FD01A482B582C682AE
:101FD000D782A981BA816D907D908D909C90139746
:101FE000FD016482758286829782C201B1010E94DE
:101FF0004A2A1B012C016F85788989899A89A80151
:1020000097010E944A2A6F87788B898B9A8B6B8500
:102010007C858D859E85A60195010E944A2A6B8745
:102020007C878D879E876F81788589859A85A401B5
:1020300093010E944A2A6F83788789879A878B89C0
:102040009C8904979C8B8B8BAD81BE811497BE833A
:10205000AD83EB81FC813497FC83EB8389819A818A
:1020600004979A838983AB89BC89A656B44009F04A
:102070008CCF8091140690911506A0911606B09110
:102080001706EB89FC8980879187A287B3878091A7
:10209000190690911A06A0911B06B0911C06809318
:1020A0001D0690931E06A0931F06B09320068091F4
:1020B000E6049091E704A091E804B091E9048093CC
:1020C000940590939505A0939605B09397058091FC
:1020D000F0049091F104A091F204B091F304809384
:1020E000F5049093F604A093F704B093F804C201AA
:1020F000B10120E030E040EF51E40E94B22A609349
:1021000014067093150680931606909317066F8534
:10211000788989899A8920E030E040EF51E40E9473
:10212000B22A6093190670931A0680931B06909347
:102130001C066B857C858D859E8520E030E040EF18
:1021400051E40E94B22A6093E6047093E7048093FE
:10215000E8049093E9046F81788589859A8520E069
:1021600030E040EF51E40E94B22A6093F004709393
:10217000F1048093F2049093F30464960FB6F894FC
:10218000DEBF0FBECDBFCF91DF911F910F91FF90AA
:10219000EF90DF90CF90BF90AF909F908F907F9007
:1021A0006F905F904F903F902F900895AF92BF92A5
:1021B000CF92DF92EF92FF920F931F937B018C01DE
:1021C000442361F080E090E0A0E0B0E08093EA0476
:1021D0009093EB04A093EC04B093ED04C801B70115
:1021E0002091EA043091EB044091EC045091ED040D
:1021F0000E944A2A5B016C016093EA047093EB042D
:102200008093EC049093ED04C801B70120919005F0
:102210003091910540919205509193050E94492A71
:1022200020E030E040E050E00E943B2C9B01AC01FC
:10223000C801B7010E944A2A7B018C01C601B50181
:1022400020E030E040E050E00E943B2C9B01AC01DC
:10225000C801B7010E944A2A1F910F91FF90EF9089
:10226000DF90CF90BF90AF900895442381F006C0D7
:10227000E82FF0E0E159FC4F808161506623C1F7FF
:102280000895E82FF0E0E158FC4F8081615066230B
:10229000C1F708952F923F924F925F926F927F9273
:1022A0008F929F92AF92BF92CF92DF92EF92FF9266
:1022B0000F931F93DF93CF93CDB7DEB7A0970FB6E1
:1022C000F894DEBF0FBECDBF2B013C012D833E83B2
:1022D0004F835887E986FA860B871C87AD86BE86B2
:1022E000CF86D88A282C3324CA01B90120E030E0F7
:1022F00040E050E00E94FD2B181614F43324339470
:102300006D817E818F8198852CED38EB48E05EE30E
:102310000E94B22A0E941A2B9B0177FF03C03095BE
:1023200021953F4FB901882777FD8095982F0E940E
:102330004D2B69837A838B839C8369857A858B8512
:102340009C852CED38EB48E05EE30E94B22A0E94A7
:102350001A2B9B0177FF03C0309521953F4FB901A0
:10236000882777FD8095982F0E944D2B4B015C01AB
:102370006D857E858F8598892CED38EB48E05EE38E
:102380000E94B22A0E941A2B9B0177FF03C030954E
:1023900021953F4FB901882777FD8095982F0E949E
:1023A0004D2B6B017C01C301B20120E030E040E025
:1023B0005FE40E94AE2A8823A1F569817A818B812E
:1023C0009C810E941F2B2B013C01C501B4010E947E
:1023D0001F2B4B015C01C701B6010E941F2B6B0133
:1023E0007C012DB73EB7295030400FB6F8943EBF60
:1023F0000FBE2DBFEDB7FEB73196ADB7BEB7129683
:102400005C924E92119793828282758364832682B6
:102410001086178281E062E0432D920184017601EB
:10242000C1C1C301B20120E030E040E050E00E94B1
:10243000AE2A8823E9F569817A818B819C810E948B
:102440001F2B3B01C501B4010E941F2B8B01C7014B
:10245000B6010E941F2B7B012DB73EB7295030409B
:102460000FB6F8943EBF0FBE2DBFEDB7FEB7319645
:1024700040E0332009F441E07182608213830283DB
:10248000F582E48226821086178281E062E0930161
:10249000C22CAA24BB24832C0E94731A81E0ADB7FE
:1024A000BEB719960FB6F894BEBF0FBEADBF89C1B7
:1024B000C301B20120E030E040E050E00E94FD2B7B
:1024C00018160CF0B1C066E676E68AEA91ECA30134
:1024D00092010E94B22A20E030E040E85FE30E94CF
:1024E0004A2A7B018C0166E676E68AEA91E4A3013A
:1024F00092010E94B22A20E030E040E85FE30E94AF
:102500004A2A5B016C01EDB7FEB739970FB6F89414
:10251000FEBF0FBEEDBF8DB69EB60894811C911C08
:102520006D817E818F819885A80197010E943B2C47
:102530002CED38EB48E05EE30E94B22A0E941F2B8C
:10254000698B7A8B8B8B9C8B69857A858B859C8537
:10255000A80197010E943B2C2CED38EB48E05EE38C
:102560000E94B22A0E941F2B6D8B7E8B8F8B988FBF
:102570006D857E858F859889A80197010E943B2CE7
:102580002CED38EB48E05EE30E94B22A0E941F2B3C
:102590002B013C016D817E818F819885A60195017B
:1025A0000E943B2C2CED38EB48E05EE30E94B22AFF
:1025B0000E941F2BD4016D937C9369857A858B854E
:1025C0009C85A60195010E943B2C2CED38EB48E040
:1025D0005EE30E94B22A0E941F2BF4017383628380
:1025E0006D857E858F859889A60195010E943B2C7B
:1025F0002CED38EB48E05EE30E94B22A0E941F2BCC
:10260000D40115967C936E93149716962C92169778
:1026100018961C921E92179781E062E0432D29893B
:102620003A890D891E89BDC0C301B20120E030E0A6
:1026300040E050E00E94AE2A87FD02C080E0C1C0A9
:1026400066E676E68AEA91E4A30192010E94B22A44
:1026500020E030E040E85FE30E944A2A7B018C01E1
:1026600066E676E68AEA91ECA30192010E94B22A1C
:1026700020E030E040E85FE30E944A2A5B016C0101
:102680002DB73EB7295030400FB6F8943EBF0FBE6D
:102690002DBF8DB69EB60894811C911C6D817E81E4
:1026A0008F819885A80197010E943B2C2CED38EB77
:1026B00048E05EE30E94B22A0E941F2B698F7A8F46
:1026C0008B8F9C8F69857A858B859C85A801970166
:1026D0000E943B2C2CED38EB48E05EE30E94B22ACE
:1026E0000E941F2B6D8F7E8F8F8F98A36D857E85A7
:1026F0008F859889A80197010E943B2C2CED38EB1F
:1027000048E05EE30E94B22A0E941F2B2B013C018D
:102710006D817E818F819885A60195010E943B2C59
:102720002CED38EB48E05EE30E94B22A0E941F2B9A
:10273000D4016D937C9369857A858B859C85A601F0
:1027400095010E943B2C2CED38EB48E05EE30E94A3
:10275000B22A0E941F2BF401738362836D857E85EC
:102760008F859889A60195010E943B2C2CED38EBB2
:1027700048E05EE30E94B22A0E941F2BD401159606
:102780007C936E93149716962C92169718961C921B
:102790001E92179781E062E0432D298D3A8D0D8DB1
:1027A0001E8D7201C22CAA24BB24832C0E94731A92
:1027B00081E0EDB7FEB739960FB6F894FEBF0FBEB5
:1027C000EDBFA0960FB6F894DEBF0FBECDBFCF9180
:1027D000DF911F910F91FF90EF90DF90CF90BF900E
:1027E000AF909F908F907F906F905F904F903F90B1
:1027F0002F9008952F923F924F925F926F927F9207
:102800008F929F92AF92BF92CF92DF92EF92FF9200
:102810000F931F93DF93CF93CDB7DEB7A0970FB67B
:10282000F894DEBF0FBECDBF2B013C012D833E834C
:102830004F835887E986FA860B871C87AD86BE864C
:10284000CF86D88A282C3324CA01B90120E030E091
:1028500040E050E00E94FD2B181614F4332433940A
:102860006D817E818F8198852CED38EB48E05EE3A9
:102870000E94B22A0E941A2B9B0177FF03C0309559
:1028800021953F4FB901882777FD8095982F0E94A9
:102890004D2B69837A838B839C8369857A858B85AD
:1028A0009C852CED38EB48E05EE30E94B22A0E9442
:1028B0001A2B9B0177FF03C0309521953F4FB9013B
:1028C000882777FD8095982F0E944D2B4B015C0146
:1028D0006D857E858F8598892CED38EB48E05EE329
:1028E0000E94B22A0E941A2B9B0177FF03C03095E9
:1028F00021953F4FB901882777FD8095982F0E9439
:102900004D2B6B017C01C301B20120E030E040E0BF
:102910005FE40E94AE2A8823A1F569817A818B81C8
:102920009C810E941F2B2B013C01C501B4010E9418
:102930001F2B4B015C01C701B6010E941F2B6B01CD
:102940007C012DB73EB7295030400FB6F8943EBFFA
:102950000FBE2DBFEDB7FEB73196ADB7BEB712961D
:102960005C924E9211979382828275836483268251
:102970001086178280E062E0432D92018401760187
:10298000C1C1C301B20120E030E040E050E00E944C
:10299000AE2A8823E9F569817A818B819C810E9426
:1029A0001F2B3B01C501B4010E941F2B8B01C701E6
:1029B000B6010E941F2B7B012DB73EB72950304036
:1029C0000FB6F8943EBF0FBE2DBFEDB7FEB73196E0
:1029D00040E0332009F441E0718260821383028376
:1029E000F582E48226821086178280E062E09301FD
:1029F000C22CAA24BB24832C0E94731A81E0ADB799
:102A0000BEB719960FB6F894BEBF0FBEADBF89C151
:102A1000C301B20120E030E040E050E00E94FD2B15
:102A200018160CF0B1C066E676E68AEA91ECA301CE
:102A300092010E94B22A20E030E040E85FE30E9469
:102A40004A2A7B018C0166E676E68AEA91E4A301D4
:102A500092010E94B22A20E030E040E85FE30E9449
:102A60004A2A5B016C01EDB7FEB739970FB6F894AF
:102A7000FEBF0FBEEDBF8DB69EB60894811C911CA3
:102A80006D817E818F819885A80197010E943B2CE2
:102A90002CED38EB48E05EE30E94B22A0E941F2B27
:102AA000698B7A8B8B8B9C8B69857A858B859C85D2
:102AB000A80197010E943B2C2CED38EB48E05EE327
:102AC0000E94B22A0E941F2B6D8B7E8B8F8B988F5A
:102AD0006D857E858F859889A80197010E943B2C82
:102AE0002CED38EB48E05EE30E94B22A0E941F2BD7
:102AF0002B013C016D817E818F819885A601950116
:102B00000E943B2C2CED38EB48E05EE30E94B22A99
:102B10000E941F2BD4016D937C9369857A858B85E8
:102B20009C85A60195010E943B2C2CED38EB48E0DA
:102B30005EE30E94B22A0E941F2BF401738362831A
:102B40006D857E858F859889A60195010E943B2C15
:102B50002CED38EB48E05EE30E94B22A0E941F2B66
:102B6000D40115967C936E93149716962C92169713
:102B700018961C921E92179780E062E0432D2989D7
:102B80003A890D891E89BDC0C301B20120E030E041
:102B900040E050E00E94AE2A87FD02C080E0C1C044
:102BA00066E676E68AEA91E4A30192010E94B22ADF
:102BB00020E030E040E85FE30E944A2A7B018C017C
:102BC00066E676E68AEA91ECA30192010E94B22AB7
:102BD00020E030E040E85FE30E944A2A5B016C019C
:102BE0002DB73EB7295030400FB6F8943EBF0FBE08
:102BF0002DBF8DB69EB60894811C911C6D817E817F
:102C00008F819885A80197010E943B2C2CED38EB11
:102C100048E05EE30E94B22A0E941F2B698F7A8FE0
:102C20008B8F9C8F69857A858B859C85A801970100
:102C30000E943B2C2CED38EB48E05EE30E94B22A68
:102C40000E941F2B6D8F7E8F8F8F98A36D857E8541
:102C50008F859889A80197010E943B2C2CED38EBB9
:102C600048E05EE30E94B22A0E941F2B2B013C0128
:102C70006D817E818F819885A60195010E943B2CF4
:102C80002CED38EB48E05EE30E94B22A0E941F2B35
:102C9000D4016D937C9369857A858B859C85A6018B
:102CA00095010E943B2C2CED38EB48E05EE30E943E
:102CB000B22A0E941F2BF401738362836D857E8587
:102CC0008F859889A60195010E943B2C2CED38EB4D
:102CD00048E05EE30E94B22A0E941F2BD4011596A1
:102CE0007C936E93149716962C92169718961C92B6
:102CF0001E92179780E062E0432D298D3A8D0D8D4D
:102D00001E8D7201C22CAA24BB24832C0E94731A2C
:102D100081E0EDB7FEB739960FB6F894FEBF0FBE4F
:102D2000EDBFA0960FB6F894DEBF0FBECDBFCF911A
:102D3000DF911F910F91FF90EF90DF90CF90BF90A8
:102D4000AF909F908F907F906F905F904F903F904B
:102D50002F9008950E94841D282F21702093120621
:102D600090E08270907095958795809313060895F2
:102D70000E94580560937A0570937B0580937C05CB
:102D800090937D050E946D056093A1067093A20645
:102D90008093A3069093A40608950E94EF04609385
:102DA000E6047093E7048093E8049093E9040E949A
:102DB000CC046093F0047093F1048093F204909338
:102DC000F3040E94350560931406709315068093F2
:102DD0001606909317060E941205609319067093C9
:102DE0001A0680931B0690931C0608950E94031EEA
:102DF00090936A04809369040E94981890936804E1
:102E0000809367040E94AF179093660480936504D3
:102E10000E941A1B81E00E949E190E9498180E942D
:102E20005D1F0E941C1781E00E947E170E94CD1634
:102E300081E00E943F0F08958FE00E94F51C8823D7
:102E400031F40E94841F8FE061E00E943D1D8FE0FD
:102E500091E008958FE00E94F51C813019F020E088
:102E600030E013C080917A00806480937A00809172
:102E70007A0086FDFCCF3091780020917900922F66
:102E800080E0232F30E0282B392BC9010895582FDB
:102E900080918F038830D8F440917E0021E030E0AB
:102EA000B90102C0660F771F8A95E2F7CB018095C2
:102EB000842380937E0080917E00052E02C0220F25
:102EC000331F0A94E2F7822B80937E000DC020917D
:102ED0007E0081E090E0052E02C0880F991F0A94C1
:102EE000E2F7282B20937E0050938F0380917C0083
:102EF0005F71807E852B80937C000895ECE7F0E085
:102F000090818295880F880F807C9F73982B908387
:102F100008950E949D1F0E948F1F0E94A20E80E0B4
:102F200090E008950F931F9380E460E00E94711871
:102F300000E0802F60E00E94581810E080E061E01F
:102F40000E9471181F5F1038C9F70F5F043089F7AE
:102F500083E060E00E9451181F910F9108950F9334
:102F60001F9382E00E94F51C882311F482E006C0C2
:102F700081E00E94F51C882319F481E090E06DC087
:102F80000E94052285E061E00E943D1D8EEA60E01E
:102F90000E94711882EA60E00E94711880EA60E085
:102FA0000E94711800E513ECC8010197F1F780EC5D
:102FB00060E00E9471188FE260E00E94711881E861
:102FC00060E00E94711886E160E00E94711882E260
:102FD00060E00E947118C8010197F1F78FEA60E084
:102FE0000E94711886EA60E00E94711885EA60E02C
:102FF0000E94711880E090E028E833E1F9013197F0
:10300000F1F7019643E0883E9407C1F783EB60E057
:103010000E94711880E460E00E94711883E060E013
:103020000E94581883E060E00E9451181092F50643
:103030001092F7061092F6068EE993E09093260719
:103040008093250788E10E9430180E94921784EA35
:1030500060E00E94711885E091E01F910F91089542
:103060001F93182F85E00E94F51C8130C1F487E082
:103070000E94AD1882E06AE00E94FE1882E061EBD7
:103080000E94FE18612F113208F060E282E00E9477
:10309000FE1889EE8A95F1F787E00E94AD181F911E
:1030A000089583706F776093F3068093F406089514
:1030B0000F931F93062F162F1F778370806B60E08E
:1030C0000E94711812951F70812F806160E00E942C
:1030D0007118802F8F7060E00E9471181F910F91FE
:1030E00008950F931F93082F162F85E00E94F51C5B
:1030F000813079F4112319F0113021F402C02B989A
:1031000001C02B9A86E08A95F1F780E0602F0E943B
:10311000FE181F910F9108951F93182F86E00E94AB
:10312000F51C813019F4812F0E94B4221F9108955B
:103130000E94B92286E061E00E943D1D86E091E098
:1031400008951F93182F86E00E94F51C813019F412
:10315000812F0E94BC221F9108951F93182F82E097
:103160000E94F51C813009F047C0912F9770809123
:10317000F806981709F440C09093F80685B1887F47
:10318000892B85B9933011F1943028F4913051F0A6
:10319000923090F40CC0953019F19530E0F09630F3
:1031A00021F50FC0E0914004F091410422C0E0916C
:1031B0003E04F0913F041DC0E0914204F0914304AD
:1031C00018C0E0914A04F0914B0413C0E09144040C
:1031D000F09145040EC0E0914604F091470409C007
:1031E000E0914804F091490404C0E0914C04F0914E
:1031F0004D04309709F009951F9108951F93162FDC
:103200000E94AD1882E00E94F51C813021F41EBDA1
:103210000DB407FEFDCF1F9108950F931F93CF9319
:10322000DF9380E291E00E940A329C0190935D045A
:1032300080935C04892B11F480E039C08901C0E0DF
:10324000D0E0BE0180E090E00E944B2B20E030E017
:1032500040EA51E40E94B22A27EF35E740E05FE3FD
:103260000E943B2C9B01AC0160E070E080E291E4A5
:103270000E949E2C9B01AC01CA01B9012DEC3CECD3
:1032800042E851E40E943B2C0E94012C2AE030E0ED
:1032900040E050E00E946B31F8016193719381939B
:1032A00091938F012196C834D10559F681E0DF91C1
:1032B000CF911F910F9108958AE00E94F51C8823F9
:1032C00071F4109259041092580481E00E94F7237F
:1032D00081E080934F048AE061E00E943D1D8AE016
:1032E00091E008951F938BE00E94F51C882311F054
:1032F00090E021C089E00E94F51C8823D9F40E9447
:103300000D19182F8130B1F410925004109251040D
:1033100010925204109253048DE06AE773E20E9407
:10332000DD2182E00E94F72310934E0489E061E0E2
:103330000E943D1D91E089E01F910895813029F0A0
:10334000823031F090E089E008950E945C19089580
:103350000E94721908958091B9069091BA06209141
:10336000BB063091BC06BC01C90108952F923F9263
:103370004F925F926F927F928F929F92AF92BF9285
:10338000CF92DF92EF92FF920F931F93DF93CF9331
:10339000CDB7DEB7582E962E442E39013C2CC98C61
:1033A000DA8C2B8C81E0681739F1681728F092E0ED
:1033B000691709F085C049C080E061E00E94BF1B29
:1033C00080E0B7010E94881B80E0642DA301980172
:1033D000032DEE24E394EEEDCE2EE6E0DE2E0E94E9
:1033E000F61B552009F06CC000D00F92EDB7FEB768
:1033F0001182B382A28223C081E061E00E94BF1BE0
:1034000081E0B6010E94881B81E0682D4D895E89AC
:103410002F89388D022DEE24E3947EEDC72E76E0C1
:10342000D72E0E94F61B552009F04AC000D00F92FB
:10343000EDB7FEB791828C8D9D8D938382830E9420
:10344000A71C0F900F900F903BC082E061E00E949C
:10345000BF1B80E0B7010E94881B81E0B6010E947B
:10346000881B80E0642DA3019801032DEE24E394D2
:103470009EEDC92E96E0D92E0E94F61B81E0682DA4
:103480004D895E892F89388D022D0E94F61B5520AB
:10349000B9F400D000D00F92ADB7BEB71196EDB71A
:1034A000FEB79182FD01B282A1828C8D9D8D9483A5
:1034B00083830E94A71C0F900F900F900F900F9086
:1034C000CF91DF911F910F91FF90EF90DF90CF9000
:1034D000BF90AF909F908F907F906F905F904F9034
:1034E0003F902F9008956F927F928F929F92AF920C
:1034F000BF92CF92DF92EF92FF920F931F93DF93D1
:10350000CF93CDB7DEB7942E7C2DD50149895A894A
:10351000AB88BC88CD88DE889F89813009F457C08C
:103520008130B8F1823009F076C0613091F06130BD
:1035300020F0623009F06FC015C080E060E00E94AA
:10354000BF1B80E0B7010E94881B80E0692DA801A5
:103550001DC081E060E00E94BF1B81E0B6010E94B7
:10356000881B11C082E060E00E94BF1B80E0B701B1
:103570000E94881B81E0B6010E94881B80E0692DB3
:10358000A8010E94711B81E0682DA5010E94711B9A
:1035900042C0EDB7FEB739970FB6F894FEBF0FBE25
:1035A000EDBF6DB67EB60894611C711C52834183D9
:1035B000F301B382A282D582C4829683888D998DCD
:1035C0009087878380E0492DC72E5D011AC0EDB733
:1035D000FEB739970FB6F894FEBF0FBEEDBFADB77B
:1035E000BEB7119652834183FD01B382A282D58278
:1035F000C48296831086178281E0492DC72EAA24A3
:10360000BB240E94B6198DB79EB709960FB6F894E1
:103610009EBF0FBE8DBFCF91DF911F910F91FF9085
:10362000EF90DF90CF90BF90AF909F908F907F9062
:103630006F9008950E94892481E08093DD06E7EA77
:10364000F6E011921192118210823296118210824C
:103650003296118210823296118210823296118235
:103660001082329611821082329611821082329626
:10367000118210823296118210823296118210824B
:1036800032961182108232961182108236961192F1
:1036900011921192108232961192119211921192FE
:1036A000119211921192118210823296118210821F
:1036B0003296118210823296118210827697118290
:1036C00010823296118210821092DC061092DB0674
:1036D0001092DD0687E061E00E943D1D87E091E0E9
:1036E0000895EF92FF920F931F93182F062F7A01E0
:1036F00060E00E94BF1B812F602F0E94AA1B812FB8
:10370000B7010E94D41B1F910F91FF90EF90089575
:10371000482F81E08093DD06CB0123E0693E7207EC
:1037200010F088EE93E0413071F0413018F04230F3
:1037300071F405C09093B2068093B10608C09093CF
:10374000B2068093B1069093B4068093B3061092AC
:10375000DD060895982F81E08093DD06913051F0C9
:10376000913018F0923041F403C06093CA0604C04F
:103770006093CA066093CB061092DD060895982FD9
:1037800081E08093DD06913051F0913018F0923055
:1037900041F403C06093A70604C06093A70660933A
:1037A000A8061092DD060895482F81E08093DD067B
:1037B000CB0121E06139720710F080E991E04130DE
:1037C00071F0413018F0423071F405C09093AA06B0
:1037D0008093A90608C09093AA068093A9069093A7
:1037E000AC068093AB061092DD0608958F929F92EF
:1037F000AF92BF92CF92DF92EF92FF920F931F93FF
:10380000CF93DF93182FF62E5A014901E60161E0AC
:103810000E94BF1B812FB501A4010E94C324812FE8
:103820006F2D0E94AA1B812F602F0E94AE24812F32
:10383000B5010E949324C114D10499F0113049F0CC
:10384000113018F0123069F406C018821092D906AF
:1038500008C0198204C0188219821092D9061092E9
:10386000DA06D093DC06C093DB06EE20B9F58EEEC7
:1038700093E09093DC068093DB06812FB4010E94D5
:10388000D41B812F0E947424113071F0113018F074
:10389000123059F512C01092EE031092D9068091A1
:1038A000EE038823E1F321C01092EF031092DA06B1
:1038B0008091EF038823E1F318C01092EE03109279
:1038C000EF031092D9061092DA068091EE03882356
:1038D000E1F38091EF038823C1F307C0812FB40186
:1038E0000E94D41B812F0E947424DF91CF911F91DD
:1038F0000F91FF90EF90DF90CF90BF90AF909F908F
:103900008F9008950F931F93182F062F662349F465
:1039100060E070E00E94D41B812F60E070E00E94A4
:10392000932481E08093DD06113051F0113018F0BE
:10393000123041F403C00093C50604C00093C506CD
:103940000093C6061092DD061F910F910895CF9245
:10395000DF92EF92FF920F931F93DF93CF93CDB738
:10396000DEB78B85813061F0813018F08230A1F5AF
:1039700011C0EC85FD858091DE068823E1F306C049
:10398000EC85FD858091DF068823E1F3309721F1F6
:10399000099522C0CC84DD84EE84FF8400E010E031
:1039A000002351F48091DE06882331F0C114D10444
:1039B00011F0F601099501E0112351F48091DF0621
:1039C000882331F0E114F10411F0F701099511E0B9
:1039D000002331F3112321F3CF91DF911F910F9138
:1039E000FF90EF90DF90CF900895E82FF0E0E33163
:1039F000F10540F4E25CFF4FEE0FFF1F0590F491DC
:103A0000E02D099480E008958091E006089580916A
:103A1000E10608958091E20608958091E3060895F5
:103A20008091E40608958091E60608958091E50668
:103A300008958091E70608958091E80608958091A1
:103A4000E90608958091EA0608958091EB060895AD
:103A50008091EC0608958091ED0608958091EE0620
:103A600008958091EF0608958091F0060895809161
:103A7000F10608958091F2060895E82FF0E0E33111
:103A8000F10508F040C0EF5AFF4FEE0FFF1F059001
:103A9000F491E02D09946093E00608956093E106A7
:103AA00008956093E20608956093E3060895609395
:103AB000E40608956093E60608956093E506089588
:103AC0006093E70608956093E80608956093E90619
:103AD00008956093EA0608956093EB060895609355
:103AE000EC0608956093ED0608956093EE06089540
:103AF0006093EF0608956093F00608956093F106D1
:103B000008956093F00608950F931F9381E00E943B
:103B1000F51C813011F000E024C087E00E94AD1850
:103B200082E06AE00E94FE1882E062EB0E94FE18CA
:103B300018EC812F8A95F1F782E060E00E945F2304
:103B4000082F812F8A95F1F782E060E00E945F23C1
:103B50001A95F1F787E00E94AD1888E893E1019784
:103B6000F1F7802F1F910F9108951F93CF93DF934B
:103B7000182F8091F103882341F08091FB03882363
:103B800099F01092F1031092FB030E94841D809320
:103B9000F00385EF93E061E040E022E330E00E9433
:103BA000731E81E08093F1039091F003A12FB0E0A8
:103BB000ED01C856DC4F8881882369F0FD01E55688
:103BC000FC4F80819823C1F0FD01EE50FC4F81E055
:103BD0008083188211C0FD01EE50FC4F808181115D
:103BE0001082FD01E556FC4F8081982329F4FD01E8
:103BF000E856FC4F81E08083AE50BC4F8C91DF9142
:103C0000CF911F91089582E00E94F51C882319F43A
:103C100090E082E0089510920E0710920D07109226
:103C2000100710920F0710921207109211071092AE
:103C3000140710921307109216071092150780E9C7
:103C400091E09093FA068093F9069093FC06809396
:103C5000FB069093FE068093FD06909300078093E9
:103C6000FF06909302078093010784E398E0909306
:103C700004078093030790930607809305079093AA
:103C800008078093070790930A078093090790938A
:103C90000C0780930B0781E061E00E943D1D91E0DD
:103CA00081E00895DF93CF93CDB7DEB729970FB6A4
:103CB000F894DEBF0FBECDBF9C01CE01019661E03E
:103CC00040E00E94731E982F882319F48F81882367
:103CD000E9F3892F29960FB6F894DEBF0FBECDBF4A
:103CE000CF91DF910895EF92FF920F931F93CF939F
:103CF000DF93EC01F62EE42E890188E00E94F51C8A
:103D0000813011F081E026C084E090E00E940A3208
:103D1000FC01009711F482E01DC0F982F0FC1E82C4
:103D200081E0E81619F4898184608983898188603B
:103D300089831B830A831D830C83D183C0831382F1
:103D4000128281E080935E04CF010E9423251092AD
:103D50005E0480E0DF91CF911F910F91FF90EF9073
:103D60000895FC0180911A07813011F085E00895D3
:103D700080911B07813011F08AE00895613011F4C1
:103D800084EC01C084E88093BC008091BC0087FF74
:103D9000FCCF613031F48091B900887F803559F4CF
:103DA00005C08091B900887F883529F48091BB00D7
:103DB000808380E0089582E00895982F80911A070B
:103DC000813011F085E0089580911B07813011F05A
:103DD0008AE008959093BB0084E88093BC008091B2
:103DE000BC0087FFFCCF8091B90090E0887F907085
:103DF0008832910521F0C09721F483E0089580E096
:103E000008958CE00895982F20911A07213011F021
:103E100085E0089580911C07813011F489E00895B0
:103E200020931B0784EA8093BC008091BC0087FF2D
:103E3000FCCF8091B900887F883039F08091B9003B
:103E4000887F803111F081E00895613019F4990F75
:103E5000916003C0662319F4990F9093BB0084E826
:103E60008093BC008091BC0087FFFCCF613031F4AF
:103E70008091B900887F803441F409C0662339F409
:103E80008091B900887F883111F082E0089580E048
:103E9000089580911B07813011F08AE00895809188
:103EA0001D07813029F485E98093BC0080E00895E6
:103EB00084E98093BC0080E0089582E10E94F51CB3
:103EC0008823B1F410921A0710921B0710921C0756
:103ED00010921D0710921E070E94BF2587E160E027
:103EE0000E947B1F0E94B52582E161E00E943D1D7A
:103EF00082E190E0089563706093B9008093B80008
:103F000081E080931A0708958FE180937C00EAE7AF
:103F1000F0E087E0808380818068808308950E943C
:103F200000250E94C1220E94F1210E948C250E943E
:103F300026230E94031E78940895000008951F927E
:103F40000F920FB60F9211242F933F934F935F93CD
:103F50006F937F938F939F93AF93BF93EF93FF9351
:103F6000E0911E04F0911F04309709F00995FF912C
:103F7000EF91BF91AF919F918F917F916F915F91E1
:103F80004F913F912F910F900FBE0F901F9018955A
:103F90001F920F920FB60F9211242F933F934F93BE
:103FA0005F936F937F938F939F93AF93BF93EF93A1
:103FB000FF93E0912004F0912104309709F00995D6
:103FC000FF91EF91BF91AF919F918F917F916F91F1
:103FD0005F914F913F912F910F900FBE0F901F90C7
:103FE00018951F920F920FB60F9211242F933F93A3
:103FF0004F935F936F937F938F939F93AF93BF93F1
:10400000EF93FF93E0912204F0912304309709F09D
:104010000995FF91EF91BF91AF919F918F917F9102
:104020006F915F914F913F912F910F900FBE0F9025
:104030001F9018951F920F920FB60F9211242F9375
:104040003F934F935F936F937F938F939F93AF9320
:10405000BF93EF93FF93E0911004F0911104309718
:1040600009F00995FF91EF91BF91AF919F918F91C9
:104070007F916F915F914F913F912F910F900FBE64
:104080000F901F9018951F920F920FB60F92112448
:104090002F933F934F935F936F937F938F939F9350
:1040A000AF93BF93EF93FF93E0911204F091130449
:1040B000309709F00995FF91EF91BF91AF919F91D2
:1040C0008F917F916F915F914F913F912F910F90C1
:1040D0000FBE0F901F9018951F920F920FB60F9260
:1040E00011242F933F934F935F936F937F938F93FD
:1040F0009F93AF93BF93EF93FF93E0911404F091DC
:104100001504309709F00995FF91EF91BF91AF9198
:104110009F918F917F916F915F914F913F912F91DF
:104120000F900FBE0F901F9018951F920F920FB611
:104130000F9211242F933F934F935F936F937F932D
:104140008F939F93AF93BF93EF93FF93E0911804E6
:10415000F0911904309709F00995FF91EF91BF9103
:10416000AF919F918F917F916F915F914F913F910F
:104170002F910F900FBE0F901F9018951F920F92C6
:104180000FB60F9211242F933F934F935F936F932A
:104190007F938F939F93AF93BF93EF93FF93E091A0
:1041A0001A04F0911B04309709F00995FF91EF91E3
:1041B000BF91AF919F918F917F916F915F914F913F
:1041C0003F912F910F900FBE0F901F9018951F9247
:1041D0000F920FB60F9211242F933F934F935F933B
:1041E0006F937F938F939F93AF93BF93EF93FF93BF
:1041F000E0911604F0911704309709F00995FF91AA
:10420000EF91BF91AF919F918F917F916F915F914E
:104210004F913F912F910F900FBE0F901F901895C7
:104220001F920F920FB60F9211242F933F934F932B
:104230005F936F937F938F939F93AF93BF93EF930E
:10424000FF93E0911C04F0911D04309709F009954B
:10425000FF91EF91BF91AF919F918F917F916F915E
:104260005F914F913F912F910F900FBE0F901F9034
:1042700018951F920F920FB60F9211242F933F9310
:104280004F935F936F937F938F939F93AF93BF935E
:10429000EF93FF93E0910604F0910704309709F043
:1042A0000995FF91EF91BF91AF919F918F917F9170
:1042B0006F915F914F913F912F910F900FBE0F9093
:1042C0001F9018951F920F920FB60F9211242F93E3
:1042D0003F934F935F936F937F938F939F93AF938E
:1042E000BF93EF93FF93E0910804F0910904309796
:1042F00009F00995FF91EF91BF91AF919F918F9137
:104300007F916F915F914F913F912F910F900FBED1
:104310000F901F9018951F920F920FB60F921124B5
:104320002F933F934F935F936F937F938F939F93BD
:10433000AF93BF93EF93FF93E0910A04F0910B04C6
:10434000309709F00995FF91EF91BF91AF919F913F
:104350008F917F916F915F914F913F912F910F902E
:104360000FBE0F901F9018951F920F920FB60F92CD
:1043700011242F933F934F935F936F937F938F936A
:104380009F93AF93BF93EF93FF93E0910C04F09151
:104390000D04309709F00995FF91EF91BF91AF910E
:1043A0009F918F917F916F915F914F913F912F914D
:1043B0000F900FBE0F901F901895E82F803268F471
:1043C0008051833050F0F0E0EE0FFF1FE250FC4FC1
:1043D000208131817183608302C020E030E0C90117
:1043E000089580E10E94F51C882361F4EEEFF3E06C
:1043F0001192119284E0EE33F807D1F780E161E089
:104400000E943D1D80E191E00895239A0895FF9256
:104410000F931F93CF93DF93F82E8AE0F816B1F035
:104420008F1548F0E8E0FE16B9F1EF1538F1F7E026
:10443000FF1651F43BC08DE0F81659F0EBE1FE1683
:1044400089F0FCE0FF1641F001E041C01092F30654
:1044500003C01092F3063AC08091F4068150809315
:10446000F40634C00E94921714C080E061E00E94FC
:1044700071188091F3068F5F8093F3068091F306A5
:1044800087FFF3CF1092F3068091F406815080935A
:10449000F40600E011E01CC08091F3068823B1F01F
:1044A0008091F30686508093F30610C081E00E944D
:1044B0009E1964EF71E080E090E04DE750E024E663
:1044C00030E00E94212481E00E94ED2300E010E012
:1044D0008091F4066091F3060E945818002351F170
:1044E00085E0F89EC0011124EC01C355DF4F8C011B
:1044F0000E541F4FFE01849161E00E9471182196B5
:10450000C017D107B9F780E061E00E94711880916F
:10451000F3068A5F8093F3068091F30690E08C3770
:1045200091053CF01092F3068091F406815080933F
:10453000F40611E08091F40683708093F406113044
:1045400059F48091F506813039F4E091F606F09146
:10455000F706309709F0099580E090E0DF91CF9160
:104560001F910F91FF90089585FD5D9886FD5E98DF
:104570000895559A569A089585FD5D9A86FD5E9A2E
:10458000089580E00E94F51C882351F4F8940E945D
:10459000D32581E00E94D32280E061E00E943D1D8E
:1045A00080E091E00895813049F0F894813020F165
:1045B0008230B1F0833009F045C017C02C9A80E8F2
:1045C000809361001092610080E090E0000001960D
:1045D00088329105D9F71092680010926B00089507
:1045E00080E88093610083E004C080E880936100EC
:1045F00088E08093610028C080E090E00000019690
:104600002DE680369207D1F72C9880E090E00000EC
:1046100001962DE680369207D1F710927A008FEF3F
:10462000809364008091680081608093680080912D
:104630006B00846080936B00789483B7816083BF44
:1046400088950895823008F0789408950F931F9309
:104650000E94FF2580E06EEE75E20E94712381E0EA
:1046600066EE75E20E94712382E06EED75E20E94B3
:10467000712386E066EF75E20E94712306ED15E274
:1046800083E0B8010E94712384E0B8010E94712385
:1046900085E0B8010E94712387E0B8010E94712370
:1046A00082E061E00E943D1D8FEF8093F80687E075
:1046B0000E94AD1882E091E01F910F9108951F9321
:1046C000162F0E94AD1882E00E94F51C813011F077
:1046D00080E005C01EBD0DB407FEFDCF8EB51F9155
:1046E0000895E82FF0E0EE0FFF1FE25CFB4F7183AF
:1046F000608308950E947D230895809150049091D5
:104700005104A0915204B09153042091540430916B
:1047100055044091560450915704280F391F4A1FE1
:104720005B1F2093500430935104409352045093E4
:1047300053048091500490915104A0915204B0917F
:1047400053048851964FA040B040BCF08BB18058C4
:104750008BB98091500490915104A0915204B09172
:1047600053048851964FA040B040809350049093DA
:104770005104A0935204B093530408958AE00E9418
:10478000F51C813041F40E941D2610924F048AE0EE
:1047900060E00E943D1D089589E00E94F51C813073
:1047A000D9F480914E04882311F00E946E2482E097
:1047B0000E941D2680915C0490915D04009731F069
:1047C0000E94B73210925D0410925C0410924E0465
:1047D00089E060E00E943D1D0895813029F082301B
:1047E00029F40E94CC2308950E94BE230895982F97
:1047F00080914E04882331F480914F04882311F472
:10480000579A5F9880914E048823D1F49230C1F476
:1048100010928000109281008091810088608093C6
:1048200081008091810081608093810010928500D9
:104830001092840081E08093890080E98093880051
:1048400008958F929F92AF92BF92CF92DF92EF9294
:10485000FF920F931F93CF93DF934B015C01EA010B
:10486000B9012115310539F19E01442737FD4095E5
:10487000542F6536710510F064E670E080E090E03A
:104880000E946B3124E630E040E050E00E949D3110
:1048900079018A01C501B4010E940626C7010E9460
:1048A000521E60E070E080E090E00E940626CE019B
:1048B0008E199F0904C04115510519F0CA010E94C3
:1048C000521EDF91CF911F910F91FF90EF90DF90DB
:1048D000CF90BF90AF909F908F900895EFE6F0E05B
:1048E00080818D7F80830895982F81E08093DD06FD
:1048F000913051F0913018F0923041F403C0109291
:10490000C50604C01092C5061092C6061092DD06B8
:1049100008953A9A3B9A3C9A3D9A3E9A3F9A88B1BA
:10492000837088B90895982F81E08093DD069130D7
:1049300071F0913018F0923071F405C07093BA069E
:104940006093B90608C07093BA066093B906709375
:10495000BC066093BB061092DD060895982F81E097
:104960008093DD06913051F0913018F0923041F48F
:1049700003C06093C70604C06093C7066093C8066F
:104980001092DD0608950F931F93CF93DF93EB01F1
:104990008A01813001F1813018F0823061F50DC05B
:1049A0008091B1069091B206892B11F080E01AC077
:1049B0001092BE061092BD061EC08091B106909165
:1049C000B206892B21F080E00E94392604C01092A3
:1049D000BE061092BD068091B3069091B406892B55
:1049E00031F081E0BE01A8010E94392604C0109276
:1049F000C0061092BF06DF91CF911F910F910895CD
:104A00001092E0061092E1061092E5061092E2067E
:104A10001092E4061092E6061092E7061092E8065D
:104A20001092E9061092EA061092EB061092EC063C
:104A30001092ED061092EE061092EF061092F0061C
:104A40001092F1060895CF92DF92EF92FF920F93AA
:104A50001F93CF93DF93EC0180911707882339F4DC
:104A6000D0931907C09318070E94B12547C0C09082
:104A70001807D090190700E010E0EE24FF2437C09B
:104A8000A881B981FD0164817581F6014081518160
:104A9000FA01848195819B01281B390B37FF0FC0D8
:104AA000861B970B95838483DB82CA82012B29F4B2
:104AB000D0931907C093180721C0F7010CC0F60165
:104AC000828193812115310549F4FD0115821482FB
:104AD0009B838A83F601D383C28310C0FD01358393
:104AE00024830097B9F30F5F1F4F76016C0180910B
:104AF000170790E00817190718F2ECCF80911707F5
:104B00008F5F80931707DF91CF911F910F91FF90D7
:104B1000EF90DF90CF90089588E00E94F51C8823E5
:104B2000B9F41092170710921907109218071092F3
:104B30005E0410925F0480E166EA76E20E94C2257C
:104B40000E94AD260E94AB2588E061E00E943D1DD9
:104B500088E091E00895EEE6F0E080818260808355
:104B6000089581E080935F04089580911A07813051
:104B700029F48091BC0084608093BC00089538982B
:104B800039980895803218F020E030E00AC0E82F0C
:104B9000F0E0EE0FFF1FE250FC4F20813181718366
:104BA0006083C9010895249A2C9A089583E58CBDE9
:104BB00081E08DBD8DE08A95F1F7089583E58CBD88
:104BC0001DBC84EF91E00197F1F708958FE78CBD4C
:104BD0001DBC84EF91E00197F1F7089583E58CBD4A
:104BE00081E08DBD8DE08A95F1F7089583E58CBD58
:104BF00081E08DBD84EF91E00197F1F70895259A4A
:104C00002698279A209A219A229A08959B01AC010E
:104C100080914F04882381F0DA01C901880F991F20
:104C2000AA1FBB1F90935B0480935A042115310582
:104C30004105510509F45F980895823029F4809167
:104C400081008E7F8093810080914E04813031F409
:104C500080914F04813011F40000089580914E043A
:104C6000813021F080914F04813011F45F98579882
:104C70000895EF92FF920F931F93CF93DF93EB0171
:104C8000882321F0813009F05AC02DC09A0140E0FC
:104C900050E0CA01B9010E946B312091B1063091F8
:104CA000B206220F331F40E050E00E949D3179018F
:104CB0008A01A8019701220F331F441F551FCE01FF
:104CC000A0E0B0E082179307A407B50728F0F092A0
:104CD000BE06E092BD0633C0D695C795D093BE06FA
:104CE000C093BD062CC09A0140E050E0CA01B90152
:104CF0000E946B312091B3063091B406220F331F0E
:104D000040E050E00E949D3179018A01A80197019D
:104D1000220F331F441F551FCE01A0E0B0E08217C1
:104D20009307A407B50728F0F092C006E092BF06EB
:104D300006C0D695C795D093C006C093BF06DF9135
:104D4000CF911F910F91FF90EF9008950E94B6268A
:104D50000E94F6260E94CF26089584B5826084BD05
:104D600085B5846085BD8EE487BD089588E00E9486
:104D7000F51C882311F484E0089580915F04882352
:104D800011F483E0089580915E04882311F082E09D
:104D900008950E9443298130E1F380E008958091D5
:104DA0004F04813011F5809158049091590420915D
:104DB0005A0430915B04280F391F30935904209313
:104DC00058048091580490915904885E93406CF087
:104DD0008BB180588BB98091580490915904885EAA
:104DE00093409093590480935804089587E00E945B
:104DF000F51C813009F0AAC08091B1069091B206ED
:104E0000892B09F18091D5069091D6062091B106A3
:104E10003091B206820F931F9093D6068093D506E9
:104E20008091D5069091D606885E9340A4F080913B
:104E3000D5069091D606885E93409093D6068093CF
:104E4000D50641E009C08091A9069091AA069093E9
:104E5000AE068093AD0640E08091B3069091B40613
:104E6000892B09F18091D7069091D8062091B3063D
:104E70003091B406820F931F9093D8068093D70683
:104E80008091D7069091D806885E9340A4F08091D7
:104E9000D7069091D806885E93409093D806809369
:104EA000D70661E009C08091AB069091AC06909363
:104EB000B0068093AF0660E0842F0E94A727809100
:104EC000D1069091D2062091AD063091AE06280F02
:104ED000391F3093D2062093D1068091D10690914C
:104EE000D206885E934014F440E00BC08091D10656
:104EF0009091D206885E93409093D2068093D1061B
:104F000041E08091D3069091D4062091AF06309174
:104F1000B006280F391F3093D4062093D306809112
:104F2000D3069091D406885E934014F460E00BC0E1
:104F30008091D3069091D406885E93409093D406D6
:104F40008093D30661E0842F0E94EC270895882384
:104F5000F1F02091A9063091AA068091AD069091BA
:104F6000AE06281B390B1216130634F48091AD06D9
:104F70009091AE06019607C0232B49F08091AD06B3
:104F80009091AE0601979093AE068093AD0666238E
:104F900011F12091AB063091AC068091AF06909153
:104FA000B006281B390B1216130654F48091AF0675
:104FB0009091B00601969093B0068093AF06089545
:104FC000232B49F08091AF069091B0060197909302
:104FD000B0068093AF0608950F931F93182F062FE6
:104FE0008091DD06882309F0E7C08091C5068823FB
:104FF00009F05AC08091AD069091AE06892BE9F474
:1050000080916004837E809360041092CE0680912C
:10501000D906882309F45DC06091C70680E00E942C
:10502000821CE091DB06F091DC06309709F451C058
:1050300081E080831092D9064CC08091A706813010
:1050400041F48091B9069091BA06019711F411E0EC
:1050500002C01123F1F1E091CC06F0E0E057FC4FE3
:1050600090916004937E8081892B8093600480916D
:10507000CA06882321F48091CC068F5F03C08091FB
:10508000CC0681508093CC068091CC0683708093AF
:10509000CC0681E08093CE068091A7068130C9F4CA
:1050A00080E00E94EF2815C090916004937E909359
:1050B0006004E091CC06F0E0E057FC4F8081892B42
:1050C0008093600482E08093CE061092AE06109228
:1050D000AD068091C606882309F059C08091AF06BD
:1050E0009091B006892BE9F4809160048F718093D0
:1050F00060041092CF068091DA06882309F45CC020
:105100006091C80681E00E94821CE091DB06F0916C
:10511000DC06309709F450C081E081831092DA06F2
:105120004BC08091A806813041F48091BB069091DC
:10513000BC06019711F401E002C00023E9F1E091FF
:10514000CD06F0E0EC56FC4F909160049F71808199
:10515000892B809360048091CB06882321F4809171
:10516000CD068F5F03C08091CD0681508093CD0620
:105170008091CD0683708093CD0681E08093CF0629
:105180008091A8068130C1F40E94EF2815C090914B
:1051900060049F7190936004E091CD06F0E0EC56BE
:1051A000FC4F8081892B8093600482E08093CF063E
:1051B0001092B0061092AF068091D006882331F489
:1051C00080E694E0612F402F0E94B12988B183705E
:1051D00090916004892B88B91F910F9108958823BD
:1051E00021F0813009F04EC027C08091B90690911E
:1051F000BA06892B49F08091B9069091BA060197B9
:105200009093BA068093B9068091D9068823D1F588
:105210002091B9063091BA068091BD069091BE06E4
:105220002817390779F580E060E070E00E94D41B10
:1052300081E08093D90608958091BB069091BC06C9
:10524000892B49F08091BB069091BC060197909301
:10525000BC068093BB068091DA06882399F42091DE
:10526000BB063091BC068091BF069091C0062817FE
:10527000390741F481E060E070E00E94D41B81E0D6
:105280008093DA060895FF920F931F93CF93DF93D5
:1052900080911707882309F459C0009118071091CD
:1052A0001907F801C081D1818C819D8101979D836F
:1052B0008C83181619060CF449C0898180FF05C03B
:1052C0008E81882311F481E08E83898181FF03C060
:1052D000EF81F8850995809117078230A8F0F801D1
:1052E0008281938190931907809318071382128209
:1052F000E0910000F0910100848195811816190653
:105300003CF0FF24F39405C010921907109218077F
:10531000FF2480911707815080931707809117070A
:10532000882311F40E94AE29898182FF08C08A81F6
:105330009B819D838C83C8010E94232508C0C801DE
:105340000E94B73289818F7E898301C0FF248F2D0F
:10535000DF91CF911F910F91FF90089510925F04FC
:105360000895FC018091CE06823069F48091640436
:1053700091E0892780936404882309F03EC08081EE
:10538000837E80833AC08091AD069091AE06C3972C
:10539000A4F56623D1F02091AD063091AE0680E6EB
:1053A00090E0BC01269FC001279F900D369F900D75
:1053B0001124880F892F881F990B9093C206809320
:1053C000C10681E08093620418C080916204882342
:1053D000A1F08091C1069091C20601979093C206F8
:1053E0008093C1068091C1069091C206892B29F451
:1053F0008081837E8083109262048091CF06823008
:1054000069F48091630491E0892780936304882381
:1054100009F03EC080818F71808308958091AF062E
:105420009091B006C397A4F54423D1F02091AF0624
:105430003091B00680E690E0AC01249FC001259F2A
:10544000900D349F900D1124880F892F881F990B80
:105450009093C4068093C30681E08093610408950D
:10546000809161048823A1F08091C3069091C406C5
:1054700001979093C4068093C3068091C3069091D0
:10548000C406892B29F480818F7180831092610476
:1054900008955058BB27AA270ED075C166D130F0A9
:1054A0006BD120F031F49F3F11F41EF45BC10EF478
:1054B000E095E7FB51C1E92F77D180F3BA17620776
:1054C00073078407950718F071F49EF58FC10EF4E9
:1054D000E0950B2EBA2FA02D0B01B90190010C0104
:1054E000CA01A0011124FF27591B99F0593F50F41C
:1054F000503E68F11A16F040A22F232F342F442774
:10550000585FF3CF469537952795A795F04053956B
:10551000C9F77EF41F16BA0B620B730B840BBAF03B
:105520009150A1F0FF0FBB1F661F771F881FC2F7A6
:105530000EC0BA0F621F731F841F48F487957795BA
:105540006795B795F7959E3F08F0B3CF9395880F71
:1055500008F09927EE0F979587950895D9D008F40C
:1055600081E008950CD00FC107D140F0FED030F09B
:1055700021F45F3F19F0F0C0511139C1F3C014D1CB
:1055800098F39923C9F35523B1F3951B550BBB270A
:10559000AA2762177307840738F09F5F5F4F220FB7
:1055A000331F441FAA1FA9F333D00E2E3AF0E0E8B0
:1055B00030D091505040E695001CCAF729D0FE2FFC
:1055C00027D0660F771F881FBB1F2617370748078E
:1055D000AB07B0E809F0BB0B802DBF01FF27935844
:1055E0005F4F2AF09E3F510568F0B6C000C15F3F93
:1055F000ECF3983EDCF3869577956795B795F7952C
:105600009F5FC9F7880F911D9695879597F9089523
:10561000E1E0660F771F881FBB1F621773078407BF
:10562000BA0720F0621B730B840BBA0BEE1F88F7CE
:10563000E095089504D06894B111D9C00895BCD004
:1056400088F09F5790F0B92F9927B751A0F0D1F06B
:10565000660F771F881F991F1AF0BA95C9F712C0F5
:10566000B13081F0C3D0B1E00895C0C0672F782F6A
:105670008827B85F39F0B93FCCF386957795679561
:10568000B395D9F73EF490958095709561957F4FCD
:105690008F4F9F4F0895E89409C097FB3EF4909573
:1056A0008095709561957F4F8F4F9F4F9923A9F0FB
:1056B000F92F96E9BB279395F6958795779567958A
:1056C000B795F111F8CFFAF4BB0F11F460FF1BC0CE
:1056D0006F5F7F4F8F4F9F4F16C0882311F096E961
:1056E00011C0772321F09EE8872F762F05C066230F
:1056F00071F096E8862F70E060E02AF09A95660FC8
:10570000771F881FDAF7880F9695879597F9089580
:10571000990F0008550FAA0BE0E8FEEF16161706C2
:10572000E807F907C0F012161306E407F50798F02A
:10573000621B730B840B950B39F40A2661F0232B43
:10574000242B252B21F408950A2609F4A140A695BF
:105750008FEF811D811D089597F99F6780E870E0A4
:1057600060E008959FEF80EC089500240A941616D7
:10577000170618060906089500240A94121613063F
:10578000140605060895092E0394000C11F48823CD
:1057900052F0BB0F40F4BF2B11F460FF04C06F5FE9
:1057A0007F4F8F4F9F4F089557FD9058440F551FBF
:1057B00059F05F3F71F04795880F97FB991F61F093
:1057C0009F3F79F087950895121613061406551F0A
:1057D000F2CF4695F1DF08C0161617061806991F76
:1057E000F1CF86957105610508940895E894BB276B
:1057F00066277727CB0197F908958ADF08F48FEFA2
:105800000895DADFA8F19E57A8F1985160F039F1B8
:10581000983070F5092E9927660F771F881F991FFA
:105820000A94D1F71CC0BB27993F4CF4B111B1E0E9
:10583000B62B672F782F8827985FB1F708C0869519
:1058400077956795B79508F4B1609395C1F7BB0F4D
:1058500030F411F460FF03C06F5F7F4F8F4F3EF451
:1058600090958095709561957F4F8F4F9F4F0895CC
:105870006894BDCFBBCF0BD086CF77DF28F07CDF1D
:1058800018F0952309F068CF6DCF1124B0CF8CDFCD
:10589000A0F3959FD1F3950F50E0551F629FF00143
:1058A000729FBB27F00DB11D639FAA27F00DB11D9C
:1058B000AA1F649F6627B00DA11D661F829F222725
:1058C000B00DA11D621F739FB00DA11D621F839FAC
:1058D000A00D611D221F749F3327A00D611D231F82
:1058E000849F600D211D822F762F6A2F11249F57D0
:1058F00050408AF0E1F088234AF0EE0FFF1FBB1FF3
:10590000661F771F881F91505040A9F79E3F510591
:1059100070F022CF6CCF5F3FECF3983EDCF38695BE
:1059200077956795B795F795E7959F5FC1F7FE2B3C
:10593000880F911D9695879597F90895FA01EE0FB6
:10594000FF1F30962105310599F16115710561F44C
:105950008038BFE39B0749F168949038810561F076
:105960008038BFEF9B0741F0992342F5FF3FE105E7
:105970003105210511F1E8940894E795D901AA238E
:1059800029F4AB2FBE2FF85FD0F310C0FF5F70F487
:10599000A695E0F7F73950F019F0FF3A38F49F7701
:1059A0009F930CD00F9007FC905808953EF0DACEEC
:1059B00060E070E080E89FE308954FE79F775F9392
:1059C0004F933F932F939ED02F913F914F915F9193
:1059D00052DF05C019F40EF0BFCE08CFC3CEECDE07
:1059E000C8F39638C0F707F80F92E8942BE33AEA29
:1059F00048EB5FE74EDF0F920F920F924DB75EB705
:105A00000F92C0D0E8ECF0E016D04F915F91EF918B
:105A1000FF91E595EE1FFF1F49F0FE57E068442710
:105A2000EE0F441FFA95E1F74195550B32D00F90D8
:105A300007FE26C00895DF93CF931F930F93FF9225
:105A4000EF92DF927B018C01689405C0DA2EEF01A2
:105A50001EDFFE01E894A591259135914591559160
:105A6000AEF3EF0128DDFE019701A801DA9479F782
:105A7000DF90EF90FF900F911F91CF91DF910895EC
:105A80009B01AC0160E070E080E89FE36BCD64CEE9
:105A9000ACC092DEE8F39923D9F3940F511DBBF308
:105AA0009150504094F059F0882332F0660F771FE0
:105AB000881F91505040C1F79E3F510544F7880F11
:105AC000911D9695879597F908955F3FACF0983EA4
:105AD0009CF0BB27869577956795B79508F4B160DC
