:100000000C9431030C944E030C944E030C944E0349
:100010000C9488220C94B1220C94DA220C940323C1
:100020000C944E030C9469210C9492210C94BB21E6
:100030000C9436220C94E4210C940D220C945F2233
:100040000C94EE200C9417210C9440210C944E0338
:100050000C944E030C944E030C944E030C944E03DC
:100060000C944E030C944E030C944E030C944E03CC
:100070000C944E030C944E030C944E03531E561EC8
:10008000591E5C1E651E5F1E621E681E6B1E6E1E64
:10009000711E741E771E7A1E7D1E801E831E861E94
:1000A000891E9A1E9D1EA01EA31EAC1EA61EA91E62
:1000B000AF1EB21EB51EB81EBB1EBE1EC11EC41E84
:1000C000C71ECA1ECD1ED01E07634236B79BD8A7D7
:1000D0001A39685618AEBAAB558C1D3CB7CC57636D
:1000E000BD6DEDFD753EF6177231BF000000803F1B
:1000F00008000000BE922449123EABAAAA2ABECD37
:10010000CCCC4C3E00000080BEABAAAAAA3E0000A8
:100110000000BF000000803F0000000000084178A0
:10012000D3BB4387D1133D190E3CC3BD4282AD2BD7
:100130003E68EC8276BED98FE1A93E4C80EFFFBECF
:1001400001C4FF7F3F000000000016050100000011
:1001500000000000FA000000E000E00028FE28FE99
:10016000282454FE5448C4C81026466C92AA44A0C1
:1001700000A0C000000038448200008244380028FB
:10018000107C102810107C1010000A0C00001010B9
:10019000101010000606000004081020407C8A920F
:1001A000A27C0042FE020042868A92628482A2D22F
:1001B0008C182848FE08E4A2A2A29C3C5292920C01
:1001C000808E90A0C06C9292926C60929294780013
:1001D0006C6C0000006A6C00001028448200282823
:1001E000282828008244281040808A90604C929EE3
:1001F000827C7E8888887EFE9292926C7C8282824B
:1002000044FE82824438FE92929282FE90909080C8
:100210007C8292925EFE101010FE0082FE8200042C
:100220000282FC80FE10284482FE02020202FE408E
:100230003040FEFE201008FE7C8282827CFE909080
:1002400090607C828A847AFE909894626292929204
:100250008C8080FE8080FC020202FCF8040204F81C
:10026000FC021C02FCC6281028C6E0100E10E08616
:100270008A92A2C200FE82820040201008040082FE
:1002800082FE0020408040200202020202008040E4
:100290002000042A2A2A1EFE1222221C1C222222AC
:1002A000041C222212FE1C2A2A2A18107E9080404A
:1002B000304A4A4A7CFE1020201E0022BE02000462
:1002C0000222BC00FE081422000082FE02003E2032
:1002D00018201E3E1020201E1C2222221C3E2828F0
:1002E0002810102828183E3E10202010122A2A2AF2
:1002F0000420FC2202043C0202043E3804020438BA
:100300003C020C023C2214081422300A0A0A3C2245
:10031000262A322200106C82000000FE00000082BB
:100320006C1000081010081000000000007F818190
:10033000817F7F8383837F7F8787877F7F8F8F8F77
:100340007F7F9F9F9F7F7FBFBFBF7F7FFFFFFF7F1D
:100350002040FF4020621517156500FBFB000000E0
:1003600000000000C0FF0300E0FF0700F0FF0F00E7
:10037000F8FF1F0078001E0078001E0078001E00A5
:1003800078001E0078001E0078001E0078001E0015
:1003900078001E0078001E00000000000000000031
:1003A00080FF0300E0FF0700F0FF0F00F8FF1F00D1
:1003B000F83C1F00783C1E00783C1E00783C1E0074
:1003C000783C1E00783C1E00783C1E00783C1E00E5
:1003D000783C1E00783C1E00783C1E0000000000A7
:1003E00000000000E0FF0300F0FF0700F8FF0F002F
:1003F000F8FF1F00783C1E00783C1E00783C1E0071
:10040000783C1E00783C1E00783C1E00783C1E00A4
:10041000783C1E00783C1E00783C1E000000000066
:1004200000000000F8FF0300F8FF0F00F8FF1F00B6
:10043000F8FF1F0000001E0000001E0000801F00CB
:1004400000F01F0000FF0F00E0FF0700F0FF0000BA
:10045000F80F0000F80000007800000078000000AD
:10046000F8FF1F00F8FF1F00F0FF1F00E0FF1F0054
:100470000000000000000000F8FF1F00F8FF1F0050
:10048000F8FF1F00F8FF1F0078001E00783C1E00D8
:10049000783C1E00783C1E00783C1E00783C1E0014
:1004A000783C1E00F87E1F00F8FF1F00F0FF0F00D1
:1004B000E0E703000000000000003800EEFF6C00E1
:1004C0002A8045003A0047FC03FF6CFC83FF39009B
:1004D000DEFF0B7CD0810BFCD0810BC0D0810BFCEC
:1004E000D0810B7CDEFF0B0082FF397002FF6CF8BD
:1004F0003A0047DC2A8045CCEEFF6CCC0000380087
:100500000000000C00001E0C00001E0000001E0079
:1005100000001E0000001E00F8FF1F00F8FF1F0073
:10052000F8FF1F00F8FF1F0000001E0000001E0063
:1005300000001E0000001E0000005E0000004000E1
:1005400000007C00000040000000400000007C0033
:1005500000003000000010000000300000007C6E41
:10056000616E00696E660000407A10F35A00A07256
:100570004E18090010A5D4E80000E87648170000DE
:10058000E40B54020000CA9A3B000000E1F50500AC
:100590000080969800000040420F000000A08601F5
:1005A000000000102700000000E8030000000064C5
:1005B00000000000000A0000000000010000000030
:1005C000002C76D888DC674F0823DFC1DFAE59E105
:1005D000B1B796E5E3E453C63AE651997696E8E674
:1005E000C28426EB898C9B62ED407C6FFCEFBC9C47
:1005F0009F40F2BAA56FA5F490055A2AF75C936B59
:100600006CF9676DC11BFCE0E40D47FEF520E6B513
:1006100000D0ED902E0300943577050080841E08ED
:100620000000204E0A000000C80C333333330F980B
:100630006E12831141EF8D2114893BE65516CFFED2
:10064000E6DB18D1844B381BF77C1D901DA4BBE45E
:1006500024203284725E228100C9F124ECA1E53DA0
:10066000270011241FBECFEFD8E0DEBFCDBF13E0BF
:10067000A0E0B1E0E6E2FDE602C005900D92A639E9
:10068000B107D9F718E0A6E9B3E001C01D92A13D7A
:10069000B107E1F70E94D8180C9491360C94000031
:1006A0001F93CF93DF93EC0188E660E00E94522015
:1006B000182F8823A1F481E00E942C20182F882372
:1006C00071F488E661E00E945220182F882339F4E3
:1006D000CE0160E00E940020182F811118820E9434
:1006E0009820812FDF91CF911F9108951F93CF9371
:1006F000DF93EC0188E660E00E945220182F8823E7
:10070000A1F489E00E942C20182F882371F488E638
:1007100061E00E945220182F882339F4CE0160E056
:100720000E940020182F811118820E949820812F8A
:10073000DF91CF911F9108951F93CF93DF93EC0129
:1007400088E660E00E945220182F8823A1F488E0F8
:100750000E942C20182F882371F488E661E00E9403
:100760005220182F882339F4CE0160E00E94002027
:10077000182F811118820E949820812FDF91CF912C
:100780001F9108951F93CF93DF93EC0188E660E0FB
:100790000E945220182F8823A1F487E00E942C2069
:1007A000182F882371F488E661E00E945220182FE8
:1007B000882339F4CE0160E00E940020182F8111B7
:1007C00018820E949820812FDF91CF911F91089568
:1007D0001F93CF93DF93EC0188E660E00E945220E4
:1007E000182F8823A1F486E00E942C20182F88233C
:1007F00071F488E661E00E945220182F882339F4B2
:10080000CE0160E00E940020182F811118820E9402
:100810009820812FDF91CF911F9108951F93CF933F
:10082000DF93EC0188E660E00E945220182F8823B5
:10083000A1F485E00E942C20182F882371F488E60B
:1008400061E00E945220182F882339F4CE0160E025
:100850000E940020182F811118820E949820812F59
:10086000DF91CF911F9108951F93CF93DF93EC01F8
:1008700088E660E00E945220182F8823A1F484E0CB
:100880000E942C20182F882371F488E661E00E94D2
:100890005220182F882339F4CE0160E00E940020F6
:1008A000182F811118820E949820812FDF91CF91FB
:1008B0001F9108951F93CF93DF93EC0188E660E0CA
:1008C0000E945220182F8823A1F483E00E942C203C
:1008D000182F882371F488E661E00E945220182FB7
:1008E000882339F4CE0160E00E940020182F811186
:1008F00018820E949820812FDF91CF911F91089537
:100900001F93CF93DF93EC0188E660E00E945220B2
:10091000182F8823A1F482E00E942C20182F88230E
:1009200071F488E661E00E945220182F882339F480
:10093000CE0160E00E940020182F811118820E94D1
:100940009820812FDF91CF911F9108951F93CF930E
:10095000DF93EC0188E660E00E945220182F882384
:10096000A1F480E00E942C20182F882371F488E6DF
:1009700061E00E945220182F882339F4CE0160E0F4
:100980000E940020182F811118820E949820812F28
:10099000DF91CF911F91089581E00E94CD1885E0ED
:1009A0000E9496180E947918A0E0B0E0BC01CD0129
:1009B0000E949A2C20E030E040EA50E40E94992BFB
:1009C0009B01AC0160E070E286E395E40E94012C9B
:1009D00020E030E040E85FE30E94982B089581E03A
:1009E0000E94CD1887E00E9496180E947918A0E016
:1009F000B0E0BC01CD010E949A2C20E030E040EA3A
:100A000050E40E94992B9B01AC0160E070E286E308
:100A100095E40E94012C20E030E040E85FE30E9472
:100A2000982B089581E00E94CD1883E00E949618CB
:100A30000E947918A0E0B0E0BC01CD010E949A2C80
:100A400020E030E040EA50E40E94992B9B01AC0189
:100A500060E070E286E395E40E94012C20E030E043
:100A600040E85FE30E94982B089581E00E94CD1832
:100A700084E00E9496180E947918A0E0B0E0BC01C2
:100A8000CD010E949A2C20E030E040EA50E40E9420
:100A9000992B9B01AC0160E070E286E395E40E9433
:100AA000012C20E030E040E85FE30E94982B08959D
:100AB00081E00E94CD1885E00E9496180E94791866
:100AC000A0E0B0E0BC01CD010E949A2C20E030E013
:100AD00040EA5BE30E948A2D089581E00E94CD18D0
:100AE00086E00E9496180E947918A0E0B0E0BC0150
:100AF000CD010E949A2C20E030E040EA5BE30E94A6
:100B00008A2D08950F931F9381E08093120480E053
:100B10000E94041F082F81E00E94041F182F82E00A
:100B20000E94041F113019F422E030E006C020E0DA
:100B300030E0013011F421E030E0813011F423E0A5
:100B400030E0C9011F910F910895FF920F931F93F9
:100B5000CF93DF930E94E11881E08093120480E03C
:100B60000E94041F182F81E00E94041F082F82E0BA
:100B70000E94041FF82E113019F0C0E0D0E013C01D
:100B800080E091E00E94E33580E20E94F01984EF5A
:100B900091E00E94A11F80E40E94DB1980E20E9484
:100BA000DB19C1E0D0E0013099F48CE091E00E94C3
:100BB000E33580E40E94F01984EF91E00E94A11FC8
:100BC00080E40E94DB1980E20E94DB19C2E0D0E0E1
:100BD00081E0F816B1F488E191E00E94E33580E409
:100BE0000E94F01980E20E94F01984EF91E00E94C7
:100BF000A11F80E40E94DB1980E20E94DB19C3E0A0
:100C0000D0E00E94E118CE01DF91CF911F910F91AA
:100C1000FF9008951F93182F2091140460914E089F
:100C200070E0620F711D75956795882777FD809537
:100C3000982F0E949C2C2CED38EB48E05EE30E943C
:100C40008A2D0E946E2C20911505261710F0112375
:100C500039F081E08093C00710924E08109214047E
:100C60001F910895EF92FF920F931F9360918E044E
:100C700070918F04809190049091910420E030E075
:100C800040E551E40E94FD2BF82EFF1CFF24FF1CC1
:100C9000FF0CFF0CFF0C6091BC077091BD078091A9
:100CA000BE079091BF0720E030E040EF51E40E9482
:100CB000FD2B082F001F0027001F000F000F609161
:100CC00098047091990480919A0490919B0420E07B
:100CD00030E04CE052E40E94FD2B182F111F112729
:100CE000111F110FEE246091C1077091C20780910E
:100CF000C3079091C40720E030E040EF51E40E9428
:100D0000FD2B882314F4EE24E3948F2D8E0D800F99
:100D1000810F8093960420919704E22FF0E0E35C2A
:100D2000F74F918190939C04891719F42F5F2093BA
:100D300097041F910F91FF90EF9008952F923F928B
:100D40004F925F926F927F928F929F92AF92BF92DB
:100D5000CF92DF92EF92FF920F931F93DF93CF9387
:100D600000D000D0CDB7DEB760908E0470908F04B5
:100D70008090900490909104A0909804B090990471
:100D8000C0909A04D0909B04E090C107F090C207F5
:100D90000091C3071091C4078091BC079091BD07D3
:100DA000A091BE07B091BF0789839A83AB83BC83B0
:100DB000C801B70129813A814B815C810E94982B3F
:100DC0001B012C01C401B30120E030E040EE50E4EF
:100DD0000E94FD2B87FD0BC0C601B50120E030E06D
:100DE00040EE50E40E94FD2B88230CF068C0C40143
:100DF000B301A60195010E94982B7B018C017724F9
:100E000020E030E040E050E00E944C2D882314F0B8
:100E100077247394C801B7010E94692C9B0177FF66
:100E200003C0309521953F4FB901882777FD809504
:100E3000982F0E949C2C6B017C01ADB7BEB719970F
:100E40000FB6F894BEBF0FBEADBF0DB71EB70F5F94
:100E50001F4FA20191010E94992B0E946E2C4B0101
:100E60005C0182E390E0F80191838083C701B601C1
:100E7000A20191010E94982B0E946E2CD80113961A
:100E80007C936E93129782EC91E015969C938E93CF
:100E9000149716961C92169718961C921E921797E6
:100EA00081E062E0472D22E330E0840172ECE72E1E
:100EB00071E0F72ECC24AA24BB24872C82C0C80161
:100EC000B70120E030E040E251E40E94FD2B88238E
:100ED000B4F5C201B1010E94692C8B0177FF03C0F8
:100EE000109501951F4F2DB73EB7295030400FB6D2
:100EF000F8943EBF0FBE2DBFEDB7FEB7319688EC1C
:100F000090E0ADB7BEB712969C938E931197138362
:100F1000028382EC91E09583848316821086178287
:100F200081E062E040E028EC30E052ECE52E51E058
:100F3000F52ECC24AA24BB248824839442C0698142
:100F40007A818B819C8120E030E040E251E40E9474
:100F5000FD2B87FD02C080E03FC0C201B1010E94AD
:100F6000692C8B0177FF03C0109501951F4F2DB79A
:100F70003EB7295030400FB6F8943EBF0FBE2DBF8C
:100F8000EDB7FEB7319688EC90E0ADB7BEB71296DC
:100F90009C938E9311971383028382EC91E0958347
:100FA000848316821086178281E062E041E028EC9B
:100FB00030E092ECE92E91E0F92ECC24AA24BB2457
:100FC00088240E94C21B81E0EDB7FEB739960FB6A8
:100FD000F894FEBF0FBEEDBF0F900F900F900F90D3
:100FE000CF91DF911F910F91FF90EF90DF90CF9005
:100FF000BF90AF909F908F907F906F905F904F9039
:101000003F902F9008958F92AF92BF92CF92DF9230
:10101000EF92FF920F931F93CF93DF930E94FA1AE0
:10102000672B09F076C0892B09F073C00E94A834A1
:101030008C010E94A834EC010E94A8347C010E941B
:10104000A83420E06AE070E00E94D93208970CF0E2
:1010500021E0822E8094C80160E971E00E94D932BB
:10106000F0E9AF2EF1E0BF2EA80EB91E8DB79EB7E6
:1010700009970FB6F8949EBF0FBE8DBF0DB71EB770
:101080000F5F1F4FC70168EC70E00E94D932885390
:101090009F4FAA2797FDA095BA2FBC01CD010E94B2
:1010A0009C2C0E946E2C6B017C01F801B182A08205
:1010B000CE0168EC70E00E94D93288539F4FAA2776
:1010C00097FDA095BA2FBC01CD010E949C2C0E94D7
:1010D0006E2CF8017383628382EC91E095838483A4
:1010E00016821086178281E062E0482D9501860104
:1010F000E2ECEE2EE1E0FE2ECC24AA24BB240E94DA
:10110000C21B8DB79EB709960FB6F8949EBF0FBE4F
:101110008DBF81E0DF91CF911F910F91FF90EF90F4
:10112000DF90CF90BF90AF908F9008952F923F9215
:101130004F925F926F927F928F929F92AF92BF92E7
:10114000CF92DF92EF92FF920F931F93E0908E0465
:10115000F0908F0400919004109191043324C80101
:10116000B70120E030E040E050E00E94FD2B8823F2
:1011700014F433243394A090C107B090C207C090F8
:10118000C307D090C4074090BC075090BD07609043
:10119000BE077090BF0788246091980470919904ED
:1011A00080919A0490919B0420E030E040E751E464
:1011B0000E94FD2B882314F488248394932C982870
:1011C0008824C601B50120E030E040E251E40E94ED
:1011D000FD2B882314F48824839498288824C30141
:1011E000B20120E030E040E251E40E94FD2B882370
:1011F00014F488248394292C282881F460E070E07A
:1012000080E09FE420E030E040E251E479018A018F
:1012100059016A0188240E9421120FC1C601B5013B
:1012200020E030E040E251E40E944C2D181664F4B6
:1012300080E090E0A0E0B1EC8093C1079093C207FA
:10124000A093C307B093C407C301B20120E030E00C
:1012500040E251E40E944C2D181614F080E00DC0BD
:1012600080E090E0A0E0B1EC8093BC079093BD07D4
:10127000A093BE07B093BF0781E0332021F18823FC
:1012800029F060E070E08AE794E404C060E070E078
:101290008AE794ECA80197010E94012C2091BC07D9
:1012A0003091BD074091BE075091BF070E94992B16
:1012B0009B01AC016091C1077091C2078091C30787
:1012C0009091C40710C06091C1077091C2078091CE
:1012D000C3079091C4072091BC073091BD0740918E
:1012E000BE075091BF070E94982B905840E00E9483
:1012F000AD116B017C010E94692C8B0177FF03C04B
:10130000109501951F4F05361105FCF0C701B60178
:1013100020E030E040E050E00E94FD2B8823A9F05F
:10132000B801882777FD8095982F0E949C2C9B01FF
:10133000AC01C701B6010E94012C20E030E048EC6E
:1013400052E40E948A2D6B017C01C701B60120E0A6
:1013500030E048EC52E40E94012C6B017C010E94B9
:10136000FA1A6093B4077093B5078093B607909309
:10137000B70780914E088E5C861B80934E08809143
:1013800014048E5C9091B607891B809314048DB76A
:101390009EB709970FB6F8949EBF0FBE8DBF0DB7CD
:1013A0001EB70F5F1F4FC701B60120E030E048ECC9
:1013B00052E40E948A2D20E030E048EC52E40E9482
:1013C000992B0E946E2C4B015C0182E390E0F801A6
:1013D00091838083C701B60120E030E048EC52ECF5
:1013E0000E948A2D20E030E048EC52E40E94992BC4
:1013F0000E946E2CF8017383628382EC91E09583E6
:10140000848316821086178281E062E041E022E345
:1014100030E08401A2ECEA2EA1E0FA2ECC24AA242A
:10142000BB24882483940E94C21B8DB79EB7099663
:101430000FB6F8949EBF0FBE8DBF822D1F910F91E6
:10144000FF90EF90DF90CF90BF90AF909F908F90E4
:101450007F906F905F904F903F902F9008958F9264
:10146000AF92BF92CF92DF92EF92FF920F931F93B2
:101470000E94E118E0919704F0E0EA5EFA4FE08103
:10148000E093130480E0E13009F481E090E0E33080
:1014900009F491E0892B282F30E040E050E0809162
:1014A0001504823011F441E050E024233523232B2E
:1014B000B9F060E070E080E09FE42DEB34E74BEDA5
:1014C00051E40F2EF0E0EF2EF0E0FF2EF0E20F2FB0
:1014D000F1E41F2FF02D5701680188240E94D114D8
:1014E0002091150480E0213009F481E090E0233060
:1014F00009F491E0892B282F30E040E050E0809102
:101500001304823011F441E050E024233523232BCF
:10151000B9F060E070E080E09FE42DEB34E74BED44
:1015200051E40F2EF0E0EF2EF0E0FF2EF0E20F2F4F
:10153000F1E41F2FF02D5701680188240E94D11477
:10154000809113048230C1F1833009F461C081308D
:1015500009F09FC08DB79EB708970FB6F8949EBF4D
:101560000FBE8DBFEDB7FEB7319684E291E0ADB707
:10157000BEB712969C938E931197809197048283A5
:101580001382809196048483158280919C048683C3
:1015900017820E94D135EDB7FEB738960FB6F89492
:1015A000FEBF0FBEEDBF60E070E080E090E020E0A5
:1015B00030E044E851EC5DC08DB79EB708970FB698
:1015C000F8949EBF0FBE8DBFEDB7FEB731968FE486
:1015D00091E0ADB7BEB712969C938E931197809110
:1015E000970482831382809196048483158280916C
:1015F0009C04868317820E94D135EDB7FEB73896DA
:101600000FB6F894FEBF0FBEEDBF0E94960853C000
:101610008DB79EB708970FB6F8949EBF0FBE8DBFCB
:10162000EDB7FEB731968DE791E0ADB7BEB7129634
:101630009C938E931197809197048283138280915B
:1016400096048483158280919C04868317820E946D
:10165000D135EDB7FEB738960FB6F894FEBF0FBE82
:10166000EDBF60E070E080E090E020E030E044E832
:1016700051E40F2EF0E0EF2EF0E0FF2EF0E20F2FFE
:10168000F1E41F2FF02D5701680188240E94D11426
:1016900012C000D089EA91E0ADB7BEB712969C9314
:1016A0008E9311970E94D1350F900F9082E060E0E9
:1016B0000E94D11DFFCF809113048093150481E017
:1016C0001F910F91FF90EF90DF90CF90BF90AF9060
:1016D0008F9008950E942F0A882369F080E090E09F
:1016E000A0E0B0E08093920490939304A0939404BC
:1016F000B093950481E00895FF920F931F93CF93C9
:10170000DF93FF24F39410E0C0EBD1E00E94820548
:10171000082F813021F0823011F0833039F4E12F2D
:10172000F0E0EA5EFA4F00831F5F02C0882321F1D8
:101730000E94E1188DB79EB708970FB6F8949EBF28
:101740000FBE8DBFEDB7FEB73196ADB7BEB71296DF
:10175000DC93CE931197F282138204831582168351
:1017600017820E94D135F02E8DB79EB708960FB61E
:10177000F8949EBF0FBE8DBF84EF91E00E94A11F21
:101780001B3020F21F5FE12FF0E0EA5EFA4F84E0A9
:101790008083DF91CF911F910F91FF9008951F9348
:1017A000CF93DF9310E0C1EED1E00E94820581303B
:1017B00021F48091B807880F06C0823039F48091F7
:1017C000B807880F8F5F8093B8071F5F0E94E118EA
:1017D00000D000D000D0EDB7FEB73196ADB7BEB7A0
:1017E0001296DC93CE9311978091B807828313826F
:1017F000148315820E94D1358091B8078093B90770
:101800008DB79EB706960FB6F8949EBF0FBE8DBFDC
:1018100084EF91E00E94A11F143038F2DF91CF9144
:101820001F9108951F93CF93DF9310E0C9E0D2E09A
:101830000E948205813021F480913705880F06C00F
:10184000823041F480913705880F8F5F8093370590
:101850001F5F02C08823F1F00E94E11800D000D081
:1018600000D0EDB7FEB73196ADB7BEB71296DC9398
:10187000CE9311978091370582831382148315824A
:101880000E94D1358DB79EB706960FB6F8949EBFCD
:101890000FBE8DBF84EF91E00E94A11F123040F275
:1018A0000E94E11880913705813051F0813028F095
:1018B000823049F0833071F409C088E392E008C0B7
:1018C0008AE592E005C08BE792E002C08DE992E0E4
:1018D0000E94E33584EF91E00E94A11FDF91CF9138
:1018E0001F910895CF92DF92EF92FF920F931F9373
:1018F000DF93CF930F92CDB7DEB78091B807F82E64
:10190000F694F694982F937000913705CC24DD243B
:10191000F601EA5EFA4F1081EF2DF0E0EE0FFF1FA7
:10192000EE0FFF1FE90FF11DEA5DFA4F8081602F76
:1019300041E099830E940C12F601E35CF74F80832B
:101940009981123089F4013049F0013028F00230D9
:1019500039F0033089F406C0FA940EC09F5F0CC0C2
:10196000F3940AC0915008C0133011F40F5F03C004
:10197000113011F4015003700894C11CD11C8DE08A
:10198000C816D10429F6CC24DD24EEEBEE2EE2E0DD
:10199000FE2EF601E35CF74F00810E94E118202F34
:1019A00030E0ADB7BEB754970FB6F894BEBF0FBEC8
:1019B000ADBFEDB7FEB731961296FC92EE9211973D
:1019C000D382C282112707FD10950027110F001F37
:1019D000112715830483C90166E0969587956A955A
:1019E000E1F78170907097838683C90155E09695E1
:1019F00087955A95E1F78170907091878087C9012A
:101A000044E0969587954A95E1F7817090709387A9
:101A10008287C90103E0969587950A95E1F7817061
:101A2000907095878487C901969587959695879537
:101A30008170907097878687C90196958795817088
:101A40009070918B808B21703070338B228B0E9431
:101A5000D135EDB7FEB774960FB6F894FEBF0FBE42
:101A6000EDBF84EF91E00E94A11F0894C11CD11C1E
:101A7000FDE0CF16D10409F08CCF0F90CF91DF910C
:101A80001F910F91FF90EF90DF90CF900895FF92FC
:101A90000F931F938091B807082F0695069513E0C2
:101AA000F12EF8221091370580919604612F40E0C5
:101AB0000E940C12E02FF0E0EE0FFF1FEE0FFF1F51
:101AC000EF0DF11DEA5DFA4F80838091130482309F
:101AD000A1F0833021F0813029F4115001C01F5F43
:101AE00013700BC000D080EE92E0EDB7FEB792838A
:101AF00081830E94D1350F900F90113049F0113041
:101B000028F0123039F0133041F406C0015005C0FE
:101B1000F39403C00F5F01C0FA94000F000F0F0D84
:101B20000093B8071F910F91FF9008958F92AF9285
:101B3000BF92CF92DF92EF92FF920F931F9380910B
:101B4000960480FD04C081E0809313040AC083FDE5
:101B500004C082E08093130406C083E080931304E2
:101B600081E00E940A068091C007882311F00E943C
:101B7000470D0E94E11880911304823009F459C086
:101B8000833009F482C0813009F0C0C08DB79EB7A0
:101B900008970FB6F8949EBF0FBE8DBFEDB7FEB786
:101BA000319684E291E0ADB7BEB712969C938E93C6
:101BB0001197809197048283138280919604848385
:101BC000158280919C04868317820E94D135EDB7DF
:101BD000FEB738960FB6F894FEBF0FBEEDBF60E0BB
:101BE00070E080E09FE42BE533ED4CEC51E40F2EE8
:101BF000F0E0EF2EF0E0FF2EF0E20F2FF1E41F2FC8
:101C0000F02D5701680188240E94D11460E070E033
:101C100080E090E020E030E044E851EC0E94D114F4
:101C200060E070E080E09FE428E431EE46E352E4B7
:101C30006AC08DB79EB708970FB6F8949EBF0FBEC7
:101C40008DBFEDB7FEB731968FE491E0ADB7BEB76B
:101C500012969C938E93119780919704828313829E
:101C6000809196048483158280919C0486831782D8
:101C70000E94D135EDB7FEB738960FB6F894FEBF87
:101C80000FBEEDBF0E94960852C08DB79EB7089751
:101C90000FB6F8949EBF0FBE8DBFEDB7FEB731965D
:101CA0008DE791E0ADB7BEB712969C938E931197D6
:101CB0008091970482831382809196048483158295
:101CC00080919C04868317820E94D135EDB7FEB7C0
:101CD00038960FB6F894FEBF0FBEEDBF60E070E01F
:101CE00080E090E020E030E044E851E40F2EF0E0A6
:101CF000EF2EF0E0FF2EF0E20F2FF1E41F2FF02D7A
:101D00005701680188240E94D11411C000D089EACB
:101D100091E0ADB7BEB712969C938E9311970E9437
:101D2000D1350F900F9082E060E00E94D11D81E0DC
:101D30001F910F91FF90EF90DF90CF90BF90AF90E9
:101D40008F900895BF92CF92DF92EF92FF920F9300
:101D50001F93F82ED62E042FB22EDD0CDD0CDD0CD9
:101D600010E033E0000F111F3A95E1F7E02E1FE17C
:101D70001D19812F602F41E00E94CD1728E1C22E4E
:101D8000CD188C2D602F41E00E94CD17095F812F67
:101D9000602F41E00E94CD178C2D602F41E00E9402
:101DA000CD17F3FE24C06E2D6F5F812F41E00E949E
:101DB000CD176E2D6E5F812F41E00E94CD176E2DE5
:101DC0006D5F812F41E00E94CD176E2D6C5F812FDA
:101DD00041E00E94CD176E2D6B5F812F41E00E9484
:101DE000CD176E2D6A5F812F41E00E94CD17F2FE64
:101DF00025C08D2D8095815E602F41E00E94CD171A
:101E00008DE18D19602F41E00E94CD178CE18D1975
:101E1000602F41E00E94CD178BE18D19602F41E0CA
:101E20000E94CD178AE18D19602F41E00E94CD17E5
:101E300089E18D19602F41E00E94CD17F1FE24C089
:101E40006E2D6F5F8C2D41E00E94CD176E2D6E5F61
:101E50008C2D41E00E94CD176E2D6D5F8C2D41E0E1
:101E60000E94CD176E2D6C5F8C2D41E00E94CD1726
:101E70006E2D6B5F8C2D41E00E94CD176E2D6A5F39
:101E80008C2D41E00E94CD17F0FE25C08D2D809550
:101E9000815E6E2D41E00E94CD178DE18D196E2D72
:101EA00041E00E94CD178CE18D196E2D41E00E941A
:101EB000CD178BE18D196E2D41E00E94CD178AE17F
:101EC0008D196E2D41E00E94CD1789E18D196E2D7F
:101ED00041E00E94CD17BB20F1F00CE10D1993E019
:101EE000F92EFE0C802F6F2D4B2D0E94CD171BE17C
:101EF0001D19812F6F2D4B2D0E94CD1784E0F82ED8
:101F0000FE0C802F6F2D4B2D0E94CD17812F6F2D32
:101F10004B2D0E94CD171F910F91FF90EF90DF90F6
:101F2000CF90BF900895AF92BF92DF92EF92FF9251
:101F30000F931F93DF93CF930F92CDB7DEB78091AE
:101F4000B807D82ED694D69453E0E52EE82200E0C8
:101F500010E01EC0F5018081FD1419F020E030E092
:101F600006C020E030E09E1511F421E030E06F2D36
:101F7000492F99830E94A20E99819F5F0894A11C0A
:101F8000B11C943039F70F5F1F4F0430110561F019
:101F9000F02E5801AA0CBB1CAA0CBB1C86E295E0D3
:101FA000A80EB91E90E0D6CF0F90CF91DF911F9170
:101FB0000F91FF90EF90DF90BF90AF9008950E9437
:101FC0002D180E94930F88EE93E00E94A11F0E949B
:101FD000E11888EE92E00E94E33588EE93E00E94DB
:101FE000A11F0E94E1180E94CF0B88EE93E00E948F
:101FF000A11F0E94E1188EEF92E00E94E33588EE67
:1020000093E00E94A11F0E94E1180E94120C88EE2A
:1020100093E00E94A11F0E94E1188DE280931505B4
:1020200081E080934D080E94A417FDCF2F923F922C
:102030004F925F926F927F928F929F92AF92BF92D8
:10204000CF92DF92EF92FF920F931F93DF93CF9384
:10205000CDB7DEB764970FB6F894DEBF0FBECDBF25
:10206000882339F586E894E09C8B8B8BA5E3B8E058
:10207000BE83AD83ECEAF5E0FC83EB838DE095E075
:102080009A8389830F2EF0E02F2EF0E03F2EF0E0B0
:102090004F2EF0E05F2EF02D2F86388A498A5A8A1B
:1020A0002B863C864D865E862F82388649865A86E8
:1020B00043C0A090BC07B090BD07C090BE07D090B1
:1020C000BF07E090C107F090C2070091C3071091CD
:1020D000C40720908E0430908F044090900450905C
:1020E0009104209198043091990440919A04509160
:1020F0009B0480E090E0FC01EA5EFB4FA082B1828D
:10210000C282D382FC01EB53F84FE082F18202835A
:102110001383FC01E45CFA4F2082318242825382B5
:10212000FC01E356FB4F20833183428353830496A3
:102130008837910501F796CFAB89BC892D913D91E8
:102140004D915C911397FD0124833583468357831A
:10215000AD81BE81ED90FD900D911C911397FD0115
:10216000E482F58206831783AB81BC81AD90BD907C
:10217000CD90DC901397FD01A482B582C682D782F0
:10218000A981BA816D907D908D909C901397FD01EF
:102190006482758286829782C201B1010E94992B66
:1021A0001B012C016F85788989899A89A80197017B
:1021B0000E94992B6F87788B898B9A8B6B857C8596
:1021C0008D859E85A60195010E94992B6B877C8742
:1021D0008D879E876F81788589859A85A401930173
:1021E0000E94992B6F83788789879A878B899C892E
:1021F00004979C8B8B8BAD81BE811497BE83AD837E
:10220000EB81FC813497FC83EB8389819A8104976D
:102210009A838983AB89BC89AE50B44009F08CCFD6
:102220008091BC079091BD07A091BE07B091BF07F8
:10223000EB89FC8980879187A287B3878091C1074A
:102240009091C207A091C307B091C4078093C507BE
:102250009093C607A093C707B093C80780918E04D8
:1022600090918F04A0919004B091910480933C05CB
:1022700090933D05A0933E05B0933F05809198044F
:1022800090919904A0919A04B0919B0480939D042D
:1022900090939E04A0939F04B093A004C201B10147
:1022A00020E030E040EF51E40E94012C6093BC0735
:1022B0007093BD078093BE079093BF076F857889A1
:1022C00089899A8920E030E040EF51E40E94012C96
:1022D0006093C1077093C2078093C3079093C407AC
:1022E0006B857C858D859E8520E030E040EF51E454
:1022F0000E94012C60938E0470938F04809390044D
:10230000909391046F81788589859A8520E030E0EB
:1023100040EF51E40E94012C60939804709399045B
:1023200080939A0490939B0464960FB6F894DEBF52
:102330000FBECDBFCF91DF911F910F91FF90EF9016
:10234000DF90CF90BF90AF909F908F907F906F90D5
:102350005F904F903F902F900895AF92BF92CF9291
:10236000DF92EF92FF920F931F937B018C01442326
:1023700061F080E090E0A0E0B0E080939204909360
:102380009304A0939404B0939504C801B7012091DD
:1023900092043091930440919404509195040E94CA
:1023A000992B5B016C01609392047093930480936A
:1023B000940490939504C801B70120913805309199
:1023C000390540913A0550913B050E94982B20E039
:1023D00030E040E050E00E948A2D9B01AC01C80132
:1023E000B7010E94992B7B018C01C601B50120E049
:1023F00030E040E050E00E948A2D9B01AC01C80112
:10240000B7010E94992B1F910F91FF90EF90DF90E1
:10241000CF90BF90AF900895442381F006C0E82F7D
:10242000F0E0E95EFC4F808161506623C1F70895BA
:10243000E82FF0E0E95DFC4F808161506623C1F731
:1024400008952F923F924F925F926F927F928F9258
:102450009F92AF92BF92CF92DF92EF92FF920F9333
:102460001F93DF93CF93CDB7DEB7A0970FB6F89445
:10247000DEBF0FBECDBF2B013C012D833E834F83BA
:102480005887E986FA860B871C87AD86BE86CF867D
:10249000D88A282C3324CA01B90120E030E040E07A
:1024A00050E00E944C2D181614F4332433946D819F
:1024B0007E818F8198852CED38EB48E05EE30E94A9
:1024C000012C0E94692C9B0177FF03C03095219558
:1024D0003F4FB901882777FD8095982F0E949C2C4B
:1024E00069837A838B839C8369857A858B859C85B8
:1024F0002CED38EB48E05EE30E94012C0E94692C31
:102500009B0177FF03C0309521953F4FB901882784
:1025100077FD8095982F0E949C2C4B015C016D8566
:102520007E858F8598892CED38EB48E05EE30E942C
:10253000012C0E94692C9B0177FF03C030952195E7
:102540003F4FB901882777FD8095982F0E949C2CDA
:102550006B017C01C301B20120E030E040E05FE4A8
:102560000E94FD2B8823A1F569817A818B819C8152
:102570000E946E2C2B013C01C501B4010E946E2CFF
:102580004B015C01C701B6010E946E2C6B017C01FE
:102590002DB73EB7295030400FB6F8943EBF0FBE5E
:1025A0002DBFEDB7FEB73196ADB7BEB712965C92B0
:1025B0004E9211979382828275836483268210865D
:1025C000178281E062E0432D920184017601C1C14E
:1025D000C301B20120E030E040E050E00E94FD2B5A
:1025E0008823E9F569817A818B819C810E946E2C18
:1025F0003B01C501B4010E946E2C8B01C701B601DD
:102600000E946E2C7B012DB73EB7295030400FB68B
:10261000F8943EBF0FBE2DBFEDB7FEB7319640E038
:10262000332009F441E07182608213830283F582D2
:10263000E48226821086178281E062E09301C22C38
:10264000AA24BB24832C0E94C21B81E0ADB7BEB775
:1026500019960FB6F894BEBF0FBEADBF89C1C301B6
:10266000B20120E030E040E050E00E944C2D18160E
:102670000CF0B1C066E676E68AEA91ECA30192011D
:102680000E94012C20E030E040E85FE30E94992B9B
:102690007B018C0166E676E68AEA91E4A301920169
:1026A0000E94012C20E030E040E85FE30E94992B7B
:1026B0005B016C01EDB7FEB739970FB6F894FEBF1A
:1026C0000FBEEDBF8DB69EB60894811C911C6D8126
:1026D0007E818F819885A80197010E948A2D2CED1B
:1026E00038EB48E05EE30E94012C0E946E2C698B5F
:1026F0007A8B8B8B9C8B69857A858B859C85A801D1
:1027000097010E948A2D2CED38EB48E05EE30E9491
:10271000012C0E946E2C6D8B7E8B8F8B988F6D851C
:102720007E858F859889A80197010E948A2D2CEDBE
:1027300038EB48E05EE30E94012C0E946E2C2B01D6
:102740003C016D817E818F819885A60195010E9453
:102750008A2D2CED38EB48E05EE30E94012C0E94AC
:102760006E2CD4016D937C9369857A858B859C85CD
:10277000A60195010E948A2D2CED38EB48E05EE31E
:102780000E94012C0E946E2CF401738362836D857C
:102790007E858F859889A60195010E948A2D2CED52
:1027A00038EB48E05EE30E94012C0E946E2CD401BD
:1027B00015967C936E93149716962C9216971896EE
:1027C0001C921E92179781E062E0432D29893A8975
:1027D0000D891E89BDC0C301B20120E030E040E098
:1027E00050E00E94FD2B87FD02C080E0C1C066E67C
:1027F00076E68AEA91E4A30192010E94012C20E08E
:1028000030E040E85FE30E94992B7B018C0166E693
:1028100076E68AEA91ECA30192010E94012C20E065
:1028200030E040E85FE30E94992B5B016C012DB71B
:102830003EB7295030400FB6F8943EBF0FBE2DBFB3
:102840008DB69EB60894811C911C6D817E818F810E
:102850009885A80197010E948A2D2CED38EB48E05D
:102860005EE30E94012C0E946E2C698F7A8F8B8F01
:102870009C8F69857A858B859C85A80197010E942C
:102880008A2D2CED38EB48E05EE30E94012C0E947B
:102890006E2C6D8F7E8F8F8F98A36D857E858F8533
:1028A0009889A80197010E948A2D2CED38EB48E009
:1028B0005EE30E94012C0E946E2C2B013C016D8175
:1028C0007E818F819885A60195010E948A2D2CED2D
:1028D00038EB48E05EE30E94012C0E946E2CD4018C
:1028E0006D937C9369857A858B859C85A60195017E
:1028F0000E948A2D2CED38EB48E05EE30E94012C0B
:102900000E946E2CF401738362836D857E858F85B2
:102910009889A60195010E948A2D2CED38EB48E09C
:102920005EE30E94012C0E946E2CD40115967C93CC
:102930006E93149716962C92169718961C921E92C8
:10294000179781E062E0432D298D3A8D0D8D1E8D04
:102950007201C22CAA24BB24832C0E94C21B81E0DA
:10296000EDB7FEB739960FB6F894FEBF0FBEEDBFB8
:10297000A0960FB6F894DEBF0FBECDBFCF91DF910A
:102980001F910F91FF90EF90DF90CF90BF90AF908D
:102990009F908F907F906F905F904F903F902F907F
:1029A00008952F923F924F925F926F927F928F92F3
:1029B0009F92AF92BF92CF92DF92EF92FF920F93CE
:1029C0001F93DF93CF93CDB7DEB7A0970FB6F894E0
:1029D000DEBF0FBECDBF2B013C012D833E834F8355
:1029E0005887E986FA860B871C87AD86BE86CF8618
:1029F000D88A282C3324CA01B90120E030E040E015
:102A000050E00E944C2D181614F4332433946D8139
:102A10007E818F8198852CED38EB48E05EE30E9443
:102A2000012C0E94692C9B0177FF03C030952195F2
:102A30003F4FB901882777FD8095982F0E949C2CE5
:102A400069837A838B839C8369857A858B859C8552
:102A50002CED38EB48E05EE30E94012C0E94692CCB
:102A60009B0177FF03C0309521953F4FB90188271F
:102A700077FD8095982F0E949C2C4B015C016D8501
:102A80007E858F8598892CED38EB48E05EE30E94C7
:102A9000012C0E94692C9B0177FF03C03095219582
:102AA0003F4FB901882777FD8095982F0E949C2C75
:102AB0006B017C01C301B20120E030E040E05FE443
:102AC0000E94FD2B8823A1F569817A818B819C81ED
:102AD0000E946E2C2B013C01C501B4010E946E2C9A
:102AE0004B015C01C701B6010E946E2C6B017C0199
:102AF0002DB73EB7295030400FB6F8943EBF0FBEF9
:102B00002DBFEDB7FEB73196ADB7BEB712965C924A
:102B10004E921197938282827583648326821086F7
:102B2000178280E062E0432D920184017601C1C1E9
:102B3000C301B20120E030E040E050E00E94FD2BF4
:102B40008823E9F569817A818B819C810E946E2CB2
:102B50003B01C501B4010E946E2C8B01C701B60177
:102B60000E946E2C7B012DB73EB7295030400FB626
:102B7000F8943EBF0FBE2DBFEDB7FEB7319640E0D3
:102B8000332009F441E07182608213830283F5826D
:102B9000E48226821086178280E062E09301C22CD4
:102BA000AA24BB24832C0E94C21B81E0ADB7BEB710
:102BB00019960FB6F894BEBF0FBEADBF89C1C30151
:102BC000B20120E030E040E050E00E944C2D1816A9
:102BD0000CF0B1C066E676E68AEA91ECA3019201B8
:102BE0000E94012C20E030E040E85FE30E94992B36
:102BF0007B018C0166E676E68AEA91E4A301920104
:102C00000E94012C20E030E040E85FE30E94992B15
:102C10005B016C01EDB7FEB739970FB6F894FEBFB4
:102C20000FBEEDBF8DB69EB60894811C911C6D81C0
:102C30007E818F819885A80197010E948A2D2CEDB5
:102C400038EB48E05EE30E94012C0E946E2C698BF9
:102C50007A8B8B8B9C8B69857A858B859C85A8016B
:102C600097010E948A2D2CED38EB48E05EE30E942C
:102C7000012C0E946E2C6D8B7E8B8F8B988F6D85B7
:102C80007E858F859889A80197010E948A2D2CED59
:102C900038EB48E05EE30E94012C0E946E2C2B0171
:102CA0003C016D817E818F819885A60195010E94EE
:102CB0008A2D2CED38EB48E05EE30E94012C0E9447
:102CC0006E2CD4016D937C9369857A858B859C8568
:102CD000A60195010E948A2D2CED38EB48E05EE3B9
:102CE0000E94012C0E946E2CF401738362836D8517
:102CF0007E858F859889A60195010E948A2D2CEDED
:102D000038EB48E05EE30E94012C0E946E2CD40157
:102D100015967C936E93149716962C921697189688
:102D20001C921E92179780E062E0432D29893A8910
:102D30000D891E89BDC0C301B20120E030E040E032
:102D400050E00E94FD2B87FD02C080E0C1C066E616
:102D500076E68AEA91E4A30192010E94012C20E028
:102D600030E040E85FE30E94992B7B018C0166E62E
:102D700076E68AEA91ECA30192010E94012C20E000
:102D800030E040E85FE30E94992B5B016C012DB7B6
:102D90003EB7295030400FB6F8943EBF0FBE2DBF4E
:102DA0008DB69EB60894811C911C6D817E818F81A9
:102DB0009885A80197010E948A2D2CED38EB48E0F8
:102DC0005EE30E94012C0E946E2C698F7A8F8B8F9C
:102DD0009C8F69857A858B859C85A80197010E94C7
:102DE0008A2D2CED38EB48E05EE30E94012C0E9416
:102DF0006E2C6D8F7E8F8F8F98A36D857E858F85CE
:102E00009889A80197010E948A2D2CED38EB48E0A3
:102E10005EE30E94012C0E946E2C2B013C016D810F
:102E20007E818F819885A60195010E948A2D2CEDC7
:102E300038EB48E05EE30E94012C0E946E2CD40126
:102E40006D937C9369857A858B859C85A601950118
:102E50000E948A2D2CED38EB48E05EE30E94012CA5
:102E60000E946E2CF401738362836D857E858F854D
:102E70009889A60195010E948A2D2CED38EB48E037
:102E80005EE30E94012C0E946E2CD40115967C9367
:102E90006E93149716962C92169718961C921E9263
:102EA000179780E062E0432D298D3A8D0D8D1E8DA0
:102EB0007201C22CAA24BB24832C0E94C21B81E075
:102EC000EDB7FEB739960FB6F894FEBF0FBEEDBF53
:102ED000A0960FB6F894DEBF0FBECDBFCF91DF91A5
:102EE0001F910F91FF90EF90DF90CF90BF90AF9028
:102EF0009F908F907F906F905F904F903F902F901A
:102F000008950E94D31E282F21702093BA0790E0C5
:102F100082709070959587958093BB0708950E9465
:102F200058056093220570932305809324059093A0
:102F300025050E946D056093490870934A088093A7
:102F40004B0890934C0808950E94EF0460938E0400
:102F500070938F0480939004909391040E94CC040A
:102F6000609398047093990480939A0490939B04BF
:102F70000E9435056093BC077093BD078093BE0720
:102F80009093BF070E9412056093C1077093C20718
:102F90008093C3079093C4070895CF92DF92EF9276
:102FA000FF920F931F93CF93DF93162FE42E5FE1D1
:102FB000F52EF8221F770F2D069506950695C02F42
:102FC000D0E0C12EDD24CE01B6010E94A719802FCA
:102FD000612F0E94A019FE01F695FE2FEE27F795AE
:102FE000E7952F2D30E0EE2089F0EC0DFD1DEC541F
:102FF000FA4F2770307081E090E002C0880F991F6F
:103000002A95E2F72081282B208311C0EC0DFD1DAD
:10301000EC54FA4F2770307081E090E002C0880FC6
:10302000991F2A95E2F78095208182238083D69587
:10303000DC2FCC27D795C795CC0DDD1DCC54DA4FAE
:10304000888161E00E94C019DF91CF911F910F919B
:10305000FF90EF90DF90CF9008950E94521F9093C1
:103060001204809311040E94E71990931004809336
:103070000F040E94FE1890930E0480930D040E948A
:10308000691C82E00E94ED1A0E94E7190E94AC20A0
:103090000E946B1881E00E94CD180E94A41781E065
:1030A0000E94161020E030E00AC01192019680388C
:1030B0009105D9F72F5F3F4F2430310559F0F901C1
:1030C000F695FE2FEE27F795E795EC54FA4F80E042
:1030D00090E0EBCF08958FE00E94441E882331F4E6
:1030E0000E94D3208FE061E00E948C1E8FE091E06F
:1030F00008958FE00E94441E813019F020E030E0F6
:1031000013C080917A00806480937A0080917A0065
:1031100086FDFCCF3091780020917900922F80E0DD
:10312000232F30E0282B392BC9010895582F809187
:1031300037038830D8F440917E0021E030E0B901B7
:1031400002C0660F771F8A95E2F7CB018095842332
:1031500080937E0080917E00052E02C0220F331FD7
:103160000A94E2F7822B80937E000DC020917E00AE
:1031700081E090E0052E02C0880F991F0A94E2F7C3
:10318000282B20937E005093370380917C005F7141
:10319000807E852B80937C000895ECE7F0E09081A1
:1031A0008295880F880F807C9F73982B9083089559
:1031B0000E94EC200E94DE200E94DF0F80E090E061
:1031C00008950F931F9380E460E00E94C01900E00F
:1031D000802F60E00E94A71910E080E061E00E946B
:1031E000C0191F5F1038C9F70F5F043089F783E0FB
:1031F00060E00E94A0191F910F9108950F931F93F3
:1032000082E00E94441E882311F482E006C081E01F
:103210000E94441E882319F481E090E06DC00E9452
:10322000542385E061E00E948C1E8EEA60E00E94DB
:10323000C01982EA60E00E94C01980EA60E00E9442
:10324000C01900E513ECC8010197F1F780EC60E0CC
:103250000E94C0198FE260E00E94C01981E860E01E
:103260000E94C01986E160E00E94C01982E260E01D
:103270000E94C019C8010197F1F78FEA60E00E942F
:10328000C01986EA60E00E94C01985EA60E00E94E9
:10329000C01980E090E028E833E1F9013197F1F7B7
:1032A000019643E0883E9407C1F783EB60E00E94FB
:1032B000C01980E460E00E94C01983E060E00E94D1
:1032C000A71983E060E00E94A01910929D08109257
:1032D0009F0810929E0886E493E09093CE08809316
:1032E000CD0888E10E947F190E94E11884EA60E01D
:1032F0000E94C01985E091E01F910F9108951F93DE
:10330000182F85E00E94441E8130C1F487E00E949E
:10331000FC1982E06AE00E944D1A82E061EB0E9493
:103320004D1A612F113208F060E282E00E944D1ABE
:1033300089EE8A95F1F787E00E94FC191F910895A4
:1033400083706F7760939B0880939C0808950F9318
:103350001F93062F162F1F778370806B60E00E94EB
:10336000C01912951F70812F806160E00E94C01902
:10337000802F8F7060E00E94C0191F910F910895F7
:103380000F931F93082F162F85E00E94441E813053
:1033900079F4112319F0113021F402C02B9801C0E7
:1033A0002B9A86E08A95F1F780E0602F0E944D1AF3
:1033B0001F910F9108951F93182F86E00E94441EBD
:1033C000813019F4812F0E9403241F9108950E94D7
:1033D000082486E061E00E948C1E86E091E008955A
:1033E0001F93182F86E00E94441E813019F4812F0C
:1033F0000E940B241F9108951F93182F82E00E94B2
:10340000441E813009F047C0912F97708091A00829
:10341000981709F440C09093A00885B1887F892B44
:1034200085B9933011F1943028F4913051F09230F5
:1034300090F40CC0953019F19530E0F0963021F5FC
:103440000FC0E091E803F091E90322C0E091E603A8
:10345000F091E7031DC0E091EA03F091EB0318C07F
:10346000E091F203F091F30313C0E091EC03F091CB
:10347000ED030EC0E091EE03F091EF0309C0E0917F
:10348000F003F091F10304C0E091F403F091F5032F
:10349000309709F009951F9108951F93162F0E94E8
:1034A000FC1982E00E94441E813021F41EBD0DB43F
:1034B00007FEFDCF1F9108950F931F93CF93DF93C6
:1034C00080E291E00E9459339C019093050480931F
:1034D0000404892B11F480E039C08901C0E0D0E0F8
:1034E000BE0180E090E00E949A2C20E030E040EAAB
:1034F00051E40E94012C27EF35E740E05FE30E9492
:103500008A2D9B01AC0160E070E080E291E40E94B2
:10351000ED2D9B01AC01CA01B9012DEC3CEC42E858
:1035200051E40E948A2D0E94502D2AE030E040E0B4
:1035300050E00E94BA32F8016193719381939193A4
:103540008F012196C834D10559F681E0DF91CF91E2
:103550001F910F9108958AE00E94441E882371F400
:10356000109201041092000481E00E94462581E03F
:103570008093F7038AE061E00E948C1E8AE091E06C
:1035800008951F938BE00E94441E882311F090E061
:1035900021C089E00E94441E8823D9F40E945C1A4D
:1035A000182F8130B1F41092F8031092F9031092A1
:1035B000FA031092FB038DE069EC74E20E942C2365
:1035C00082E00E9446251093F60389E061E00E94A4
:1035D0008C1E91E089E01F910895813029F082309E
:1035E00031F090E089E008950E94AB1A08950E949E
:1035F000C11A089580916108909162082091630832
:1036000030916408BC01C90108952F923F924F92F6
:103610005F926F927F928F929F92AF92BF92CF9262
:10362000DF92EF92FF920F931F93DF93CF93CDB76B
:10363000DEB7582E962E442E39013C2CC98CDA8CDC
:103640002B8C81E0681739F1681728F092E0691730
:1036500009F085C049C080E061E00E940E1D80E055
:10366000B7010E94D71C80E0642DA3019801032DAF
:10367000EE24E394E6E8CE2EE8E0DE2E0E94451D1F
:10368000552009F06CC000D00F92EDB7FEB7118243
:10369000B382A28223C081E061E00E940E1D81E01E
:1036A000B6010E94D71C81E0682D4D895E892F8963
:1036B000388D022DEE24E39476E8C72E78E0D72EDD
:1036C0000E94451D552009F04AC000D00F92EDB769
:1036D000FEB791828C8D9D8D938382830E94F61D0F
:1036E0000F900F900F903BC082E061E00E940E1D92
:1036F00080E0B7010E94D71C81E0B6010E94D71C70
:1037000080E0642DA3019801032DEE24E39496E854
:10371000C92E98E0D92E0E94451D81E0682D4D8963
:103720005E892F89388D022D0E94451D5520B9F4E0
:1037300000D000D00F92ADB7BEB71196EDB7FEB76F
:103740009182FD01B282A1828C8D9D8D94838383B1
:103750000E94F61D0F900F900F900F900F90CF9139
:10376000DF911F910F91FF90EF90DF90CF90BF906E
:10377000AF909F908F907F906F905F904F903F9011
:103780002F9008956F927F928F929F92AF92BF92E7
:10379000CF92DF92EF92FF920F931F93DF93CF931D
:1037A000CDB7DEB7942E7C2DD50149895A89AB88D7
:1037B000BC88CD88DE889F89813009F457C081306C
:1037C000B8F1823009F076C0613091F0613020F0BC
:1037D000623009F06FC015C080E060E00E940E1DED
:1037E00080E0B7010E94D71C80E0692DA8011DC0B0
:1037F00081E060E00E940E1D81E0B6010E94D71CAE
:1038000011C082E060E00E940E1D80E0B7010E94BE
:10381000D71C81E0B6010E94D71C80E0692DA80169
:103820000E94C01C81E0682DA5010E94C01C42C0FE
:10383000EDB7FEB739970FB6F894FEBF0FBEEDBFD8
:103840006DB67EB60894611C711C52834183F301EE
:10385000B382A282D582C4829683888D998D908707
:10386000878380E0492DC72E5D011AC0EDB7FEB7F2
:1038700039970FB6F894FEBF0FBEEDBFADB7BEB718
:10388000119652834183FD01B382A282D582C48204
:1038900096831086178281E0492DC72EAA24BB2467
:1038A0000E94051B8DB79EB709960FB6F8949EBF70
:1038B0000FBE8DBFCF91DF911F910F91FF90EF90C1
:1038C000DF90CF90BF90AF909F908F907F906F9040
:1038D00008950E94D82581E080938508EFE4F8E000
:1038E00011921192118210823296118210823296B8
:1038F00011821082329611821082329611821082C9
:103900003296118210823296118210823296118282
:103910001082329611821082329611821082329673
:103920001182108232961182108236961192119273
:10393000119210823296119211921192119211925B
:103940001192119211821082329611821082329657
:103950001182108232961182108276971182108223
:10396000329611821082109284081092830810926D
:10397000850887E061E00E948C1E87E091E0089551
:10398000EF92FF920F931F93182F062F7A0160E09A
:103990000E940E1D812F602F0E94F91C812FB701FC
:1039A0000E94231D1F910F91FF90EF900895482FC3
:1039B00081E080938508CB0123E0693E720710F017
:1039C00088EE93E0413071F0413018F0423071F4EC
:1039D00005C090935A088093590808C090935A08DC
:1039E0008093590890935C0880935B081092850837
:1039F0000895982F81E080938508913051F091309F
:103A000018F0923041F403C06093720804C06093D0
:103A1000720860937308109285080895982F81E0CA
:103A200080938508913051F0913018F0923041F434
:103A300003C060934F0804C060934F086093500820
:103A4000109285080895482F81E080938508CB0166
:103A500021E06139720710F080E991E0413071F0A6
:103A6000413018F0423071F405C0909352088093B1
:103A7000510808C0909352088093510890935408BD
:103A8000809353081092850808958F929F92AF9269
:103A9000BF92CF92DF92EF92FF920F931F93CF933B
:103AA000DF93182FF62E5A014901E60161E00E94CA
:103AB0000E1D812FB501A4010E941226812F6F2DAA
:103AC0000E94F91C812F602F0E94FD25812FB501D6
:103AD0000E94E225C114D10499F0113049F011304F
:103AE00018F0123069F406C018821092810808C0DC
:103AF000198204C0188219821092810810928208DB
:103B0000D0938408C0938308EE20B9F586E993E04A
:103B10009093840880938308812FB4010E94231D11
:103B2000812F0E94C325113071F0113018F012302E
:103B300059F512C010929603109281088091960355
:103B40008823E1F321C0109297031092820880919C
:103B500097038823E1F318C01092960310929703FD
:103B60001092810810928208809196038823E1F3D5
:103B7000809197038823C1F307C0812FB4010E946D
:103B8000231D812F0E94C325DF91CF911F910F919B
:103B9000FF90EF90DF90CF90BF90AF909F908F906D
:103BA00008950F931F93182F062F662349F460E0A2
:103BB00070E00E94231D812F60E070E00E94E225EA
:103BC00081E080938508113051F0113018F01230E7
:103BD00041F403C000936D0804C000936D08009386
:103BE0006E08109285081F910F910895CF92DF9271
:103BF000EF92FF920F931F93DF93CF93CDB7DEB772
:103C00008B85813061F0813018F08230A1F511C0D0
:103C1000EC85FD85809186088823E1F306C0EC855C
:103C2000FD85809187088823E1F3309721F109957C
:103C300022C0CC84DD84EE84FF8400E010E0002309
:103C400051F480918608882331F0C114D10411F019
:103C5000F601099501E0112351F48091870888232A
:103C600031F0E114F10411F0F701099511E000239E
:103C700031F3112321F3CF91DF911F910F91FF9029
:103C8000EF90DF90CF900895E82FF0E0E331F10559
:103C900040F4E25CFF4FEE0FFF1F0590F491E02D22
:103CA000099480E00895809188080895809189089A
:103CB000089580918A08089580918B0808958091D5
:103CC0008C08089580918E08089580918D0808953C
:103CD00080918F08089580919008089580919108AF
:103CE0000895809192080895809193080895809195
:103CF00094080895809195080895809196080895F4
:103D00008091970808958091980808958091990866
:103D1000089580919A080895E82FF0E0E331F105C5
:103D200008F040C0EF5AFF4FEE0FFF1F0590F491CF
:103D3000E02D099460938808089560938908089598
:103D400060938A08089560938B08089560938C08A7
:103D5000089560938E08089560938D080895609388
:103D60008F080895609390080895609391080895CE
:103D7000609392080895609393080895609394085F
:103D80000895609395080895609396080895609348
:103D90009708089560939808089560939908089586
:103DA0006093980808950F931F9381E00E94441E2A
:103DB000813011F000E024C087E00E94FC1982E00D
:103DC0006AE00E944D1A82E062EB0E944D1A18ECE4
:103DD000812F8A95F1F782E060E00E94AE24082FDF
:103DE000812F8A95F1F782E060E00E94AE241A9557
:103DF000F1F787E00E94FC1988E893E10197F1F759
:103E0000802F1F910F9108951F93CF93DF93182F49
:103E100080919903882341F08091A303882399F02E
:103E2000109299031092A3030E94D31E80939803CB
:103E30008DE993E061E040E022E330E00E94C21FA0
:103E400081E08093990390919803A12FB0E0ED0158
:103E5000C05CDC4F8881882369F0FD01ED5BFC4F7D
:103E600080819823C1F0FD01E656FC4F81E08083FC
:103E7000188211C0FD01E656FC4F8081811110822D
:103E8000FD01ED5BFC4F8081982329F4FD01E05C8E
:103E9000FC4F81E08083A656BC4F8C91DF91CF917F
:103EA0001F91089582E00E94441E882319F490E037
:103EB00082E008951092B6081092B5081092B808E2
:103EC0001092B7081092BA081092B9081092BC0864
:103ED0001092BB081092BE081092BD0880E991E0D4
:103EE0009093A2088093A1089093A4088093A308BC
:103EF0009093A6088093A5089093A8088093A7089C
:103F00009093AA088093A90884E398E09093AC0862
:103F10008093AB089093AE088093AD089093B0085F
:103F20008093AF089093B2088093B1089093B4083F
:103F30008093B30881E061E00E948C1E91E081E0F3
:103F40000895DF93CF93CDB7DEB729970FB6F894D6
:103F5000DEBF0FBECDBF9C01CE01019661E040E007
:103F60000E94C21F982F882319F48F818823E9F3B8
:103F7000892F29960FB6F894DEBF0FBECDBFCF9123
:103F8000DF910895EF92FF920F931F93CF93DF93EA
:103F9000EC01F62EE42E890188E00E94441E813057
:103FA00011F081E026C084E090E00E945933FC01CA
:103FB000009711F482E01DC0F982F0FC1E8281E0BE
:103FC000E81619F4898184608983898188608983EE
:103FD0001B830A831D830C83D183C08313821282C7
:103FE00081E080930604CF010E947226109206049D
:103FF00080E0DF91CF911F910F91FF90EF90089596
:10400000FC018091C208813011F085E00895809113
:10401000C308813011F08AE00895613011F484EC16
:1040200001C084E88093BC008091BC0087FFFCCF76
:10403000613031F48091B900887F803559F405C032
:104040008091B900887F883529F48091BB008083F6
:1040500080E0089582E00895982F8091C208813011
:1040600011F085E008958091C308813011F08AE055
:1040700008959093BB0084E88093BC008091BC00BD
:1040800087FFFCCF8091B90090E0887F90708832E4
:10409000910521F0C09721F483E0089580E0089510
:1040A0008CE00895982F2091C208213011F085E00E
:1040B00008958091C408813011F489E00895209317
:1040C000C30884EA8093BC008091BC0087FFFCCFCA
:1040D0008091B900887F883039F08091B900887F5D
:1040E000803111F081E00895613019F4990F9160E9
:1040F00003C0662319F4990F9093BB0084E8809362
:10410000BC008091BC0087FFFCCF613031F480910E
:10411000B900887F803441F409C0662339F4809166
:10412000B900887F883111F082E0089580E0089519
:104130008091C308813011F08AE008958091C5080C
:10414000813029F485E98093BC0080E0089584E9FA
:104150008093BC0080E0089582E10E94441E882381
:10416000B1F41092C2081092C3081092C4081092C1
:10417000C5081092C6080E940E2787E160E00E94E1
:10418000CA200E94042782E161E00E948C1E82E125
:1041900090E0089563706093B9008093B80081E067
:1041A0008093C20808958FE180937C00EAE7F0E0F5
:1041B00087E0808380818068808308950E944F26F5
:1041C0000E9410240E9440230E94DB260E94752436
:1041D0000E94521F78940895000008951F920F9234
:1041E0000FB60F9211242F933F934F935F936F93CA
:1041F0007F938F939F93AF93BF93EF93FF93E09140
:10420000C603F091C703309709F00995FF91EF912C
:10421000BF91AF919F918F917F916F915F914F91DE
:104220003F912F910F900FBE0F901F9018951F92E6
:104230000F920FB60F9211242F933F934F935F93DA
:104240006F937F938F939F93AF93BF93EF93FF935E
:10425000E091C803F091C903309709F00995FF91E7
:10426000EF91BF91AF919F918F917F916F915F91EE
:104270004F913F912F910F900FBE0F901F90189567
:104280001F920F920FB60F9211242F933F934F93CB
:104290005F936F937F938F939F93AF93BF93EF93AE
:1042A000FF93E091CA03F091CB03309709F0099591
:1042B000FF91EF91BF91AF919F918F917F916F91FE
:1042C0005F914F913F912F910F900FBE0F901F90D4
:1042D00018951F920F920FB60F9211242F933F93B0
:1042E0004F935F936F937F938F939F93AF93BF93FE
:1042F000EF93FF93E091B803F091B903309709F081
:104300000995FF91EF91BF91AF919F918F917F910F
:104310006F915F914F913F912F910F900FBE0F9032
:104320001F9018951F920F920FB60F9211242F9382
:104330003F934F935F936F937F938F939F93AF932D
:10434000BF93EF93FF93E091BA03F091BB033097D3
:1043500009F00995FF91EF91BF91AF919F918F91D6
:104360007F916F915F914F913F912F910F900FBE71
:104370000F901F9018951F920F920FB60F92112455
:104380002F933F934F935F936F937F938F939F935D
:10439000AF93BF93EF93FF93E091BC03F091BD0304
:1043A000309709F00995FF91EF91BF91AF919F91DF
:1043B0008F917F916F915F914F913F912F910F90CE
:1043C0000FBE0F901F9018951F920F920FB60F926D
:1043D00011242F933F934F935F936F937F938F930A
:1043E0009F93AF93BF93EF93FF93E091C003F0913E
:1043F000C103309709F00995FF91EF91BF91AF91FB
:104400009F918F917F916F915F914F913F912F91EC
:104410000F900FBE0F901F9018951F920F920FB61E
:104420000F9211242F933F934F935F936F937F933A
:104430008F939F93AF93BF93EF93FF93E091C2034A
:10444000F091C303309709F00995FF91EF91BF9167
:10445000AF919F918F917F916F915F914F913F911C
:104460002F910F900FBE0F901F9018951F920F92D3
:104470000FB60F9211242F933F934F935F936F9337
:104480007F938F939F93AF93BF93EF93FF93E091AD
:10449000BE03F091BF03309709F00995FF91EF91AA
:1044A000BF91AF919F918F917F916F915F914F914C
:1044B0003F912F910F900FBE0F901F9018951F9254
:1044C0000F920FB60F9211242F933F934F935F9348
:1044D0006F937F938F939F93AF93BF93EF93FF93CC
:1044E000E091C403F091C503309709F00995FF915D
:1044F000EF91BF91AF919F918F917F916F915F915C
:104500004F913F912F910F900FBE0F901F901895D4
:104510001F920F920FB60F9211242F933F934F9338
:104520005F936F937F938F939F93AF93BF93EF931B
:10453000FF93E091AE03F091AF03309709F0099536
:10454000FF91EF91BF91AF919F918F917F916F916B
:104550005F914F913F912F910F900FBE0F901F9041
:1045600018951F920F920FB60F9211242F933F931D
:104570004F935F936F937F938F939F93AF93BF936B
:10458000EF93FF93E091B003F091B103309709F0FE
:104590000995FF91EF91BF91AF919F918F917F917D
:1045A0006F915F914F913F912F910F900FBE0F90A0
:1045B0001F9018951F920F920FB60F9211242F93F0
:1045C0003F934F935F936F937F938F939F93AF939B
:1045D000BF93EF93FF93E091B203F091B303309751
:1045E00009F00995FF91EF91BF91AF919F918F9144
:1045F0007F916F915F914F913F912F910F900FBEDF
:104600000F901F9018951F920F920FB60F921124C2
:104610002F933F934F935F936F937F938F939F93CA
:10462000AF93BF93EF93FF93E091B403F091B50381
:10463000309709F00995FF91EF91BF91AF919F914C
:104640008F917F916F915F914F913F912F910F903B
:104650000FBE0F901F901895E82F803268F480519C
:10466000833050F0F0E0EE0FFF1FEA55FC4F208141
:1046700031817183608302C020E030E0C901089578
:1046800080E10E94441E882361F4E6EAF3E011927F
:10469000119283E0E63EF807D1F780E161E00E94E5
:1046A0008C1E80E191E00895239A0895FF920F9364
:1046B0001F93CF93DF93F82E8AE0F816B1F08F1591
:1046C00048F0E8E0FE16B9F1EF1538F1F7E0FF1613
:1046D00051F43BC08DE0F81659F0EBE1FE1689F07D
:1046E000FCE0FF1641F001E041C010929B0803C0BE
:1046F00010929B083AC080919C08815080939C083E
:1047000034C00E94E11814C080E061E00E94C0192A
:1047100080919B088F5F80939B0880919B0887FF07
:10472000F3CF10929B0880919C08815080939C0845
:1047300000E011E01CC080919B088823B1F08091BB
:104740009B08865080939B0810C081E00E94ED1A60
:1047500064EF71E080E090E04DE750E024E630E067
:104760000E94702581E00E943C2500E010E08091CD
:104770009C0860919B080E94A719002351F185E0D5
:10478000F89EC0011124EC01C355DF4F8C010E547B
:104790001F4FFE01849161E00E94C0192196C0174D
:1047A000D107B9F780E061E00E94C01980919B08B1
:1047B0008A5F80939B0880919B0890E08C379105DD
:1047C0003CF010929B0880919C08815080939C083B
:1047D00011E080919C08837080939C08113059F4FB
:1047E00080919D08813039F4E0919E08F0919F08F6
:1047F000309709F0099580E090E0DF91CF911F910B
:104800000F91FF90089585FD5D9886FD5E9808954F
:10481000559A569A089585FD5D9A86FD5E9A08958B
:1048200080E00E94441E882351F4F8940E942227BD
:1048300081E00E94222480E061E00E948C1E80E0E2
:1048400091E00895813049F0F894813020F1823070
:10485000B1F0833009F045C017C02C9A80E88093EE
:1048600061001092610080E090E0000001968832C3
:104870009105D9F71092680010926B00089580E8B6
:104880008093610083E004C080E88093610088E049
:104890008093610028C080E090E0000001962DE642
:1048A00080369207D1F72C9880E090E000000196C6
:1048B0002DE680369207D1F710927A008FEF809321
:1048C00064008091680081608093680080916B0033
:1048D000846080936B00789483B7816083BF8895F0
:1048E0000895823008F0789408950F931F930E94E2
:1048F0004E2780E06DE377E20E94C02481E065E30B
:1049000077E20E94C02482E06DE277E20E94C02438
:1049100086E065E477E20E94C02405E217E283E0C6
:10492000B8010E94C02484E0B8010E94C02485E040
:10493000B8010E94C02487E0B8010E94C02482E030
:1049400061E00E948C1E8FEF8093A00887E00E9498
:10495000FC1982E091E01F910F9108951F93162F8B
:104960000E94FC1982E00E94441E813011F080E018
:1049700005C01EBD0DB407FEFDCF8EB51F91089575
:10498000E82FF0E0EE0FFF1FEA51FC4F71836083C8
:1049900008950E94CC2408958091F8039091F90322
:1049A000A091FA03B091FB032091FC033091FD0329
:1049B0004091FE035091FF03280F391F4A1F5B1FD0
:1049C0002093F8033093F9034093FA035093FB03C9
:1049D0008091F8039091F903A091FA03B091FB0341
:1049E0008851964FA040B040BCF08BB180588BB935
:1049F0008091F8039091F903A091FA03B091FB0321
:104A00008851964FA040B0408093F8039093F903EB
:104A1000A093FA03B093FB0308958AE00E94441E1A
:104A2000813041F40E946C271092F7038AE060E025
:104A30000E948C1E089589E00E94441E8130D9F4A2
:104A40008091F603882311F00E94BD2582E00E9428
:104A50006C278091040490910504009731F00E9426
:104A6000063410920504109204041092F60389E0B3
:104A700060E00E948C1E0895813029F0823029F474
:104A80000E941B2508950E940D250895982F80915E
:104A9000F603882331F48091F703882311F4579AA1
:104AA0005F988091F6038823D1F49230C1F410927C
:104AB0008000109281008091810088608093810045
:104AC0008091810081608093810010928500109216
:104AD000840081E08093890080E9809388000895B4
:104AE0008F929F92AF92BF92CF92DF92EF92FF92FE
:104AF0000F931F93CF93DF934B015C01EA01B90140
:104B00002115310539F19E01442737FD4095542F79
:104B10006536710510F064E670E080E090E00E9478
:104B2000BA3224E630E040E050E00E94EC327901F5
:104B30008A01C501B4010E945527C7010E94A11F27
:104B400060E070E080E090E00E945527CE018E1971
:104B50009F0904C04115510519F0CA010E94A11F07
:104B6000DF91CF911F910F91FF90EF90DF90CF9049
:104B7000BF90AF909F908F900895EFE6F0E0808116
:104B80008D7F80830895982F81E0809385089130F0
:104B900051F0913018F0923041F403C010926D083A
:104BA00004C010926D0810926E0810928508089546
:104BB0003A9A3B9A3C9A3D9A3E9A3F9A88B18370C2
:104BC00088B90895982F81E080938508913071F01D
:104BD000913018F0923071F405C0709362086093C0
:104BE000610808C07093620860936108709364085C
:104BF00060936308109285080895982F81E0809350
:104C00008508913051F0913018F0923041F403C092
:104C100060936F0804C060936F08609370081092EF
:104C2000850808950F931F93CF93DF93EB018A01BB
:104C3000813001F1813018F0823061F50DC0809132
:104C4000590890915A08892B11F080E01AC01092EF
:104C50006608109265081EC08091590890915A0804
:104C6000892B21F080E00E94882704C010926608FA
:104C70001092650880915B0890915C08892B31F057
:104C800081E0BE01A8010E94882704C01092680834
:104C900010926708DF91CF911F910F9108951092A4
:104CA00088081092890810928D0810928A08109234
:104CB0008C0810928E0810928F0810929008109213
:104CC00091081092920810929308109294081092F2
:104CD00095081092960810929708109298081092D2
:104CE00099080895CF92DF92EF92FF920F931F934E
:104CF000CF93DF93EC018091BF08882339F4D093E0
:104D0000C108C093C0080E94002747C0C090C008D7
:104D1000D090C10800E010E0EE24FF2437C0A88145
:104D2000B981FD0164817581F60140815181FA01EB
:104D3000848195819B01281B390B37FF0FC0861B8F
:104D4000970B95838483DB82CA82012B29F4D0934D
:104D5000C108C093C00821C0F7010CC0F6018281D0
:104D600093812115310549F4FD01158214829B833D
:104D70008A83F601D383C28310C0FD013583248367
:104D80000097B9F30F5F1F4F76016C018091BF0848
:104D900090E00817190718F2ECCF8091BF088F5FD9
:104DA0008093BF08DF91CF911F910F91FF90EF90FB
:104DB000DF90CF90089588E00E94441E8823B9F4C4
:104DC0001092BF081092C1081092C00810920604F9
:104DD0001092070480E165EF77E20E9411270E949C
:104DE000FC270E94FA2688E061E00E948C1E88E081
:104DF00091E00895EEE6F0E080818260808308957E
:104E000081E08093070408958091C208813029F4DD
:104E10008091BC0084608093BC00089538983998D4
:104E20000895803218F020E030E00AC0E82FF0E06A
:104E3000EE0FFF1FEA55FC4F2081318171836083A3
:104E4000C9010895249A2C9A089583E58CBD81E0C8
:104E50008DBD8DE08A95F1F7089583E58CBD1DBC6D
:104E600084EF91E00197F1F708958FE78CBD1DBCA9
:104E700084EF91E00197F1F7089583E58CBD81E01F
:104E80008DBD8DE08A95F1F7089583E58CBD81E0B5
:104E90008DBD84EF91E00197F1F70895259A26984A
:104EA000279A209A219A229A08959B01AC01809119
:104EB000F703882381F0DA01C901880F991FAA1F1F
:104EC000BB1F909303048093020421153105410513
:104ED000510509F45F980895823029F4809181008A
:104EE0008E7F809381008091F603813031F4809130
:104EF000F703813011F4000008958091F6038130AA
:104F000021F08091F703813011F45F98579808954C
:104F1000EF92FF920F931F93CF93DF93EB018823C0
:104F200021F0813009F05AC02DC09A0140E050E0D4
:104F3000CA01B9010E94BA322091590830915A0829
:104F4000220F331F40E050E00E94EC3279018A01C9
:104F5000A8019701220F331F441F551FCE01A0E067
:104F6000B0E082179307A407B50728F0F09266080F
:104F7000E092650833C0D695C795D0936608C09374
:104F800065082CC09A0140E050E0CA01B9010E94B6
:104F9000BA3220915B0830915C08220F331F40E049
:104FA00050E00E94EC3279018A01A8019701220F9A
:104FB000331F441F551FCE01A0E0B0E082179307B6
:104FC000A407B50728F0F0926808E092670806C0C9
:104FD000D695C795D0936808C0936708DF91CF91A5
:104FE0001F910F91FF90EF9008950E9405280E9455
:104FF00045280E941E28089584B5826084BD85B529
:10500000846085BD8EE487BD089588E00E94441EBB
:10501000882311F484E0089580910704882311F413
:1050200083E0089580910604882311F082E00895BA
:105030000E94922A8130E1F380E008958091F70385
:10504000813011F5809100049091010420910204B7
:1050500030910304280F391F30930104209300047A
:105060008091000490910104885E93406CF08BB1B4
:1050700080588BB98091000490910104885E934020
:105080009093010480930004089587E00E94441ED9
:10509000813009F0AAC08091590890915A08892B53
:1050A00009F180917D0890917E08209159083091F6
:1050B0005A08820F931F90937E0880937D088091F9
:1050C0007D0890917E08885E9340A4F080917D08D1
:1050D00090917E08885E934090937E0880937D082F
:1050E00041E009C080915108909152089093560870
:1050F0008093550840E080915B0890915C08892B73
:1051000009F180917F089091800820915B0830918F
:105110005C08820F931F9093800880937F08809192
:105120007F0890918008885E9340A4F080917F086A
:1051300090918008885E93409093800880937F08C8
:1051400061E009C0809153089091540890935808E9
:105150008093570860E0842F0E94F6288091790898
:1051600090917A082091550830915608280F391FE0
:1051700030937A08209379088091790890917A0881
:10518000885E934014F440E00BC0809179089091C0
:105190007A08885E934090937A088093790841E07A
:1051A00080917B0890917C08209157083091580895
:1051B000280F391F30937C0820937B0880917B084F
:1051C00090917C08885E934014F460E00BC080915D
:1051D0007B0890917C08885E934090937C08809334
:1051E0007B0861E0842F0E943B2908958823F1F019
:1051F000209151083091520880915508909156089D
:10520000281B390B1216130634F48091550890911F
:105210005608019607C0232B49F0809155089091BC
:10522000560801979093560880935508662311F10C
:105230002091530830915408809157089091580854
:10524000281B390B1216130654F4809157089091BD
:105250005808019690935808809357080895232B77
:1052600049F08091570890915808019790935808F9
:105270008093570808950F931F93182F062F80913E
:105280008508882309F0E7C080916D08882309F01C
:105290005AC08091550890915608892BE9F4809165
:1052A0000804837E80930804109276088091810818
:1052B000882309F45DC060916F0880E00E94D11DD1
:1052C000E0918308F0918408309709F451C081E09F
:1052D0008083109281084CC080914F08813041F446
:1052E0008091610890916208019711F411E002C069
:1052F0001123F1F1E0917408F0E0E85CFC4F90912B
:105300000804937E8081892B809308048091720821
:10531000882321F4809174088F5F03C08091740802
:10532000815080937408809174088370809374080E
:1053300081E08093760880914F088130C9F480E045
:105340000E943E2A15C090910804937E9093080411
:10535000E0917408F0E0E85CFC4F8081892B809339
:10536000080482E08093760810925608109255083F
:1053700080916E08882309F059C080915708909158
:105380005808892BE9F4809108048F7180930804F0
:105390001092770880918208882309F45CC060919C
:1053A000700881E00E94D11DE0918308F09184088B
:1053B000309709F450C081E08183109282084BC07D
:1053C00080915008813041F4809163089091640885
:1053D000019711F401E002C00023E9F1E0917508A2
:1053E000F0E0E45CFC4F909108049F718081892B70
:1053F0008093080480917308882321F480917508B4
:105400008F5F03C0809175088150809375088091EB
:10541000750883708093750881E080937708809188
:1054200050088130C1F40E943E2A15C090910804B2
:105430009F7190930804E0917508F0E0E45CFC4FE4
:105440008081892B8093080482E0809377081092F2
:1054500058081092570880917808882331F488E022
:1054600094E0612F402F0E94002B88B183709091AF
:105470000804892B88B91F910F910895882321F082
:10548000813009F04EC027C0809161089091620878
:10549000892B49F08091610890916208019790935F
:1054A000620880936108809181088823D1F520915A
:1054B000610830916208809165089091660828170C
:1054C000390779F580E060E070E00E94231D81E0FB
:1054D0008093810808958091630890916408892BD6
:1054E00049F0809163089091640801979093640853
:1054F0008093630880918208882399F4209163083F
:1055000030916408809167089091680828173907DE
:1055100041F481E060E070E00E94231D81E080930F
:1055200082080895FF920F931F93CF93DF9380918A
:10553000BF08882309F459C00091C0081091C10820
:10554000F801C081D1818C819D8101979D838C83DD
:10555000181619060CF449C0898180FF05C08E8198
:10556000882311F481E08E83898181FF03C0EF815C
:10557000F88509958091BF088230A8F0F8018281F2
:1055800093819093C1088093C00813821282E091A6
:105590000000F091010084819581181619063CF0F5
:1055A000FF24F39405C01092C1081092C008FF2494
:1055B0008091BF0881508093BF088091BF088823E5
:1055C00011F40E94FD2A898182FF08C08A819B8193
:1055D0009D838C83C8010E94722608C0C8010E9466
:1055E000063489818F7E898301C0FF248F2DDF914E
:1055F000CF911F910F91FF90089510920704089585
:10560000FC0180917608823069F480910C0491E06D
:10561000892780930C04882309F03EC08081837E13
:1056200080833AC08091550890915608C397A4F59D
:105630006623D1F0209155083091560880E690E01D
:10564000BC01269FC001279F900D369F900D11240D
:10565000880F892F881F990B90936A088093690897
:1056600081E080930A0418C080910A048823A1F085
:105670008091690890916A08019790936A088093D5
:1056800069088091690890916A08892B29F48081C2
:10569000837E808310920A0480917708823069F4B7
:1056A00080910B0491E0892780930B04882309F0F3
:1056B0003EC080818F7180830895809157089091BA
:1056C0005808C397A4F54423D1F02091570830918E
:1056D000580880E690E0AC01249FC001259F900D02
:1056E000349F900D1124880F892F881F990B909358
:1056F0006C0880936B0881E0809309040895809181
:1057000009048823A1F080916B0890916C0801979F
:1057100090936C0880936B0880916B0890916C0853
:10572000892B29F480818F71808310920904089558
:105730005058BB27AA270ED075C166D130F06BD167
:1057400020F031F49F3F11F41EF45BC10EF4E0959C
:10575000E7FB51C1E92F77D180F3BA1762077307CE
:105760008407950718F071F49EF58FC10EF4E0954B
:105770000B2EBA2FA02D0B01B90190010C01CA010B
:10578000A0011124FF27591B99F0593F50F4503EB6
:1057900068F11A16F040A22F232F342F4427585FA8
:1057A000F3CF469537952795A795F0405395C9F7C0
:1057B0007EF41F16BA0B620B730B840BBAF0915078
:1057C000A1F0FF0FBB1F661F771F881FC2F70EC017
:1057D000BA0F621F731F841F48F4879577956795EA
:1057E000B795F7959E3F08F0B3CF9395880F08F0D3
:1057F0009927EE0F979587950895D9D008F481E001
:1058000008950CD00FC107D140F0FED030F021F444
:105810005F3F19F0F0C0511139C1F3C014D198F3B2
:105820009923C9F35523B1F3951B550BBB27AA2721
:1058300062177307840738F09F5F5F4F220F331F93
:10584000441FAA1FA9F333D00E2E3AF0E0E830D05F
:1058500091505040E695001CCAF729D0FE2F27D062
:10586000660F771F881FBB1F261737074807AB0730
:10587000B0E809F0BB0B802DBF01FF2793585F4FA5
:105880002AF09E3F510568F0B6C000C15F3FECF3BF
:10589000983EDCF3869577956795B795F7959F5F6A
:1058A000C9F7880F911D9695879597F90895E1E0BE
:1058B000660F771F881FBB1F621773078407BA071D
:1058C00020F0621B730B840BBA0BEE1F88F7E09578
:1058D000089504D06894B111D9C00895BCD088F05F
:1058E0009F5790F0B92F9927B751A0F0D1F0660FCC
:1058F000771F881F991F1AF0BA95C9F712C0B130E7
:1059000081F0C3D0B1E00895C0C0672F782F8827F9
:10591000B85F39F0B93FCCF3869577956795B39525
:10592000D9F73EF490958095709561957F4F8F4F94
:105930009F4F0895E89409C097FB3EF49095809599
:10594000709561957F4F8F4F9F4F9923A9F0F92F45
:1059500096E9BB279395F695879577956795B795C3
:10596000F111F8CFFAF4BB0F11F460FF1BC06F5FA9
:105970007F4F8F4F9F4F16C0882311F096E911C0BB
:10598000772321F09EE8872F762F05C0662371F0DC
:1059900096E8862F70E060E02AF09A95660F771FF0
:1059A000881FDAF7880F9695879597F90895990FCC
:1059B0000008550FAA0BE0E8FEEF16161706E807D9
:1059C000F907C0F012161306E407F50798F0621BFA
:1059D000730B840B950B39F40A2661F0232B242BCF
:1059E000252B21F408950A2609F4A140A6958FEFEE
:1059F000811D811D089597F99F6780E870E060E040
:105A000008959FEF80EC089500240A941616170657
:105A100018060906089500240A941216130614069F
:105A200005060895092E0394000C11F4882352F002
:105A3000BB0F40F4BF2B11F460FF04C06F5F7F4FBA
:105A40008F4F9F4F089557FD9058440F551F59F0A1
:105A50005F3F71F04795880F97FB991F61F09F3F5B
:105A600079F087950895121613061406551FF2CF84
:105A70004695F1DF08C0161617061806991FF1CFD4
:105A800086957105610508940895E894BB276627FB
:105A90007727CB0197F908958ADF08F48FEF0895EF
:105AA000DADFA8F19E57A8F1985160F039F19830EB
:105AB00070F5092E9927660F771F881F991F0A9482
:105AC000D1F71CC0BB27993F4CF4B111B1E0B62B04
:105AD000672F782F8827985FB1F708C0869577954C
