:100000000C94E0020C94FD020C94FD020C94FD0291
:100010000C94380F0C94610F0C948A0F0C94B30F4E
:100020000C94FD020C94190E0C94420E0C946B0E61
:100030000C94E60E0C94940E0C94BD0E0C940F0FC1
:100040000C949E0D0C94C70D0C94F00D0C94FD02B5
:100050000C94FD020C94FD020C94FD020C94FD0224
:100060000C94FD020C94FD020C94FD020C94FD0214
:100070000C94FD020C94FD020C94FD02CE0AD10AF0
:10008000D40AD70AE00ADA0ADD0AE30AE60AE90A2C
:10009000EC0AEF0AF20AF50AF80AFB0AFE0A010B5B
:1000A000040B150B180B1B0B1E0B270B210B240B22
:1000B0002A0B2D0B300B330B360B390B3C0B3F0B44
:1000C000420B450B480B4B0B07634236B79BD8A737
:1000D0001A39685618AEBAAB558C1D3CB7CC57636D
:1000E000BD6DEDFD753EF6177231BF000000803F1B
:1000F00008000000BE922449123EABAAAA2ABECD37
:10010000CCCC4C3E00000080BEABAAAAAA3E0000A8
:100110000000BF000000803F0000000000084178A0
:10012000D3BB4387D1133D190E3CC3BD4282AD2BD7
:100130003E68EC8276BED98FE1A93E4C80EFFFBECF
:1001400001C4FF7F3F0000000000416D6269656EE1
:10015000743A203F0900416D6269656E743A20254A
:10016000336409002533642C202533642C20253387
:10017000642C202533640A002533642C2025336445
:100180002C202533642C202533640A0053656E73BC
:100190006F7220506978656C733A200A0053454E9F
:1001A000534F5220544553540A00160501000000D5
:1001B00000000000FA000000E000E00028FE28FE39
:1001C000282454FE5448C4C81026466C92AA44A061
:1001D00000A0C0000000384482000082443800289B
:1001E000107C102810107C1010000A0C0000101059
:1001F000101010000606000004081020407C8A92AF
:10020000A27C0042FE020042868A92628482A2D2CE
:100210008C182848FE08E4A2A2A29C3C5292920CA0
:10022000808E90A0C06C9292926C609292947800B2
:100230006C6C0000006A6C000010284482002828C2
:10024000282828008244281040808A90604C929E82
:10025000827C7E8888887EFE9292926C7C828282EA
:1002600044FE82824438FE92929282FE9090908068
:100270007C8292925EFE101010FE0082FE820004CC
:100280000282FC80FE10284482FE02020202FE402E
:100290003040FEFE201008FE7C8282827CFE909020
:1002A00090607C828A847AFE9098946262929292A4
:1002B0008C8080FE8080FC020202FCF8040204F8BC
:1002C000FC021C02FCC6281028C6E0100E10E086B6
:1002D0008A92A2C200FE828200402010080400829E
:1002E00082FE002040804020020202020200804084
:1002F0002000042A2A2A1EFE1222221C1C2222224C
:10030000041C222212FE1C2A2A2A18107E908040E9
:10031000304A4A4A7CFE1020201E0022BE02000401
:100320000222BC00FE081422000082FE02003E20D1
:1003300018201E3E1020201E1C2222221C3E28288F
:100340002810102828183E3E10202010122A2A2A91
:100350000420FC2202043C0202043E380402043859
:100360003C020C023C2214081422300A0A0A3C22E5
:10037000262A322200106C82000000FE000000825B
:100380006C1000081010081000000000007F818130
:10039000817F7F8383837F7F8787877F7F8F8F8F17
:1003A0007F7F9F9F9F7F7FBFBFBF7F7FFFFFFF7FBD
:1003B0002040FF4020621517156500FBFB00000080
:1003C00000000000C0FF0300E0FF0700F0FF0F0087
:1003D000F8FF1F0078001E0078001E0078001E0045
:1003E00078001E0078001E0078001E0078001E00B5
:1003F00078001E0078001E000000000000000000D1
:1004000080FF0300E0FF0700F0FF0F00F8FF1F0070
:10041000F83C1F00783C1E00783C1E00783C1E0013
:10042000783C1E00783C1E00783C1E00783C1E0084
:10043000783C1E00783C1E00783C1E000000000046
:1004400000000000E0FF0300F0FF0700F8FF0F00CE
:10045000F8FF1F00783C1E00783C1E00783C1E0010
:10046000783C1E00783C1E00783C1E00783C1E0044
:10047000783C1E00783C1E00783C1E000000000006
:1004800000000000F8FF0300F8FF0F00F8FF1F0056
:10049000F8FF1F0000001E0000001E0000801F006B
:1004A00000F01F0000FF0F00E0FF0700F0FF00005A
:1004B000F80F0000F800000078000000780000004D
:1004C000F8FF1F00F8FF1F00F0FF1F00E0FF1F00F4
:1004D0000000000000000000F8FF1F00F8FF1F00F0
:1004E000F8FF1F00F8FF1F0078001E00783C1E0078
:1004F000783C1E00783C1E00783C1E00783C1E00B4
:10050000783C1E00F87E1F00F8FF1F00F0FF0F0070
:10051000E0E703000000000000003800EEFF6C0080
:100520002A8045003A0047FC03FF6CFC83FF39003A
:10053000DEFF0B7CD0810BFCD0810BC0D0810BFC8B
:10054000D0810B7CDEFF0B0082FF397002FF6CF85C
:100550003A0047DC2A8045CCEEFF6CCC0000380026
:100560000000000C00001E0C00001E0000001E0019
:1005700000001E0000001E00F8FF1F00F8FF1F0013
:10058000F8FF1F00F8FF1F0000001E0000001E0003
:1005900000001E0000001E0000005E000000400081
:1005A00000007C00000040000000400000007C00D3
:1005B00000003000000010000000300000007C004F
:1005C00011241FBECFEFD8E0DEBFCDBF11E0A0E009
:1005D000B1E0EAEBFEE302C005900D92A63EB10742
:1005E000D9F712E0A6EEB1E001C01D92A03FB1071D
:1005F000E1F70E9450080C945B1F0C9400001F93BD
:10060000CF93DF93EC0188E660E00E94020D182F83
:100610008823A1F481E00E94DC0C182F882371F458
:1006200088E661E00E94020D182F882339F4CE017C
:1006300060E00E94B00C182F811118820E94480DB2
:10064000812FDF91CF911F9108951F93CF93DF9357
:10065000EC0188E660E00E94020D182F8823A1F4C7
:1006600089E00E94DC0C182F882371F488E661E091
:100670000E94020D182F882339F4CE0160E00E94F9
:10068000B00C182F811118820E94480D812FDF9124
:10069000CF911F9108951F93CF93DF93EC0188E6CC
:1006A00060E00E94020D182F8823A1F488E00E94C8
:1006B000DC0C182F882371F488E661E00E94020D9B
:1006C000182F882339F4CE0160E00E94B00C182F57
:1006D000811118820E94480D812FDF91CF911F91C7
:1006E00008951F93CF93DF93EC0188E660E00E94AA
:1006F000020D182F8823A1F487E00E94DC0C182F2C
:10070000882371F488E661E00E94020D182F882387
:1007100039F4CE0160E00E94B00C182F81111882CC
:100720000E94480D812FDF91CF911F9108951F9353
:10073000CF93DF93EC0188E660E00E94020D182F52
:100740008823A1F486E00E94DC0C182F882371F422
:1007500088E661E00E94020D182F882339F4CE014B
:1007600060E00E94B00C182F811118820E94480D81
:10077000812FDF91CF911F9108951F93CF93DF9326
:10078000EC0188E660E00E94020D182F8823A1F496
:1007900085E00E94DC0C182F882371F488E661E064
:1007A0000E94020D182F882339F4CE0160E00E94C8
:1007B000B00C182F811118820E94480D812FDF91F3
:1007C000CF911F9108951F93CF93DF93EC0188E69B
:1007D00060E00E94020D182F8823A1F484E00E949B
:1007E000DC0C182F882371F488E661E00E94020D6A
:1007F000182F882339F4CE0160E00E94B00C182F26
:10080000811118820E94480D812FDF91CF911F9195
:1008100008951F93CF93DF93EC0188E660E00E9478
:10082000020D182F8823A1F483E00E94DC0C182FFE
:10083000882371F488E661E00E94020D182F882356
:1008400039F4CE0160E00E94B00C182F811118829B
:100850000E94480D812FDF91CF911F9108951F9322
:10086000CF93DF93EC0188E660E00E94020D182F21
:100870008823A1F482E00E94DC0C182F882371F4F5
:1008800088E661E00E94020D182F882339F4CE011A
:1008900060E00E94B00C182F811118820E94480D50
:1008A000812FDF91CF911F9108951F93CF93DF93F5
:1008B000EC0188E660E00E94020D182F8823A1F465
:1008C00080E00E94DC0C182F882371F488E661E038
:1008D0000E94020D182F882339F4CE0160E00E9497
:1008E000B00C182F811118820E94480D812FDF91C2
:1008F000CF911F91089581E00E94450885E00E94F4
:100900000E080E94F107A0E0B0E0BC01CD010E94FA
:10091000371820E030E040EA50E40E9465179B0160
:10092000AC0160E070E286E395E40E94CE1720E01F
:1009300030E040E85FE30E9464172CE033E949ECC3
:100940005EE30E940019089581E00E94450887E057
:100950000E940E080E94F107A0E0B0E0BC01CD01AA
:100960000E94371820E030E040EA50E40E9465170A
:100970009B01AC0160E070E286E395E40E94CE1733
:1009800020E030E040E85FE30E9464172CE033E9A8
:1009900049EC5EE30E940019089581E00E94450839
:1009A00083E00E940E080E94F107A0E0B0E0BC01C5
:1009B000CD010E94371820E030E040EA50E40E9468
:1009C00065179B01AC0160E070E286E395E40E944C
:1009D000CE1720E030E040E85FE30E9464172CE08F
:1009E00033E949EC5EE30E940019089581E00E941A
:1009F000450884E00E940E080E94F107A0E0B0E0E4
:100A0000BC01CD010E94371820E030E040EA50E4FC
:100A10000E9465179B01AC0160E070E286E395E4FB
:100A20000E94CE1720E030E040E85FE30E946417A8
:100A30002CE033E949EC5EE30E940019089581E05F
:100A40000E94450885E00E940E080E94F107A0E080
:100A5000B0E0BC01CD010E94371820E030E040EA50
:100A60005BE30E940019089581E00E94450886E03A
:100A70000E940E080E94F107A0E0B0E0BC01CD0189
:100A80000E94371820E030E040EA5BE30E94001942
:100A90000895FF920F931F93CF93DF9381E080938C
:100AA0006D0280E00E94B40B182F81E00E94B40B0D
:100AB000082F82E00E94B40BF82E113019F0C0E02C
:100AC000D0E017C080E091E00E94721C88EE93E0B5
:100AD0000E94510C80E20E94680980ED97E00E941C
:100AE000510C80E40E94530980E20E945309C1E046
:100AF000D0E00130B9F48CE091E00E94721C88EEE5
:100B000093E00E94510C80E40E94680980ED97E018
:100B10000E94510C80E40E94530980E20E94530914
:100B2000C2E0D0E081E0F816D1F488E191E00E94C3
:100B3000721C88EE93E00E94510C80E40E946809C8
:100B400080E20E94680980ED97E00E94510C80E4E9
:100B50000E94530980E20E945309C3E0D0E00E9442
:100B60005908CE01DF91CF911F910F91FF90089509
:100B70002F923F924F925F926F927F928F929F92AD
:100B8000AF92BF92CF92DF92EF92FF920F931F939B
:100B9000DF93CF93CDB7DEB72B970FB6F894DEBFB8
:100BA0000FBECDBF1A821B821C821D821E821F8235
:100BB000188619860E94020C90936D0280936C0235
:100BC0000E945F0990936B0280936A0281E00E9409
:100BD000650A0E94760890936902809368020E94D9
:100BE0005F090E945C0D0E94E30781E00E944508B6
:100BF00000D0EDE9F1E0ADB7BEB71296FC93EE93ED
:100C000011970E944C1C0F900F900E944905813053
:100C1000910509F065C064EF71E080E090E044EF79
:100C200051E024E630E00E94720ACC24DD2480E00A
:100C30000E944E0B182F81E00E944E0B00D000D076
:100C400000D0EDB7FEB7319624E231E0ADB7BEB7C4
:100C500012963C932E9311971283138284831582EC
:100C60000E94371C8DB79EB706960FB6F8949EBFAC
:100C70000FBE8DBF0E9434057B018C010E941F05B1
:100C8000ADB7BEB71A970FB6F894BEBF0FBEADBFD3
:100C9000EDB7FEB7319628E331E012963C932E93E0
:100CA0001197E282F38204831583668377838087BA
:100CB00091870E94371C8DB79EB70A960FB6F8949D
:100CC0009EBF0FBE8DBF88EE93E00E94510C08942A
:100CD000C11CD11C99E1C916D10409F0A8CF88CF55
:100CE0008230910509F080C06AEF70E080E090E00A
:100CF00044EF51E022E330E00E94720A6AEF70E0B4
:100D000080E090E044EF51E022E330E00E94720A7C
:100D10001B861A860E94F6043B014C010E94CD04FA
:100D20001B012C010E94A4047B018C010E947B0406
:100D30005B016C0100D000D000D0E2E5F1E0ADB77E
:100D4000BEB71296FC93EE9311971396ED92FD9217
:100D50000D931C9316970E94371C2FE531E0EDB7D9
:100D6000FEB732832183ADB7BEB71396AD92BD9265
:100D7000CD92DC9216970E94371C2CE631E0EDB73D
:100D8000FEB732832183ADB7BEB713966D927D92C5
:100D90008D929C9216970E94371C29E731E0EDB79F
:100DA000FEB732832183ADB7BEB713962D923D9225
:100DB0004D925C9216970E94371CEDB7FEB736969F
:100DC0000FB6F894FEBF0FBEEDBF88EE93E00E9411
:100DD000510C2A853B852F5F3F4F3B872A8729315E
:100DE000310509F097CF04CF039709F001CF6DE7E4
:100DF00070E080E090E04AEF50E022E330E00E94B3
:100E0000720A6DE770E080E090E04AEF50E022E384
:100E100030E00E94720A6DE770E080E090E04AEFF7
:100E200050E022E330E00E94720A80E40E946809E8
:100E300000E010E054E0252E312C2C0E3D1E45E044
:100E4000442E512C4C0E5D1E36E0632E712C6C0E20
:100E50007D1E27E0822E912C8C0E9D1E98E0A92EDF
:100E6000B12CAC0EBD1E89E0E82EF12CEC0EFD1E5F
:100E70006E010894C11CD11CCE0102960E942F0461
:100E8000CE0103960E940904C1010E94E303C2013E
:100E90000E94BD03C3010E949703C4010E94710315
:100EA000C5010E944B03C7010E942503CE01029693
:100EB0000E942F04882309F078C000D0ECE8F1E00C
:100EC000ADB7BEB71296FC93EE9311970E944C1CDF
:100ED0002DB73EB7285030400FB6F8943EBF0FBE36
:100EE0002DBFEDB7FEB7319628E731E0ADB7BEB7FD
:100EF00012963C932E9311978A81828313828B8161
:100F0000848315828C81868317828D8180871186E8
:100F10000E944C1CEDB7FEB7319624E631E0ADB728
:100F2000BEB712963C932E9311978E8182831382C3
:100F30008F8184831582888586831782898580873F
:100F400011860E944C1C8DB79EB70A960FB6F89476
:100F50009EBF0FBE8DBFC6010E94FF028823B9F459
:100F600000D000D0EDB7FEB7319626E531E0ADB741
:100F7000BEB712963C932E93119789818283138278
:100F80000E944C1C0F900F900F900F9011C000D03A
:100F9000EAE4F1E0ADB7BEB71296FC93EE93119779
:100FA0000E944C1C0F900F9003C080E40E945309D4
:100FB00088EE93E00E94510C0F5F1F4F093111051D
:100FC00009F05ACF15CE8FE00E94BF0A882331F472
:100FD0000E94830D8FE061E00E94070B8FE091E09B
:100FE00008958FE00E94BF0A813019F020E030E0C0
:100FF00013C080917A00806480937A0080917A0097
:1010000086FDFCCF3091780020917900922F80E00E
:10101000232F30E0282B392BC9010895582F8091B8
:1010200086018830D8F440917E0021E030E0B9019B
:1010300002C0660F771F8A95E2F7CB018095842363
:1010400080937E0080917E00052E02C0220F331F08
:101050000A94E2F7822B80937E000DC020917E00DF
:1010600081E090E0052E02C0880F991F0A94E2F7F4
:10107000282B20937E005093860180917C005F7125
:10108000807E852B80937C000895ECE7F0E09081D2
:101090008295880F880F807C9F73982B908308958A
:1010A0000E949C0D0E948E0D0E94B80580E090E089
:1010B00008950F931F9380E460E00E94380900E0D8
:1010C000802F60E00E941F0910E080E061E00E9434
:1010D00038091F5F1038C9F70F5F043089F783E0C4
:1010E00060E00E9418091F910F9108950F931F93BC
:1010F00082E00E94BF0A882311F482E006C081E0EA
:101100000E94BF0A882319F481E090E06DC00E941C
:10111000041085E061E00E94070B8EEA60E00E9407
:10112000380982EA60E00E94380980EA60E00E94A3
:10113000380900E513ECC8010197F1F780EC60E095
:101140000E9438098FE260E00E94380981E860E07F
:101150000E94380986E160E00E94380982E260E07E
:101160000E943809C8010197F1F78FEA60E00E94F8
:10117000380986EA60E00E94380985EA60E00E944A
:10118000380980E090E028E833E1F9013197F1F780
:10119000019643E0883E9407C1F783EB60E00E942C
:1011A000380980E460E00E94380983E060E00E9432
:1011B0001F0983E060E00E941809109283021092D8
:1011C00085021092840281E991E09093ED02809370
:1011D000EC0288E10E94F7080E94590884EA60E066
:1011E0000E94380985E091E01F910F9108951F93A7
:1011F000182F85E00E94BF0A8130C1F487E00E9469
:10120000740982E06AE00E94C50982E061EB0E94F5
:10121000C509612F113208F060E282E00E94C50921
:1012200089EE8A95F1F787E00E9474091F9108956D
:1012300083706F77609381028093820208950F9389
:101240001F93062F162F1F778370806B60E00E941C
:10125000380912951F70812F806160E00E94380963
:10126000802F8F7060E00E9438091F910F910895C0
:101270000F931F93082F162F85E00E94BF0A81301D
:1012800079F4112319F0113021F402C02B9801C018
:101290002B9A86E08A95F1F780E0602F0E94C509BD
:1012A0001F910F9108951F93182F86E00E94BF0A87
:1012B000813019F4812F0E94B3101F9108950E946C
:1012C000B81086E061E00E94070B86E091E0089587
:1012D0001F93182F86E00E94BF0A813019F4812FD6
:1012E0000E94BB101F9108951F93182F82E00E9447
:1012F000BF0A813009F047C0912F97708091860214
:10130000981709F440C09093860285B1887F892B95
:1013100085B9933011F1943028F4913051F0923026
:1013200090F40CC0953019F19530E0F0963021F52D
:101330000FC0E0914302F091440222C0E0914102CB
:10134000F09142021DC0E0914502F091460218C0A2
:10135000E0914D02F0914E0213C0E0914702F091EE
:1013600048020EC0E0914902F0914A0209C0E091A2
:101370004B02F0914C0204C0E0914F02F0915002F8
:10138000309709F009951F9108951F93162F0E9419
:10139000740982E00E94BF0A813021F41EBD0DB4A1
:1013A00007FEFDCF1F9108950F931F93CF93DF93F7
:1013B00080E291E00E94321B9C0190936002809336
:1013C0005F02892B11F480E039C08901C0E0D0E0D0
:1013D000BE0180E090E00E94371820E030E040EA53
:1013E00051E40E94CE1727EF35E740E05FE30E940B
:1013F00000199B01AC0160E070E080E291E40E9482
:101400006B199B01AC01CA01B9012DEC3CEC42E81F
:1014100051E40E9400190E94C6182AE030E040E022
:1014200050E00E94F11AF8016193719381939193B6
:101430008F012196C834D10559F681E0DF91CF9113
:101440001F910F9108958AE00E94BF0A882371F4CA
:1014500010925C0210925B0281E00E940D1281E00A
:10146000809352028AE061E00E94070B8AE091E0DB
:1014700008951F938BE00E94BF0A882311F090E02B
:1014800021C089E00E94BF0A8823D9F40E94D409B0
:10149000182F8130B1F4109253021092540210921E
:1014A0005502109256028DE069E771E10E94DC0F4F
:1014B00082E00E940D121093510289E061E00E94C7
:1014C000070B91E089E01F910895813029F0823067
:1014D00031F090E089E008950E94230A08950E9467
:1014E000390A08958F929F92AF92BF92CF92DF9266
:1014F000EF92FF920F931F93CF93DF934B015C0109
:10150000EA01B9012115310539F19E01442737FD62
:101510004095542F6536710510F064E670E080E068
:1015200090E00E94F11A24E630E040E050E00E9492
:10153000101B79018A01C501B4010E947C11C70109
:101540000E94510C60E070E080E090E00E947C110D
:10155000CE018E199F0904C04115510519F0CA0129
:101560000E94510CDF91CF911F910F91FF90EF904E
:10157000DF90CF90BF90AF909F908F900895E82F0D
:10158000F0E0E331F10540F4E25CFF4FEE0FFF1FA6
:101590000590F491E02D099480E0089580916E0209
:1015A000089580916F02089580917002089580914E
:1015B00071020895809172020895809174020895D5
:1015C000809173020895809175020895809176024A
:1015D000089580917702089580917802089580910E
:1015E0007902089580917A02089580917B0208958E
:1015F00080917C02089580917D02089580917E0201
:10160000089580917F020895809180020895E82FC7
:10161000F0E0E331F10508F040C0EF5AFF4FEE0F64
:10162000FF1F0590F491E02D099460936E020895D8
:1016300060936F0208956093700208956093710241
:101640000895609372020895609374020895609300
:101650007302089560937502089560937602089569
:1016600060937702089560937802089560937902F9
:10167000089560937A02089560937B0208956093C1
:101680007C02089560937D02089560937E02089520
:1016900060937F02089560937E0208951F93182F30
:1016A0008091E901882341F08091F001882399F02D
:1016B0001092E9011092F0010E94830B8093E801DF
:1016C0008AEE91E061E040E028E230E00E94720C96
:1016D00081E08093E9019091E801133018F0133014
:1016E00079F409C0E12FF0E0E957FE4F80818923AA
:1016F00041F081E006C091FF03C0892F817001C0D5
:1017000080E01F9108950F931F9381E00E94BF0A0C
:10171000813011F000E024C087E00E94740982E06B
:101720006AE00E94C50982E062EB0E94C50918ECDC
:10173000812F8A95F1F782E060E00E945E11082F08
:10174000812F8A95F1F782E060E00E945E111A9580
:10175000F1F787E00E94740988E893E10197F1F7B7
:10176000802F1F910F9108951F93CF93DF93182F10
:101770008091F401882341F08091FE01882399F043
:101780001092F4011092FE010E94830B8093F301EA
:1017900088EF91E061E040E022E330E00E94720CCB
:1017A00081E08093F4019091F301A12FB0E0ED016D
:1017B000C557DE4F8881882369F0FD01E257FE4F4F
:1017C00080819823C1F0FD01EB50FE4F81E08083C2
:1017D000188211C0FD01EB50FE4F808181111082F3
:1017E000FD01E257FE4F8081982329F4FD01E55762
:1017F000FE4F81E08083AB50BE4F8C91DF91CF9143
:101800001F91089582E00E94BF0A882319F490E096
:1018100082E0089510929C0210929B0210929E0208
:1018200010929D021092A00210929F021092A202AA
:101830001092A1021092A4021092A30280E991E0FA
:10184000909388028093870290938A028093890202
:1018500090938C0280938B0290938E0280938D02E2
:101860009093900280938F0284E398E09093920289
:1018700080939102909394028093930290939602A6
:1018800080939502909398028093970290939A0286
:101890008093990281E061E00E94070B91E081E072
:1018A0000895DF93CF93CDB7DEB729970FB6F8949D
:1018B000DEBF0FBECDBF9C01CE01019661E040E0CE
:1018C0000E94720C982F882319F48F818823E9F3E2
:1018D000892F29960FB6F894DEBF0FBECDBFCF91EA
:1018E000DF910895EF92FF920F931F93CF93DF93B1
:1018F000EC01F62EE42E890188E00E94BF0A8130B7
:1019000011F081E026C084E090E00E94321BFC01CF
:10191000009711F482E01DC0F982F0FC1E8281E084
:10192000E81619F4898184608983898188608983B4
:101930001B830A831D830C83D183C083138212828D
:1019400081E080936102CF010E94601210926102D7
:1019500080E0DF91CF911F910F91FF90EF9008955C
:10196000FC018091A802813011F085E008958091FA
:10197000A902813011F08AE00895613011F484ECFD
:1019800001C084E88093BC008091BC0087FFFCCF3D
:10199000613031F48091B900887F803559F405C0F9
:1019A0008091B900887F883529F48091BB008083BD
:1019B00080E0089582E00895982F8091A8028130F8
:1019C00011F085E008958091A902813011F08AE03C
:1019D00008959093BB0084E88093BC008091BC0084
:1019E00087FFFCCF8091B90090E0887F90708832AB
:1019F000910521F0C09721F483E0089580E00895D7
:101A00008CE00895982F2091A802213011F085E0F4
:101A100008958091AA02813011F489E008952093FD
:101A2000A90284EA8093BC008091BC0087FFFCCFB0
:101A30008091B900887F883039F08091B900887F23
:101A4000803111F081E00895613019F4990F9160AF
:101A500003C0662319F4990F9093BB0084E8809328
:101A6000BC008091BC0087FFFCCF613031F48091D5
:101A7000B900887F803441F409C0662339F480912D
:101A8000B900887F883111F082E0089580E00895E0
:101A90008091A902813011F08AE008958091AB0213
:101AA000813029F485E98093BC0080E0089584E9C1
:101AB0008093BC0080E0089582E10E94BF0A8823E1
:101AC000B1F41092A8021092A9021092AA021092E8
:101AD000AB021092AC020E94FC1287E160E00E940F
:101AE0007A0D0E94F21282E161E00E94070B82E10E
:101AF00090E0089563706093B9008093B80081E02E
:101B00008093A80208958FE180937C00EAE7F0E0DB
:101B100087E0808380818068808308950E943D12E1
:101B20000E94C0100E94F00F0E94C9120E9425114D
:101B30000E94020C78940895000008951F920F925D
:101B40000FB60F9211242F933F934F935F936F9390
:101B50007F938F939F93AF93BF93EF93FF93E09106
:101B60002102F0912202309709F00995FF91EF913F
:101B7000BF91AF919F918F917F916F915F914F91A5
:101B80003F912F910F900FBE0F901F9018951F92AD
:101B90000F920FB60F9211242F933F934F935F93A1
:101BA0006F937F938F939F93AF93BF93EF93FF9325
:101BB000E0912302F0912402309709F00995FF91FA
:101BC000EF91BF91AF919F918F917F916F915F91B5
:101BD0004F913F912F910F900FBE0F901F9018952E
:101BE0001F920F920FB60F9211242F933F934F9392
:101BF0005F936F937F938F939F93AF93BF93EF9375
:101C0000FF93E0912502F0912602309709F00995A3
:101C1000FF91EF91BF91AF919F918F917F916F91C4
:101C20005F914F913F912F910F900FBE0F901F909A
:101C300018951F920F920FB60F9211242F933F9376
:101C40004F935F936F937F938F939F93AF93BF93C4
:101C5000EF93FF93E0911302F0911402309709F093
:101C60000995FF91EF91BF91AF919F918F917F91D6
:101C70006F915F914F913F912F910F900FBE0F90F9
:101C80001F9018951F920F920FB60F9211242F9349
:101C90003F934F935F936F937F938F939F93AF93F4
:101CA000BF93EF93FF93E0911502F09116023097E6
:101CB00009F00995FF91EF91BF91AF919F918F919D
:101CC0007F916F915F914F913F912F910F900FBE38
:101CD0000F901F9018951F920F920FB60F9211241C
:101CE0002F933F934F935F936F937F938F939F9324
:101CF000AF93BF93EF93FF93E0911702F091180217
:101D0000309709F00995FF91EF91BF91AF919F91A5
:101D10008F917F916F915F914F913F912F910F9094
:101D20000FBE0F901F9018951F920F920FB60F9233
:101D300011242F933F934F935F936F937F938F93D0
:101D40009F93AF93BF93EF93FF93E0911B02F091AA
:101D50001C02309709F00995FF91EF91BF91AF9167
:101D60009F918F917F916F915F914F913F912F91B3
:101D70000F900FBE0F901F9018951F920F920FB6E5
:101D80000F9211242F933F934F935F936F937F9301
:101D90008F939F93AF93BF93EF93FF93E0911D02B7
:101DA000F0911E02309709F00995FF91EF91BF91D4
:101DB000AF919F918F917F916F915F914F913F91E3
:101DC0002F910F900FBE0F901F9018951F920F929A
:101DD0000FB60F9211242F933F934F935F936F93FE
:101DE0007F938F939F93AF93BF93EF93FF93E09174
:101DF0001902F0911A02309709F00995FF91EF91BD
:101E0000BF91AF919F918F917F916F915F914F9112
:101E10003F912F910F900FBE0F901F9018951F921A
:101E20000F920FB60F9211242F933F934F935F930E
:101E30006F937F938F939F93AF93BF93EF93FF9392
:101E4000E0911F02F0912002309709F00995FF916F
:101E5000EF91BF91AF919F918F917F916F915F9122
:101E60004F913F912F910F900FBE0F901F9018959B
:101E70001F920F920FB60F9211242F933F934F93FF
:101E80005F936F937F938F939F93AF93BF93EF93E2
:101E9000FF93E0910902F0910A02309709F0099549
:101EA000FF91EF91BF91AF919F918F917F916F9132
:101EB0005F914F913F912F910F900FBE0F901F9008
:101EC00018951F920F920FB60F9211242F933F93E4
:101ED0004F935F936F937F938F939F93AF93BF9332
:101EE000EF93FF93E0910B02F0910C02309709F011
:101EF0000995FF91EF91BF91AF919F918F917F9144
:101F00006F915F914F913F912F910F900FBE0F9066
:101F10001F9018951F920F920FB60F9211242F93B6
:101F20003F934F935F936F937F938F939F93AF9361
:101F3000BF93EF93FF93E0910D02F0910E02309763
:101F400009F00995FF91EF91BF91AF919F918F910A
:101F50007F916F915F914F913F912F910F900FBEA5
:101F60000F901F9018951F920F920FB60F92112489
:101F70002F933F934F935F936F937F938F939F9391
:101F8000AF93BF93EF93FF93E0910F02F091100294
:101F9000309709F00995FF91EF91BF91AF919F9113
:101FA0008F917F916F915F914F913F912F910F9002
:101FB0000FBE0F901F901895E82F803268F4805163
:101FC000833050F0F0E0EE0FFF1FEF5FFD4F2081F8
:101FD00031817183608302C020E030E0C90108953F
:101FE00080E10E94BF0A882361F4E1E0F2E01192EF
:101FF000119282E0E134F807D1F780E161E00E94BC
:10200000070B80E191E00895239A0895FF920F93C2
:102010001F93CF93DF93F82E8AE0F816B1F08F1557
:1020200048F0E8E0FE16B9F1EF1538F1F7E0FF16D9
:1020300051F43BC08DE0F81659F0EBE1FE1689F043
:10204000FCE0FF1641F001E041C01092810203C0A4
:10205000109281023AC08091820281508093820264
:1020600034C00E94590814C080E061E00E94380921
:10207000809181028F5F809381028091810287FF2E
:10208000F3CF10928102809182028150809382026C
:1020900000E011E01CC0809181028823B1F08091A2
:1020A000810286508093810210C081E00E94650AFF
:1020B00064EF71E080E090E04DE750E024E630E02E
:1020C0000E94720A81E00E94031200E010E08091F9
:1020D0008202609181020E941F09002351F185E074
:1020E000F89EC0011124EC01C35FDE4F8C010E5E2F
:1020F0001E4FFE01849161E00E9438092196C017AD
:10210000D107B9F780E061E00E943809809181022F
:102110008A5F809381028091810290E08C379105E3
:102120003CF0109281028091820281508093820261
:1021300011E080918202837080938202113059F401
:1021400080918302813039F4E0918402F09185021C
:10215000309709F0099580E090E0DF91CF911F91D1
:102160000F91FF90089585FD5D9886FD5E98089516
:10217000559A569A089585FD5D9A86FD5E9A089552
:1021800080E00E94BF0A882351F4F8940E94101343
:1021900081E00E94D21080E061E00E94070B80E0A5
:1021A00091E00895813049F0F894813020F1823037
:1021B000B1F0833009F045C017C02C9A80E88093B5
:1021C00061001092610080E090E00000019688328A
:1021D0009105D9F71092680010926B00089580E87D
:1021E0008093610083E004C080E88093610088E010
:1021F0008093610028C080E090E0000001962DE609
:1022000080369207D1F72C9880E090E0000001968C
:102210002DE680369207D1F710927A008FEF8093E7
:1022200064008091680081608093680080916B00F9
:10223000846080936B00789483B7816083BF8895B6
:102240000895823008F0789408950F931F930E94A8
:102250003C1380E06BE273E10E94701181E063E265
:1022600073E10E94701182E06BE173E10E947011D2
:1022700086E063E373E10E94701103E113E183E000
:10228000B8010E94701184E0B8010E94701185E0CD
:10229000B8010E94701187E0B8010E94701182E0BD
:1022A00061E00E94070B8FEF8093860287E00E9417
:1022B000740982E091E01F910F9108951F93162FEA
:1022C0000E94740982E00E94BF0A813011F080E010
:1022D00005C01EBD0DB407FEFDCF8EB51F9108953C
:1022E000E82FF0E0EE0FFF1FEF5BFD4F718360837F
:1022F00008950E94931108959B01AC0180915202B0
:10230000882381F0DA01C901880F991FAA1FBB1F1A
:1023100090935E0280935D022115310541055105C0
:1023200009F45F9808958091530290915402A0910E
:102330005502B091560220915702309158024091B7
:10234000590250915A02280F391F4A1F5B1F2093D0
:102350005302309354024093550250935602809199
:10236000530290915402A0915502B09156028851A7
:10237000964FA040B040BCF08BB180588BB9809193
:10238000530290915402A0915502B0915602885187
:10239000964FA040B0408093530290935402A09374
:1023A0005502B093560208958AE00E94BF0A813018
:1023B00041F40E944313109252028AE060E00E94AE
:1023C000070B089589E00E94BF0A8130D9F48091FB
:1023D0005102882311F00E94371282E00E944313B9
:1023E00080915F0290916002009731F00E94DF1BA4
:1023F0001092600210925F021092510289E060E038
:102400000E94070B0895813029F0823029F40E9440
:10241000E21108950E94D4110895982F80915102DD
:10242000882331F480915202882311F4579A5F98DF
:10243000809151028823D1F49230C1F4109280002F
:10244000109281008091810088608093810080914A
:102450008100816080938100109285001092840039
:1024600081E08093890080E9809388000895EFE6F9
:10247000F0E080818D7F8083089510926E0210922B
:102480006F021092730210927002109272021092F8
:1024900074021092750210927602109277021092D6
:1024A00078021092790210927A0210927B021092B6
:1024B0007C0210927D0210927E0210927F0208959B
:1024C000CF92DF92EF92FF920F931F93CF93DF9300
:1024D000EC018091A502882339F4D093A702C09320
:1024E000A6020E94EE1247C0C090A602D090A7029A
:1024F00000E010E0EE24FF2437C0A881B981FD017F
:1025000064817581F60140815181FA018481958150
:102510009B01281B390B37FF0FC0861B970B958338
:102520008483DB82CA82012B29F4D093A702C09353
:10253000A60221C0F7010CC0F6018281938121150A
:10254000310549F4FD01158214829B838A83F601CB
:10255000D383C28310C0FD01358324830097B9F370
:102560000F5F1F4F76016C018091A50290E0081764
:10257000190718F2ECCF8091A5028F5F8093A50216
:10258000DF91CF911F910F91FF90EF90DF90CF904F
:10259000089588E00E94BF0A8823B9F41092A5022A
:1025A0001092A7021092A60210926102109262028B
:1025B00080E16FE573E10E94FF120E9466130E94A2
:1025C000E81288E061E00E94070B88E091E008953E
:1025D000EEE6F0E0808182608083089581E0809360
:1025E000620208958091A802813029F48091BC0094
:1025F00084608093BC00089538983998089580329B
:1026000018F020E030E00AC0E82FF0E0EE0FFF1FE6
:10261000EF5FFD4F2081318171836083C90108958F
:10262000249A2C9A089583E58CBD81E08DBD8DE0C0
:102630008A95F1F7089583E58CBD1DBC84EF91E088
:102640000197F1F708958FE78CBD1DBC84EF91E0F1
:102650000197F1F7089583E58CBD81E08DBD8DE094
:102660008A95F1F7089583E58CBD81E08DBD84EFF7
:1026700091E00197F1F70895259A2698279A209AD4
:10268000219A229A0895823029F4809181008E7FC8
:102690008093810080915102813031F48091520207
:1026A000813011F40000089580915102813021F0B1
:1026B00080915202813011F45F98579808950E94DA
:1026C0006F130E94AF130E948813089584B582602F
:1026D00084BD85B5846085BD8EE487BD089588E09E
:1026E0000E94BF0A882311F484E008958091620259
:1026F000882311F483E0089580916102882311F00A
:1027000082E008950E9443168130E1F380E008954D
:1027100080915202813011F580915B0290915C02B0
:1027200020915D0230915E02280F391F30935C02C8
:1027300020935B0280915B0290915C02885E9340E3
:102740006CF08BB180588BB980915B0290915C02E8
:10275000885E934090935C0280935B02089587E0CB
:102760000E94BF0A813009F0AAC08091B7029091FF
:10277000B802892B09F18091DB029091DC02209153
:10278000B7023091B802820F931F9093DC028093BE
:10279000DB028091DB029091DC02885E9340A4F022
:1027A0008091DB029091DC02885E93409093DC0282
:1027B0008093DB0241E009C08091AF029091B002AA
:1027C0009093B4028093B30240E08091B90290915B
:1027D000BA02892B09F18091DD029091DE022091ED
:1027E000B9023091BA02820F931F9093DE02809358
:1027F000DD028091DD029091DE02885E9340A4F0BC
:102800008091DD029091DE02885E93409093DE021B
:102810008093DD0261E009C08091B1029091B20223
:102820009093B6028093B50260E0842F0E946014FA
:102830008091D7029091D8022091B3023091B402D6
:10284000280F391F3093D8022093D7028091D702E6
:102850009091D802885E934014F440E00BC08091C0
:10286000D7029091D802885E93409093D8028093CB
:10287000D70241E08091D9029091DA022091B5020D
:102880003091B602280F391F3093DA022093D90213
:102890008091D9029091DA02885E934014F460E04E
:1028A0000BC08091D9029091DA02885E9340909398
:1028B000DA028093D90261E0842F0E94A514089562
:1028C0008823F1F02091AF023091B0028091B302E1
:1028D0009091B402281B390B1216130634F4809120
:1028E000B3029091B402019607C0232B49F0809166
:1028F000B3029091B40201979093B4028093B30213
:10290000662311F12091B1023091B2028091B5029B
:102910009091B602281B390B1216130654F48091BD
:10292000B5029091B60201969093B6028093B502DB
:102930000895232B49F08091B5029091B60201973A
:102940009093B6028093B50208950F931F93182FAA
:10295000062F8091E302882309F0E7C08091CB0223
:10296000882309F05AC08091B3029091B402892B58
:10297000E9F480916302837E809363021092D40213
:102980008091DF02882309F45DC06091CD0280E070
:102990000E941E16E091E102F091E202309709F4E4
:1029A00051C081E080831092DF024CC08091AD0263
:1029B000813041F48091BF029091C002019711F4DF
:1029C00011E002C01123F1F1E091D202F0E0E952EE
:1029D000FE4F90916302937E8081892B80936302E6
:1029E0008091D002882321F48091D2028F5F03C0AE
:1029F0008091D20281508093D2028091D202837062
:102A00008093D20281E08093D4028091AD02813024
:102A1000C9F480E00E94A81515C090916302937ECE
:102A200090936302E091D202F0E0E952FE4F808180
:102A3000892B8093630282E08093D4021092B402C7
:102A40001092B3028091CC02882309F059C0809182
:102A5000B5029091B602892BE9F4809163028F71DF
:102A6000809363021092D5028091E002882309F4DA
:102A70005CC06091CE0281E00E941E16E091E102EE
:102A8000F091E202309709F450C081E08183109206
:102A9000E0024BC08091AE02813041F48091C102CE
:102AA0009091C202019711F401E002C00023E9F104
:102AB000E091D302F0E0E552FE4F909163029F71E6
:102AC0008081892B809363028091D102882321F435
:102AD0008091D3028F5F03C08091D3028150809395
:102AE000D3028091D30283708093D30281E08093DC
:102AF000D5028091AE028130C1F40E94A81515C0A4
:102B0000909163029F7190936302E091D302F0E091
:102B1000E552FE4F8081892B8093630282E080938F
:102B2000D5021092B6021092B5028091D602882387
:102B300031F483E692E0612F402F0E94B11688B1F4
:102B4000837090916302892B88B91F910F9108952A
:102B5000882321F0813009F04EC027C08091BF0248
:102B60009091C002892B49F08091BF029091C002E0
:102B700001979093C0028093BF028091DF02882367
:102B8000D1F52091BF023091C0028091C302909193
:102B9000C4022817390779F580E060E070E00E94F0
:102BA000FC1581E08093DF0208958091C10290912D
:102BB000C202892B49F08091C1029091C202019713
:102BC0009093C2028093C1028091E002882399F41D
:102BD0002091C1023091C2028091C5029091C6023B
:102BE0002817390741F481E060E070E00E94FC158D
:102BF00081E08093E0020895482F81E08093E30212
:102C0000CB0121E06139720710F080E991E0413099
:102C100071F0413018F0423071F405C09093B00269
:102C20008093AF0208C09093B0028093AF0290935C
:102C3000B2028093B1021092E30208950F931F93A2
:102C4000182F062F662349F460E070E00E94FC15FF
:102C5000812F60E070E00E94491781E08093E302D9
:102C6000113051F0113018F0123041F403C00093CC
:102C7000CB0204C00093CB020093CC021092E3027B
:102C80001F910F910895FF920F931F93CF93DF939E
:102C90008091A502882309F459C00091A6021091E1
:102CA000A702F801C081D1818C819D8101979D830C
:102CB0008C83181619060CF449C0898180FF05C061
:102CC0008E81882311F481E08E83898181FF03C086
:102CD000EF81F88509958091A5028230A8F0F8016E
:102CE000828193819093A7028093A602138212821D
:102CF000E0910000F0910100848195811816190679
:102D00003CF0FF24F39405C01092A7021092A60293
:102D1000FF248091A50281508093A5028091A50295
:102D2000882311F40E94AE16898182FF08C08A812F
:102D30009B819D838C83C8010E94601208C0C801DA
:102D40000E94DF1B89818F7E898301C0FF248F2D24
:102D5000DF91CF911F910F91FF9008951092620221
:102D60000895FC018091D402823069F48091670259
:102D700091E0892780936702882309F03EC0808113
:102D8000837E80833AC08091B3029091B402C3974E
:102D9000A4F56623D1F02091B3023091B40280E60D
:102DA00090E0BC01269FC001279F900D369F900D9B
:102DB0001124880F892F881F990B9093C802809344
:102DC000C70281E08093650218C080916502882364
:102DD000A1F08091C7029091C80201979093C80218
:102DE0008093C7028091C7029091C802892B29F471
:102DF0008081837E8083109265028091D50282302B
:102E000069F48091660291E08927809366028823A5
:102E100009F03EC080818F71808308958091B50252
:102E20009091B602C397A4F54423D1F02091B50246
:102E30003091B60280E690E0AC01249FC001259F4E
:102E4000900D349F900D1124880F892F881F990BA6
:102E50009093CA028093C90281E08093640208952E
:102E6000809164028823A1F08091C9029091CA02E6
:102E700001979093CA028093C9028091C9029091F0
:102E8000CA02892B29F480818F7180831092640299
:102E90000895982F81E08093E302913071F0913092
:102EA00018F0923071F405C07093C0026093BF02B5
:102EB00008C07093C0026093BF027093C202609317
:102EC000C1021092E30208955058BB27AA270ED0E2
:102ED00022C113D130F018D120F031F49F3F11F40A
:102EE0001EF408C10EF4E095E7FBFEC0E92F24D1E3
:102EF00080F3BA17620773078407950718F099F4EF
:102F0000C6F53CC10EF4E0950B2EBA2FA02D062E6F
:102F1000622F202D072E732F302D082E842F402D49
:102F2000092E952F502DFF27591B99F0593F50F42A
:102F3000503E68F11A16F040A22F232F342F442759
:102F4000585FF3CF469537952795A795F040539551
:102F5000C9F77EF41F16BA0B620B730B840BBAF021
:102F60009150A1F0FF0FBB1F661F771F881FC2F78C
:102F70000EC0BA0F621F731F841F48F487957795A0
:102F80006795B795F7959E3F08F0AECF9395880F5C
:102F900008F09927EE0F9795879508950CD0BBC040
:102FA000B3D040F0AAD030F021F45F3F19F09CC0BC
:102FB0005111E5C09FC0C0D098F39923C9F35523A0
:102FC000B1F3951B550BBB27AA276217730784071C
:102FD00038F09F5F5F4F220F331F441FAA1FA9F3D2
:102FE00034D00E2E3AF0E0E831D091505040E695C2
:102FF000001CCAF72AD0FE2F28D0660F771F881F23
:10300000BB1F261737074807AB07B0E809F0BB0B13
:10301000802D6E2F7F2FFF2793585F4F2AF09E3F02
:10302000510568F061C0ABC05F3FECF3983EDCF344
:10303000869577956795B795F7959F5FC9F7880F40
:10304000911D9695879597F90895E1E0660F771F92
:10305000881FBB1F621773078407BA0720F0621B23
:10306000730B840BBA0BEE1F88F7E0950895E89474
:1030700009C097FB3EF490958095709561957F4FC0
:103080008F4F9F4F9923A9F0F92F96E9BB2793956E
:10309000F695879577956795B795F111F8CFFAF47E
:1030A000BB0F11F460FF1BC06F5F7F4F8F4F9F4FAF
:1030B00016C0882311F096E911C0772321F09EE80D
:1030C000872F762F05C0662371F096E8862F70E073
:1030D00060E02AF09A95660F771F881FDAF7880F4D
:1030E0009695879597F9089597F99F6780E870E01E
:1030F00060E008959FEF80EC089500240A9416166E
:10310000170618060906089500240A9412161306D5
:10311000140605060895092E0394000C11F4882363
:1031200052F0BB0F40F4BF2B11F460FF04C06F5F7F
:103130007F4F8F4F9F4F089557FD9058440F551F55
:1031400059F05F3F71F04795880F97FB991F61F029
:103150009F3F79F087950895121613061406551FA0
:10316000F2CF4695F1DF08C0161617061806991F0C
:10317000F1CF86957105610508940895E894BB2701
:1031800066277727862F972F97F90895DDDFA8F117
:103190009E57A8F1985160F039F1983070F5092EDA
:1031A0009927660F771F881F991F0A94D1F71CC0B3
:1031B000BB27993F4CF4B111B1E0B62B672F782FA4
:1031C0008827985FB1F708C0869577956795B7957A
:1031D00008F4B1609395C1F7BB0F30F411F460FFB0
:1031E00003C06F5F7F4F8F4F3EF490958095709531
:1031F00061957F4F8F4F9F4F08956894C0CFBECF8A
:103200000AD089CF7ADF28F07FDF18F0952309F004
:103210006BCF70CFB4CF90DFA8F39923D9F35523A8
:10322000C9F3950F50E0551FAA27EE27FF27BB27AC
:1032300000240894679520F4E20FF31FB41F0A1EC0
:10324000220F331F441FAA1F6695A9F7779530F404
:10325000F30FB41F0A1E121E08F46395330F441FA8
:10326000AA1F221F769599F7879520F4B40F0A1E9E
:10327000121E631F440FAA1F221F331F8695A9F732
:10328000862F712D602D11249F5750408AF0E1F058
:1032900088234AF0EE0FFF1FBB1F661F771F881F92
:1032A00091505040A9F79E3F510570F01DCF67CF58
:1032B0005F3FECF3983EDCF3869577956795B7957D
:1032C000F795E7959F5FC1F7FE2B880F911D9695A7
:1032D000879597F90895E42FF52FEE0FFF1F30968D
:1032E00021053105A1F16115710561F48038BFE355
:1032F0009B0751F168949038810561F08038BFEFE9
:103300009B0741F099234AF5FF3FE105310521056F
:1033100019F1E8940894E795A22FB32FAA2329F472
:10332000AB2FBE2FF85FD0F310C0FF5F70F4A695EF
:10333000E0F7F73950F019F0FF3A38F49F779F9390
:103340000CD00F9007FC905808953EF0D3CE60E06B
:1033500070E080E89FE308954FE79F775F934F9376
:103360003F932F93B2D02F913F914F915F9148DFC0
:1033700005C019F40EF0B8CE01CFBCCEE5DEC8F31F
:103380009638C0F707F80F92E8942BE33AEA48EB37
:103390005FE743DF0F920F920F924DB75EB70F9228
:1033A000D9D0E8ECF0E016D04F915F91EF91FF910A
:1033B000E595EE1FFF1F49F0FE57E0684427EE0F2A
:1033C000441FFA95E1F74195550B46D00F9007FE43
:1033D00038C00895DF93CF931F930F93FF92EF921E
:1033E000DF92E62EF72E082F192F689407C0DA2EE9
:1033F000CE2FDF2F10DFEC2FFD2FE894C895A02DE6
:103400003196C895202D3196C895302D3196C895A6
:10341000402D3196C895502D31964EF3CE2FDF2F8B
:1034200065DDEC2FFD2F2E2D3F2D402F512FDA94EF
:10343000F9F6DF90EF90FF900F911F91CF91DF9100
:103440000895262F372F482F592F60E070E080E82D
:103450009FE3A4CD49CEB7C077DEE8F39923D9F333
:10346000940F511DBBF39150504094F059F08823B4
:1034700032F0660F771F881F91505040C1F79E3F72
:10348000510544F7880F911D9695879597F90895F2
:103490005F3FACF0983E9CF0BB278695779567958B
:1034A000B79508F4B1609395C1F7BB0F58F711F4C5
:1034B00060FFE8CF6F5F7F4F8F4F9F4FE3CF5FCEAF
:1034C0000EF081C017CE68940FCE3EDEC8F399236C
:1034D000D1F3C6F3DF93CF931F930F93FF92C92FBE
:1034E000DD2788232AF02197660F771F881FDAF7D8
:1034F00020E030E040E85FEB9FE3883920F0803E39
:1035000030F021968F77E1DCE0EFF0E003C0DDDC06
:10351000EDE1F1E05FDF062F172F6C2F7D2FC82F15
:10352000D92FFB2E6F5771097595771F880B990B53
:10353000A0DD28E132E741E35FE36DDEAF2D202F10
:10354000312F4C2F5D2FFF900F911F91CF91DF9165
:10355000CDDCE1CDE42FF52FA82FB92FAA0FBB1F8B
:10356000262F372F482F592FBF5728F422273327CC
:103570004427507821C0B75188F4AB2F00244695DA
:1035800037952795011CA395D2F3002069F0220FEF
:10359000331F441FB395DAF30FD096CC6130710519
:1035A000A0E88A07B94640F4262F372F482F592F15
:1035B0006627772788279078309621F020833183FB
:1035C0004283538308959F3F31F0915020F48795B3
:1035D00077956795B795880F911D9695879597F97B
:1035E0000895629FD001739FF001829FE00DF11D4D
:1035F000649FE00DF11D929FF00D839FF00D749F6D
:10360000F00D659FF00D9927729FB00DE11DF91F18
:10361000639FB00DE11DF91FBD01CF011124089575
:10362000A1E21A2EAA1BBB1BFD010DC0AA1FBB1FC6
:10363000EE1FFF1FA217B307E407F50720F0A21B38
:10364000B30BE40BF50B661F771F881F991F1A94A5
:1036500069F760957095809590959B01AC01BD01CF
:10366000CF010895CF93DF93BC018230910510F410
:1036700062E070E0A091E802B091E902ED01E0E0C3
:10368000F0E040E050E021C08881998186179707DB
:1036900069F48A819B81309719F09383828304C0F7
:1036A0009093E9028093E802FE0134C0681779071D
:1036B00038F44115510519F08417950708F4AC0149
:1036C000FE018A819B819C01E9012097E9F6411561
:1036D0005105A9F1CA01861B970B049708F4BA019A
:1036E000E0E0F0E02AC08D919C9111978417950736
:1036F000F9F46417750781F412968D919C911397D4
:10370000309719F09383828304C09093E9028093E9
:10371000E802FD0132964FC0CA01861B970BFD01DE
:10372000E80FF91F6193719302978D939C9343C0A7
:10373000FD01828193819C01D9011097A1F68091AE
:10374000E6029091E702892B41F48091E10190918A
:10375000E2019093E7028093E6024091E3015091E9
:10376000E4014115510541F44DB75EB78091DF0189
:103770009091E001481B590B2091E6023091E7023D
:1037800024173507B0F4CA01821B930B86179707DD
:1037900080F0AB014E5F5F4F8417950750F0420FEA
:1037A000531F5093E7024093E602F901619371932E
:1037B00002C0E0E0F0E0CF01DF91CF910895CF9318
:1037C000DF93009709F450C0EC0122971B821A8204
:1037D000A091E802B091E902109709F140E050E0B1
:1037E000AC17BD0708F1BB83AA83FE01219131917B
:1037F000E20FF31FAE17BF0779F48D919C911197DB
:10380000280F391F2E5F3F4F3983288312968D91E1
:103810009C9113979B838A834115510571F4D09332
:10382000E902C093E80220C012968D919C911397F3
:10383000AD01009711F0DC01D3CFFA01D383C2832D
:1038400021913191E20FF31FCE17DF0769F48881D0
:103850009981280F391F2E5F3F4FFA013183208352
:103860008A819B8193838283DF91CF910895A0E029
:10387000B0E0EDE3FCE10C94341FFE01359661915C
:1038800071918091EC029091ED02AF010E94A71C12
:103890002096E2E00C94501FA0E0B0E0E2E5FCE1ED
:1038A0000C94341FFE01359661917191A091EC0248
:1038B000B091ED0213968C911397886013968C93B8
:1038C0008091EC029091ED02AF010E94A71CE09163
:1038D000EC02F091ED022381277F23832096E2E022
:1038E0000C94501F0F931F93CF93DF938C01E091A3
:1038F000EC02F091ED02838181FF21C0C0E0D0E0B5
:103900000DC0E091EC02F091ED0220853185BF0100
:10391000F9010995892B11F0CFEFDFEFF8018191C3
:103920008F01882371F7E091EC02F091ED02208580
:1039300031858AE0BF01F9010995892B11F0CFEF9C
:10394000DFEFCE01DF91CF911F910F910895ABE092
:10395000B0E0EDEAFCE10C94241F3C012B015A017C
:10396000FC0117821682838181FD03C06FEF7FEF18
:10397000C6C19AE0892E1E010894211C311CF30156
:103980002381F20123FD859123FF81912F0188235B
:1039900009F4B2C1853239F423FD859123FF819169
:1039A0002F01853229F490E0B3010E949A1EE7CFDF
:1039B000982FFF24EE249924FFE1FF15D0F09B32CD
:1039C00069F09C3228F4903259F0933291F40EC091
:1039D0009D3249F0903369F441E024C052E0F52A69
:1039E00084E0F82A28C098E0F92A25C0E0E1FE2A00
:1039F00022C0F7FC29C0892F80538A3070F4F6FE6C
:103A000005C0989C902C1124980E15C0E89CE02CC1
:103A10001124E80EF0E2FF2A0EC09E3229F4F6FCD3
:103A20006BC140E4F42A07C09C3619F450E8F52A2B
:103A300002C0983649F4F20123FD959123FF91913C
:103A40002F01992309F0B8CF892F8554833018F0BE
:103A50008052833038F444E050E0A40EB51E5FE39A
:103A600059830FC0933631F0933779F0933509F0CD
:103A700056C020C0F5018081898342E050E0A40E49
:103A8000B51E610101E010E012C0F501C080D180D7
:103A9000F6FC03C06FEF7FEF02C0692D70E042E0DB
:103AA00050E0A40EB51EC6010E948F1E8C015FE778
:103AB000F52214C0F501C080D180F6FC03C06FEF81
:103AC0007FEF02C0692D70E042E050E0A40EB51E09
:103AD000C6010E94841E8C0150E8F52AF3FE07C03F
:103AE0001AC080E290E0B3010E949A1EEA948E2DE3
:103AF00090E008171907A8F30EC0F601F7FC8591AE
:103B0000F7FE81916F0190E0B3010E949A1EE110CF
:103B1000EA94015010400115110579F7EAC0943676
:103B200011F0993669F5F7FE08C0F5012081318161
:103B30004281538184E090E00AC0F5018081918147
:103B40009C01442737FD4095542F82E090E0A80E59
:103B5000B91E9FE6F92257FF09C050954095309550
:103B600021953F4F4F4F5F4FE0E8FE2ACA01B90150
:103B7000A1012AE030E00E94C61ED82ED21840C013
:103B8000953729F41F2D1F7E2AE030E01DC01F2D20
:103B9000197F9F3661F0903720F4983509F0ACC05A
:103BA0000FC0903739F0983709F0A6C004C028E05C
:103BB00030E00AC0106114FD146020E130E004C060
:103BC00014FD166020E132E017FF08C0F5016081A6
:103BD00071818281938144E050E008C0F5018081C9
:103BE0009181BC0180E090E042E050E0A40EB51E5F
:103BF000A1010E94C61ED82ED2188FE7F82EF122FE
:103C0000F6FE0BC05EEFF522D91438F4F4FE07C0BF
:103C1000F2FC05C08FEEF82202C01D2D01C0192D47
:103C2000F4FE0DC0FE01ED0DF11D8081803319F40D
:103C300099EEF92208C01F5FF2FE05C003C08F2D68
:103C4000867809F01F5F0F2DF3FC14C0F0FE0FC043
:103C50001E1510F09D2C0BC09D2C9E0C911A1E2D34
:103C600006C080E290E0B3010E949A1E1F5F1E15FD
:103C7000C0F304C01E1510F4E11A01C0EE2404FFC5
:103C80000FC080E390E0B3010E949A1E02FF1DC0A6
:103C900001FD03C088E790E00EC088E590E00BC00E
:103CA000802F867891F001FF02C08BE201C080E294
:103CB000F7FC8DE290E0B3010E949A1E06C080E3FB
:103CC00090E0B3010E949A1E9A94D914C0F3DA943A
:103CD000F101ED0DF11D808190E0B3010E949A1E6B
:103CE000DD20A9F706C080E290E0B3010E949A1E91
:103CF000EA94EE20C1F743CEF30166817781CB01D0
:103D00002B96E2E10C94401FFC010590615070403D
:103D10000110D8F7809590958E0F9F1F0895FC0194
:103D20006150704001900110D8F7809590958E0FEA
:103D30009F1F08950F931F93CF93DF938C01EB0187
:103D40008B8181FF1BC082FF0DC02E813F818C8142
:103D50009D812817390764F4E881F9810193F9837B
:103D6000E88306C0E885F985802F0995892B31F411
:103D70008E819F8101969F838E8302C00FEF1FEF7C
:103D8000C801DF91CF911F910F910895FA01AA27E1
:103D9000283051F1203181F1E8946F936E7F6E5F8E
:103DA0007F4F8F4F9F4FAF4FB1E03ED0B4E03CD03C
:103DB000670F781F891F9A1FA11D680F791F8A1F1F
:103DC000911DA11D6A0F711D811D911DA11D20D086
:103DD00009F468943F912AE0269F11243019305D40
:103DE0003193DEF6CF010895462F4770405D419331
:103DF000B3E00FD0C9F7F6CF462F4F70405D4A337E
:103E000018F0495D31FD4052419302D0A9F7EACF45
:103E1000B4E0A6959795879577956795BA95C9F774
:103E200000976105710508959B01AC010A2E069467
:103E30005795479537952795BA95C9F7620F731F20
:103E4000841F951FA01D08952F923F924F925F925D
:103E50006F927F928F929F92AF92BF92CF92DF929A
:103E6000EF92FF920F931F93CF93DF93CDB7DEB7FF
:103E7000CA1BDB0B0FB6F894DEBF0FBECDBF099493
:103E80002A88398848885F846E847D848C849B84EA
:103E9000AA84B984C884DF80EE80FD800C811B81F8
:103EA000AA81B981CE0FD11D0FB6F894DEBF0FBE27
:0A3EB000CDBFED010895F894FFCF97
:103EBA005357313A20507573686564005357323A44
:103ECA0020507573686564005357333A20507573F0
:103EDA00686564006C7443743A2025642020727407
:103EEA0043743A2025640A006C744C743A202533D2
:103EFA002E32662072744C743A2025332E32660AAA
:103F0A000A00667449523A2025332E32660A006244
:103F1A006B49523A2025332E32660A006C74495294
:103F2A003A2025332E32660A00727449523A202505
:103F3A00332E32660A001F02010303010101100831
:103F4A000400000002000000000610000000001C2F
:103F5A0005000069050000BC05000013060000709A
:103F6A00060000D20600003A070000A80700001C5D
:103F7A00080000980800001A090000A509000000BE
:103F8A0002040507090B00180C0410C080206020E9
:063F9A0000F0020000002F
:00000001FF
