:100000000C94B0020C94CD020C94CD020C94CD0251
:100010000C94490C0C94720C0C949B0C0C94C40C16
:100020000C94CD020C942A0B0C94530B0C947C0B67
:100030000C94F70B0C94A50B0C94CE0B0C94200C89
:100040000C94AF0A0C94D80A0C94010B0C94CD02BA
:100050000C94CD020C94CD020C94CD020C94CD02E4
:100060000C94CD020C94CD020C94CD020C94CD02D4
:100070000C94CD020C94CD020C94CD024508480896
:100080004B084E085708510854085A085D08600884
:100090006308660869086C086F08720875087808B4
:1000A0007B088C088F08920895089E0898089B0882
:1000B000A108A408A708AA08AD08B008B308B608A4
:1000C000B908BC08BF08C20807634236B79BD8A767
:1000D0001A39685618AEBAAB558C1D3CB7CC57636D
:1000E000BD6DEDFD753EF6177231BF000000803F1B
:1000F00008000000BE922449123EABAAAA2ABECD37
:10010000CCCC4C3E00000080BEABAAAAAA3E0000A8
:100110000000BF000000803F0000000000084178A0
:10012000D3BB4387D1133D190E3CC3BD4282AD2BD7
:100130003E68EC8276BED98FE1A93E4C80EFFFBECF
:1001400001C4FF7F3F000000000016050100000011
:1001500000000000FA000000E000E00028FE28FE99
:10016000282454FE5448C4C81026466C92AA44A0C1
:1001700000A0C000000038448200008244380028FB
:10018000107C102810107C1010000A0C00001010B9
:10019000101010000606000004081020407C8A920F
:1001A000A27C0042FE020042868A92628482A2D22F
:1001B0008C182848FE08E4A2A2A29C3C5292920C01
:1001C000808E90A0C06C9292926C60929294780013
:1001D0006C6C0000006A6C00001028448200282823
:1001E000282828008244281040808A90604C929EE3
:1001F000827C7E8888887EFE9292926C7C8282824B
:1002000044FE82824438FE92929282FE90909080C8
:100210007C8292925EFE101010FE0082FE8200042C
:100220000282FC80FE10284482FE02020202FE408E
:100230003040FEFE201008FE7C8282827CFE909080
:1002400090607C828A847AFE909894626292929204
:100250008C8080FE8080FC020202FCF8040204F81C
:10026000FC021C02FCC6281028C6E0100E10E08616
:100270008A92A2C200FE82820040201008040082FE
:1002800082FE0020408040200202020202008040E4
:100290002000042A2A2A1EFE1222221C1C222222AC
:1002A000041C222212FE1C2A2A2A18107E9080404A
:1002B000304A4A4A7CFE1020201E0022BE02000462
:1002C0000222BC00FE081422000082FE02003E2032
:1002D00018201E3E1020201E1C2222221C3E2828F0
:1002E0002810102828183E3E10202010122A2A2AF2
:1002F0000420FC2202043C0202043E3804020438BA
:100300003C020C023C2214081422300A0A0A3C2245
:10031000262A322200106C82000000FE00000082BB
:100320006C1000081010081000000000007F818190
:10033000817F7F8383837F7F8787877F7F8F8F8F77
:100340007F7F9F9F9F7F7FBFBFBF7F7FFFFFFF7F1D
:100350002040FF4020621517156500FBFB000000E0
:1003600000000000C0FF0300E0FF0700F0FF0F00E7
:10037000F8FF1F0078001E0078001E0078001E00A5
:1003800078001E0078001E0078001E0078001E0015
:1003900078001E0078001E00000000000000000031
:1003A00080FF0300E0FF0700F0FF0F00F8FF1F00D1
:1003B000F83C1F00783C1E00783C1E00783C1E0074
:1003C000783C1E00783C1E00783C1E00783C1E00E5
:1003D000783C1E00783C1E00783C1E0000000000A7
:1003E00000000000E0FF0300F0FF0700F8FF0F002F
:1003F000F8FF1F00783C1E00783C1E00783C1E0071
:10040000783C1E00783C1E00783C1E00783C1E00A4
:10041000783C1E00783C1E00783C1E000000000066
:1004200000000000F8FF0300F8FF0F00F8FF1F00B6
:10043000F8FF1F0000001E0000001E0000801F00CB
:1004400000F01F0000FF0F00E0FF0700F0FF0000BA
:10045000F80F0000F80000007800000078000000AD
:10046000F8FF1F00F8FF1F00F0FF1F00E0FF1F0054
:100470000000000000000000F8FF1F00F8FF1F0050
:10048000F8FF1F00F8FF1F0078001E00783C1E00D8
:10049000783C1E00783C1E00783C1E00783C1E0014
:1004A000783C1E00F87E1F00F8FF1F00F0FF0F00D1
:1004B000E0E703000000000000003800EEFF6C00E1
:1004C0002A8045003A0047FC03FF6CFC83FF39009B
:1004D000DEFF0B7CD0810BFCD0810BC0D0810BFCEC
:1004E000D0810B7CDEFF0B0082FF397002FF6CF8BD
:1004F0003A0047DC2A8045CCEEFF6CCC0000380087
:100500000000000C00001E0C00001E0000001E0079
:1005100000001E0000001E00F8FF1F00F8FF1F0073
:10052000F8FF1F00F8FF1F0000001E0000001E0063
:1005300000001E0000001E0000005E0000004000E1
:1005400000007C00000040000000400000007C0033
:1005500000003000000010000000300000007C00AF
:1005600011241FBECFEFD8E0DEBFCDBF11E0A0E069
:10057000B1E0EAEFF3E302C005900D92A038B107B5
:10058000D9F712E0A0E8B1E001C01D92AF37B10782
:10059000E1F70E9414060C94FB190C9400001F93C1
:1005A000CF93DF93EC0188E660E00E94130A182FD6
:1005B0008823A1F481E00E94ED09182F882371F4AB
:1005C00088E661E00E94130A182F882339F4CE01CF
:1005D00060E00E94C109182F811118820E94590AF7
:1005E000812FDF91CF911F9108951F93CF93DF93B8
:1005F000EC0188E660E00E94130A182F8823A1F41A
:1006000089E00E94ED09182F882371F488E661E0E3
:100610000E94130A182F882339F4CE0160E00E944B
:10062000C109182F811118820E94590A812FDF9168
:10063000CF911F9108951F93CF93DF93EC0188E62C
:1006400060E00E94130A182F8823A1F488E00E941A
:10065000ED09182F882371F488E661E00E94130ADF
:10066000182F882339F4CE0160E00E94C109182FA9
:10067000811118820E94590A812FDF91CF911F9119
:1006800008951F93CF93DF93EC0188E660E00E940A
:10069000130A182F8823A1F487E00E94ED09182F70
:1006A000882371F488E661E00E94130A182F8823DA
:1006B00039F4CE0160E00E94C109182F811118821F
:1006C0000E94590A812FDF91CF911F9108951F93A6
:1006D000CF93DF93EC0188E660E00E94130A182FA5
:1006E0008823A1F486E00E94ED09182F882371F475
:1006F00088E661E00E94130A182F882339F4CE019E
:1007000060E00E94C109182F811118820E94590AC5
:10071000812FDF91CF911F9108951F93CF93DF9386
:10072000EC0188E660E00E94130A182F8823A1F4E8
:1007300085E00E94ED09182F882371F488E661E0B6
:100740000E94130A182F882339F4CE0160E00E941A
:10075000C109182F811118820E94590A812FDF9137
:10076000CF911F9108951F93CF93DF93EC0188E6FB
:1007700060E00E94130A182F8823A1F484E00E94ED
:10078000ED09182F882371F488E661E00E94130AAE
:10079000182F882339F4CE0160E00E94C109182F78
:1007A000811118820E94590A812FDF91CF911F91E8
:1007B00008951F93CF93DF93EC0188E660E00E94D9
:1007C000130A182F8823A1F483E00E94ED09182F43
:1007D000882371F488E661E00E94130A182F8823A9
:1007E00039F4CE0160E00E94C109182F81111882EE
:1007F0000E94590A812FDF91CF911F9108951F9375
:10080000CF93DF93EC0188E660E00E94130A182F73
:100810008823A1F482E00E94ED09182F882371F447
:1008200088E661E00E94130A182F882339F4CE016C
:1008300060E00E94C109182F811118820E94590A94
:10084000812FDF91CF911F9108951F93CF93DF9355
:10085000EC0188E660E00E94130A182F8823A1F4B7
:1008600080E00E94ED09182F882371F488E661E08A
:100870000E94130A182F882339F4CE0160E00E94E9
:10088000C109182F811118820E94590A812FDF9106
:10089000CF911F91089581E00E94090685E00E9492
:1008A000D2050E94B505A0E0B0E0BC01CD010E94D8
:1008B000C61520E030E040EA50E40E94F4149B01A9
:1008C000AC0160E070E286E395E40E945D1520E0F3
:1008D00030E040E85FE30E94F3142CE033E949EC98
:1008E0005EE30E948F16089581E00E94090687E06A
:1008F0000E94D2050E94B505A0E0B0E0BC01CD0188
:100900000E94C61520E030E040EA50E40E94F41452
:100910009B01AC0160E070E286E395E40E945D1506
:1009200020E030E040E85FE30E94F3142CE033E97C
:1009300049EC5EE30E948F16089581E00E9409064B
:1009400083E00E94D2050E94B505A0E0B0E0BC01A2
:10095000CD010E94C61520E030E040EA50E40E943C
:10096000F4149B01AC0160E070E286E395E40E9420
:100970005D1520E030E040E85FE30E94F3142CE0D6
:1009800033E949EC5EE30E948F16089581E00E94EE
:10099000090684E00E94D2050E94B505A0E0B0E0FF
:1009A000BC01CD010E94C61520E030E040EA50E4D1
:1009B0000E94F4149B01AC0160E070E286E395E4D0
:1009C0000E945D1520E030E040E85FE30E94F314F0
:1009D0002CE033E949EC5EE30E948F16089581E034
:1009E0000E94090685E00E94D2050E94B505A0E09C
:1009F000B0E0BC01CD010E94C61520E030E040EA25
:100A00005BE30E948F16089581E00E94090686E04C
:100A10000E94D2050E94B505A0E0B0E0BC01CD0166
:100A20000E94C61520E030E040EA5BE30E948F168A
:100A30000895FF920F931F93CF93DF9381E08093EC
:100A4000FC0180E00E94C508182F81E00E94C508C3
:100A5000082F82E00E94C508F82E113019F0C0E07E
:100A6000D0E017C080E091E00E94C61988EE93E0C4
:100A70000E94620980E20E942C0780ED97E00E94AC
:100A8000620980E40E94170780E20E941707C1E014
:100A9000D0E00130B9F48CE091E00E94C61988EEF4
:100AA00093E00E94620980E40E942C0780ED97E0A9
:100AB0000E94620980E40E94170780E20E941707E3
:100AC000C2E0D0E081E0F816D1F488E191E00E9424
:100AD000C61988EE93E00E94620980E40E942C0708
:100AE00080E20E942C0780ED97E00E94620980E47A
:100AF0000E94170780E20E941707C3E0D0E00E941F
:100B00001D06CE01DF91CF911F910F91FF900895A7
:100B10000E9413099093FC018093FB010E9423071C
:100B20009093FA018093F9010E943A069093F8019C
:100B30008093F70181E00E9429080E9423070E9408
:100B40006D0A0E94A70581E00E940906FFCF8FE091
:100B50000E943608882331F40E94940A8FE061E0F5
:100B60000E947E088FE091E008958FE00E94360891
:100B7000813019F020E030E013C080917A00806469
:100B800080937A0080917A0086FDFCCF30917800C6
:100B900020917900922F80E0232F30E0282B392BF1
:100BA000C9010895582F809124018830D8F44091CC
:100BB0007E0021E030E0B90102C0660F771F8A9500
:100BC000E2F7CB018095842380937E0080917E00A4
:100BD000052E02C0220F331F0A94E2F7822B809366
:100BE0007E000DC020917E0081E090E0052E02C0C5
:100BF000880F991F0A94E2F7282B20937E005093C8
:100C0000240180917C005F71807E852B80937C0025
:100C10000895ECE7F0E090818295880F880F807C42
:100C20009F73982B908308950E94AD0A0E949F0A9B
:100C30000E94880580E090E008950F931F9380E460
:100C400060E00E94FC0600E0802F60E00E94E30666
:100C500010E080E061E00E94FC061F5F1038C9F7D9
:100C60000F5F043089F783E060E00E94DC061F918B
:100C70000F9108950F931F9382E00E9436088823F6
:100C800011F482E006C081E00E943608882319F43E
:100C900081E090E06DC00E94150D85E061E00E944A
:100CA0007E088EEA60E00E94FC0682EA60E00E9414
:100CB000FC0680EA60E00E94FC0600E513ECC80137
:100CC0000197F1F780EC60E00E94FC068FE260E0A3
:100CD0000E94FC0681E860E00E94FC0686E160E07C
:100CE0000E94FC0682E260E00E94FC06C8010197B7
:100CF000F1F78FEA60E00E94FC0686EA60E00E945D
:100D0000FC0685EA60E00E94FC0680E090E028E8AE
:100D100033E1F9013197F1F7019643E0883E9407FA
:100D2000C1F783EB60E00E94FC0680E460E00E9473
:100D3000FC0683E060E00E94E30683E060E00E943E
:100D4000DC061092120210921402109213028BE22F
:100D500091E090937C0280937B0288E10E94BB0625
:100D60000E941D0684EA60E00E94FC0685E091E096
:100D70001F910F9108951F93182F85E00E94360848
:100D80008130C1F487E00E94380782E06AE00E9467
:100D9000890782E061EB0E948907612F113208F018
:100DA00060E282E00E94890789EE8A95F1F787E088
:100DB0000E9438071F91089583706F776093100227
:100DC0008093110208950F931F93062F162F1F77FC
:100DD0008370806B60E00E94FC0612951F70812F6B
:100DE000806160E00E94FC06802F8F7060E00E94AE
:100DF000FC061F910F9108950F931F93082F162F34
:100E000085E00E943608813079F4112319F0113001
:100E100021F402C02B9801C02B9A86E08A95F1F745
:100E200080E0602F0E9489071F910F9108951F9302
:100E3000182F86E00E943608813019F4812F0E9415
:100E4000C40D1F9108950E94C90D86E061E00E94C3
:100E50007E0886E091E008951F93182F86E00E9497
:100E60003608813019F4812F0E94CC0D1F9108950E
:100E70001F93182F82E00E943608813009F047C086
:100E8000912F977080911502981709F440C09093A4
:100E9000150285B1887F892B85B9933011F1943083
:100EA00028F4913051F0923090F40CC0953019F143
:100EB0009530E0F0963021F50FC0E091D201F0912D
:100EC000D30122C0E091D001F091D1011DC0E09189
:100ED000D401F091D50118C0E091DC01F091DD0161
:100EE00013C0E091D601F091D7010EC0E091D80176
:100EF000F091D90109C0E091DA01F091DB0104C061
:100F0000E091DE01F091DF01309709F009951F9122
:100F100008951F93162F0E94380782E00E9436081A
:100F2000813021F41EBD0DB407FEFDCF1F91089541
:100F30000F931F93CF93DF9380E291E00E94C1183B
:100F40009C019093EF018093EE01892B11F480E0D6
:100F500039C08901C0E0D0E0BE0180E090E00E948D
:100F6000C61520E030E040EA51E40E945D1527EF0D
:100F700035E740E05FE30E948F169B01AC0160E023
:100F800070E080E291E40E94FA169B01AC01CA0174
:100F9000B9012DEC3CEC42E851E40E948F160E940E
:100FA00055162AE030E040E050E00E948018F80139
:100FB00061937193819391938F012196C834D105E8
:100FC00059F681E0DF91CF911F910F9108958AE04A
:100FD0000E943608882371F41092EB011092EA0106
:100FE00081E00E94F50E81E08093E1018AE061E0FA
:100FF0000E947E088AE091E008951F938BE00E9492
:101000003608882311F090E021C089E00E9436085C
:101010008823D9F40E949807182F8130B1F41092D8
:10102000E2011092E3011092E4011092E5018DE0DB
:1010300068E77EE00E94ED0C82E00E94F50E1093BE
:10104000E00189E061E00E947E0891E089E01F9163
:101050000895813029F0823031F090E089E00895E0
:101060000E94E70708950E94FD070895E82FF0E029
:10107000E331F10540F4E25CFF4FEE0FFF1F0590F6
:10108000F491E02D099480E008958091FD01089588
:101090008091FE0108958091FF01089580910002E2
:1010A000089580910102089580910302089580912E
:1010B0000202089580910402089580910502089526
:1010C0008091060208958091070208958091080298
:1010D000089580910902089580910A0208958091EF
:1010E0000B02089580910C02089580910D020895DD
:1010F00080910E02089580910F020895E82FF0E08C
:10110000E331F10508F040C0EF5AFF4FEE0FFF1F2B
:101110000590F491E02D09946093FD01089560938A
:10112000FE0108956093FF01089560930002089501
:101130006093010208956093030208956093020290
:1011400008956093040208956093050208956093E2
:1011500006020895609307020895609308020895B7
:1011600060930902089560930A02089560930B0248
:10117000089560930C02089560930D0208956093A2
:101180000E02089560930D0208951F93CF93DF938D
:10119000182F80918301882341F080918D0188234D
:1011A00099F01092830110928D010E94950F809307
:1011B000820187E891E061E040E022E330E00E94B4
:1011C000830981E08093830190918201A12FB0E097
:1011D000ED01CB5DDE4F8881882369F0FD01E85D7C
:1011E000FE4F80819823C1F0FD01EC57FE4F81E056
:1011F0008083188211C0FD01EC57FE4F8081811160
:101200001082FD01E85DFE4F8081982329F4FD01E5
:10121000EB5DFE4F81E08083AC57BE4F8C91DF9138
:10122000CF911F91089582E00E943608882319F417
:1012300090E082E0089510922B0210922A02109200
:101240002D0210922C0210922F0210922E02109258
:10125000310210923002109233021092320280E971
:1012600091E0909317028093160290931902809355
:10127000180290931B0280931A0290931D02809390
:101280001C0290931F0280931E0284E398E09093C7
:101290002102809320029093230280932202909354
:1012A0002502809324029093270280932602909334
:1012B00029028093280281E061E00E947E0891E08B
:1012C00081E00895DF93CF93CDB7DEB729970FB6AE
:1012D000F894DEBF0FBECDBF9C01CE01019661E048
:1012E00040E00E948309982F882319F48F81882376
:1012F000E9F3892F29960FB6F894DEBF0FBECDBF54
:10130000CF91DF910895EF92FF920F931F93CF93A8
:10131000DF93EC01F62EE42E890188E00E94360866
:10132000813011F081E026C084E090E00E94C11875
:10133000FC01009711F482E01DC0F982F0FC1E82CE
:1013400081E0E81619F48981846089838981886045
:1013500089831B830A831D830C83D183C0831382FB
:10136000128281E08093F001CF010E94C60F10929B
:10137000F00180E0DF91CF911F910F91FF90EF90EE
:101380000895FC0180913702813011F085E00895C5
:1013900080913802813011F08AE00895613011F4B3
:1013A00084EC01C084E88093BC008091BC0087FF7E
:1013B000FCCF613031F48091B900887F803559F4D9
:1013C00005C08091B900887F883529F48091BB00E1
:1013D000808380E0089582E00895982F80913702FD
:1013E000813011F085E0089580913802813011F04C
:1013F0008AE008959093BB0084E88093BC008091BC
:10140000BC0087FFFCCF8091B90090E0887F90708E
:101410008832910521F0C09721F483E0089580E09F
:1014200008958CE00895982F20913702213011F013
:1014300085E0089580913902813011F489E00895A2
:101440002093380284EA8093BC008091BC0087FF1F
:10145000FCCF8091B900887F883039F08091B90045
:10146000887F803111F081E00895613019F4990F7F
:10147000916003C0662319F4990F9093BB0084E830
:101480008093BC008091BC0087FFFCCF613031F4B9
:101490008091B900887F803441F409C0662339F413
:1014A0008091B900887F883111F082E0089580E052
:1014B000089580913802813011F08AE0089580917A
:1014C0003A02813029F485E98093BC0080E00895D8
:1014D00084E98093BC0080E0089582E10E94360890
:1014E0008823B1F410923702109238021092390218
:1014F00010923A0210923B020E94621087E160E073
:101500000E948B0A0E94581082E161E00E947E08CE
:1015100082E190E0089563706093B9008093B80011
:1015200081E08093370208958FE180937C00EAE7A1
:10153000F0E087E0808380818068808308950E9446
:10154000720F0E94D10D0E94010D0E942F100E9467
:10155000360E0E94130978940895000008951F9292
:101560000F920FB60F9211242F933F934F935F93D7
:101570006F937F938F939F93AF93BF93EF93FF935B
:10158000E091B001F091B101309709F00995FF9118
:10159000EF91BF91AF919F918F917F916F915F91EB
:1015A0004F913F912F910F900FBE0F901F90189564
:1015B0001F920F920FB60F9211242F933F934F93C8
:1015C0005F936F937F938F939F93AF93BF93EF93AB
:1015D000FF93E091B201F091B301309709F00995C2
:1015E000FF91EF91BF91AF919F918F917F916F91FB
:1015F0005F914F913F912F910F900FBE0F901F90D1
:1016000018951F920F920FB60F9211242F933F93AC
:101610004F935F936F937F938F939F93AF93BF93FA
:10162000EF93FF93E091B401F091B501309709F089
:101630000995FF91EF91BF91AF919F918F917F910C
:101640006F915F914F913F912F910F900FBE0F902F
:101650001F9018951F920F920FB60F9211242F937F
:101660003F934F935F936F937F938F939F93AF932A
:10167000BF93EF93FF93E091A201F091A301309704
:1016800009F00995FF91EF91BF91AF919F918F91D3
:101690007F916F915F914F913F912F910F900FBE6E
:1016A0000F901F9018951F920F920FB60F92112452
:1016B0002F933F934F935F936F937F938F939F935A
:1016C000AF93BF93EF93FF93E091A401F091A50135
:1016D000309709F00995FF91EF91BF91AF919F91DC
:1016E0008F917F916F915F914F913F912F910F90CB
:1016F0000FBE0F901F9018951F920F920FB60F926A
:1017000011242F933F934F935F936F937F938F9306
:101710009F93AF93BF93EF93FF93E091A601F09156
:10172000A701309709F00995FF91EF91BF91AF9113
:101730009F918F917F916F915F914F913F912F91E9
:101740000F900FBE0F901F9018951F920F920FB61B
:101750000F9211242F933F934F935F936F937F9337
:101760008F939F93AF93BF93EF93FF93E091AA0161
:10177000F091AB01309709F00995FF91EF91BF917E
:10178000AF919F918F917F916F915F914F913F9119
:101790002F910F900FBE0F901F9018951F920F92D0
:1017A0000FB60F9211242F933F934F935F936F9334
:1017B0007F938F939F93AF93BF93EF93FF93E091AA
:1017C000AC01F091AD01309709F00995FF91EF91CF
:1017D000BF91AF919F918F917F916F915F914F9149
:1017E0003F912F910F900FBE0F901F9018951F9251
:1017F0000F920FB60F9211242F933F934F935F9345
:101800006F937F938F939F93AF93BF93EF93FF93C8
:10181000E091A801F091A901309709F00995FF9195
:10182000EF91BF91AF919F918F917F916F915F9158
:101830004F913F912F910F900FBE0F901F901895D1
:101840001F920F920FB60F9211242F933F934F9335
:101850005F936F937F938F939F93AF93BF93EF9318
:10186000FF93E091AE01F091AF01309709F0099537
:10187000FF91EF91BF91AF919F918F917F916F9168
:101880005F914F913F912F910F900FBE0F901F903E
:1018900018951F920F920FB60F9211242F933F931A
:1018A0004F935F936F937F938F939F93AF93BF9368
:1018B000EF93FF93E0919801F0919901309709F02F
:1018C0000995FF91EF91BF91AF919F918F917F917A
:1018D0006F915F914F913F912F910F900FBE0F909D
:1018E0001F9018951F920F920FB60F9211242F93ED
:1018F0003F934F935F936F937F938F939F93AF9398
:10190000BF93EF93FF93E0919A01F0919B01309781
:1019100009F00995FF91EF91BF91AF919F918F9140
:101920007F916F915F914F913F912F910F900FBEDB
:101930000F901F9018951F920F920FB60F921124BF
:101940002F933F934F935F936F937F938F939F93C7
:10195000AF93BF93EF93FF93E0919C01F0919D01B2
:10196000309709F00995FF91EF91BF91AF919F9149
:101970008F917F916F915F914F913F912F910F9038
:101980000FBE0F901F9018951F920F920FB60F92D7
:1019900011242F933F934F935F936F937F938F9374
:1019A0009F93AF93BF93EF93FF93E0919E01F091CC
:1019B0009F01309709F00995FF91EF91BF91AF9189
:1019C0009F918F917F916F915F914F913F912F9157
:1019D0000F900FBE0F901F901895E82F803268F47B
:1019E0008051833050F0F0E0EE0FFF1FE057FE4FC4
:1019F000208131817183608302C020E030E0C90121
:101A0000089580E10E943608882361F4E0E9F1E05E
:101A10001192119281E0E03DF807D1F780E161E099
:101A20000E947E0880E191E00895239A0895FF9234
:101A30000F931F93CF93DF93F82E8AE0F816B1F03F
:101A40008F1548F0E8E0FE16B9F1EF1538F1F7E030
:101A5000FF1651F43BC08DE0F81659F0EBE1FE168D
:101A600089F0FCE0FF1641F001E041C01092100245
:101A700003C0109210023AC08091110281508093ED
:101A8000110234C00E941D0614C080E061E00E9473
:101A9000FC06809110028F5F8093100280911002EB
:101AA00087FFF3CF10921002809111028150809332
:101AB000110200E011E01CC0809110028823B1F0F7
:101AC0008091100286508093100210C081E00E9425
:101AD000290864EF71E080E090E04DE750E024E6F3
:101AE00030E00E941F0F81E00E94EB0E00E010E04A
:101AF00080911102609110020E94E306002351F1CF
:101B000085E0F89EC0011124EC01C355DF4F8C0124
:101B10000E541F4FFE01849161E00E94FC06219645
:101B2000C017D107B9F780E061E00E94FC06809100
:101B300010028A5F809310028091100290E08C372F
:101B400091053CF010921002809111028150809317
:101B5000110211E080911102837080931102113003
:101B600059F480911202813039F4E0911302F0911E
:101B70001402309709F0099580E090E0DF91CF9151
:101B80001F910F91FF90089585FD5D9886FD5E98E9
:101B90000895559A569A089585FD5D9A86FD5E9A38
:101BA000089580E00E943608882351F4F8940E943A
:101BB000761081E00E94E30D80E061E00E947E08E3
:101BC00080E091E00895813049F0F894813020F16F
:101BD0008230B1F0833009F045C017C02C9A80E8FC
:101BE000809361001092610080E090E00000019617
:101BF00088329105D9F71092680010926B00089511
:101C000080E88093610083E004C080E880936100F5
:101C100088E08093610028C080E090E00000019699
:101C20002DE680369207D1F72C9880E090E00000F6
:101C300001962DE680369207D1F710927A008FEF49
:101C40008093640080916800816080936800809137
:101C50006B00846080936B00789483B7816083BF4E
:101C600088950895823008F0789408950F931F9313
:101C70000E94A21080E061E970E10E946F0E81E095
:101C800069E870E10E946F0E82E061E870E10E94F5
:101C90006F0E86E069E970E10E946F0E09E710E1BE
:101CA00083E0B8010E946F0E84E0B8010E946F0EBD
:101CB00085E0B8010E946F0E87E0B8010E946F0EA8
:101CC00082E061E00E947E088FEF8093150287E03A
:101CD0000E94380782E091E01F910F910895E82F4C
:101CE000F0E0EE0FFF1FE053FE4F71836083089515
:101CF0000E947B0E08958091E2019091E301A091F2
:101D0000E401B091E5012091E6013091E7014091B5
:101D1000E8015091E901280F391F4A1F5B1F2093EA
:101D2000E2013093E3014093E4015093E501809197
:101D3000E2019091E301A091E401B091E5018851A5
:101D4000964FA040B040BCF08BB180588BB98091C9
:101D5000E2019091E301A091E401B091E501885185
:101D6000964FA040B0408093E2019093E301A0938E
:101D7000E401B093E50108958AE00E9436088130BD
:101D800041F40E94D2101092E1018AE060E00E94CA
:101D90007E08089589E00E9436088130D9F4809148
:101DA000E001882311F00E946C0F82E00E94D210A3
:101DB0008091EE019091EF01009731F00E946E1931
:101DC0001092EF011092EE011092E00189E060E0C4
:101DD0000E947E080895813029F0823029F40E9403
:101DE000CA0E08950E94BC0E0895982F8091E001BC
:101DF000882331F48091E101882311F4579A5F9888
:101E00008091E0018823D1F49230C1F410928000D7
:101E10001092810080918100886080938100809180
:101E2000810081608093810010928500109284006F
:101E300081E08093890080E98093880008958F92E3
:101E40009F92AF92BF92CF92DF92EF92FF920F9349
:101E50001F93CF93DF934B015C01EA01B901211578
:101E6000310539F19E01442737FD4095542F6536E1
:101E7000710510F064E670E080E090E00E94801848
:101E800024E630E040E050E00E949F1879018A018A
:101E9000C501B4010E94BB10C7010E94620960E045
:101EA00070E080E090E00E94BB10CE018E199F0987
:101EB00004C04115510519F0CA010E946209DF9161
:101EC000CF911F910F91FF90EF90DF90CF90BF9037
:101ED000AF909F908F900895EFE6F0E080818D7F26
:101EE000808308951092FD011092FE01109202026B
:101EF0001092FF011092010210920302109204024C
:101F00001092050210920602109207021092080227
:101F10001092090210920A0210920B0210920C0207
:101F200010920D0210920E0208950F931F9381E0FC
:101F30000E943608813011F000E024C087E00E9442
:101F4000380782E06AE00E94890782E062EB0E9423
:101F5000890718EC812F8A95F1F782E060E00E94F2
:101F6000A910082F812F8A95F1F782E060E00E9486
:101F7000A9101A95F1F787E00E94380788E893E1E5
:101F80000197F1F7802F1F910F910895CF92DF9263
:101F9000EF92FF920F931F93CF93DF93EC01809109
:101FA0003402882339F4D0933602C09335020E945C
:101FB000541047C0C0903502D090360200E010E0C7
:101FC000EE24FF2437C0A881B981FD0164817581A9
:101FD000F60140815181FA01848195819B01281B82
:101FE000390B37FF0FC0861B970B95838483DB82E9
:101FF000CA82012B29F4D0933602C093350221C046
:10200000F7010CC0F601828193812115310549F455
:10201000FD01158214829B838A83F601D383C283D8
:1020200010C0FD01358324830097B9F30F5F1F4F64
:1020300076016C018091340290E00817190718F2BC
:10204000ECCF809134028F5F80933402DF91CF9187
:102050001F910F91FF90EF90DF90CF90089588E04F
:102060000E9436088823B9F4109234021092360286
:10207000109235021092F0011092F10180E16EEEA3
:1020800070E10E9465100E94F5100E944E1088E0D9
:1020900061E00E947E0888E091E00895EEE6F0E0BD
:1020A000808182608083089581E08093F1010895AA
:1020B00080913702813029F48091BC008460809344
:1020C000BC000895389839980895803218F020E0BF
:1020D00030E00AC0E82FF0E0EE0FFF1FE057FE4FA0
:1020E0002081318171836083C9010895249A2C9ADB
:1020F000089583E58CBD81E08DBD8DE08A95F1F773
:10210000089583E58CBD1DBC84EF91E00197F1F744
:1021100008958FE78CBD1DBC84EF91E00197F1F726
:10212000089583E58CBD81E08DBD8DE08A95F1F742
:10213000089583E58CBD81E08DBD84EF91E001972A
:10214000F1F70895259A2698279A209A219A229A9B
:1021500008951F93162F0E94380782E00E943608C8
:10216000813011F080E005C01EBD0DB407FEFDCF2B
:102170008EB51F9108959B01AC018091E1018823E8
:1021800081F0DA01C901880F991FAA1FBB1F909324
:10219000ED018093EC01211531054105510509F44C
:1021A0005F980895823029F4809181008E7F80931A
:1021B00081008091E001813031F48091E101813032
:1021C00011F4000008958091E001813021F08091A8
:1021D000E101813011F45F98579808950E94FE1034
:1021E0000E943E110E941711089584B5826084BD3B
:1021F00085B5846085BD8EE487BD089588E00E9422
:102200003608882311F484E008958091F101882331
:1022100011F483E008958091F001882311F082E0A9
:1022200008950E94D2138130E1F380E008958091F7
:10223000E101813011F58091EA019091EB0120914B
:10224000EC013091ED01280F391F3093EB01209301
:10225000EA018091EA019091EB01885E93406CF075
:102260008BB180588BB98091EA019091EB01885E27
:1022700093409093EB018093EA01089587E00E94D8
:102280003608813009F0AAC0809146029091470239
:10229000892B09F180916A0290916B02209146028C
:1022A00030914702820F931F90936B0280936A02D2
:1022B00080916A0290916B02885E9340A4F08091B5
:1022C0006A0290916B02885E934090936B028093B8
:1022D0006A0241E009C080913E0290913F029093D2
:1022E00043028093420240E080914802909149026B
:1022F000892B09F180916C0290916D022091480226
:1023000030914902820F931F90936D0280936C026B
:1023100080916C0290916D02885E9340A4F0809150
:102320006C0290916D02885E934090936D02809351
:102330006C0261E009C0809140029091410290934B
:1023400045028093440260E0842F0E94EF11809147
:102350006602909167022091420230914302280F59
:10236000391F309367022093660280916602909134
:102370006702885E934014F440E00BC080916602CF
:1023800090916702885E9340909367028093660203
:1023900041E080916802909169022091440230915D
:1023A0004502280F391F30936902209368028091FB
:1023B000680290916902885E934014F460E00BC05B
:1023C0008091680290916902885E934090936902BF
:1023D0008093680261E0842F0E943412089588235C
:1023E000F1F020913E0230913F02809142029091A3
:1023F0004302281B390B1216130634F48091420253
:1024000090914302019607C0232B49F0809142022C
:102410009091430201979093430280934202662376
:1024200011F120914002309141028091440290913B
:102430004502281B390B1216130654F480914402EE
:10244000909145020196909345028093440208952D
:10245000232B49F08091440290914502019790937B
:1024600045028093440208950F931F93182F062F5F
:1024700080917202882309F0E7C080915A02882374
:1024800009F05AC08091420290914302892BE9F4ED
:102490008091F201837E8093F20110926302809119
:1024A0006E02882309F45DC060915C0280E00E94A6
:1024B000AD13E0917002F0917102309709F451C0B0
:1024C00081E0808310926E024CC080913C0281308A
:1024D00041F480914E0290914F02019711F411E066
:1024E00002C01123F1F1E0916102F0E0EF58FE4FDC
:1024F0009091F201937E8081892B8093F2018091EB
:102500005F02882321F4809161028F5F03C0809174
:102510006102815080936102809161028370809397
:10252000610281E08093630280913C028130C9F4B2
:1025300080E00E94371315C09091F201937E909332
:10254000F201E0916102F0E0EF58FE4F8081892BAB
:102550008093F20182E08093630210924302109212
:10256000420280915B02882309F059C080914402A5
:1025700090914502892BE9F48091F2018F7180934B
:10258000F2011092640280916F02882309F45CC00A
:1025900060915D0281E00E94AD13E0917002F091C4
:1025A0007102309709F450C081E0818310926F026C
:1025B0004BC080913D02813041F480915002909156
:1025C0005102019711F401E002C00023E9F1E0910A
:1025D0006202F0E0EB58FE4F9091F2019F71808112
:1025E000892B8093F20180916002882321F48091ED
:1025F00062028F5F03C08091620281508093620209
:102600008091620283708093620281E08093640211
:1026100080913D028130C1F40E94371315C0909122
:10262000F2019F719093F201E0916202F0E0EB58A9
:10263000FE4F8081892B8093F20182E080936402B7
:10264000109245021092440280916502882331F471
:1026500082EF91E0612F402F0E94401488B1837077
:102660009091F201892B88B91F910F9108958823C9
:1026700021F0813009F04EC027C080914E02909128
:102680004F02892B49F080914E0290914F020197A1
:1026900090934F0280934E0280916E028823D1F571
:1026A00020914E0230914F0280915202909153023C
:1026B0002817390779F580E060E070E00E948B13FD
:1026C00081E080936E0208958091500290915102B2
:1026D000892B49F08091500290915102019790937B
:1026E00051028093500280916F02882399F42091C7
:1026F0005002309151028091540290915502281756
:10270000390741F481E060E070E00E948B1381E0C2
:1027100080936F020895482F81E080937202CB016D
:1027200021E06139720710F080E991E0413071F0E9
:10273000413018F0423071F405C090933F0280930D
:102740003E0208C090933F0280933E029093410264
:10275000809340021092720208950F931F93182FD6
:10276000062F662349F460E070E00E948B13812FEE
:1027700060E070E00E94D81481E080937202113012
:1027800051F0113018F0123041F403C000935A0296
:1027900004C000935A0200935B02109272021F91D0
:1027A0000F910895FF920F931F93CF93DF93809122
:1027B0003402882309F459C0009135021091360281
:1027C000F801C081D1818C819D8101979D838C838B
:1027D000181619060CF449C0898180FF05C08E8146
:1027E000882311F481E08E83898181FF03C0EF810A
:1027F000F8850995809134028230A8F0F801828131
:102800009381909336028093350213821282E09175
:102810000000F091010084819581181619063CF0A2
:10282000FF24F39405C01092360210923502FF2463
:102830008091340281508093340280913402882345
:1028400011F40E943D14898182FF08C08A819B8116
:102850009D838C83C8010E94C60F08C0C8010E94D6
:102860006E1989818F7E898301C0FF248F2DDF91AE
:10287000CF911F910F91FF9008951092F10108954B
:10288000FC0180916302823069F48091F60191E04D
:1028900089278093F601882309F03EC08081837EDA
:1028A00080833AC08091420290914302C397A4F57D
:1028B0006623D1F0209142023091430280E690E0FD
:1028C000BC01269FC001279F900D369F900D1124BB
:1028D000880F892F881F990B909357028093560277
:1028E00081E08093F40118C08091F4018823A1F065
:1028F00080915602909157020197909357028093CE
:1029000056028091560290915702892B29F48081BA
:10291000837E80831092F40180916402823069F496
:102920008091F50191E089278093F501882309F0D2
:102930003EC080818F718083089580914402909180
:102940004502C397A4F54423D1F02091440230916D
:10295000450280E690E0AC01249FC001259F900DC8
:10296000349F900D1124880F892F881F990B909305
:1029700059028093580281E08093F3010895809179
:10298000F3018823A1F08091580290915902019798
:102990009093590280935802809158029091590265
:1029A000892B29F480818F7180831092F30108951F
:1029B000982F81E080937202913071F0913018F07D
:1029C000923071F405C070934F0260934E0208C0BC
:1029D00070934F0260934E027093510260935002C5
:1029E0001092720208955058BB27AA270ED022C118
:1029F00013D130F018D120F031F49F3F11F41EF4C0
:102A000008C10EF4E095E7FBFEC0E92F24D180F366
:102A1000BA17620773078407950718F099F4C6F58B
:102A20003CC10EF4E0950B2EBA2FA02D062E622F7E
:102A3000202D072E732F302D082E842F402D092E88
:102A4000952F502DFF27591B99F0593F50F4503EB8
:102A500068F11A16F040A22F232F342F4427585F15
:102A6000F3CF469537952795A795F0405395C9F72D
:102A70007EF41F16BA0B620B730B840BBAF09150E5
:102A8000A1F0FF0FBB1F661F771F881FC2F70EC084
:102A9000BA0F621F731F841F48F487957795679557
:102AA000B795F7959E3F08F0AECF9395880F08F045
:102AB0009927EE0F9795879508950CD0BBC0B3D09A
:102AC00040F0AAD030F021F45F3F19F09CC05111C2
:102AD000E5C09FC0C0D098F39923C9F35523B1F343
:102AE000951B550BBB27AA2762177307840738F07D
:102AF0009F5F5F4F220F331F441FAA1FA9F334D0DB
:102B00000E2E3AF0E0E831D091505040E695001C8E
:102B1000CAF72AD0FE2F28D0660F771F881FBB1F49
:102B2000261737074807AB07B0E809F0BB0B802D25
:102B30006E2F7F2FFF2793585F4F2AF09E3F51053E
:102B400068F061C0ABC05F3FECF3983EDCF3869564
:102B500077956795B795F7959F5FC9F7880F911D92
:102B60009695879597F90895E1E0660F771F881F7E
:102B7000BB1F621773078407BA0720F0621B730B31
:102B8000840BBA0BEE1F88F7E0950895E89409C00E
:102B900097FB3EF490958095709561957F4F8F4F90
:102BA0009F4F9923A9F0F92F96E9BB279395F695A6
:102BB000879577956795B795F111F8CFFAF4BB0F24
:102BC00011F460FF1BC06F5F7F4F8F4F9F4F16C088
:102BD000882311F096E911C0772321F09EE8872F12
:102BE000762F05C0662371F096E8862F70E060E0CE
:102BF0002AF09A95660F771F881FDAF7880F969547
:102C0000879597F9089597F99F6780E870E060E0ED
:102C100008959FEF80EC089500240A941616170675
:102C200018060906089500240A94121613061406BD
:102C300005060895092E0394000C11F4882352F020
:102C4000BB0F40F4BF2B11F460FF04C06F5F7F4FD8
:102C50008F4F9F4F089557FD9058440F551F59F0BF
:102C60005F3F71F04795880F97FB991F61F09F3F79
:102C700079F087950895121613061406551FF2CFA2
:102C80004695F1DF08C0161617061806991FF1CFF2
:102C900086957105610508940895E894BB27662719
:102CA0007727862F972F97F90895DDDFA8F19E5794
:102CB000A8F1985160F039F1983070F5092E9927F4
:102CC000660F771F881F991F0A94D1F71CC0BB2776
:102CD000993F4CF4B111B1E0B62B672F782F8827BC
:102CE000985FB1F708C0869577956795B79508F412
:102CF000B1609395C1F7BB0F30F411F460FF03C0CE
:102D00006F5F7F4F8F4F3EF49095809570956195E2
:102D10007F4F8F4F9F4F08956894C0CFBECF0AD08A
:102D200089CF7ADF28F07FDF18F0952309F06BCF89
:102D300070CFB4CF90DFA8F39923D9F35523C9F30B
:102D4000950F50E0551FAA27EE27FF27BB27002429
:102D50000894679520F4E20FF31FB41F0A1E220F98
:102D6000331F441FAA1F6695A9F7779530F4F30F18
:102D7000B41F0A1E121E08F46395330F441FAA1FC6
:102D8000221F769599F7879520F4B40F0A1E121E1C
:102D9000631F440FAA1F221F331F8695A9F7862F92
:102DA000712D602D11249F5750408AF0E1F0882347
:102DB0004AF0EE0FFF1FBB1F661F771F881F915041
:102DC0005040A9F79E3F510570F01DCF67CF5F3F80
:102DD000ECF3983EDCF3869577956795B795F79574
:102DE000E7959F5FC1F7FE2B880F911D96958795FC
:102DF00097F90895E42FF52FEE0FFF1F3096210568
:102E00003105A1F16115710561F48038BFE39B07BD
:102E100051F168949038810561F08038BFEF9B07CD
:102E200041F099234AF5FF3FE1053105210519F1EC
:102E3000E8940894E795A22FB32FAA2329F4AB2F87
:102E4000BE2FF85FD0F310C0FF5F70F4A695E0F7D7
:102E5000F73950F019F0FF3A38F49F779F930CD070
:102E60000F9007FC905808953EF0D3CE60E070E0DC
:102E700080E89FE308954FE79F775F934F933F93D9
:102E80002F93B2D02F913F914F915F9148DF05C0B2
:102E900019F40EF0B8CE01CFBCCEE5DEC8F39638FB
:102EA000C0F707F80F92E8942BE33AEA48EB5FE7A4
:102EB00043DF0F920F920F924DB75EB70F92D9D0AA
:102EC000E8ECF0E016D04F915F91EF91FF91E5951E
:102ED000EE1FFF1F49F0FE57E0684427EE0F441F26
:102EE000FA95E1F74195550B46D00F9007FE38C093
:102EF0000895DF93CF931F930F93FF92EF92DF928A
:102F0000E62EF72E082F192F689407C0DA2ECE2F41
:102F1000DF2F10DFEC2FFD2FE894C895A02D319600
:102F2000C895202D3196C895302D3196C895402DE5
:102F30003196C895502D31964EF3CE2FDF2F65DD9B
:102F4000EC2FFD2F2E2D3F2D402F512FDA94F9F627
:102F5000DF90EF90FF900F911F91CF91DF91089537
:102F6000262F372F482F592F60E070E080E89FE32D
:102F7000A4CD49CEB7C077DEE8F39923D9F3940FF7
:102F8000511DBBF39150504094F059F0882332F01A
:102F9000660F771F881F91505040C1F79E3F510523
:102FA00044F7880F911D9695879597F908955F3F8F
:102FB000ACF0983E9CF0BB27869577956795B795C2
:102FC00008F4B1609395C1F7BB0F58F711F460FF97
:102FD000E8CF6F5F7F4F8F4F9F4FE3CF5FCE0EF0F5
:102FE00081C017CE68940FCE3EDEC8F39923D1F38B
:102FF000C6F3DF93CF931F930F93FF92C92FDD2763
:1030000088232AF02197660F771F881FDAF720E0C0
:1030100030E040E85FEB9FE3883920F0803E30F0FD
:1030200021968F77E1DCE0EFF0E003C0DDDCEDE13D
:10303000F1E05FDF062F172F6C2F7D2FC82FD92FC0
:10304000FB2E6F5771097595771F880B990BA0DDC3
:1030500028E132E741E35FE36DDEAF2D202F312F12
:103060004C2F5D2FFF900F911F91CF91DF91CDDC01
:10307000E1CDE42FF52FA82FB92FAA0FBB1F262FC4
:10308000372F482F592FBF5728F42227332744279B
:10309000507821C0B75188F4AB2F0024469537955E
:1030A0002795011CA395D2F3002069F0220F331F4E
:1030B000441FB395DAF30FD096CC61307105A0E8C8
:1030C0008A07B94640F4262F372F482F592F6627F5
:1030D000772788279078309621F0208331834283A8
:1030E000538308959F3F31F0915020F48795779551
:1030F0006795B795880F911D9695879597F90895CF
:10310000629FD001739FF001829FE00DF11D649FCB
:10311000E00DF11D929FF00D839FF00D749FF00D57
:10312000659FF00D9927729FB00DE11DF91F639FF8
:10313000B00DE11DF91FBD01CF0111240895A1E2D9
:103140001A2EAA1BBB1BFD010DC0AA1FBB1FEE1F21
:10315000FF1FA217B307E407F50720F0A21BB30B6C
:10316000E40BF50B661F771F881F991F1A9469F7E8
:1031700060957095809590959B01AC01BD01CF0144
:103180000895CF93DF93BC018230910510F462E083
:1031900070E0A0917702B0917802ED01E0E0F0E0FC
:1031A00040E050E021C0888199818617970769F433
:1031B0008A819B81309719F09383828304C0909316
:1031C000780280937702FE0134C06817790738F4DB
:1031D0004115510519F08417950708F4AC01FE015B
:1031E0008A819B819C01E9012097E9F641155105EF
:1031F000A9F1CA01861B970B049708F4BA01E0E015
:10320000F0E02AC08D919C91119784179507F9F4ED
:103210006417750781F412968D919C9113973097DE
:1032200019F09383828304C090937802809377028D
:10323000FD0132964FC0CA01861B970BFD01E80FB6
:10324000F91F6193719302978D939C9343C0FD0185
:10325000828193819C01D9011097A1F6809175021A
:1032600090917602892B41F480917B0190917C01B1
:10327000909376028093750240917D0150917E017A
:103280004115510541F44DB75EB780917901909198
:103290007A01481B590B2091750230917602241750
:1032A0003507B0F4CA01821B930B8617970780F08D
:1032B000AB014E5F5F4F8417950750F0420F531FCD
:1032C0005093760240937502F9016193719302C0A5
:1032D000E0E0F0E0CF01DF91CF910895CF93DF934D
:1032E000009709F450C0EC0122971B821A82A0912A
:1032F0007702B0917802109709F140E050E0AC17E6
:10330000BD0708F1BB83AA83FE0121913191E20F31
:10331000F31FAE17BF0779F48D919C911197280F79
:10332000391F2E5F3F4F3983288312968D919C91D0
:1033300013979B838A834115510571F4D0937802CA
:10334000C093770220C012968D919C911397AD0186
:10335000009711F0DC01D3CFFA01D383C28321910E
:103360003191E20FF31FCE17DF0769F4888199814D
:10337000280F391F2E5F3F4FFA01318320838A8146
:103380009B8193838283DF91CF9108950F931F9345
:10339000CF93DF938C01E0917B02F0917C028381DB
:1033A00081FF21C0C0E0D0E00DC0E0917B02F09130
:1033B0007C0220853185BF01F9010995892B11F027
:1033C000CFEFDFEFF80181918F01882371F7E09152
:1033D0007B02F0917C02208531858AE0BF01F901F2
:1033E0000995892B11F0CFEFDFEFCE01DF91CF915F
:0A33F0001F910F910895F894FFCF8C
:1033FA005357313A20507573686564005357323A0F
:10340A0020507573686564005357333A20507573BA
:10341A00686564001F010101100804000000020031
:10342A00000000170D000000001C050000690500DF
:10343A0000BC0500001306000070060000D206005A
:10344A00003A070000A80700001C080000980800BE
:10345A00001A090000A50900000002040507090B6B
:10346A0000180C0410C080206020007F02000000B9
:00000001FF
